{
	"Voting/Voting.sol": {
		"Voting": {
			"abi": [
				{
					"anonymous": false,
					"inputs": [
						{
							"indexed": true,
							"internalType": "address",
							"name": "previousOwner",
							"type": "address"
						},
						{
							"indexed": true,
							"internalType": "address",
							"name": "newOwner",
							"type": "address"
						}
					],
					"name": "OwnershipTransferred",
					"type": "event"
				},
				{
					"anonymous": false,
					"inputs": [
						{
							"indexed": false,
							"internalType": "uint256",
							"name": "proposalId",
							"type": "uint256"
						}
					],
					"name": "ProposalRegistered",
					"type": "event"
				},
				{
					"anonymous": false,
					"inputs": [
						{
							"indexed": false,
							"internalType": "address",
							"name": "voter",
							"type": "address"
						},
						{
							"indexed": false,
							"internalType": "uint256",
							"name": "proposalId",
							"type": "uint256"
						}
					],
					"name": "Voted",
					"type": "event"
				},
				{
					"anonymous": false,
					"inputs": [
						{
							"indexed": false,
							"internalType": "address",
							"name": "voterAddress",
							"type": "address"
						}
					],
					"name": "VoterRegistered",
					"type": "event"
				},
				{
					"anonymous": false,
					"inputs": [
						{
							"indexed": false,
							"internalType": "enum Voting.WorkflowStatus",
							"name": "previousStatus",
							"type": "uint8"
						},
						{
							"indexed": false,
							"internalType": "enum Voting.WorkflowStatus",
							"name": "newStatus",
							"type": "uint8"
						}
					],
					"name": "WorkflowStatusChange",
					"type": "event"
				},
				{
					"inputs": [],
					"name": "computeWinningProposal",
					"outputs": [],
					"stateMutability": "nonpayable",
					"type": "function"
				},
				{
					"inputs": [],
					"name": "getProposals",
					"outputs": [
						{
							"components": [
								{
									"internalType": "string",
									"name": "description",
									"type": "string"
								},
								{
									"internalType": "uint256",
									"name": "voteCount",
									"type": "uint256"
								}
							],
							"internalType": "struct Voting.Proposal[]",
							"name": "",
							"type": "tuple[]"
						}
					],
					"stateMutability": "view",
					"type": "function"
				},
				{
					"inputs": [],
					"name": "owner",
					"outputs": [
						{
							"internalType": "address",
							"name": "",
							"type": "address"
						}
					],
					"stateMutability": "view",
					"type": "function"
				},
				{
					"inputs": [
						{
							"internalType": "uint256",
							"name": "",
							"type": "uint256"
						}
					],
					"name": "proposals",
					"outputs": [
						{
							"internalType": "string",
							"name": "description",
							"type": "string"
						},
						{
							"internalType": "uint256",
							"name": "voteCount",
							"type": "uint256"
						}
					],
					"stateMutability": "view",
					"type": "function"
				},
				{
					"inputs": [
						{
							"internalType": "string",
							"name": "description",
							"type": "string"
						}
					],
					"name": "registerProposal",
					"outputs": [],
					"stateMutability": "nonpayable",
					"type": "function"
				},
				{
					"inputs": [
						{
							"internalType": "address",
							"name": "_voterAdress",
							"type": "address"
						}
					],
					"name": "registerVoter",
					"outputs": [],
					"stateMutability": "nonpayable",
					"type": "function"
				},
				{
					"inputs": [
						{
							"internalType": "address[]",
							"name": "_votersAdresses",
							"type": "address[]"
						}
					],
					"name": "registerVoters",
					"outputs": [],
					"stateMutability": "nonpayable",
					"type": "function"
				},
				{
					"inputs": [],
					"name": "renounceOwnership",
					"outputs": [],
					"stateMutability": "nonpayable",
					"type": "function"
				},
				{
					"inputs": [],
					"name": "status",
					"outputs": [
						{
							"internalType": "enum Voting.WorkflowStatus",
							"name": "",
							"type": "uint8"
						}
					],
					"stateMutability": "view",
					"type": "function"
				},
				{
					"inputs": [
						{
							"internalType": "address",
							"name": "newOwner",
							"type": "address"
						}
					],
					"name": "transferOwnership",
					"outputs": [],
					"stateMutability": "nonpayable",
					"type": "function"
				},
				{
					"inputs": [
						{
							"internalType": "uint256",
							"name": "proposalId",
							"type": "uint256"
						}
					],
					"name": "voting",
					"outputs": [],
					"stateMutability": "nonpayable",
					"type": "function"
				},
				{
					"inputs": [
						{
							"internalType": "address",
							"name": "",
							"type": "address"
						}
					],
					"name": "whitelist",
					"outputs": [
						{
							"internalType": "bool",
							"name": "isRegistered",
							"type": "bool"
						},
						{
							"internalType": "bool",
							"name": "hasVoted",
							"type": "bool"
						},
						{
							"internalType": "uint256",
							"name": "votedProposalId",
							"type": "uint256"
						}
					],
					"stateMutability": "view",
					"type": "function"
				}
			],
			"devdoc": {
				"kind": "dev",
				"methods": {
					"owner()": {
						"details": "Returns the address of the current owner."
					},
					"renounceOwnership()": {
						"details": "Leaves the contract without owner. It will not be possible to call `onlyOwner` functions anymore. Can only be called by the current owner. NOTE: Renouncing ownership will leave the contract without an owner, thereby removing any functionality that is only available to the owner."
					},
					"transferOwnership(address)": {
						"details": "Transfers ownership of the contract to a new account (`newOwner`). Can only be called by the current owner."
					}
				},
				"version": 1
			},
			"evm": {
				"assembly": "    /* \"Voting/Voting.sol\":115:7567  contract Voting is Ownable {... */\n  mstore(0x40, 0x80)\n  callvalue\n  dup1\n  iszero\n  tag_1\n  jumpi\n  0x00\n  dup1\n  revert\ntag_1:\n  pop\n    /* \"@openzeppelin/contracts/access/Ownable.sol\":936:968  _transferOwnership(_msgSender()) */\n  tag_4\n    /* \"@openzeppelin/contracts/access/Ownable.sol\":955:967  _msgSender() */\n  tag_5\n    /* \"@openzeppelin/contracts/access/Ownable.sol\":955:965  _msgSender */\n  shl(0x20, tag_6)\n    /* \"@openzeppelin/contracts/access/Ownable.sol\":955:967  _msgSender() */\n  0x20\n  shr\n  jump\t// in\ntag_5:\n    /* \"@openzeppelin/contracts/access/Ownable.sol\":936:954  _transferOwnership */\n  shl(0x20, tag_7)\n    /* \"@openzeppelin/contracts/access/Ownable.sol\":936:968  _transferOwnership(_msgSender()) */\n  0x20\n  shr\n  jump\t// in\ntag_4:\n    /* \"Voting/Voting.sol\":115:7567  contract Voting is Ownable {... */\n  jump(tag_8)\n    /* \"@openzeppelin/contracts/utils/Context.sol\":640:736  function _msgSender() internal view virtual returns (address) {... */\ntag_6:\n    /* \"@openzeppelin/contracts/utils/Context.sol\":693:700  address */\n  0x00\n    /* \"@openzeppelin/contracts/utils/Context.sol\":719:729  msg.sender */\n  caller\n    /* \"@openzeppelin/contracts/utils/Context.sol\":712:729  return msg.sender */\n  swap1\n  pop\n    /* \"@openzeppelin/contracts/utils/Context.sol\":640:736  function _msgSender() internal view virtual returns (address) {... */\n  swap1\n  jump\t// out\n    /* \"@openzeppelin/contracts/access/Ownable.sol\":2433:2620  function _transferOwnership(address newOwner) internal virtual {... */\ntag_7:\n    /* \"@openzeppelin/contracts/access/Ownable.sol\":2506:2522  address oldOwner */\n  0x00\n    /* \"@openzeppelin/contracts/access/Ownable.sol\":2525:2531  _owner */\n  dup1\n  0x00\n  swap1\n  sload\n  swap1\n  0x0100\n  exp\n  swap1\n  div\n  0xffffffffffffffffffffffffffffffffffffffff\n  and\n    /* \"@openzeppelin/contracts/access/Ownable.sol\":2506:2531  address oldOwner = _owner */\n  swap1\n  pop\n    /* \"@openzeppelin/contracts/access/Ownable.sol\":2550:2558  newOwner */\n  dup2\n    /* \"@openzeppelin/contracts/access/Ownable.sol\":2541:2547  _owner */\n  0x00\n  dup1\n    /* \"@openzeppelin/contracts/access/Ownable.sol\":2541:2558  _owner = newOwner */\n  0x0100\n  exp\n  dup2\n  sload\n  dup2\n  0xffffffffffffffffffffffffffffffffffffffff\n  mul\n  not\n  and\n  swap1\n  dup4\n  0xffffffffffffffffffffffffffffffffffffffff\n  and\n  mul\n  or\n  swap1\n  sstore\n  pop\n    /* \"@openzeppelin/contracts/access/Ownable.sol\":2604:2612  newOwner */\n  dup2\n    /* \"@openzeppelin/contracts/access/Ownable.sol\":2573:2613  OwnershipTransferred(oldOwner, newOwner) */\n  0xffffffffffffffffffffffffffffffffffffffff\n  and\n    /* \"@openzeppelin/contracts/access/Ownable.sol\":2594:2602  oldOwner */\n  dup2\n    /* \"@openzeppelin/contracts/access/Ownable.sol\":2573:2613  OwnershipTransferred(oldOwner, newOwner) */\n  0xffffffffffffffffffffffffffffffffffffffff\n  and\n  0x8be0079c531659141344cd1fd0a4f28419497f9722a3daafe3b4186f6b6457e0\n  mload(0x40)\n  mload(0x40)\n  dup1\n  swap2\n  sub\n  swap1\n  log3\n    /* \"@openzeppelin/contracts/access/Ownable.sol\":2496:2620  {... */\n  pop\n    /* \"@openzeppelin/contracts/access/Ownable.sol\":2433:2620  function _transferOwnership(address newOwner) internal virtual {... */\n  pop\n  jump\t// out\n    /* \"Voting/Voting.sol\":115:7567  contract Voting is Ownable {... */\ntag_8:\n  dataSize(sub_0)\n  dup1\n  dataOffset(sub_0)\n  0x00\n  codecopy\n  0x00\n  return\nstop\n\nsub_0: assembly {\n        /* \"Voting/Voting.sol\":115:7567  contract Voting is Ownable {... */\n      mstore(0x40, 0x80)\n      callvalue\n      dup1\n      iszero\n      tag_1\n      jumpi\n      0x00\n      dup1\n      revert\n    tag_1:\n      pop\n      jumpi(tag_2, lt(calldatasize, 0x04))\n      shr(0xe0, calldataload(0x00))\n      dup1\n      0x715018a6\n      gt\n      tag_15\n      jumpi\n      dup1\n      0x715018a6\n      eq\n      tag_9\n      jumpi\n      dup1\n      0x8da5cb5b\n      eq\n      tag_10\n      jumpi\n      dup1\n      0x9b19251a\n      eq\n      tag_11\n      jumpi\n      dup1\n      0xd55ec9c1\n      eq\n      tag_12\n      jumpi\n      dup1\n      0xf2fde38b\n      eq\n      tag_13\n      jumpi\n      dup1\n      0xfd4a77f1\n      eq\n      tag_14\n      jumpi\n      jump(tag_2)\n    tag_15:\n      dup1\n      0x013cf08b\n      eq\n      tag_3\n      jumpi\n      dup1\n      0x200d2ed2\n      eq\n      tag_4\n      jumpi\n      dup1\n      0x2f95355b\n      eq\n      tag_5\n      jumpi\n      dup1\n      0x38db6dd3\n      eq\n      tag_6\n      jumpi\n      dup1\n      0x62564c48\n      eq\n      tag_7\n      jumpi\n      dup1\n      0x6a00600c\n      eq\n      tag_8\n      jumpi\n    tag_2:\n      0x00\n      dup1\n      revert\n        /* \"Voting/Voting.sol\":724:751  Proposal[] public proposals */\n    tag_3:\n      tag_16\n      0x04\n      dup1\n      calldatasize\n      sub\n      dup2\n      add\n      swap1\n      tag_17\n      swap2\n      swap1\n      tag_18\n      jump\t// in\n    tag_17:\n      tag_19\n      jump\t// in\n    tag_16:\n      mload(0x40)\n      tag_20\n      swap3\n      swap2\n      swap1\n      tag_21\n      jump\t// in\n    tag_20:\n      mload(0x40)\n      dup1\n      swap2\n      sub\n      swap1\n      return\n        /* \"Voting/Voting.sol\":783:811  WorkflowStatus public status */\n    tag_4:\n      tag_22\n      tag_23\n      jump\t// in\n    tag_22:\n      mload(0x40)\n      tag_24\n      swap2\n      swap1\n      tag_25\n      jump\t// in\n    tag_24:\n      mload(0x40)\n      dup1\n      swap2\n      sub\n      swap1\n      return\n        /* \"Voting/Voting.sol\":5686:5933  function registerProposal(string memory description)... */\n    tag_5:\n      tag_26\n      0x04\n      dup1\n      calldatasize\n      sub\n      dup2\n      add\n      swap1\n      tag_27\n      swap2\n      swap1\n      tag_28\n      jump\t// in\n    tag_27:\n      tag_29\n      jump\t// in\n    tag_26:\n      stop\n        /* \"Voting/Voting.sol\":5040:5262  function registerVoter(address _voterAdress)... */\n    tag_6:\n      tag_30\n      0x04\n      dup1\n      calldatasize\n      sub\n      dup2\n      add\n      swap1\n      tag_31\n      swap2\n      swap1\n      tag_32\n      jump\t// in\n    tag_31:\n      tag_33\n      jump\t// in\n    tag_30:\n      stop\n        /* \"Voting/Voting.sol\":6234:6331  function getProposals() public view returns (Proposal[] memory) {... */\n    tag_7:\n      tag_34\n      tag_35\n      jump\t// in\n    tag_34:\n      mload(0x40)\n      tag_36\n      swap2\n      swap1\n      tag_37\n      jump\t// in\n    tag_36:\n      mload(0x40)\n      dup1\n      swap2\n      sub\n      swap1\n      return\n        /* \"Voting/Voting.sol\":6944:7452  function computeWinningProposal() ... */\n    tag_8:\n      tag_38\n      tag_39\n      jump\t// in\n    tag_38:\n      stop\n        /* \"@openzeppelin/contracts/access/Ownable.sol\":1831:1932  function renounceOwnership() public virtual onlyOwner {... */\n    tag_9:\n      tag_40\n      tag_41\n      jump\t// in\n    tag_40:\n      stop\n        /* \"@openzeppelin/contracts/access/Ownable.sol\":1201:1286  function owner() public view virtual returns (address) {... */\n    tag_10:\n      tag_42\n      tag_43\n      jump\t// in\n    tag_42:\n      mload(0x40)\n      tag_44\n      swap2\n      swap1\n      tag_45\n      jump\t// in\n    tag_44:\n      mload(0x40)\n      dup1\n      swap2\n      sub\n      swap1\n      return\n        /* \"Voting/Voting.sol\":675:717  mapping(address => Voter) public whitelist */\n    tag_11:\n      tag_46\n      0x04\n      dup1\n      calldatasize\n      sub\n      dup2\n      add\n      swap1\n      tag_47\n      swap2\n      swap1\n      tag_32\n      jump\t// in\n    tag_47:\n      tag_48\n      jump\t// in\n    tag_46:\n      mload(0x40)\n      tag_49\n      swap4\n      swap3\n      swap2\n      swap1\n      tag_50\n      jump\t// in\n    tag_49:\n      mload(0x40)\n      dup1\n      swap2\n      sub\n      swap1\n      return\n        /* \"Voting/Voting.sol\":5313:5641  function registerVoters(address[] memory _votersAdresses)... */\n    tag_12:\n      tag_51\n      0x04\n      dup1\n      calldatasize\n      sub\n      dup2\n      add\n      swap1\n      tag_52\n      swap2\n      swap1\n      tag_53\n      jump\t// in\n    tag_52:\n      tag_54\n      jump\t// in\n    tag_51:\n      stop\n        /* \"@openzeppelin/contracts/access/Ownable.sol\":2081:2279  function transferOwnership(address newOwner) public virtual onlyOwner {... */\n    tag_13:\n      tag_55\n      0x04\n      dup1\n      calldatasize\n      sub\n      dup2\n      add\n      swap1\n      tag_56\n      swap2\n      swap1\n      tag_32\n      jump\t// in\n    tag_56:\n      tag_57\n      jump\t// in\n    tag_55:\n      stop\n        /* \"Voting/Voting.sol\":6337:6938  function voting(uint256 proposalId)... */\n    tag_14:\n      tag_58\n      0x04\n      dup1\n      calldatasize\n      sub\n      dup2\n      add\n      swap1\n      tag_59\n      swap2\n      swap1\n      tag_18\n      jump\t// in\n    tag_59:\n      tag_60\n      jump\t// in\n    tag_58:\n      stop\n        /* \"Voting/Voting.sol\":724:751  Proposal[] public proposals */\n    tag_19:\n      0x02\n      dup2\n      dup2\n      sload\n      dup2\n      lt\n      tag_61\n      jumpi\n      0x00\n      dup1\n      revert\n    tag_61:\n      swap1\n      0x00\n      mstore\n      keccak256(0x00, 0x20)\n      swap1\n      0x02\n      mul\n      add\n      0x00\n      swap2\n      pop\n      swap1\n      pop\n      dup1\n      0x00\n      add\n      dup1\n      sload\n      tag_63\n      swap1\n      tag_64\n      jump\t// in\n    tag_63:\n      dup1\n      0x1f\n      add\n      0x20\n      dup1\n      swap2\n      div\n      mul\n      0x20\n      add\n      mload(0x40)\n      swap1\n      dup2\n      add\n      0x40\n      mstore\n      dup1\n      swap3\n      swap2\n      swap1\n      dup2\n      dup2\n      mstore\n      0x20\n      add\n      dup3\n      dup1\n      sload\n      tag_65\n      swap1\n      tag_64\n      jump\t// in\n    tag_65:\n      dup1\n      iszero\n      tag_66\n      jumpi\n      dup1\n      0x1f\n      lt\n      tag_67\n      jumpi\n      0x0100\n      dup1\n      dup4\n      sload\n      div\n      mul\n      dup4\n      mstore\n      swap2\n      0x20\n      add\n      swap2\n      jump(tag_66)\n    tag_67:\n      dup3\n      add\n      swap2\n      swap1\n      0x00\n      mstore\n      keccak256(0x00, 0x20)\n      swap1\n    tag_68:\n      dup2\n      sload\n      dup2\n      mstore\n      swap1\n      0x01\n      add\n      swap1\n      0x20\n      add\n      dup1\n      dup4\n      gt\n      tag_68\n      jumpi\n      dup3\n      swap1\n      sub\n      0x1f\n      and\n      dup3\n      add\n      swap2\n    tag_66:\n      pop\n      pop\n      pop\n      pop\n      pop\n      swap1\n      dup1\n      0x01\n      add\n      sload\n      swap1\n      pop\n      dup3\n      jump\t// out\n        /* \"Voting/Voting.sol\":783:811  WorkflowStatus public status */\n    tag_23:\n      0x03\n      0x00\n      swap1\n      sload\n      swap1\n      0x0100\n      exp\n      swap1\n      div\n      0xff\n      and\n      dup2\n      jump\t// out\n        /* \"Voting/Voting.sol\":5686:5933  function registerProposal(string memory description)... */\n    tag_29:\n        /* \"Voting/Voting.sol\":1563:1579  _isWhitelisted() */\n      tag_70\n        /* \"Voting/Voting.sol\":1563:1577  _isWhitelisted */\n      tag_71\n        /* \"Voting/Voting.sol\":1563:1579  _isWhitelisted() */\n      jump\t// in\n    tag_70:\n        /* \"Voting/Voting.sol\":1264:1297  _isProposalsRegistrationStarted() */\n      tag_73\n        /* \"Voting/Voting.sol\":1264:1295  _isProposalsRegistrationStarted */\n      tag_74\n        /* \"Voting/Voting.sol\":1264:1297  _isProposalsRegistrationStarted() */\n      jump\t// in\n    tag_73:\n        /* \"Voting/Voting.sol\":5831:5840  proposals */\n      0x02\n        /* \"Voting/Voting.sol\":5846:5870  Proposal(description, 0) */\n      mload(0x40)\n      dup1\n      0x40\n      add\n      0x40\n      mstore\n      dup1\n        /* \"Voting/Voting.sol\":5855:5866  description */\n      dup4\n        /* \"Voting/Voting.sol\":5846:5870  Proposal(description, 0) */\n      dup2\n      mstore\n      0x20\n      add\n        /* \"Voting/Voting.sol\":5868:5869  0 */\n      0x00\n        /* \"Voting/Voting.sol\":5846:5870  Proposal(description, 0) */\n      dup2\n      mstore\n      pop\n        /* \"Voting/Voting.sol\":5831:5871  proposals.push(Proposal(description, 0)) */\n      swap1\n      dup1\n      0x01\n      dup2\n      sload\n      add\n      dup1\n      dup3\n      sstore\n      dup1\n      swap2\n      pop\n      pop\n      0x01\n      swap1\n      sub\n      swap1\n      0x00\n      mstore\n      keccak256(0x00, 0x20)\n      swap1\n      0x02\n      mul\n      add\n      0x00\n      swap1\n      swap2\n      swap1\n      swap2\n      swap1\n      swap2\n      pop\n      0x00\n      dup3\n      add\n      mload\n      dup2\n      0x00\n      add\n      swap1\n      dup2\n      tag_77\n      swap2\n      swap1\n      tag_78\n      jump\t// in\n    tag_77:\n      pop\n      0x20\n      dup3\n      add\n      mload\n      dup2\n      0x01\n      add\n      sstore\n      pop\n      pop\n        /* \"Voting/Voting.sol\":5886:5926  ProposalRegistered(proposals.length - 1) */\n      0x92e393e9b54e2f801d3ea4beb0c5e71a21cc34a5d34b77d0fb8a3aa1650dc18f\n        /* \"Voting/Voting.sol\":5924:5925  1 */\n      0x01\n        /* \"Voting/Voting.sol\":5905:5914  proposals */\n      0x02\n        /* \"Voting/Voting.sol\":5905:5921  proposals.length */\n      dup1\n      sload\n      swap1\n      pop\n        /* \"Voting/Voting.sol\":5905:5925  proposals.length - 1 */\n      tag_79\n      swap2\n      swap1\n      tag_80\n      jump\t// in\n    tag_79:\n        /* \"Voting/Voting.sol\":5886:5926  ProposalRegistered(proposals.length - 1) */\n      mload(0x40)\n      tag_81\n      swap2\n      swap1\n      tag_82\n      jump\t// in\n    tag_81:\n      mload(0x40)\n      dup1\n      swap2\n      sub\n      swap1\n      log1\n        /* \"Voting/Voting.sol\":5686:5933  function registerProposal(string memory description)... */\n      pop\n      jump\t// out\n        /* \"Voting/Voting.sol\":5040:5262  function registerVoter(address _voterAdress)... */\n    tag_33:\n        /* \"@openzeppelin/contracts/access/Ownable.sol\":1094:1107  _checkOwner() */\n      tag_84\n        /* \"@openzeppelin/contracts/access/Ownable.sol\":1094:1105  _checkOwner */\n      tag_85\n        /* \"@openzeppelin/contracts/access/Ownable.sol\":1094:1107  _checkOwner() */\n      jump\t// in\n    tag_84:\n        /* \"Voting/Voting.sol\":1160:1188  _isRegisteringVotersStatus() */\n      tag_87\n        /* \"Voting/Voting.sol\":1160:1186  _isRegisteringVotersStatus */\n      tag_88\n        /* \"Voting/Voting.sol\":1160:1188  _isRegisteringVotersStatus() */\n      jump\t// in\n    tag_87:\n        /* \"Voting/Voting.sol\":5207:5211  true */\n      0x01\n        /* \"Voting/Voting.sol\":5168:5177  whitelist */\n      dup1\n        /* \"Voting/Voting.sol\":5168:5191  whitelist[_voterAdress] */\n      0x00\n        /* \"Voting/Voting.sol\":5178:5190  _voterAdress */\n      dup4\n        /* \"Voting/Voting.sol\":5168:5191  whitelist[_voterAdress] */\n      0xffffffffffffffffffffffffffffffffffffffff\n      and\n      0xffffffffffffffffffffffffffffffffffffffff\n      and\n      dup2\n      mstore\n      0x20\n      add\n      swap1\n      dup2\n      mstore\n      0x20\n      add\n      0x00\n      keccak256\n        /* \"Voting/Voting.sol\":5168:5204  whitelist[_voterAdress].isRegistered */\n      0x00\n      add\n      0x00\n        /* \"Voting/Voting.sol\":5168:5211  whitelist[_voterAdress].isRegistered = true */\n      0x0100\n      exp\n      dup2\n      sload\n      dup2\n      0xff\n      mul\n      not\n      and\n      swap1\n      dup4\n      iszero\n      iszero\n      mul\n      or\n      swap1\n      sstore\n      pop\n        /* \"Voting/Voting.sol\":5226:5255  VoterRegistered(_voterAdress) */\n      0xb6be2187d059cc2a55fe29e0e503b566e1e0f8c8780096e185429350acffd3dd\n        /* \"Voting/Voting.sol\":5242:5254  _voterAdress */\n      dup2\n        /* \"Voting/Voting.sol\":5226:5255  VoterRegistered(_voterAdress) */\n      mload(0x40)\n      tag_90\n      swap2\n      swap1\n      tag_45\n      jump\t// in\n    tag_90:\n      mload(0x40)\n      dup1\n      swap2\n      sub\n      swap1\n      log1\n        /* \"Voting/Voting.sol\":5040:5262  function registerVoter(address _voterAdress)... */\n      pop\n      jump\t// out\n        /* \"Voting/Voting.sol\":6234:6331  function getProposals() public view returns (Proposal[] memory) {... */\n    tag_35:\n        /* \"Voting/Voting.sol\":6279:6296  Proposal[] memory */\n      0x60\n        /* \"Voting/Voting.sol\":6315:6324  proposals */\n      0x02\n        /* \"Voting/Voting.sol\":6308:6324  return proposals */\n      dup1\n      sload\n      dup1\n      0x20\n      mul\n      0x20\n      add\n      mload(0x40)\n      swap1\n      dup2\n      add\n      0x40\n      mstore\n      dup1\n      swap3\n      swap2\n      swap1\n      dup2\n      dup2\n      mstore\n      0x20\n      add\n      0x00\n      swap1\n    tag_92:\n      dup3\n      dup3\n      lt\n      iszero\n      tag_93\n      jumpi\n      dup4\n      dup3\n      swap1\n      0x00\n      mstore\n      keccak256(0x00, 0x20)\n      swap1\n      0x02\n      mul\n      add\n      mload(0x40)\n      dup1\n      0x40\n      add\n      0x40\n      mstore\n      swap1\n      dup2\n      0x00\n      dup3\n      add\n      dup1\n      sload\n      tag_95\n      swap1\n      tag_64\n      jump\t// in\n    tag_95:\n      dup1\n      0x1f\n      add\n      0x20\n      dup1\n      swap2\n      div\n      mul\n      0x20\n      add\n      mload(0x40)\n      swap1\n      dup2\n      add\n      0x40\n      mstore\n      dup1\n      swap3\n      swap2\n      swap1\n      dup2\n      dup2\n      mstore\n      0x20\n      add\n      dup3\n      dup1\n      sload\n      tag_96\n      swap1\n      tag_64\n      jump\t// in\n    tag_96:\n      dup1\n      iszero\n      tag_97\n      jumpi\n      dup1\n      0x1f\n      lt\n      tag_98\n      jumpi\n      0x0100\n      dup1\n      dup4\n      sload\n      div\n      mul\n      dup4\n      mstore\n      swap2\n      0x20\n      add\n      swap2\n      jump(tag_97)\n    tag_98:\n      dup3\n      add\n      swap2\n      swap1\n      0x00\n      mstore\n      keccak256(0x00, 0x20)\n      swap1\n    tag_99:\n      dup2\n      sload\n      dup2\n      mstore\n      swap1\n      0x01\n      add\n      swap1\n      0x20\n      add\n      dup1\n      dup4\n      gt\n      tag_99\n      jumpi\n      dup3\n      swap1\n      sub\n      0x1f\n      and\n      dup3\n      add\n      swap2\n    tag_97:\n      pop\n      pop\n      pop\n      pop\n      pop\n      dup2\n      mstore\n      0x20\n      add\n      0x01\n      dup3\n      add\n      sload\n      dup2\n      mstore\n      pop\n      pop\n      dup2\n      mstore\n      0x20\n      add\n      swap1\n      0x01\n      add\n      swap1\n      jump(tag_92)\n    tag_93:\n      pop\n      pop\n      pop\n      pop\n      swap1\n      pop\n        /* \"Voting/Voting.sol\":6234:6331  function getProposals() public view returns (Proposal[] memory) {... */\n      swap1\n      jump\t// out\n        /* \"Voting/Voting.sol\":6944:7452  function computeWinningProposal() ... */\n    tag_39:\n        /* \"@openzeppelin/contracts/access/Ownable.sol\":1094:1107  _checkOwner() */\n      tag_101\n        /* \"@openzeppelin/contracts/access/Ownable.sol\":1094:1105  _checkOwner */\n      tag_85\n        /* \"@openzeppelin/contracts/access/Ownable.sol\":1094:1107  _checkOwner() */\n      jump\t// in\n    tag_101:\n        /* \"Voting/Voting.sol\":1644:1667  _isVotingSessionEnded() */\n      tag_103\n        /* \"Voting/Voting.sol\":1644:1665  _isVotingSessionEnded */\n      tag_104\n        /* \"Voting/Voting.sol\":1644:1667  _isVotingSessionEnded() */\n      jump\t// in\n    tag_103:\n        /* \"Voting/Voting.sol\":7059:7075  uint256 maxVotes */\n      0x00\n        /* \"Voting/Voting.sol\":7089:7118  uint256 tempWinningProposalId */\n      dup1\n        /* \"Voting/Voting.sol\":7133:7142  uint256 i */\n      dup1\n        /* \"Voting/Voting.sol\":7145:7146  0 */\n      0x00\n        /* \"Voting/Voting.sol\":7133:7146  uint256 i = 0 */\n      swap1\n      pop\n        /* \"Voting/Voting.sol\":7128:7347  for (uint256 i = 0; i < proposals.length; i++) {... */\n    tag_106:\n        /* \"Voting/Voting.sol\":7152:7161  proposals */\n      0x02\n        /* \"Voting/Voting.sol\":7152:7168  proposals.length */\n      dup1\n      sload\n      swap1\n      pop\n        /* \"Voting/Voting.sol\":7148:7149  i */\n      dup2\n        /* \"Voting/Voting.sol\":7148:7168  i < proposals.length */\n      lt\n        /* \"Voting/Voting.sol\":7128:7347  for (uint256 i = 0; i < proposals.length; i++) {... */\n      iszero\n      tag_107\n      jumpi\n        /* \"Voting/Voting.sol\":7218:7226  maxVotes */\n      dup3\n        /* \"Voting/Voting.sol\":7193:7202  proposals */\n      0x02\n        /* \"Voting/Voting.sol\":7203:7204  i */\n      dup3\n        /* \"Voting/Voting.sol\":7193:7205  proposals[i] */\n      dup2\n      sload\n      dup2\n      lt\n      tag_109\n      jumpi\n      tag_110\n      tag_111\n      jump\t// in\n    tag_110:\n    tag_109:\n      swap1\n      0x00\n      mstore\n      keccak256(0x00, 0x20)\n      swap1\n      0x02\n      mul\n      add\n        /* \"Voting/Voting.sol\":7193:7215  proposals[i].voteCount */\n      0x01\n      add\n      sload\n        /* \"Voting/Voting.sol\":7193:7226  proposals[i].voteCount > maxVotes */\n      gt\n        /* \"Voting/Voting.sol\":7189:7337  if (proposals[i].voteCount > maxVotes) {... */\n      iszero\n      tag_113\n      jumpi\n        /* \"Voting/Voting.sol\":7257:7266  proposals */\n      0x02\n        /* \"Voting/Voting.sol\":7267:7268  i */\n      dup2\n        /* \"Voting/Voting.sol\":7257:7269  proposals[i] */\n      dup2\n      sload\n      dup2\n      lt\n      tag_114\n      jumpi\n      tag_115\n      tag_111\n      jump\t// in\n    tag_115:\n    tag_114:\n      swap1\n      0x00\n      mstore\n      keccak256(0x00, 0x20)\n      swap1\n      0x02\n      mul\n      add\n        /* \"Voting/Voting.sol\":7257:7279  proposals[i].voteCount */\n      0x01\n      add\n      sload\n        /* \"Voting/Voting.sol\":7246:7279  maxVotes = proposals[i].voteCount */\n      swap3\n      pop\n        /* \"Voting/Voting.sol\":7321:7322  i */\n      dup1\n        /* \"Voting/Voting.sol\":7297:7322  tempWinningProposalId = i */\n      swap2\n      pop\n        /* \"Voting/Voting.sol\":7189:7337  if (proposals[i].voteCount > maxVotes) {... */\n    tag_113:\n        /* \"Voting/Voting.sol\":7170:7173  i++ */\n      dup1\n      dup1\n      tag_117\n      swap1\n      tag_118\n      jump\t// in\n    tag_117:\n      swap2\n      pop\n      pop\n        /* \"Voting/Voting.sol\":7128:7347  for (uint256 i = 0; i < proposals.length; i++) {... */\n      jump(tag_106)\n    tag_107:\n      pop\n        /* \"Voting/Voting.sol\":7376:7397  tempWinningProposalId */\n      dup1\n        /* \"Voting/Voting.sol\":7356:7373  winningProposalId */\n      0x04\n        /* \"Voting/Voting.sol\":7356:7397  winningProposalId = tempWinningProposalId */\n      dup2\n      swap1\n      sstore\n      pop\n        /* \"Voting/Voting.sol\":7407:7445  setStatus(WorkflowStatus.VotesTallied) */\n      tag_119\n        /* \"Voting/Voting.sol\":7417:7444  WorkflowStatus.VotesTallied */\n      0x05\n        /* \"Voting/Voting.sol\":7407:7416  setStatus */\n      tag_120\n        /* \"Voting/Voting.sol\":7407:7445  setStatus(WorkflowStatus.VotesTallied) */\n      jump\t// in\n    tag_119:\n        /* \"Voting/Voting.sol\":7049:7452  {... */\n      pop\n      pop\n        /* \"Voting/Voting.sol\":6944:7452  function computeWinningProposal() ... */\n      jump\t// out\n        /* \"@openzeppelin/contracts/access/Ownable.sol\":1831:1932  function renounceOwnership() public virtual onlyOwner {... */\n    tag_41:\n        /* \"@openzeppelin/contracts/access/Ownable.sol\":1094:1107  _checkOwner() */\n      tag_122\n        /* \"@openzeppelin/contracts/access/Ownable.sol\":1094:1105  _checkOwner */\n      tag_85\n        /* \"@openzeppelin/contracts/access/Ownable.sol\":1094:1107  _checkOwner() */\n      jump\t// in\n    tag_122:\n        /* \"@openzeppelin/contracts/access/Ownable.sol\":1895:1925  _transferOwnership(address(0)) */\n      tag_124\n        /* \"@openzeppelin/contracts/access/Ownable.sol\":1922:1923  0 */\n      0x00\n        /* \"@openzeppelin/contracts/access/Ownable.sol\":1895:1913  _transferOwnership */\n      tag_125\n        /* \"@openzeppelin/contracts/access/Ownable.sol\":1895:1925  _transferOwnership(address(0)) */\n      jump\t// in\n    tag_124:\n        /* \"@openzeppelin/contracts/access/Ownable.sol\":1831:1932  function renounceOwnership() public virtual onlyOwner {... */\n      jump\t// out\n        /* \"@openzeppelin/contracts/access/Ownable.sol\":1201:1286  function owner() public view virtual returns (address) {... */\n    tag_43:\n        /* \"@openzeppelin/contracts/access/Ownable.sol\":1247:1254  address */\n      0x00\n        /* \"@openzeppelin/contracts/access/Ownable.sol\":1273:1279  _owner */\n      dup1\n      0x00\n      swap1\n      sload\n      swap1\n      0x0100\n      exp\n      swap1\n      div\n      0xffffffffffffffffffffffffffffffffffffffff\n      and\n        /* \"@openzeppelin/contracts/access/Ownable.sol\":1266:1279  return _owner */\n      swap1\n      pop\n        /* \"@openzeppelin/contracts/access/Ownable.sol\":1201:1286  function owner() public view virtual returns (address) {... */\n      swap1\n      jump\t// out\n        /* \"Voting/Voting.sol\":675:717  mapping(address => Voter) public whitelist */\n    tag_48:\n      mstore(0x20, 0x01)\n      dup1\n      0x00\n      mstore\n      keccak256(0x00, 0x40)\n      0x00\n      swap2\n      pop\n      swap1\n      pop\n      dup1\n      0x00\n      add\n      0x00\n      swap1\n      sload\n      swap1\n      0x0100\n      exp\n      swap1\n      div\n      0xff\n      and\n      swap1\n      dup1\n      0x00\n      add\n      0x01\n      swap1\n      sload\n      swap1\n      0x0100\n      exp\n      swap1\n      div\n      0xff\n      and\n      swap1\n      dup1\n      0x01\n      add\n      sload\n      swap1\n      pop\n      dup4\n      jump\t// out\n        /* \"Voting/Voting.sol\":5313:5641  function registerVoters(address[] memory _votersAdresses)... */\n    tag_54:\n        /* \"@openzeppelin/contracts/access/Ownable.sol\":1094:1107  _checkOwner() */\n      tag_128\n        /* \"@openzeppelin/contracts/access/Ownable.sol\":1094:1105  _checkOwner */\n      tag_85\n        /* \"@openzeppelin/contracts/access/Ownable.sol\":1094:1107  _checkOwner() */\n      jump\t// in\n    tag_128:\n        /* \"Voting/Voting.sol\":1160:1188  _isRegisteringVotersStatus() */\n      tag_130\n        /* \"Voting/Voting.sol\":1160:1186  _isRegisteringVotersStatus */\n      tag_88\n        /* \"Voting/Voting.sol\":1160:1188  _isRegisteringVotersStatus() */\n      jump\t// in\n    tag_130:\n        /* \"Voting/Voting.sol\":5459:5468  uint256 i */\n      0x00\n        /* \"Voting/Voting.sol\":5454:5635  for (uint256 i = 0; i < _votersAdresses.length; i++) {... */\n    tag_132:\n        /* \"Voting/Voting.sol\":5478:5493  _votersAdresses */\n      dup2\n        /* \"Voting/Voting.sol\":5478:5500  _votersAdresses.length */\n      mload\n        /* \"Voting/Voting.sol\":5474:5475  i */\n      dup2\n        /* \"Voting/Voting.sol\":5474:5500  i < _votersAdresses.length */\n      lt\n        /* \"Voting/Voting.sol\":5454:5635  for (uint256 i = 0; i < _votersAdresses.length; i++) {... */\n      iszero\n      tag_133\n      jumpi\n        /* \"Voting/Voting.sol\":5566:5570  true */\n      0x01\n        /* \"Voting/Voting.sol\":5521:5530  whitelist */\n      dup1\n        /* \"Voting/Voting.sol\":5521:5550  whitelist[_votersAdresses[i]] */\n      0x00\n        /* \"Voting/Voting.sol\":5531:5546  _votersAdresses */\n      dup5\n        /* \"Voting/Voting.sol\":5547:5548  i */\n      dup5\n        /* \"Voting/Voting.sol\":5531:5549  _votersAdresses[i] */\n      dup2\n      mload\n      dup2\n      lt\n      tag_135\n      jumpi\n      tag_136\n      tag_111\n      jump\t// in\n    tag_136:\n    tag_135:\n      0x20\n      mul\n      0x20\n      add\n      add\n      mload\n        /* \"Voting/Voting.sol\":5521:5550  whitelist[_votersAdresses[i]] */\n      0xffffffffffffffffffffffffffffffffffffffff\n      and\n      0xffffffffffffffffffffffffffffffffffffffff\n      and\n      dup2\n      mstore\n      0x20\n      add\n      swap1\n      dup2\n      mstore\n      0x20\n      add\n      0x00\n      keccak256\n        /* \"Voting/Voting.sol\":5521:5563  whitelist[_votersAdresses[i]].isRegistered */\n      0x00\n      add\n      0x00\n        /* \"Voting/Voting.sol\":5521:5570  whitelist[_votersAdresses[i]].isRegistered = true */\n      0x0100\n      exp\n      dup2\n      sload\n      dup2\n      0xff\n      mul\n      not\n      and\n      swap1\n      dup4\n      iszero\n      iszero\n      mul\n      or\n      swap1\n      sstore\n      pop\n        /* \"Voting/Voting.sol\":5589:5624  VoterRegistered(_votersAdresses[i]) */\n      0xb6be2187d059cc2a55fe29e0e503b566e1e0f8c8780096e185429350acffd3dd\n        /* \"Voting/Voting.sol\":5605:5620  _votersAdresses */\n      dup3\n        /* \"Voting/Voting.sol\":5621:5622  i */\n      dup3\n        /* \"Voting/Voting.sol\":5605:5623  _votersAdresses[i] */\n      dup2\n      mload\n      dup2\n      lt\n      tag_137\n      jumpi\n      tag_138\n      tag_111\n      jump\t// in\n    tag_138:\n    tag_137:\n      0x20\n      mul\n      0x20\n      add\n      add\n      mload\n        /* \"Voting/Voting.sol\":5589:5624  VoterRegistered(_votersAdresses[i]) */\n      mload(0x40)\n      tag_139\n      swap2\n      swap1\n      tag_45\n      jump\t// in\n    tag_139:\n      mload(0x40)\n      dup1\n      swap2\n      sub\n      swap1\n      log1\n        /* \"Voting/Voting.sol\":5502:5505  i++ */\n      dup1\n      dup1\n      tag_140\n      swap1\n      tag_118\n      jump\t// in\n    tag_140:\n      swap2\n      pop\n      pop\n        /* \"Voting/Voting.sol\":5454:5635  for (uint256 i = 0; i < _votersAdresses.length; i++) {... */\n      jump(tag_132)\n    tag_133:\n      pop\n        /* \"Voting/Voting.sol\":5313:5641  function registerVoters(address[] memory _votersAdresses)... */\n      pop\n      jump\t// out\n        /* \"@openzeppelin/contracts/access/Ownable.sol\":2081:2279  function transferOwnership(address newOwner) public virtual onlyOwner {... */\n    tag_57:\n        /* \"@openzeppelin/contracts/access/Ownable.sol\":1094:1107  _checkOwner() */\n      tag_142\n        /* \"@openzeppelin/contracts/access/Ownable.sol\":1094:1105  _checkOwner */\n      tag_85\n        /* \"@openzeppelin/contracts/access/Ownable.sol\":1094:1107  _checkOwner() */\n      jump\t// in\n    tag_142:\n        /* \"@openzeppelin/contracts/access/Ownable.sol\":2189:2190  0 */\n      0x00\n        /* \"@openzeppelin/contracts/access/Ownable.sol\":2169:2191  newOwner != address(0) */\n      0xffffffffffffffffffffffffffffffffffffffff\n      and\n        /* \"@openzeppelin/contracts/access/Ownable.sol\":2169:2177  newOwner */\n      dup2\n        /* \"@openzeppelin/contracts/access/Ownable.sol\":2169:2191  newOwner != address(0) */\n      0xffffffffffffffffffffffffffffffffffffffff\n      and\n      sub\n        /* \"@openzeppelin/contracts/access/Ownable.sol\":2161:2234  require(newOwner != address(0), \"Ownable: new owner is the zero address\") */\n      tag_144\n      jumpi\n      mload(0x40)\n      0x08c379a000000000000000000000000000000000000000000000000000000000\n      dup2\n      mstore\n      0x04\n      add\n      tag_145\n      swap1\n      tag_146\n      jump\t// in\n    tag_145:\n      mload(0x40)\n      dup1\n      swap2\n      sub\n      swap1\n      revert\n    tag_144:\n        /* \"@openzeppelin/contracts/access/Ownable.sol\":2244:2272  _transferOwnership(newOwner) */\n      tag_147\n        /* \"@openzeppelin/contracts/access/Ownable.sol\":2263:2271  newOwner */\n      dup2\n        /* \"@openzeppelin/contracts/access/Ownable.sol\":2244:2262  _transferOwnership */\n      tag_125\n        /* \"@openzeppelin/contracts/access/Ownable.sol\":2244:2272  _transferOwnership(newOwner) */\n      jump\t// in\n    tag_147:\n        /* \"@openzeppelin/contracts/access/Ownable.sol\":2081:2279  function transferOwnership(address newOwner) public virtual onlyOwner {... */\n      pop\n      jump\t// out\n        /* \"Voting/Voting.sol\":6337:6938  function voting(uint256 proposalId)... */\n    tag_60:\n        /* \"Voting/Voting.sol\":1365:1390  _isVotingSessionStarted() */\n      tag_149\n        /* \"Voting/Voting.sol\":1365:1388  _isVotingSessionStarted */\n      tag_150\n        /* \"Voting/Voting.sol\":1365:1390  _isVotingSessionStarted() */\n      jump\t// in\n    tag_149:\n        /* \"Voting/Voting.sol\":1563:1579  _isWhitelisted() */\n      tag_152\n        /* \"Voting/Voting.sol\":1563:1577  _isWhitelisted */\n      tag_71\n        /* \"Voting/Voting.sol\":1563:1579  _isWhitelisted() */\n      jump\t// in\n    tag_152:\n        /* \"Voting/Voting.sol\":6512:6517  false */\n      0x00\n        /* \"Voting/Voting.sol\":6478:6517  whitelist[msg.sender].hasVoted == false */\n      iszero\n      iszero\n        /* \"Voting/Voting.sol\":6478:6487  whitelist */\n      0x01\n        /* \"Voting/Voting.sol\":6478:6499  whitelist[msg.sender] */\n      0x00\n        /* \"Voting/Voting.sol\":6488:6498  msg.sender */\n      caller\n        /* \"Voting/Voting.sol\":6478:6499  whitelist[msg.sender] */\n      0xffffffffffffffffffffffffffffffffffffffff\n      and\n      0xffffffffffffffffffffffffffffffffffffffff\n      and\n      dup2\n      mstore\n      0x20\n      add\n      swap1\n      dup2\n      mstore\n      0x20\n      add\n      0x00\n      keccak256\n        /* \"Voting/Voting.sol\":6478:6508  whitelist[msg.sender].hasVoted */\n      0x00\n      add\n      0x01\n      swap1\n      sload\n      swap1\n      0x0100\n      exp\n      swap1\n      div\n      0xff\n      and\n        /* \"Voting/Voting.sol\":6478:6517  whitelist[msg.sender].hasVoted == false */\n      iszero\n      iszero\n      eq\n        /* \"Voting/Voting.sol\":6457:6591  require(... */\n      tag_154\n      jumpi\n      mload(0x40)\n      0x08c379a000000000000000000000000000000000000000000000000000000000\n      dup2\n      mstore\n      0x04\n      add\n      tag_155\n      swap1\n      tag_156\n      jump\t// in\n    tag_155:\n      mload(0x40)\n      dup1\n      swap2\n      sub\n      swap1\n      revert\n    tag_154:\n        /* \"Voting/Voting.sol\":6635:6644  proposals */\n      0x02\n        /* \"Voting/Voting.sol\":6635:6651  proposals.length */\n      dup1\n      sload\n      swap1\n      pop\n        /* \"Voting/Voting.sol\":6622:6632  proposalId */\n      dup2\n        /* \"Voting/Voting.sol\":6622:6651  proposalId < proposals.length */\n      lt\n        /* \"Voting/Voting.sol\":6601:6737  require(... */\n      tag_157\n      jumpi\n      mload(0x40)\n      0x08c379a000000000000000000000000000000000000000000000000000000000\n      dup2\n      mstore\n      0x04\n      add\n      tag_158\n      swap1\n      tag_159\n      jump\t// in\n    tag_158:\n      mload(0x40)\n      dup1\n      swap2\n      sub\n      swap1\n      revert\n    tag_157:\n        /* \"Voting/Voting.sol\":6747:6756  proposals */\n      0x02\n        /* \"Voting/Voting.sol\":6757:6767  proposalId */\n      dup2\n        /* \"Voting/Voting.sol\":6747:6768  proposals[proposalId] */\n      dup2\n      sload\n      dup2\n      lt\n      tag_160\n      jumpi\n      tag_161\n      tag_111\n      jump\t// in\n    tag_161:\n    tag_160:\n      swap1\n      0x00\n      mstore\n      keccak256(0x00, 0x20)\n      swap1\n      0x02\n      mul\n      add\n        /* \"Voting/Voting.sol\":6747:6778  proposals[proposalId].voteCount */\n      0x01\n      add\n      0x00\n        /* \"Voting/Voting.sol\":6747:6780  proposals[proposalId].voteCount++ */\n      dup2\n      sload\n      dup1\n      swap3\n      swap2\n      swap1\n      tag_163\n      swap1\n      tag_118\n      jump\t// in\n    tag_163:\n      swap2\n      swap1\n      pop\n      sstore\n      pop\n        /* \"Voting/Voting.sol\":6830:6840  proposalId */\n      dup1\n        /* \"Voting/Voting.sol\":6790:6799  whitelist */\n      0x01\n        /* \"Voting/Voting.sol\":6790:6811  whitelist[msg.sender] */\n      0x00\n        /* \"Voting/Voting.sol\":6800:6810  msg.sender */\n      caller\n        /* \"Voting/Voting.sol\":6790:6811  whitelist[msg.sender] */\n      0xffffffffffffffffffffffffffffffffffffffff\n      and\n      0xffffffffffffffffffffffffffffffffffffffff\n      and\n      dup2\n      mstore\n      0x20\n      add\n      swap1\n      dup2\n      mstore\n      0x20\n      add\n      0x00\n      keccak256\n        /* \"Voting/Voting.sol\":6790:6827  whitelist[msg.sender].votedProposalId */\n      0x01\n      add\n        /* \"Voting/Voting.sol\":6790:6840  whitelist[msg.sender].votedProposalId = proposalId */\n      dup2\n      swap1\n      sstore\n      pop\n        /* \"Voting/Voting.sol\":6883:6887  true */\n      0x01\n        /* \"Voting/Voting.sol\":6850:6859  whitelist */\n      dup1\n        /* \"Voting/Voting.sol\":6850:6871  whitelist[msg.sender] */\n      0x00\n        /* \"Voting/Voting.sol\":6860:6870  msg.sender */\n      caller\n        /* \"Voting/Voting.sol\":6850:6871  whitelist[msg.sender] */\n      0xffffffffffffffffffffffffffffffffffffffff\n      and\n      0xffffffffffffffffffffffffffffffffffffffff\n      and\n      dup2\n      mstore\n      0x20\n      add\n      swap1\n      dup2\n      mstore\n      0x20\n      add\n      0x00\n      keccak256\n        /* \"Voting/Voting.sol\":6850:6880  whitelist[msg.sender].hasVoted */\n      0x00\n      add\n      0x01\n        /* \"Voting/Voting.sol\":6850:6887  whitelist[msg.sender].hasVoted = true */\n      0x0100\n      exp\n      dup2\n      sload\n      dup2\n      0xff\n      mul\n      not\n      and\n      swap1\n      dup4\n      iszero\n      iszero\n      mul\n      or\n      swap1\n      sstore\n      pop\n        /* \"Voting/Voting.sol\":6902:6931  Voted(msg.sender, proposalId) */\n      0x4d99b957a2bc29a30ebd96a7be8e68fe50a3c701db28a91436490b7d53870ca4\n        /* \"Voting/Voting.sol\":6908:6918  msg.sender */\n      caller\n        /* \"Voting/Voting.sol\":6920:6930  proposalId */\n      dup3\n        /* \"Voting/Voting.sol\":6902:6931  Voted(msg.sender, proposalId) */\n      mload(0x40)\n      tag_164\n      swap3\n      swap2\n      swap1\n      tag_165\n      jump\t// in\n    tag_164:\n      mload(0x40)\n      dup1\n      swap2\n      sub\n      swap1\n      log1\n        /* \"Voting/Voting.sol\":6337:6938  function voting(uint256 proposalId)... */\n      pop\n      jump\t// out\n        /* \"Voting/Voting.sol\":1993:2196  function _isWhitelisted() internal view {... */\n    tag_71:\n        /* \"Voting/Voting.sol\":2102:2106  true */\n      0x01\n        /* \"Voting/Voting.sol\":2064:2106  whitelist[msg.sender].isRegistered == true */\n      iszero\n      iszero\n        /* \"Voting/Voting.sol\":2064:2073  whitelist */\n      0x01\n        /* \"Voting/Voting.sol\":2064:2085  whitelist[msg.sender] */\n      0x00\n        /* \"Voting/Voting.sol\":2074:2084  msg.sender */\n      caller\n        /* \"Voting/Voting.sol\":2064:2085  whitelist[msg.sender] */\n      0xffffffffffffffffffffffffffffffffffffffff\n      and\n      0xffffffffffffffffffffffffffffffffffffffff\n      and\n      dup2\n      mstore\n      0x20\n      add\n      swap1\n      dup2\n      mstore\n      0x20\n      add\n      0x00\n      keccak256\n        /* \"Voting/Voting.sol\":2064:2098  whitelist[msg.sender].isRegistered */\n      0x00\n      add\n      0x00\n      swap1\n      sload\n      swap1\n      0x0100\n      exp\n      swap1\n      div\n      0xff\n      and\n        /* \"Voting/Voting.sol\":2064:2106  whitelist[msg.sender].isRegistered == true */\n      iszero\n      iszero\n      eq\n        /* \"Voting/Voting.sol\":2043:2189  require(... */\n      tag_167\n      jumpi\n      mload(0x40)\n      0x08c379a000000000000000000000000000000000000000000000000000000000\n      dup2\n      mstore\n      0x04\n      add\n      tag_168\n      swap1\n      tag_169\n      jump\t// in\n    tag_168:\n      mload(0x40)\n      dup1\n      swap2\n      sub\n      swap1\n      revert\n    tag_167:\n        /* \"Voting/Voting.sol\":1993:2196  function _isWhitelisted() internal view {... */\n      jump\t// out\n        /* \"Voting/Voting.sol\":2258:2464  function _isProposalsRegistrationStarted() internal view {... */\n    tag_74:\n        /* \"Voting/Voting.sol\":2356:2399  WorkflowStatus.ProposalsRegistrationStarted */\n      0x01\n        /* \"Voting/Voting.sol\":2346:2399  status == WorkflowStatus.ProposalsRegistrationStarted */\n      0x05\n      dup2\n      gt\n      iszero\n      tag_171\n      jumpi\n      tag_172\n      tag_173\n      jump\t// in\n    tag_172:\n    tag_171:\n        /* \"Voting/Voting.sol\":2346:2352  status */\n      0x03\n      0x00\n      swap1\n      sload\n      swap1\n      0x0100\n      exp\n      swap1\n      div\n      0xff\n      and\n        /* \"Voting/Voting.sol\":2346:2399  status == WorkflowStatus.ProposalsRegistrationStarted */\n      0x05\n      dup2\n      gt\n      iszero\n      tag_174\n      jumpi\n      tag_175\n      tag_173\n      jump\t// in\n    tag_175:\n    tag_174:\n      eq\n        /* \"Voting/Voting.sol\":2325:2457  require(... */\n      tag_176\n      jumpi\n      mload(0x40)\n      0x08c379a000000000000000000000000000000000000000000000000000000000\n      dup2\n      mstore\n      0x04\n      add\n      tag_177\n      swap1\n      tag_178\n      jump\t// in\n    tag_177:\n      mload(0x40)\n      dup1\n      swap2\n      sub\n      swap1\n      revert\n    tag_176:\n        /* \"Voting/Voting.sol\":2258:2464  function _isProposalsRegistrationStarted() internal view {... */\n      jump\t// out\n        /* \"@openzeppelin/contracts/access/Ownable.sol\":1359:1489  function _checkOwner() internal view virtual {... */\n    tag_85:\n        /* \"@openzeppelin/contracts/access/Ownable.sol\":1433:1445  _msgSender() */\n      tag_180\n        /* \"@openzeppelin/contracts/access/Ownable.sol\":1433:1443  _msgSender */\n      tag_181\n        /* \"@openzeppelin/contracts/access/Ownable.sol\":1433:1445  _msgSender() */\n      jump\t// in\n    tag_180:\n        /* \"@openzeppelin/contracts/access/Ownable.sol\":1422:1445  owner() == _msgSender() */\n      0xffffffffffffffffffffffffffffffffffffffff\n      and\n        /* \"@openzeppelin/contracts/access/Ownable.sol\":1422:1429  owner() */\n      tag_182\n        /* \"@openzeppelin/contracts/access/Ownable.sol\":1422:1427  owner */\n      tag_43\n        /* \"@openzeppelin/contracts/access/Ownable.sol\":1422:1429  owner() */\n      jump\t// in\n    tag_182:\n        /* \"@openzeppelin/contracts/access/Ownable.sol\":1422:1445  owner() == _msgSender() */\n      0xffffffffffffffffffffffffffffffffffffffff\n      and\n      eq\n        /* \"@openzeppelin/contracts/access/Ownable.sol\":1414:1482  require(owner() == _msgSender(), \"Ownable: caller is not the owner\") */\n      tag_183\n      jumpi\n      mload(0x40)\n      0x08c379a000000000000000000000000000000000000000000000000000000000\n      dup2\n      mstore\n      0x04\n      add\n      tag_184\n      swap1\n      tag_185\n      jump\t// in\n    tag_184:\n      mload(0x40)\n      dup1\n      swap2\n      sub\n      swap1\n      revert\n    tag_183:\n        /* \"@openzeppelin/contracts/access/Ownable.sol\":1359:1489  function _checkOwner() internal view virtual {... */\n      jump\t// out\n        /* \"Voting/Voting.sol\":1747:1945  function _isRegisteringVotersStatus() internal view {... */\n    tag_88:\n        /* \"Voting/Voting.sol\":1840:1872  WorkflowStatus.RegisteringVoters */\n      0x00\n        /* \"Voting/Voting.sol\":1830:1872  status == WorkflowStatus.RegisteringVoters */\n      0x05\n      dup2\n      gt\n      iszero\n      tag_187\n      jumpi\n      tag_188\n      tag_173\n      jump\t// in\n    tag_188:\n    tag_187:\n        /* \"Voting/Voting.sol\":1830:1836  status */\n      0x03\n      0x00\n      swap1\n      sload\n      swap1\n      0x0100\n      exp\n      swap1\n      div\n      0xff\n      and\n        /* \"Voting/Voting.sol\":1830:1872  status == WorkflowStatus.RegisteringVoters */\n      0x05\n      dup2\n      gt\n      iszero\n      tag_189\n      jumpi\n      tag_190\n      tag_173\n      jump\t// in\n    tag_190:\n    tag_189:\n      eq\n        /* \"Voting/Voting.sol\":1809:1938  require(... */\n      tag_191\n      jumpi\n      mload(0x40)\n      0x08c379a000000000000000000000000000000000000000000000000000000000\n      dup2\n      mstore\n      0x04\n      add\n      tag_192\n      swap1\n      tag_193\n      jump\t// in\n    tag_192:\n      mload(0x40)\n      dup1\n      swap2\n      sub\n      swap1\n      revert\n    tag_191:\n        /* \"Voting/Voting.sol\":1747:1945  function _isRegisteringVotersStatus() internal view {... */\n      jump\t// out\n        /* \"Voting/Voting.sol\":2715:2890  function _isVotingSessionEnded() internal view {... */\n    tag_104:\n        /* \"Voting/Voting.sol\":2803:2836  WorkflowStatus.VotingSessionEnded */\n      0x04\n        /* \"Voting/Voting.sol\":2793:2836  status == WorkflowStatus.VotingSessionEnded */\n      0x05\n      dup2\n      gt\n      iszero\n      tag_195\n      jumpi\n      tag_196\n      tag_173\n      jump\t// in\n    tag_196:\n    tag_195:\n        /* \"Voting/Voting.sol\":2793:2799  status */\n      0x03\n      0x00\n      swap1\n      sload\n      swap1\n      0x0100\n      exp\n      swap1\n      div\n      0xff\n      and\n        /* \"Voting/Voting.sol\":2793:2836  status == WorkflowStatus.VotingSessionEnded */\n      0x05\n      dup2\n      gt\n      iszero\n      tag_197\n      jumpi\n      tag_198\n      tag_173\n      jump\t// in\n    tag_198:\n    tag_197:\n      eq\n        /* \"Voting/Voting.sol\":2772:2883  require(... */\n      tag_199\n      jumpi\n      mload(0x40)\n      0x08c379a000000000000000000000000000000000000000000000000000000000\n      dup2\n      mstore\n      0x04\n      add\n      tag_200\n      swap1\n      tag_201\n      jump\t// in\n    tag_200:\n      mload(0x40)\n      dup1\n      swap2\n      sub\n      swap1\n      revert\n    tag_199:\n        /* \"Voting/Voting.sol\":2715:2890  function _isVotingSessionEnded() internal view {... */\n      jump\t// out\n        /* \"Voting/Voting.sol\":5979:6228  function setStatus(WorkflowStatus _status)... */\n    tag_120:\n        /* \"@openzeppelin/contracts/access/Ownable.sol\":1094:1107  _checkOwner() */\n      tag_203\n        /* \"@openzeppelin/contracts/access/Ownable.sol\":1094:1105  _checkOwner */\n      tag_85\n        /* \"@openzeppelin/contracts/access/Ownable.sol\":1094:1107  _checkOwner() */\n      jump\t// in\n    tag_203:\n        /* \"Voting/Voting.sol\":6084:6091  _status */\n      dup1\n        /* \"Voting/Voting.sol\":1476:1504  _isConsistantStatus(_status) */\n      tag_205\n        /* \"Voting/Voting.sol\":1496:1503  _status */\n      dup2\n        /* \"Voting/Voting.sol\":1476:1495  _isConsistantStatus */\n      tag_206\n        /* \"Voting/Voting.sol\":1476:1504  _isConsistantStatus(_status) */\n      jump\t// in\n    tag_205:\n        /* \"Voting/Voting.sol\":6107:6131  WorkflowStatus oldStatus */\n      0x00\n        /* \"Voting/Voting.sol\":6134:6140  status */\n      0x03\n      0x00\n      swap1\n      sload\n      swap1\n      0x0100\n      exp\n      swap1\n      div\n      0xff\n      and\n        /* \"Voting/Voting.sol\":6107:6140  WorkflowStatus oldStatus = status */\n      swap1\n      pop\n        /* \"Voting/Voting.sol\":6159:6166  _status */\n      dup3\n        /* \"Voting/Voting.sol\":6150:6156  status */\n      0x03\n      0x00\n        /* \"Voting/Voting.sol\":6150:6166  status = _status */\n      0x0100\n      exp\n      dup2\n      sload\n      dup2\n      0xff\n      mul\n      not\n      and\n      swap1\n      dup4\n      0x05\n      dup2\n      gt\n      iszero\n      tag_208\n      jumpi\n      tag_209\n      tag_173\n      jump\t// in\n    tag_209:\n    tag_208:\n      mul\n      or\n      swap1\n      sstore\n      pop\n        /* \"Voting/Voting.sol\":6181:6221  WorkflowStatusChange(oldStatus, _status) */\n      0x0a97a4ee45751e2abf3e4fc8946939630b11b371ea8ae39ccdc3056e98f5cc3f\n        /* \"Voting/Voting.sol\":6202:6211  oldStatus */\n      dup2\n        /* \"Voting/Voting.sol\":6213:6220  _status */\n      dup5\n        /* \"Voting/Voting.sol\":6181:6221  WorkflowStatusChange(oldStatus, _status) */\n      mload(0x40)\n      tag_210\n      swap3\n      swap2\n      swap1\n      tag_211\n      jump\t// in\n    tag_210:\n      mload(0x40)\n      dup1\n      swap2\n      sub\n      swap1\n      log1\n        /* \"Voting/Voting.sol\":6097:6228  {... */\n      pop\n        /* \"@openzeppelin/contracts/access/Ownable.sol\":1117:1118  _ */\n      pop\n        /* \"Voting/Voting.sol\":5979:6228  function setStatus(WorkflowStatus _status)... */\n      pop\n      jump\t// out\n        /* \"@openzeppelin/contracts/access/Ownable.sol\":2433:2620  function _transferOwnership(address newOwner) internal virtual {... */\n    tag_125:\n        /* \"@openzeppelin/contracts/access/Ownable.sol\":2506:2522  address oldOwner */\n      0x00\n        /* \"@openzeppelin/contracts/access/Ownable.sol\":2525:2531  _owner */\n      dup1\n      0x00\n      swap1\n      sload\n      swap1\n      0x0100\n      exp\n      swap1\n      div\n      0xffffffffffffffffffffffffffffffffffffffff\n      and\n        /* \"@openzeppelin/contracts/access/Ownable.sol\":2506:2531  address oldOwner = _owner */\n      swap1\n      pop\n        /* \"@openzeppelin/contracts/access/Ownable.sol\":2550:2558  newOwner */\n      dup2\n        /* \"@openzeppelin/contracts/access/Ownable.sol\":2541:2547  _owner */\n      0x00\n      dup1\n        /* \"@openzeppelin/contracts/access/Ownable.sol\":2541:2558  _owner = newOwner */\n      0x0100\n      exp\n      dup2\n      sload\n      dup2\n      0xffffffffffffffffffffffffffffffffffffffff\n      mul\n      not\n      and\n      swap1\n      dup4\n      0xffffffffffffffffffffffffffffffffffffffff\n      and\n      mul\n      or\n      swap1\n      sstore\n      pop\n        /* \"@openzeppelin/contracts/access/Ownable.sol\":2604:2612  newOwner */\n      dup2\n        /* \"@openzeppelin/contracts/access/Ownable.sol\":2573:2613  OwnershipTransferred(oldOwner, newOwner) */\n      0xffffffffffffffffffffffffffffffffffffffff\n      and\n        /* \"@openzeppelin/contracts/access/Ownable.sol\":2594:2602  oldOwner */\n      dup2\n        /* \"@openzeppelin/contracts/access/Ownable.sol\":2573:2613  OwnershipTransferred(oldOwner, newOwner) */\n      0xffffffffffffffffffffffffffffffffffffffff\n      and\n      0x8be0079c531659141344cd1fd0a4f28419497f9722a3daafe3b4186f6b6457e0\n      mload(0x40)\n      mload(0x40)\n      dup1\n      swap2\n      sub\n      swap1\n      log3\n        /* \"@openzeppelin/contracts/access/Ownable.sol\":2496:2620  {... */\n      pop\n        /* \"@openzeppelin/contracts/access/Ownable.sol\":2433:2620  function _transferOwnership(address newOwner) internal virtual {... */\n      pop\n      jump\t// out\n        /* \"Voting/Voting.sol\":2526:2709  function _isVotingSessionStarted() internal view {... */\n    tag_150:\n        /* \"Voting/Voting.sol\":2616:2651  WorkflowStatus.VotingSessionStarted */\n      0x03\n        /* \"Voting/Voting.sol\":2606:2651  status == WorkflowStatus.VotingSessionStarted */\n      0x05\n      dup2\n      gt\n      iszero\n      tag_214\n      jumpi\n      tag_215\n      tag_173\n      jump\t// in\n    tag_215:\n    tag_214:\n        /* \"Voting/Voting.sol\":2606:2612  status */\n      0x03\n      0x00\n      swap1\n      sload\n      swap1\n      0x0100\n      exp\n      swap1\n      div\n      0xff\n      and\n        /* \"Voting/Voting.sol\":2606:2651  status == WorkflowStatus.VotingSessionStarted */\n      0x05\n      dup2\n      gt\n      iszero\n      tag_216\n      jumpi\n      tag_217\n      tag_173\n      jump\t// in\n    tag_217:\n    tag_216:\n      eq\n        /* \"Voting/Voting.sol\":2585:2702  require(... */\n      tag_218\n      jumpi\n      mload(0x40)\n      0x08c379a000000000000000000000000000000000000000000000000000000000\n      dup2\n      mstore\n      0x04\n      add\n      tag_219\n      swap1\n      tag_220\n      jump\t// in\n    tag_219:\n      mload(0x40)\n      dup1\n      swap2\n      sub\n      swap1\n      revert\n    tag_218:\n        /* \"Voting/Voting.sol\":2526:2709  function _isVotingSessionStarted() internal view {... */\n      jump\t// out\n        /* \"@openzeppelin/contracts/utils/Context.sol\":640:736  function _msgSender() internal view virtual returns (address) {... */\n    tag_181:\n        /* \"@openzeppelin/contracts/utils/Context.sol\":693:700  address */\n      0x00\n        /* \"@openzeppelin/contracts/utils/Context.sol\":719:729  msg.sender */\n      caller\n        /* \"@openzeppelin/contracts/utils/Context.sol\":712:729  return msg.sender */\n      swap1\n      pop\n        /* \"@openzeppelin/contracts/utils/Context.sol\":640:736  function _msgSender() internal view virtual returns (address) {... */\n      swap1\n      jump\t// out\n        /* \"Voting/Voting.sol\":2951:4998  function _isConsistantStatus(WorkflowStatus _status) internal view {... */\n    tag_206:\n        /* \"Voting/Voting.sol\":3043:3075  WorkflowStatus.RegisteringVoters */\n      0x00\n        /* \"Voting/Voting.sol\":3032:3075  _status == WorkflowStatus.RegisteringVoters */\n      0x05\n      dup2\n      gt\n      iszero\n      tag_223\n      jumpi\n      tag_224\n      tag_173\n      jump\t// in\n    tag_224:\n    tag_223:\n        /* \"Voting/Voting.sol\":3032:3039  _status */\n      dup2\n        /* \"Voting/Voting.sol\":3032:3075  _status == WorkflowStatus.RegisteringVoters */\n      0x05\n      dup2\n      gt\n      iszero\n      tag_225\n      jumpi\n      tag_226\n      tag_173\n      jump\t// in\n    tag_226:\n    tag_225:\n      sub\n        /* \"Voting/Voting.sol\":3028:4992  if (_status == WorkflowStatus.RegisteringVoters) {... */\n      tag_227\n      jumpi\n        /* \"Voting/Voting.sol\":3126:3158  WorkflowStatus.RegisteringVoters */\n      0x00\n        /* \"Voting/Voting.sol\":3116:3158  status == WorkflowStatus.RegisteringVoters */\n      0x05\n      dup2\n      gt\n      iszero\n      tag_228\n      jumpi\n      tag_229\n      tag_173\n      jump\t// in\n    tag_229:\n    tag_228:\n        /* \"Voting/Voting.sol\":3116:3122  status */\n      0x03\n      0x00\n      swap1\n      sload\n      swap1\n      0x0100\n      exp\n      swap1\n      div\n      0xff\n      and\n        /* \"Voting/Voting.sol\":3116:3158  status == WorkflowStatus.RegisteringVoters */\n      0x05\n      dup2\n      gt\n      iszero\n      tag_230\n      jumpi\n      tag_231\n      tag_173\n      jump\t// in\n    tag_231:\n    tag_230:\n      eq\n        /* \"Voting/Voting.sol\":3116:3235  status == WorkflowStatus.RegisteringVoters ||... */\n      dup1\n      tag_232\n      jumpi\n      pop\n        /* \"Voting/Voting.sol\":3192:3235  WorkflowStatus.ProposalsRegistrationStarted */\n      0x01\n        /* \"Voting/Voting.sol\":3182:3235  status == WorkflowStatus.ProposalsRegistrationStarted */\n      0x05\n      dup2\n      gt\n      iszero\n      tag_233\n      jumpi\n      tag_234\n      tag_173\n      jump\t// in\n    tag_234:\n    tag_233:\n        /* \"Voting/Voting.sol\":3182:3188  status */\n      0x03\n      0x00\n      swap1\n      sload\n      swap1\n      0x0100\n      exp\n      swap1\n      div\n      0xff\n      and\n        /* \"Voting/Voting.sol\":3182:3235  status == WorkflowStatus.ProposalsRegistrationStarted */\n      0x05\n      dup2\n      gt\n      iszero\n      tag_235\n      jumpi\n      tag_236\n      tag_173\n      jump\t// in\n    tag_236:\n    tag_235:\n      eq\n        /* \"Voting/Voting.sol\":3116:3235  status == WorkflowStatus.RegisteringVoters ||... */\n    tag_232:\n        /* \"Voting/Voting.sol\":3091:3351  require(... */\n      tag_237\n      jumpi\n      mload(0x40)\n      0x08c379a000000000000000000000000000000000000000000000000000000000\n      dup2\n      mstore\n      0x04\n      add\n      tag_238\n      swap1\n      tag_239\n      jump\t// in\n    tag_238:\n      mload(0x40)\n      dup1\n      swap2\n      sub\n      swap1\n      revert\n    tag_237:\n        /* \"Voting/Voting.sol\":3028:4992  if (_status == WorkflowStatus.RegisteringVoters) {... */\n      jump(tag_240)\n    tag_227:\n        /* \"Voting/Voting.sol\":3383:3426  WorkflowStatus.ProposalsRegistrationStarted */\n      0x01\n        /* \"Voting/Voting.sol\":3372:3426  _status == WorkflowStatus.ProposalsRegistrationStarted */\n      0x05\n      dup2\n      gt\n      iszero\n      tag_241\n      jumpi\n      tag_242\n      tag_173\n      jump\t// in\n    tag_242:\n    tag_241:\n        /* \"Voting/Voting.sol\":3372:3379  _status */\n      dup2\n        /* \"Voting/Voting.sol\":3372:3426  _status == WorkflowStatus.ProposalsRegistrationStarted */\n      0x05\n      dup2\n      gt\n      iszero\n      tag_243\n      jumpi\n      tag_244\n      tag_173\n      jump\t// in\n    tag_244:\n    tag_243:\n      sub\n        /* \"Voting/Voting.sol\":3368:4992  if (_status == WorkflowStatus.ProposalsRegistrationStarted) {... */\n      tag_245\n      jumpi\n        /* \"Voting/Voting.sol\":3477:3509  WorkflowStatus.RegisteringVoters */\n      0x00\n        /* \"Voting/Voting.sol\":3467:3509  status == WorkflowStatus.RegisteringVoters */\n      0x05\n      dup2\n      gt\n      iszero\n      tag_246\n      jumpi\n      tag_247\n      tag_173\n      jump\t// in\n    tag_247:\n    tag_246:\n        /* \"Voting/Voting.sol\":3467:3473  status */\n      0x03\n      0x00\n      swap1\n      sload\n      swap1\n      0x0100\n      exp\n      swap1\n      div\n      0xff\n      and\n        /* \"Voting/Voting.sol\":3467:3509  status == WorkflowStatus.RegisteringVoters */\n      0x05\n      dup2\n      gt\n      iszero\n      tag_248\n      jumpi\n      tag_249\n      tag_173\n      jump\t// in\n    tag_249:\n    tag_248:\n      eq\n        /* \"Voting/Voting.sol\":3467:3584  status == WorkflowStatus.RegisteringVoters ||... */\n      dup1\n      tag_250\n      jumpi\n      pop\n        /* \"Voting/Voting.sol\":3543:3584  WorkflowStatus.ProposalsRegistrationEnded */\n      0x02\n        /* \"Voting/Voting.sol\":3533:3584  status == WorkflowStatus.ProposalsRegistrationEnded */\n      0x05\n      dup2\n      gt\n      iszero\n      tag_251\n      jumpi\n      tag_252\n      tag_173\n      jump\t// in\n    tag_252:\n    tag_251:\n        /* \"Voting/Voting.sol\":3533:3539  status */\n      0x03\n      0x00\n      swap1\n      sload\n      swap1\n      0x0100\n      exp\n      swap1\n      div\n      0xff\n      and\n        /* \"Voting/Voting.sol\":3533:3584  status == WorkflowStatus.ProposalsRegistrationEnded */\n      0x05\n      dup2\n      gt\n      iszero\n      tag_253\n      jumpi\n      tag_254\n      tag_173\n      jump\t// in\n    tag_254:\n    tag_253:\n      eq\n        /* \"Voting/Voting.sol\":3467:3584  status == WorkflowStatus.RegisteringVoters ||... */\n    tag_250:\n        /* \"Voting/Voting.sol\":3442:3700  require(... */\n      tag_255\n      jumpi\n      mload(0x40)\n      0x08c379a000000000000000000000000000000000000000000000000000000000\n      dup2\n      mstore\n      0x04\n      add\n      tag_256\n      swap1\n      tag_239\n      jump\t// in\n    tag_256:\n      mload(0x40)\n      dup1\n      swap2\n      sub\n      swap1\n      revert\n    tag_255:\n        /* \"Voting/Voting.sol\":3368:4992  if (_status == WorkflowStatus.ProposalsRegistrationStarted) {... */\n      jump(tag_257)\n    tag_245:\n        /* \"Voting/Voting.sol\":3732:3773  WorkflowStatus.ProposalsRegistrationEnded */\n      0x02\n        /* \"Voting/Voting.sol\":3721:3773  _status == WorkflowStatus.ProposalsRegistrationEnded */\n      0x05\n      dup2\n      gt\n      iszero\n      tag_258\n      jumpi\n      tag_259\n      tag_173\n      jump\t// in\n    tag_259:\n    tag_258:\n        /* \"Voting/Voting.sol\":3721:3728  _status */\n      dup2\n        /* \"Voting/Voting.sol\":3721:3773  _status == WorkflowStatus.ProposalsRegistrationEnded */\n      0x05\n      dup2\n      gt\n      iszero\n      tag_260\n      jumpi\n      tag_261\n      tag_173\n      jump\t// in\n    tag_261:\n    tag_260:\n      sub\n        /* \"Voting/Voting.sol\":3717:4992  if (_status == WorkflowStatus.ProposalsRegistrationEnded) {... */\n      tag_262\n      jumpi\n        /* \"Voting/Voting.sol\":3824:3867  WorkflowStatus.ProposalsRegistrationStarted */\n      0x01\n        /* \"Voting/Voting.sol\":3814:3867  status == WorkflowStatus.ProposalsRegistrationStarted */\n      0x05\n      dup2\n      gt\n      iszero\n      tag_263\n      jumpi\n      tag_264\n      tag_173\n      jump\t// in\n    tag_264:\n    tag_263:\n        /* \"Voting/Voting.sol\":3814:3820  status */\n      0x03\n      0x00\n      swap1\n      sload\n      swap1\n      0x0100\n      exp\n      swap1\n      div\n      0xff\n      and\n        /* \"Voting/Voting.sol\":3814:3867  status == WorkflowStatus.ProposalsRegistrationStarted */\n      0x05\n      dup2\n      gt\n      iszero\n      tag_265\n      jumpi\n      tag_266\n      tag_173\n      jump\t// in\n    tag_266:\n    tag_265:\n      eq\n        /* \"Voting/Voting.sol\":3814:3936  status == WorkflowStatus.ProposalsRegistrationStarted ||... */\n      dup1\n      tag_267\n      jumpi\n      pop\n        /* \"Voting/Voting.sol\":3901:3936  WorkflowStatus.VotingSessionStarted */\n      0x03\n        /* \"Voting/Voting.sol\":3891:3936  status == WorkflowStatus.VotingSessionStarted */\n      0x05\n      dup2\n      gt\n      iszero\n      tag_268\n      jumpi\n      tag_269\n      tag_173\n      jump\t// in\n    tag_269:\n    tag_268:\n        /* \"Voting/Voting.sol\":3891:3897  status */\n      0x03\n      0x00\n      swap1\n      sload\n      swap1\n      0x0100\n      exp\n      swap1\n      div\n      0xff\n      and\n        /* \"Voting/Voting.sol\":3891:3936  status == WorkflowStatus.VotingSessionStarted */\n      0x05\n      dup2\n      gt\n      iszero\n      tag_270\n      jumpi\n      tag_271\n      tag_173\n      jump\t// in\n    tag_271:\n    tag_270:\n      eq\n        /* \"Voting/Voting.sol\":3814:3936  status == WorkflowStatus.ProposalsRegistrationStarted ||... */\n    tag_267:\n        /* \"Voting/Voting.sol\":3789:4052  require(... */\n      tag_272\n      jumpi\n      mload(0x40)\n      0x08c379a000000000000000000000000000000000000000000000000000000000\n      dup2\n      mstore\n      0x04\n      add\n      tag_273\n      swap1\n      tag_239\n      jump\t// in\n    tag_273:\n      mload(0x40)\n      dup1\n      swap2\n      sub\n      swap1\n      revert\n    tag_272:\n        /* \"Voting/Voting.sol\":3717:4992  if (_status == WorkflowStatus.ProposalsRegistrationEnded) {... */\n      jump(tag_274)\n    tag_262:\n        /* \"Voting/Voting.sol\":4084:4119  WorkflowStatus.VotingSessionStarted */\n      0x03\n        /* \"Voting/Voting.sol\":4073:4119  _status == WorkflowStatus.VotingSessionStarted */\n      0x05\n      dup2\n      gt\n      iszero\n      tag_275\n      jumpi\n      tag_276\n      tag_173\n      jump\t// in\n    tag_276:\n    tag_275:\n        /* \"Voting/Voting.sol\":4073:4080  _status */\n      dup2\n        /* \"Voting/Voting.sol\":4073:4119  _status == WorkflowStatus.VotingSessionStarted */\n      0x05\n      dup2\n      gt\n      iszero\n      tag_277\n      jumpi\n      tag_278\n      tag_173\n      jump\t// in\n    tag_278:\n    tag_277:\n      sub\n        /* \"Voting/Voting.sol\":4069:4992  if (_status == WorkflowStatus.VotingSessionStarted) {... */\n      tag_279\n      jumpi\n        /* \"Voting/Voting.sol\":4170:4211  WorkflowStatus.ProposalsRegistrationEnded */\n      0x02\n        /* \"Voting/Voting.sol\":4160:4211  status == WorkflowStatus.ProposalsRegistrationEnded */\n      0x05\n      dup2\n      gt\n      iszero\n      tag_280\n      jumpi\n      tag_281\n      tag_173\n      jump\t// in\n    tag_281:\n    tag_280:\n        /* \"Voting/Voting.sol\":4160:4166  status */\n      0x03\n      0x00\n      swap1\n      sload\n      swap1\n      0x0100\n      exp\n      swap1\n      div\n      0xff\n      and\n        /* \"Voting/Voting.sol\":4160:4211  status == WorkflowStatus.ProposalsRegistrationEnded */\n      0x05\n      dup2\n      gt\n      iszero\n      tag_282\n      jumpi\n      tag_283\n      tag_173\n      jump\t// in\n    tag_283:\n    tag_282:\n      eq\n        /* \"Voting/Voting.sol\":4160:4278  status == WorkflowStatus.ProposalsRegistrationEnded ||... */\n      dup1\n      tag_284\n      jumpi\n      pop\n        /* \"Voting/Voting.sol\":4245:4278  WorkflowStatus.VotingSessionEnded */\n      0x04\n        /* \"Voting/Voting.sol\":4235:4278  status == WorkflowStatus.VotingSessionEnded */\n      0x05\n      dup2\n      gt\n      iszero\n      tag_285\n      jumpi\n      tag_286\n      tag_173\n      jump\t// in\n    tag_286:\n    tag_285:\n        /* \"Voting/Voting.sol\":4235:4241  status */\n      0x03\n      0x00\n      swap1\n      sload\n      swap1\n      0x0100\n      exp\n      swap1\n      div\n      0xff\n      and\n        /* \"Voting/Voting.sol\":4235:4278  status == WorkflowStatus.VotingSessionEnded */\n      0x05\n      dup2\n      gt\n      iszero\n      tag_287\n      jumpi\n      tag_288\n      tag_173\n      jump\t// in\n    tag_288:\n    tag_287:\n      eq\n        /* \"Voting/Voting.sol\":4160:4278  status == WorkflowStatus.ProposalsRegistrationEnded ||... */\n    tag_284:\n        /* \"Voting/Voting.sol\":4135:4394  require(... */\n      tag_289\n      jumpi\n      mload(0x40)\n      0x08c379a000000000000000000000000000000000000000000000000000000000\n      dup2\n      mstore\n      0x04\n      add\n      tag_290\n      swap1\n      tag_239\n      jump\t// in\n    tag_290:\n      mload(0x40)\n      dup1\n      swap2\n      sub\n      swap1\n      revert\n    tag_289:\n        /* \"Voting/Voting.sol\":4069:4992  if (_status == WorkflowStatus.VotingSessionStarted) {... */\n      jump(tag_291)\n    tag_279:\n        /* \"Voting/Voting.sol\":4426:4459  WorkflowStatus.VotingSessionEnded */\n      0x04\n        /* \"Voting/Voting.sol\":4415:4459  _status == WorkflowStatus.VotingSessionEnded */\n      0x05\n      dup2\n      gt\n      iszero\n      tag_292\n      jumpi\n      tag_293\n      tag_173\n      jump\t// in\n    tag_293:\n    tag_292:\n        /* \"Voting/Voting.sol\":4415:4422  _status */\n      dup2\n        /* \"Voting/Voting.sol\":4415:4459  _status == WorkflowStatus.VotingSessionEnded */\n      0x05\n      dup2\n      gt\n      iszero\n      tag_294\n      jumpi\n      tag_295\n      tag_173\n      jump\t// in\n    tag_295:\n    tag_294:\n      sub\n        /* \"Voting/Voting.sol\":4411:4992  if (_status == WorkflowStatus.VotingSessionEnded) {... */\n      tag_296\n      jumpi\n        /* \"Voting/Voting.sol\":4510:4545  WorkflowStatus.VotingSessionStarted */\n      0x03\n        /* \"Voting/Voting.sol\":4500:4545  status == WorkflowStatus.VotingSessionStarted */\n      0x05\n      dup2\n      gt\n      iszero\n      tag_297\n      jumpi\n      tag_298\n      tag_173\n      jump\t// in\n    tag_298:\n    tag_297:\n        /* \"Voting/Voting.sol\":4500:4506  status */\n      0x03\n      0x00\n      swap1\n      sload\n      swap1\n      0x0100\n      exp\n      swap1\n      div\n      0xff\n      and\n        /* \"Voting/Voting.sol\":4500:4545  status == WorkflowStatus.VotingSessionStarted */\n      0x05\n      dup2\n      gt\n      iszero\n      tag_299\n      jumpi\n      tag_300\n      tag_173\n      jump\t// in\n    tag_300:\n    tag_299:\n      eq\n        /* \"Voting/Voting.sol\":4500:4606  status == WorkflowStatus.VotingSessionStarted ||... */\n      dup1\n      tag_301\n      jumpi\n      pop\n        /* \"Voting/Voting.sol\":4579:4606  WorkflowStatus.VotesTallied */\n      0x05\n        /* \"Voting/Voting.sol\":4569:4606  status == WorkflowStatus.VotesTallied */\n      dup1\n      dup2\n      gt\n      iszero\n      tag_302\n      jumpi\n      tag_303\n      tag_173\n      jump\t// in\n    tag_303:\n    tag_302:\n        /* \"Voting/Voting.sol\":4569:4575  status */\n      0x03\n      0x00\n      swap1\n      sload\n      swap1\n      0x0100\n      exp\n      swap1\n      div\n      0xff\n      and\n        /* \"Voting/Voting.sol\":4569:4606  status == WorkflowStatus.VotesTallied */\n      0x05\n      dup2\n      gt\n      iszero\n      tag_304\n      jumpi\n      tag_305\n      tag_173\n      jump\t// in\n    tag_305:\n    tag_304:\n      eq\n        /* \"Voting/Voting.sol\":4500:4606  status == WorkflowStatus.VotingSessionStarted ||... */\n    tag_301:\n        /* \"Voting/Voting.sol\":4475:4722  require(... */\n      tag_306\n      jumpi\n      mload(0x40)\n      0x08c379a000000000000000000000000000000000000000000000000000000000\n      dup2\n      mstore\n      0x04\n      add\n      tag_307\n      swap1\n      tag_239\n      jump\t// in\n    tag_307:\n      mload(0x40)\n      dup1\n      swap2\n      sub\n      swap1\n      revert\n    tag_306:\n        /* \"Voting/Voting.sol\":4411:4992  if (_status == WorkflowStatus.VotingSessionEnded) {... */\n      jump(tag_308)\n    tag_296:\n        /* \"Voting/Voting.sol\":4754:4781  WorkflowStatus.VotesTallied */\n      0x05\n        /* \"Voting/Voting.sol\":4743:4781  _status == WorkflowStatus.VotesTallied */\n      dup1\n      dup2\n      gt\n      iszero\n      tag_309\n      jumpi\n      tag_310\n      tag_173\n      jump\t// in\n    tag_310:\n    tag_309:\n        /* \"Voting/Voting.sol\":4743:4750  _status */\n      dup2\n        /* \"Voting/Voting.sol\":4743:4781  _status == WorkflowStatus.VotesTallied */\n      0x05\n      dup2\n      gt\n      iszero\n      tag_311\n      jumpi\n      tag_312\n      tag_173\n      jump\t// in\n    tag_312:\n    tag_311:\n      sub\n        /* \"Voting/Voting.sol\":4739:4992  if (_status == WorkflowStatus.VotesTallied) {... */\n      tag_313\n      jumpi\n        /* \"Voting/Voting.sol\":4832:4865  WorkflowStatus.VotingSessionEnded */\n      0x04\n        /* \"Voting/Voting.sol\":4822:4865  status == WorkflowStatus.VotingSessionEnded */\n      0x05\n      dup2\n      gt\n      iszero\n      tag_314\n      jumpi\n      tag_315\n      tag_173\n      jump\t// in\n    tag_315:\n    tag_314:\n        /* \"Voting/Voting.sol\":4822:4828  status */\n      0x03\n      0x00\n      swap1\n      sload\n      swap1\n      0x0100\n      exp\n      swap1\n      div\n      0xff\n      and\n        /* \"Voting/Voting.sol\":4822:4865  status == WorkflowStatus.VotingSessionEnded */\n      0x05\n      dup2\n      gt\n      iszero\n      tag_316\n      jumpi\n      tag_317\n      tag_173\n      jump\t// in\n    tag_317:\n    tag_316:\n      eq\n        /* \"Voting/Voting.sol\":4797:4981  require(... */\n      tag_318\n      jumpi\n      mload(0x40)\n      0x08c379a000000000000000000000000000000000000000000000000000000000\n      dup2\n      mstore\n      0x04\n      add\n      tag_319\n      swap1\n      tag_239\n      jump\t// in\n    tag_319:\n      mload(0x40)\n      dup1\n      swap2\n      sub\n      swap1\n      revert\n    tag_318:\n        /* \"Voting/Voting.sol\":4739:4992  if (_status == WorkflowStatus.VotesTallied) {... */\n    tag_313:\n        /* \"Voting/Voting.sol\":4411:4992  if (_status == WorkflowStatus.VotingSessionEnded) {... */\n    tag_308:\n        /* \"Voting/Voting.sol\":4069:4992  if (_status == WorkflowStatus.VotingSessionStarted) {... */\n    tag_291:\n        /* \"Voting/Voting.sol\":3717:4992  if (_status == WorkflowStatus.ProposalsRegistrationEnded) {... */\n    tag_274:\n        /* \"Voting/Voting.sol\":3368:4992  if (_status == WorkflowStatus.ProposalsRegistrationStarted) {... */\n    tag_257:\n        /* \"Voting/Voting.sol\":3028:4992  if (_status == WorkflowStatus.RegisteringVoters) {... */\n    tag_240:\n        /* \"Voting/Voting.sol\":2951:4998  function _isConsistantStatus(WorkflowStatus _status) internal view {... */\n      pop\n      jump\t// out\n        /* \"#utility.yul\":7:82   */\n    tag_320:\n        /* \"#utility.yul\":40:46   */\n      0x00\n        /* \"#utility.yul\":73:75   */\n      0x40\n        /* \"#utility.yul\":67:76   */\n      mload\n        /* \"#utility.yul\":57:76   */\n      swap1\n      pop\n        /* \"#utility.yul\":7:82   */\n      swap1\n      jump\t// out\n        /* \"#utility.yul\":88:205   */\n    tag_321:\n        /* \"#utility.yul\":197:198   */\n      0x00\n        /* \"#utility.yul\":194:195   */\n      dup1\n        /* \"#utility.yul\":187:199   */\n      revert\n        /* \"#utility.yul\":211:328   */\n    tag_322:\n        /* \"#utility.yul\":320:321   */\n      0x00\n        /* \"#utility.yul\":317:318   */\n      dup1\n        /* \"#utility.yul\":310:322   */\n      revert\n        /* \"#utility.yul\":334:411   */\n    tag_323:\n        /* \"#utility.yul\":371:378   */\n      0x00\n        /* \"#utility.yul\":400:405   */\n      dup2\n        /* \"#utility.yul\":389:405   */\n      swap1\n      pop\n        /* \"#utility.yul\":334:411   */\n      swap2\n      swap1\n      pop\n      jump\t// out\n        /* \"#utility.yul\":417:539   */\n    tag_324:\n        /* \"#utility.yul\":490:514   */\n      tag_409\n        /* \"#utility.yul\":508:513   */\n      dup2\n        /* \"#utility.yul\":490:514   */\n      tag_323\n      jump\t// in\n    tag_409:\n        /* \"#utility.yul\":483:488   */\n      dup2\n        /* \"#utility.yul\":480:515   */\n      eq\n        /* \"#utility.yul\":470:533   */\n      tag_410\n      jumpi\n        /* \"#utility.yul\":529:530   */\n      0x00\n        /* \"#utility.yul\":526:527   */\n      dup1\n        /* \"#utility.yul\":519:531   */\n      revert\n        /* \"#utility.yul\":470:533   */\n    tag_410:\n        /* \"#utility.yul\":417:539   */\n      pop\n      jump\t// out\n        /* \"#utility.yul\":545:684   */\n    tag_325:\n        /* \"#utility.yul\":591:596   */\n      0x00\n        /* \"#utility.yul\":629:635   */\n      dup2\n        /* \"#utility.yul\":616:636   */\n      calldataload\n        /* \"#utility.yul\":607:636   */\n      swap1\n      pop\n        /* \"#utility.yul\":645:678   */\n      tag_412\n        /* \"#utility.yul\":672:677   */\n      dup2\n        /* \"#utility.yul\":645:678   */\n      tag_324\n      jump\t// in\n    tag_412:\n        /* \"#utility.yul\":545:684   */\n      swap3\n      swap2\n      pop\n      pop\n      jump\t// out\n        /* \"#utility.yul\":690:1019   */\n    tag_18:\n        /* \"#utility.yul\":749:755   */\n      0x00\n        /* \"#utility.yul\":798:800   */\n      0x20\n        /* \"#utility.yul\":786:795   */\n      dup3\n        /* \"#utility.yul\":777:784   */\n      dup5\n        /* \"#utility.yul\":773:796   */\n      sub\n        /* \"#utility.yul\":769:801   */\n      slt\n        /* \"#utility.yul\":766:885   */\n      iszero\n      tag_414\n      jumpi\n        /* \"#utility.yul\":804:883   */\n      tag_415\n      tag_321\n      jump\t// in\n    tag_415:\n        /* \"#utility.yul\":766:885   */\n    tag_414:\n        /* \"#utility.yul\":924:925   */\n      0x00\n        /* \"#utility.yul\":949:1002   */\n      tag_416\n        /* \"#utility.yul\":994:1001   */\n      dup5\n        /* \"#utility.yul\":985:991   */\n      dup3\n        /* \"#utility.yul\":974:983   */\n      dup6\n        /* \"#utility.yul\":970:992   */\n      add\n        /* \"#utility.yul\":949:1002   */\n      tag_325\n      jump\t// in\n    tag_416:\n        /* \"#utility.yul\":939:1002   */\n      swap2\n      pop\n        /* \"#utility.yul\":895:1012   */\n      pop\n        /* \"#utility.yul\":690:1019   */\n      swap3\n      swap2\n      pop\n      pop\n      jump\t// out\n        /* \"#utility.yul\":1025:1124   */\n    tag_326:\n        /* \"#utility.yul\":1077:1083   */\n      0x00\n        /* \"#utility.yul\":1111:1116   */\n      dup2\n        /* \"#utility.yul\":1105:1117   */\n      mload\n        /* \"#utility.yul\":1095:1117   */\n      swap1\n      pop\n        /* \"#utility.yul\":1025:1124   */\n      swap2\n      swap1\n      pop\n      jump\t// out\n        /* \"#utility.yul\":1130:1299   */\n    tag_327:\n        /* \"#utility.yul\":1214:1225   */\n      0x00\n        /* \"#utility.yul\":1248:1254   */\n      dup3\n        /* \"#utility.yul\":1243:1246   */\n      dup3\n        /* \"#utility.yul\":1236:1255   */\n      mstore\n        /* \"#utility.yul\":1288:1292   */\n      0x20\n        /* \"#utility.yul\":1283:1286   */\n      dup3\n        /* \"#utility.yul\":1279:1293   */\n      add\n        /* \"#utility.yul\":1264:1293   */\n      swap1\n      pop\n        /* \"#utility.yul\":1130:1299   */\n      swap3\n      swap2\n      pop\n      pop\n      jump\t// out\n        /* \"#utility.yul\":1305:1551   */\n    tag_328:\n        /* \"#utility.yul\":1386:1387   */\n      0x00\n        /* \"#utility.yul\":1396:1509   */\n    tag_420:\n        /* \"#utility.yul\":1410:1416   */\n      dup4\n        /* \"#utility.yul\":1407:1408   */\n      dup2\n        /* \"#utility.yul\":1404:1417   */\n      lt\n        /* \"#utility.yul\":1396:1509   */\n      iszero\n      tag_422\n      jumpi\n        /* \"#utility.yul\":1495:1496   */\n      dup1\n        /* \"#utility.yul\":1490:1493   */\n      dup3\n        /* \"#utility.yul\":1486:1497   */\n      add\n        /* \"#utility.yul\":1480:1498   */\n      mload\n        /* \"#utility.yul\":1476:1477   */\n      dup2\n        /* \"#utility.yul\":1471:1474   */\n      dup5\n        /* \"#utility.yul\":1467:1478   */\n      add\n        /* \"#utility.yul\":1460:1499   */\n      mstore\n        /* \"#utility.yul\":1432:1434   */\n      0x20\n        /* \"#utility.yul\":1429:1430   */\n      dup2\n        /* \"#utility.yul\":1425:1435   */\n      add\n        /* \"#utility.yul\":1420:1435   */\n      swap1\n      pop\n        /* \"#utility.yul\":1396:1509   */\n      jump(tag_420)\n    tag_422:\n        /* \"#utility.yul\":1543:1544   */\n      0x00\n        /* \"#utility.yul\":1534:1540   */\n      dup5\n        /* \"#utility.yul\":1529:1532   */\n      dup5\n        /* \"#utility.yul\":1525:1541   */\n      add\n        /* \"#utility.yul\":1518:1545   */\n      mstore\n        /* \"#utility.yul\":1367:1551   */\n      pop\n        /* \"#utility.yul\":1305:1551   */\n      pop\n      pop\n      pop\n      jump\t// out\n        /* \"#utility.yul\":1557:1659   */\n    tag_329:\n        /* \"#utility.yul\":1598:1604   */\n      0x00\n        /* \"#utility.yul\":1649:1651   */\n      0x1f\n        /* \"#utility.yul\":1645:1652   */\n      not\n        /* \"#utility.yul\":1640:1642   */\n      0x1f\n        /* \"#utility.yul\":1633:1638   */\n      dup4\n        /* \"#utility.yul\":1629:1643   */\n      add\n        /* \"#utility.yul\":1625:1653   */\n      and\n        /* \"#utility.yul\":1615:1653   */\n      swap1\n      pop\n        /* \"#utility.yul\":1557:1659   */\n      swap2\n      swap1\n      pop\n      jump\t// out\n        /* \"#utility.yul\":1665:2042   */\n    tag_330:\n        /* \"#utility.yul\":1753:1756   */\n      0x00\n        /* \"#utility.yul\":1781:1820   */\n      tag_425\n        /* \"#utility.yul\":1814:1819   */\n      dup3\n        /* \"#utility.yul\":1781:1820   */\n      tag_326\n      jump\t// in\n    tag_425:\n        /* \"#utility.yul\":1836:1907   */\n      tag_426\n        /* \"#utility.yul\":1900:1906   */\n      dup2\n        /* \"#utility.yul\":1895:1898   */\n      dup6\n        /* \"#utility.yul\":1836:1907   */\n      tag_327\n      jump\t// in\n    tag_426:\n        /* \"#utility.yul\":1829:1907   */\n      swap4\n      pop\n        /* \"#utility.yul\":1916:1981   */\n      tag_427\n        /* \"#utility.yul\":1974:1980   */\n      dup2\n        /* \"#utility.yul\":1969:1972   */\n      dup6\n        /* \"#utility.yul\":1962:1966   */\n      0x20\n        /* \"#utility.yul\":1955:1960   */\n      dup7\n        /* \"#utility.yul\":1951:1967   */\n      add\n        /* \"#utility.yul\":1916:1981   */\n      tag_328\n      jump\t// in\n    tag_427:\n        /* \"#utility.yul\":2006:2035   */\n      tag_428\n        /* \"#utility.yul\":2028:2034   */\n      dup2\n        /* \"#utility.yul\":2006:2035   */\n      tag_329\n      jump\t// in\n    tag_428:\n        /* \"#utility.yul\":2001:2004   */\n      dup5\n        /* \"#utility.yul\":1997:2036   */\n      add\n        /* \"#utility.yul\":1990:2036   */\n      swap2\n      pop\n        /* \"#utility.yul\":1757:2042   */\n      pop\n        /* \"#utility.yul\":1665:2042   */\n      swap3\n      swap2\n      pop\n      pop\n      jump\t// out\n        /* \"#utility.yul\":2048:2166   */\n    tag_331:\n        /* \"#utility.yul\":2135:2159   */\n      tag_430\n        /* \"#utility.yul\":2153:2158   */\n      dup2\n        /* \"#utility.yul\":2135:2159   */\n      tag_323\n      jump\t// in\n    tag_430:\n        /* \"#utility.yul\":2130:2133   */\n      dup3\n        /* \"#utility.yul\":2123:2160   */\n      mstore\n        /* \"#utility.yul\":2048:2166   */\n      pop\n      pop\n      jump\t// out\n        /* \"#utility.yul\":2172:2595   */\n    tag_21:\n        /* \"#utility.yul\":2313:2317   */\n      0x00\n        /* \"#utility.yul\":2351:2353   */\n      0x40\n        /* \"#utility.yul\":2340:2349   */\n      dup3\n        /* \"#utility.yul\":2336:2354   */\n      add\n        /* \"#utility.yul\":2328:2354   */\n      swap1\n      pop\n        /* \"#utility.yul\":2400:2409   */\n      dup2\n        /* \"#utility.yul\":2394:2398   */\n      dup2\n        /* \"#utility.yul\":2390:2410   */\n      sub\n        /* \"#utility.yul\":2386:2387   */\n      0x00\n        /* \"#utility.yul\":2375:2384   */\n      dup4\n        /* \"#utility.yul\":2371:2388   */\n      add\n        /* \"#utility.yul\":2364:2411   */\n      mstore\n        /* \"#utility.yul\":2428:2506   */\n      tag_432\n        /* \"#utility.yul\":2501:2505   */\n      dup2\n        /* \"#utility.yul\":2492:2498   */\n      dup6\n        /* \"#utility.yul\":2428:2506   */\n      tag_330\n      jump\t// in\n    tag_432:\n        /* \"#utility.yul\":2420:2506   */\n      swap1\n      pop\n        /* \"#utility.yul\":2516:2588   */\n      tag_433\n        /* \"#utility.yul\":2584:2586   */\n      0x20\n        /* \"#utility.yul\":2573:2582   */\n      dup4\n        /* \"#utility.yul\":2569:2587   */\n      add\n        /* \"#utility.yul\":2560:2566   */\n      dup5\n        /* \"#utility.yul\":2516:2588   */\n      tag_331\n      jump\t// in\n    tag_433:\n        /* \"#utility.yul\":2172:2595   */\n      swap4\n      swap3\n      pop\n      pop\n      pop\n      jump\t// out\n        /* \"#utility.yul\":2601:2781   */\n    tag_173:\n        /* \"#utility.yul\":2649:2726   */\n      0x4e487b7100000000000000000000000000000000000000000000000000000000\n        /* \"#utility.yul\":2646:2647   */\n      0x00\n        /* \"#utility.yul\":2639:2727   */\n      mstore\n        /* \"#utility.yul\":2746:2750   */\n      0x21\n        /* \"#utility.yul\":2743:2744   */\n      0x04\n        /* \"#utility.yul\":2736:2751   */\n      mstore\n        /* \"#utility.yul\":2770:2774   */\n      0x24\n        /* \"#utility.yul\":2767:2768   */\n      0x00\n        /* \"#utility.yul\":2760:2775   */\n      revert\n        /* \"#utility.yul\":2787:2910   */\n    tag_332:\n        /* \"#utility.yul\":2878:2879   */\n      0x06\n        /* \"#utility.yul\":2871:2876   */\n      dup2\n        /* \"#utility.yul\":2868:2880   */\n      lt\n        /* \"#utility.yul\":2858:2904   */\n      tag_436\n      jumpi\n        /* \"#utility.yul\":2884:2902   */\n      tag_437\n      tag_173\n      jump\t// in\n    tag_437:\n        /* \"#utility.yul\":2858:2904   */\n    tag_436:\n        /* \"#utility.yul\":2787:2910   */\n      pop\n      jump\t// out\n        /* \"#utility.yul\":2916:3063   */\n    tag_333:\n        /* \"#utility.yul\":2971:2978   */\n      0x00\n        /* \"#utility.yul\":3000:3005   */\n      dup2\n        /* \"#utility.yul\":2989:3005   */\n      swap1\n      pop\n        /* \"#utility.yul\":3006:3057   */\n      tag_439\n        /* \"#utility.yul\":3051:3056   */\n      dup3\n        /* \"#utility.yul\":3006:3057   */\n      tag_332\n      jump\t// in\n    tag_439:\n        /* \"#utility.yul\":2916:3063   */\n      swap2\n      swap1\n      pop\n      jump\t// out\n        /* \"#utility.yul\":3069:3216   */\n    tag_334:\n        /* \"#utility.yul\":3135:3144   */\n      0x00\n        /* \"#utility.yul\":3168:3210   */\n      tag_441\n        /* \"#utility.yul\":3204:3209   */\n      dup3\n        /* \"#utility.yul\":3168:3210   */\n      tag_333\n      jump\t// in\n    tag_441:\n        /* \"#utility.yul\":3155:3210   */\n      swap1\n      pop\n        /* \"#utility.yul\":3069:3216   */\n      swap2\n      swap1\n      pop\n      jump\t// out\n        /* \"#utility.yul\":3222:3385   */\n    tag_335:\n        /* \"#utility.yul\":3325:3378   */\n      tag_443\n        /* \"#utility.yul\":3372:3377   */\n      dup2\n        /* \"#utility.yul\":3325:3378   */\n      tag_334\n      jump\t// in\n    tag_443:\n        /* \"#utility.yul\":3320:3323   */\n      dup3\n        /* \"#utility.yul\":3313:3379   */\n      mstore\n        /* \"#utility.yul\":3222:3385   */\n      pop\n      pop\n      jump\t// out\n        /* \"#utility.yul\":3391:3645   */\n    tag_25:\n        /* \"#utility.yul\":3500:3504   */\n      0x00\n        /* \"#utility.yul\":3538:3540   */\n      0x20\n        /* \"#utility.yul\":3527:3536   */\n      dup3\n        /* \"#utility.yul\":3523:3541   */\n      add\n        /* \"#utility.yul\":3515:3541   */\n      swap1\n      pop\n        /* \"#utility.yul\":3551:3638   */\n      tag_445\n        /* \"#utility.yul\":3635:3636   */\n      0x00\n        /* \"#utility.yul\":3624:3633   */\n      dup4\n        /* \"#utility.yul\":3620:3637   */\n      add\n        /* \"#utility.yul\":3611:3617   */\n      dup5\n        /* \"#utility.yul\":3551:3638   */\n      tag_335\n      jump\t// in\n    tag_445:\n        /* \"#utility.yul\":3391:3645   */\n      swap3\n      swap2\n      pop\n      pop\n      jump\t// out\n        /* \"#utility.yul\":3651:3768   */\n    tag_336:\n        /* \"#utility.yul\":3760:3761   */\n      0x00\n        /* \"#utility.yul\":3757:3758   */\n      dup1\n        /* \"#utility.yul\":3750:3762   */\n      revert\n        /* \"#utility.yul\":3774:3891   */\n    tag_337:\n        /* \"#utility.yul\":3883:3884   */\n      0x00\n        /* \"#utility.yul\":3880:3881   */\n      dup1\n        /* \"#utility.yul\":3873:3885   */\n      revert\n        /* \"#utility.yul\":3897:4077   */\n    tag_338:\n        /* \"#utility.yul\":3945:4022   */\n      0x4e487b7100000000000000000000000000000000000000000000000000000000\n        /* \"#utility.yul\":3942:3943   */\n      0x00\n        /* \"#utility.yul\":3935:4023   */\n      mstore\n        /* \"#utility.yul\":4042:4046   */\n      0x41\n        /* \"#utility.yul\":4039:4040   */\n      0x04\n        /* \"#utility.yul\":4032:4047   */\n      mstore\n        /* \"#utility.yul\":4066:4070   */\n      0x24\n        /* \"#utility.yul\":4063:4064   */\n      0x00\n        /* \"#utility.yul\":4056:4071   */\n      revert\n        /* \"#utility.yul\":4083:4364   */\n    tag_339:\n        /* \"#utility.yul\":4166:4193   */\n      tag_450\n        /* \"#utility.yul\":4188:4192   */\n      dup3\n        /* \"#utility.yul\":4166:4193   */\n      tag_329\n      jump\t// in\n    tag_450:\n        /* \"#utility.yul\":4158:4164   */\n      dup2\n        /* \"#utility.yul\":4154:4194   */\n      add\n        /* \"#utility.yul\":4296:4302   */\n      dup2\n        /* \"#utility.yul\":4284:4294   */\n      dup2\n        /* \"#utility.yul\":4281:4303   */\n      lt\n        /* \"#utility.yul\":4260:4278   */\n      0xffffffffffffffff\n        /* \"#utility.yul\":4248:4258   */\n      dup3\n        /* \"#utility.yul\":4245:4279   */\n      gt\n        /* \"#utility.yul\":4242:4304   */\n      or\n        /* \"#utility.yul\":4239:4327   */\n      iszero\n      tag_451\n      jumpi\n        /* \"#utility.yul\":4307:4325   */\n      tag_452\n      tag_338\n      jump\t// in\n    tag_452:\n        /* \"#utility.yul\":4239:4327   */\n    tag_451:\n        /* \"#utility.yul\":4347:4357   */\n      dup1\n        /* \"#utility.yul\":4343:4345   */\n      0x40\n        /* \"#utility.yul\":4336:4358   */\n      mstore\n        /* \"#utility.yul\":4126:4364   */\n      pop\n        /* \"#utility.yul\":4083:4364   */\n      pop\n      pop\n      jump\t// out\n        /* \"#utility.yul\":4370:4499   */\n    tag_340:\n        /* \"#utility.yul\":4404:4410   */\n      0x00\n        /* \"#utility.yul\":4431:4451   */\n      tag_454\n      tag_320\n      jump\t// in\n    tag_454:\n        /* \"#utility.yul\":4421:4451   */\n      swap1\n      pop\n        /* \"#utility.yul\":4460:4493   */\n      tag_455\n        /* \"#utility.yul\":4488:4492   */\n      dup3\n        /* \"#utility.yul\":4480:4486   */\n      dup3\n        /* \"#utility.yul\":4460:4493   */\n      tag_339\n      jump\t// in\n    tag_455:\n        /* \"#utility.yul\":4370:4499   */\n      swap2\n      swap1\n      pop\n      jump\t// out\n        /* \"#utility.yul\":4505:4813   */\n    tag_341:\n        /* \"#utility.yul\":4567:4571   */\n      0x00\n        /* \"#utility.yul\":4657:4675   */\n      0xffffffffffffffff\n        /* \"#utility.yul\":4649:4655   */\n      dup3\n        /* \"#utility.yul\":4646:4676   */\n      gt\n        /* \"#utility.yul\":4643:4699   */\n      iszero\n      tag_457\n      jumpi\n        /* \"#utility.yul\":4679:4697   */\n      tag_458\n      tag_338\n      jump\t// in\n    tag_458:\n        /* \"#utility.yul\":4643:4699   */\n    tag_457:\n        /* \"#utility.yul\":4717:4746   */\n      tag_459\n        /* \"#utility.yul\":4739:4745   */\n      dup3\n        /* \"#utility.yul\":4717:4746   */\n      tag_329\n      jump\t// in\n    tag_459:\n        /* \"#utility.yul\":4709:4746   */\n      swap1\n      pop\n        /* \"#utility.yul\":4801:4805   */\n      0x20\n        /* \"#utility.yul\":4795:4799   */\n      dup2\n        /* \"#utility.yul\":4791:4806   */\n      add\n        /* \"#utility.yul\":4783:4806   */\n      swap1\n      pop\n        /* \"#utility.yul\":4505:4813   */\n      swap2\n      swap1\n      pop\n      jump\t// out\n        /* \"#utility.yul\":4819:4965   */\n    tag_342:\n        /* \"#utility.yul\":4916:4922   */\n      dup3\n        /* \"#utility.yul\":4911:4914   */\n      dup2\n        /* \"#utility.yul\":4906:4909   */\n      dup4\n        /* \"#utility.yul\":4893:4923   */\n      calldatacopy\n        /* \"#utility.yul\":4957:4958   */\n      0x00\n        /* \"#utility.yul\":4948:4954   */\n      dup4\n        /* \"#utility.yul\":4943:4946   */\n      dup4\n        /* \"#utility.yul\":4939:4955   */\n      add\n        /* \"#utility.yul\":4932:4959   */\n      mstore\n        /* \"#utility.yul\":4819:4965   */\n      pop\n      pop\n      pop\n      jump\t// out\n        /* \"#utility.yul\":4971:5396   */\n    tag_343:\n        /* \"#utility.yul\":5049:5054   */\n      0x00\n        /* \"#utility.yul\":5074:5140   */\n      tag_462\n        /* \"#utility.yul\":5090:5139   */\n      tag_463\n        /* \"#utility.yul\":5132:5138   */\n      dup5\n        /* \"#utility.yul\":5090:5139   */\n      tag_341\n      jump\t// in\n    tag_463:\n        /* \"#utility.yul\":5074:5140   */\n      tag_340\n      jump\t// in\n    tag_462:\n        /* \"#utility.yul\":5065:5140   */\n      swap1\n      pop\n        /* \"#utility.yul\":5163:5169   */\n      dup3\n        /* \"#utility.yul\":5156:5161   */\n      dup2\n        /* \"#utility.yul\":5149:5170   */\n      mstore\n        /* \"#utility.yul\":5201:5205   */\n      0x20\n        /* \"#utility.yul\":5194:5199   */\n      dup2\n        /* \"#utility.yul\":5190:5206   */\n      add\n        /* \"#utility.yul\":5239:5242   */\n      dup5\n        /* \"#utility.yul\":5230:5236   */\n      dup5\n        /* \"#utility.yul\":5225:5228   */\n      dup5\n        /* \"#utility.yul\":5221:5237   */\n      add\n        /* \"#utility.yul\":5218:5243   */\n      gt\n        /* \"#utility.yul\":5215:5327   */\n      iszero\n      tag_464\n      jumpi\n        /* \"#utility.yul\":5246:5325   */\n      tag_465\n      tag_337\n      jump\t// in\n    tag_465:\n        /* \"#utility.yul\":5215:5327   */\n    tag_464:\n        /* \"#utility.yul\":5336:5390   */\n      tag_466\n        /* \"#utility.yul\":5383:5389   */\n      dup5\n        /* \"#utility.yul\":5378:5381   */\n      dup3\n        /* \"#utility.yul\":5373:5376   */\n      dup6\n        /* \"#utility.yul\":5336:5390   */\n      tag_342\n      jump\t// in\n    tag_466:\n        /* \"#utility.yul\":5055:5396   */\n      pop\n        /* \"#utility.yul\":4971:5396   */\n      swap4\n      swap3\n      pop\n      pop\n      pop\n      jump\t// out\n        /* \"#utility.yul\":5416:5756   */\n    tag_344:\n        /* \"#utility.yul\":5472:5477   */\n      0x00\n        /* \"#utility.yul\":5521:5524   */\n      dup3\n        /* \"#utility.yul\":5514:5518   */\n      0x1f\n        /* \"#utility.yul\":5506:5512   */\n      dup4\n        /* \"#utility.yul\":5502:5519   */\n      add\n        /* \"#utility.yul\":5498:5525   */\n      slt\n        /* \"#utility.yul\":5488:5610   */\n      tag_468\n      jumpi\n        /* \"#utility.yul\":5529:5608   */\n      tag_469\n      tag_336\n      jump\t// in\n    tag_469:\n        /* \"#utility.yul\":5488:5610   */\n    tag_468:\n        /* \"#utility.yul\":5646:5652   */\n      dup2\n        /* \"#utility.yul\":5633:5653   */\n      calldataload\n        /* \"#utility.yul\":5671:5750   */\n      tag_470\n        /* \"#utility.yul\":5746:5749   */\n      dup5\n        /* \"#utility.yul\":5738:5744   */\n      dup3\n        /* \"#utility.yul\":5731:5735   */\n      0x20\n        /* \"#utility.yul\":5723:5729   */\n      dup7\n        /* \"#utility.yul\":5719:5736   */\n      add\n        /* \"#utility.yul\":5671:5750   */\n      tag_343\n      jump\t// in\n    tag_470:\n        /* \"#utility.yul\":5662:5750   */\n      swap2\n      pop\n        /* \"#utility.yul\":5478:5756   */\n      pop\n        /* \"#utility.yul\":5416:5756   */\n      swap3\n      swap2\n      pop\n      pop\n      jump\t// out\n        /* \"#utility.yul\":5762:6271   */\n    tag_28:\n        /* \"#utility.yul\":5831:5837   */\n      0x00\n        /* \"#utility.yul\":5880:5882   */\n      0x20\n        /* \"#utility.yul\":5868:5877   */\n      dup3\n        /* \"#utility.yul\":5859:5866   */\n      dup5\n        /* \"#utility.yul\":5855:5878   */\n      sub\n        /* \"#utility.yul\":5851:5883   */\n      slt\n        /* \"#utility.yul\":5848:5967   */\n      iszero\n      tag_472\n      jumpi\n        /* \"#utility.yul\":5886:5965   */\n      tag_473\n      tag_321\n      jump\t// in\n    tag_473:\n        /* \"#utility.yul\":5848:5967   */\n    tag_472:\n        /* \"#utility.yul\":6034:6035   */\n      0x00\n        /* \"#utility.yul\":6023:6032   */\n      dup3\n        /* \"#utility.yul\":6019:6036   */\n      add\n        /* \"#utility.yul\":6006:6037   */\n      calldataload\n        /* \"#utility.yul\":6064:6082   */\n      0xffffffffffffffff\n        /* \"#utility.yul\":6056:6062   */\n      dup2\n        /* \"#utility.yul\":6053:6083   */\n      gt\n        /* \"#utility.yul\":6050:6167   */\n      iszero\n      tag_474\n      jumpi\n        /* \"#utility.yul\":6086:6165   */\n      tag_475\n      tag_322\n      jump\t// in\n    tag_475:\n        /* \"#utility.yul\":6050:6167   */\n    tag_474:\n        /* \"#utility.yul\":6191:6254   */\n      tag_476\n        /* \"#utility.yul\":6246:6253   */\n      dup5\n        /* \"#utility.yul\":6237:6243   */\n      dup3\n        /* \"#utility.yul\":6226:6235   */\n      dup6\n        /* \"#utility.yul\":6222:6244   */\n      add\n        /* \"#utility.yul\":6191:6254   */\n      tag_344\n      jump\t// in\n    tag_476:\n        /* \"#utility.yul\":6181:6254   */\n      swap2\n      pop\n        /* \"#utility.yul\":5977:6264   */\n      pop\n        /* \"#utility.yul\":5762:6271   */\n      swap3\n      swap2\n      pop\n      pop\n      jump\t// out\n        /* \"#utility.yul\":6277:6403   */\n    tag_345:\n        /* \"#utility.yul\":6314:6321   */\n      0x00\n        /* \"#utility.yul\":6354:6396   */\n      0xffffffffffffffffffffffffffffffffffffffff\n        /* \"#utility.yul\":6347:6352   */\n      dup3\n        /* \"#utility.yul\":6343:6397   */\n      and\n        /* \"#utility.yul\":6332:6397   */\n      swap1\n      pop\n        /* \"#utility.yul\":6277:6403   */\n      swap2\n      swap1\n      pop\n      jump\t// out\n        /* \"#utility.yul\":6409:6505   */\n    tag_346:\n        /* \"#utility.yul\":6446:6453   */\n      0x00\n        /* \"#utility.yul\":6475:6499   */\n      tag_479\n        /* \"#utility.yul\":6493:6498   */\n      dup3\n        /* \"#utility.yul\":6475:6499   */\n      tag_345\n      jump\t// in\n    tag_479:\n        /* \"#utility.yul\":6464:6499   */\n      swap1\n      pop\n        /* \"#utility.yul\":6409:6505   */\n      swap2\n      swap1\n      pop\n      jump\t// out\n        /* \"#utility.yul\":6511:6633   */\n    tag_347:\n        /* \"#utility.yul\":6584:6608   */\n      tag_481\n        /* \"#utility.yul\":6602:6607   */\n      dup2\n        /* \"#utility.yul\":6584:6608   */\n      tag_346\n      jump\t// in\n    tag_481:\n        /* \"#utility.yul\":6577:6582   */\n      dup2\n        /* \"#utility.yul\":6574:6609   */\n      eq\n        /* \"#utility.yul\":6564:6627   */\n      tag_482\n      jumpi\n        /* \"#utility.yul\":6623:6624   */\n      0x00\n        /* \"#utility.yul\":6620:6621   */\n      dup1\n        /* \"#utility.yul\":6613:6625   */\n      revert\n        /* \"#utility.yul\":6564:6627   */\n    tag_482:\n        /* \"#utility.yul\":6511:6633   */\n      pop\n      jump\t// out\n        /* \"#utility.yul\":6639:6778   */\n    tag_348:\n        /* \"#utility.yul\":6685:6690   */\n      0x00\n        /* \"#utility.yul\":6723:6729   */\n      dup2\n        /* \"#utility.yul\":6710:6730   */\n      calldataload\n        /* \"#utility.yul\":6701:6730   */\n      swap1\n      pop\n        /* \"#utility.yul\":6739:6772   */\n      tag_484\n        /* \"#utility.yul\":6766:6771   */\n      dup2\n        /* \"#utility.yul\":6739:6772   */\n      tag_347\n      jump\t// in\n    tag_484:\n        /* \"#utility.yul\":6639:6778   */\n      swap3\n      swap2\n      pop\n      pop\n      jump\t// out\n        /* \"#utility.yul\":6784:7113   */\n    tag_32:\n        /* \"#utility.yul\":6843:6849   */\n      0x00\n        /* \"#utility.yul\":6892:6894   */\n      0x20\n        /* \"#utility.yul\":6880:6889   */\n      dup3\n        /* \"#utility.yul\":6871:6878   */\n      dup5\n        /* \"#utility.yul\":6867:6890   */\n      sub\n        /* \"#utility.yul\":6863:6895   */\n      slt\n        /* \"#utility.yul\":6860:6979   */\n      iszero\n      tag_486\n      jumpi\n        /* \"#utility.yul\":6898:6977   */\n      tag_487\n      tag_321\n      jump\t// in\n    tag_487:\n        /* \"#utility.yul\":6860:6979   */\n    tag_486:\n        /* \"#utility.yul\":7018:7019   */\n      0x00\n        /* \"#utility.yul\":7043:7096   */\n      tag_488\n        /* \"#utility.yul\":7088:7095   */\n      dup5\n        /* \"#utility.yul\":7079:7085   */\n      dup3\n        /* \"#utility.yul\":7068:7077   */\n      dup6\n        /* \"#utility.yul\":7064:7086   */\n      add\n        /* \"#utility.yul\":7043:7096   */\n      tag_348\n      jump\t// in\n    tag_488:\n        /* \"#utility.yul\":7033:7096   */\n      swap2\n      pop\n        /* \"#utility.yul\":6989:7106   */\n      pop\n        /* \"#utility.yul\":6784:7113   */\n      swap3\n      swap2\n      pop\n      pop\n      jump\t// out\n        /* \"#utility.yul\":7119:7258   */\n    tag_349:\n        /* \"#utility.yul\":7211:7217   */\n      0x00\n        /* \"#utility.yul\":7245:7250   */\n      dup2\n        /* \"#utility.yul\":7239:7251   */\n      mload\n        /* \"#utility.yul\":7229:7251   */\n      swap1\n      pop\n        /* \"#utility.yul\":7119:7258   */\n      swap2\n      swap1\n      pop\n      jump\t// out\n        /* \"#utility.yul\":7264:7473   */\n    tag_350:\n        /* \"#utility.yul\":7388:7399   */\n      0x00\n        /* \"#utility.yul\":7422:7428   */\n      dup3\n        /* \"#utility.yul\":7417:7420   */\n      dup3\n        /* \"#utility.yul\":7410:7429   */\n      mstore\n        /* \"#utility.yul\":7462:7466   */\n      0x20\n        /* \"#utility.yul\":7457:7460   */\n      dup3\n        /* \"#utility.yul\":7453:7467   */\n      add\n        /* \"#utility.yul\":7438:7467   */\n      swap1\n      pop\n        /* \"#utility.yul\":7264:7473   */\n      swap3\n      swap2\n      pop\n      pop\n      jump\t// out\n        /* \"#utility.yul\":7479:7636   */\n    tag_351:\n        /* \"#utility.yul\":7571:7575   */\n      0x00\n        /* \"#utility.yul\":7594:7597   */\n      dup2\n        /* \"#utility.yul\":7586:7597   */\n      swap1\n      pop\n        /* \"#utility.yul\":7624:7628   */\n      0x20\n        /* \"#utility.yul\":7619:7622   */\n      dup3\n        /* \"#utility.yul\":7615:7629   */\n      add\n        /* \"#utility.yul\":7607:7629   */\n      swap1\n      pop\n        /* \"#utility.yul\":7479:7636   */\n      swap2\n      swap1\n      pop\n      jump\t// out\n        /* \"#utility.yul\":7642:7801   */\n    tag_352:\n        /* \"#utility.yul\":7716:7727   */\n      0x00\n        /* \"#utility.yul\":7750:7756   */\n      dup3\n        /* \"#utility.yul\":7745:7748   */\n      dup3\n        /* \"#utility.yul\":7738:7757   */\n      mstore\n        /* \"#utility.yul\":7790:7794   */\n      0x20\n        /* \"#utility.yul\":7785:7788   */\n      dup3\n        /* \"#utility.yul\":7781:7795   */\n      add\n        /* \"#utility.yul\":7766:7795   */\n      swap1\n      pop\n        /* \"#utility.yul\":7642:7801   */\n      swap3\n      swap2\n      pop\n      pop\n      jump\t// out\n        /* \"#utility.yul\":7807:8164   */\n    tag_353:\n        /* \"#utility.yul\":7885:7888   */\n      0x00\n        /* \"#utility.yul\":7913:7952   */\n      tag_494\n        /* \"#utility.yul\":7946:7951   */\n      dup3\n        /* \"#utility.yul\":7913:7952   */\n      tag_326\n      jump\t// in\n    tag_494:\n        /* \"#utility.yul\":7968:8029   */\n      tag_495\n        /* \"#utility.yul\":8022:8028   */\n      dup2\n        /* \"#utility.yul\":8017:8020   */\n      dup6\n        /* \"#utility.yul\":7968:8029   */\n      tag_352\n      jump\t// in\n    tag_495:\n        /* \"#utility.yul\":7961:8029   */\n      swap4\n      pop\n        /* \"#utility.yul\":8038:8103   */\n      tag_496\n        /* \"#utility.yul\":8096:8102   */\n      dup2\n        /* \"#utility.yul\":8091:8094   */\n      dup6\n        /* \"#utility.yul\":8084:8088   */\n      0x20\n        /* \"#utility.yul\":8077:8082   */\n      dup7\n        /* \"#utility.yul\":8073:8089   */\n      add\n        /* \"#utility.yul\":8038:8103   */\n      tag_328\n      jump\t// in\n    tag_496:\n        /* \"#utility.yul\":8128:8157   */\n      tag_497\n        /* \"#utility.yul\":8150:8156   */\n      dup2\n        /* \"#utility.yul\":8128:8157   */\n      tag_329\n      jump\t// in\n    tag_497:\n        /* \"#utility.yul\":8123:8126   */\n      dup5\n        /* \"#utility.yul\":8119:8158   */\n      add\n        /* \"#utility.yul\":8112:8158   */\n      swap2\n      pop\n        /* \"#utility.yul\":7889:8164   */\n      pop\n        /* \"#utility.yul\":7807:8164   */\n      swap3\n      swap2\n      pop\n      pop\n      jump\t// out\n        /* \"#utility.yul\":8170:8278   */\n    tag_354:\n        /* \"#utility.yul\":8247:8271   */\n      tag_499\n        /* \"#utility.yul\":8265:8270   */\n      dup2\n        /* \"#utility.yul\":8247:8271   */\n      tag_323\n      jump\t// in\n    tag_499:\n        /* \"#utility.yul\":8242:8245   */\n      dup3\n        /* \"#utility.yul\":8235:8272   */\n      mstore\n        /* \"#utility.yul\":8170:8278   */\n      pop\n      pop\n      jump\t// out\n        /* \"#utility.yul\":8340:8948   */\n    tag_355:\n        /* \"#utility.yul\":8449:8452   */\n      0x00\n        /* \"#utility.yul\":8485:8489   */\n      0x40\n        /* \"#utility.yul\":8480:8483   */\n      dup4\n        /* \"#utility.yul\":8476:8490   */\n      add\n        /* \"#utility.yul\":8579:8583   */\n      0x00\n        /* \"#utility.yul\":8572:8577   */\n      dup4\n        /* \"#utility.yul\":8568:8584   */\n      add\n        /* \"#utility.yul\":8562:8585   */\n      mload\n        /* \"#utility.yul\":8632:8635   */\n      dup5\n        /* \"#utility.yul\":8626:8630   */\n      dup3\n        /* \"#utility.yul\":8622:8636   */\n      sub\n        /* \"#utility.yul\":8615:8619   */\n      0x00\n        /* \"#utility.yul\":8610:8613   */\n      dup7\n        /* \"#utility.yul\":8606:8620   */\n      add\n        /* \"#utility.yul\":8599:8637   */\n      mstore\n        /* \"#utility.yul\":8658:8731   */\n      tag_501\n        /* \"#utility.yul\":8726:8730   */\n      dup3\n        /* \"#utility.yul\":8712:8724   */\n      dup3\n        /* \"#utility.yul\":8658:8731   */\n      tag_353\n      jump\t// in\n    tag_501:\n        /* \"#utility.yul\":8650:8731   */\n      swap2\n      pop\n        /* \"#utility.yul\":8500:8742   */\n      pop\n        /* \"#utility.yul\":8829:8833   */\n      0x20\n        /* \"#utility.yul\":8822:8827   */\n      dup4\n        /* \"#utility.yul\":8818:8834   */\n      add\n        /* \"#utility.yul\":8812:8835   */\n      mload\n        /* \"#utility.yul\":8848:8911   */\n      tag_502\n        /* \"#utility.yul\":8905:8909   */\n      0x20\n        /* \"#utility.yul\":8900:8903   */\n      dup7\n        /* \"#utility.yul\":8896:8910   */\n      add\n        /* \"#utility.yul\":8882:8894   */\n      dup3\n        /* \"#utility.yul\":8848:8911   */\n      tag_354\n      jump\t// in\n    tag_502:\n        /* \"#utility.yul\":8752:8921   */\n      pop\n        /* \"#utility.yul\":8938:8942   */\n      dup1\n        /* \"#utility.yul\":8931:8942   */\n      swap2\n      pop\n        /* \"#utility.yul\":8454:8948   */\n      pop\n        /* \"#utility.yul\":8340:8948   */\n      swap3\n      swap2\n      pop\n      pop\n      jump\t// out\n        /* \"#utility.yul\":8954:9210   */\n    tag_356:\n        /* \"#utility.yul\":9073:9083   */\n      0x00\n        /* \"#utility.yul\":9108:9204   */\n      tag_504\n        /* \"#utility.yul\":9200:9203   */\n      dup4\n        /* \"#utility.yul\":9192:9198   */\n      dup4\n        /* \"#utility.yul\":9108:9204   */\n      tag_355\n      jump\t// in\n    tag_504:\n        /* \"#utility.yul\":9094:9204   */\n      swap1\n      pop\n        /* \"#utility.yul\":8954:9210   */\n      swap3\n      swap2\n      pop\n      pop\n      jump\t// out\n        /* \"#utility.yul\":9216:9354   */\n    tag_357:\n        /* \"#utility.yul\":9311:9315   */\n      0x00\n        /* \"#utility.yul\":9343:9347   */\n      0x20\n        /* \"#utility.yul\":9338:9341   */\n      dup3\n        /* \"#utility.yul\":9334:9348   */\n      add\n        /* \"#utility.yul\":9326:9348   */\n      swap1\n      pop\n        /* \"#utility.yul\":9216:9354   */\n      swap2\n      swap1\n      pop\n      jump\t// out\n        /* \"#utility.yul\":9420:10531   */\n    tag_358:\n        /* \"#utility.yul\":9589:9592   */\n      0x00\n        /* \"#utility.yul\":9618:9697   */\n      tag_507\n        /* \"#utility.yul\":9691:9696   */\n      dup3\n        /* \"#utility.yul\":9618:9697   */\n      tag_349\n      jump\t// in\n    tag_507:\n        /* \"#utility.yul\":9713:9824   */\n      tag_508\n        /* \"#utility.yul\":9817:9823   */\n      dup2\n        /* \"#utility.yul\":9812:9815   */\n      dup6\n        /* \"#utility.yul\":9713:9824   */\n      tag_350\n      jump\t// in\n    tag_508:\n        /* \"#utility.yul\":9706:9824   */\n      swap4\n      pop\n        /* \"#utility.yul\":9850:9853   */\n      dup4\n        /* \"#utility.yul\":9895:9899   */\n      0x20\n        /* \"#utility.yul\":9887:9893   */\n      dup3\n        /* \"#utility.yul\":9883:9900   */\n      mul\n        /* \"#utility.yul\":9878:9881   */\n      dup6\n        /* \"#utility.yul\":9874:9901   */\n      add\n        /* \"#utility.yul\":9925:10006   */\n      tag_509\n        /* \"#utility.yul\":10000:10005   */\n      dup6\n        /* \"#utility.yul\":9925:10006   */\n      tag_351\n      jump\t// in\n    tag_509:\n        /* \"#utility.yul\":10029:10036   */\n      dup1\n        /* \"#utility.yul\":10060:10061   */\n      0x00\n        /* \"#utility.yul\":10045:10486   */\n    tag_510:\n        /* \"#utility.yul\":10070:10076   */\n      dup6\n        /* \"#utility.yul\":10067:10068   */\n      dup2\n        /* \"#utility.yul\":10064:10077   */\n      lt\n        /* \"#utility.yul\":10045:10486   */\n      iszero\n      tag_512\n      jumpi\n        /* \"#utility.yul\":10141:10150   */\n      dup5\n        /* \"#utility.yul\":10135:10139   */\n      dup5\n        /* \"#utility.yul\":10131:10151   */\n      sub\n        /* \"#utility.yul\":10126:10129   */\n      dup10\n        /* \"#utility.yul\":10119:10152   */\n      mstore\n        /* \"#utility.yul\":10192:10198   */\n      dup2\n        /* \"#utility.yul\":10186:10199   */\n      mload\n        /* \"#utility.yul\":10220:10334   */\n      tag_513\n        /* \"#utility.yul\":10329:10333   */\n      dup6\n        /* \"#utility.yul\":10314:10327   */\n      dup3\n        /* \"#utility.yul\":10220:10334   */\n      tag_356\n      jump\t// in\n    tag_513:\n        /* \"#utility.yul\":10212:10334   */\n      swap5\n      pop\n        /* \"#utility.yul\":10357:10442   */\n      tag_514\n        /* \"#utility.yul\":10435:10441   */\n      dup4\n        /* \"#utility.yul\":10357:10442   */\n      tag_357\n      jump\t// in\n    tag_514:\n        /* \"#utility.yul\":10347:10442   */\n      swap3\n      pop\n        /* \"#utility.yul\":10471:10475   */\n      0x20\n        /* \"#utility.yul\":10466:10469   */\n      dup11\n        /* \"#utility.yul\":10462:10476   */\n      add\n        /* \"#utility.yul\":10455:10476   */\n      swap10\n      pop\n        /* \"#utility.yul\":10105:10486   */\n      pop\n        /* \"#utility.yul\":10092:10093   */\n      0x01\n        /* \"#utility.yul\":10089:10090   */\n      dup2\n        /* \"#utility.yul\":10085:10094   */\n      add\n        /* \"#utility.yul\":10080:10094   */\n      swap1\n      pop\n        /* \"#utility.yul\":10045:10486   */\n      jump(tag_510)\n    tag_512:\n        /* \"#utility.yul\":10049:10063   */\n      pop\n        /* \"#utility.yul\":10502:10506   */\n      dup3\n        /* \"#utility.yul\":10495:10506   */\n      swap8\n      pop\n        /* \"#utility.yul\":10522:10525   */\n      dup8\n        /* \"#utility.yul\":10515:10525   */\n      swap6\n      pop\n        /* \"#utility.yul\":9594:10531   */\n      pop\n      pop\n      pop\n      pop\n      pop\n        /* \"#utility.yul\":9420:10531   */\n      swap3\n      swap2\n      pop\n      pop\n      jump\t// out\n        /* \"#utility.yul\":10537:11010   */\n    tag_37:\n        /* \"#utility.yul\":10730:10734   */\n      0x00\n        /* \"#utility.yul\":10768:10770   */\n      0x20\n        /* \"#utility.yul\":10757:10766   */\n      dup3\n        /* \"#utility.yul\":10753:10771   */\n      add\n        /* \"#utility.yul\":10745:10771   */\n      swap1\n      pop\n        /* \"#utility.yul\":10817:10826   */\n      dup2\n        /* \"#utility.yul\":10811:10815   */\n      dup2\n        /* \"#utility.yul\":10807:10827   */\n      sub\n        /* \"#utility.yul\":10803:10804   */\n      0x00\n        /* \"#utility.yul\":10792:10801   */\n      dup4\n        /* \"#utility.yul\":10788:10805   */\n      add\n        /* \"#utility.yul\":10781:10828   */\n      mstore\n        /* \"#utility.yul\":10845:11003   */\n      tag_516\n        /* \"#utility.yul\":10998:11002   */\n      dup2\n        /* \"#utility.yul\":10989:10995   */\n      dup5\n        /* \"#utility.yul\":10845:11003   */\n      tag_358\n      jump\t// in\n    tag_516:\n        /* \"#utility.yul\":10837:11003   */\n      swap1\n      pop\n        /* \"#utility.yul\":10537:11010   */\n      swap3\n      swap2\n      pop\n      pop\n      jump\t// out\n        /* \"#utility.yul\":11016:11134   */\n    tag_359:\n        /* \"#utility.yul\":11103:11127   */\n      tag_518\n        /* \"#utility.yul\":11121:11126   */\n      dup2\n        /* \"#utility.yul\":11103:11127   */\n      tag_346\n      jump\t// in\n    tag_518:\n        /* \"#utility.yul\":11098:11101   */\n      dup3\n        /* \"#utility.yul\":11091:11128   */\n      mstore\n        /* \"#utility.yul\":11016:11134   */\n      pop\n      pop\n      jump\t// out\n        /* \"#utility.yul\":11140:11362   */\n    tag_45:\n        /* \"#utility.yul\":11233:11237   */\n      0x00\n        /* \"#utility.yul\":11271:11273   */\n      0x20\n        /* \"#utility.yul\":11260:11269   */\n      dup3\n        /* \"#utility.yul\":11256:11274   */\n      add\n        /* \"#utility.yul\":11248:11274   */\n      swap1\n      pop\n        /* \"#utility.yul\":11284:11355   */\n      tag_520\n        /* \"#utility.yul\":11352:11353   */\n      0x00\n        /* \"#utility.yul\":11341:11350   */\n      dup4\n        /* \"#utility.yul\":11337:11354   */\n      add\n        /* \"#utility.yul\":11328:11334   */\n      dup5\n        /* \"#utility.yul\":11284:11355   */\n      tag_359\n      jump\t// in\n    tag_520:\n        /* \"#utility.yul\":11140:11362   */\n      swap3\n      swap2\n      pop\n      pop\n      jump\t// out\n        /* \"#utility.yul\":11368:11458   */\n    tag_360:\n        /* \"#utility.yul\":11402:11409   */\n      0x00\n        /* \"#utility.yul\":11445:11450   */\n      dup2\n        /* \"#utility.yul\":11438:11451   */\n      iszero\n        /* \"#utility.yul\":11431:11452   */\n      iszero\n        /* \"#utility.yul\":11420:11452   */\n      swap1\n      pop\n        /* \"#utility.yul\":11368:11458   */\n      swap2\n      swap1\n      pop\n      jump\t// out\n        /* \"#utility.yul\":11464:11573   */\n    tag_361:\n        /* \"#utility.yul\":11545:11566   */\n      tag_523\n        /* \"#utility.yul\":11560:11565   */\n      dup2\n        /* \"#utility.yul\":11545:11566   */\n      tag_360\n      jump\t// in\n    tag_523:\n        /* \"#utility.yul\":11540:11543   */\n      dup3\n        /* \"#utility.yul\":11533:11567   */\n      mstore\n        /* \"#utility.yul\":11464:11573   */\n      pop\n      pop\n      jump\t// out\n        /* \"#utility.yul\":11579:11997   */\n    tag_50:\n        /* \"#utility.yul\":11716:11720   */\n      0x00\n        /* \"#utility.yul\":11754:11756   */\n      0x60\n        /* \"#utility.yul\":11743:11752   */\n      dup3\n        /* \"#utility.yul\":11739:11757   */\n      add\n        /* \"#utility.yul\":11731:11757   */\n      swap1\n      pop\n        /* \"#utility.yul\":11767:11832   */\n      tag_525\n        /* \"#utility.yul\":11829:11830   */\n      0x00\n        /* \"#utility.yul\":11818:11827   */\n      dup4\n        /* \"#utility.yul\":11814:11831   */\n      add\n        /* \"#utility.yul\":11805:11811   */\n      dup7\n        /* \"#utility.yul\":11767:11832   */\n      tag_361\n      jump\t// in\n    tag_525:\n        /* \"#utility.yul\":11842:11908   */\n      tag_526\n        /* \"#utility.yul\":11904:11906   */\n      0x20\n        /* \"#utility.yul\":11893:11902   */\n      dup4\n        /* \"#utility.yul\":11889:11907   */\n      add\n        /* \"#utility.yul\":11880:11886   */\n      dup6\n        /* \"#utility.yul\":11842:11908   */\n      tag_361\n      jump\t// in\n    tag_526:\n        /* \"#utility.yul\":11918:11990   */\n      tag_527\n        /* \"#utility.yul\":11986:11988   */\n      0x40\n        /* \"#utility.yul\":11975:11984   */\n      dup4\n        /* \"#utility.yul\":11971:11989   */\n      add\n        /* \"#utility.yul\":11962:11968   */\n      dup5\n        /* \"#utility.yul\":11918:11990   */\n      tag_331\n      jump\t// in\n    tag_527:\n        /* \"#utility.yul\":11579:11997   */\n      swap5\n      swap4\n      pop\n      pop\n      pop\n      pop\n      jump\t// out\n        /* \"#utility.yul\":12003:12314   */\n    tag_362:\n        /* \"#utility.yul\":12080:12084   */\n      0x00\n        /* \"#utility.yul\":12170:12188   */\n      0xffffffffffffffff\n        /* \"#utility.yul\":12162:12168   */\n      dup3\n        /* \"#utility.yul\":12159:12189   */\n      gt\n        /* \"#utility.yul\":12156:12212   */\n      iszero\n      tag_529\n      jumpi\n        /* \"#utility.yul\":12192:12210   */\n      tag_530\n      tag_338\n      jump\t// in\n    tag_530:\n        /* \"#utility.yul\":12156:12212   */\n    tag_529:\n        /* \"#utility.yul\":12242:12246   */\n      0x20\n        /* \"#utility.yul\":12234:12240   */\n      dup3\n        /* \"#utility.yul\":12230:12247   */\n      mul\n        /* \"#utility.yul\":12222:12247   */\n      swap1\n      pop\n        /* \"#utility.yul\":12302:12306   */\n      0x20\n        /* \"#utility.yul\":12296:12300   */\n      dup2\n        /* \"#utility.yul\":12292:12307   */\n      add\n        /* \"#utility.yul\":12284:12307   */\n      swap1\n      pop\n        /* \"#utility.yul\":12003:12314   */\n      swap2\n      swap1\n      pop\n      jump\t// out\n        /* \"#utility.yul\":12320:12437   */\n    tag_363:\n        /* \"#utility.yul\":12429:12430   */\n      0x00\n        /* \"#utility.yul\":12426:12427   */\n      dup1\n        /* \"#utility.yul\":12419:12431   */\n      revert\n        /* \"#utility.yul\":12460:13170   */\n    tag_364:\n        /* \"#utility.yul\":12556:12561   */\n      0x00\n        /* \"#utility.yul\":12581:12662   */\n      tag_533\n        /* \"#utility.yul\":12597:12661   */\n      tag_534\n        /* \"#utility.yul\":12654:12660   */\n      dup5\n        /* \"#utility.yul\":12597:12661   */\n      tag_362\n      jump\t// in\n    tag_534:\n        /* \"#utility.yul\":12581:12662   */\n      tag_340\n      jump\t// in\n    tag_533:\n        /* \"#utility.yul\":12572:12662   */\n      swap1\n      pop\n        /* \"#utility.yul\":12682:12687   */\n      dup1\n        /* \"#utility.yul\":12711:12717   */\n      dup4\n        /* \"#utility.yul\":12704:12709   */\n      dup3\n        /* \"#utility.yul\":12697:12718   */\n      mstore\n        /* \"#utility.yul\":12745:12749   */\n      0x20\n        /* \"#utility.yul\":12738:12743   */\n      dup3\n        /* \"#utility.yul\":12734:12750   */\n      add\n        /* \"#utility.yul\":12727:12750   */\n      swap1\n      pop\n        /* \"#utility.yul\":12798:12802   */\n      0x20\n        /* \"#utility.yul\":12790:12796   */\n      dup5\n        /* \"#utility.yul\":12786:12803   */\n      mul\n        /* \"#utility.yul\":12778:12784   */\n      dup4\n        /* \"#utility.yul\":12774:12804   */\n      add\n        /* \"#utility.yul\":12827:12830   */\n      dup6\n        /* \"#utility.yul\":12819:12825   */\n      dup2\n        /* \"#utility.yul\":12816:12831   */\n      gt\n        /* \"#utility.yul\":12813:12935   */\n      iszero\n      tag_535\n      jumpi\n        /* \"#utility.yul\":12846:12925   */\n      tag_536\n      tag_363\n      jump\t// in\n    tag_536:\n        /* \"#utility.yul\":12813:12935   */\n    tag_535:\n        /* \"#utility.yul\":12961:12967   */\n      dup4\n        /* \"#utility.yul\":12944:13164   */\n    tag_537:\n        /* \"#utility.yul\":12978:12984   */\n      dup2\n        /* \"#utility.yul\":12973:12976   */\n      dup2\n        /* \"#utility.yul\":12970:12985   */\n      lt\n        /* \"#utility.yul\":12944:13164   */\n      iszero\n      tag_539\n      jumpi\n        /* \"#utility.yul\":13053:13056   */\n      dup1\n        /* \"#utility.yul\":13082:13119   */\n      tag_540\n        /* \"#utility.yul\":13115:13118   */\n      dup9\n        /* \"#utility.yul\":13103:13113   */\n      dup3\n        /* \"#utility.yul\":13082:13119   */\n      tag_348\n      jump\t// in\n    tag_540:\n        /* \"#utility.yul\":13077:13080   */\n      dup5\n        /* \"#utility.yul\":13070:13120   */\n      mstore\n        /* \"#utility.yul\":13149:13153   */\n      0x20\n        /* \"#utility.yul\":13144:13147   */\n      dup5\n        /* \"#utility.yul\":13140:13154   */\n      add\n        /* \"#utility.yul\":13133:13154   */\n      swap4\n      pop\n        /* \"#utility.yul\":13020:13164   */\n      pop\n        /* \"#utility.yul\":13004:13008   */\n      0x20\n        /* \"#utility.yul\":12999:13002   */\n      dup2\n        /* \"#utility.yul\":12995:13009   */\n      add\n        /* \"#utility.yul\":12988:13009   */\n      swap1\n      pop\n        /* \"#utility.yul\":12944:13164   */\n      jump(tag_537)\n    tag_539:\n        /* \"#utility.yul\":12948:12969   */\n      pop\n        /* \"#utility.yul\":12562:13170   */\n      pop\n      pop\n        /* \"#utility.yul\":12460:13170   */\n      swap4\n      swap3\n      pop\n      pop\n      pop\n      jump\t// out\n        /* \"#utility.yul\":13193:13563   */\n    tag_365:\n        /* \"#utility.yul\":13264:13269   */\n      0x00\n        /* \"#utility.yul\":13313:13316   */\n      dup3\n        /* \"#utility.yul\":13306:13310   */\n      0x1f\n        /* \"#utility.yul\":13298:13304   */\n      dup4\n        /* \"#utility.yul\":13294:13311   */\n      add\n        /* \"#utility.yul\":13290:13317   */\n      slt\n        /* \"#utility.yul\":13280:13402   */\n      tag_542\n      jumpi\n        /* \"#utility.yul\":13321:13400   */\n      tag_543\n      tag_336\n      jump\t// in\n    tag_543:\n        /* \"#utility.yul\":13280:13402   */\n    tag_542:\n        /* \"#utility.yul\":13438:13444   */\n      dup2\n        /* \"#utility.yul\":13425:13445   */\n      calldataload\n        /* \"#utility.yul\":13463:13557   */\n      tag_544\n        /* \"#utility.yul\":13553:13556   */\n      dup5\n        /* \"#utility.yul\":13545:13551   */\n      dup3\n        /* \"#utility.yul\":13538:13542   */\n      0x20\n        /* \"#utility.yul\":13530:13536   */\n      dup7\n        /* \"#utility.yul\":13526:13543   */\n      add\n        /* \"#utility.yul\":13463:13557   */\n      tag_364\n      jump\t// in\n    tag_544:\n        /* \"#utility.yul\":13454:13557   */\n      swap2\n      pop\n        /* \"#utility.yul\":13270:13563   */\n      pop\n        /* \"#utility.yul\":13193:13563   */\n      swap3\n      swap2\n      pop\n      pop\n      jump\t// out\n        /* \"#utility.yul\":13569:14108   */\n    tag_53:\n        /* \"#utility.yul\":13653:13659   */\n      0x00\n        /* \"#utility.yul\":13702:13704   */\n      0x20\n        /* \"#utility.yul\":13690:13699   */\n      dup3\n        /* \"#utility.yul\":13681:13688   */\n      dup5\n        /* \"#utility.yul\":13677:13700   */\n      sub\n        /* \"#utility.yul\":13673:13705   */\n      slt\n        /* \"#utility.yul\":13670:13789   */\n      iszero\n      tag_546\n      jumpi\n        /* \"#utility.yul\":13708:13787   */\n      tag_547\n      tag_321\n      jump\t// in\n    tag_547:\n        /* \"#utility.yul\":13670:13789   */\n    tag_546:\n        /* \"#utility.yul\":13856:13857   */\n      0x00\n        /* \"#utility.yul\":13845:13854   */\n      dup3\n        /* \"#utility.yul\":13841:13858   */\n      add\n        /* \"#utility.yul\":13828:13859   */\n      calldataload\n        /* \"#utility.yul\":13886:13904   */\n      0xffffffffffffffff\n        /* \"#utility.yul\":13878:13884   */\n      dup2\n        /* \"#utility.yul\":13875:13905   */\n      gt\n        /* \"#utility.yul\":13872:13989   */\n      iszero\n      tag_548\n      jumpi\n        /* \"#utility.yul\":13908:13987   */\n      tag_549\n      tag_322\n      jump\t// in\n    tag_549:\n        /* \"#utility.yul\":13872:13989   */\n    tag_548:\n        /* \"#utility.yul\":14013:14091   */\n      tag_550\n        /* \"#utility.yul\":14083:14090   */\n      dup5\n        /* \"#utility.yul\":14074:14080   */\n      dup3\n        /* \"#utility.yul\":14063:14072   */\n      dup6\n        /* \"#utility.yul\":14059:14081   */\n      add\n        /* \"#utility.yul\":14013:14091   */\n      tag_365\n      jump\t// in\n    tag_550:\n        /* \"#utility.yul\":14003:14091   */\n      swap2\n      pop\n        /* \"#utility.yul\":13799:14101   */\n      pop\n        /* \"#utility.yul\":13569:14108   */\n      swap3\n      swap2\n      pop\n      pop\n      jump\t// out\n        /* \"#utility.yul\":14114:14294   */\n    tag_366:\n        /* \"#utility.yul\":14162:14239   */\n      0x4e487b7100000000000000000000000000000000000000000000000000000000\n        /* \"#utility.yul\":14159:14160   */\n      0x00\n        /* \"#utility.yul\":14152:14240   */\n      mstore\n        /* \"#utility.yul\":14259:14263   */\n      0x22\n        /* \"#utility.yul\":14256:14257   */\n      0x04\n        /* \"#utility.yul\":14249:14264   */\n      mstore\n        /* \"#utility.yul\":14283:14287   */\n      0x24\n        /* \"#utility.yul\":14280:14281   */\n      0x00\n        /* \"#utility.yul\":14273:14288   */\n      revert\n        /* \"#utility.yul\":14300:14620   */\n    tag_64:\n        /* \"#utility.yul\":14344:14350   */\n      0x00\n        /* \"#utility.yul\":14381:14382   */\n      0x02\n        /* \"#utility.yul\":14375:14379   */\n      dup3\n        /* \"#utility.yul\":14371:14383   */\n      div\n        /* \"#utility.yul\":14361:14383   */\n      swap1\n      pop\n        /* \"#utility.yul\":14428:14429   */\n      0x01\n        /* \"#utility.yul\":14422:14426   */\n      dup3\n        /* \"#utility.yul\":14418:14430   */\n      and\n        /* \"#utility.yul\":14449:14467   */\n      dup1\n        /* \"#utility.yul\":14439:14520   */\n      tag_553\n      jumpi\n        /* \"#utility.yul\":14505:14509   */\n      0x7f\n        /* \"#utility.yul\":14497:14503   */\n      dup3\n        /* \"#utility.yul\":14493:14510   */\n      and\n        /* \"#utility.yul\":14483:14510   */\n      swap2\n      pop\n        /* \"#utility.yul\":14439:14520   */\n    tag_553:\n        /* \"#utility.yul\":14567:14569   */\n      0x20\n        /* \"#utility.yul\":14559:14565   */\n      dup3\n        /* \"#utility.yul\":14556:14570   */\n      lt\n        /* \"#utility.yul\":14536:14554   */\n      dup2\n        /* \"#utility.yul\":14533:14571   */\n      sub\n        /* \"#utility.yul\":14530:14614   */\n      tag_554\n      jumpi\n        /* \"#utility.yul\":14586:14604   */\n      tag_555\n      tag_366\n      jump\t// in\n    tag_555:\n        /* \"#utility.yul\":14530:14614   */\n    tag_554:\n        /* \"#utility.yul\":14351:14620   */\n      pop\n        /* \"#utility.yul\":14300:14620   */\n      swap2\n      swap1\n      pop\n      jump\t// out\n        /* \"#utility.yul\":14626:14767   */\n    tag_367:\n        /* \"#utility.yul\":14675:14679   */\n      0x00\n        /* \"#utility.yul\":14698:14701   */\n      dup2\n        /* \"#utility.yul\":14690:14701   */\n      swap1\n      pop\n        /* \"#utility.yul\":14721:14724   */\n      dup2\n        /* \"#utility.yul\":14718:14719   */\n      0x00\n        /* \"#utility.yul\":14711:14725   */\n      mstore\n        /* \"#utility.yul\":14755:14759   */\n      0x20\n        /* \"#utility.yul\":14752:14753   */\n      0x00\n        /* \"#utility.yul\":14742:14760   */\n      keccak256\n        /* \"#utility.yul\":14734:14760   */\n      swap1\n      pop\n        /* \"#utility.yul\":14626:14767   */\n      swap2\n      swap1\n      pop\n      jump\t// out\n        /* \"#utility.yul\":14773:14866   */\n    tag_368:\n        /* \"#utility.yul\":14810:14816   */\n      0x00\n        /* \"#utility.yul\":14857:14859   */\n      0x20\n        /* \"#utility.yul\":14852:14854   */\n      0x1f\n        /* \"#utility.yul\":14845:14850   */\n      dup4\n        /* \"#utility.yul\":14841:14855   */\n      add\n        /* \"#utility.yul\":14837:14860   */\n      div\n        /* \"#utility.yul\":14827:14860   */\n      swap1\n      pop\n        /* \"#utility.yul\":14773:14866   */\n      swap2\n      swap1\n      pop\n      jump\t// out\n        /* \"#utility.yul\":14872:14979   */\n    tag_369:\n        /* \"#utility.yul\":14916:14924   */\n      0x00\n        /* \"#utility.yul\":14966:14971   */\n      dup3\n        /* \"#utility.yul\":14960:14964   */\n      dup3\n        /* \"#utility.yul\":14956:14972   */\n      shl\n        /* \"#utility.yul\":14935:14972   */\n      swap1\n      pop\n        /* \"#utility.yul\":14872:14979   */\n      swap3\n      swap2\n      pop\n      pop\n      jump\t// out\n        /* \"#utility.yul\":14985:15378   */\n    tag_370:\n        /* \"#utility.yul\":15054:15060   */\n      0x00\n        /* \"#utility.yul\":15104:15105   */\n      0x08\n        /* \"#utility.yul\":15092:15102   */\n      dup4\n        /* \"#utility.yul\":15088:15106   */\n      mul\n        /* \"#utility.yul\":15127:15224   */\n      tag_560\n        /* \"#utility.yul\":15157:15223   */\n      0xffffffffffffffffffffffffffffffffffffffffffffffffffffffffffffffff\n        /* \"#utility.yul\":15146:15155   */\n      dup3\n        /* \"#utility.yul\":15127:15224   */\n      tag_369\n      jump\t// in\n    tag_560:\n        /* \"#utility.yul\":15245:15284   */\n      tag_561\n        /* \"#utility.yul\":15275:15283   */\n      dup7\n        /* \"#utility.yul\":15264:15273   */\n      dup4\n        /* \"#utility.yul\":15245:15284   */\n      tag_369\n      jump\t// in\n    tag_561:\n        /* \"#utility.yul\":15233:15284   */\n      swap6\n      pop\n        /* \"#utility.yul\":15317:15321   */\n      dup1\n        /* \"#utility.yul\":15313:15322   */\n      not\n        /* \"#utility.yul\":15306:15311   */\n      dup5\n        /* \"#utility.yul\":15302:15323   */\n      and\n        /* \"#utility.yul\":15293:15323   */\n      swap4\n      pop\n        /* \"#utility.yul\":15366:15370   */\n      dup1\n        /* \"#utility.yul\":15356:15364   */\n      dup7\n        /* \"#utility.yul\":15352:15371   */\n      and\n        /* \"#utility.yul\":15345:15350   */\n      dup5\n        /* \"#utility.yul\":15342:15372   */\n      or\n        /* \"#utility.yul\":15332:15372   */\n      swap3\n      pop\n        /* \"#utility.yul\":15061:15378   */\n      pop\n      pop\n        /* \"#utility.yul\":14985:15378   */\n      swap4\n      swap3\n      pop\n      pop\n      pop\n      jump\t// out\n        /* \"#utility.yul\":15384:15444   */\n    tag_371:\n        /* \"#utility.yul\":15412:15415   */\n      0x00\n        /* \"#utility.yul\":15433:15438   */\n      dup2\n        /* \"#utility.yul\":15426:15438   */\n      swap1\n      pop\n        /* \"#utility.yul\":15384:15444   */\n      swap2\n      swap1\n      pop\n      jump\t// out\n        /* \"#utility.yul\":15450:15592   */\n    tag_372:\n        /* \"#utility.yul\":15500:15509   */\n      0x00\n        /* \"#utility.yul\":15533:15586   */\n      tag_564\n        /* \"#utility.yul\":15551:15585   */\n      tag_565\n        /* \"#utility.yul\":15560:15584   */\n      tag_566\n        /* \"#utility.yul\":15578:15583   */\n      dup5\n        /* \"#utility.yul\":15560:15584   */\n      tag_323\n      jump\t// in\n    tag_566:\n        /* \"#utility.yul\":15551:15585   */\n      tag_371\n      jump\t// in\n    tag_565:\n        /* \"#utility.yul\":15533:15586   */\n      tag_323\n      jump\t// in\n    tag_564:\n        /* \"#utility.yul\":15520:15586   */\n      swap1\n      pop\n        /* \"#utility.yul\":15450:15592   */\n      swap2\n      swap1\n      pop\n      jump\t// out\n        /* \"#utility.yul\":15598:15673   */\n    tag_373:\n        /* \"#utility.yul\":15641:15644   */\n      0x00\n        /* \"#utility.yul\":15662:15667   */\n      dup2\n        /* \"#utility.yul\":15655:15667   */\n      swap1\n      pop\n        /* \"#utility.yul\":15598:15673   */\n      swap2\n      swap1\n      pop\n      jump\t// out\n        /* \"#utility.yul\":15679:15948   */\n    tag_374:\n        /* \"#utility.yul\":15789:15828   */\n      tag_569\n        /* \"#utility.yul\":15820:15827   */\n      dup4\n        /* \"#utility.yul\":15789:15828   */\n      tag_372\n      jump\t// in\n    tag_569:\n        /* \"#utility.yul\":15850:15941   */\n      tag_570\n        /* \"#utility.yul\":15899:15940   */\n      tag_571\n        /* \"#utility.yul\":15923:15939   */\n      dup3\n        /* \"#utility.yul\":15899:15940   */\n      tag_373\n      jump\t// in\n    tag_571:\n        /* \"#utility.yul\":15891:15897   */\n      dup5\n        /* \"#utility.yul\":15884:15888   */\n      dup5\n        /* \"#utility.yul\":15878:15889   */\n      sload\n        /* \"#utility.yul\":15850:15941   */\n      tag_370\n      jump\t// in\n    tag_570:\n        /* \"#utility.yul\":15844:15848   */\n      dup3\n        /* \"#utility.yul\":15837:15942   */\n      sstore\n        /* \"#utility.yul\":15755:15948   */\n      pop\n        /* \"#utility.yul\":15679:15948   */\n      pop\n      pop\n      pop\n      jump\t// out\n        /* \"#utility.yul\":15954:16027   */\n    tag_375:\n        /* \"#utility.yul\":15999:16002   */\n      0x00\n        /* \"#utility.yul\":15954:16027   */\n      swap1\n      jump\t// out\n        /* \"#utility.yul\":16033:16222   */\n    tag_376:\n        /* \"#utility.yul\":16110:16142   */\n      tag_574\n      tag_375\n      jump\t// in\n    tag_574:\n        /* \"#utility.yul\":16151:16216   */\n      tag_575\n        /* \"#utility.yul\":16209:16215   */\n      dup2\n        /* \"#utility.yul\":16201:16207   */\n      dup5\n        /* \"#utility.yul\":16195:16199   */\n      dup5\n        /* \"#utility.yul\":16151:16216   */\n      tag_374\n      jump\t// in\n    tag_575:\n        /* \"#utility.yul\":16086:16222   */\n      pop\n        /* \"#utility.yul\":16033:16222   */\n      pop\n      pop\n      jump\t// out\n        /* \"#utility.yul\":16228:16414   */\n    tag_377:\n        /* \"#utility.yul\":16288:16408   */\n    tag_577:\n        /* \"#utility.yul\":16305:16308   */\n      dup2\n        /* \"#utility.yul\":16298:16303   */\n      dup2\n        /* \"#utility.yul\":16295:16309   */\n      lt\n        /* \"#utility.yul\":16288:16408   */\n      iszero\n      tag_579\n      jumpi\n        /* \"#utility.yul\":16359:16398   */\n      tag_580\n        /* \"#utility.yul\":16396:16397   */\n      0x00\n        /* \"#utility.yul\":16389:16394   */\n      dup3\n        /* \"#utility.yul\":16359:16398   */\n      tag_376\n      jump\t// in\n    tag_580:\n        /* \"#utility.yul\":16332:16333   */\n      0x01\n        /* \"#utility.yul\":16325:16330   */\n      dup2\n        /* \"#utility.yul\":16321:16334   */\n      add\n        /* \"#utility.yul\":16312:16334   */\n      swap1\n      pop\n        /* \"#utility.yul\":16288:16408   */\n      jump(tag_577)\n    tag_579:\n        /* \"#utility.yul\":16228:16414   */\n      pop\n      pop\n      jump\t// out\n        /* \"#utility.yul\":16420:16963   */\n    tag_378:\n        /* \"#utility.yul\":16521:16523   */\n      0x1f\n        /* \"#utility.yul\":16516:16519   */\n      dup3\n        /* \"#utility.yul\":16513:16524   */\n      gt\n        /* \"#utility.yul\":16510:16956   */\n      iszero\n      tag_582\n      jumpi\n        /* \"#utility.yul\":16555:16593   */\n      tag_583\n        /* \"#utility.yul\":16587:16592   */\n      dup2\n        /* \"#utility.yul\":16555:16593   */\n      tag_367\n      jump\t// in\n    tag_583:\n        /* \"#utility.yul\":16639:16668   */\n      tag_584\n        /* \"#utility.yul\":16657:16667   */\n      dup5\n        /* \"#utility.yul\":16639:16668   */\n      tag_368\n      jump\t// in\n    tag_584:\n        /* \"#utility.yul\":16629:16637   */\n      dup2\n        /* \"#utility.yul\":16625:16669   */\n      add\n        /* \"#utility.yul\":16822:16824   */\n      0x20\n        /* \"#utility.yul\":16810:16820   */\n      dup6\n        /* \"#utility.yul\":16807:16825   */\n      lt\n        /* \"#utility.yul\":16804:16853   */\n      iszero\n      tag_585\n      jumpi\n        /* \"#utility.yul\":16843:16851   */\n      dup2\n        /* \"#utility.yul\":16828:16851   */\n      swap1\n      pop\n        /* \"#utility.yul\":16804:16853   */\n    tag_585:\n        /* \"#utility.yul\":16866:16946   */\n      tag_586\n        /* \"#utility.yul\":16922:16944   */\n      tag_587\n        /* \"#utility.yul\":16940:16943   */\n      dup6\n        /* \"#utility.yul\":16922:16944   */\n      tag_368\n      jump\t// in\n    tag_587:\n        /* \"#utility.yul\":16912:16920   */\n      dup4\n        /* \"#utility.yul\":16908:16945   */\n      add\n        /* \"#utility.yul\":16895:16906   */\n      dup3\n        /* \"#utility.yul\":16866:16946   */\n      tag_377\n      jump\t// in\n    tag_586:\n        /* \"#utility.yul\":16525:16956   */\n      pop\n      pop\n        /* \"#utility.yul\":16510:16956   */\n    tag_582:\n        /* \"#utility.yul\":16420:16963   */\n      pop\n      pop\n      pop\n      jump\t// out\n        /* \"#utility.yul\":16969:17086   */\n    tag_379:\n        /* \"#utility.yul\":17023:17031   */\n      0x00\n        /* \"#utility.yul\":17073:17078   */\n      dup3\n        /* \"#utility.yul\":17067:17071   */\n      dup3\n        /* \"#utility.yul\":17063:17079   */\n      shr\n        /* \"#utility.yul\":17042:17079   */\n      swap1\n      pop\n        /* \"#utility.yul\":16969:17086   */\n      swap3\n      swap2\n      pop\n      pop\n      jump\t// out\n        /* \"#utility.yul\":17092:17261   */\n    tag_380:\n        /* \"#utility.yul\":17136:17142   */\n      0x00\n        /* \"#utility.yul\":17169:17220   */\n      tag_590\n        /* \"#utility.yul\":17217:17218   */\n      0x00\n        /* \"#utility.yul\":17213:17219   */\n      not\n        /* \"#utility.yul\":17205:17210   */\n      dup5\n        /* \"#utility.yul\":17202:17203   */\n      0x08\n        /* \"#utility.yul\":17198:17211   */\n      mul\n        /* \"#utility.yul\":17169:17220   */\n      tag_379\n      jump\t// in\n    tag_590:\n        /* \"#utility.yul\":17165:17221   */\n      not\n        /* \"#utility.yul\":17250:17254   */\n      dup1\n        /* \"#utility.yul\":17244:17248   */\n      dup4\n        /* \"#utility.yul\":17240:17255   */\n      and\n        /* \"#utility.yul\":17230:17255   */\n      swap2\n      pop\n        /* \"#utility.yul\":17143:17261   */\n      pop\n        /* \"#utility.yul\":17092:17261   */\n      swap3\n      swap2\n      pop\n      pop\n      jump\t// out\n        /* \"#utility.yul\":17266:17561   */\n    tag_381:\n        /* \"#utility.yul\":17342:17346   */\n      0x00\n        /* \"#utility.yul\":17488:17517   */\n      tag_592\n        /* \"#utility.yul\":17513:17516   */\n      dup4\n        /* \"#utility.yul\":17507:17511   */\n      dup4\n        /* \"#utility.yul\":17488:17517   */\n      tag_380\n      jump\t// in\n    tag_592:\n        /* \"#utility.yul\":17480:17517   */\n      swap2\n      pop\n        /* \"#utility.yul\":17550:17553   */\n      dup3\n        /* \"#utility.yul\":17547:17548   */\n      0x02\n        /* \"#utility.yul\":17543:17554   */\n      mul\n        /* \"#utility.yul\":17537:17541   */\n      dup3\n        /* \"#utility.yul\":17534:17555   */\n      or\n        /* \"#utility.yul\":17526:17555   */\n      swap1\n      pop\n        /* \"#utility.yul\":17266:17561   */\n      swap3\n      swap2\n      pop\n      pop\n      jump\t// out\n        /* \"#utility.yul\":17566:18961   */\n    tag_78:\n        /* \"#utility.yul\":17683:17720   */\n      tag_594\n        /* \"#utility.yul\":17716:17719   */\n      dup3\n        /* \"#utility.yul\":17683:17720   */\n      tag_326\n      jump\t// in\n    tag_594:\n        /* \"#utility.yul\":17785:17803   */\n      0xffffffffffffffff\n        /* \"#utility.yul\":17777:17783   */\n      dup2\n        /* \"#utility.yul\":17774:17804   */\n      gt\n        /* \"#utility.yul\":17771:17827   */\n      iszero\n      tag_595\n      jumpi\n        /* \"#utility.yul\":17807:17825   */\n      tag_596\n      tag_338\n      jump\t// in\n    tag_596:\n        /* \"#utility.yul\":17771:17827   */\n    tag_595:\n        /* \"#utility.yul\":17851:17889   */\n      tag_597\n        /* \"#utility.yul\":17883:17887   */\n      dup3\n        /* \"#utility.yul\":17877:17888   */\n      sload\n        /* \"#utility.yul\":17851:17889   */\n      tag_64\n      jump\t// in\n    tag_597:\n        /* \"#utility.yul\":17936:18003   */\n      tag_598\n        /* \"#utility.yul\":17996:18002   */\n      dup3\n        /* \"#utility.yul\":17988:17994   */\n      dup3\n        /* \"#utility.yul\":17982:17986   */\n      dup6\n        /* \"#utility.yul\":17936:18003   */\n      tag_378\n      jump\t// in\n    tag_598:\n        /* \"#utility.yul\":18030:18031   */\n      0x00\n        /* \"#utility.yul\":18054:18058   */\n      0x20\n        /* \"#utility.yul\":18041:18058   */\n      swap1\n      pop\n        /* \"#utility.yul\":18086:18088   */\n      0x1f\n        /* \"#utility.yul\":18078:18084   */\n      dup4\n        /* \"#utility.yul\":18075:18089   */\n      gt\n        /* \"#utility.yul\":18103:18104   */\n      0x01\n        /* \"#utility.yul\":18098:18716   */\n      dup2\n      eq\n      tag_600\n      jumpi\n        /* \"#utility.yul\":18760:18761   */\n      0x00\n        /* \"#utility.yul\":18777:18783   */\n      dup5\n        /* \"#utility.yul\":18774:18851   */\n      iszero\n      tag_601\n      jumpi\n        /* \"#utility.yul\":18826:18835   */\n      dup3\n        /* \"#utility.yul\":18821:18824   */\n      dup8\n        /* \"#utility.yul\":18817:18836   */\n      add\n        /* \"#utility.yul\":18811:18837   */\n      mload\n        /* \"#utility.yul\":18802:18837   */\n      swap1\n      pop\n        /* \"#utility.yul\":18774:18851   */\n    tag_601:\n        /* \"#utility.yul\":18877:18944   */\n      tag_602\n        /* \"#utility.yul\":18937:18943   */\n      dup6\n        /* \"#utility.yul\":18930:18935   */\n      dup3\n        /* \"#utility.yul\":18877:18944   */\n      tag_381\n      jump\t// in\n    tag_602:\n        /* \"#utility.yul\":18871:18875   */\n      dup7\n        /* \"#utility.yul\":18864:18945   */\n      sstore\n        /* \"#utility.yul\":18733:18955   */\n      pop\n        /* \"#utility.yul\":18068:18955   */\n      jump(tag_599)\n        /* \"#utility.yul\":18098:18716   */\n    tag_600:\n        /* \"#utility.yul\":18150:18154   */\n      0x1f\n        /* \"#utility.yul\":18146:18155   */\n      not\n        /* \"#utility.yul\":18138:18144   */\n      dup5\n        /* \"#utility.yul\":18134:18156   */\n      and\n        /* \"#utility.yul\":18184:18221   */\n      tag_603\n        /* \"#utility.yul\":18216:18220   */\n      dup7\n        /* \"#utility.yul\":18184:18221   */\n      tag_367\n      jump\t// in\n    tag_603:\n        /* \"#utility.yul\":18243:18244   */\n      0x00\n        /* \"#utility.yul\":18257:18465   */\n    tag_604:\n        /* \"#utility.yul\":18271:18278   */\n      dup3\n        /* \"#utility.yul\":18268:18269   */\n      dup2\n        /* \"#utility.yul\":18265:18279   */\n      lt\n        /* \"#utility.yul\":18257:18465   */\n      iszero\n      tag_606\n      jumpi\n        /* \"#utility.yul\":18350:18359   */\n      dup5\n        /* \"#utility.yul\":18345:18348   */\n      dup10\n        /* \"#utility.yul\":18341:18360   */\n      add\n        /* \"#utility.yul\":18335:18361   */\n      mload\n        /* \"#utility.yul\":18327:18333   */\n      dup3\n        /* \"#utility.yul\":18320:18362   */\n      sstore\n        /* \"#utility.yul\":18401:18402   */\n      0x01\n        /* \"#utility.yul\":18393:18399   */\n      dup3\n        /* \"#utility.yul\":18389:18403   */\n      add\n        /* \"#utility.yul\":18379:18403   */\n      swap2\n      pop\n        /* \"#utility.yul\":18448:18450   */\n      0x20\n        /* \"#utility.yul\":18437:18446   */\n      dup6\n        /* \"#utility.yul\":18433:18451   */\n      add\n        /* \"#utility.yul\":18420:18451   */\n      swap5\n      pop\n        /* \"#utility.yul\":18294:18298   */\n      0x20\n        /* \"#utility.yul\":18291:18292   */\n      dup2\n        /* \"#utility.yul\":18287:18299   */\n      add\n        /* \"#utility.yul\":18282:18299   */\n      swap1\n      pop\n        /* \"#utility.yul\":18257:18465   */\n      jump(tag_604)\n    tag_606:\n        /* \"#utility.yul\":18493:18499   */\n      dup7\n        /* \"#utility.yul\":18484:18491   */\n      dup4\n        /* \"#utility.yul\":18481:18500   */\n      lt\n        /* \"#utility.yul\":18478:18657   */\n      iszero\n      tag_607\n      jumpi\n        /* \"#utility.yul\":18551:18560   */\n      dup5\n        /* \"#utility.yul\":18546:18549   */\n      dup10\n        /* \"#utility.yul\":18542:18561   */\n      add\n        /* \"#utility.yul\":18536:18562   */\n      mload\n        /* \"#utility.yul\":18594:18642   */\n      tag_608\n        /* \"#utility.yul\":18636:18640   */\n      0x1f\n        /* \"#utility.yul\":18628:18634   */\n      dup10\n        /* \"#utility.yul\":18624:18641   */\n      and\n        /* \"#utility.yul\":18613:18622   */\n      dup3\n        /* \"#utility.yul\":18594:18642   */\n      tag_380\n      jump\t// in\n    tag_608:\n        /* \"#utility.yul\":18586:18592   */\n      dup4\n        /* \"#utility.yul\":18579:18643   */\n      sstore\n        /* \"#utility.yul\":18501:18657   */\n      pop\n        /* \"#utility.yul\":18478:18657   */\n    tag_607:\n        /* \"#utility.yul\":18703:18704   */\n      0x01\n        /* \"#utility.yul\":18699:18700   */\n      0x02\n        /* \"#utility.yul\":18691:18697   */\n      dup9\n        /* \"#utility.yul\":18687:18701   */\n      mul\n        /* \"#utility.yul\":18683:18705   */\n      add\n        /* \"#utility.yul\":18677:18681   */\n      dup9\n        /* \"#utility.yul\":18670:18706   */\n      sstore\n        /* \"#utility.yul\":18105:18716   */\n      pop\n      pop\n      pop\n        /* \"#utility.yul\":18068:18955   */\n    tag_599:\n      pop\n        /* \"#utility.yul\":17658:18961   */\n      pop\n      pop\n      pop\n        /* \"#utility.yul\":17566:18961   */\n      pop\n      pop\n      jump\t// out\n        /* \"#utility.yul\":18967:19147   */\n    tag_382:\n        /* \"#utility.yul\":19015:19092   */\n      0x4e487b7100000000000000000000000000000000000000000000000000000000\n        /* \"#utility.yul\":19012:19013   */\n      0x00\n        /* \"#utility.yul\":19005:19093   */\n      mstore\n        /* \"#utility.yul\":19112:19116   */\n      0x11\n        /* \"#utility.yul\":19109:19110   */\n      0x04\n        /* \"#utility.yul\":19102:19117   */\n      mstore\n        /* \"#utility.yul\":19136:19140   */\n      0x24\n        /* \"#utility.yul\":19133:19134   */\n      0x00\n        /* \"#utility.yul\":19126:19141   */\n      revert\n        /* \"#utility.yul\":19153:19347   */\n    tag_80:\n        /* \"#utility.yul\":19193:19197   */\n      0x00\n        /* \"#utility.yul\":19213:19233   */\n      tag_611\n        /* \"#utility.yul\":19231:19232   */\n      dup3\n        /* \"#utility.yul\":19213:19233   */\n      tag_323\n      jump\t// in\n    tag_611:\n        /* \"#utility.yul\":19208:19233   */\n      swap2\n      pop\n        /* \"#utility.yul\":19247:19267   */\n      tag_612\n        /* \"#utility.yul\":19265:19266   */\n      dup4\n        /* \"#utility.yul\":19247:19267   */\n      tag_323\n      jump\t// in\n    tag_612:\n        /* \"#utility.yul\":19242:19267   */\n      swap3\n      pop\n        /* \"#utility.yul\":19291:19292   */\n      dup3\n        /* \"#utility.yul\":19288:19289   */\n      dup3\n        /* \"#utility.yul\":19284:19293   */\n      sub\n        /* \"#utility.yul\":19276:19293   */\n      swap1\n      pop\n        /* \"#utility.yul\":19315:19316   */\n      dup2\n        /* \"#utility.yul\":19309:19313   */\n      dup2\n        /* \"#utility.yul\":19306:19317   */\n      gt\n        /* \"#utility.yul\":19303:19340   */\n      iszero\n      tag_613\n      jumpi\n        /* \"#utility.yul\":19320:19338   */\n      tag_614\n      tag_382\n      jump\t// in\n    tag_614:\n        /* \"#utility.yul\":19303:19340   */\n    tag_613:\n        /* \"#utility.yul\":19153:19347   */\n      swap3\n      swap2\n      pop\n      pop\n      jump\t// out\n        /* \"#utility.yul\":19353:19575   */\n    tag_82:\n        /* \"#utility.yul\":19446:19450   */\n      0x00\n        /* \"#utility.yul\":19484:19486   */\n      0x20\n        /* \"#utility.yul\":19473:19482   */\n      dup3\n        /* \"#utility.yul\":19469:19487   */\n      add\n        /* \"#utility.yul\":19461:19487   */\n      swap1\n      pop\n        /* \"#utility.yul\":19497:19568   */\n      tag_616\n        /* \"#utility.yul\":19565:19566   */\n      0x00\n        /* \"#utility.yul\":19554:19563   */\n      dup4\n        /* \"#utility.yul\":19550:19567   */\n      add\n        /* \"#utility.yul\":19541:19547   */\n      dup5\n        /* \"#utility.yul\":19497:19568   */\n      tag_331\n      jump\t// in\n    tag_616:\n        /* \"#utility.yul\":19353:19575   */\n      swap3\n      swap2\n      pop\n      pop\n      jump\t// out\n        /* \"#utility.yul\":19581:19761   */\n    tag_111:\n        /* \"#utility.yul\":19629:19706   */\n      0x4e487b7100000000000000000000000000000000000000000000000000000000\n        /* \"#utility.yul\":19626:19627   */\n      0x00\n        /* \"#utility.yul\":19619:19707   */\n      mstore\n        /* \"#utility.yul\":19726:19730   */\n      0x32\n        /* \"#utility.yul\":19723:19724   */\n      0x04\n        /* \"#utility.yul\":19716:19731   */\n      mstore\n        /* \"#utility.yul\":19750:19754   */\n      0x24\n        /* \"#utility.yul\":19747:19748   */\n      0x00\n        /* \"#utility.yul\":19740:19755   */\n      revert\n        /* \"#utility.yul\":19767:20000   */\n    tag_118:\n        /* \"#utility.yul\":19806:19809   */\n      0x00\n        /* \"#utility.yul\":19829:19853   */\n      tag_619\n        /* \"#utility.yul\":19847:19852   */\n      dup3\n        /* \"#utility.yul\":19829:19853   */\n      tag_323\n      jump\t// in\n    tag_619:\n        /* \"#utility.yul\":19820:19853   */\n      swap2\n      pop\n        /* \"#utility.yul\":19875:19941   */\n      0xffffffffffffffffffffffffffffffffffffffffffffffffffffffffffffffff\n        /* \"#utility.yul\":19868:19873   */\n      dup3\n        /* \"#utility.yul\":19865:19942   */\n      sub\n        /* \"#utility.yul\":19862:19965   */\n      tag_620\n      jumpi\n        /* \"#utility.yul\":19945:19963   */\n      tag_621\n      tag_382\n      jump\t// in\n    tag_621:\n        /* \"#utility.yul\":19862:19965   */\n    tag_620:\n        /* \"#utility.yul\":19992:19993   */\n      0x01\n        /* \"#utility.yul\":19985:19990   */\n      dup3\n        /* \"#utility.yul\":19981:19994   */\n      add\n        /* \"#utility.yul\":19974:19994   */\n      swap1\n      pop\n        /* \"#utility.yul\":19767:20000   */\n      swap2\n      swap1\n      pop\n      jump\t// out\n        /* \"#utility.yul\":20006:20231   */\n    tag_383:\n        /* \"#utility.yul\":20146:20180   */\n      0x4f776e61626c653a206e6577206f776e657220697320746865207a65726f2061\n        /* \"#utility.yul\":20142:20143   */\n      0x00\n        /* \"#utility.yul\":20134:20140   */\n      dup3\n        /* \"#utility.yul\":20130:20144   */\n      add\n        /* \"#utility.yul\":20123:20181   */\n      mstore\n        /* \"#utility.yul\":20215:20223   */\n      0x6464726573730000000000000000000000000000000000000000000000000000\n        /* \"#utility.yul\":20210:20212   */\n      0x20\n        /* \"#utility.yul\":20202:20208   */\n      dup3\n        /* \"#utility.yul\":20198:20213   */\n      add\n        /* \"#utility.yul\":20191:20224   */\n      mstore\n        /* \"#utility.yul\":20006:20231   */\n      pop\n      jump\t// out\n        /* \"#utility.yul\":20237:20603   */\n    tag_384:\n        /* \"#utility.yul\":20379:20382   */\n      0x00\n        /* \"#utility.yul\":20400:20467   */\n      tag_624\n        /* \"#utility.yul\":20464:20466   */\n      0x26\n        /* \"#utility.yul\":20459:20462   */\n      dup4\n        /* \"#utility.yul\":20400:20467   */\n      tag_327\n      jump\t// in\n    tag_624:\n        /* \"#utility.yul\":20393:20467   */\n      swap2\n      pop\n        /* \"#utility.yul\":20476:20569   */\n      tag_625\n        /* \"#utility.yul\":20565:20568   */\n      dup3\n        /* \"#utility.yul\":20476:20569   */\n      tag_383\n      jump\t// in\n    tag_625:\n        /* \"#utility.yul\":20594:20596   */\n      0x40\n        /* \"#utility.yul\":20589:20592   */\n      dup3\n        /* \"#utility.yul\":20585:20597   */\n      add\n        /* \"#utility.yul\":20578:20597   */\n      swap1\n      pop\n        /* \"#utility.yul\":20237:20603   */\n      swap2\n      swap1\n      pop\n      jump\t// out\n        /* \"#utility.yul\":20609:21028   */\n    tag_146:\n        /* \"#utility.yul\":20775:20779   */\n      0x00\n        /* \"#utility.yul\":20813:20815   */\n      0x20\n        /* \"#utility.yul\":20802:20811   */\n      dup3\n        /* \"#utility.yul\":20798:20816   */\n      add\n        /* \"#utility.yul\":20790:20816   */\n      swap1\n      pop\n        /* \"#utility.yul\":20862:20871   */\n      dup2\n        /* \"#utility.yul\":20856:20860   */\n      dup2\n        /* \"#utility.yul\":20852:20872   */\n      sub\n        /* \"#utility.yul\":20848:20849   */\n      0x00\n        /* \"#utility.yul\":20837:20846   */\n      dup4\n        /* \"#utility.yul\":20833:20850   */\n      add\n        /* \"#utility.yul\":20826:20873   */\n      mstore\n        /* \"#utility.yul\":20890:21021   */\n      tag_627\n        /* \"#utility.yul\":21016:21020   */\n      dup2\n        /* \"#utility.yul\":20890:21021   */\n      tag_384\n      jump\t// in\n    tag_627:\n        /* \"#utility.yul\":20882:21021   */\n      swap1\n      pop\n        /* \"#utility.yul\":20609:21028   */\n      swap2\n      swap1\n      pop\n      jump\t// out\n        /* \"#utility.yul\":21034:21269   */\n    tag_385:\n        /* \"#utility.yul\":21174:21208   */\n      0x596f75206861766520616c726561647920766f7465642e204f6e6c79206f6e65\n        /* \"#utility.yul\":21170:21171   */\n      0x00\n        /* \"#utility.yul\":21162:21168   */\n      dup3\n        /* \"#utility.yul\":21158:21172   */\n      add\n        /* \"#utility.yul\":21151:21209   */\n      mstore\n        /* \"#utility.yul\":21243:21261   */\n      0x20766f746520697320616c6c6f77656400000000000000000000000000000000\n        /* \"#utility.yul\":21238:21240   */\n      0x20\n        /* \"#utility.yul\":21230:21236   */\n      dup3\n        /* \"#utility.yul\":21226:21241   */\n      add\n        /* \"#utility.yul\":21219:21262   */\n      mstore\n        /* \"#utility.yul\":21034:21269   */\n      pop\n      jump\t// out\n        /* \"#utility.yul\":21275:21641   */\n    tag_386:\n        /* \"#utility.yul\":21417:21420   */\n      0x00\n        /* \"#utility.yul\":21438:21505   */\n      tag_630\n        /* \"#utility.yul\":21502:21504   */\n      0x30\n        /* \"#utility.yul\":21497:21500   */\n      dup4\n        /* \"#utility.yul\":21438:21505   */\n      tag_327\n      jump\t// in\n    tag_630:\n        /* \"#utility.yul\":21431:21505   */\n      swap2\n      pop\n        /* \"#utility.yul\":21514:21607   */\n      tag_631\n        /* \"#utility.yul\":21603:21606   */\n      dup3\n        /* \"#utility.yul\":21514:21607   */\n      tag_385\n      jump\t// in\n    tag_631:\n        /* \"#utility.yul\":21632:21634   */\n      0x40\n        /* \"#utility.yul\":21627:21630   */\n      dup3\n        /* \"#utility.yul\":21623:21635   */\n      add\n        /* \"#utility.yul\":21616:21635   */\n      swap1\n      pop\n        /* \"#utility.yul\":21275:21641   */\n      swap2\n      swap1\n      pop\n      jump\t// out\n        /* \"#utility.yul\":21647:22066   */\n    tag_156:\n        /* \"#utility.yul\":21813:21817   */\n      0x00\n        /* \"#utility.yul\":21851:21853   */\n      0x20\n        /* \"#utility.yul\":21840:21849   */\n      dup3\n        /* \"#utility.yul\":21836:21854   */\n      add\n        /* \"#utility.yul\":21828:21854   */\n      swap1\n      pop\n        /* \"#utility.yul\":21900:21909   */\n      dup2\n        /* \"#utility.yul\":21894:21898   */\n      dup2\n        /* \"#utility.yul\":21890:21910   */\n      sub\n        /* \"#utility.yul\":21886:21887   */\n      0x00\n        /* \"#utility.yul\":21875:21884   */\n      dup4\n        /* \"#utility.yul\":21871:21888   */\n      add\n        /* \"#utility.yul\":21864:21911   */\n      mstore\n        /* \"#utility.yul\":21928:22059   */\n      tag_633\n        /* \"#utility.yul\":22054:22058   */\n      dup2\n        /* \"#utility.yul\":21928:22059   */\n      tag_386\n      jump\t// in\n    tag_633:\n        /* \"#utility.yul\":21920:22059   */\n      swap1\n      pop\n        /* \"#utility.yul\":21647:22066   */\n      swap2\n      swap1\n      pop\n      jump\t// out\n        /* \"#utility.yul\":22072:22319   */\n    tag_387:\n        /* \"#utility.yul\":22212:22246   */\n      0x50726f706f73616c20496420646f65736e27742065786973742e20506c656173\n        /* \"#utility.yul\":22208:22209   */\n      0x00\n        /* \"#utility.yul\":22200:22206   */\n      dup3\n        /* \"#utility.yul\":22196:22210   */\n      add\n        /* \"#utility.yul\":22189:22247   */\n      mstore\n        /* \"#utility.yul\":22281:22311   */\n      0x652073656c65637420612076616c69642070726f706f73616c20496400000000\n        /* \"#utility.yul\":22276:22278   */\n      0x20\n        /* \"#utility.yul\":22268:22274   */\n      dup3\n        /* \"#utility.yul\":22264:22279   */\n      add\n        /* \"#utility.yul\":22257:22312   */\n      mstore\n        /* \"#utility.yul\":22072:22319   */\n      pop\n      jump\t// out\n        /* \"#utility.yul\":22325:22691   */\n    tag_388:\n        /* \"#utility.yul\":22467:22470   */\n      0x00\n        /* \"#utility.yul\":22488:22555   */\n      tag_636\n        /* \"#utility.yul\":22552:22554   */\n      0x3c\n        /* \"#utility.yul\":22547:22550   */\n      dup4\n        /* \"#utility.yul\":22488:22555   */\n      tag_327\n      jump\t// in\n    tag_636:\n        /* \"#utility.yul\":22481:22555   */\n      swap2\n      pop\n        /* \"#utility.yul\":22564:22657   */\n      tag_637\n        /* \"#utility.yul\":22653:22656   */\n      dup3\n        /* \"#utility.yul\":22564:22657   */\n      tag_387\n      jump\t// in\n    tag_637:\n        /* \"#utility.yul\":22682:22684   */\n      0x40\n        /* \"#utility.yul\":22677:22680   */\n      dup3\n        /* \"#utility.yul\":22673:22685   */\n      add\n        /* \"#utility.yul\":22666:22685   */\n      swap1\n      pop\n        /* \"#utility.yul\":22325:22691   */\n      swap2\n      swap1\n      pop\n      jump\t// out\n        /* \"#utility.yul\":22697:23116   */\n    tag_159:\n        /* \"#utility.yul\":22863:22867   */\n      0x00\n        /* \"#utility.yul\":22901:22903   */\n      0x20\n        /* \"#utility.yul\":22890:22899   */\n      dup3\n        /* \"#utility.yul\":22886:22904   */\n      add\n        /* \"#utility.yul\":22878:22904   */\n      swap1\n      pop\n        /* \"#utility.yul\":22950:22959   */\n      dup2\n        /* \"#utility.yul\":22944:22948   */\n      dup2\n        /* \"#utility.yul\":22940:22960   */\n      sub\n        /* \"#utility.yul\":22936:22937   */\n      0x00\n        /* \"#utility.yul\":22925:22934   */\n      dup4\n        /* \"#utility.yul\":22921:22938   */\n      add\n        /* \"#utility.yul\":22914:22961   */\n      mstore\n        /* \"#utility.yul\":22978:23109   */\n      tag_639\n        /* \"#utility.yul\":23104:23108   */\n      dup2\n        /* \"#utility.yul\":22978:23109   */\n      tag_388\n      jump\t// in\n    tag_639:\n        /* \"#utility.yul\":22970:23109   */\n      swap1\n      pop\n        /* \"#utility.yul\":22697:23116   */\n      swap2\n      swap1\n      pop\n      jump\t// out\n        /* \"#utility.yul\":23122:23454   */\n    tag_165:\n        /* \"#utility.yul\":23243:23247   */\n      0x00\n        /* \"#utility.yul\":23281:23283   */\n      0x40\n        /* \"#utility.yul\":23270:23279   */\n      dup3\n        /* \"#utility.yul\":23266:23284   */\n      add\n        /* \"#utility.yul\":23258:23284   */\n      swap1\n      pop\n        /* \"#utility.yul\":23294:23365   */\n      tag_641\n        /* \"#utility.yul\":23362:23363   */\n      0x00\n        /* \"#utility.yul\":23351:23360   */\n      dup4\n        /* \"#utility.yul\":23347:23364   */\n      add\n        /* \"#utility.yul\":23338:23344   */\n      dup6\n        /* \"#utility.yul\":23294:23365   */\n      tag_359\n      jump\t// in\n    tag_641:\n        /* \"#utility.yul\":23375:23447   */\n      tag_642\n        /* \"#utility.yul\":23443:23445   */\n      0x20\n        /* \"#utility.yul\":23432:23441   */\n      dup4\n        /* \"#utility.yul\":23428:23446   */\n      add\n        /* \"#utility.yul\":23419:23425   */\n      dup5\n        /* \"#utility.yul\":23375:23447   */\n      tag_331\n      jump\t// in\n    tag_642:\n        /* \"#utility.yul\":23122:23454   */\n      swap4\n      swap3\n      pop\n      pop\n      pop\n      jump\t// out\n        /* \"#utility.yul\":23460:23704   */\n    tag_389:\n        /* \"#utility.yul\":23600:23634   */\n      0x4f6e6c792077686974656c697374656420766f74657273206172652061757468\n        /* \"#utility.yul\":23596:23597   */\n      0x00\n        /* \"#utility.yul\":23588:23594   */\n      dup3\n        /* \"#utility.yul\":23584:23598   */\n      add\n        /* \"#utility.yul\":23577:23635   */\n      mstore\n        /* \"#utility.yul\":23669:23696   */\n      0x6f72697a656420746f20646f207468697320616374696f6e2e00000000000000\n        /* \"#utility.yul\":23664:23666   */\n      0x20\n        /* \"#utility.yul\":23656:23662   */\n      dup3\n        /* \"#utility.yul\":23652:23667   */\n      add\n        /* \"#utility.yul\":23645:23697   */\n      mstore\n        /* \"#utility.yul\":23460:23704   */\n      pop\n      jump\t// out\n        /* \"#utility.yul\":23710:24076   */\n    tag_390:\n        /* \"#utility.yul\":23852:23855   */\n      0x00\n        /* \"#utility.yul\":23873:23940   */\n      tag_645\n        /* \"#utility.yul\":23937:23939   */\n      0x39\n        /* \"#utility.yul\":23932:23935   */\n      dup4\n        /* \"#utility.yul\":23873:23940   */\n      tag_327\n      jump\t// in\n    tag_645:\n        /* \"#utility.yul\":23866:23940   */\n      swap2\n      pop\n        /* \"#utility.yul\":23949:24042   */\n      tag_646\n        /* \"#utility.yul\":24038:24041   */\n      dup3\n        /* \"#utility.yul\":23949:24042   */\n      tag_389\n      jump\t// in\n    tag_646:\n        /* \"#utility.yul\":24067:24069   */\n      0x40\n        /* \"#utility.yul\":24062:24065   */\n      dup3\n        /* \"#utility.yul\":24058:24070   */\n      add\n        /* \"#utility.yul\":24051:24070   */\n      swap1\n      pop\n        /* \"#utility.yul\":23710:24076   */\n      swap2\n      swap1\n      pop\n      jump\t// out\n        /* \"#utility.yul\":24082:24501   */\n    tag_169:\n        /* \"#utility.yul\":24248:24252   */\n      0x00\n        /* \"#utility.yul\":24286:24288   */\n      0x20\n        /* \"#utility.yul\":24275:24284   */\n      dup3\n        /* \"#utility.yul\":24271:24289   */\n      add\n        /* \"#utility.yul\":24263:24289   */\n      swap1\n      pop\n        /* \"#utility.yul\":24335:24344   */\n      dup2\n        /* \"#utility.yul\":24329:24333   */\n      dup2\n        /* \"#utility.yul\":24325:24345   */\n      sub\n        /* \"#utility.yul\":24321:24322   */\n      0x00\n        /* \"#utility.yul\":24310:24319   */\n      dup4\n        /* \"#utility.yul\":24306:24323   */\n      add\n        /* \"#utility.yul\":24299:24346   */\n      mstore\n        /* \"#utility.yul\":24363:24494   */\n      tag_648\n        /* \"#utility.yul\":24489:24493   */\n      dup2\n        /* \"#utility.yul\":24363:24494   */\n      tag_390\n      jump\t// in\n    tag_648:\n        /* \"#utility.yul\":24355:24494   */\n      swap1\n      pop\n        /* \"#utility.yul\":24082:24501   */\n      swap2\n      swap1\n      pop\n      jump\t// out\n        /* \"#utility.yul\":24507:24689   */\n    tag_391:\n        /* \"#utility.yul\":24647:24681   */\n      0x50726f706f73616c20726567697374726174696f6e20697320636c6f7365642e\n        /* \"#utility.yul\":24643:24644   */\n      0x00\n        /* \"#utility.yul\":24635:24641   */\n      dup3\n        /* \"#utility.yul\":24631:24645   */\n      add\n        /* \"#utility.yul\":24624:24682   */\n      mstore\n        /* \"#utility.yul\":24507:24689   */\n      pop\n      jump\t// out\n        /* \"#utility.yul\":24695:25061   */\n    tag_392:\n        /* \"#utility.yul\":24837:24840   */\n      0x00\n        /* \"#utility.yul\":24858:24925   */\n      tag_651\n        /* \"#utility.yul\":24922:24924   */\n      0x20\n        /* \"#utility.yul\":24917:24920   */\n      dup4\n        /* \"#utility.yul\":24858:24925   */\n      tag_327\n      jump\t// in\n    tag_651:\n        /* \"#utility.yul\":24851:24925   */\n      swap2\n      pop\n        /* \"#utility.yul\":24934:25027   */\n      tag_652\n        /* \"#utility.yul\":25023:25026   */\n      dup3\n        /* \"#utility.yul\":24934:25027   */\n      tag_391\n      jump\t// in\n    tag_652:\n        /* \"#utility.yul\":25052:25054   */\n      0x20\n        /* \"#utility.yul\":25047:25050   */\n      dup3\n        /* \"#utility.yul\":25043:25055   */\n      add\n        /* \"#utility.yul\":25036:25055   */\n      swap1\n      pop\n        /* \"#utility.yul\":24695:25061   */\n      swap2\n      swap1\n      pop\n      jump\t// out\n        /* \"#utility.yul\":25067:25486   */\n    tag_178:\n        /* \"#utility.yul\":25233:25237   */\n      0x00\n        /* \"#utility.yul\":25271:25273   */\n      0x20\n        /* \"#utility.yul\":25260:25269   */\n      dup3\n        /* \"#utility.yul\":25256:25274   */\n      add\n        /* \"#utility.yul\":25248:25274   */\n      swap1\n      pop\n        /* \"#utility.yul\":25320:25329   */\n      dup2\n        /* \"#utility.yul\":25314:25318   */\n      dup2\n        /* \"#utility.yul\":25310:25330   */\n      sub\n        /* \"#utility.yul\":25306:25307   */\n      0x00\n        /* \"#utility.yul\":25295:25304   */\n      dup4\n        /* \"#utility.yul\":25291:25308   */\n      add\n        /* \"#utility.yul\":25284:25331   */\n      mstore\n        /* \"#utility.yul\":25348:25479   */\n      tag_654\n        /* \"#utility.yul\":25474:25478   */\n      dup2\n        /* \"#utility.yul\":25348:25479   */\n      tag_392\n      jump\t// in\n    tag_654:\n        /* \"#utility.yul\":25340:25479   */\n      swap1\n      pop\n        /* \"#utility.yul\":25067:25486   */\n      swap2\n      swap1\n      pop\n      jump\t// out\n        /* \"#utility.yul\":25492:25674   */\n    tag_393:\n        /* \"#utility.yul\":25632:25666   */\n      0x4f776e61626c653a2063616c6c6572206973206e6f7420746865206f776e6572\n        /* \"#utility.yul\":25628:25629   */\n      0x00\n        /* \"#utility.yul\":25620:25626   */\n      dup3\n        /* \"#utility.yul\":25616:25630   */\n      add\n        /* \"#utility.yul\":25609:25667   */\n      mstore\n        /* \"#utility.yul\":25492:25674   */\n      pop\n      jump\t// out\n        /* \"#utility.yul\":25680:26046   */\n    tag_394:\n        /* \"#utility.yul\":25822:25825   */\n      0x00\n        /* \"#utility.yul\":25843:25910   */\n      tag_657\n        /* \"#utility.yul\":25907:25909   */\n      0x20\n        /* \"#utility.yul\":25902:25905   */\n      dup4\n        /* \"#utility.yul\":25843:25910   */\n      tag_327\n      jump\t// in\n    tag_657:\n        /* \"#utility.yul\":25836:25910   */\n      swap2\n      pop\n        /* \"#utility.yul\":25919:26012   */\n      tag_658\n        /* \"#utility.yul\":26008:26011   */\n      dup3\n        /* \"#utility.yul\":25919:26012   */\n      tag_393\n      jump\t// in\n    tag_658:\n        /* \"#utility.yul\":26037:26039   */\n      0x20\n        /* \"#utility.yul\":26032:26035   */\n      dup3\n        /* \"#utility.yul\":26028:26040   */\n      add\n        /* \"#utility.yul\":26021:26040   */\n      swap1\n      pop\n        /* \"#utility.yul\":25680:26046   */\n      swap2\n      swap1\n      pop\n      jump\t// out\n        /* \"#utility.yul\":26052:26471   */\n    tag_185:\n        /* \"#utility.yul\":26218:26222   */\n      0x00\n        /* \"#utility.yul\":26256:26258   */\n      0x20\n        /* \"#utility.yul\":26245:26254   */\n      dup3\n        /* \"#utility.yul\":26241:26259   */\n      add\n        /* \"#utility.yul\":26233:26259   */\n      swap1\n      pop\n        /* \"#utility.yul\":26305:26314   */\n      dup2\n        /* \"#utility.yul\":26299:26303   */\n      dup2\n        /* \"#utility.yul\":26295:26315   */\n      sub\n        /* \"#utility.yul\":26291:26292   */\n      0x00\n        /* \"#utility.yul\":26280:26289   */\n      dup4\n        /* \"#utility.yul\":26276:26293   */\n      add\n        /* \"#utility.yul\":26269:26316   */\n      mstore\n        /* \"#utility.yul\":26333:26464   */\n      tag_660\n        /* \"#utility.yul\":26459:26463   */\n      dup2\n        /* \"#utility.yul\":26333:26464   */\n      tag_394\n      jump\t// in\n    tag_660:\n        /* \"#utility.yul\":26325:26464   */\n      swap1\n      pop\n        /* \"#utility.yul\":26052:26471   */\n      swap2\n      swap1\n      pop\n      jump\t// out\n        /* \"#utility.yul\":26477:26704   */\n    tag_395:\n        /* \"#utility.yul\":26617:26651   */\n      0x526567697374726174696f6e20706572696f6420666f7220766f746572206973\n        /* \"#utility.yul\":26613:26614   */\n      0x00\n        /* \"#utility.yul\":26605:26611   */\n      dup3\n        /* \"#utility.yul\":26601:26615   */\n      add\n        /* \"#utility.yul\":26594:26652   */\n      mstore\n        /* \"#utility.yul\":26686:26696   */\n      0x20636c6f7365642e000000000000000000000000000000000000000000000000\n        /* \"#utility.yul\":26681:26683   */\n      0x20\n        /* \"#utility.yul\":26673:26679   */\n      dup3\n        /* \"#utility.yul\":26669:26684   */\n      add\n        /* \"#utility.yul\":26662:26697   */\n      mstore\n        /* \"#utility.yul\":26477:26704   */\n      pop\n      jump\t// out\n        /* \"#utility.yul\":26710:27076   */\n    tag_396:\n        /* \"#utility.yul\":26852:26855   */\n      0x00\n        /* \"#utility.yul\":26873:26940   */\n      tag_663\n        /* \"#utility.yul\":26937:26939   */\n      0x28\n        /* \"#utility.yul\":26932:26935   */\n      dup4\n        /* \"#utility.yul\":26873:26940   */\n      tag_327\n      jump\t// in\n    tag_663:\n        /* \"#utility.yul\":26866:26940   */\n      swap2\n      pop\n        /* \"#utility.yul\":26949:27042   */\n      tag_664\n        /* \"#utility.yul\":27038:27041   */\n      dup3\n        /* \"#utility.yul\":26949:27042   */\n      tag_395\n      jump\t// in\n    tag_664:\n        /* \"#utility.yul\":27067:27069   */\n      0x40\n        /* \"#utility.yul\":27062:27065   */\n      dup3\n        /* \"#utility.yul\":27058:27070   */\n      add\n        /* \"#utility.yul\":27051:27070   */\n      swap1\n      pop\n        /* \"#utility.yul\":26710:27076   */\n      swap2\n      swap1\n      pop\n      jump\t// out\n        /* \"#utility.yul\":27082:27501   */\n    tag_193:\n        /* \"#utility.yul\":27248:27252   */\n      0x00\n        /* \"#utility.yul\":27286:27288   */\n      0x20\n        /* \"#utility.yul\":27275:27284   */\n      dup3\n        /* \"#utility.yul\":27271:27289   */\n      add\n        /* \"#utility.yul\":27263:27289   */\n      swap1\n      pop\n        /* \"#utility.yul\":27335:27344   */\n      dup2\n        /* \"#utility.yul\":27329:27333   */\n      dup2\n        /* \"#utility.yul\":27325:27345   */\n      sub\n        /* \"#utility.yul\":27321:27322   */\n      0x00\n        /* \"#utility.yul\":27310:27319   */\n      dup4\n        /* \"#utility.yul\":27306:27323   */\n      add\n        /* \"#utility.yul\":27299:27346   */\n      mstore\n        /* \"#utility.yul\":27363:27494   */\n      tag_666\n        /* \"#utility.yul\":27489:27493   */\n      dup2\n        /* \"#utility.yul\":27363:27494   */\n      tag_396\n      jump\t// in\n    tag_666:\n        /* \"#utility.yul\":27355:27494   */\n      swap1\n      pop\n        /* \"#utility.yul\":27082:27501   */\n      swap2\n      swap1\n      pop\n      jump\t// out\n        /* \"#utility.yul\":27507:27678   */\n    tag_397:\n        /* \"#utility.yul\":27647:27670   */\n      0x566f74696e67206973206e6f7420636c6f7365642e0000000000000000000000\n        /* \"#utility.yul\":27643:27644   */\n      0x00\n        /* \"#utility.yul\":27635:27641   */\n      dup3\n        /* \"#utility.yul\":27631:27645   */\n      add\n        /* \"#utility.yul\":27624:27671   */\n      mstore\n        /* \"#utility.yul\":27507:27678   */\n      pop\n      jump\t// out\n        /* \"#utility.yul\":27684:28050   */\n    tag_398:\n        /* \"#utility.yul\":27826:27829   */\n      0x00\n        /* \"#utility.yul\":27847:27914   */\n      tag_669\n        /* \"#utility.yul\":27911:27913   */\n      0x15\n        /* \"#utility.yul\":27906:27909   */\n      dup4\n        /* \"#utility.yul\":27847:27914   */\n      tag_327\n      jump\t// in\n    tag_669:\n        /* \"#utility.yul\":27840:27914   */\n      swap2\n      pop\n        /* \"#utility.yul\":27923:28016   */\n      tag_670\n        /* \"#utility.yul\":28012:28015   */\n      dup3\n        /* \"#utility.yul\":27923:28016   */\n      tag_397\n      jump\t// in\n    tag_670:\n        /* \"#utility.yul\":28041:28043   */\n      0x20\n        /* \"#utility.yul\":28036:28039   */\n      dup3\n        /* \"#utility.yul\":28032:28044   */\n      add\n        /* \"#utility.yul\":28025:28044   */\n      swap1\n      pop\n        /* \"#utility.yul\":27684:28050   */\n      swap2\n      swap1\n      pop\n      jump\t// out\n        /* \"#utility.yul\":28056:28475   */\n    tag_201:\n        /* \"#utility.yul\":28222:28226   */\n      0x00\n        /* \"#utility.yul\":28260:28262   */\n      0x20\n        /* \"#utility.yul\":28249:28258   */\n      dup3\n        /* \"#utility.yul\":28245:28263   */\n      add\n        /* \"#utility.yul\":28237:28263   */\n      swap1\n      pop\n        /* \"#utility.yul\":28309:28318   */\n      dup2\n        /* \"#utility.yul\":28303:28307   */\n      dup2\n        /* \"#utility.yul\":28299:28319   */\n      sub\n        /* \"#utility.yul\":28295:28296   */\n      0x00\n        /* \"#utility.yul\":28284:28293   */\n      dup4\n        /* \"#utility.yul\":28280:28297   */\n      add\n        /* \"#utility.yul\":28273:28320   */\n      mstore\n        /* \"#utility.yul\":28337:28468   */\n      tag_672\n        /* \"#utility.yul\":28463:28467   */\n      dup2\n        /* \"#utility.yul\":28337:28468   */\n      tag_398\n      jump\t// in\n    tag_672:\n        /* \"#utility.yul\":28329:28468   */\n      swap1\n      pop\n        /* \"#utility.yul\":28056:28475   */\n      swap2\n      swap1\n      pop\n      jump\t// out\n        /* \"#utility.yul\":28481:28877   */\n    tag_211:\n        /* \"#utility.yul\":28634:28638   */\n      0x00\n        /* \"#utility.yul\":28672:28674   */\n      0x40\n        /* \"#utility.yul\":28661:28670   */\n      dup3\n        /* \"#utility.yul\":28657:28675   */\n      add\n        /* \"#utility.yul\":28649:28675   */\n      swap1\n      pop\n        /* \"#utility.yul\":28685:28772   */\n      tag_674\n        /* \"#utility.yul\":28769:28770   */\n      0x00\n        /* \"#utility.yul\":28758:28767   */\n      dup4\n        /* \"#utility.yul\":28754:28771   */\n      add\n        /* \"#utility.yul\":28745:28751   */\n      dup6\n        /* \"#utility.yul\":28685:28772   */\n      tag_335\n      jump\t// in\n    tag_674:\n        /* \"#utility.yul\":28782:28870   */\n      tag_675\n        /* \"#utility.yul\":28866:28868   */\n      0x20\n        /* \"#utility.yul\":28855:28864   */\n      dup4\n        /* \"#utility.yul\":28851:28869   */\n      add\n        /* \"#utility.yul\":28842:28848   */\n      dup5\n        /* \"#utility.yul\":28782:28870   */\n      tag_335\n      jump\t// in\n    tag_675:\n        /* \"#utility.yul\":28481:28877   */\n      swap4\n      swap3\n      pop\n      pop\n      pop\n      jump\t// out\n        /* \"#utility.yul\":28883:29058   */\n    tag_399:\n        /* \"#utility.yul\":29023:29050   */\n      0x566f74696e672073657373696f6e20697320636c6f7365642e00000000000000\n        /* \"#utility.yul\":29019:29020   */\n      0x00\n        /* \"#utility.yul\":29011:29017   */\n      dup3\n        /* \"#utility.yul\":29007:29021   */\n      add\n        /* \"#utility.yul\":29000:29051   */\n      mstore\n        /* \"#utility.yul\":28883:29058   */\n      pop\n      jump\t// out\n        /* \"#utility.yul\":29064:29430   */\n    tag_400:\n        /* \"#utility.yul\":29206:29209   */\n      0x00\n        /* \"#utility.yul\":29227:29294   */\n      tag_678\n        /* \"#utility.yul\":29291:29293   */\n      0x19\n        /* \"#utility.yul\":29286:29289   */\n      dup4\n        /* \"#utility.yul\":29227:29294   */\n      tag_327\n      jump\t// in\n    tag_678:\n        /* \"#utility.yul\":29220:29294   */\n      swap2\n      pop\n        /* \"#utility.yul\":29303:29396   */\n      tag_679\n        /* \"#utility.yul\":29392:29395   */\n      dup3\n        /* \"#utility.yul\":29303:29396   */\n      tag_399\n      jump\t// in\n    tag_679:\n        /* \"#utility.yul\":29421:29423   */\n      0x20\n        /* \"#utility.yul\":29416:29419   */\n      dup3\n        /* \"#utility.yul\":29412:29424   */\n      add\n        /* \"#utility.yul\":29405:29424   */\n      swap1\n      pop\n        /* \"#utility.yul\":29064:29430   */\n      swap2\n      swap1\n      pop\n      jump\t// out\n        /* \"#utility.yul\":29436:29855   */\n    tag_220:\n        /* \"#utility.yul\":29602:29606   */\n      0x00\n        /* \"#utility.yul\":29640:29642   */\n      0x20\n        /* \"#utility.yul\":29629:29638   */\n      dup3\n        /* \"#utility.yul\":29625:29643   */\n      add\n        /* \"#utility.yul\":29617:29643   */\n      swap1\n      pop\n        /* \"#utility.yul\":29689:29698   */\n      dup2\n        /* \"#utility.yul\":29683:29687   */\n      dup2\n        /* \"#utility.yul\":29679:29699   */\n      sub\n        /* \"#utility.yul\":29675:29676   */\n      0x00\n        /* \"#utility.yul\":29664:29673   */\n      dup4\n        /* \"#utility.yul\":29660:29677   */\n      add\n        /* \"#utility.yul\":29653:29700   */\n      mstore\n        /* \"#utility.yul\":29717:29848   */\n      tag_681\n        /* \"#utility.yul\":29843:29847   */\n      dup2\n        /* \"#utility.yul\":29717:29848   */\n      tag_400\n      jump\t// in\n    tag_681:\n        /* \"#utility.yul\":29709:29848   */\n      swap1\n      pop\n        /* \"#utility.yul\":29436:29855   */\n      swap2\n      swap1\n      pop\n      jump\t// out\n        /* \"#utility.yul\":29861:30167   */\n    tag_401:\n        /* \"#utility.yul\":30001:30035   */\n      0x41637475616c20737461747573206973206e6f7420636f6d70617469626c6520\n        /* \"#utility.yul\":29997:29998   */\n      0x00\n        /* \"#utility.yul\":29989:29995   */\n      dup3\n        /* \"#utility.yul\":29985:29999   */\n      add\n        /* \"#utility.yul\":29978:30036   */\n      mstore\n        /* \"#utility.yul\":30070:30104   */\n      0x7769746820796f75722063686f696365202863686f6f73652070726576696f75\n        /* \"#utility.yul\":30065:30067   */\n      0x20\n        /* \"#utility.yul\":30057:30063   */\n      dup3\n        /* \"#utility.yul\":30053:30068   */\n      add\n        /* \"#utility.yul\":30046:30105   */\n      mstore\n        /* \"#utility.yul\":30139:30159   */\n      0x73206f6e65206f72206e657874206f6e65290000000000000000000000000000\n        /* \"#utility.yul\":30134:30136   */\n      0x40\n        /* \"#utility.yul\":30126:30132   */\n      dup3\n        /* \"#utility.yul\":30122:30137   */\n      add\n        /* \"#utility.yul\":30115:30160   */\n      mstore\n        /* \"#utility.yul\":29861:30167   */\n      pop\n      jump\t// out\n        /* \"#utility.yul\":30173:30539   */\n    tag_402:\n        /* \"#utility.yul\":30315:30318   */\n      0x00\n        /* \"#utility.yul\":30336:30403   */\n      tag_684\n        /* \"#utility.yul\":30400:30402   */\n      0x52\n        /* \"#utility.yul\":30395:30398   */\n      dup4\n        /* \"#utility.yul\":30336:30403   */\n      tag_327\n      jump\t// in\n    tag_684:\n        /* \"#utility.yul\":30329:30403   */\n      swap2\n      pop\n        /* \"#utility.yul\":30412:30505   */\n      tag_685\n        /* \"#utility.yul\":30501:30504   */\n      dup3\n        /* \"#utility.yul\":30412:30505   */\n      tag_401\n      jump\t// in\n    tag_685:\n        /* \"#utility.yul\":30530:30532   */\n      0x60\n        /* \"#utility.yul\":30525:30528   */\n      dup3\n        /* \"#utility.yul\":30521:30533   */\n      add\n        /* \"#utility.yul\":30514:30533   */\n      swap1\n      pop\n        /* \"#utility.yul\":30173:30539   */\n      swap2\n      swap1\n      pop\n      jump\t// out\n        /* \"#utility.yul\":30545:30964   */\n    tag_239:\n        /* \"#utility.yul\":30711:30715   */\n      0x00\n        /* \"#utility.yul\":30749:30751   */\n      0x20\n        /* \"#utility.yul\":30738:30747   */\n      dup3\n        /* \"#utility.yul\":30734:30752   */\n      add\n        /* \"#utility.yul\":30726:30752   */\n      swap1\n      pop\n        /* \"#utility.yul\":30798:30807   */\n      dup2\n        /* \"#utility.yul\":30792:30796   */\n      dup2\n        /* \"#utility.yul\":30788:30808   */\n      sub\n        /* \"#utility.yul\":30784:30785   */\n      0x00\n        /* \"#utility.yul\":30773:30782   */\n      dup4\n        /* \"#utility.yul\":30769:30786   */\n      add\n        /* \"#utility.yul\":30762:30809   */\n      mstore\n        /* \"#utility.yul\":30826:30957   */\n      tag_687\n        /* \"#utility.yul\":30952:30956   */\n      dup2\n        /* \"#utility.yul\":30826:30957   */\n      tag_402\n      jump\t// in\n    tag_687:\n        /* \"#utility.yul\":30818:30957   */\n      swap1\n      pop\n        /* \"#utility.yul\":30545:30964   */\n      swap2\n      swap1\n      pop\n      jump\t// out\n\n    auxdata: 0xa2646970667358221220de4c0161cad595f6bd4e857d1219f2d1d4e8ae643c1942b0ad4177c3eb105c0364736f6c63430008120033\n}\n",
				"bytecode": {
					"linkReferences": {},
					"object": "608060405234801561001057600080fd5b5061002d61002261003260201b60201c565b61003a60201b60201c565b6100fe565b600033905090565b60008060009054906101000a900473ffffffffffffffffffffffffffffffffffffffff169050816000806101000a81548173ffffffffffffffffffffffffffffffffffffffff021916908373ffffffffffffffffffffffffffffffffffffffff1602179055508173ffffffffffffffffffffffffffffffffffffffff168173ffffffffffffffffffffffffffffffffffffffff167f8be0079c531659141344cd1fd0a4f28419497f9722a3daafe3b4186f6b6457e060405160405180910390a35050565b6123e2806200010e6000396000f3fe608060405234801561001057600080fd5b50600436106100b45760003560e01c8063715018a611610071578063715018a6146101685780638da5cb5b146101725780639b19251a14610190578063d55ec9c1146101c2578063f2fde38b146101de578063fd4a77f1146101fa576100b4565b8063013cf08b146100b9578063200d2ed2146100ea5780632f95355b1461010857806338db6dd31461012457806362564c48146101405780636a00600c1461015e575b600080fd5b6100d360048036038101906100ce91906113a7565b610216565b6040516100e1929190611473565b60405180910390f35b6100f26102d2565b6040516100ff919061151a565b60405180910390f35b610122600480360381019061011d919061166a565b6102e5565b005b61013e60048036038101906101399190611711565b6103a3565b005b610148610447565b6040516101559190611896565b60405180910390f35b610166610542565b005b6101706105ea565b005b61017a6105fe565b60405161018791906118c7565b60405180910390f35b6101aa60048036038101906101a59190611711565b610627565b6040516101b9939291906118fd565b60405180910390f35b6101dc60048036038101906101d791906119fc565b61066b565b005b6101f860048036038101906101f39190611711565b610763565b005b610214600480360381019061020f91906113a7565b6107e6565b005b6002818154811061022657600080fd5b906000526020600020906002020160009150905080600001805461024990611a74565b80601f016020809104026020016040519081016040528092919081815260200182805461027590611a74565b80156102c25780601f10610297576101008083540402835291602001916102c2565b820191906000526020600020905b8154815290600101906020018083116102a557829003601f168201915b5050505050908060010154905082565b600360009054906101000a900460ff1681565b6102ed6109eb565b6102f5610a83565b6002604051806040016040528083815260200160008152509080600181540180825580915050600190039060005260206000209060020201600090919091909150600082015181600001908161034b9190611c51565b506020820151816001015550507f92e393e9b54e2f801d3ea4beb0c5e71a21cc34a5d34b77d0fb8a3aa1650dc18f600160028054905061038b9190611d52565b6040516103989190611d86565b60405180910390a150565b6103ab610afb565b6103b3610b79565b60018060008373ffffffffffffffffffffffffffffffffffffffff1673ffffffffffffffffffffffffffffffffffffffff16815260200190815260200160002060000160006101000a81548160ff0219169083151502179055507fb6be2187d059cc2a55fe29e0e503b566e1e0f8c8780096e185429350acffd3dd8160405161043c91906118c7565b60405180910390a150565b60606002805480602002602001604051908101604052809291908181526020016000905b82821015610539578382906000526020600020906002020160405180604001604052908160008201805461049e90611a74565b80601f01602080910402602001604051908101604052809291908181526020018280546104ca90611a74565b80156105175780601f106104ec57610100808354040283529160200191610517565b820191906000526020600020905b8154815290600101906020018083116104fa57829003601f168201915b505050505081526020016001820154815250508152602001906001019061046b565b50505050905090565b61054a610afb565b610552610bf1565b60008080600090505b6002805490508110156105d457826002828154811061057d5761057c611da1565b5b90600052602060002090600202016001015411156105c157600281815481106105a9576105a8611da1565b5b90600052602060002090600202016001015492508091505b80806105cc90611dd0565b91505061055b565b50806004819055506105e66005610c69565b5050565b6105f2610afb565b6105fc6000610cf7565b565b60008060009054906101000a900473ffffffffffffffffffffffffffffffffffffffff16905090565b60016020528060005260406000206000915090508060000160009054906101000a900460ff16908060000160019054906101000a900460ff16908060010154905083565b610673610afb565b61067b610b79565b60005b815181101561075f57600180600084848151811061069f5761069e611da1565b5b602002602001015173ffffffffffffffffffffffffffffffffffffffff1673ffffffffffffffffffffffffffffffffffffffff16815260200190815260200160002060000160006101000a81548160ff0219169083151502179055507fb6be2187d059cc2a55fe29e0e503b566e1e0f8c8780096e185429350acffd3dd82828151811061072f5761072e611da1565b5b602002602001015160405161074491906118c7565b60405180910390a1808061075790611dd0565b91505061067e565b5050565b61076b610afb565b600073ffffffffffffffffffffffffffffffffffffffff168173ffffffffffffffffffffffffffffffffffffffff16036107da576040517f08c379a00000000000000000000000000000000000000000000000000000000081526004016107d190611e8a565b60405180910390fd5b6107e381610cf7565b50565b6107ee610dbb565b6107f66109eb565b60001515600160003373ffffffffffffffffffffffffffffffffffffffff1673ffffffffffffffffffffffffffffffffffffffff16815260200190815260200160002060000160019054906101000a900460ff1615151461088c576040517f08c379a000000000000000000000000000000000000000000000000000000000815260040161088390611f1c565b60405180910390fd5b60028054905081106108d3576040517f08c379a00000000000000000000000000000000000000000000000000000000081526004016108ca90611fae565b60405180910390fd5b600281815481106108e7576108e6611da1565b5b9060005260206000209060020201600101600081548092919061090990611dd0565b919050555080600160003373ffffffffffffffffffffffffffffffffffffffff1673ffffffffffffffffffffffffffffffffffffffff1681526020019081526020016000206001018190555060018060003373ffffffffffffffffffffffffffffffffffffffff1673ffffffffffffffffffffffffffffffffffffffff16815260200190815260200160002060000160016101000a81548160ff0219169083151502179055507f4d99b957a2bc29a30ebd96a7be8e68fe50a3c701db28a91436490b7d53870ca433826040516109e0929190611fce565b60405180910390a150565b60011515600160003373ffffffffffffffffffffffffffffffffffffffff1673ffffffffffffffffffffffffffffffffffffffff16815260200190815260200160002060000160009054906101000a900460ff16151514610a81576040517f08c379a0000000000000000000000000000000000000000000000000000000008152600401610a7890612069565b60405180910390fd5b565b60016005811115610a9757610a966114a3565b5b600360009054906101000a900460ff166005811115610ab957610ab86114a3565b5b14610af9576040517f08c379a0000000000000000000000000000000000000000000000000000000008152600401610af0906120d5565b60405180910390fd5b565b610b03610e33565b73ffffffffffffffffffffffffffffffffffffffff16610b216105fe565b73ffffffffffffffffffffffffffffffffffffffff1614610b77576040517f08c379a0000000000000000000000000000000000000000000000000000000008152600401610b6e90612141565b60405180910390fd5b565b60006005811115610b8d57610b8c6114a3565b5b600360009054906101000a900460ff166005811115610baf57610bae6114a3565b5b14610bef576040517f08c379a0000000000000000000000000000000000000000000000000000000008152600401610be6906121d3565b60405180910390fd5b565b60046005811115610c0557610c046114a3565b5b600360009054906101000a900460ff166005811115610c2757610c266114a3565b5b14610c67576040517f08c379a0000000000000000000000000000000000000000000000000000000008152600401610c5e9061223f565b60405180910390fd5b565b610c71610afb565b80610c7b81610e3b565b6000600360009054906101000a900460ff16905082600360006101000a81548160ff02191690836005811115610cb457610cb36114a3565b5b02179055507f0a97a4ee45751e2abf3e4fc8946939630b11b371ea8ae39ccdc3056e98f5cc3f8184604051610cea92919061225f565b60405180910390a1505050565b60008060009054906101000a900473ffffffffffffffffffffffffffffffffffffffff169050816000806101000a81548173ffffffffffffffffffffffffffffffffffffffff021916908373ffffffffffffffffffffffffffffffffffffffff1602179055508173ffffffffffffffffffffffffffffffffffffffff168173ffffffffffffffffffffffffffffffffffffffff167f8be0079c531659141344cd1fd0a4f28419497f9722a3daafe3b4186f6b6457e060405160405180910390a35050565b60036005811115610dcf57610dce6114a3565b5b600360009054906101000a900460ff166005811115610df157610df06114a3565b5b14610e31576040517f08c379a0000000000000000000000000000000000000000000000000000000008152600401610e28906122d4565b60405180910390fd5b565b600033905090565b60006005811115610e4f57610e4e6114a3565b5b816005811115610e6257610e616114a3565b5b03610f205760006005811115610e7b57610e7a6114a3565b5b600360009054906101000a900460ff166005811115610e9d57610e9c6114a3565b5b1480610edc575060016005811115610eb857610eb76114a3565b5b600360009054906101000a900460ff166005811115610eda57610ed96114a3565b5b145b610f1b576040517f08c379a0000000000000000000000000000000000000000000000000000000008152600401610f129061238c565b60405180910390fd5b61135a565b60016005811115610f3457610f336114a3565b5b816005811115610f4757610f466114a3565b5b036110055760006005811115610f6057610f5f6114a3565b5b600360009054906101000a900460ff166005811115610f8257610f816114a3565b5b1480610fc1575060026005811115610f9d57610f9c6114a3565b5b600360009054906101000a900460ff166005811115610fbf57610fbe6114a3565b5b145b611000576040517f08c379a0000000000000000000000000000000000000000000000000000000008152600401610ff79061238c565b60405180910390fd5b611359565b60026005811115611019576110186114a3565b5b81600581111561102c5761102b6114a3565b5b036110ea5760016005811115611045576110446114a3565b5b600360009054906101000a900460ff166005811115611067576110666114a3565b5b14806110a6575060036005811115611082576110816114a3565b5b600360009054906101000a900460ff1660058111156110a4576110a36114a3565b5b145b6110e5576040517f08c379a00000000000000000000000000000000000000000000000000000000081526004016110dc9061238c565b60405180910390fd5b611358565b600360058111156110fe576110fd6114a3565b5b816005811115611111576111106114a3565b5b036111cf576002600581111561112a576111296114a3565b5b600360009054906101000a900460ff16600581111561114c5761114b6114a3565b5b148061118b575060046005811115611167576111666114a3565b5b600360009054906101000a900460ff166005811115611189576111886114a3565b5b145b6111ca576040517f08c379a00000000000000000000000000000000000000000000000000000000081526004016111c19061238c565b60405180910390fd5b611357565b600460058111156111e3576111e26114a3565b5b8160058111156111f6576111f56114a3565b5b036112b3576003600581111561120f5761120e6114a3565b5b600360009054906101000a900460ff166005811115611231576112306114a3565b5b148061126f575060058081111561124b5761124a6114a3565b5b600360009054906101000a900460ff16600581111561126d5761126c6114a3565b5b145b6112ae576040517f08c379a00000000000000000000000000000000000000000000000000000000081526004016112a59061238c565b60405180910390fd5b611356565b6005808111156112c6576112c56114a3565b5b8160058111156112d9576112d86114a3565b5b0361135557600460058111156112f2576112f16114a3565b5b600360009054906101000a900460ff166005811115611314576113136114a3565b5b14611354576040517f08c379a000000000000000000000000000000000000000000000000000000000815260040161134b9061238c565b60405180910390fd5b5b5b5b5b5b5b50565b6000604051905090565b600080fd5b600080fd5b6000819050919050565b61138481611371565b811461138f57600080fd5b50565b6000813590506113a18161137b565b92915050565b6000602082840312156113bd576113bc611367565b5b60006113cb84828501611392565b91505092915050565b600081519050919050565b600082825260208201905092915050565b60005b8381101561140e5780820151818401526020810190506113f3565b60008484015250505050565b6000601f19601f8301169050919050565b6000611436826113d4565b61144081856113df565b93506114508185602086016113f0565b6114598161141a565b840191505092915050565b61146d81611371565b82525050565b6000604082019050818103600083015261148d818561142b565b905061149c6020830184611464565b9392505050565b7f4e487b7100000000000000000000000000000000000000000000000000000000600052602160045260246000fd5b600681106114e3576114e26114a3565b5b50565b60008190506114f4826114d2565b919050565b6000611504826114e6565b9050919050565b611514816114f9565b82525050565b600060208201905061152f600083018461150b565b92915050565b600080fd5b600080fd5b7f4e487b7100000000000000000000000000000000000000000000000000000000600052604160045260246000fd5b6115778261141a565b810181811067ffffffffffffffff821117156115965761159561153f565b5b80604052505050565b60006115a961135d565b90506115b5828261156e565b919050565b600067ffffffffffffffff8211156115d5576115d461153f565b5b6115de8261141a565b9050602081019050919050565b82818337600083830152505050565b600061160d611608846115ba565b61159f565b9050828152602081018484840111156116295761162861153a565b5b6116348482856115eb565b509392505050565b600082601f83011261165157611650611535565b5b81356116618482602086016115fa565b91505092915050565b6000602082840312156116805761167f611367565b5b600082013567ffffffffffffffff81111561169e5761169d61136c565b5b6116aa8482850161163c565b91505092915050565b600073ffffffffffffffffffffffffffffffffffffffff82169050919050565b60006116de826116b3565b9050919050565b6116ee816116d3565b81146116f957600080fd5b50565b60008135905061170b816116e5565b92915050565b60006020828403121561172757611726611367565b5b6000611735848285016116fc565b91505092915050565b600081519050919050565b600082825260208201905092915050565b6000819050602082019050919050565b600082825260208201905092915050565b6000611786826113d4565b611790818561176a565b93506117a08185602086016113f0565b6117a98161141a565b840191505092915050565b6117bd81611371565b82525050565b600060408301600083015184820360008601526117e0828261177b565b91505060208301516117f560208601826117b4565b508091505092915050565b600061180c83836117c3565b905092915050565b6000602082019050919050565b600061182c8261173e565b6118368185611749565b9350836020820285016118488561175a565b8060005b8581101561188457848403895281516118658582611800565b945061187083611814565b925060208a0199505060018101905061184c565b50829750879550505050505092915050565b600060208201905081810360008301526118b08184611821565b905092915050565b6118c1816116d3565b82525050565b60006020820190506118dc60008301846118b8565b92915050565b60008115159050919050565b6118f7816118e2565b82525050565b600060608201905061191260008301866118ee565b61191f60208301856118ee565b61192c6040830184611464565b949350505050565b600067ffffffffffffffff82111561194f5761194e61153f565b5b602082029050602081019050919050565b600080fd5b600061197861197384611934565b61159f565b9050808382526020820190506020840283018581111561199b5761199a611960565b5b835b818110156119c457806119b088826116fc565b84526020840193505060208101905061199d565b5050509392505050565b600082601f8301126119e3576119e2611535565b5b81356119f3848260208601611965565b91505092915050565b600060208284031215611a1257611a11611367565b5b600082013567ffffffffffffffff811115611a3057611a2f61136c565b5b611a3c848285016119ce565b91505092915050565b7f4e487b7100000000000000000000000000000000000000000000000000000000600052602260045260246000fd5b60006002820490506001821680611a8c57607f821691505b602082108103611a9f57611a9e611a45565b5b50919050565b60008190508160005260206000209050919050565b60006020601f8301049050919050565b600082821b905092915050565b600060088302611b077fffffffffffffffffffffffffffffffffffffffffffffffffffffffffffffffff82611aca565b611b118683611aca565b95508019841693508086168417925050509392505050565b6000819050919050565b6000611b4e611b49611b4484611371565b611b29565b611371565b9050919050565b6000819050919050565b611b6883611b33565b611b7c611b7482611b55565b848454611ad7565b825550505050565b600090565b611b91611b84565b611b9c818484611b5f565b505050565b5b81811015611bc057611bb5600082611b89565b600181019050611ba2565b5050565b601f821115611c0557611bd681611aa5565b611bdf84611aba565b81016020851015611bee578190505b611c02611bfa85611aba565b830182611ba1565b50505b505050565b600082821c905092915050565b6000611c2860001984600802611c0a565b1980831691505092915050565b6000611c418383611c17565b9150826002028217905092915050565b611c5a826113d4565b67ffffffffffffffff811115611c7357611c7261153f565b5b611c7d8254611a74565b611c88828285611bc4565b600060209050601f831160018114611cbb5760008415611ca9578287015190505b611cb38582611c35565b865550611d1b565b601f198416611cc986611aa5565b60005b82811015611cf157848901518255600182019150602085019450602081019050611ccc565b86831015611d0e5784890151611d0a601f891682611c17565b8355505b6001600288020188555050505b505050505050565b7f4e487b7100000000000000000000000000000000000000000000000000000000600052601160045260246000fd5b6000611d5d82611371565b9150611d6883611371565b9250828203905081811115611d8057611d7f611d23565b5b92915050565b6000602082019050611d9b6000830184611464565b92915050565b7f4e487b7100000000000000000000000000000000000000000000000000000000600052603260045260246000fd5b6000611ddb82611371565b91507fffffffffffffffffffffffffffffffffffffffffffffffffffffffffffffffff8203611e0d57611e0c611d23565b5b600182019050919050565b7f4f776e61626c653a206e6577206f776e657220697320746865207a65726f206160008201527f6464726573730000000000000000000000000000000000000000000000000000602082015250565b6000611e746026836113df565b9150611e7f82611e18565b604082019050919050565b60006020820190508181036000830152611ea381611e67565b9050919050565b7f596f75206861766520616c726561647920766f7465642e204f6e6c79206f6e6560008201527f20766f746520697320616c6c6f77656400000000000000000000000000000000602082015250565b6000611f066030836113df565b9150611f1182611eaa565b604082019050919050565b60006020820190508181036000830152611f3581611ef9565b9050919050565b7f50726f706f73616c20496420646f65736e27742065786973742e20506c65617360008201527f652073656c65637420612076616c69642070726f706f73616c20496400000000602082015250565b6000611f98603c836113df565b9150611fa382611f3c565b604082019050919050565b60006020820190508181036000830152611fc781611f8b565b9050919050565b6000604082019050611fe360008301856118b8565b611ff06020830184611464565b9392505050565b7f4f6e6c792077686974656c697374656420766f7465727320617265206175746860008201527f6f72697a656420746f20646f207468697320616374696f6e2e00000000000000602082015250565b60006120536039836113df565b915061205e82611ff7565b604082019050919050565b6000602082019050818103600083015261208281612046565b9050919050565b7f50726f706f73616c20726567697374726174696f6e20697320636c6f7365642e600082015250565b60006120bf6020836113df565b91506120ca82612089565b602082019050919050565b600060208201905081810360008301526120ee816120b2565b9050919050565b7f4f776e61626c653a2063616c6c6572206973206e6f7420746865206f776e6572600082015250565b600061212b6020836113df565b9150612136826120f5565b602082019050919050565b6000602082019050818103600083015261215a8161211e565b9050919050565b7f526567697374726174696f6e20706572696f6420666f7220766f74657220697360008201527f20636c6f7365642e000000000000000000000000000000000000000000000000602082015250565b60006121bd6028836113df565b91506121c882612161565b604082019050919050565b600060208201905081810360008301526121ec816121b0565b9050919050565b7f566f74696e67206973206e6f7420636c6f7365642e0000000000000000000000600082015250565b60006122296015836113df565b9150612234826121f3565b602082019050919050565b600060208201905081810360008301526122588161221c565b9050919050565b6000604082019050612274600083018561150b565b612281602083018461150b565b9392505050565b7f566f74696e672073657373696f6e20697320636c6f7365642e00000000000000600082015250565b60006122be6019836113df565b91506122c982612288565b602082019050919050565b600060208201905081810360008301526122ed816122b1565b9050919050565b7f41637475616c20737461747573206973206e6f7420636f6d70617469626c652060008201527f7769746820796f75722063686f696365202863686f6f73652070726576696f7560208201527f73206f6e65206f72206e657874206f6e65290000000000000000000000000000604082015250565b60006123766052836113df565b9150612381826122f4565b606082019050919050565b600060208201905081810360008301526123a581612369565b905091905056fea2646970667358221220de4c0161cad595f6bd4e857d1219f2d1d4e8ae643c1942b0ad4177c3eb105c0364736f6c63430008120033",
					"opcodes": "PUSH1 0x80 PUSH1 0x40 MSTORE CALLVALUE DUP1 ISZERO PUSH2 0x10 JUMPI PUSH1 0x0 DUP1 REVERT JUMPDEST POP PUSH2 0x2D PUSH2 0x22 PUSH2 0x32 PUSH1 0x20 SHL PUSH1 0x20 SHR JUMP JUMPDEST PUSH2 0x3A PUSH1 0x20 SHL PUSH1 0x20 SHR JUMP JUMPDEST PUSH2 0xFE JUMP JUMPDEST PUSH1 0x0 CALLER SWAP1 POP SWAP1 JUMP JUMPDEST PUSH1 0x0 DUP1 PUSH1 0x0 SWAP1 SLOAD SWAP1 PUSH2 0x100 EXP SWAP1 DIV PUSH20 0xFFFFFFFFFFFFFFFFFFFFFFFFFFFFFFFFFFFFFFFF AND SWAP1 POP DUP2 PUSH1 0x0 DUP1 PUSH2 0x100 EXP DUP2 SLOAD DUP2 PUSH20 0xFFFFFFFFFFFFFFFFFFFFFFFFFFFFFFFFFFFFFFFF MUL NOT AND SWAP1 DUP4 PUSH20 0xFFFFFFFFFFFFFFFFFFFFFFFFFFFFFFFFFFFFFFFF AND MUL OR SWAP1 SSTORE POP DUP2 PUSH20 0xFFFFFFFFFFFFFFFFFFFFFFFFFFFFFFFFFFFFFFFF AND DUP2 PUSH20 0xFFFFFFFFFFFFFFFFFFFFFFFFFFFFFFFFFFFFFFFF AND PUSH32 0x8BE0079C531659141344CD1FD0A4F28419497F9722A3DAAFE3B4186F6B6457E0 PUSH1 0x40 MLOAD PUSH1 0x40 MLOAD DUP1 SWAP2 SUB SWAP1 LOG3 POP POP JUMP JUMPDEST PUSH2 0x23E2 DUP1 PUSH3 0x10E PUSH1 0x0 CODECOPY PUSH1 0x0 RETURN INVALID PUSH1 0x80 PUSH1 0x40 MSTORE CALLVALUE DUP1 ISZERO PUSH2 0x10 JUMPI PUSH1 0x0 DUP1 REVERT JUMPDEST POP PUSH1 0x4 CALLDATASIZE LT PUSH2 0xB4 JUMPI PUSH1 0x0 CALLDATALOAD PUSH1 0xE0 SHR DUP1 PUSH4 0x715018A6 GT PUSH2 0x71 JUMPI DUP1 PUSH4 0x715018A6 EQ PUSH2 0x168 JUMPI DUP1 PUSH4 0x8DA5CB5B EQ PUSH2 0x172 JUMPI DUP1 PUSH4 0x9B19251A EQ PUSH2 0x190 JUMPI DUP1 PUSH4 0xD55EC9C1 EQ PUSH2 0x1C2 JUMPI DUP1 PUSH4 0xF2FDE38B EQ PUSH2 0x1DE JUMPI DUP1 PUSH4 0xFD4A77F1 EQ PUSH2 0x1FA JUMPI PUSH2 0xB4 JUMP JUMPDEST DUP1 PUSH4 0x13CF08B EQ PUSH2 0xB9 JUMPI DUP1 PUSH4 0x200D2ED2 EQ PUSH2 0xEA JUMPI DUP1 PUSH4 0x2F95355B EQ PUSH2 0x108 JUMPI DUP1 PUSH4 0x38DB6DD3 EQ PUSH2 0x124 JUMPI DUP1 PUSH4 0x62564C48 EQ PUSH2 0x140 JUMPI DUP1 PUSH4 0x6A00600C EQ PUSH2 0x15E JUMPI JUMPDEST PUSH1 0x0 DUP1 REVERT JUMPDEST PUSH2 0xD3 PUSH1 0x4 DUP1 CALLDATASIZE SUB DUP2 ADD SWAP1 PUSH2 0xCE SWAP2 SWAP1 PUSH2 0x13A7 JUMP JUMPDEST PUSH2 0x216 JUMP JUMPDEST PUSH1 0x40 MLOAD PUSH2 0xE1 SWAP3 SWAP2 SWAP1 PUSH2 0x1473 JUMP JUMPDEST PUSH1 0x40 MLOAD DUP1 SWAP2 SUB SWAP1 RETURN JUMPDEST PUSH2 0xF2 PUSH2 0x2D2 JUMP JUMPDEST PUSH1 0x40 MLOAD PUSH2 0xFF SWAP2 SWAP1 PUSH2 0x151A JUMP JUMPDEST PUSH1 0x40 MLOAD DUP1 SWAP2 SUB SWAP1 RETURN JUMPDEST PUSH2 0x122 PUSH1 0x4 DUP1 CALLDATASIZE SUB DUP2 ADD SWAP1 PUSH2 0x11D SWAP2 SWAP1 PUSH2 0x166A JUMP JUMPDEST PUSH2 0x2E5 JUMP JUMPDEST STOP JUMPDEST PUSH2 0x13E PUSH1 0x4 DUP1 CALLDATASIZE SUB DUP2 ADD SWAP1 PUSH2 0x139 SWAP2 SWAP1 PUSH2 0x1711 JUMP JUMPDEST PUSH2 0x3A3 JUMP JUMPDEST STOP JUMPDEST PUSH2 0x148 PUSH2 0x447 JUMP JUMPDEST PUSH1 0x40 MLOAD PUSH2 0x155 SWAP2 SWAP1 PUSH2 0x1896 JUMP JUMPDEST PUSH1 0x40 MLOAD DUP1 SWAP2 SUB SWAP1 RETURN JUMPDEST PUSH2 0x166 PUSH2 0x542 JUMP JUMPDEST STOP JUMPDEST PUSH2 0x170 PUSH2 0x5EA JUMP JUMPDEST STOP JUMPDEST PUSH2 0x17A PUSH2 0x5FE JUMP JUMPDEST PUSH1 0x40 MLOAD PUSH2 0x187 SWAP2 SWAP1 PUSH2 0x18C7 JUMP JUMPDEST PUSH1 0x40 MLOAD DUP1 SWAP2 SUB SWAP1 RETURN JUMPDEST PUSH2 0x1AA PUSH1 0x4 DUP1 CALLDATASIZE SUB DUP2 ADD SWAP1 PUSH2 0x1A5 SWAP2 SWAP1 PUSH2 0x1711 JUMP JUMPDEST PUSH2 0x627 JUMP JUMPDEST PUSH1 0x40 MLOAD PUSH2 0x1B9 SWAP4 SWAP3 SWAP2 SWAP1 PUSH2 0x18FD JUMP JUMPDEST PUSH1 0x40 MLOAD DUP1 SWAP2 SUB SWAP1 RETURN JUMPDEST PUSH2 0x1DC PUSH1 0x4 DUP1 CALLDATASIZE SUB DUP2 ADD SWAP1 PUSH2 0x1D7 SWAP2 SWAP1 PUSH2 0x19FC JUMP JUMPDEST PUSH2 0x66B JUMP JUMPDEST STOP JUMPDEST PUSH2 0x1F8 PUSH1 0x4 DUP1 CALLDATASIZE SUB DUP2 ADD SWAP1 PUSH2 0x1F3 SWAP2 SWAP1 PUSH2 0x1711 JUMP JUMPDEST PUSH2 0x763 JUMP JUMPDEST STOP JUMPDEST PUSH2 0x214 PUSH1 0x4 DUP1 CALLDATASIZE SUB DUP2 ADD SWAP1 PUSH2 0x20F SWAP2 SWAP1 PUSH2 0x13A7 JUMP JUMPDEST PUSH2 0x7E6 JUMP JUMPDEST STOP JUMPDEST PUSH1 0x2 DUP2 DUP2 SLOAD DUP2 LT PUSH2 0x226 JUMPI PUSH1 0x0 DUP1 REVERT JUMPDEST SWAP1 PUSH1 0x0 MSTORE PUSH1 0x20 PUSH1 0x0 KECCAK256 SWAP1 PUSH1 0x2 MUL ADD PUSH1 0x0 SWAP2 POP SWAP1 POP DUP1 PUSH1 0x0 ADD DUP1 SLOAD PUSH2 0x249 SWAP1 PUSH2 0x1A74 JUMP JUMPDEST DUP1 PUSH1 0x1F ADD PUSH1 0x20 DUP1 SWAP2 DIV MUL PUSH1 0x20 ADD PUSH1 0x40 MLOAD SWAP1 DUP2 ADD PUSH1 0x40 MSTORE DUP1 SWAP3 SWAP2 SWAP1 DUP2 DUP2 MSTORE PUSH1 0x20 ADD DUP3 DUP1 SLOAD PUSH2 0x275 SWAP1 PUSH2 0x1A74 JUMP JUMPDEST DUP1 ISZERO PUSH2 0x2C2 JUMPI DUP1 PUSH1 0x1F LT PUSH2 0x297 JUMPI PUSH2 0x100 DUP1 DUP4 SLOAD DIV MUL DUP4 MSTORE SWAP2 PUSH1 0x20 ADD SWAP2 PUSH2 0x2C2 JUMP JUMPDEST DUP3 ADD SWAP2 SWAP1 PUSH1 0x0 MSTORE PUSH1 0x20 PUSH1 0x0 KECCAK256 SWAP1 JUMPDEST DUP2 SLOAD DUP2 MSTORE SWAP1 PUSH1 0x1 ADD SWAP1 PUSH1 0x20 ADD DUP1 DUP4 GT PUSH2 0x2A5 JUMPI DUP3 SWAP1 SUB PUSH1 0x1F AND DUP3 ADD SWAP2 JUMPDEST POP POP POP POP POP SWAP1 DUP1 PUSH1 0x1 ADD SLOAD SWAP1 POP DUP3 JUMP JUMPDEST PUSH1 0x3 PUSH1 0x0 SWAP1 SLOAD SWAP1 PUSH2 0x100 EXP SWAP1 DIV PUSH1 0xFF AND DUP2 JUMP JUMPDEST PUSH2 0x2ED PUSH2 0x9EB JUMP JUMPDEST PUSH2 0x2F5 PUSH2 0xA83 JUMP JUMPDEST PUSH1 0x2 PUSH1 0x40 MLOAD DUP1 PUSH1 0x40 ADD PUSH1 0x40 MSTORE DUP1 DUP4 DUP2 MSTORE PUSH1 0x20 ADD PUSH1 0x0 DUP2 MSTORE POP SWAP1 DUP1 PUSH1 0x1 DUP2 SLOAD ADD DUP1 DUP3 SSTORE DUP1 SWAP2 POP POP PUSH1 0x1 SWAP1 SUB SWAP1 PUSH1 0x0 MSTORE PUSH1 0x20 PUSH1 0x0 KECCAK256 SWAP1 PUSH1 0x2 MUL ADD PUSH1 0x0 SWAP1 SWAP2 SWAP1 SWAP2 SWAP1 SWAP2 POP PUSH1 0x0 DUP3 ADD MLOAD DUP2 PUSH1 0x0 ADD SWAP1 DUP2 PUSH2 0x34B SWAP2 SWAP1 PUSH2 0x1C51 JUMP JUMPDEST POP PUSH1 0x20 DUP3 ADD MLOAD DUP2 PUSH1 0x1 ADD SSTORE POP POP PUSH32 0x92E393E9B54E2F801D3EA4BEB0C5E71A21CC34A5D34B77D0FB8A3AA1650DC18F PUSH1 0x1 PUSH1 0x2 DUP1 SLOAD SWAP1 POP PUSH2 0x38B SWAP2 SWAP1 PUSH2 0x1D52 JUMP JUMPDEST PUSH1 0x40 MLOAD PUSH2 0x398 SWAP2 SWAP1 PUSH2 0x1D86 JUMP JUMPDEST PUSH1 0x40 MLOAD DUP1 SWAP2 SUB SWAP1 LOG1 POP JUMP JUMPDEST PUSH2 0x3AB PUSH2 0xAFB JUMP JUMPDEST PUSH2 0x3B3 PUSH2 0xB79 JUMP JUMPDEST PUSH1 0x1 DUP1 PUSH1 0x0 DUP4 PUSH20 0xFFFFFFFFFFFFFFFFFFFFFFFFFFFFFFFFFFFFFFFF AND PUSH20 0xFFFFFFFFFFFFFFFFFFFFFFFFFFFFFFFFFFFFFFFF AND DUP2 MSTORE PUSH1 0x20 ADD SWAP1 DUP2 MSTORE PUSH1 0x20 ADD PUSH1 0x0 KECCAK256 PUSH1 0x0 ADD PUSH1 0x0 PUSH2 0x100 EXP DUP2 SLOAD DUP2 PUSH1 0xFF MUL NOT AND SWAP1 DUP4 ISZERO ISZERO MUL OR SWAP1 SSTORE POP PUSH32 0xB6BE2187D059CC2A55FE29E0E503B566E1E0F8C8780096E185429350ACFFD3DD DUP2 PUSH1 0x40 MLOAD PUSH2 0x43C SWAP2 SWAP1 PUSH2 0x18C7 JUMP JUMPDEST PUSH1 0x40 MLOAD DUP1 SWAP2 SUB SWAP1 LOG1 POP JUMP JUMPDEST PUSH1 0x60 PUSH1 0x2 DUP1 SLOAD DUP1 PUSH1 0x20 MUL PUSH1 0x20 ADD PUSH1 0x40 MLOAD SWAP1 DUP2 ADD PUSH1 0x40 MSTORE DUP1 SWAP3 SWAP2 SWAP1 DUP2 DUP2 MSTORE PUSH1 0x20 ADD PUSH1 0x0 SWAP1 JUMPDEST DUP3 DUP3 LT ISZERO PUSH2 0x539 JUMPI DUP4 DUP3 SWAP1 PUSH1 0x0 MSTORE PUSH1 0x20 PUSH1 0x0 KECCAK256 SWAP1 PUSH1 0x2 MUL ADD PUSH1 0x40 MLOAD DUP1 PUSH1 0x40 ADD PUSH1 0x40 MSTORE SWAP1 DUP2 PUSH1 0x0 DUP3 ADD DUP1 SLOAD PUSH2 0x49E SWAP1 PUSH2 0x1A74 JUMP JUMPDEST DUP1 PUSH1 0x1F ADD PUSH1 0x20 DUP1 SWAP2 DIV MUL PUSH1 0x20 ADD PUSH1 0x40 MLOAD SWAP1 DUP2 ADD PUSH1 0x40 MSTORE DUP1 SWAP3 SWAP2 SWAP1 DUP2 DUP2 MSTORE PUSH1 0x20 ADD DUP3 DUP1 SLOAD PUSH2 0x4CA SWAP1 PUSH2 0x1A74 JUMP JUMPDEST DUP1 ISZERO PUSH2 0x517 JUMPI DUP1 PUSH1 0x1F LT PUSH2 0x4EC JUMPI PUSH2 0x100 DUP1 DUP4 SLOAD DIV MUL DUP4 MSTORE SWAP2 PUSH1 0x20 ADD SWAP2 PUSH2 0x517 JUMP JUMPDEST DUP3 ADD SWAP2 SWAP1 PUSH1 0x0 MSTORE PUSH1 0x20 PUSH1 0x0 KECCAK256 SWAP1 JUMPDEST DUP2 SLOAD DUP2 MSTORE SWAP1 PUSH1 0x1 ADD SWAP1 PUSH1 0x20 ADD DUP1 DUP4 GT PUSH2 0x4FA JUMPI DUP3 SWAP1 SUB PUSH1 0x1F AND DUP3 ADD SWAP2 JUMPDEST POP POP POP POP POP DUP2 MSTORE PUSH1 0x20 ADD PUSH1 0x1 DUP3 ADD SLOAD DUP2 MSTORE POP POP DUP2 MSTORE PUSH1 0x20 ADD SWAP1 PUSH1 0x1 ADD SWAP1 PUSH2 0x46B JUMP JUMPDEST POP POP POP POP SWAP1 POP SWAP1 JUMP JUMPDEST PUSH2 0x54A PUSH2 0xAFB JUMP JUMPDEST PUSH2 0x552 PUSH2 0xBF1 JUMP JUMPDEST PUSH1 0x0 DUP1 DUP1 PUSH1 0x0 SWAP1 POP JUMPDEST PUSH1 0x2 DUP1 SLOAD SWAP1 POP DUP2 LT ISZERO PUSH2 0x5D4 JUMPI DUP3 PUSH1 0x2 DUP3 DUP2 SLOAD DUP2 LT PUSH2 0x57D JUMPI PUSH2 0x57C PUSH2 0x1DA1 JUMP JUMPDEST JUMPDEST SWAP1 PUSH1 0x0 MSTORE PUSH1 0x20 PUSH1 0x0 KECCAK256 SWAP1 PUSH1 0x2 MUL ADD PUSH1 0x1 ADD SLOAD GT ISZERO PUSH2 0x5C1 JUMPI PUSH1 0x2 DUP2 DUP2 SLOAD DUP2 LT PUSH2 0x5A9 JUMPI PUSH2 0x5A8 PUSH2 0x1DA1 JUMP JUMPDEST JUMPDEST SWAP1 PUSH1 0x0 MSTORE PUSH1 0x20 PUSH1 0x0 KECCAK256 SWAP1 PUSH1 0x2 MUL ADD PUSH1 0x1 ADD SLOAD SWAP3 POP DUP1 SWAP2 POP JUMPDEST DUP1 DUP1 PUSH2 0x5CC SWAP1 PUSH2 0x1DD0 JUMP JUMPDEST SWAP2 POP POP PUSH2 0x55B JUMP JUMPDEST POP DUP1 PUSH1 0x4 DUP2 SWAP1 SSTORE POP PUSH2 0x5E6 PUSH1 0x5 PUSH2 0xC69 JUMP JUMPDEST POP POP JUMP JUMPDEST PUSH2 0x5F2 PUSH2 0xAFB JUMP JUMPDEST PUSH2 0x5FC PUSH1 0x0 PUSH2 0xCF7 JUMP JUMPDEST JUMP JUMPDEST PUSH1 0x0 DUP1 PUSH1 0x0 SWAP1 SLOAD SWAP1 PUSH2 0x100 EXP SWAP1 DIV PUSH20 0xFFFFFFFFFFFFFFFFFFFFFFFFFFFFFFFFFFFFFFFF AND SWAP1 POP SWAP1 JUMP JUMPDEST PUSH1 0x1 PUSH1 0x20 MSTORE DUP1 PUSH1 0x0 MSTORE PUSH1 0x40 PUSH1 0x0 KECCAK256 PUSH1 0x0 SWAP2 POP SWAP1 POP DUP1 PUSH1 0x0 ADD PUSH1 0x0 SWAP1 SLOAD SWAP1 PUSH2 0x100 EXP SWAP1 DIV PUSH1 0xFF AND SWAP1 DUP1 PUSH1 0x0 ADD PUSH1 0x1 SWAP1 SLOAD SWAP1 PUSH2 0x100 EXP SWAP1 DIV PUSH1 0xFF AND SWAP1 DUP1 PUSH1 0x1 ADD SLOAD SWAP1 POP DUP4 JUMP JUMPDEST PUSH2 0x673 PUSH2 0xAFB JUMP JUMPDEST PUSH2 0x67B PUSH2 0xB79 JUMP JUMPDEST PUSH1 0x0 JUMPDEST DUP2 MLOAD DUP2 LT ISZERO PUSH2 0x75F JUMPI PUSH1 0x1 DUP1 PUSH1 0x0 DUP5 DUP5 DUP2 MLOAD DUP2 LT PUSH2 0x69F JUMPI PUSH2 0x69E PUSH2 0x1DA1 JUMP JUMPDEST JUMPDEST PUSH1 0x20 MUL PUSH1 0x20 ADD ADD MLOAD PUSH20 0xFFFFFFFFFFFFFFFFFFFFFFFFFFFFFFFFFFFFFFFF AND PUSH20 0xFFFFFFFFFFFFFFFFFFFFFFFFFFFFFFFFFFFFFFFF AND DUP2 MSTORE PUSH1 0x20 ADD SWAP1 DUP2 MSTORE PUSH1 0x20 ADD PUSH1 0x0 KECCAK256 PUSH1 0x0 ADD PUSH1 0x0 PUSH2 0x100 EXP DUP2 SLOAD DUP2 PUSH1 0xFF MUL NOT AND SWAP1 DUP4 ISZERO ISZERO MUL OR SWAP1 SSTORE POP PUSH32 0xB6BE2187D059CC2A55FE29E0E503B566E1E0F8C8780096E185429350ACFFD3DD DUP3 DUP3 DUP2 MLOAD DUP2 LT PUSH2 0x72F JUMPI PUSH2 0x72E PUSH2 0x1DA1 JUMP JUMPDEST JUMPDEST PUSH1 0x20 MUL PUSH1 0x20 ADD ADD MLOAD PUSH1 0x40 MLOAD PUSH2 0x744 SWAP2 SWAP1 PUSH2 0x18C7 JUMP JUMPDEST PUSH1 0x40 MLOAD DUP1 SWAP2 SUB SWAP1 LOG1 DUP1 DUP1 PUSH2 0x757 SWAP1 PUSH2 0x1DD0 JUMP JUMPDEST SWAP2 POP POP PUSH2 0x67E JUMP JUMPDEST POP POP JUMP JUMPDEST PUSH2 0x76B PUSH2 0xAFB JUMP JUMPDEST PUSH1 0x0 PUSH20 0xFFFFFFFFFFFFFFFFFFFFFFFFFFFFFFFFFFFFFFFF AND DUP2 PUSH20 0xFFFFFFFFFFFFFFFFFFFFFFFFFFFFFFFFFFFFFFFF AND SUB PUSH2 0x7DA JUMPI PUSH1 0x40 MLOAD PUSH32 0x8C379A000000000000000000000000000000000000000000000000000000000 DUP2 MSTORE PUSH1 0x4 ADD PUSH2 0x7D1 SWAP1 PUSH2 0x1E8A JUMP JUMPDEST PUSH1 0x40 MLOAD DUP1 SWAP2 SUB SWAP1 REVERT JUMPDEST PUSH2 0x7E3 DUP2 PUSH2 0xCF7 JUMP JUMPDEST POP JUMP JUMPDEST PUSH2 0x7EE PUSH2 0xDBB JUMP JUMPDEST PUSH2 0x7F6 PUSH2 0x9EB JUMP JUMPDEST PUSH1 0x0 ISZERO ISZERO PUSH1 0x1 PUSH1 0x0 CALLER PUSH20 0xFFFFFFFFFFFFFFFFFFFFFFFFFFFFFFFFFFFFFFFF AND PUSH20 0xFFFFFFFFFFFFFFFFFFFFFFFFFFFFFFFFFFFFFFFF AND DUP2 MSTORE PUSH1 0x20 ADD SWAP1 DUP2 MSTORE PUSH1 0x20 ADD PUSH1 0x0 KECCAK256 PUSH1 0x0 ADD PUSH1 0x1 SWAP1 SLOAD SWAP1 PUSH2 0x100 EXP SWAP1 DIV PUSH1 0xFF AND ISZERO ISZERO EQ PUSH2 0x88C JUMPI PUSH1 0x40 MLOAD PUSH32 0x8C379A000000000000000000000000000000000000000000000000000000000 DUP2 MSTORE PUSH1 0x4 ADD PUSH2 0x883 SWAP1 PUSH2 0x1F1C JUMP JUMPDEST PUSH1 0x40 MLOAD DUP1 SWAP2 SUB SWAP1 REVERT JUMPDEST PUSH1 0x2 DUP1 SLOAD SWAP1 POP DUP2 LT PUSH2 0x8D3 JUMPI PUSH1 0x40 MLOAD PUSH32 0x8C379A000000000000000000000000000000000000000000000000000000000 DUP2 MSTORE PUSH1 0x4 ADD PUSH2 0x8CA SWAP1 PUSH2 0x1FAE JUMP JUMPDEST PUSH1 0x40 MLOAD DUP1 SWAP2 SUB SWAP1 REVERT JUMPDEST PUSH1 0x2 DUP2 DUP2 SLOAD DUP2 LT PUSH2 0x8E7 JUMPI PUSH2 0x8E6 PUSH2 0x1DA1 JUMP JUMPDEST JUMPDEST SWAP1 PUSH1 0x0 MSTORE PUSH1 0x20 PUSH1 0x0 KECCAK256 SWAP1 PUSH1 0x2 MUL ADD PUSH1 0x1 ADD PUSH1 0x0 DUP2 SLOAD DUP1 SWAP3 SWAP2 SWAP1 PUSH2 0x909 SWAP1 PUSH2 0x1DD0 JUMP JUMPDEST SWAP2 SWAP1 POP SSTORE POP DUP1 PUSH1 0x1 PUSH1 0x0 CALLER PUSH20 0xFFFFFFFFFFFFFFFFFFFFFFFFFFFFFFFFFFFFFFFF AND PUSH20 0xFFFFFFFFFFFFFFFFFFFFFFFFFFFFFFFFFFFFFFFF AND DUP2 MSTORE PUSH1 0x20 ADD SWAP1 DUP2 MSTORE PUSH1 0x20 ADD PUSH1 0x0 KECCAK256 PUSH1 0x1 ADD DUP2 SWAP1 SSTORE POP PUSH1 0x1 DUP1 PUSH1 0x0 CALLER PUSH20 0xFFFFFFFFFFFFFFFFFFFFFFFFFFFFFFFFFFFFFFFF AND PUSH20 0xFFFFFFFFFFFFFFFFFFFFFFFFFFFFFFFFFFFFFFFF AND DUP2 MSTORE PUSH1 0x20 ADD SWAP1 DUP2 MSTORE PUSH1 0x20 ADD PUSH1 0x0 KECCAK256 PUSH1 0x0 ADD PUSH1 0x1 PUSH2 0x100 EXP DUP2 SLOAD DUP2 PUSH1 0xFF MUL NOT AND SWAP1 DUP4 ISZERO ISZERO MUL OR SWAP1 SSTORE POP PUSH32 0x4D99B957A2BC29A30EBD96A7BE8E68FE50A3C701DB28A91436490B7D53870CA4 CALLER DUP3 PUSH1 0x40 MLOAD PUSH2 0x9E0 SWAP3 SWAP2 SWAP1 PUSH2 0x1FCE JUMP JUMPDEST PUSH1 0x40 MLOAD DUP1 SWAP2 SUB SWAP1 LOG1 POP JUMP JUMPDEST PUSH1 0x1 ISZERO ISZERO PUSH1 0x1 PUSH1 0x0 CALLER PUSH20 0xFFFFFFFFFFFFFFFFFFFFFFFFFFFFFFFFFFFFFFFF AND PUSH20 0xFFFFFFFFFFFFFFFFFFFFFFFFFFFFFFFFFFFFFFFF AND DUP2 MSTORE PUSH1 0x20 ADD SWAP1 DUP2 MSTORE PUSH1 0x20 ADD PUSH1 0x0 KECCAK256 PUSH1 0x0 ADD PUSH1 0x0 SWAP1 SLOAD SWAP1 PUSH2 0x100 EXP SWAP1 DIV PUSH1 0xFF AND ISZERO ISZERO EQ PUSH2 0xA81 JUMPI PUSH1 0x40 MLOAD PUSH32 0x8C379A000000000000000000000000000000000000000000000000000000000 DUP2 MSTORE PUSH1 0x4 ADD PUSH2 0xA78 SWAP1 PUSH2 0x2069 JUMP JUMPDEST PUSH1 0x40 MLOAD DUP1 SWAP2 SUB SWAP1 REVERT JUMPDEST JUMP JUMPDEST PUSH1 0x1 PUSH1 0x5 DUP2 GT ISZERO PUSH2 0xA97 JUMPI PUSH2 0xA96 PUSH2 0x14A3 JUMP JUMPDEST JUMPDEST PUSH1 0x3 PUSH1 0x0 SWAP1 SLOAD SWAP1 PUSH2 0x100 EXP SWAP1 DIV PUSH1 0xFF AND PUSH1 0x5 DUP2 GT ISZERO PUSH2 0xAB9 JUMPI PUSH2 0xAB8 PUSH2 0x14A3 JUMP JUMPDEST JUMPDEST EQ PUSH2 0xAF9 JUMPI PUSH1 0x40 MLOAD PUSH32 0x8C379A000000000000000000000000000000000000000000000000000000000 DUP2 MSTORE PUSH1 0x4 ADD PUSH2 0xAF0 SWAP1 PUSH2 0x20D5 JUMP JUMPDEST PUSH1 0x40 MLOAD DUP1 SWAP2 SUB SWAP1 REVERT JUMPDEST JUMP JUMPDEST PUSH2 0xB03 PUSH2 0xE33 JUMP JUMPDEST PUSH20 0xFFFFFFFFFFFFFFFFFFFFFFFFFFFFFFFFFFFFFFFF AND PUSH2 0xB21 PUSH2 0x5FE JUMP JUMPDEST PUSH20 0xFFFFFFFFFFFFFFFFFFFFFFFFFFFFFFFFFFFFFFFF AND EQ PUSH2 0xB77 JUMPI PUSH1 0x40 MLOAD PUSH32 0x8C379A000000000000000000000000000000000000000000000000000000000 DUP2 MSTORE PUSH1 0x4 ADD PUSH2 0xB6E SWAP1 PUSH2 0x2141 JUMP JUMPDEST PUSH1 0x40 MLOAD DUP1 SWAP2 SUB SWAP1 REVERT JUMPDEST JUMP JUMPDEST PUSH1 0x0 PUSH1 0x5 DUP2 GT ISZERO PUSH2 0xB8D JUMPI PUSH2 0xB8C PUSH2 0x14A3 JUMP JUMPDEST JUMPDEST PUSH1 0x3 PUSH1 0x0 SWAP1 SLOAD SWAP1 PUSH2 0x100 EXP SWAP1 DIV PUSH1 0xFF AND PUSH1 0x5 DUP2 GT ISZERO PUSH2 0xBAF JUMPI PUSH2 0xBAE PUSH2 0x14A3 JUMP JUMPDEST JUMPDEST EQ PUSH2 0xBEF JUMPI PUSH1 0x40 MLOAD PUSH32 0x8C379A000000000000000000000000000000000000000000000000000000000 DUP2 MSTORE PUSH1 0x4 ADD PUSH2 0xBE6 SWAP1 PUSH2 0x21D3 JUMP JUMPDEST PUSH1 0x40 MLOAD DUP1 SWAP2 SUB SWAP1 REVERT JUMPDEST JUMP JUMPDEST PUSH1 0x4 PUSH1 0x5 DUP2 GT ISZERO PUSH2 0xC05 JUMPI PUSH2 0xC04 PUSH2 0x14A3 JUMP JUMPDEST JUMPDEST PUSH1 0x3 PUSH1 0x0 SWAP1 SLOAD SWAP1 PUSH2 0x100 EXP SWAP1 DIV PUSH1 0xFF AND PUSH1 0x5 DUP2 GT ISZERO PUSH2 0xC27 JUMPI PUSH2 0xC26 PUSH2 0x14A3 JUMP JUMPDEST JUMPDEST EQ PUSH2 0xC67 JUMPI PUSH1 0x40 MLOAD PUSH32 0x8C379A000000000000000000000000000000000000000000000000000000000 DUP2 MSTORE PUSH1 0x4 ADD PUSH2 0xC5E SWAP1 PUSH2 0x223F JUMP JUMPDEST PUSH1 0x40 MLOAD DUP1 SWAP2 SUB SWAP1 REVERT JUMPDEST JUMP JUMPDEST PUSH2 0xC71 PUSH2 0xAFB JUMP JUMPDEST DUP1 PUSH2 0xC7B DUP2 PUSH2 0xE3B JUMP JUMPDEST PUSH1 0x0 PUSH1 0x3 PUSH1 0x0 SWAP1 SLOAD SWAP1 PUSH2 0x100 EXP SWAP1 DIV PUSH1 0xFF AND SWAP1 POP DUP3 PUSH1 0x3 PUSH1 0x0 PUSH2 0x100 EXP DUP2 SLOAD DUP2 PUSH1 0xFF MUL NOT AND SWAP1 DUP4 PUSH1 0x5 DUP2 GT ISZERO PUSH2 0xCB4 JUMPI PUSH2 0xCB3 PUSH2 0x14A3 JUMP JUMPDEST JUMPDEST MUL OR SWAP1 SSTORE POP PUSH32 0xA97A4EE45751E2ABF3E4FC8946939630B11B371EA8AE39CCDC3056E98F5CC3F DUP2 DUP5 PUSH1 0x40 MLOAD PUSH2 0xCEA SWAP3 SWAP2 SWAP1 PUSH2 0x225F JUMP JUMPDEST PUSH1 0x40 MLOAD DUP1 SWAP2 SUB SWAP1 LOG1 POP POP POP JUMP JUMPDEST PUSH1 0x0 DUP1 PUSH1 0x0 SWAP1 SLOAD SWAP1 PUSH2 0x100 EXP SWAP1 DIV PUSH20 0xFFFFFFFFFFFFFFFFFFFFFFFFFFFFFFFFFFFFFFFF AND SWAP1 POP DUP2 PUSH1 0x0 DUP1 PUSH2 0x100 EXP DUP2 SLOAD DUP2 PUSH20 0xFFFFFFFFFFFFFFFFFFFFFFFFFFFFFFFFFFFFFFFF MUL NOT AND SWAP1 DUP4 PUSH20 0xFFFFFFFFFFFFFFFFFFFFFFFFFFFFFFFFFFFFFFFF AND MUL OR SWAP1 SSTORE POP DUP2 PUSH20 0xFFFFFFFFFFFFFFFFFFFFFFFFFFFFFFFFFFFFFFFF AND DUP2 PUSH20 0xFFFFFFFFFFFFFFFFFFFFFFFFFFFFFFFFFFFFFFFF AND PUSH32 0x8BE0079C531659141344CD1FD0A4F28419497F9722A3DAAFE3B4186F6B6457E0 PUSH1 0x40 MLOAD PUSH1 0x40 MLOAD DUP1 SWAP2 SUB SWAP1 LOG3 POP POP JUMP JUMPDEST PUSH1 0x3 PUSH1 0x5 DUP2 GT ISZERO PUSH2 0xDCF JUMPI PUSH2 0xDCE PUSH2 0x14A3 JUMP JUMPDEST JUMPDEST PUSH1 0x3 PUSH1 0x0 SWAP1 SLOAD SWAP1 PUSH2 0x100 EXP SWAP1 DIV PUSH1 0xFF AND PUSH1 0x5 DUP2 GT ISZERO PUSH2 0xDF1 JUMPI PUSH2 0xDF0 PUSH2 0x14A3 JUMP JUMPDEST JUMPDEST EQ PUSH2 0xE31 JUMPI PUSH1 0x40 MLOAD PUSH32 0x8C379A000000000000000000000000000000000000000000000000000000000 DUP2 MSTORE PUSH1 0x4 ADD PUSH2 0xE28 SWAP1 PUSH2 0x22D4 JUMP JUMPDEST PUSH1 0x40 MLOAD DUP1 SWAP2 SUB SWAP1 REVERT JUMPDEST JUMP JUMPDEST PUSH1 0x0 CALLER SWAP1 POP SWAP1 JUMP JUMPDEST PUSH1 0x0 PUSH1 0x5 DUP2 GT ISZERO PUSH2 0xE4F JUMPI PUSH2 0xE4E PUSH2 0x14A3 JUMP JUMPDEST JUMPDEST DUP2 PUSH1 0x5 DUP2 GT ISZERO PUSH2 0xE62 JUMPI PUSH2 0xE61 PUSH2 0x14A3 JUMP JUMPDEST JUMPDEST SUB PUSH2 0xF20 JUMPI PUSH1 0x0 PUSH1 0x5 DUP2 GT ISZERO PUSH2 0xE7B JUMPI PUSH2 0xE7A PUSH2 0x14A3 JUMP JUMPDEST JUMPDEST PUSH1 0x3 PUSH1 0x0 SWAP1 SLOAD SWAP1 PUSH2 0x100 EXP SWAP1 DIV PUSH1 0xFF AND PUSH1 0x5 DUP2 GT ISZERO PUSH2 0xE9D JUMPI PUSH2 0xE9C PUSH2 0x14A3 JUMP JUMPDEST JUMPDEST EQ DUP1 PUSH2 0xEDC JUMPI POP PUSH1 0x1 PUSH1 0x5 DUP2 GT ISZERO PUSH2 0xEB8 JUMPI PUSH2 0xEB7 PUSH2 0x14A3 JUMP JUMPDEST JUMPDEST PUSH1 0x3 PUSH1 0x0 SWAP1 SLOAD SWAP1 PUSH2 0x100 EXP SWAP1 DIV PUSH1 0xFF AND PUSH1 0x5 DUP2 GT ISZERO PUSH2 0xEDA JUMPI PUSH2 0xED9 PUSH2 0x14A3 JUMP JUMPDEST JUMPDEST EQ JUMPDEST PUSH2 0xF1B JUMPI PUSH1 0x40 MLOAD PUSH32 0x8C379A000000000000000000000000000000000000000000000000000000000 DUP2 MSTORE PUSH1 0x4 ADD PUSH2 0xF12 SWAP1 PUSH2 0x238C JUMP JUMPDEST PUSH1 0x40 MLOAD DUP1 SWAP2 SUB SWAP1 REVERT JUMPDEST PUSH2 0x135A JUMP JUMPDEST PUSH1 0x1 PUSH1 0x5 DUP2 GT ISZERO PUSH2 0xF34 JUMPI PUSH2 0xF33 PUSH2 0x14A3 JUMP JUMPDEST JUMPDEST DUP2 PUSH1 0x5 DUP2 GT ISZERO PUSH2 0xF47 JUMPI PUSH2 0xF46 PUSH2 0x14A3 JUMP JUMPDEST JUMPDEST SUB PUSH2 0x1005 JUMPI PUSH1 0x0 PUSH1 0x5 DUP2 GT ISZERO PUSH2 0xF60 JUMPI PUSH2 0xF5F PUSH2 0x14A3 JUMP JUMPDEST JUMPDEST PUSH1 0x3 PUSH1 0x0 SWAP1 SLOAD SWAP1 PUSH2 0x100 EXP SWAP1 DIV PUSH1 0xFF AND PUSH1 0x5 DUP2 GT ISZERO PUSH2 0xF82 JUMPI PUSH2 0xF81 PUSH2 0x14A3 JUMP JUMPDEST JUMPDEST EQ DUP1 PUSH2 0xFC1 JUMPI POP PUSH1 0x2 PUSH1 0x5 DUP2 GT ISZERO PUSH2 0xF9D JUMPI PUSH2 0xF9C PUSH2 0x14A3 JUMP JUMPDEST JUMPDEST PUSH1 0x3 PUSH1 0x0 SWAP1 SLOAD SWAP1 PUSH2 0x100 EXP SWAP1 DIV PUSH1 0xFF AND PUSH1 0x5 DUP2 GT ISZERO PUSH2 0xFBF JUMPI PUSH2 0xFBE PUSH2 0x14A3 JUMP JUMPDEST JUMPDEST EQ JUMPDEST PUSH2 0x1000 JUMPI PUSH1 0x40 MLOAD PUSH32 0x8C379A000000000000000000000000000000000000000000000000000000000 DUP2 MSTORE PUSH1 0x4 ADD PUSH2 0xFF7 SWAP1 PUSH2 0x238C JUMP JUMPDEST PUSH1 0x40 MLOAD DUP1 SWAP2 SUB SWAP1 REVERT JUMPDEST PUSH2 0x1359 JUMP JUMPDEST PUSH1 0x2 PUSH1 0x5 DUP2 GT ISZERO PUSH2 0x1019 JUMPI PUSH2 0x1018 PUSH2 0x14A3 JUMP JUMPDEST JUMPDEST DUP2 PUSH1 0x5 DUP2 GT ISZERO PUSH2 0x102C JUMPI PUSH2 0x102B PUSH2 0x14A3 JUMP JUMPDEST JUMPDEST SUB PUSH2 0x10EA JUMPI PUSH1 0x1 PUSH1 0x5 DUP2 GT ISZERO PUSH2 0x1045 JUMPI PUSH2 0x1044 PUSH2 0x14A3 JUMP JUMPDEST JUMPDEST PUSH1 0x3 PUSH1 0x0 SWAP1 SLOAD SWAP1 PUSH2 0x100 EXP SWAP1 DIV PUSH1 0xFF AND PUSH1 0x5 DUP2 GT ISZERO PUSH2 0x1067 JUMPI PUSH2 0x1066 PUSH2 0x14A3 JUMP JUMPDEST JUMPDEST EQ DUP1 PUSH2 0x10A6 JUMPI POP PUSH1 0x3 PUSH1 0x5 DUP2 GT ISZERO PUSH2 0x1082 JUMPI PUSH2 0x1081 PUSH2 0x14A3 JUMP JUMPDEST JUMPDEST PUSH1 0x3 PUSH1 0x0 SWAP1 SLOAD SWAP1 PUSH2 0x100 EXP SWAP1 DIV PUSH1 0xFF AND PUSH1 0x5 DUP2 GT ISZERO PUSH2 0x10A4 JUMPI PUSH2 0x10A3 PUSH2 0x14A3 JUMP JUMPDEST JUMPDEST EQ JUMPDEST PUSH2 0x10E5 JUMPI PUSH1 0x40 MLOAD PUSH32 0x8C379A000000000000000000000000000000000000000000000000000000000 DUP2 MSTORE PUSH1 0x4 ADD PUSH2 0x10DC SWAP1 PUSH2 0x238C JUMP JUMPDEST PUSH1 0x40 MLOAD DUP1 SWAP2 SUB SWAP1 REVERT JUMPDEST PUSH2 0x1358 JUMP JUMPDEST PUSH1 0x3 PUSH1 0x5 DUP2 GT ISZERO PUSH2 0x10FE JUMPI PUSH2 0x10FD PUSH2 0x14A3 JUMP JUMPDEST JUMPDEST DUP2 PUSH1 0x5 DUP2 GT ISZERO PUSH2 0x1111 JUMPI PUSH2 0x1110 PUSH2 0x14A3 JUMP JUMPDEST JUMPDEST SUB PUSH2 0x11CF JUMPI PUSH1 0x2 PUSH1 0x5 DUP2 GT ISZERO PUSH2 0x112A JUMPI PUSH2 0x1129 PUSH2 0x14A3 JUMP JUMPDEST JUMPDEST PUSH1 0x3 PUSH1 0x0 SWAP1 SLOAD SWAP1 PUSH2 0x100 EXP SWAP1 DIV PUSH1 0xFF AND PUSH1 0x5 DUP2 GT ISZERO PUSH2 0x114C JUMPI PUSH2 0x114B PUSH2 0x14A3 JUMP JUMPDEST JUMPDEST EQ DUP1 PUSH2 0x118B JUMPI POP PUSH1 0x4 PUSH1 0x5 DUP2 GT ISZERO PUSH2 0x1167 JUMPI PUSH2 0x1166 PUSH2 0x14A3 JUMP JUMPDEST JUMPDEST PUSH1 0x3 PUSH1 0x0 SWAP1 SLOAD SWAP1 PUSH2 0x100 EXP SWAP1 DIV PUSH1 0xFF AND PUSH1 0x5 DUP2 GT ISZERO PUSH2 0x1189 JUMPI PUSH2 0x1188 PUSH2 0x14A3 JUMP JUMPDEST JUMPDEST EQ JUMPDEST PUSH2 0x11CA JUMPI PUSH1 0x40 MLOAD PUSH32 0x8C379A000000000000000000000000000000000000000000000000000000000 DUP2 MSTORE PUSH1 0x4 ADD PUSH2 0x11C1 SWAP1 PUSH2 0x238C JUMP JUMPDEST PUSH1 0x40 MLOAD DUP1 SWAP2 SUB SWAP1 REVERT JUMPDEST PUSH2 0x1357 JUMP JUMPDEST PUSH1 0x4 PUSH1 0x5 DUP2 GT ISZERO PUSH2 0x11E3 JUMPI PUSH2 0x11E2 PUSH2 0x14A3 JUMP JUMPDEST JUMPDEST DUP2 PUSH1 0x5 DUP2 GT ISZERO PUSH2 0x11F6 JUMPI PUSH2 0x11F5 PUSH2 0x14A3 JUMP JUMPDEST JUMPDEST SUB PUSH2 0x12B3 JUMPI PUSH1 0x3 PUSH1 0x5 DUP2 GT ISZERO PUSH2 0x120F JUMPI PUSH2 0x120E PUSH2 0x14A3 JUMP JUMPDEST JUMPDEST PUSH1 0x3 PUSH1 0x0 SWAP1 SLOAD SWAP1 PUSH2 0x100 EXP SWAP1 DIV PUSH1 0xFF AND PUSH1 0x5 DUP2 GT ISZERO PUSH2 0x1231 JUMPI PUSH2 0x1230 PUSH2 0x14A3 JUMP JUMPDEST JUMPDEST EQ DUP1 PUSH2 0x126F JUMPI POP PUSH1 0x5 DUP1 DUP2 GT ISZERO PUSH2 0x124B JUMPI PUSH2 0x124A PUSH2 0x14A3 JUMP JUMPDEST JUMPDEST PUSH1 0x3 PUSH1 0x0 SWAP1 SLOAD SWAP1 PUSH2 0x100 EXP SWAP1 DIV PUSH1 0xFF AND PUSH1 0x5 DUP2 GT ISZERO PUSH2 0x126D JUMPI PUSH2 0x126C PUSH2 0x14A3 JUMP JUMPDEST JUMPDEST EQ JUMPDEST PUSH2 0x12AE JUMPI PUSH1 0x40 MLOAD PUSH32 0x8C379A000000000000000000000000000000000000000000000000000000000 DUP2 MSTORE PUSH1 0x4 ADD PUSH2 0x12A5 SWAP1 PUSH2 0x238C JUMP JUMPDEST PUSH1 0x40 MLOAD DUP1 SWAP2 SUB SWAP1 REVERT JUMPDEST PUSH2 0x1356 JUMP JUMPDEST PUSH1 0x5 DUP1 DUP2 GT ISZERO PUSH2 0x12C6 JUMPI PUSH2 0x12C5 PUSH2 0x14A3 JUMP JUMPDEST JUMPDEST DUP2 PUSH1 0x5 DUP2 GT ISZERO PUSH2 0x12D9 JUMPI PUSH2 0x12D8 PUSH2 0x14A3 JUMP JUMPDEST JUMPDEST SUB PUSH2 0x1355 JUMPI PUSH1 0x4 PUSH1 0x5 DUP2 GT ISZERO PUSH2 0x12F2 JUMPI PUSH2 0x12F1 PUSH2 0x14A3 JUMP JUMPDEST JUMPDEST PUSH1 0x3 PUSH1 0x0 SWAP1 SLOAD SWAP1 PUSH2 0x100 EXP SWAP1 DIV PUSH1 0xFF AND PUSH1 0x5 DUP2 GT ISZERO PUSH2 0x1314 JUMPI PUSH2 0x1313 PUSH2 0x14A3 JUMP JUMPDEST JUMPDEST EQ PUSH2 0x1354 JUMPI PUSH1 0x40 MLOAD PUSH32 0x8C379A000000000000000000000000000000000000000000000000000000000 DUP2 MSTORE PUSH1 0x4 ADD PUSH2 0x134B SWAP1 PUSH2 0x238C JUMP JUMPDEST PUSH1 0x40 MLOAD DUP1 SWAP2 SUB SWAP1 REVERT JUMPDEST JUMPDEST JUMPDEST JUMPDEST JUMPDEST JUMPDEST JUMPDEST POP JUMP JUMPDEST PUSH1 0x0 PUSH1 0x40 MLOAD SWAP1 POP SWAP1 JUMP JUMPDEST PUSH1 0x0 DUP1 REVERT JUMPDEST PUSH1 0x0 DUP1 REVERT JUMPDEST PUSH1 0x0 DUP2 SWAP1 POP SWAP2 SWAP1 POP JUMP JUMPDEST PUSH2 0x1384 DUP2 PUSH2 0x1371 JUMP JUMPDEST DUP2 EQ PUSH2 0x138F JUMPI PUSH1 0x0 DUP1 REVERT JUMPDEST POP JUMP JUMPDEST PUSH1 0x0 DUP2 CALLDATALOAD SWAP1 POP PUSH2 0x13A1 DUP2 PUSH2 0x137B JUMP JUMPDEST SWAP3 SWAP2 POP POP JUMP JUMPDEST PUSH1 0x0 PUSH1 0x20 DUP3 DUP5 SUB SLT ISZERO PUSH2 0x13BD JUMPI PUSH2 0x13BC PUSH2 0x1367 JUMP JUMPDEST JUMPDEST PUSH1 0x0 PUSH2 0x13CB DUP5 DUP3 DUP6 ADD PUSH2 0x1392 JUMP JUMPDEST SWAP2 POP POP SWAP3 SWAP2 POP POP JUMP JUMPDEST PUSH1 0x0 DUP2 MLOAD SWAP1 POP SWAP2 SWAP1 POP JUMP JUMPDEST PUSH1 0x0 DUP3 DUP3 MSTORE PUSH1 0x20 DUP3 ADD SWAP1 POP SWAP3 SWAP2 POP POP JUMP JUMPDEST PUSH1 0x0 JUMPDEST DUP4 DUP2 LT ISZERO PUSH2 0x140E JUMPI DUP1 DUP3 ADD MLOAD DUP2 DUP5 ADD MSTORE PUSH1 0x20 DUP2 ADD SWAP1 POP PUSH2 0x13F3 JUMP JUMPDEST PUSH1 0x0 DUP5 DUP5 ADD MSTORE POP POP POP POP JUMP JUMPDEST PUSH1 0x0 PUSH1 0x1F NOT PUSH1 0x1F DUP4 ADD AND SWAP1 POP SWAP2 SWAP1 POP JUMP JUMPDEST PUSH1 0x0 PUSH2 0x1436 DUP3 PUSH2 0x13D4 JUMP JUMPDEST PUSH2 0x1440 DUP2 DUP6 PUSH2 0x13DF JUMP JUMPDEST SWAP4 POP PUSH2 0x1450 DUP2 DUP6 PUSH1 0x20 DUP7 ADD PUSH2 0x13F0 JUMP JUMPDEST PUSH2 0x1459 DUP2 PUSH2 0x141A JUMP JUMPDEST DUP5 ADD SWAP2 POP POP SWAP3 SWAP2 POP POP JUMP JUMPDEST PUSH2 0x146D DUP2 PUSH2 0x1371 JUMP JUMPDEST DUP3 MSTORE POP POP JUMP JUMPDEST PUSH1 0x0 PUSH1 0x40 DUP3 ADD SWAP1 POP DUP2 DUP2 SUB PUSH1 0x0 DUP4 ADD MSTORE PUSH2 0x148D DUP2 DUP6 PUSH2 0x142B JUMP JUMPDEST SWAP1 POP PUSH2 0x149C PUSH1 0x20 DUP4 ADD DUP5 PUSH2 0x1464 JUMP JUMPDEST SWAP4 SWAP3 POP POP POP JUMP JUMPDEST PUSH32 0x4E487B7100000000000000000000000000000000000000000000000000000000 PUSH1 0x0 MSTORE PUSH1 0x21 PUSH1 0x4 MSTORE PUSH1 0x24 PUSH1 0x0 REVERT JUMPDEST PUSH1 0x6 DUP2 LT PUSH2 0x14E3 JUMPI PUSH2 0x14E2 PUSH2 0x14A3 JUMP JUMPDEST JUMPDEST POP JUMP JUMPDEST PUSH1 0x0 DUP2 SWAP1 POP PUSH2 0x14F4 DUP3 PUSH2 0x14D2 JUMP JUMPDEST SWAP2 SWAP1 POP JUMP JUMPDEST PUSH1 0x0 PUSH2 0x1504 DUP3 PUSH2 0x14E6 JUMP JUMPDEST SWAP1 POP SWAP2 SWAP1 POP JUMP JUMPDEST PUSH2 0x1514 DUP2 PUSH2 0x14F9 JUMP JUMPDEST DUP3 MSTORE POP POP JUMP JUMPDEST PUSH1 0x0 PUSH1 0x20 DUP3 ADD SWAP1 POP PUSH2 0x152F PUSH1 0x0 DUP4 ADD DUP5 PUSH2 0x150B JUMP JUMPDEST SWAP3 SWAP2 POP POP JUMP JUMPDEST PUSH1 0x0 DUP1 REVERT JUMPDEST PUSH1 0x0 DUP1 REVERT JUMPDEST PUSH32 0x4E487B7100000000000000000000000000000000000000000000000000000000 PUSH1 0x0 MSTORE PUSH1 0x41 PUSH1 0x4 MSTORE PUSH1 0x24 PUSH1 0x0 REVERT JUMPDEST PUSH2 0x1577 DUP3 PUSH2 0x141A JUMP JUMPDEST DUP2 ADD DUP2 DUP2 LT PUSH8 0xFFFFFFFFFFFFFFFF DUP3 GT OR ISZERO PUSH2 0x1596 JUMPI PUSH2 0x1595 PUSH2 0x153F JUMP JUMPDEST JUMPDEST DUP1 PUSH1 0x40 MSTORE POP POP POP JUMP JUMPDEST PUSH1 0x0 PUSH2 0x15A9 PUSH2 0x135D JUMP JUMPDEST SWAP1 POP PUSH2 0x15B5 DUP3 DUP3 PUSH2 0x156E JUMP JUMPDEST SWAP2 SWAP1 POP JUMP JUMPDEST PUSH1 0x0 PUSH8 0xFFFFFFFFFFFFFFFF DUP3 GT ISZERO PUSH2 0x15D5 JUMPI PUSH2 0x15D4 PUSH2 0x153F JUMP JUMPDEST JUMPDEST PUSH2 0x15DE DUP3 PUSH2 0x141A JUMP JUMPDEST SWAP1 POP PUSH1 0x20 DUP2 ADD SWAP1 POP SWAP2 SWAP1 POP JUMP JUMPDEST DUP3 DUP2 DUP4 CALLDATACOPY PUSH1 0x0 DUP4 DUP4 ADD MSTORE POP POP POP JUMP JUMPDEST PUSH1 0x0 PUSH2 0x160D PUSH2 0x1608 DUP5 PUSH2 0x15BA JUMP JUMPDEST PUSH2 0x159F JUMP JUMPDEST SWAP1 POP DUP3 DUP2 MSTORE PUSH1 0x20 DUP2 ADD DUP5 DUP5 DUP5 ADD GT ISZERO PUSH2 0x1629 JUMPI PUSH2 0x1628 PUSH2 0x153A JUMP JUMPDEST JUMPDEST PUSH2 0x1634 DUP5 DUP3 DUP6 PUSH2 0x15EB JUMP JUMPDEST POP SWAP4 SWAP3 POP POP POP JUMP JUMPDEST PUSH1 0x0 DUP3 PUSH1 0x1F DUP4 ADD SLT PUSH2 0x1651 JUMPI PUSH2 0x1650 PUSH2 0x1535 JUMP JUMPDEST JUMPDEST DUP2 CALLDATALOAD PUSH2 0x1661 DUP5 DUP3 PUSH1 0x20 DUP7 ADD PUSH2 0x15FA JUMP JUMPDEST SWAP2 POP POP SWAP3 SWAP2 POP POP JUMP JUMPDEST PUSH1 0x0 PUSH1 0x20 DUP3 DUP5 SUB SLT ISZERO PUSH2 0x1680 JUMPI PUSH2 0x167F PUSH2 0x1367 JUMP JUMPDEST JUMPDEST PUSH1 0x0 DUP3 ADD CALLDATALOAD PUSH8 0xFFFFFFFFFFFFFFFF DUP2 GT ISZERO PUSH2 0x169E JUMPI PUSH2 0x169D PUSH2 0x136C JUMP JUMPDEST JUMPDEST PUSH2 0x16AA DUP5 DUP3 DUP6 ADD PUSH2 0x163C JUMP JUMPDEST SWAP2 POP POP SWAP3 SWAP2 POP POP JUMP JUMPDEST PUSH1 0x0 PUSH20 0xFFFFFFFFFFFFFFFFFFFFFFFFFFFFFFFFFFFFFFFF DUP3 AND SWAP1 POP SWAP2 SWAP1 POP JUMP JUMPDEST PUSH1 0x0 PUSH2 0x16DE DUP3 PUSH2 0x16B3 JUMP JUMPDEST SWAP1 POP SWAP2 SWAP1 POP JUMP JUMPDEST PUSH2 0x16EE DUP2 PUSH2 0x16D3 JUMP JUMPDEST DUP2 EQ PUSH2 0x16F9 JUMPI PUSH1 0x0 DUP1 REVERT JUMPDEST POP JUMP JUMPDEST PUSH1 0x0 DUP2 CALLDATALOAD SWAP1 POP PUSH2 0x170B DUP2 PUSH2 0x16E5 JUMP JUMPDEST SWAP3 SWAP2 POP POP JUMP JUMPDEST PUSH1 0x0 PUSH1 0x20 DUP3 DUP5 SUB SLT ISZERO PUSH2 0x1727 JUMPI PUSH2 0x1726 PUSH2 0x1367 JUMP JUMPDEST JUMPDEST PUSH1 0x0 PUSH2 0x1735 DUP5 DUP3 DUP6 ADD PUSH2 0x16FC JUMP JUMPDEST SWAP2 POP POP SWAP3 SWAP2 POP POP JUMP JUMPDEST PUSH1 0x0 DUP2 MLOAD SWAP1 POP SWAP2 SWAP1 POP JUMP JUMPDEST PUSH1 0x0 DUP3 DUP3 MSTORE PUSH1 0x20 DUP3 ADD SWAP1 POP SWAP3 SWAP2 POP POP JUMP JUMPDEST PUSH1 0x0 DUP2 SWAP1 POP PUSH1 0x20 DUP3 ADD SWAP1 POP SWAP2 SWAP1 POP JUMP JUMPDEST PUSH1 0x0 DUP3 DUP3 MSTORE PUSH1 0x20 DUP3 ADD SWAP1 POP SWAP3 SWAP2 POP POP JUMP JUMPDEST PUSH1 0x0 PUSH2 0x1786 DUP3 PUSH2 0x13D4 JUMP JUMPDEST PUSH2 0x1790 DUP2 DUP6 PUSH2 0x176A JUMP JUMPDEST SWAP4 POP PUSH2 0x17A0 DUP2 DUP6 PUSH1 0x20 DUP7 ADD PUSH2 0x13F0 JUMP JUMPDEST PUSH2 0x17A9 DUP2 PUSH2 0x141A JUMP JUMPDEST DUP5 ADD SWAP2 POP POP SWAP3 SWAP2 POP POP JUMP JUMPDEST PUSH2 0x17BD DUP2 PUSH2 0x1371 JUMP JUMPDEST DUP3 MSTORE POP POP JUMP JUMPDEST PUSH1 0x0 PUSH1 0x40 DUP4 ADD PUSH1 0x0 DUP4 ADD MLOAD DUP5 DUP3 SUB PUSH1 0x0 DUP7 ADD MSTORE PUSH2 0x17E0 DUP3 DUP3 PUSH2 0x177B JUMP JUMPDEST SWAP2 POP POP PUSH1 0x20 DUP4 ADD MLOAD PUSH2 0x17F5 PUSH1 0x20 DUP7 ADD DUP3 PUSH2 0x17B4 JUMP JUMPDEST POP DUP1 SWAP2 POP POP SWAP3 SWAP2 POP POP JUMP JUMPDEST PUSH1 0x0 PUSH2 0x180C DUP4 DUP4 PUSH2 0x17C3 JUMP JUMPDEST SWAP1 POP SWAP3 SWAP2 POP POP JUMP JUMPDEST PUSH1 0x0 PUSH1 0x20 DUP3 ADD SWAP1 POP SWAP2 SWAP1 POP JUMP JUMPDEST PUSH1 0x0 PUSH2 0x182C DUP3 PUSH2 0x173E JUMP JUMPDEST PUSH2 0x1836 DUP2 DUP6 PUSH2 0x1749 JUMP JUMPDEST SWAP4 POP DUP4 PUSH1 0x20 DUP3 MUL DUP6 ADD PUSH2 0x1848 DUP6 PUSH2 0x175A JUMP JUMPDEST DUP1 PUSH1 0x0 JUMPDEST DUP6 DUP2 LT ISZERO PUSH2 0x1884 JUMPI DUP5 DUP5 SUB DUP10 MSTORE DUP2 MLOAD PUSH2 0x1865 DUP6 DUP3 PUSH2 0x1800 JUMP JUMPDEST SWAP5 POP PUSH2 0x1870 DUP4 PUSH2 0x1814 JUMP JUMPDEST SWAP3 POP PUSH1 0x20 DUP11 ADD SWAP10 POP POP PUSH1 0x1 DUP2 ADD SWAP1 POP PUSH2 0x184C JUMP JUMPDEST POP DUP3 SWAP8 POP DUP8 SWAP6 POP POP POP POP POP POP SWAP3 SWAP2 POP POP JUMP JUMPDEST PUSH1 0x0 PUSH1 0x20 DUP3 ADD SWAP1 POP DUP2 DUP2 SUB PUSH1 0x0 DUP4 ADD MSTORE PUSH2 0x18B0 DUP2 DUP5 PUSH2 0x1821 JUMP JUMPDEST SWAP1 POP SWAP3 SWAP2 POP POP JUMP JUMPDEST PUSH2 0x18C1 DUP2 PUSH2 0x16D3 JUMP JUMPDEST DUP3 MSTORE POP POP JUMP JUMPDEST PUSH1 0x0 PUSH1 0x20 DUP3 ADD SWAP1 POP PUSH2 0x18DC PUSH1 0x0 DUP4 ADD DUP5 PUSH2 0x18B8 JUMP JUMPDEST SWAP3 SWAP2 POP POP JUMP JUMPDEST PUSH1 0x0 DUP2 ISZERO ISZERO SWAP1 POP SWAP2 SWAP1 POP JUMP JUMPDEST PUSH2 0x18F7 DUP2 PUSH2 0x18E2 JUMP JUMPDEST DUP3 MSTORE POP POP JUMP JUMPDEST PUSH1 0x0 PUSH1 0x60 DUP3 ADD SWAP1 POP PUSH2 0x1912 PUSH1 0x0 DUP4 ADD DUP7 PUSH2 0x18EE JUMP JUMPDEST PUSH2 0x191F PUSH1 0x20 DUP4 ADD DUP6 PUSH2 0x18EE JUMP JUMPDEST PUSH2 0x192C PUSH1 0x40 DUP4 ADD DUP5 PUSH2 0x1464 JUMP JUMPDEST SWAP5 SWAP4 POP POP POP POP JUMP JUMPDEST PUSH1 0x0 PUSH8 0xFFFFFFFFFFFFFFFF DUP3 GT ISZERO PUSH2 0x194F JUMPI PUSH2 0x194E PUSH2 0x153F JUMP JUMPDEST JUMPDEST PUSH1 0x20 DUP3 MUL SWAP1 POP PUSH1 0x20 DUP2 ADD SWAP1 POP SWAP2 SWAP1 POP JUMP JUMPDEST PUSH1 0x0 DUP1 REVERT JUMPDEST PUSH1 0x0 PUSH2 0x1978 PUSH2 0x1973 DUP5 PUSH2 0x1934 JUMP JUMPDEST PUSH2 0x159F JUMP JUMPDEST SWAP1 POP DUP1 DUP4 DUP3 MSTORE PUSH1 0x20 DUP3 ADD SWAP1 POP PUSH1 0x20 DUP5 MUL DUP4 ADD DUP6 DUP2 GT ISZERO PUSH2 0x199B JUMPI PUSH2 0x199A PUSH2 0x1960 JUMP JUMPDEST JUMPDEST DUP4 JUMPDEST DUP2 DUP2 LT ISZERO PUSH2 0x19C4 JUMPI DUP1 PUSH2 0x19B0 DUP9 DUP3 PUSH2 0x16FC JUMP JUMPDEST DUP5 MSTORE PUSH1 0x20 DUP5 ADD SWAP4 POP POP PUSH1 0x20 DUP2 ADD SWAP1 POP PUSH2 0x199D JUMP JUMPDEST POP POP POP SWAP4 SWAP3 POP POP POP JUMP JUMPDEST PUSH1 0x0 DUP3 PUSH1 0x1F DUP4 ADD SLT PUSH2 0x19E3 JUMPI PUSH2 0x19E2 PUSH2 0x1535 JUMP JUMPDEST JUMPDEST DUP2 CALLDATALOAD PUSH2 0x19F3 DUP5 DUP3 PUSH1 0x20 DUP7 ADD PUSH2 0x1965 JUMP JUMPDEST SWAP2 POP POP SWAP3 SWAP2 POP POP JUMP JUMPDEST PUSH1 0x0 PUSH1 0x20 DUP3 DUP5 SUB SLT ISZERO PUSH2 0x1A12 JUMPI PUSH2 0x1A11 PUSH2 0x1367 JUMP JUMPDEST JUMPDEST PUSH1 0x0 DUP3 ADD CALLDATALOAD PUSH8 0xFFFFFFFFFFFFFFFF DUP2 GT ISZERO PUSH2 0x1A30 JUMPI PUSH2 0x1A2F PUSH2 0x136C JUMP JUMPDEST JUMPDEST PUSH2 0x1A3C DUP5 DUP3 DUP6 ADD PUSH2 0x19CE JUMP JUMPDEST SWAP2 POP POP SWAP3 SWAP2 POP POP JUMP JUMPDEST PUSH32 0x4E487B7100000000000000000000000000000000000000000000000000000000 PUSH1 0x0 MSTORE PUSH1 0x22 PUSH1 0x4 MSTORE PUSH1 0x24 PUSH1 0x0 REVERT JUMPDEST PUSH1 0x0 PUSH1 0x2 DUP3 DIV SWAP1 POP PUSH1 0x1 DUP3 AND DUP1 PUSH2 0x1A8C JUMPI PUSH1 0x7F DUP3 AND SWAP2 POP JUMPDEST PUSH1 0x20 DUP3 LT DUP2 SUB PUSH2 0x1A9F JUMPI PUSH2 0x1A9E PUSH2 0x1A45 JUMP JUMPDEST JUMPDEST POP SWAP2 SWAP1 POP JUMP JUMPDEST PUSH1 0x0 DUP2 SWAP1 POP DUP2 PUSH1 0x0 MSTORE PUSH1 0x20 PUSH1 0x0 KECCAK256 SWAP1 POP SWAP2 SWAP1 POP JUMP JUMPDEST PUSH1 0x0 PUSH1 0x20 PUSH1 0x1F DUP4 ADD DIV SWAP1 POP SWAP2 SWAP1 POP JUMP JUMPDEST PUSH1 0x0 DUP3 DUP3 SHL SWAP1 POP SWAP3 SWAP2 POP POP JUMP JUMPDEST PUSH1 0x0 PUSH1 0x8 DUP4 MUL PUSH2 0x1B07 PUSH32 0xFFFFFFFFFFFFFFFFFFFFFFFFFFFFFFFFFFFFFFFFFFFFFFFFFFFFFFFFFFFFFFFF DUP3 PUSH2 0x1ACA JUMP JUMPDEST PUSH2 0x1B11 DUP7 DUP4 PUSH2 0x1ACA JUMP JUMPDEST SWAP6 POP DUP1 NOT DUP5 AND SWAP4 POP DUP1 DUP7 AND DUP5 OR SWAP3 POP POP POP SWAP4 SWAP3 POP POP POP JUMP JUMPDEST PUSH1 0x0 DUP2 SWAP1 POP SWAP2 SWAP1 POP JUMP JUMPDEST PUSH1 0x0 PUSH2 0x1B4E PUSH2 0x1B49 PUSH2 0x1B44 DUP5 PUSH2 0x1371 JUMP JUMPDEST PUSH2 0x1B29 JUMP JUMPDEST PUSH2 0x1371 JUMP JUMPDEST SWAP1 POP SWAP2 SWAP1 POP JUMP JUMPDEST PUSH1 0x0 DUP2 SWAP1 POP SWAP2 SWAP1 POP JUMP JUMPDEST PUSH2 0x1B68 DUP4 PUSH2 0x1B33 JUMP JUMPDEST PUSH2 0x1B7C PUSH2 0x1B74 DUP3 PUSH2 0x1B55 JUMP JUMPDEST DUP5 DUP5 SLOAD PUSH2 0x1AD7 JUMP JUMPDEST DUP3 SSTORE POP POP POP POP JUMP JUMPDEST PUSH1 0x0 SWAP1 JUMP JUMPDEST PUSH2 0x1B91 PUSH2 0x1B84 JUMP JUMPDEST PUSH2 0x1B9C DUP2 DUP5 DUP5 PUSH2 0x1B5F JUMP JUMPDEST POP POP POP JUMP JUMPDEST JUMPDEST DUP2 DUP2 LT ISZERO PUSH2 0x1BC0 JUMPI PUSH2 0x1BB5 PUSH1 0x0 DUP3 PUSH2 0x1B89 JUMP JUMPDEST PUSH1 0x1 DUP2 ADD SWAP1 POP PUSH2 0x1BA2 JUMP JUMPDEST POP POP JUMP JUMPDEST PUSH1 0x1F DUP3 GT ISZERO PUSH2 0x1C05 JUMPI PUSH2 0x1BD6 DUP2 PUSH2 0x1AA5 JUMP JUMPDEST PUSH2 0x1BDF DUP5 PUSH2 0x1ABA JUMP JUMPDEST DUP2 ADD PUSH1 0x20 DUP6 LT ISZERO PUSH2 0x1BEE JUMPI DUP2 SWAP1 POP JUMPDEST PUSH2 0x1C02 PUSH2 0x1BFA DUP6 PUSH2 0x1ABA JUMP JUMPDEST DUP4 ADD DUP3 PUSH2 0x1BA1 JUMP JUMPDEST POP POP JUMPDEST POP POP POP JUMP JUMPDEST PUSH1 0x0 DUP3 DUP3 SHR SWAP1 POP SWAP3 SWAP2 POP POP JUMP JUMPDEST PUSH1 0x0 PUSH2 0x1C28 PUSH1 0x0 NOT DUP5 PUSH1 0x8 MUL PUSH2 0x1C0A JUMP JUMPDEST NOT DUP1 DUP4 AND SWAP2 POP POP SWAP3 SWAP2 POP POP JUMP JUMPDEST PUSH1 0x0 PUSH2 0x1C41 DUP4 DUP4 PUSH2 0x1C17 JUMP JUMPDEST SWAP2 POP DUP3 PUSH1 0x2 MUL DUP3 OR SWAP1 POP SWAP3 SWAP2 POP POP JUMP JUMPDEST PUSH2 0x1C5A DUP3 PUSH2 0x13D4 JUMP JUMPDEST PUSH8 0xFFFFFFFFFFFFFFFF DUP2 GT ISZERO PUSH2 0x1C73 JUMPI PUSH2 0x1C72 PUSH2 0x153F JUMP JUMPDEST JUMPDEST PUSH2 0x1C7D DUP3 SLOAD PUSH2 0x1A74 JUMP JUMPDEST PUSH2 0x1C88 DUP3 DUP3 DUP6 PUSH2 0x1BC4 JUMP JUMPDEST PUSH1 0x0 PUSH1 0x20 SWAP1 POP PUSH1 0x1F DUP4 GT PUSH1 0x1 DUP2 EQ PUSH2 0x1CBB JUMPI PUSH1 0x0 DUP5 ISZERO PUSH2 0x1CA9 JUMPI DUP3 DUP8 ADD MLOAD SWAP1 POP JUMPDEST PUSH2 0x1CB3 DUP6 DUP3 PUSH2 0x1C35 JUMP JUMPDEST DUP7 SSTORE POP PUSH2 0x1D1B JUMP JUMPDEST PUSH1 0x1F NOT DUP5 AND PUSH2 0x1CC9 DUP7 PUSH2 0x1AA5 JUMP JUMPDEST PUSH1 0x0 JUMPDEST DUP3 DUP2 LT ISZERO PUSH2 0x1CF1 JUMPI DUP5 DUP10 ADD MLOAD DUP3 SSTORE PUSH1 0x1 DUP3 ADD SWAP2 POP PUSH1 0x20 DUP6 ADD SWAP5 POP PUSH1 0x20 DUP2 ADD SWAP1 POP PUSH2 0x1CCC JUMP JUMPDEST DUP7 DUP4 LT ISZERO PUSH2 0x1D0E JUMPI DUP5 DUP10 ADD MLOAD PUSH2 0x1D0A PUSH1 0x1F DUP10 AND DUP3 PUSH2 0x1C17 JUMP JUMPDEST DUP4 SSTORE POP JUMPDEST PUSH1 0x1 PUSH1 0x2 DUP9 MUL ADD DUP9 SSTORE POP POP POP JUMPDEST POP POP POP POP POP POP JUMP JUMPDEST PUSH32 0x4E487B7100000000000000000000000000000000000000000000000000000000 PUSH1 0x0 MSTORE PUSH1 0x11 PUSH1 0x4 MSTORE PUSH1 0x24 PUSH1 0x0 REVERT JUMPDEST PUSH1 0x0 PUSH2 0x1D5D DUP3 PUSH2 0x1371 JUMP JUMPDEST SWAP2 POP PUSH2 0x1D68 DUP4 PUSH2 0x1371 JUMP JUMPDEST SWAP3 POP DUP3 DUP3 SUB SWAP1 POP DUP2 DUP2 GT ISZERO PUSH2 0x1D80 JUMPI PUSH2 0x1D7F PUSH2 0x1D23 JUMP JUMPDEST JUMPDEST SWAP3 SWAP2 POP POP JUMP JUMPDEST PUSH1 0x0 PUSH1 0x20 DUP3 ADD SWAP1 POP PUSH2 0x1D9B PUSH1 0x0 DUP4 ADD DUP5 PUSH2 0x1464 JUMP JUMPDEST SWAP3 SWAP2 POP POP JUMP JUMPDEST PUSH32 0x4E487B7100000000000000000000000000000000000000000000000000000000 PUSH1 0x0 MSTORE PUSH1 0x32 PUSH1 0x4 MSTORE PUSH1 0x24 PUSH1 0x0 REVERT JUMPDEST PUSH1 0x0 PUSH2 0x1DDB DUP3 PUSH2 0x1371 JUMP JUMPDEST SWAP2 POP PUSH32 0xFFFFFFFFFFFFFFFFFFFFFFFFFFFFFFFFFFFFFFFFFFFFFFFFFFFFFFFFFFFFFFFF DUP3 SUB PUSH2 0x1E0D JUMPI PUSH2 0x1E0C PUSH2 0x1D23 JUMP JUMPDEST JUMPDEST PUSH1 0x1 DUP3 ADD SWAP1 POP SWAP2 SWAP1 POP JUMP JUMPDEST PUSH32 0x4F776E61626C653A206E6577206F776E657220697320746865207A65726F2061 PUSH1 0x0 DUP3 ADD MSTORE PUSH32 0x6464726573730000000000000000000000000000000000000000000000000000 PUSH1 0x20 DUP3 ADD MSTORE POP JUMP JUMPDEST PUSH1 0x0 PUSH2 0x1E74 PUSH1 0x26 DUP4 PUSH2 0x13DF JUMP JUMPDEST SWAP2 POP PUSH2 0x1E7F DUP3 PUSH2 0x1E18 JUMP JUMPDEST PUSH1 0x40 DUP3 ADD SWAP1 POP SWAP2 SWAP1 POP JUMP JUMPDEST PUSH1 0x0 PUSH1 0x20 DUP3 ADD SWAP1 POP DUP2 DUP2 SUB PUSH1 0x0 DUP4 ADD MSTORE PUSH2 0x1EA3 DUP2 PUSH2 0x1E67 JUMP JUMPDEST SWAP1 POP SWAP2 SWAP1 POP JUMP JUMPDEST PUSH32 0x596F75206861766520616C726561647920766F7465642E204F6E6C79206F6E65 PUSH1 0x0 DUP3 ADD MSTORE PUSH32 0x20766F746520697320616C6C6F77656400000000000000000000000000000000 PUSH1 0x20 DUP3 ADD MSTORE POP JUMP JUMPDEST PUSH1 0x0 PUSH2 0x1F06 PUSH1 0x30 DUP4 PUSH2 0x13DF JUMP JUMPDEST SWAP2 POP PUSH2 0x1F11 DUP3 PUSH2 0x1EAA JUMP JUMPDEST PUSH1 0x40 DUP3 ADD SWAP1 POP SWAP2 SWAP1 POP JUMP JUMPDEST PUSH1 0x0 PUSH1 0x20 DUP3 ADD SWAP1 POP DUP2 DUP2 SUB PUSH1 0x0 DUP4 ADD MSTORE PUSH2 0x1F35 DUP2 PUSH2 0x1EF9 JUMP JUMPDEST SWAP1 POP SWAP2 SWAP1 POP JUMP JUMPDEST PUSH32 0x50726F706F73616C20496420646F65736E27742065786973742E20506C656173 PUSH1 0x0 DUP3 ADD MSTORE PUSH32 0x652073656C65637420612076616C69642070726F706F73616C20496400000000 PUSH1 0x20 DUP3 ADD MSTORE POP JUMP JUMPDEST PUSH1 0x0 PUSH2 0x1F98 PUSH1 0x3C DUP4 PUSH2 0x13DF JUMP JUMPDEST SWAP2 POP PUSH2 0x1FA3 DUP3 PUSH2 0x1F3C JUMP JUMPDEST PUSH1 0x40 DUP3 ADD SWAP1 POP SWAP2 SWAP1 POP JUMP JUMPDEST PUSH1 0x0 PUSH1 0x20 DUP3 ADD SWAP1 POP DUP2 DUP2 SUB PUSH1 0x0 DUP4 ADD MSTORE PUSH2 0x1FC7 DUP2 PUSH2 0x1F8B JUMP JUMPDEST SWAP1 POP SWAP2 SWAP1 POP JUMP JUMPDEST PUSH1 0x0 PUSH1 0x40 DUP3 ADD SWAP1 POP PUSH2 0x1FE3 PUSH1 0x0 DUP4 ADD DUP6 PUSH2 0x18B8 JUMP JUMPDEST PUSH2 0x1FF0 PUSH1 0x20 DUP4 ADD DUP5 PUSH2 0x1464 JUMP JUMPDEST SWAP4 SWAP3 POP POP POP JUMP JUMPDEST PUSH32 0x4F6E6C792077686974656C697374656420766F74657273206172652061757468 PUSH1 0x0 DUP3 ADD MSTORE PUSH32 0x6F72697A656420746F20646F207468697320616374696F6E2E00000000000000 PUSH1 0x20 DUP3 ADD MSTORE POP JUMP JUMPDEST PUSH1 0x0 PUSH2 0x2053 PUSH1 0x39 DUP4 PUSH2 0x13DF JUMP JUMPDEST SWAP2 POP PUSH2 0x205E DUP3 PUSH2 0x1FF7 JUMP JUMPDEST PUSH1 0x40 DUP3 ADD SWAP1 POP SWAP2 SWAP1 POP JUMP JUMPDEST PUSH1 0x0 PUSH1 0x20 DUP3 ADD SWAP1 POP DUP2 DUP2 SUB PUSH1 0x0 DUP4 ADD MSTORE PUSH2 0x2082 DUP2 PUSH2 0x2046 JUMP JUMPDEST SWAP1 POP SWAP2 SWAP1 POP JUMP JUMPDEST PUSH32 0x50726F706F73616C20726567697374726174696F6E20697320636C6F7365642E PUSH1 0x0 DUP3 ADD MSTORE POP JUMP JUMPDEST PUSH1 0x0 PUSH2 0x20BF PUSH1 0x20 DUP4 PUSH2 0x13DF JUMP JUMPDEST SWAP2 POP PUSH2 0x20CA DUP3 PUSH2 0x2089 JUMP JUMPDEST PUSH1 0x20 DUP3 ADD SWAP1 POP SWAP2 SWAP1 POP JUMP JUMPDEST PUSH1 0x0 PUSH1 0x20 DUP3 ADD SWAP1 POP DUP2 DUP2 SUB PUSH1 0x0 DUP4 ADD MSTORE PUSH2 0x20EE DUP2 PUSH2 0x20B2 JUMP JUMPDEST SWAP1 POP SWAP2 SWAP1 POP JUMP JUMPDEST PUSH32 0x4F776E61626C653A2063616C6C6572206973206E6F7420746865206F776E6572 PUSH1 0x0 DUP3 ADD MSTORE POP JUMP JUMPDEST PUSH1 0x0 PUSH2 0x212B PUSH1 0x20 DUP4 PUSH2 0x13DF JUMP JUMPDEST SWAP2 POP PUSH2 0x2136 DUP3 PUSH2 0x20F5 JUMP JUMPDEST PUSH1 0x20 DUP3 ADD SWAP1 POP SWAP2 SWAP1 POP JUMP JUMPDEST PUSH1 0x0 PUSH1 0x20 DUP3 ADD SWAP1 POP DUP2 DUP2 SUB PUSH1 0x0 DUP4 ADD MSTORE PUSH2 0x215A DUP2 PUSH2 0x211E JUMP JUMPDEST SWAP1 POP SWAP2 SWAP1 POP JUMP JUMPDEST PUSH32 0x526567697374726174696F6E20706572696F6420666F7220766F746572206973 PUSH1 0x0 DUP3 ADD MSTORE PUSH32 0x20636C6F7365642E000000000000000000000000000000000000000000000000 PUSH1 0x20 DUP3 ADD MSTORE POP JUMP JUMPDEST PUSH1 0x0 PUSH2 0x21BD PUSH1 0x28 DUP4 PUSH2 0x13DF JUMP JUMPDEST SWAP2 POP PUSH2 0x21C8 DUP3 PUSH2 0x2161 JUMP JUMPDEST PUSH1 0x40 DUP3 ADD SWAP1 POP SWAP2 SWAP1 POP JUMP JUMPDEST PUSH1 0x0 PUSH1 0x20 DUP3 ADD SWAP1 POP DUP2 DUP2 SUB PUSH1 0x0 DUP4 ADD MSTORE PUSH2 0x21EC DUP2 PUSH2 0x21B0 JUMP JUMPDEST SWAP1 POP SWAP2 SWAP1 POP JUMP JUMPDEST PUSH32 0x566F74696E67206973206E6F7420636C6F7365642E0000000000000000000000 PUSH1 0x0 DUP3 ADD MSTORE POP JUMP JUMPDEST PUSH1 0x0 PUSH2 0x2229 PUSH1 0x15 DUP4 PUSH2 0x13DF JUMP JUMPDEST SWAP2 POP PUSH2 0x2234 DUP3 PUSH2 0x21F3 JUMP JUMPDEST PUSH1 0x20 DUP3 ADD SWAP1 POP SWAP2 SWAP1 POP JUMP JUMPDEST PUSH1 0x0 PUSH1 0x20 DUP3 ADD SWAP1 POP DUP2 DUP2 SUB PUSH1 0x0 DUP4 ADD MSTORE PUSH2 0x2258 DUP2 PUSH2 0x221C JUMP JUMPDEST SWAP1 POP SWAP2 SWAP1 POP JUMP JUMPDEST PUSH1 0x0 PUSH1 0x40 DUP3 ADD SWAP1 POP PUSH2 0x2274 PUSH1 0x0 DUP4 ADD DUP6 PUSH2 0x150B JUMP JUMPDEST PUSH2 0x2281 PUSH1 0x20 DUP4 ADD DUP5 PUSH2 0x150B JUMP JUMPDEST SWAP4 SWAP3 POP POP POP JUMP JUMPDEST PUSH32 0x566F74696E672073657373696F6E20697320636C6F7365642E00000000000000 PUSH1 0x0 DUP3 ADD MSTORE POP JUMP JUMPDEST PUSH1 0x0 PUSH2 0x22BE PUSH1 0x19 DUP4 PUSH2 0x13DF JUMP JUMPDEST SWAP2 POP PUSH2 0x22C9 DUP3 PUSH2 0x2288 JUMP JUMPDEST PUSH1 0x20 DUP3 ADD SWAP1 POP SWAP2 SWAP1 POP JUMP JUMPDEST PUSH1 0x0 PUSH1 0x20 DUP3 ADD SWAP1 POP DUP2 DUP2 SUB PUSH1 0x0 DUP4 ADD MSTORE PUSH2 0x22ED DUP2 PUSH2 0x22B1 JUMP JUMPDEST SWAP1 POP SWAP2 SWAP1 POP JUMP JUMPDEST PUSH32 0x41637475616C20737461747573206973206E6F7420636F6D70617469626C6520 PUSH1 0x0 DUP3 ADD MSTORE PUSH32 0x7769746820796F75722063686F696365202863686F6F73652070726576696F75 PUSH1 0x20 DUP3 ADD MSTORE PUSH32 0x73206F6E65206F72206E657874206F6E65290000000000000000000000000000 PUSH1 0x40 DUP3 ADD MSTORE POP JUMP JUMPDEST PUSH1 0x0 PUSH2 0x2376 PUSH1 0x52 DUP4 PUSH2 0x13DF JUMP JUMPDEST SWAP2 POP PUSH2 0x2381 DUP3 PUSH2 0x22F4 JUMP JUMPDEST PUSH1 0x60 DUP3 ADD SWAP1 POP SWAP2 SWAP1 POP JUMP JUMPDEST PUSH1 0x0 PUSH1 0x20 DUP3 ADD SWAP1 POP DUP2 DUP2 SUB PUSH1 0x0 DUP4 ADD MSTORE PUSH2 0x23A5 DUP2 PUSH2 0x2369 JUMP JUMPDEST SWAP1 POP SWAP2 SWAP1 POP JUMP INVALID LOG2 PUSH5 0x6970667358 0x22 SLT KECCAK256 0xDE 0x4C ADD PUSH2 0xCAD5 SWAP6 0xF6 0xBD 0x4E DUP6 PUSH30 0x1219F2D1D4E8AE643C1942B0AD4177C3EB105C0364736F6C634300081200 CALLER "
				},
				"gasEstimates": {
					"creation": {
						"codeDepositCost": "1837200",
						"executionCost": "infinite",
						"totalCost": "infinite"
					},
					"external": {
						"computeWinningProposal()": "infinite",
						"getProposals()": "infinite",
						"owner()": "2544",
						"proposals(uint256)": "infinite",
						"registerProposal(string)": "infinite",
						"registerVoter(address)": "infinite",
						"registerVoters(address[])": "infinite",
						"renounceOwnership()": "30398",
						"status()": "2583",
						"transferOwnership(address)": "30832",
						"voting(uint256)": "infinite",
						"whitelist(address)": "infinite"
					},
					"internal": {
						"_isConsistantStatus(enum Voting.WorkflowStatus)": "infinite",
						"_isProposalsRegistrationStarted()": "infinite",
						"_isRegisteringVotersStatus()": "infinite",
						"_isVotingSessionEnded()": "infinite",
						"_isVotingSessionStarted()": "infinite",
						"_isWhitelisted()": "infinite",
						"setStatus(enum Voting.WorkflowStatus)": "infinite"
					}
				},
				"methodIdentifiers": {
					"computeWinningProposal()": "6a00600c",
					"getProposals()": "62564c48",
					"owner()": "8da5cb5b",
					"proposals(uint256)": "013cf08b",
					"registerProposal(string)": "2f95355b",
					"registerVoter(address)": "38db6dd3",
					"registerVoters(address[])": "d55ec9c1",
					"renounceOwnership()": "715018a6",
					"status()": "200d2ed2",
					"transferOwnership(address)": "f2fde38b",
					"voting(uint256)": "fd4a77f1",
					"whitelist(address)": "9b19251a"
				}
			},
			"storageLayout": {
				"storage": [
					{
						"astId": 7,
						"contract": "Voting/Voting.sol:Voting",
						"label": "_owner",
						"offset": 0,
						"slot": "0",
						"type": "t_address"
					},
					{
						"astId": 163,
						"contract": "Voting/Voting.sol:Voting",
						"label": "whitelist",
						"offset": 0,
						"slot": "1",
						"type": "t_mapping(t_address,t_struct(Voter)153_storage)"
					},
					{
						"astId": 167,
						"contract": "Voting/Voting.sol:Voting",
						"label": "proposals",
						"offset": 0,
						"slot": "2",
						"type": "t_array(t_struct(Proposal)158_storage)dyn_storage"
					},
					{
						"astId": 170,
						"contract": "Voting/Voting.sol:Voting",
						"label": "status",
						"offset": 0,
						"slot": "3",
						"type": "t_enum(WorkflowStatus)146"
					},
					{
						"astId": 172,
						"contract": "Voting/Voting.sol:Voting",
						"label": "winningProposalId",
						"offset": 0,
						"slot": "4",
						"type": "t_uint256"
					}
				],
				"types": {
					"t_address": {
						"encoding": "inplace",
						"label": "address",
						"numberOfBytes": "20"
					},
					"t_array(t_struct(Proposal)158_storage)dyn_storage": {
						"base": "t_struct(Proposal)158_storage",
						"encoding": "dynamic_array",
						"label": "struct Voting.Proposal[]",
						"numberOfBytes": "32"
					},
					"t_bool": {
						"encoding": "inplace",
						"label": "bool",
						"numberOfBytes": "1"
					},
					"t_enum(WorkflowStatus)146": {
						"encoding": "inplace",
						"label": "enum Voting.WorkflowStatus",
						"numberOfBytes": "1"
					},
					"t_mapping(t_address,t_struct(Voter)153_storage)": {
						"encoding": "mapping",
						"key": "t_address",
						"label": "mapping(address => struct Voting.Voter)",
						"numberOfBytes": "32",
						"value": "t_struct(Voter)153_storage"
					},
					"t_string_storage": {
						"encoding": "bytes",
						"label": "string",
						"numberOfBytes": "32"
					},
					"t_struct(Proposal)158_storage": {
						"encoding": "inplace",
						"label": "struct Voting.Proposal",
						"members": [
							{
								"astId": 155,
								"contract": "Voting/Voting.sol:Voting",
								"label": "description",
								"offset": 0,
								"slot": "0",
								"type": "t_string_storage"
							},
							{
								"astId": 157,
								"contract": "Voting/Voting.sol:Voting",
								"label": "voteCount",
								"offset": 0,
								"slot": "1",
								"type": "t_uint256"
							}
						],
						"numberOfBytes": "64"
					},
					"t_struct(Voter)153_storage": {
						"encoding": "inplace",
						"label": "struct Voting.Voter",
						"members": [
							{
								"astId": 148,
								"contract": "Voting/Voting.sol:Voting",
								"label": "isRegistered",
								"offset": 0,
								"slot": "0",
								"type": "t_bool"
							},
							{
								"astId": 150,
								"contract": "Voting/Voting.sol:Voting",
								"label": "hasVoted",
								"offset": 1,
								"slot": "0",
								"type": "t_bool"
							},
							{
								"astId": 152,
								"contract": "Voting/Voting.sol:Voting",
								"label": "votedProposalId",
								"offset": 0,
								"slot": "1",
								"type": "t_uint256"
							}
						],
						"numberOfBytes": "64"
					},
					"t_uint256": {
						"encoding": "inplace",
						"label": "uint256",
						"numberOfBytes": "32"
					}
				}
			},
			"userdoc": {
				"kind": "user",
				"methods": {},
				"version": 1
			}
		}
	}
}