{
	"Voting/Voting.sol": {
		"Voting": {
			"abi": [
				{
					"anonymous": false,
					"inputs": [
						{
							"indexed": true,
							"internalType": "address",
							"name": "previousOwner",
							"type": "address"
						},
						{
							"indexed": true,
							"internalType": "address",
							"name": "newOwner",
							"type": "address"
						}
					],
					"name": "OwnershipTransferred",
					"type": "event"
				},
				{
					"anonymous": false,
					"inputs": [
						{
							"indexed": false,
							"internalType": "uint256",
							"name": "proposalId",
							"type": "uint256"
						}
					],
					"name": "ProposalRegistered",
					"type": "event"
				},
				{
					"anonymous": false,
					"inputs": [
						{
							"indexed": false,
							"internalType": "address",
							"name": "voter",
							"type": "address"
						},
						{
							"indexed": false,
							"internalType": "uint256",
							"name": "proposalId",
							"type": "uint256"
						}
					],
					"name": "Voted",
					"type": "event"
				},
				{
					"anonymous": false,
					"inputs": [
						{
							"indexed": false,
							"internalType": "address",
							"name": "voterAddress",
							"type": "address"
						}
					],
					"name": "VoterRegistered",
					"type": "event"
				},
				{
					"anonymous": false,
					"inputs": [
						{
							"indexed": false,
							"internalType": "enum Voting.WorkflowStatus",
							"name": "previousStatus",
							"type": "uint8"
						},
						{
							"indexed": false,
							"internalType": "enum Voting.WorkflowStatus",
							"name": "newStatus",
							"type": "uint8"
						}
					],
					"name": "WorkflowStatusChange",
					"type": "event"
				},
				{
					"inputs": [],
					"name": "StartProposalsRegistration",
					"outputs": [],
					"stateMutability": "nonpayable",
					"type": "function"
				},
				{
					"inputs": [],
					"name": "StartRegisteringVoters",
					"outputs": [],
					"stateMutability": "nonpayable",
					"type": "function"
				},
				{
					"inputs": [],
					"name": "StartVotingSession",
					"outputs": [],
					"stateMutability": "nonpayable",
					"type": "function"
				},
				{
					"inputs": [],
					"name": "StopProposalsRegistration",
					"outputs": [],
					"stateMutability": "nonpayable",
					"type": "function"
				},
				{
					"inputs": [],
					"name": "StopVotingSession",
					"outputs": [],
					"stateMutability": "nonpayable",
					"type": "function"
				},
				{
					"inputs": [],
					"name": "discoverWinningProposal",
					"outputs": [],
					"stateMutability": "nonpayable",
					"type": "function"
				},
				{
					"inputs": [
						{
							"internalType": "address",
							"name": "_address",
							"type": "address"
						}
					],
					"name": "getProposalVotedForUser",
					"outputs": [
						{
							"internalType": "string",
							"name": "",
							"type": "string"
						}
					],
					"stateMutability": "view",
					"type": "function"
				},
				{
					"inputs": [],
					"name": "getProposals",
					"outputs": [
						{
							"components": [
								{
									"internalType": "string",
									"name": "description",
									"type": "string"
								},
								{
									"internalType": "uint256",
									"name": "voteCount",
									"type": "uint256"
								}
							],
							"internalType": "struct Voting.Proposal[]",
							"name": "",
							"type": "tuple[]"
						}
					],
					"stateMutability": "view",
					"type": "function"
				},
				{
					"inputs": [],
					"name": "getWinningProposalDetails",
					"outputs": [
						{
							"components": [
								{
									"internalType": "string",
									"name": "description",
									"type": "string"
								},
								{
									"internalType": "uint256",
									"name": "voteCount",
									"type": "uint256"
								}
							],
							"internalType": "struct Voting.Proposal",
							"name": "",
							"type": "tuple"
						}
					],
					"stateMutability": "view",
					"type": "function"
				},
				{
					"inputs": [],
					"name": "owner",
					"outputs": [
						{
							"internalType": "address",
							"name": "",
							"type": "address"
						}
					],
					"stateMutability": "view",
					"type": "function"
				},
				{
					"inputs": [
						{
							"internalType": "uint256",
							"name": "",
							"type": "uint256"
						}
					],
					"name": "proposals",
					"outputs": [
						{
							"internalType": "string",
							"name": "description",
							"type": "string"
						},
						{
							"internalType": "uint256",
							"name": "voteCount",
							"type": "uint256"
						}
					],
					"stateMutability": "view",
					"type": "function"
				},
				{
					"inputs": [
						{
							"internalType": "string",
							"name": "_description",
							"type": "string"
						}
					],
					"name": "registerProposal",
					"outputs": [],
					"stateMutability": "nonpayable",
					"type": "function"
				},
				{
					"inputs": [
						{
							"internalType": "address",
							"name": "_voterAdress",
							"type": "address"
						}
					],
					"name": "registerVoter",
					"outputs": [],
					"stateMutability": "nonpayable",
					"type": "function"
				},
				{
					"inputs": [
						{
							"internalType": "address[]",
							"name": "_votersAdresses",
							"type": "address[]"
						}
					],
					"name": "registerVoters",
					"outputs": [],
					"stateMutability": "nonpayable",
					"type": "function"
				},
				{
					"inputs": [],
					"name": "renounceOwnership",
					"outputs": [],
					"stateMutability": "nonpayable",
					"type": "function"
				},
				{
					"inputs": [],
					"name": "status",
					"outputs": [
						{
							"internalType": "enum Voting.WorkflowStatus",
							"name": "",
							"type": "uint8"
						}
					],
					"stateMutability": "view",
					"type": "function"
				},
				{
					"inputs": [
						{
							"internalType": "address",
							"name": "newOwner",
							"type": "address"
						}
					],
					"name": "transferOwnership",
					"outputs": [],
					"stateMutability": "nonpayable",
					"type": "function"
				},
				{
					"inputs": [
						{
							"internalType": "uint256",
							"name": "_proposalId",
							"type": "uint256"
						}
					],
					"name": "voting",
					"outputs": [],
					"stateMutability": "nonpayable",
					"type": "function"
				}
			],
			"devdoc": {
				"kind": "dev",
				"methods": {
					"owner()": {
						"details": "Returns the address of the current owner."
					},
					"renounceOwnership()": {
						"details": "Leaves the contract without owner. It will not be possible to call `onlyOwner` functions anymore. Can only be called by the current owner. NOTE: Renouncing ownership will leave the contract without an owner, thereby removing any functionality that is only available to the owner."
					},
					"transferOwnership(address)": {
						"details": "Transfers ownership of the contract to a new account (`newOwner`). Can only be called by the current owner."
					}
				},
				"version": 1
			},
			"evm": {
				"assembly": "    /* \"Voting/Voting.sol\":115:9045  contract Voting is Ownable {... */\n  mstore(0x40, 0x80)\n  callvalue\n  dup1\n  iszero\n  tag_1\n  jumpi\n  0x00\n  dup1\n  revert\ntag_1:\n  pop\n    /* \"@openzeppelin/contracts/access/Ownable.sol\":936:968  _transferOwnership(_msgSender()) */\n  tag_4\n    /* \"@openzeppelin/contracts/access/Ownable.sol\":955:967  _msgSender() */\n  tag_5\n    /* \"@openzeppelin/contracts/access/Ownable.sol\":955:965  _msgSender */\n  shl(0x20, tag_6)\n    /* \"@openzeppelin/contracts/access/Ownable.sol\":955:967  _msgSender() */\n  0x20\n  shr\n  jump\t// in\ntag_5:\n    /* \"@openzeppelin/contracts/access/Ownable.sol\":936:954  _transferOwnership */\n  shl(0x20, tag_7)\n    /* \"@openzeppelin/contracts/access/Ownable.sol\":936:968  _transferOwnership(_msgSender()) */\n  0x20\n  shr\n  jump\t// in\ntag_4:\n    /* \"Voting/Voting.sol\":115:9045  contract Voting is Ownable {... */\n  jump(tag_8)\n    /* \"@openzeppelin/contracts/utils/Context.sol\":640:736  function _msgSender() internal view virtual returns (address) {... */\ntag_6:\n    /* \"@openzeppelin/contracts/utils/Context.sol\":693:700  address */\n  0x00\n    /* \"@openzeppelin/contracts/utils/Context.sol\":719:729  msg.sender */\n  caller\n    /* \"@openzeppelin/contracts/utils/Context.sol\":712:729  return msg.sender */\n  swap1\n  pop\n    /* \"@openzeppelin/contracts/utils/Context.sol\":640:736  function _msgSender() internal view virtual returns (address) {... */\n  swap1\n  jump\t// out\n    /* \"@openzeppelin/contracts/access/Ownable.sol\":2433:2620  function _transferOwnership(address newOwner) internal virtual {... */\ntag_7:\n    /* \"@openzeppelin/contracts/access/Ownable.sol\":2506:2522  address oldOwner */\n  0x00\n    /* \"@openzeppelin/contracts/access/Ownable.sol\":2525:2531  _owner */\n  dup1\n  0x00\n  swap1\n  sload\n  swap1\n  0x0100\n  exp\n  swap1\n  div\n  0xffffffffffffffffffffffffffffffffffffffff\n  and\n    /* \"@openzeppelin/contracts/access/Ownable.sol\":2506:2531  address oldOwner = _owner */\n  swap1\n  pop\n    /* \"@openzeppelin/contracts/access/Ownable.sol\":2550:2558  newOwner */\n  dup2\n    /* \"@openzeppelin/contracts/access/Ownable.sol\":2541:2547  _owner */\n  0x00\n  dup1\n    /* \"@openzeppelin/contracts/access/Ownable.sol\":2541:2558  _owner = newOwner */\n  0x0100\n  exp\n  dup2\n  sload\n  dup2\n  0xffffffffffffffffffffffffffffffffffffffff\n  mul\n  not\n  and\n  swap1\n  dup4\n  0xffffffffffffffffffffffffffffffffffffffff\n  and\n  mul\n  or\n  swap1\n  sstore\n  pop\n    /* \"@openzeppelin/contracts/access/Ownable.sol\":2604:2612  newOwner */\n  dup2\n    /* \"@openzeppelin/contracts/access/Ownable.sol\":2573:2613  OwnershipTransferred(oldOwner, newOwner) */\n  0xffffffffffffffffffffffffffffffffffffffff\n  and\n    /* \"@openzeppelin/contracts/access/Ownable.sol\":2594:2602  oldOwner */\n  dup2\n    /* \"@openzeppelin/contracts/access/Ownable.sol\":2573:2613  OwnershipTransferred(oldOwner, newOwner) */\n  0xffffffffffffffffffffffffffffffffffffffff\n  and\n  0x8be0079c531659141344cd1fd0a4f28419497f9722a3daafe3b4186f6b6457e0\n  mload(0x40)\n  mload(0x40)\n  dup1\n  swap2\n  sub\n  swap1\n  log3\n    /* \"@openzeppelin/contracts/access/Ownable.sol\":2496:2620  {... */\n  pop\n    /* \"@openzeppelin/contracts/access/Ownable.sol\":2433:2620  function _transferOwnership(address newOwner) internal virtual {... */\n  pop\n  jump\t// out\n    /* \"Voting/Voting.sol\":115:9045  contract Voting is Ownable {... */\ntag_8:\n  dataSize(sub_0)\n  dup1\n  dataOffset(sub_0)\n  0x00\n  codecopy\n  0x00\n  return\nstop\n\nsub_0: assembly {\n        /* \"Voting/Voting.sol\":115:9045  contract Voting is Ownable {... */\n      mstore(0x40, 0x80)\n      callvalue\n      dup1\n      iszero\n      tag_1\n      jumpi\n      0x00\n      dup1\n      revert\n    tag_1:\n      pop\n      jumpi(tag_2, lt(calldatasize, 0x04))\n      shr(0xe0, calldataload(0x00))\n      dup1\n      0x715018a6\n      gt\n      tag_21\n      jumpi\n      dup1\n      0xb11accff\n      gt\n      tag_22\n      jumpi\n      dup1\n      0xb11accff\n      eq\n      tag_16\n      jumpi\n      dup1\n      0xb741bb7c\n      eq\n      tag_17\n      jumpi\n      dup1\n      0xd55ec9c1\n      eq\n      tag_18\n      jumpi\n      dup1\n      0xf2fde38b\n      eq\n      tag_19\n      jumpi\n      dup1\n      0xfd4a77f1\n      eq\n      tag_20\n      jumpi\n      jump(tag_2)\n    tag_22:\n      dup1\n      0x715018a6\n      eq\n      tag_12\n      jumpi\n      dup1\n      0x7b3d7042\n      eq\n      tag_13\n      jumpi\n      dup1\n      0x7f320070\n      eq\n      tag_14\n      jumpi\n      dup1\n      0x8da5cb5b\n      eq\n      tag_15\n      jumpi\n      jump(tag_2)\n    tag_21:\n      dup1\n      0x200d2ed2\n      gt\n      tag_23\n      jumpi\n      dup1\n      0x200d2ed2\n      eq\n      tag_7\n      jumpi\n      dup1\n      0x2f95355b\n      eq\n      tag_8\n      jumpi\n      dup1\n      0x38db6dd3\n      eq\n      tag_9\n      jumpi\n      dup1\n      0x62564c48\n      eq\n      tag_10\n      jumpi\n      dup1\n      0x6f475856\n      eq\n      tag_11\n      jumpi\n      jump(tag_2)\n    tag_23:\n      dup1\n      0x013cf08b\n      eq\n      tag_3\n      jumpi\n      dup1\n      0x0c491a3a\n      eq\n      tag_4\n      jumpi\n      dup1\n      0x11f80b4f\n      eq\n      tag_5\n      jumpi\n      dup1\n      0x1bcb1eed\n      eq\n      tag_6\n      jumpi\n    tag_2:\n      0x00\n      dup1\n      revert\n        /* \"Voting/Voting.sol\":717:744  Proposal[] public proposals */\n    tag_3:\n      tag_24\n      0x04\n      dup1\n      calldatasize\n      sub\n      dup2\n      add\n      swap1\n      tag_25\n      swap2\n      swap1\n      tag_26\n      jump\t// in\n    tag_25:\n      tag_27\n      jump\t// in\n    tag_24:\n      mload(0x40)\n      tag_28\n      swap3\n      swap2\n      swap1\n      tag_29\n      jump\t// in\n    tag_28:\n      mload(0x40)\n      dup1\n      swap2\n      sub\n      swap1\n      return\n        /* \"Voting/Voting.sol\":8019:8519  function discoverWinningProposal() ... */\n    tag_4:\n      tag_30\n      tag_31\n      jump\t// in\n    tag_30:\n      stop\n        /* \"Voting/Voting.sol\":5304:5412  function StartRegisteringVoters() external ... */\n    tag_5:\n      tag_32\n      tag_33\n      jump\t// in\n    tag_32:\n      stop\n        /* \"Voting/Voting.sol\":5673:5780  function StartVotingSession() external ... */\n    tag_6:\n      tag_34\n      tag_35\n      jump\t// in\n    tag_34:\n      stop\n        /* \"Voting/Voting.sol\":776:804  WorkflowStatus public status */\n    tag_7:\n      tag_36\n      tag_37\n      jump\t// in\n    tag_36:\n      mload(0x40)\n      tag_38\n      swap2\n      swap1\n      tag_39\n      jump\t// in\n    tag_38:\n      mload(0x40)\n      dup1\n      swap2\n      sub\n      swap1\n      return\n        /* \"Voting/Voting.sol\":6765:7014  function registerProposal(string memory _description)... */\n    tag_8:\n      tag_40\n      0x04\n      dup1\n      calldatasize\n      sub\n      dup2\n      add\n      swap1\n      tag_41\n      swap2\n      swap1\n      tag_42\n      jump\t// in\n    tag_41:\n      tag_43\n      jump\t// in\n    tag_40:\n      stop\n        /* \"Voting/Voting.sol\":5932:6250  function registerVoter(address _voterAdress)... */\n    tag_9:\n      tag_44\n      0x04\n      dup1\n      calldatasize\n      sub\n      dup2\n      add\n      swap1\n      tag_45\n      swap2\n      swap1\n      tag_46\n      jump\t// in\n    tag_45:\n      tag_47\n      jump\t// in\n    tag_44:\n      stop\n        /* \"Voting/Voting.sol\":7315:7412  function getProposals() public view returns (Proposal[] memory) {... */\n    tag_10:\n      tag_48\n      tag_49\n      jump\t// in\n    tag_48:\n      mload(0x40)\n      tag_50\n      swap2\n      swap1\n      tag_51\n      jump\t// in\n    tag_50:\n      mload(0x40)\n      dup1\n      swap2\n      sub\n      swap1\n      return\n        /* \"Voting/Voting.sol\":5547:5667  function StopProposalsRegistration() external ... */\n    tag_11:\n      tag_52\n      tag_53\n      jump\t// in\n    tag_52:\n      stop\n        /* \"@openzeppelin/contracts/access/Ownable.sol\":1831:1932  function renounceOwnership() public virtual onlyOwner {... */\n    tag_12:\n      tag_54\n      tag_55\n      jump\t// in\n    tag_54:\n      stop\n        /* \"Voting/Voting.sol\":5418:5541  function StartProposalsRegistration() external ... */\n    tag_13:\n      tag_56\n      tag_57\n      jump\t// in\n    tag_56:\n      stop\n        /* \"Voting/Voting.sol\":5786:5890  function StopVotingSession() external ... */\n    tag_14:\n      tag_58\n      tag_59\n      jump\t// in\n    tag_58:\n      stop\n        /* \"@openzeppelin/contracts/access/Ownable.sol\":1201:1286  function owner() public view virtual returns (address) {... */\n    tag_15:\n      tag_60\n      tag_61\n      jump\t// in\n    tag_60:\n      mload(0x40)\n      tag_62\n      swap2\n      swap1\n      tag_63\n      jump\t// in\n    tag_62:\n      mload(0x40)\n      dup1\n      swap2\n      sub\n      swap1\n      return\n        /* \"Voting/Voting.sol\":8525:8706  function getWinningProposalDetails() ... */\n    tag_16:\n      tag_64\n      tag_65\n      jump\t// in\n    tag_64:\n      mload(0x40)\n      tag_66\n      swap2\n      swap1\n      tag_67\n      jump\t// in\n    tag_66:\n      mload(0x40)\n      dup1\n      swap2\n      sub\n      swap1\n      return\n        /* \"Voting/Voting.sol\":8714:9043  function getProposalVotedForUser(address _address)... */\n    tag_17:\n      tag_68\n      0x04\n      dup1\n      calldatasize\n      sub\n      dup2\n      add\n      swap1\n      tag_69\n      swap2\n      swap1\n      tag_46\n      jump\t// in\n    tag_69:\n      tag_70\n      jump\t// in\n    tag_68:\n      mload(0x40)\n      tag_71\n      swap2\n      swap1\n      tag_72\n      jump\t// in\n    tag_71:\n      mload(0x40)\n      dup1\n      swap2\n      sub\n      swap1\n      return\n        /* \"Voting/Voting.sol\":6301:6720  function registerVoters(address[] memory _votersAdresses)... */\n    tag_18:\n      tag_73\n      0x04\n      dup1\n      calldatasize\n      sub\n      dup2\n      add\n      swap1\n      tag_74\n      swap2\n      swap1\n      tag_75\n      jump\t// in\n    tag_74:\n      tag_76\n      jump\t// in\n    tag_73:\n      stop\n        /* \"@openzeppelin/contracts/access/Ownable.sol\":2081:2279  function transferOwnership(address newOwner) public virtual onlyOwner {... */\n    tag_19:\n      tag_77\n      0x04\n      dup1\n      calldatasize\n      sub\n      dup2\n      add\n      swap1\n      tag_78\n      swap2\n      swap1\n      tag_46\n      jump\t// in\n    tag_78:\n      tag_79\n      jump\t// in\n    tag_77:\n      stop\n        /* \"Voting/Voting.sol\":7418:8013  function voting(uint _proposalId)... */\n    tag_20:\n      tag_80\n      0x04\n      dup1\n      calldatasize\n      sub\n      dup2\n      add\n      swap1\n      tag_81\n      swap2\n      swap1\n      tag_26\n      jump\t// in\n    tag_81:\n      tag_82\n      jump\t// in\n    tag_80:\n      stop\n        /* \"Voting/Voting.sol\":717:744  Proposal[] public proposals */\n    tag_27:\n      0x02\n      dup2\n      dup2\n      sload\n      dup2\n      lt\n      tag_83\n      jumpi\n      0x00\n      dup1\n      revert\n    tag_83:\n      swap1\n      0x00\n      mstore\n      keccak256(0x00, 0x20)\n      swap1\n      0x02\n      mul\n      add\n      0x00\n      swap2\n      pop\n      swap1\n      pop\n      dup1\n      0x00\n      add\n      dup1\n      sload\n      tag_85\n      swap1\n      tag_86\n      jump\t// in\n    tag_85:\n      dup1\n      0x1f\n      add\n      0x20\n      dup1\n      swap2\n      div\n      mul\n      0x20\n      add\n      mload(0x40)\n      swap1\n      dup2\n      add\n      0x40\n      mstore\n      dup1\n      swap3\n      swap2\n      swap1\n      dup2\n      dup2\n      mstore\n      0x20\n      add\n      dup3\n      dup1\n      sload\n      tag_87\n      swap1\n      tag_86\n      jump\t// in\n    tag_87:\n      dup1\n      iszero\n      tag_88\n      jumpi\n      dup1\n      0x1f\n      lt\n      tag_89\n      jumpi\n      0x0100\n      dup1\n      dup4\n      sload\n      div\n      mul\n      dup4\n      mstore\n      swap2\n      0x20\n      add\n      swap2\n      jump(tag_88)\n    tag_89:\n      dup3\n      add\n      swap2\n      swap1\n      0x00\n      mstore\n      keccak256(0x00, 0x20)\n      swap1\n    tag_90:\n      dup2\n      sload\n      dup2\n      mstore\n      swap1\n      0x01\n      add\n      swap1\n      0x20\n      add\n      dup1\n      dup4\n      gt\n      tag_90\n      jumpi\n      dup3\n      swap1\n      sub\n      0x1f\n      and\n      dup3\n      add\n      swap2\n    tag_88:\n      pop\n      pop\n      pop\n      pop\n      pop\n      swap1\n      dup1\n      0x01\n      add\n      sload\n      swap1\n      pop\n      dup3\n      jump\t// out\n        /* \"Voting/Voting.sol\":8019:8519  function discoverWinningProposal() ... */\n    tag_31:\n        /* \"@openzeppelin/contracts/access/Ownable.sol\":1094:1107  _checkOwner() */\n      tag_92\n        /* \"@openzeppelin/contracts/access/Ownable.sol\":1094:1105  _checkOwner */\n      tag_93\n        /* \"@openzeppelin/contracts/access/Ownable.sol\":1094:1107  _checkOwner() */\n      jump\t// in\n    tag_92:\n        /* \"Voting/Voting.sol\":1637:1660  _isVotingSessionEnded() */\n      tag_95\n        /* \"Voting/Voting.sol\":1637:1658  _isVotingSessionEnded */\n      tag_96\n        /* \"Voting/Voting.sol\":1637:1660  _isVotingSessionEnded() */\n      jump\t// in\n    tag_95:\n        /* \"Voting/Voting.sol\":8135:8148  uint maxVotes */\n      0x00\n        /* \"Voting/Voting.sol\":8162:8188  uint tempWinningProposalId */\n      dup1\n        /* \"Voting/Voting.sol\":8203:8209  uint i */\n      dup1\n        /* \"Voting/Voting.sol\":8212:8213  0 */\n      0x00\n        /* \"Voting/Voting.sol\":8203:8213  uint i = 0 */\n      swap1\n      pop\n        /* \"Voting/Voting.sol\":8198:8414  for (uint i = 0; i < proposals.length; i++) {... */\n    tag_98:\n        /* \"Voting/Voting.sol\":8219:8228  proposals */\n      0x02\n        /* \"Voting/Voting.sol\":8219:8235  proposals.length */\n      dup1\n      sload\n      swap1\n      pop\n        /* \"Voting/Voting.sol\":8215:8216  i */\n      dup2\n        /* \"Voting/Voting.sol\":8215:8235  i < proposals.length */\n      lt\n        /* \"Voting/Voting.sol\":8198:8414  for (uint i = 0; i < proposals.length; i++) {... */\n      iszero\n      tag_99\n      jumpi\n        /* \"Voting/Voting.sol\":8285:8293  maxVotes */\n      dup3\n        /* \"Voting/Voting.sol\":8260:8269  proposals */\n      0x02\n        /* \"Voting/Voting.sol\":8270:8271  i */\n      dup3\n        /* \"Voting/Voting.sol\":8260:8272  proposals[i] */\n      dup2\n      sload\n      dup2\n      lt\n      tag_101\n      jumpi\n      tag_102\n      tag_103\n      jump\t// in\n    tag_102:\n    tag_101:\n      swap1\n      0x00\n      mstore\n      keccak256(0x00, 0x20)\n      swap1\n      0x02\n      mul\n      add\n        /* \"Voting/Voting.sol\":8260:8282  proposals[i].voteCount */\n      0x01\n      add\n      sload\n        /* \"Voting/Voting.sol\":8260:8293  proposals[i].voteCount > maxVotes */\n      gt\n        /* \"Voting/Voting.sol\":8256:8404  if (proposals[i].voteCount > maxVotes) {... */\n      iszero\n      tag_105\n      jumpi\n        /* \"Voting/Voting.sol\":8324:8333  proposals */\n      0x02\n        /* \"Voting/Voting.sol\":8334:8335  i */\n      dup2\n        /* \"Voting/Voting.sol\":8324:8336  proposals[i] */\n      dup2\n      sload\n      dup2\n      lt\n      tag_106\n      jumpi\n      tag_107\n      tag_103\n      jump\t// in\n    tag_107:\n    tag_106:\n      swap1\n      0x00\n      mstore\n      keccak256(0x00, 0x20)\n      swap1\n      0x02\n      mul\n      add\n        /* \"Voting/Voting.sol\":8324:8346  proposals[i].voteCount */\n      0x01\n      add\n      sload\n        /* \"Voting/Voting.sol\":8313:8346  maxVotes = proposals[i].voteCount */\n      swap3\n      pop\n        /* \"Voting/Voting.sol\":8388:8389  i */\n      dup1\n        /* \"Voting/Voting.sol\":8364:8389  tempWinningProposalId = i */\n      swap2\n      pop\n        /* \"Voting/Voting.sol\":8256:8404  if (proposals[i].voteCount > maxVotes) {... */\n    tag_105:\n        /* \"Voting/Voting.sol\":8237:8240  i++ */\n      dup1\n      dup1\n      tag_109\n      swap1\n      tag_110\n      jump\t// in\n    tag_109:\n      swap2\n      pop\n      pop\n        /* \"Voting/Voting.sol\":8198:8414  for (uint i = 0; i < proposals.length; i++) {... */\n      jump(tag_98)\n    tag_99:\n      pop\n        /* \"Voting/Voting.sol\":8443:8464  tempWinningProposalId */\n      dup1\n        /* \"Voting/Voting.sol\":8423:8440  winningProposalId */\n      0x04\n        /* \"Voting/Voting.sol\":8423:8464  winningProposalId = tempWinningProposalId */\n      dup2\n      swap1\n      sstore\n      pop\n        /* \"Voting/Voting.sol\":8474:8512  setStatus(WorkflowStatus.VotesTallied) */\n      tag_111\n        /* \"Voting/Voting.sol\":8484:8511  WorkflowStatus.VotesTallied */\n      0x05\n        /* \"Voting/Voting.sol\":8474:8483  setStatus */\n      tag_112\n        /* \"Voting/Voting.sol\":8474:8512  setStatus(WorkflowStatus.VotesTallied) */\n      jump\t// in\n    tag_111:\n        /* \"Voting/Voting.sol\":8125:8519  {... */\n      pop\n      pop\n        /* \"Voting/Voting.sol\":8019:8519  function discoverWinningProposal() ... */\n      jump\t// out\n        /* \"Voting/Voting.sol\":5304:5412  function StartRegisteringVoters() external ... */\n    tag_33:\n        /* \"Voting/Voting.sol\":5362:5405  setStatus(WorkflowStatus.RegisteringVoters) */\n      tag_114\n        /* \"Voting/Voting.sol\":5372:5404  WorkflowStatus.RegisteringVoters */\n      0x00\n        /* \"Voting/Voting.sol\":5362:5371  setStatus */\n      tag_112\n        /* \"Voting/Voting.sol\":5362:5405  setStatus(WorkflowStatus.RegisteringVoters) */\n      jump\t// in\n    tag_114:\n        /* \"Voting/Voting.sol\":5304:5412  function StartRegisteringVoters() external ... */\n      jump\t// out\n        /* \"Voting/Voting.sol\":5673:5780  function StartVotingSession() external ... */\n    tag_35:\n        /* \"Voting/Voting.sol\":5727:5773  setStatus(WorkflowStatus.VotingSessionStarted) */\n      tag_116\n        /* \"Voting/Voting.sol\":5737:5772  WorkflowStatus.VotingSessionStarted */\n      0x03\n        /* \"Voting/Voting.sol\":5727:5736  setStatus */\n      tag_112\n        /* \"Voting/Voting.sol\":5727:5773  setStatus(WorkflowStatus.VotingSessionStarted) */\n      jump\t// in\n    tag_116:\n        /* \"Voting/Voting.sol\":5673:5780  function StartVotingSession() external ... */\n      jump\t// out\n        /* \"Voting/Voting.sol\":776:804  WorkflowStatus public status */\n    tag_37:\n      0x03\n      0x00\n      swap1\n      sload\n      swap1\n      0x0100\n      exp\n      swap1\n      div\n      0xff\n      and\n      dup2\n      jump\t// out\n        /* \"Voting/Voting.sol\":6765:7014  function registerProposal(string memory _description)... */\n    tag_43:\n        /* \"Voting/Voting.sol\":1556:1572  _isWhitelisted() */\n      tag_118\n        /* \"Voting/Voting.sol\":1556:1570  _isWhitelisted */\n      tag_119\n        /* \"Voting/Voting.sol\":1556:1572  _isWhitelisted() */\n      jump\t// in\n    tag_118:\n        /* \"Voting/Voting.sol\":1257:1290  _isProposalsRegistrationStarted() */\n      tag_121\n        /* \"Voting/Voting.sol\":1257:1288  _isProposalsRegistrationStarted */\n      tag_122\n        /* \"Voting/Voting.sol\":1257:1290  _isProposalsRegistrationStarted() */\n      jump\t// in\n    tag_121:\n        /* \"Voting/Voting.sol\":6911:6920  proposals */\n      0x02\n        /* \"Voting/Voting.sol\":6926:6951  Proposal(_description, 0) */\n      mload(0x40)\n      dup1\n      0x40\n      add\n      0x40\n      mstore\n      dup1\n        /* \"Voting/Voting.sol\":6935:6947  _description */\n      dup4\n        /* \"Voting/Voting.sol\":6926:6951  Proposal(_description, 0) */\n      dup2\n      mstore\n      0x20\n      add\n        /* \"Voting/Voting.sol\":6949:6950  0 */\n      0x00\n        /* \"Voting/Voting.sol\":6926:6951  Proposal(_description, 0) */\n      dup2\n      mstore\n      pop\n        /* \"Voting/Voting.sol\":6911:6952  proposals.push(Proposal(_description, 0)) */\n      swap1\n      dup1\n      0x01\n      dup2\n      sload\n      add\n      dup1\n      dup3\n      sstore\n      dup1\n      swap2\n      pop\n      pop\n      0x01\n      swap1\n      sub\n      swap1\n      0x00\n      mstore\n      keccak256(0x00, 0x20)\n      swap1\n      0x02\n      mul\n      add\n      0x00\n      swap1\n      swap2\n      swap1\n      swap2\n      swap1\n      swap2\n      pop\n      0x00\n      dup3\n      add\n      mload\n      dup2\n      0x00\n      add\n      swap1\n      dup2\n      tag_125\n      swap2\n      swap1\n      tag_126\n      jump\t// in\n    tag_125:\n      pop\n      0x20\n      dup3\n      add\n      mload\n      dup2\n      0x01\n      add\n      sstore\n      pop\n      pop\n        /* \"Voting/Voting.sol\":6967:7007  ProposalRegistered(proposals.length - 1) */\n      0x92e393e9b54e2f801d3ea4beb0c5e71a21cc34a5d34b77d0fb8a3aa1650dc18f\n        /* \"Voting/Voting.sol\":7005:7006  1 */\n      0x01\n        /* \"Voting/Voting.sol\":6986:6995  proposals */\n      0x02\n        /* \"Voting/Voting.sol\":6986:7002  proposals.length */\n      dup1\n      sload\n      swap1\n      pop\n        /* \"Voting/Voting.sol\":6986:7006  proposals.length - 1 */\n      tag_127\n      swap2\n      swap1\n      tag_128\n      jump\t// in\n    tag_127:\n        /* \"Voting/Voting.sol\":6967:7007  ProposalRegistered(proposals.length - 1) */\n      mload(0x40)\n      tag_129\n      swap2\n      swap1\n      tag_130\n      jump\t// in\n    tag_129:\n      mload(0x40)\n      dup1\n      swap2\n      sub\n      swap1\n      log1\n        /* \"Voting/Voting.sol\":6765:7014  function registerProposal(string memory _description)... */\n      pop\n      jump\t// out\n        /* \"Voting/Voting.sol\":5932:6250  function registerVoter(address _voterAdress)... */\n    tag_47:\n        /* \"@openzeppelin/contracts/access/Ownable.sol\":1094:1107  _checkOwner() */\n      tag_132\n        /* \"@openzeppelin/contracts/access/Ownable.sol\":1094:1105  _checkOwner */\n      tag_93\n        /* \"@openzeppelin/contracts/access/Ownable.sol\":1094:1107  _checkOwner() */\n      jump\t// in\n    tag_132:\n        /* \"Voting/Voting.sol\":1153:1181  _isRegisteringVotersStatus() */\n      tag_134\n        /* \"Voting/Voting.sol\":1153:1179  _isRegisteringVotersStatus */\n      tag_135\n        /* \"Voting/Voting.sol\":1153:1181  _isRegisteringVotersStatus() */\n      jump\t// in\n    tag_134:\n        /* \"Voting/Voting.sol\":6108:6113  false */\n      0x00\n        /* \"Voting/Voting.sol\":6068:6113  whitelist[_voterAdress].isRegistered == false */\n      iszero\n      iszero\n        /* \"Voting/Voting.sol\":6068:6077  whitelist */\n      0x01\n        /* \"Voting/Voting.sol\":6068:6091  whitelist[_voterAdress] */\n      0x00\n        /* \"Voting/Voting.sol\":6078:6090  _voterAdress */\n      dup4\n        /* \"Voting/Voting.sol\":6068:6091  whitelist[_voterAdress] */\n      0xffffffffffffffffffffffffffffffffffffffff\n      and\n      0xffffffffffffffffffffffffffffffffffffffff\n      and\n      dup2\n      mstore\n      0x20\n      add\n      swap1\n      dup2\n      mstore\n      0x20\n      add\n      0x00\n      keccak256\n        /* \"Voting/Voting.sol\":6068:6104  whitelist[_voterAdress].isRegistered */\n      0x00\n      add\n      0x00\n      swap1\n      sload\n      swap1\n      0x0100\n      exp\n      swap1\n      div\n      0xff\n      and\n        /* \"Voting/Voting.sol\":6068:6113  whitelist[_voterAdress].isRegistered == false */\n      iszero\n      iszero\n      eq\n        /* \"Voting/Voting.sol\":6060:6146  require(whitelist[_voterAdress].isRegistered == false, \"Voter is already whitelisted\") */\n      tag_137\n      jumpi\n      mload(0x40)\n      0x08c379a000000000000000000000000000000000000000000000000000000000\n      dup2\n      mstore\n      0x04\n      add\n      tag_138\n      swap1\n      tag_139\n      jump\t// in\n    tag_138:\n      mload(0x40)\n      dup1\n      swap2\n      sub\n      swap1\n      revert\n    tag_137:\n        /* \"Voting/Voting.sol\":6195:6199  true */\n      0x01\n        /* \"Voting/Voting.sol\":6156:6165  whitelist */\n      dup1\n        /* \"Voting/Voting.sol\":6156:6179  whitelist[_voterAdress] */\n      0x00\n        /* \"Voting/Voting.sol\":6166:6178  _voterAdress */\n      dup4\n        /* \"Voting/Voting.sol\":6156:6179  whitelist[_voterAdress] */\n      0xffffffffffffffffffffffffffffffffffffffff\n      and\n      0xffffffffffffffffffffffffffffffffffffffff\n      and\n      dup2\n      mstore\n      0x20\n      add\n      swap1\n      dup2\n      mstore\n      0x20\n      add\n      0x00\n      keccak256\n        /* \"Voting/Voting.sol\":6156:6192  whitelist[_voterAdress].isRegistered */\n      0x00\n      add\n      0x00\n        /* \"Voting/Voting.sol\":6156:6199  whitelist[_voterAdress].isRegistered = true */\n      0x0100\n      exp\n      dup2\n      sload\n      dup2\n      0xff\n      mul\n      not\n      and\n      swap1\n      dup4\n      iszero\n      iszero\n      mul\n      or\n      swap1\n      sstore\n      pop\n        /* \"Voting/Voting.sol\":6214:6243  VoterRegistered(_voterAdress) */\n      0xb6be2187d059cc2a55fe29e0e503b566e1e0f8c8780096e185429350acffd3dd\n        /* \"Voting/Voting.sol\":6230:6242  _voterAdress */\n      dup2\n        /* \"Voting/Voting.sol\":6214:6243  VoterRegistered(_voterAdress) */\n      mload(0x40)\n      tag_140\n      swap2\n      swap1\n      tag_63\n      jump\t// in\n    tag_140:\n      mload(0x40)\n      dup1\n      swap2\n      sub\n      swap1\n      log1\n        /* \"Voting/Voting.sol\":5932:6250  function registerVoter(address _voterAdress)... */\n      pop\n      jump\t// out\n        /* \"Voting/Voting.sol\":7315:7412  function getProposals() public view returns (Proposal[] memory) {... */\n    tag_49:\n        /* \"Voting/Voting.sol\":7360:7377  Proposal[] memory */\n      0x60\n        /* \"Voting/Voting.sol\":7396:7405  proposals */\n      0x02\n        /* \"Voting/Voting.sol\":7389:7405  return proposals */\n      dup1\n      sload\n      dup1\n      0x20\n      mul\n      0x20\n      add\n      mload(0x40)\n      swap1\n      dup2\n      add\n      0x40\n      mstore\n      dup1\n      swap3\n      swap2\n      swap1\n      dup2\n      dup2\n      mstore\n      0x20\n      add\n      0x00\n      swap1\n    tag_142:\n      dup3\n      dup3\n      lt\n      iszero\n      tag_143\n      jumpi\n      dup4\n      dup3\n      swap1\n      0x00\n      mstore\n      keccak256(0x00, 0x20)\n      swap1\n      0x02\n      mul\n      add\n      mload(0x40)\n      dup1\n      0x40\n      add\n      0x40\n      mstore\n      swap1\n      dup2\n      0x00\n      dup3\n      add\n      dup1\n      sload\n      tag_145\n      swap1\n      tag_86\n      jump\t// in\n    tag_145:\n      dup1\n      0x1f\n      add\n      0x20\n      dup1\n      swap2\n      div\n      mul\n      0x20\n      add\n      mload(0x40)\n      swap1\n      dup2\n      add\n      0x40\n      mstore\n      dup1\n      swap3\n      swap2\n      swap1\n      dup2\n      dup2\n      mstore\n      0x20\n      add\n      dup3\n      dup1\n      sload\n      tag_146\n      swap1\n      tag_86\n      jump\t// in\n    tag_146:\n      dup1\n      iszero\n      tag_147\n      jumpi\n      dup1\n      0x1f\n      lt\n      tag_148\n      jumpi\n      0x0100\n      dup1\n      dup4\n      sload\n      div\n      mul\n      dup4\n      mstore\n      swap2\n      0x20\n      add\n      swap2\n      jump(tag_147)\n    tag_148:\n      dup3\n      add\n      swap2\n      swap1\n      0x00\n      mstore\n      keccak256(0x00, 0x20)\n      swap1\n    tag_149:\n      dup2\n      sload\n      dup2\n      mstore\n      swap1\n      0x01\n      add\n      swap1\n      0x20\n      add\n      dup1\n      dup4\n      gt\n      tag_149\n      jumpi\n      dup3\n      swap1\n      sub\n      0x1f\n      and\n      dup3\n      add\n      swap2\n    tag_147:\n      pop\n      pop\n      pop\n      pop\n      pop\n      dup2\n      mstore\n      0x20\n      add\n      0x01\n      dup3\n      add\n      sload\n      dup2\n      mstore\n      pop\n      pop\n      dup2\n      mstore\n      0x20\n      add\n      swap1\n      0x01\n      add\n      swap1\n      jump(tag_142)\n    tag_143:\n      pop\n      pop\n      pop\n      pop\n      swap1\n      pop\n        /* \"Voting/Voting.sol\":7315:7412  function getProposals() public view returns (Proposal[] memory) {... */\n      swap1\n      jump\t// out\n        /* \"Voting/Voting.sol\":5547:5667  function StopProposalsRegistration() external ... */\n    tag_53:\n        /* \"Voting/Voting.sol\":5608:5660  setStatus(WorkflowStatus.ProposalsRegistrationEnded) */\n      tag_151\n        /* \"Voting/Voting.sol\":5618:5659  WorkflowStatus.ProposalsRegistrationEnded */\n      0x02\n        /* \"Voting/Voting.sol\":5608:5617  setStatus */\n      tag_112\n        /* \"Voting/Voting.sol\":5608:5660  setStatus(WorkflowStatus.ProposalsRegistrationEnded) */\n      jump\t// in\n    tag_151:\n        /* \"Voting/Voting.sol\":5547:5667  function StopProposalsRegistration() external ... */\n      jump\t// out\n        /* \"@openzeppelin/contracts/access/Ownable.sol\":1831:1932  function renounceOwnership() public virtual onlyOwner {... */\n    tag_55:\n        /* \"@openzeppelin/contracts/access/Ownable.sol\":1094:1107  _checkOwner() */\n      tag_153\n        /* \"@openzeppelin/contracts/access/Ownable.sol\":1094:1105  _checkOwner */\n      tag_93\n        /* \"@openzeppelin/contracts/access/Ownable.sol\":1094:1107  _checkOwner() */\n      jump\t// in\n    tag_153:\n        /* \"@openzeppelin/contracts/access/Ownable.sol\":1895:1925  _transferOwnership(address(0)) */\n      tag_155\n        /* \"@openzeppelin/contracts/access/Ownable.sol\":1922:1923  0 */\n      0x00\n        /* \"@openzeppelin/contracts/access/Ownable.sol\":1895:1913  _transferOwnership */\n      tag_156\n        /* \"@openzeppelin/contracts/access/Ownable.sol\":1895:1925  _transferOwnership(address(0)) */\n      jump\t// in\n    tag_155:\n        /* \"@openzeppelin/contracts/access/Ownable.sol\":1831:1932  function renounceOwnership() public virtual onlyOwner {... */\n      jump\t// out\n        /* \"Voting/Voting.sol\":5418:5541  function StartProposalsRegistration() external ... */\n    tag_57:\n        /* \"Voting/Voting.sol\":5480:5534  setStatus(WorkflowStatus.ProposalsRegistrationStarted) */\n      tag_158\n        /* \"Voting/Voting.sol\":5490:5533  WorkflowStatus.ProposalsRegistrationStarted */\n      0x01\n        /* \"Voting/Voting.sol\":5480:5489  setStatus */\n      tag_112\n        /* \"Voting/Voting.sol\":5480:5534  setStatus(WorkflowStatus.ProposalsRegistrationStarted) */\n      jump\t// in\n    tag_158:\n        /* \"Voting/Voting.sol\":5418:5541  function StartProposalsRegistration() external ... */\n      jump\t// out\n        /* \"Voting/Voting.sol\":5786:5890  function StopVotingSession() external ... */\n    tag_59:\n        /* \"Voting/Voting.sol\":5839:5883  setStatus(WorkflowStatus.VotingSessionEnded) */\n      tag_160\n        /* \"Voting/Voting.sol\":5849:5882  WorkflowStatus.VotingSessionEnded */\n      0x04\n        /* \"Voting/Voting.sol\":5839:5848  setStatus */\n      tag_112\n        /* \"Voting/Voting.sol\":5839:5883  setStatus(WorkflowStatus.VotingSessionEnded) */\n      jump\t// in\n    tag_160:\n        /* \"Voting/Voting.sol\":5786:5890  function StopVotingSession() external ... */\n      jump\t// out\n        /* \"@openzeppelin/contracts/access/Ownable.sol\":1201:1286  function owner() public view virtual returns (address) {... */\n    tag_61:\n        /* \"@openzeppelin/contracts/access/Ownable.sol\":1247:1254  address */\n      0x00\n        /* \"@openzeppelin/contracts/access/Ownable.sol\":1273:1279  _owner */\n      dup1\n      0x00\n      swap1\n      sload\n      swap1\n      0x0100\n      exp\n      swap1\n      div\n      0xffffffffffffffffffffffffffffffffffffffff\n      and\n        /* \"@openzeppelin/contracts/access/Ownable.sol\":1266:1279  return _owner */\n      swap1\n      pop\n        /* \"@openzeppelin/contracts/access/Ownable.sol\":1201:1286  function owner() public view virtual returns (address) {... */\n      swap1\n      jump\t// out\n        /* \"Voting/Voting.sol\":8525:8706  function getWinningProposalDetails() ... */\n    tag_65:\n        /* \"Voting/Voting.sol\":8634:8649  Proposal memory */\n      tag_162\n      tag_163\n      jump\t// in\n    tag_162:\n        /* \"Voting/Voting.sol\":1719:1736  _isVotesTallied() */\n      tag_165\n        /* \"Voting/Voting.sol\":1719:1734  _isVotesTallied */\n      tag_166\n        /* \"Voting/Voting.sol\":1719:1736  _isVotesTallied() */\n      jump\t// in\n    tag_165:\n        /* \"Voting/Voting.sol\":8671:8680  proposals */\n      0x02\n        /* \"Voting/Voting.sol\":8681:8698  winningProposalId */\n      sload(0x04)\n        /* \"Voting/Voting.sol\":8671:8699  proposals[winningProposalId] */\n      dup2\n      sload\n      dup2\n      lt\n      tag_168\n      jumpi\n      tag_169\n      tag_103\n      jump\t// in\n    tag_169:\n    tag_168:\n      swap1\n      0x00\n      mstore\n      keccak256(0x00, 0x20)\n      swap1\n      0x02\n      mul\n      add\n        /* \"Voting/Voting.sol\":8664:8699  return proposals[winningProposalId] */\n      mload(0x40)\n      dup1\n      0x40\n      add\n      0x40\n      mstore\n      swap1\n      dup2\n      0x00\n      dup3\n      add\n      dup1\n      sload\n      tag_171\n      swap1\n      tag_86\n      jump\t// in\n    tag_171:\n      dup1\n      0x1f\n      add\n      0x20\n      dup1\n      swap2\n      div\n      mul\n      0x20\n      add\n      mload(0x40)\n      swap1\n      dup2\n      add\n      0x40\n      mstore\n      dup1\n      swap3\n      swap2\n      swap1\n      dup2\n      dup2\n      mstore\n      0x20\n      add\n      dup3\n      dup1\n      sload\n      tag_172\n      swap1\n      tag_86\n      jump\t// in\n    tag_172:\n      dup1\n      iszero\n      tag_173\n      jumpi\n      dup1\n      0x1f\n      lt\n      tag_174\n      jumpi\n      0x0100\n      dup1\n      dup4\n      sload\n      div\n      mul\n      dup4\n      mstore\n      swap2\n      0x20\n      add\n      swap2\n      jump(tag_173)\n    tag_174:\n      dup3\n      add\n      swap2\n      swap1\n      0x00\n      mstore\n      keccak256(0x00, 0x20)\n      swap1\n    tag_175:\n      dup2\n      sload\n      dup2\n      mstore\n      swap1\n      0x01\n      add\n      swap1\n      0x20\n      add\n      dup1\n      dup4\n      gt\n      tag_175\n      jumpi\n      dup3\n      swap1\n      sub\n      0x1f\n      and\n      dup3\n      add\n      swap2\n    tag_173:\n      pop\n      pop\n      pop\n      pop\n      pop\n      dup2\n      mstore\n      0x20\n      add\n      0x01\n      dup3\n      add\n      sload\n      dup2\n      mstore\n      pop\n      pop\n      swap1\n      pop\n        /* \"Voting/Voting.sol\":8525:8706  function getWinningProposalDetails() ... */\n      swap1\n      jump\t// out\n        /* \"Voting/Voting.sol\":8714:9043  function getProposalVotedForUser(address _address)... */\n    tag_70:\n        /* \"Voting/Voting.sol\":8836:8849  string memory */\n      0x60\n        /* \"Voting/Voting.sol\":1556:1572  _isWhitelisted() */\n      tag_177\n        /* \"Voting/Voting.sol\":1556:1570  _isWhitelisted */\n      tag_119\n        /* \"Voting/Voting.sol\":1556:1572  _isWhitelisted() */\n      jump\t// in\n    tag_177:\n        /* \"Voting/Voting.sol\":8886:8895  whitelist */\n      0x01\n        /* \"Voting/Voting.sol\":8886:8905  whitelist[_address] */\n      0x00\n        /* \"Voting/Voting.sol\":8896:8904  _address */\n      dup4\n        /* \"Voting/Voting.sol\":8886:8905  whitelist[_address] */\n      0xffffffffffffffffffffffffffffffffffffffff\n      and\n      0xffffffffffffffffffffffffffffffffffffffff\n      and\n      dup2\n      mstore\n      0x20\n      add\n      swap1\n      dup2\n      mstore\n      0x20\n      add\n      0x00\n      keccak256\n        /* \"Voting/Voting.sol\":8886:8914  whitelist[_address].hasVoted */\n      0x00\n      add\n      0x01\n      swap1\n      sload\n      swap1\n      0x0100\n      exp\n      swap1\n      div\n      0xff\n      and\n        /* \"Voting/Voting.sol\":8865:8961  require(... */\n      tag_179\n      jumpi\n      mload(0x40)\n      0x08c379a000000000000000000000000000000000000000000000000000000000\n      dup2\n      mstore\n      0x04\n      add\n      tag_180\n      swap1\n      tag_181\n      jump\t// in\n    tag_180:\n      mload(0x40)\n      dup1\n      swap2\n      sub\n      swap1\n      revert\n    tag_179:\n        /* \"Voting/Voting.sol\":8978:8987  proposals */\n      0x02\n        /* \"Voting/Voting.sol\":8988:8997  whitelist */\n      0x01\n        /* \"Voting/Voting.sol\":8988:9007  whitelist[_address] */\n      0x00\n        /* \"Voting/Voting.sol\":8998:9006  _address */\n      dup5\n        /* \"Voting/Voting.sol\":8988:9007  whitelist[_address] */\n      0xffffffffffffffffffffffffffffffffffffffff\n      and\n      0xffffffffffffffffffffffffffffffffffffffff\n      and\n      dup2\n      mstore\n      0x20\n      add\n      swap1\n      dup2\n      mstore\n      0x20\n      add\n      0x00\n      keccak256\n        /* \"Voting/Voting.sol\":8988:9023  whitelist[_address].votedProposalId */\n      0x01\n      add\n      sload\n        /* \"Voting/Voting.sol\":8978:9024  proposals[whitelist[_address].votedProposalId] */\n      dup2\n      sload\n      dup2\n      lt\n      tag_182\n      jumpi\n      tag_183\n      tag_103\n      jump\t// in\n    tag_183:\n    tag_182:\n      swap1\n      0x00\n      mstore\n      keccak256(0x00, 0x20)\n      swap1\n      0x02\n      mul\n      add\n        /* \"Voting/Voting.sol\":8978:9036  proposals[whitelist[_address].votedProposalId].description */\n      0x00\n      add\n        /* \"Voting/Voting.sol\":8971:9036  return proposals[whitelist[_address].votedProposalId].description */\n      dup1\n      sload\n      tag_185\n      swap1\n      tag_86\n      jump\t// in\n    tag_185:\n      dup1\n      0x1f\n      add\n      0x20\n      dup1\n      swap2\n      div\n      mul\n      0x20\n      add\n      mload(0x40)\n      swap1\n      dup2\n      add\n      0x40\n      mstore\n      dup1\n      swap3\n      swap2\n      swap1\n      dup2\n      dup2\n      mstore\n      0x20\n      add\n      dup3\n      dup1\n      sload\n      tag_186\n      swap1\n      tag_86\n      jump\t// in\n    tag_186:\n      dup1\n      iszero\n      tag_187\n      jumpi\n      dup1\n      0x1f\n      lt\n      tag_188\n      jumpi\n      0x0100\n      dup1\n      dup4\n      sload\n      div\n      mul\n      dup4\n      mstore\n      swap2\n      0x20\n      add\n      swap2\n      jump(tag_187)\n    tag_188:\n      dup3\n      add\n      swap2\n      swap1\n      0x00\n      mstore\n      keccak256(0x00, 0x20)\n      swap1\n    tag_189:\n      dup2\n      sload\n      dup2\n      mstore\n      swap1\n      0x01\n      add\n      swap1\n      0x20\n      add\n      dup1\n      dup4\n      gt\n      tag_189\n      jumpi\n      dup3\n      swap1\n      sub\n      0x1f\n      and\n      dup3\n      add\n      swap2\n    tag_187:\n      pop\n      pop\n      pop\n      pop\n      pop\n      swap1\n      pop\n        /* \"Voting/Voting.sol\":8714:9043  function getProposalVotedForUser(address _address)... */\n      swap2\n      swap1\n      pop\n      jump\t// out\n        /* \"Voting/Voting.sol\":6301:6720  function registerVoters(address[] memory _votersAdresses)... */\n    tag_76:\n        /* \"@openzeppelin/contracts/access/Ownable.sol\":1094:1107  _checkOwner() */\n      tag_191\n        /* \"@openzeppelin/contracts/access/Ownable.sol\":1094:1105  _checkOwner */\n      tag_93\n        /* \"@openzeppelin/contracts/access/Ownable.sol\":1094:1107  _checkOwner() */\n      jump\t// in\n    tag_191:\n        /* \"Voting/Voting.sol\":1153:1181  _isRegisteringVotersStatus() */\n      tag_193\n        /* \"Voting/Voting.sol\":1153:1179  _isRegisteringVotersStatus */\n      tag_135\n        /* \"Voting/Voting.sol\":1153:1181  _isRegisteringVotersStatus() */\n      jump\t// in\n    tag_193:\n        /* \"Voting/Voting.sol\":6447:6456  uint256 i */\n      0x00\n        /* \"Voting/Voting.sol\":6442:6714  for (uint256 i = 0; i < _votersAdresses.length; i++) {... */\n    tag_195:\n        /* \"Voting/Voting.sol\":6466:6481  _votersAdresses */\n      dup2\n        /* \"Voting/Voting.sol\":6466:6488  _votersAdresses.length */\n      mload\n        /* \"Voting/Voting.sol\":6462:6463  i */\n      dup2\n        /* \"Voting/Voting.sol\":6462:6488  i < _votersAdresses.length */\n      lt\n        /* \"Voting/Voting.sol\":6442:6714  for (uint256 i = 0; i < _votersAdresses.length; i++) {... */\n      iszero\n      tag_196\n      jumpi\n        /* \"Voting/Voting.sol\":6559:6563  true */\n      0x01\n        /* \"Voting/Voting.sol\":6514:6523  whitelist */\n      dup1\n        /* \"Voting/Voting.sol\":6514:6543  whitelist[_votersAdresses[i]] */\n      0x00\n        /* \"Voting/Voting.sol\":6524:6539  _votersAdresses */\n      dup5\n        /* \"Voting/Voting.sol\":6540:6541  i */\n      dup5\n        /* \"Voting/Voting.sol\":6524:6542  _votersAdresses[i] */\n      dup2\n      mload\n      dup2\n      lt\n      tag_198\n      jumpi\n      tag_199\n      tag_103\n      jump\t// in\n    tag_199:\n    tag_198:\n      0x20\n      mul\n      0x20\n      add\n      add\n      mload\n        /* \"Voting/Voting.sol\":6514:6543  whitelist[_votersAdresses[i]] */\n      0xffffffffffffffffffffffffffffffffffffffff\n      and\n      0xffffffffffffffffffffffffffffffffffffffff\n      and\n      dup2\n      mstore\n      0x20\n      add\n      swap1\n      dup2\n      mstore\n      0x20\n      add\n      0x00\n      keccak256\n        /* \"Voting/Voting.sol\":6514:6556  whitelist[_votersAdresses[i]].isRegistered */\n      0x00\n      add\n      0x00\n        /* \"Voting/Voting.sol\":6514:6563  whitelist[_votersAdresses[i]].isRegistered = true */\n      0x0100\n      exp\n      dup2\n      sload\n      dup2\n      0xff\n      mul\n      not\n      and\n      swap1\n      dup4\n      iszero\n      iszero\n      mul\n      or\n      swap1\n      sstore\n        /* \"Voting/Voting.sol\":6509:6704  if ( whitelist[_votersAdresses[i]].isRegistered = true){... */\n      iszero\n      tag_200\n      jumpi\n        /* \"Voting/Voting.sol\":6627:6631  true */\n      0x01\n        /* \"Voting/Voting.sol\":6582:6591  whitelist */\n      dup1\n        /* \"Voting/Voting.sol\":6582:6611  whitelist[_votersAdresses[i]] */\n      0x00\n        /* \"Voting/Voting.sol\":6592:6607  _votersAdresses */\n      dup5\n        /* \"Voting/Voting.sol\":6608:6609  i */\n      dup5\n        /* \"Voting/Voting.sol\":6592:6610  _votersAdresses[i] */\n      dup2\n      mload\n      dup2\n      lt\n      tag_201\n      jumpi\n      tag_202\n      tag_103\n      jump\t// in\n    tag_202:\n    tag_201:\n      0x20\n      mul\n      0x20\n      add\n      add\n      mload\n        /* \"Voting/Voting.sol\":6582:6611  whitelist[_votersAdresses[i]] */\n      0xffffffffffffffffffffffffffffffffffffffff\n      and\n      0xffffffffffffffffffffffffffffffffffffffff\n      and\n      dup2\n      mstore\n      0x20\n      add\n      swap1\n      dup2\n      mstore\n      0x20\n      add\n      0x00\n      keccak256\n        /* \"Voting/Voting.sol\":6582:6624  whitelist[_votersAdresses[i]].isRegistered */\n      0x00\n      add\n      0x00\n        /* \"Voting/Voting.sol\":6582:6631  whitelist[_votersAdresses[i]].isRegistered = true */\n      0x0100\n      exp\n      dup2\n      sload\n      dup2\n      0xff\n      mul\n      not\n      and\n      swap1\n      dup4\n      iszero\n      iszero\n      mul\n      or\n      swap1\n      sstore\n      pop\n        /* \"Voting/Voting.sol\":6654:6689  VoterRegistered(_votersAdresses[i]) */\n      0xb6be2187d059cc2a55fe29e0e503b566e1e0f8c8780096e185429350acffd3dd\n        /* \"Voting/Voting.sol\":6670:6685  _votersAdresses */\n      dup3\n        /* \"Voting/Voting.sol\":6686:6687  i */\n      dup3\n        /* \"Voting/Voting.sol\":6670:6688  _votersAdresses[i] */\n      dup2\n      mload\n      dup2\n      lt\n      tag_203\n      jumpi\n      tag_204\n      tag_103\n      jump\t// in\n    tag_204:\n    tag_203:\n      0x20\n      mul\n      0x20\n      add\n      add\n      mload\n        /* \"Voting/Voting.sol\":6654:6689  VoterRegistered(_votersAdresses[i]) */\n      mload(0x40)\n      tag_205\n      swap2\n      swap1\n      tag_63\n      jump\t// in\n    tag_205:\n      mload(0x40)\n      dup1\n      swap2\n      sub\n      swap1\n      log1\n        /* \"Voting/Voting.sol\":6509:6704  if ( whitelist[_votersAdresses[i]].isRegistered = true){... */\n    tag_200:\n        /* \"Voting/Voting.sol\":6490:6493  i++ */\n      dup1\n      dup1\n      tag_206\n      swap1\n      tag_110\n      jump\t// in\n    tag_206:\n      swap2\n      pop\n      pop\n        /* \"Voting/Voting.sol\":6442:6714  for (uint256 i = 0; i < _votersAdresses.length; i++) {... */\n      jump(tag_195)\n    tag_196:\n      pop\n        /* \"Voting/Voting.sol\":6301:6720  function registerVoters(address[] memory _votersAdresses)... */\n      pop\n      jump\t// out\n        /* \"@openzeppelin/contracts/access/Ownable.sol\":2081:2279  function transferOwnership(address newOwner) public virtual onlyOwner {... */\n    tag_79:\n        /* \"@openzeppelin/contracts/access/Ownable.sol\":1094:1107  _checkOwner() */\n      tag_208\n        /* \"@openzeppelin/contracts/access/Ownable.sol\":1094:1105  _checkOwner */\n      tag_93\n        /* \"@openzeppelin/contracts/access/Ownable.sol\":1094:1107  _checkOwner() */\n      jump\t// in\n    tag_208:\n        /* \"@openzeppelin/contracts/access/Ownable.sol\":2189:2190  0 */\n      0x00\n        /* \"@openzeppelin/contracts/access/Ownable.sol\":2169:2191  newOwner != address(0) */\n      0xffffffffffffffffffffffffffffffffffffffff\n      and\n        /* \"@openzeppelin/contracts/access/Ownable.sol\":2169:2177  newOwner */\n      dup2\n        /* \"@openzeppelin/contracts/access/Ownable.sol\":2169:2191  newOwner != address(0) */\n      0xffffffffffffffffffffffffffffffffffffffff\n      and\n      sub\n        /* \"@openzeppelin/contracts/access/Ownable.sol\":2161:2234  require(newOwner != address(0), \"Ownable: new owner is the zero address\") */\n      tag_210\n      jumpi\n      mload(0x40)\n      0x08c379a000000000000000000000000000000000000000000000000000000000\n      dup2\n      mstore\n      0x04\n      add\n      tag_211\n      swap1\n      tag_212\n      jump\t// in\n    tag_211:\n      mload(0x40)\n      dup1\n      swap2\n      sub\n      swap1\n      revert\n    tag_210:\n        /* \"@openzeppelin/contracts/access/Ownable.sol\":2244:2272  _transferOwnership(newOwner) */\n      tag_213\n        /* \"@openzeppelin/contracts/access/Ownable.sol\":2263:2271  newOwner */\n      dup2\n        /* \"@openzeppelin/contracts/access/Ownable.sol\":2244:2262  _transferOwnership */\n      tag_156\n        /* \"@openzeppelin/contracts/access/Ownable.sol\":2244:2272  _transferOwnership(newOwner) */\n      jump\t// in\n    tag_213:\n        /* \"@openzeppelin/contracts/access/Ownable.sol\":2081:2279  function transferOwnership(address newOwner) public virtual onlyOwner {... */\n      pop\n      jump\t// out\n        /* \"Voting/Voting.sol\":7418:8013  function voting(uint _proposalId)... */\n    tag_82:\n        /* \"Voting/Voting.sol\":1358:1383  _isVotingSessionStarted() */\n      tag_215\n        /* \"Voting/Voting.sol\":1358:1381  _isVotingSessionStarted */\n      tag_216\n        /* \"Voting/Voting.sol\":1358:1383  _isVotingSessionStarted() */\n      jump\t// in\n    tag_215:\n        /* \"Voting/Voting.sol\":1556:1572  _isWhitelisted() */\n      tag_218\n        /* \"Voting/Voting.sol\":1556:1570  _isWhitelisted */\n      tag_119\n        /* \"Voting/Voting.sol\":1556:1572  _isWhitelisted() */\n      jump\t// in\n    tag_218:\n        /* \"Voting/Voting.sol\":7558:7567  whitelist */\n      0x01\n        /* \"Voting/Voting.sol\":7558:7579  whitelist[msg.sender] */\n      0x00\n        /* \"Voting/Voting.sol\":7568:7578  msg.sender */\n      caller\n        /* \"Voting/Voting.sol\":7558:7579  whitelist[msg.sender] */\n      0xffffffffffffffffffffffffffffffffffffffff\n      and\n      0xffffffffffffffffffffffffffffffffffffffff\n      and\n      dup2\n      mstore\n      0x20\n      add\n      swap1\n      dup2\n      mstore\n      0x20\n      add\n      0x00\n      keccak256\n        /* \"Voting/Voting.sol\":7558:7588  whitelist[msg.sender].hasVoted */\n      0x00\n      add\n      0x01\n      swap1\n      sload\n      swap1\n      0x0100\n      exp\n      swap1\n      div\n      0xff\n      and\n        /* \"Voting/Voting.sol\":7557:7588  !whitelist[msg.sender].hasVoted */\n      iszero\n        /* \"Voting/Voting.sol\":7536:7662  require(... */\n      tag_220\n      jumpi\n      mload(0x40)\n      0x08c379a000000000000000000000000000000000000000000000000000000000\n      dup2\n      mstore\n      0x04\n      add\n      tag_221\n      swap1\n      tag_222\n      jump\t// in\n    tag_221:\n      mload(0x40)\n      dup1\n      swap2\n      sub\n      swap1\n      revert\n    tag_220:\n        /* \"Voting/Voting.sol\":7707:7716  proposals */\n      0x02\n        /* \"Voting/Voting.sol\":7707:7723  proposals.length */\n      dup1\n      sload\n      swap1\n      pop\n        /* \"Voting/Voting.sol\":7693:7704  _proposalId */\n      dup2\n        /* \"Voting/Voting.sol\":7693:7723  _proposalId < proposals.length */\n      lt\n        /* \"Voting/Voting.sol\":7672:7809  require(... */\n      tag_223\n      jumpi\n      mload(0x40)\n      0x08c379a000000000000000000000000000000000000000000000000000000000\n      dup2\n      mstore\n      0x04\n      add\n      tag_224\n      swap1\n      tag_225\n      jump\t// in\n    tag_224:\n      mload(0x40)\n      dup1\n      swap2\n      sub\n      swap1\n      revert\n    tag_223:\n        /* \"Voting/Voting.sol\":7819:7828  proposals */\n      0x02\n        /* \"Voting/Voting.sol\":7829:7840  _proposalId */\n      dup2\n        /* \"Voting/Voting.sol\":7819:7841  proposals[_proposalId] */\n      dup2\n      sload\n      dup2\n      lt\n      tag_226\n      jumpi\n      tag_227\n      tag_103\n      jump\t// in\n    tag_227:\n    tag_226:\n      swap1\n      0x00\n      mstore\n      keccak256(0x00, 0x20)\n      swap1\n      0x02\n      mul\n      add\n        /* \"Voting/Voting.sol\":7819:7851  proposals[_proposalId].voteCount */\n      0x01\n      add\n      0x00\n        /* \"Voting/Voting.sol\":7819:7853  proposals[_proposalId].voteCount++ */\n      dup2\n      sload\n      dup1\n      swap3\n      swap2\n      swap1\n      tag_229\n      swap1\n      tag_110\n      jump\t// in\n    tag_229:\n      swap2\n      swap1\n      pop\n      sstore\n      pop\n        /* \"Voting/Voting.sol\":7903:7914  _proposalId */\n      dup1\n        /* \"Voting/Voting.sol\":7863:7872  whitelist */\n      0x01\n        /* \"Voting/Voting.sol\":7863:7884  whitelist[msg.sender] */\n      0x00\n        /* \"Voting/Voting.sol\":7873:7883  msg.sender */\n      caller\n        /* \"Voting/Voting.sol\":7863:7884  whitelist[msg.sender] */\n      0xffffffffffffffffffffffffffffffffffffffff\n      and\n      0xffffffffffffffffffffffffffffffffffffffff\n      and\n      dup2\n      mstore\n      0x20\n      add\n      swap1\n      dup2\n      mstore\n      0x20\n      add\n      0x00\n      keccak256\n        /* \"Voting/Voting.sol\":7863:7900  whitelist[msg.sender].votedProposalId */\n      0x01\n      add\n        /* \"Voting/Voting.sol\":7863:7914  whitelist[msg.sender].votedProposalId = _proposalId */\n      dup2\n      swap1\n      sstore\n      pop\n        /* \"Voting/Voting.sol\":7957:7961  true */\n      0x01\n        /* \"Voting/Voting.sol\":7924:7933  whitelist */\n      dup1\n        /* \"Voting/Voting.sol\":7924:7945  whitelist[msg.sender] */\n      0x00\n        /* \"Voting/Voting.sol\":7934:7944  msg.sender */\n      caller\n        /* \"Voting/Voting.sol\":7924:7945  whitelist[msg.sender] */\n      0xffffffffffffffffffffffffffffffffffffffff\n      and\n      0xffffffffffffffffffffffffffffffffffffffff\n      and\n      dup2\n      mstore\n      0x20\n      add\n      swap1\n      dup2\n      mstore\n      0x20\n      add\n      0x00\n      keccak256\n        /* \"Voting/Voting.sol\":7924:7954  whitelist[msg.sender].hasVoted */\n      0x00\n      add\n      0x01\n        /* \"Voting/Voting.sol\":7924:7961  whitelist[msg.sender].hasVoted = true */\n      0x0100\n      exp\n      dup2\n      sload\n      dup2\n      0xff\n      mul\n      not\n      and\n      swap1\n      dup4\n      iszero\n      iszero\n      mul\n      or\n      swap1\n      sstore\n      pop\n        /* \"Voting/Voting.sol\":7976:8006  Voted(msg.sender, _proposalId) */\n      0x4d99b957a2bc29a30ebd96a7be8e68fe50a3c701db28a91436490b7d53870ca4\n        /* \"Voting/Voting.sol\":7982:7992  msg.sender */\n      caller\n        /* \"Voting/Voting.sol\":7994:8005  _proposalId */\n      dup3\n        /* \"Voting/Voting.sol\":7976:8006  Voted(msg.sender, _proposalId) */\n      mload(0x40)\n      tag_230\n      swap3\n      swap2\n      swap1\n      tag_231\n      jump\t// in\n    tag_230:\n      mload(0x40)\n      dup1\n      swap2\n      sub\n      swap1\n      log1\n        /* \"Voting/Voting.sol\":7418:8013  function voting(uint _proposalId)... */\n      pop\n      jump\t// out\n        /* \"@openzeppelin/contracts/access/Ownable.sol\":1359:1489  function _checkOwner() internal view virtual {... */\n    tag_93:\n        /* \"@openzeppelin/contracts/access/Ownable.sol\":1433:1445  _msgSender() */\n      tag_233\n        /* \"@openzeppelin/contracts/access/Ownable.sol\":1433:1443  _msgSender */\n      tag_234\n        /* \"@openzeppelin/contracts/access/Ownable.sol\":1433:1445  _msgSender() */\n      jump\t// in\n    tag_233:\n        /* \"@openzeppelin/contracts/access/Ownable.sol\":1422:1445  owner() == _msgSender() */\n      0xffffffffffffffffffffffffffffffffffffffff\n      and\n        /* \"@openzeppelin/contracts/access/Ownable.sol\":1422:1429  owner() */\n      tag_235\n        /* \"@openzeppelin/contracts/access/Ownable.sol\":1422:1427  owner */\n      tag_61\n        /* \"@openzeppelin/contracts/access/Ownable.sol\":1422:1429  owner() */\n      jump\t// in\n    tag_235:\n        /* \"@openzeppelin/contracts/access/Ownable.sol\":1422:1445  owner() == _msgSender() */\n      0xffffffffffffffffffffffffffffffffffffffff\n      and\n      eq\n        /* \"@openzeppelin/contracts/access/Ownable.sol\":1414:1482  require(owner() == _msgSender(), \"Ownable: caller is not the owner\") */\n      tag_236\n      jumpi\n      mload(0x40)\n      0x08c379a000000000000000000000000000000000000000000000000000000000\n      dup2\n      mstore\n      0x04\n      add\n      tag_237\n      swap1\n      tag_238\n      jump\t// in\n    tag_237:\n      mload(0x40)\n      dup1\n      swap2\n      sub\n      swap1\n      revert\n    tag_236:\n        /* \"@openzeppelin/contracts/access/Ownable.sol\":1359:1489  function _checkOwner() internal view virtual {... */\n      jump\t// out\n        /* \"Voting/Voting.sol\":2809:3014  function _isVotingSessionEnded() internal view {... */\n    tag_96:\n        /* \"Voting/Voting.sol\":2897:2930  WorkflowStatus.VotingSessionEnded */\n      0x04\n        /* \"Voting/Voting.sol\":2887:2930  status == WorkflowStatus.VotingSessionEnded */\n      0x05\n      dup2\n      gt\n      iszero\n      tag_240\n      jumpi\n      tag_241\n      tag_242\n      jump\t// in\n    tag_241:\n    tag_240:\n        /* \"Voting/Voting.sol\":2887:2893  status */\n      0x03\n      0x00\n      swap1\n      sload\n      swap1\n      0x0100\n      exp\n      swap1\n      div\n      0xff\n      and\n        /* \"Voting/Voting.sol\":2887:2930  status == WorkflowStatus.VotingSessionEnded */\n      0x05\n      dup2\n      gt\n      iszero\n      tag_243\n      jumpi\n      tag_244\n      tag_242\n      jump\t// in\n    tag_244:\n    tag_243:\n      eq\n        /* \"Voting/Voting.sol\":2866:3007  require(... */\n      tag_245\n      jumpi\n      mload(0x40)\n      0x08c379a000000000000000000000000000000000000000000000000000000000\n      dup2\n      mstore\n      0x04\n      add\n      tag_246\n      swap1\n      tag_247\n      jump\t// in\n    tag_246:\n      mload(0x40)\n      dup1\n      swap2\n      sub\n      swap1\n      revert\n    tag_245:\n        /* \"Voting/Voting.sol\":2809:3014  function _isVotingSessionEnded() internal view {... */\n      jump\t// out\n        /* \"Voting/Voting.sol\":7060:7309  function setStatus(WorkflowStatus _status)... */\n    tag_112:\n        /* \"@openzeppelin/contracts/access/Ownable.sol\":1094:1107  _checkOwner() */\n      tag_249\n        /* \"@openzeppelin/contracts/access/Ownable.sol\":1094:1105  _checkOwner */\n      tag_93\n        /* \"@openzeppelin/contracts/access/Ownable.sol\":1094:1107  _checkOwner() */\n      jump\t// in\n    tag_249:\n        /* \"Voting/Voting.sol\":7165:7172  _status */\n      dup1\n        /* \"Voting/Voting.sol\":1469:1497  _isConsistantStatus(_status) */\n      tag_251\n        /* \"Voting/Voting.sol\":1489:1496  _status */\n      dup2\n        /* \"Voting/Voting.sol\":1469:1488  _isConsistantStatus */\n      tag_252\n        /* \"Voting/Voting.sol\":1469:1497  _isConsistantStatus(_status) */\n      jump\t// in\n    tag_251:\n        /* \"Voting/Voting.sol\":7188:7212  WorkflowStatus oldStatus */\n      0x00\n        /* \"Voting/Voting.sol\":7215:7221  status */\n      0x03\n      0x00\n      swap1\n      sload\n      swap1\n      0x0100\n      exp\n      swap1\n      div\n      0xff\n      and\n        /* \"Voting/Voting.sol\":7188:7221  WorkflowStatus oldStatus = status */\n      swap1\n      pop\n        /* \"Voting/Voting.sol\":7240:7247  _status */\n      dup3\n        /* \"Voting/Voting.sol\":7231:7237  status */\n      0x03\n      0x00\n        /* \"Voting/Voting.sol\":7231:7247  status = _status */\n      0x0100\n      exp\n      dup2\n      sload\n      dup2\n      0xff\n      mul\n      not\n      and\n      swap1\n      dup4\n      0x05\n      dup2\n      gt\n      iszero\n      tag_254\n      jumpi\n      tag_255\n      tag_242\n      jump\t// in\n    tag_255:\n    tag_254:\n      mul\n      or\n      swap1\n      sstore\n      pop\n        /* \"Voting/Voting.sol\":7262:7302  WorkflowStatusChange(oldStatus, _status) */\n      0x0a97a4ee45751e2abf3e4fc8946939630b11b371ea8ae39ccdc3056e98f5cc3f\n        /* \"Voting/Voting.sol\":7283:7292  oldStatus */\n      dup2\n        /* \"Voting/Voting.sol\":7294:7301  _status */\n      dup5\n        /* \"Voting/Voting.sol\":7262:7302  WorkflowStatusChange(oldStatus, _status) */\n      mload(0x40)\n      tag_256\n      swap3\n      swap2\n      swap1\n      tag_257\n      jump\t// in\n    tag_256:\n      mload(0x40)\n      dup1\n      swap2\n      sub\n      swap1\n      log1\n        /* \"Voting/Voting.sol\":7178:7309  {... */\n      pop\n        /* \"@openzeppelin/contracts/access/Ownable.sol\":1117:1118  _ */\n      pop\n        /* \"Voting/Voting.sol\":7060:7309  function setStatus(WorkflowStatus _status)... */\n      pop\n      jump\t// out\n        /* \"Voting/Voting.sol\":2062:2290  function _isWhitelisted() internal view {... */\n    tag_119:\n        /* \"Voting/Voting.sol\":2171:2175  true */\n      0x01\n        /* \"Voting/Voting.sol\":2133:2175  whitelist[msg.sender].isRegistered == true */\n      iszero\n      iszero\n        /* \"Voting/Voting.sol\":2133:2142  whitelist */\n      0x01\n        /* \"Voting/Voting.sol\":2133:2154  whitelist[msg.sender] */\n      0x00\n        /* \"Voting/Voting.sol\":2143:2153  msg.sender */\n      caller\n        /* \"Voting/Voting.sol\":2133:2154  whitelist[msg.sender] */\n      0xffffffffffffffffffffffffffffffffffffffff\n      and\n      0xffffffffffffffffffffffffffffffffffffffff\n      and\n      dup2\n      mstore\n      0x20\n      add\n      swap1\n      dup2\n      mstore\n      0x20\n      add\n      0x00\n      keccak256\n        /* \"Voting/Voting.sol\":2133:2167  whitelist[msg.sender].isRegistered */\n      0x00\n      add\n      0x00\n      swap1\n      sload\n      swap1\n      0x0100\n      exp\n      swap1\n      div\n      0xff\n      and\n        /* \"Voting/Voting.sol\":2133:2175  whitelist[msg.sender].isRegistered == true */\n      iszero\n      iszero\n      eq\n        /* \"Voting/Voting.sol\":2133:2200  whitelist[msg.sender].isRegistered == true || owner() == msg.sender */\n      dup1\n      tag_259\n      jumpi\n      pop\n        /* \"Voting/Voting.sol\":2190:2200  msg.sender */\n      caller\n        /* \"Voting/Voting.sol\":2179:2200  owner() == msg.sender */\n      0xffffffffffffffffffffffffffffffffffffffff\n      and\n        /* \"Voting/Voting.sol\":2179:2186  owner() */\n      tag_260\n        /* \"Voting/Voting.sol\":2179:2184  owner */\n      tag_61\n        /* \"Voting/Voting.sol\":2179:2186  owner() */\n      jump\t// in\n    tag_260:\n        /* \"Voting/Voting.sol\":2179:2200  owner() == msg.sender */\n      0xffffffffffffffffffffffffffffffffffffffff\n      and\n      eq\n        /* \"Voting/Voting.sol\":2133:2200  whitelist[msg.sender].isRegistered == true || owner() == msg.sender */\n    tag_259:\n        /* \"Voting/Voting.sol\":2112:2283  require(... */\n      tag_261\n      jumpi\n      mload(0x40)\n      0x08c379a000000000000000000000000000000000000000000000000000000000\n      dup2\n      mstore\n      0x04\n      add\n      tag_262\n      swap1\n      tag_263\n      jump\t// in\n    tag_262:\n      mload(0x40)\n      dup1\n      swap2\n      sub\n      swap1\n      revert\n    tag_261:\n        /* \"Voting/Voting.sol\":2062:2290  function _isWhitelisted() internal view {... */\n      jump\t// out\n        /* \"Voting/Voting.sol\":2352:2558  function _isProposalsRegistrationStarted() internal view {... */\n    tag_122:\n        /* \"Voting/Voting.sol\":2450:2493  WorkflowStatus.ProposalsRegistrationStarted */\n      0x01\n        /* \"Voting/Voting.sol\":2440:2493  status == WorkflowStatus.ProposalsRegistrationStarted */\n      0x05\n      dup2\n      gt\n      iszero\n      tag_265\n      jumpi\n      tag_266\n      tag_242\n      jump\t// in\n    tag_266:\n    tag_265:\n        /* \"Voting/Voting.sol\":2440:2446  status */\n      0x03\n      0x00\n      swap1\n      sload\n      swap1\n      0x0100\n      exp\n      swap1\n      div\n      0xff\n      and\n        /* \"Voting/Voting.sol\":2440:2493  status == WorkflowStatus.ProposalsRegistrationStarted */\n      0x05\n      dup2\n      gt\n      iszero\n      tag_267\n      jumpi\n      tag_268\n      tag_242\n      jump\t// in\n    tag_268:\n    tag_267:\n      eq\n        /* \"Voting/Voting.sol\":2419:2551  require(... */\n      tag_269\n      jumpi\n      mload(0x40)\n      0x08c379a000000000000000000000000000000000000000000000000000000000\n      dup2\n      mstore\n      0x04\n      add\n      tag_270\n      swap1\n      tag_271\n      jump\t// in\n    tag_270:\n      mload(0x40)\n      dup1\n      swap2\n      sub\n      swap1\n      revert\n    tag_269:\n        /* \"Voting/Voting.sol\":2352:2558  function _isProposalsRegistrationStarted() internal view {... */\n      jump\t// out\n        /* \"Voting/Voting.sol\":1816:2014  function _isRegisteringVotersStatus() internal view {... */\n    tag_135:\n        /* \"Voting/Voting.sol\":1909:1941  WorkflowStatus.RegisteringVoters */\n      0x00\n        /* \"Voting/Voting.sol\":1899:1941  status == WorkflowStatus.RegisteringVoters */\n      0x05\n      dup2\n      gt\n      iszero\n      tag_273\n      jumpi\n      tag_274\n      tag_242\n      jump\t// in\n    tag_274:\n    tag_273:\n        /* \"Voting/Voting.sol\":1899:1905  status */\n      0x03\n      0x00\n      swap1\n      sload\n      swap1\n      0x0100\n      exp\n      swap1\n      div\n      0xff\n      and\n        /* \"Voting/Voting.sol\":1899:1941  status == WorkflowStatus.RegisteringVoters */\n      0x05\n      dup2\n      gt\n      iszero\n      tag_275\n      jumpi\n      tag_276\n      tag_242\n      jump\t// in\n    tag_276:\n    tag_275:\n      eq\n        /* \"Voting/Voting.sol\":1878:2007  require(... */\n      tag_277\n      jumpi\n      mload(0x40)\n      0x08c379a000000000000000000000000000000000000000000000000000000000\n      dup2\n      mstore\n      0x04\n      add\n      tag_278\n      swap1\n      tag_279\n      jump\t// in\n    tag_278:\n      mload(0x40)\n      dup1\n      swap2\n      sub\n      swap1\n      revert\n    tag_277:\n        /* \"Voting/Voting.sol\":1816:2014  function _isRegisteringVotersStatus() internal view {... */\n      jump\t// out\n        /* \"@openzeppelin/contracts/access/Ownable.sol\":2433:2620  function _transferOwnership(address newOwner) internal virtual {... */\n    tag_156:\n        /* \"@openzeppelin/contracts/access/Ownable.sol\":2506:2522  address oldOwner */\n      0x00\n        /* \"@openzeppelin/contracts/access/Ownable.sol\":2525:2531  _owner */\n      dup1\n      0x00\n      swap1\n      sload\n      swap1\n      0x0100\n      exp\n      swap1\n      div\n      0xffffffffffffffffffffffffffffffffffffffff\n      and\n        /* \"@openzeppelin/contracts/access/Ownable.sol\":2506:2531  address oldOwner = _owner */\n      swap1\n      pop\n        /* \"@openzeppelin/contracts/access/Ownable.sol\":2550:2558  newOwner */\n      dup2\n        /* \"@openzeppelin/contracts/access/Ownable.sol\":2541:2547  _owner */\n      0x00\n      dup1\n        /* \"@openzeppelin/contracts/access/Ownable.sol\":2541:2558  _owner = newOwner */\n      0x0100\n      exp\n      dup2\n      sload\n      dup2\n      0xffffffffffffffffffffffffffffffffffffffff\n      mul\n      not\n      and\n      swap1\n      dup4\n      0xffffffffffffffffffffffffffffffffffffffff\n      and\n      mul\n      or\n      swap1\n      sstore\n      pop\n        /* \"@openzeppelin/contracts/access/Ownable.sol\":2604:2612  newOwner */\n      dup2\n        /* \"@openzeppelin/contracts/access/Ownable.sol\":2573:2613  OwnershipTransferred(oldOwner, newOwner) */\n      0xffffffffffffffffffffffffffffffffffffffff\n      and\n        /* \"@openzeppelin/contracts/access/Ownable.sol\":2594:2602  oldOwner */\n      dup2\n        /* \"@openzeppelin/contracts/access/Ownable.sol\":2573:2613  OwnershipTransferred(oldOwner, newOwner) */\n      0xffffffffffffffffffffffffffffffffffffffff\n      and\n      0x8be0079c531659141344cd1fd0a4f28419497f9722a3daafe3b4186f6b6457e0\n      mload(0x40)\n      mload(0x40)\n      dup1\n      swap2\n      sub\n      swap1\n      log3\n        /* \"@openzeppelin/contracts/access/Ownable.sol\":2496:2620  {... */\n      pop\n        /* \"@openzeppelin/contracts/access/Ownable.sol\":2433:2620  function _transferOwnership(address newOwner) internal virtual {... */\n      pop\n      jump\t// out\n        /* \"Voting/Voting.sol\":3020:3189  function _isVotesTallied() internal view {... */\n    tag_166:\n        /* \"Voting/Voting.sol\":3102:3129  WorkflowStatus.VotesTallied */\n      0x05\n        /* \"Voting/Voting.sol\":3092:3129  status == WorkflowStatus.VotesTallied */\n      dup1\n      dup2\n      gt\n      iszero\n      tag_282\n      jumpi\n      tag_283\n      tag_242\n      jump\t// in\n    tag_283:\n    tag_282:\n        /* \"Voting/Voting.sol\":3092:3098  status */\n      0x03\n      0x00\n      swap1\n      sload\n      swap1\n      0x0100\n      exp\n      swap1\n      div\n      0xff\n      and\n        /* \"Voting/Voting.sol\":3092:3129  status == WorkflowStatus.VotesTallied */\n      0x05\n      dup2\n      gt\n      iszero\n      tag_284\n      jumpi\n      tag_285\n      tag_242\n      jump\t// in\n    tag_285:\n    tag_284:\n      eq\n        /* \"Voting/Voting.sol\":3071:3182  require(... */\n      tag_286\n      jumpi\n      mload(0x40)\n      0x08c379a000000000000000000000000000000000000000000000000000000000\n      dup2\n      mstore\n      0x04\n      add\n      tag_287\n      swap1\n      tag_288\n      jump\t// in\n    tag_287:\n      mload(0x40)\n      dup1\n      swap2\n      sub\n      swap1\n      revert\n    tag_286:\n        /* \"Voting/Voting.sol\":3020:3189  function _isVotesTallied() internal view {... */\n      jump\t// out\n        /* \"Voting/Voting.sol\":2620:2803  function _isVotingSessionStarted() internal view {... */\n    tag_216:\n        /* \"Voting/Voting.sol\":2710:2745  WorkflowStatus.VotingSessionStarted */\n      0x03\n        /* \"Voting/Voting.sol\":2700:2745  status == WorkflowStatus.VotingSessionStarted */\n      0x05\n      dup2\n      gt\n      iszero\n      tag_290\n      jumpi\n      tag_291\n      tag_242\n      jump\t// in\n    tag_291:\n    tag_290:\n        /* \"Voting/Voting.sol\":2700:2706  status */\n      0x03\n      0x00\n      swap1\n      sload\n      swap1\n      0x0100\n      exp\n      swap1\n      div\n      0xff\n      and\n        /* \"Voting/Voting.sol\":2700:2745  status == WorkflowStatus.VotingSessionStarted */\n      0x05\n      dup2\n      gt\n      iszero\n      tag_292\n      jumpi\n      tag_293\n      tag_242\n      jump\t// in\n    tag_293:\n    tag_292:\n      eq\n        /* \"Voting/Voting.sol\":2679:2796  require(... */\n      tag_294\n      jumpi\n      mload(0x40)\n      0x08c379a000000000000000000000000000000000000000000000000000000000\n      dup2\n      mstore\n      0x04\n      add\n      tag_295\n      swap1\n      tag_296\n      jump\t// in\n    tag_295:\n      mload(0x40)\n      dup1\n      swap2\n      sub\n      swap1\n      revert\n    tag_294:\n        /* \"Voting/Voting.sol\":2620:2803  function _isVotingSessionStarted() internal view {... */\n      jump\t// out\n        /* \"@openzeppelin/contracts/utils/Context.sol\":640:736  function _msgSender() internal view virtual returns (address) {... */\n    tag_234:\n        /* \"@openzeppelin/contracts/utils/Context.sol\":693:700  address */\n      0x00\n        /* \"@openzeppelin/contracts/utils/Context.sol\":719:729  msg.sender */\n      caller\n        /* \"@openzeppelin/contracts/utils/Context.sol\":712:729  return msg.sender */\n      swap1\n      pop\n        /* \"@openzeppelin/contracts/utils/Context.sol\":640:736  function _msgSender() internal view virtual returns (address) {... */\n      swap1\n      jump\t// out\n        /* \"Voting/Voting.sol\":3251:5298  function _isConsistantStatus(WorkflowStatus _status) internal view {... */\n    tag_252:\n        /* \"Voting/Voting.sol\":3343:3375  WorkflowStatus.RegisteringVoters */\n      0x00\n        /* \"Voting/Voting.sol\":3332:3375  _status == WorkflowStatus.RegisteringVoters */\n      0x05\n      dup2\n      gt\n      iszero\n      tag_299\n      jumpi\n      tag_300\n      tag_242\n      jump\t// in\n    tag_300:\n    tag_299:\n        /* \"Voting/Voting.sol\":3332:3339  _status */\n      dup2\n        /* \"Voting/Voting.sol\":3332:3375  _status == WorkflowStatus.RegisteringVoters */\n      0x05\n      dup2\n      gt\n      iszero\n      tag_301\n      jumpi\n      tag_302\n      tag_242\n      jump\t// in\n    tag_302:\n    tag_301:\n      sub\n        /* \"Voting/Voting.sol\":3328:5292  if (_status == WorkflowStatus.RegisteringVoters) {... */\n      tag_303\n      jumpi\n        /* \"Voting/Voting.sol\":3426:3458  WorkflowStatus.RegisteringVoters */\n      0x00\n        /* \"Voting/Voting.sol\":3416:3458  status == WorkflowStatus.RegisteringVoters */\n      0x05\n      dup2\n      gt\n      iszero\n      tag_304\n      jumpi\n      tag_305\n      tag_242\n      jump\t// in\n    tag_305:\n    tag_304:\n        /* \"Voting/Voting.sol\":3416:3422  status */\n      0x03\n      0x00\n      swap1\n      sload\n      swap1\n      0x0100\n      exp\n      swap1\n      div\n      0xff\n      and\n        /* \"Voting/Voting.sol\":3416:3458  status == WorkflowStatus.RegisteringVoters */\n      0x05\n      dup2\n      gt\n      iszero\n      tag_306\n      jumpi\n      tag_307\n      tag_242\n      jump\t// in\n    tag_307:\n    tag_306:\n      eq\n        /* \"Voting/Voting.sol\":3416:3535  status == WorkflowStatus.RegisteringVoters ||... */\n      dup1\n      tag_308\n      jumpi\n      pop\n        /* \"Voting/Voting.sol\":3492:3535  WorkflowStatus.ProposalsRegistrationStarted */\n      0x01\n        /* \"Voting/Voting.sol\":3482:3535  status == WorkflowStatus.ProposalsRegistrationStarted */\n      0x05\n      dup2\n      gt\n      iszero\n      tag_309\n      jumpi\n      tag_310\n      tag_242\n      jump\t// in\n    tag_310:\n    tag_309:\n        /* \"Voting/Voting.sol\":3482:3488  status */\n      0x03\n      0x00\n      swap1\n      sload\n      swap1\n      0x0100\n      exp\n      swap1\n      div\n      0xff\n      and\n        /* \"Voting/Voting.sol\":3482:3535  status == WorkflowStatus.ProposalsRegistrationStarted */\n      0x05\n      dup2\n      gt\n      iszero\n      tag_311\n      jumpi\n      tag_312\n      tag_242\n      jump\t// in\n    tag_312:\n    tag_311:\n      eq\n        /* \"Voting/Voting.sol\":3416:3535  status == WorkflowStatus.RegisteringVoters ||... */\n    tag_308:\n        /* \"Voting/Voting.sol\":3391:3651  require(... */\n      tag_313\n      jumpi\n      mload(0x40)\n      0x08c379a000000000000000000000000000000000000000000000000000000000\n      dup2\n      mstore\n      0x04\n      add\n      tag_314\n      swap1\n      tag_315\n      jump\t// in\n    tag_314:\n      mload(0x40)\n      dup1\n      swap2\n      sub\n      swap1\n      revert\n    tag_313:\n        /* \"Voting/Voting.sol\":3328:5292  if (_status == WorkflowStatus.RegisteringVoters) {... */\n      jump(tag_316)\n    tag_303:\n        /* \"Voting/Voting.sol\":3683:3726  WorkflowStatus.ProposalsRegistrationStarted */\n      0x01\n        /* \"Voting/Voting.sol\":3672:3726  _status == WorkflowStatus.ProposalsRegistrationStarted */\n      0x05\n      dup2\n      gt\n      iszero\n      tag_317\n      jumpi\n      tag_318\n      tag_242\n      jump\t// in\n    tag_318:\n    tag_317:\n        /* \"Voting/Voting.sol\":3672:3679  _status */\n      dup2\n        /* \"Voting/Voting.sol\":3672:3726  _status == WorkflowStatus.ProposalsRegistrationStarted */\n      0x05\n      dup2\n      gt\n      iszero\n      tag_319\n      jumpi\n      tag_320\n      tag_242\n      jump\t// in\n    tag_320:\n    tag_319:\n      sub\n        /* \"Voting/Voting.sol\":3668:5292  if (_status == WorkflowStatus.ProposalsRegistrationStarted) {... */\n      tag_321\n      jumpi\n        /* \"Voting/Voting.sol\":3777:3809  WorkflowStatus.RegisteringVoters */\n      0x00\n        /* \"Voting/Voting.sol\":3767:3809  status == WorkflowStatus.RegisteringVoters */\n      0x05\n      dup2\n      gt\n      iszero\n      tag_322\n      jumpi\n      tag_323\n      tag_242\n      jump\t// in\n    tag_323:\n    tag_322:\n        /* \"Voting/Voting.sol\":3767:3773  status */\n      0x03\n      0x00\n      swap1\n      sload\n      swap1\n      0x0100\n      exp\n      swap1\n      div\n      0xff\n      and\n        /* \"Voting/Voting.sol\":3767:3809  status == WorkflowStatus.RegisteringVoters */\n      0x05\n      dup2\n      gt\n      iszero\n      tag_324\n      jumpi\n      tag_325\n      tag_242\n      jump\t// in\n    tag_325:\n    tag_324:\n      eq\n        /* \"Voting/Voting.sol\":3767:3884  status == WorkflowStatus.RegisteringVoters ||... */\n      dup1\n      tag_326\n      jumpi\n      pop\n        /* \"Voting/Voting.sol\":3843:3884  WorkflowStatus.ProposalsRegistrationEnded */\n      0x02\n        /* \"Voting/Voting.sol\":3833:3884  status == WorkflowStatus.ProposalsRegistrationEnded */\n      0x05\n      dup2\n      gt\n      iszero\n      tag_327\n      jumpi\n      tag_328\n      tag_242\n      jump\t// in\n    tag_328:\n    tag_327:\n        /* \"Voting/Voting.sol\":3833:3839  status */\n      0x03\n      0x00\n      swap1\n      sload\n      swap1\n      0x0100\n      exp\n      swap1\n      div\n      0xff\n      and\n        /* \"Voting/Voting.sol\":3833:3884  status == WorkflowStatus.ProposalsRegistrationEnded */\n      0x05\n      dup2\n      gt\n      iszero\n      tag_329\n      jumpi\n      tag_330\n      tag_242\n      jump\t// in\n    tag_330:\n    tag_329:\n      eq\n        /* \"Voting/Voting.sol\":3767:3884  status == WorkflowStatus.RegisteringVoters ||... */\n    tag_326:\n        /* \"Voting/Voting.sol\":3742:4000  require(... */\n      tag_331\n      jumpi\n      mload(0x40)\n      0x08c379a000000000000000000000000000000000000000000000000000000000\n      dup2\n      mstore\n      0x04\n      add\n      tag_332\n      swap1\n      tag_315\n      jump\t// in\n    tag_332:\n      mload(0x40)\n      dup1\n      swap2\n      sub\n      swap1\n      revert\n    tag_331:\n        /* \"Voting/Voting.sol\":3668:5292  if (_status == WorkflowStatus.ProposalsRegistrationStarted) {... */\n      jump(tag_333)\n    tag_321:\n        /* \"Voting/Voting.sol\":4032:4073  WorkflowStatus.ProposalsRegistrationEnded */\n      0x02\n        /* \"Voting/Voting.sol\":4021:4073  _status == WorkflowStatus.ProposalsRegistrationEnded */\n      0x05\n      dup2\n      gt\n      iszero\n      tag_334\n      jumpi\n      tag_335\n      tag_242\n      jump\t// in\n    tag_335:\n    tag_334:\n        /* \"Voting/Voting.sol\":4021:4028  _status */\n      dup2\n        /* \"Voting/Voting.sol\":4021:4073  _status == WorkflowStatus.ProposalsRegistrationEnded */\n      0x05\n      dup2\n      gt\n      iszero\n      tag_336\n      jumpi\n      tag_337\n      tag_242\n      jump\t// in\n    tag_337:\n    tag_336:\n      sub\n        /* \"Voting/Voting.sol\":4017:5292  if (_status == WorkflowStatus.ProposalsRegistrationEnded) {... */\n      tag_338\n      jumpi\n        /* \"Voting/Voting.sol\":4124:4167  WorkflowStatus.ProposalsRegistrationStarted */\n      0x01\n        /* \"Voting/Voting.sol\":4114:4167  status == WorkflowStatus.ProposalsRegistrationStarted */\n      0x05\n      dup2\n      gt\n      iszero\n      tag_339\n      jumpi\n      tag_340\n      tag_242\n      jump\t// in\n    tag_340:\n    tag_339:\n        /* \"Voting/Voting.sol\":4114:4120  status */\n      0x03\n      0x00\n      swap1\n      sload\n      swap1\n      0x0100\n      exp\n      swap1\n      div\n      0xff\n      and\n        /* \"Voting/Voting.sol\":4114:4167  status == WorkflowStatus.ProposalsRegistrationStarted */\n      0x05\n      dup2\n      gt\n      iszero\n      tag_341\n      jumpi\n      tag_342\n      tag_242\n      jump\t// in\n    tag_342:\n    tag_341:\n      eq\n        /* \"Voting/Voting.sol\":4114:4236  status == WorkflowStatus.ProposalsRegistrationStarted ||... */\n      dup1\n      tag_343\n      jumpi\n      pop\n        /* \"Voting/Voting.sol\":4201:4236  WorkflowStatus.VotingSessionStarted */\n      0x03\n        /* \"Voting/Voting.sol\":4191:4236  status == WorkflowStatus.VotingSessionStarted */\n      0x05\n      dup2\n      gt\n      iszero\n      tag_344\n      jumpi\n      tag_345\n      tag_242\n      jump\t// in\n    tag_345:\n    tag_344:\n        /* \"Voting/Voting.sol\":4191:4197  status */\n      0x03\n      0x00\n      swap1\n      sload\n      swap1\n      0x0100\n      exp\n      swap1\n      div\n      0xff\n      and\n        /* \"Voting/Voting.sol\":4191:4236  status == WorkflowStatus.VotingSessionStarted */\n      0x05\n      dup2\n      gt\n      iszero\n      tag_346\n      jumpi\n      tag_347\n      tag_242\n      jump\t// in\n    tag_347:\n    tag_346:\n      eq\n        /* \"Voting/Voting.sol\":4114:4236  status == WorkflowStatus.ProposalsRegistrationStarted ||... */\n    tag_343:\n        /* \"Voting/Voting.sol\":4089:4352  require(... */\n      tag_348\n      jumpi\n      mload(0x40)\n      0x08c379a000000000000000000000000000000000000000000000000000000000\n      dup2\n      mstore\n      0x04\n      add\n      tag_349\n      swap1\n      tag_315\n      jump\t// in\n    tag_349:\n      mload(0x40)\n      dup1\n      swap2\n      sub\n      swap1\n      revert\n    tag_348:\n        /* \"Voting/Voting.sol\":4017:5292  if (_status == WorkflowStatus.ProposalsRegistrationEnded) {... */\n      jump(tag_350)\n    tag_338:\n        /* \"Voting/Voting.sol\":4384:4419  WorkflowStatus.VotingSessionStarted */\n      0x03\n        /* \"Voting/Voting.sol\":4373:4419  _status == WorkflowStatus.VotingSessionStarted */\n      0x05\n      dup2\n      gt\n      iszero\n      tag_351\n      jumpi\n      tag_352\n      tag_242\n      jump\t// in\n    tag_352:\n    tag_351:\n        /* \"Voting/Voting.sol\":4373:4380  _status */\n      dup2\n        /* \"Voting/Voting.sol\":4373:4419  _status == WorkflowStatus.VotingSessionStarted */\n      0x05\n      dup2\n      gt\n      iszero\n      tag_353\n      jumpi\n      tag_354\n      tag_242\n      jump\t// in\n    tag_354:\n    tag_353:\n      sub\n        /* \"Voting/Voting.sol\":4369:5292  if (_status == WorkflowStatus.VotingSessionStarted) {... */\n      tag_355\n      jumpi\n        /* \"Voting/Voting.sol\":4470:4511  WorkflowStatus.ProposalsRegistrationEnded */\n      0x02\n        /* \"Voting/Voting.sol\":4460:4511  status == WorkflowStatus.ProposalsRegistrationEnded */\n      0x05\n      dup2\n      gt\n      iszero\n      tag_356\n      jumpi\n      tag_357\n      tag_242\n      jump\t// in\n    tag_357:\n    tag_356:\n        /* \"Voting/Voting.sol\":4460:4466  status */\n      0x03\n      0x00\n      swap1\n      sload\n      swap1\n      0x0100\n      exp\n      swap1\n      div\n      0xff\n      and\n        /* \"Voting/Voting.sol\":4460:4511  status == WorkflowStatus.ProposalsRegistrationEnded */\n      0x05\n      dup2\n      gt\n      iszero\n      tag_358\n      jumpi\n      tag_359\n      tag_242\n      jump\t// in\n    tag_359:\n    tag_358:\n      eq\n        /* \"Voting/Voting.sol\":4460:4578  status == WorkflowStatus.ProposalsRegistrationEnded ||... */\n      dup1\n      tag_360\n      jumpi\n      pop\n        /* \"Voting/Voting.sol\":4545:4578  WorkflowStatus.VotingSessionEnded */\n      0x04\n        /* \"Voting/Voting.sol\":4535:4578  status == WorkflowStatus.VotingSessionEnded */\n      0x05\n      dup2\n      gt\n      iszero\n      tag_361\n      jumpi\n      tag_362\n      tag_242\n      jump\t// in\n    tag_362:\n    tag_361:\n        /* \"Voting/Voting.sol\":4535:4541  status */\n      0x03\n      0x00\n      swap1\n      sload\n      swap1\n      0x0100\n      exp\n      swap1\n      div\n      0xff\n      and\n        /* \"Voting/Voting.sol\":4535:4578  status == WorkflowStatus.VotingSessionEnded */\n      0x05\n      dup2\n      gt\n      iszero\n      tag_363\n      jumpi\n      tag_364\n      tag_242\n      jump\t// in\n    tag_364:\n    tag_363:\n      eq\n        /* \"Voting/Voting.sol\":4460:4578  status == WorkflowStatus.ProposalsRegistrationEnded ||... */\n    tag_360:\n        /* \"Voting/Voting.sol\":4435:4694  require(... */\n      tag_365\n      jumpi\n      mload(0x40)\n      0x08c379a000000000000000000000000000000000000000000000000000000000\n      dup2\n      mstore\n      0x04\n      add\n      tag_366\n      swap1\n      tag_315\n      jump\t// in\n    tag_366:\n      mload(0x40)\n      dup1\n      swap2\n      sub\n      swap1\n      revert\n    tag_365:\n        /* \"Voting/Voting.sol\":4369:5292  if (_status == WorkflowStatus.VotingSessionStarted) {... */\n      jump(tag_367)\n    tag_355:\n        /* \"Voting/Voting.sol\":4726:4759  WorkflowStatus.VotingSessionEnded */\n      0x04\n        /* \"Voting/Voting.sol\":4715:4759  _status == WorkflowStatus.VotingSessionEnded */\n      0x05\n      dup2\n      gt\n      iszero\n      tag_368\n      jumpi\n      tag_369\n      tag_242\n      jump\t// in\n    tag_369:\n    tag_368:\n        /* \"Voting/Voting.sol\":4715:4722  _status */\n      dup2\n        /* \"Voting/Voting.sol\":4715:4759  _status == WorkflowStatus.VotingSessionEnded */\n      0x05\n      dup2\n      gt\n      iszero\n      tag_370\n      jumpi\n      tag_371\n      tag_242\n      jump\t// in\n    tag_371:\n    tag_370:\n      sub\n        /* \"Voting/Voting.sol\":4711:5292  if (_status == WorkflowStatus.VotingSessionEnded) {... */\n      tag_372\n      jumpi\n        /* \"Voting/Voting.sol\":4810:4845  WorkflowStatus.VotingSessionStarted */\n      0x03\n        /* \"Voting/Voting.sol\":4800:4845  status == WorkflowStatus.VotingSessionStarted */\n      0x05\n      dup2\n      gt\n      iszero\n      tag_373\n      jumpi\n      tag_374\n      tag_242\n      jump\t// in\n    tag_374:\n    tag_373:\n        /* \"Voting/Voting.sol\":4800:4806  status */\n      0x03\n      0x00\n      swap1\n      sload\n      swap1\n      0x0100\n      exp\n      swap1\n      div\n      0xff\n      and\n        /* \"Voting/Voting.sol\":4800:4845  status == WorkflowStatus.VotingSessionStarted */\n      0x05\n      dup2\n      gt\n      iszero\n      tag_375\n      jumpi\n      tag_376\n      tag_242\n      jump\t// in\n    tag_376:\n    tag_375:\n      eq\n        /* \"Voting/Voting.sol\":4800:4906  status == WorkflowStatus.VotingSessionStarted ||... */\n      dup1\n      tag_377\n      jumpi\n      pop\n        /* \"Voting/Voting.sol\":4879:4906  WorkflowStatus.VotesTallied */\n      0x05\n        /* \"Voting/Voting.sol\":4869:4906  status == WorkflowStatus.VotesTallied */\n      dup1\n      dup2\n      gt\n      iszero\n      tag_378\n      jumpi\n      tag_379\n      tag_242\n      jump\t// in\n    tag_379:\n    tag_378:\n        /* \"Voting/Voting.sol\":4869:4875  status */\n      0x03\n      0x00\n      swap1\n      sload\n      swap1\n      0x0100\n      exp\n      swap1\n      div\n      0xff\n      and\n        /* \"Voting/Voting.sol\":4869:4906  status == WorkflowStatus.VotesTallied */\n      0x05\n      dup2\n      gt\n      iszero\n      tag_380\n      jumpi\n      tag_381\n      tag_242\n      jump\t// in\n    tag_381:\n    tag_380:\n      eq\n        /* \"Voting/Voting.sol\":4800:4906  status == WorkflowStatus.VotingSessionStarted ||... */\n    tag_377:\n        /* \"Voting/Voting.sol\":4775:5022  require(... */\n      tag_382\n      jumpi\n      mload(0x40)\n      0x08c379a000000000000000000000000000000000000000000000000000000000\n      dup2\n      mstore\n      0x04\n      add\n      tag_383\n      swap1\n      tag_315\n      jump\t// in\n    tag_383:\n      mload(0x40)\n      dup1\n      swap2\n      sub\n      swap1\n      revert\n    tag_382:\n        /* \"Voting/Voting.sol\":4711:5292  if (_status == WorkflowStatus.VotingSessionEnded) {... */\n      jump(tag_384)\n    tag_372:\n        /* \"Voting/Voting.sol\":5054:5081  WorkflowStatus.VotesTallied */\n      0x05\n        /* \"Voting/Voting.sol\":5043:5081  _status == WorkflowStatus.VotesTallied */\n      dup1\n      dup2\n      gt\n      iszero\n      tag_385\n      jumpi\n      tag_386\n      tag_242\n      jump\t// in\n    tag_386:\n    tag_385:\n        /* \"Voting/Voting.sol\":5043:5050  _status */\n      dup2\n        /* \"Voting/Voting.sol\":5043:5081  _status == WorkflowStatus.VotesTallied */\n      0x05\n      dup2\n      gt\n      iszero\n      tag_387\n      jumpi\n      tag_388\n      tag_242\n      jump\t// in\n    tag_388:\n    tag_387:\n      sub\n        /* \"Voting/Voting.sol\":5039:5292  if (_status == WorkflowStatus.VotesTallied) {... */\n      tag_389\n      jumpi\n        /* \"Voting/Voting.sol\":5132:5165  WorkflowStatus.VotingSessionEnded */\n      0x04\n        /* \"Voting/Voting.sol\":5122:5165  status == WorkflowStatus.VotingSessionEnded */\n      0x05\n      dup2\n      gt\n      iszero\n      tag_390\n      jumpi\n      tag_391\n      tag_242\n      jump\t// in\n    tag_391:\n    tag_390:\n        /* \"Voting/Voting.sol\":5122:5128  status */\n      0x03\n      0x00\n      swap1\n      sload\n      swap1\n      0x0100\n      exp\n      swap1\n      div\n      0xff\n      and\n        /* \"Voting/Voting.sol\":5122:5165  status == WorkflowStatus.VotingSessionEnded */\n      0x05\n      dup2\n      gt\n      iszero\n      tag_392\n      jumpi\n      tag_393\n      tag_242\n      jump\t// in\n    tag_393:\n    tag_392:\n      eq\n        /* \"Voting/Voting.sol\":5097:5281  require(... */\n      tag_394\n      jumpi\n      mload(0x40)\n      0x08c379a000000000000000000000000000000000000000000000000000000000\n      dup2\n      mstore\n      0x04\n      add\n      tag_395\n      swap1\n      tag_315\n      jump\t// in\n    tag_395:\n      mload(0x40)\n      dup1\n      swap2\n      sub\n      swap1\n      revert\n    tag_394:\n        /* \"Voting/Voting.sol\":5039:5292  if (_status == WorkflowStatus.VotesTallied) {... */\n    tag_389:\n        /* \"Voting/Voting.sol\":4711:5292  if (_status == WorkflowStatus.VotingSessionEnded) {... */\n    tag_384:\n        /* \"Voting/Voting.sol\":4369:5292  if (_status == WorkflowStatus.VotingSessionStarted) {... */\n    tag_367:\n        /* \"Voting/Voting.sol\":4017:5292  if (_status == WorkflowStatus.ProposalsRegistrationEnded) {... */\n    tag_350:\n        /* \"Voting/Voting.sol\":3668:5292  if (_status == WorkflowStatus.ProposalsRegistrationStarted) {... */\n    tag_333:\n        /* \"Voting/Voting.sol\":3328:5292  if (_status == WorkflowStatus.RegisteringVoters) {... */\n    tag_316:\n        /* \"Voting/Voting.sol\":3251:5298  function _isConsistantStatus(WorkflowStatus _status) internal view {... */\n      pop\n      jump\t// out\n    tag_163:\n      mload(0x40)\n      dup1\n      0x40\n      add\n      0x40\n      mstore\n      dup1\n      0x60\n      dup2\n      mstore\n      0x20\n      add\n      0x00\n      dup2\n      mstore\n      pop\n      swap1\n      jump\t// out\n        /* \"#utility.yul\":7:82   */\n    tag_396:\n        /* \"#utility.yul\":40:46   */\n      0x00\n        /* \"#utility.yul\":73:75   */\n      0x40\n        /* \"#utility.yul\":67:76   */\n      mload\n        /* \"#utility.yul\":57:76   */\n      swap1\n      pop\n        /* \"#utility.yul\":7:82   */\n      swap1\n      jump\t// out\n        /* \"#utility.yul\":88:205   */\n    tag_397:\n        /* \"#utility.yul\":197:198   */\n      0x00\n        /* \"#utility.yul\":194:195   */\n      dup1\n        /* \"#utility.yul\":187:199   */\n      revert\n        /* \"#utility.yul\":211:328   */\n    tag_398:\n        /* \"#utility.yul\":320:321   */\n      0x00\n        /* \"#utility.yul\":317:318   */\n      dup1\n        /* \"#utility.yul\":310:322   */\n      revert\n        /* \"#utility.yul\":334:411   */\n    tag_399:\n        /* \"#utility.yul\":371:378   */\n      0x00\n        /* \"#utility.yul\":400:405   */\n      dup2\n        /* \"#utility.yul\":389:405   */\n      swap1\n      pop\n        /* \"#utility.yul\":334:411   */\n      swap2\n      swap1\n      pop\n      jump\t// out\n        /* \"#utility.yul\":417:539   */\n    tag_400:\n        /* \"#utility.yul\":490:514   */\n      tag_490\n        /* \"#utility.yul\":508:513   */\n      dup2\n        /* \"#utility.yul\":490:514   */\n      tag_399\n      jump\t// in\n    tag_490:\n        /* \"#utility.yul\":483:488   */\n      dup2\n        /* \"#utility.yul\":480:515   */\n      eq\n        /* \"#utility.yul\":470:533   */\n      tag_491\n      jumpi\n        /* \"#utility.yul\":529:530   */\n      0x00\n        /* \"#utility.yul\":526:527   */\n      dup1\n        /* \"#utility.yul\":519:531   */\n      revert\n        /* \"#utility.yul\":470:533   */\n    tag_491:\n        /* \"#utility.yul\":417:539   */\n      pop\n      jump\t// out\n        /* \"#utility.yul\":545:684   */\n    tag_401:\n        /* \"#utility.yul\":591:596   */\n      0x00\n        /* \"#utility.yul\":629:635   */\n      dup2\n        /* \"#utility.yul\":616:636   */\n      calldataload\n        /* \"#utility.yul\":607:636   */\n      swap1\n      pop\n        /* \"#utility.yul\":645:678   */\n      tag_493\n        /* \"#utility.yul\":672:677   */\n      dup2\n        /* \"#utility.yul\":645:678   */\n      tag_400\n      jump\t// in\n    tag_493:\n        /* \"#utility.yul\":545:684   */\n      swap3\n      swap2\n      pop\n      pop\n      jump\t// out\n        /* \"#utility.yul\":690:1019   */\n    tag_26:\n        /* \"#utility.yul\":749:755   */\n      0x00\n        /* \"#utility.yul\":798:800   */\n      0x20\n        /* \"#utility.yul\":786:795   */\n      dup3\n        /* \"#utility.yul\":777:784   */\n      dup5\n        /* \"#utility.yul\":773:796   */\n      sub\n        /* \"#utility.yul\":769:801   */\n      slt\n        /* \"#utility.yul\":766:885   */\n      iszero\n      tag_495\n      jumpi\n        /* \"#utility.yul\":804:883   */\n      tag_496\n      tag_397\n      jump\t// in\n    tag_496:\n        /* \"#utility.yul\":766:885   */\n    tag_495:\n        /* \"#utility.yul\":924:925   */\n      0x00\n        /* \"#utility.yul\":949:1002   */\n      tag_497\n        /* \"#utility.yul\":994:1001   */\n      dup5\n        /* \"#utility.yul\":985:991   */\n      dup3\n        /* \"#utility.yul\":974:983   */\n      dup6\n        /* \"#utility.yul\":970:992   */\n      add\n        /* \"#utility.yul\":949:1002   */\n      tag_401\n      jump\t// in\n    tag_497:\n        /* \"#utility.yul\":939:1002   */\n      swap2\n      pop\n        /* \"#utility.yul\":895:1012   */\n      pop\n        /* \"#utility.yul\":690:1019   */\n      swap3\n      swap2\n      pop\n      pop\n      jump\t// out\n        /* \"#utility.yul\":1025:1124   */\n    tag_402:\n        /* \"#utility.yul\":1077:1083   */\n      0x00\n        /* \"#utility.yul\":1111:1116   */\n      dup2\n        /* \"#utility.yul\":1105:1117   */\n      mload\n        /* \"#utility.yul\":1095:1117   */\n      swap1\n      pop\n        /* \"#utility.yul\":1025:1124   */\n      swap2\n      swap1\n      pop\n      jump\t// out\n        /* \"#utility.yul\":1130:1299   */\n    tag_403:\n        /* \"#utility.yul\":1214:1225   */\n      0x00\n        /* \"#utility.yul\":1248:1254   */\n      dup3\n        /* \"#utility.yul\":1243:1246   */\n      dup3\n        /* \"#utility.yul\":1236:1255   */\n      mstore\n        /* \"#utility.yul\":1288:1292   */\n      0x20\n        /* \"#utility.yul\":1283:1286   */\n      dup3\n        /* \"#utility.yul\":1279:1293   */\n      add\n        /* \"#utility.yul\":1264:1293   */\n      swap1\n      pop\n        /* \"#utility.yul\":1130:1299   */\n      swap3\n      swap2\n      pop\n      pop\n      jump\t// out\n        /* \"#utility.yul\":1305:1551   */\n    tag_404:\n        /* \"#utility.yul\":1386:1387   */\n      0x00\n        /* \"#utility.yul\":1396:1509   */\n    tag_501:\n        /* \"#utility.yul\":1410:1416   */\n      dup4\n        /* \"#utility.yul\":1407:1408   */\n      dup2\n        /* \"#utility.yul\":1404:1417   */\n      lt\n        /* \"#utility.yul\":1396:1509   */\n      iszero\n      tag_503\n      jumpi\n        /* \"#utility.yul\":1495:1496   */\n      dup1\n        /* \"#utility.yul\":1490:1493   */\n      dup3\n        /* \"#utility.yul\":1486:1497   */\n      add\n        /* \"#utility.yul\":1480:1498   */\n      mload\n        /* \"#utility.yul\":1476:1477   */\n      dup2\n        /* \"#utility.yul\":1471:1474   */\n      dup5\n        /* \"#utility.yul\":1467:1478   */\n      add\n        /* \"#utility.yul\":1460:1499   */\n      mstore\n        /* \"#utility.yul\":1432:1434   */\n      0x20\n        /* \"#utility.yul\":1429:1430   */\n      dup2\n        /* \"#utility.yul\":1425:1435   */\n      add\n        /* \"#utility.yul\":1420:1435   */\n      swap1\n      pop\n        /* \"#utility.yul\":1396:1509   */\n      jump(tag_501)\n    tag_503:\n        /* \"#utility.yul\":1543:1544   */\n      0x00\n        /* \"#utility.yul\":1534:1540   */\n      dup5\n        /* \"#utility.yul\":1529:1532   */\n      dup5\n        /* \"#utility.yul\":1525:1541   */\n      add\n        /* \"#utility.yul\":1518:1545   */\n      mstore\n        /* \"#utility.yul\":1367:1551   */\n      pop\n        /* \"#utility.yul\":1305:1551   */\n      pop\n      pop\n      pop\n      jump\t// out\n        /* \"#utility.yul\":1557:1659   */\n    tag_405:\n        /* \"#utility.yul\":1598:1604   */\n      0x00\n        /* \"#utility.yul\":1649:1651   */\n      0x1f\n        /* \"#utility.yul\":1645:1652   */\n      not\n        /* \"#utility.yul\":1640:1642   */\n      0x1f\n        /* \"#utility.yul\":1633:1638   */\n      dup4\n        /* \"#utility.yul\":1629:1643   */\n      add\n        /* \"#utility.yul\":1625:1653   */\n      and\n        /* \"#utility.yul\":1615:1653   */\n      swap1\n      pop\n        /* \"#utility.yul\":1557:1659   */\n      swap2\n      swap1\n      pop\n      jump\t// out\n        /* \"#utility.yul\":1665:2042   */\n    tag_406:\n        /* \"#utility.yul\":1753:1756   */\n      0x00\n        /* \"#utility.yul\":1781:1820   */\n      tag_506\n        /* \"#utility.yul\":1814:1819   */\n      dup3\n        /* \"#utility.yul\":1781:1820   */\n      tag_402\n      jump\t// in\n    tag_506:\n        /* \"#utility.yul\":1836:1907   */\n      tag_507\n        /* \"#utility.yul\":1900:1906   */\n      dup2\n        /* \"#utility.yul\":1895:1898   */\n      dup6\n        /* \"#utility.yul\":1836:1907   */\n      tag_403\n      jump\t// in\n    tag_507:\n        /* \"#utility.yul\":1829:1907   */\n      swap4\n      pop\n        /* \"#utility.yul\":1916:1981   */\n      tag_508\n        /* \"#utility.yul\":1974:1980   */\n      dup2\n        /* \"#utility.yul\":1969:1972   */\n      dup6\n        /* \"#utility.yul\":1962:1966   */\n      0x20\n        /* \"#utility.yul\":1955:1960   */\n      dup7\n        /* \"#utility.yul\":1951:1967   */\n      add\n        /* \"#utility.yul\":1916:1981   */\n      tag_404\n      jump\t// in\n    tag_508:\n        /* \"#utility.yul\":2006:2035   */\n      tag_509\n        /* \"#utility.yul\":2028:2034   */\n      dup2\n        /* \"#utility.yul\":2006:2035   */\n      tag_405\n      jump\t// in\n    tag_509:\n        /* \"#utility.yul\":2001:2004   */\n      dup5\n        /* \"#utility.yul\":1997:2036   */\n      add\n        /* \"#utility.yul\":1990:2036   */\n      swap2\n      pop\n        /* \"#utility.yul\":1757:2042   */\n      pop\n        /* \"#utility.yul\":1665:2042   */\n      swap3\n      swap2\n      pop\n      pop\n      jump\t// out\n        /* \"#utility.yul\":2048:2166   */\n    tag_407:\n        /* \"#utility.yul\":2135:2159   */\n      tag_511\n        /* \"#utility.yul\":2153:2158   */\n      dup2\n        /* \"#utility.yul\":2135:2159   */\n      tag_399\n      jump\t// in\n    tag_511:\n        /* \"#utility.yul\":2130:2133   */\n      dup3\n        /* \"#utility.yul\":2123:2160   */\n      mstore\n        /* \"#utility.yul\":2048:2166   */\n      pop\n      pop\n      jump\t// out\n        /* \"#utility.yul\":2172:2595   */\n    tag_29:\n        /* \"#utility.yul\":2313:2317   */\n      0x00\n        /* \"#utility.yul\":2351:2353   */\n      0x40\n        /* \"#utility.yul\":2340:2349   */\n      dup3\n        /* \"#utility.yul\":2336:2354   */\n      add\n        /* \"#utility.yul\":2328:2354   */\n      swap1\n      pop\n        /* \"#utility.yul\":2400:2409   */\n      dup2\n        /* \"#utility.yul\":2394:2398   */\n      dup2\n        /* \"#utility.yul\":2390:2410   */\n      sub\n        /* \"#utility.yul\":2386:2387   */\n      0x00\n        /* \"#utility.yul\":2375:2384   */\n      dup4\n        /* \"#utility.yul\":2371:2388   */\n      add\n        /* \"#utility.yul\":2364:2411   */\n      mstore\n        /* \"#utility.yul\":2428:2506   */\n      tag_513\n        /* \"#utility.yul\":2501:2505   */\n      dup2\n        /* \"#utility.yul\":2492:2498   */\n      dup6\n        /* \"#utility.yul\":2428:2506   */\n      tag_406\n      jump\t// in\n    tag_513:\n        /* \"#utility.yul\":2420:2506   */\n      swap1\n      pop\n        /* \"#utility.yul\":2516:2588   */\n      tag_514\n        /* \"#utility.yul\":2584:2586   */\n      0x20\n        /* \"#utility.yul\":2573:2582   */\n      dup4\n        /* \"#utility.yul\":2569:2587   */\n      add\n        /* \"#utility.yul\":2560:2566   */\n      dup5\n        /* \"#utility.yul\":2516:2588   */\n      tag_407\n      jump\t// in\n    tag_514:\n        /* \"#utility.yul\":2172:2595   */\n      swap4\n      swap3\n      pop\n      pop\n      pop\n      jump\t// out\n        /* \"#utility.yul\":2601:2781   */\n    tag_242:\n        /* \"#utility.yul\":2649:2726   */\n      0x4e487b7100000000000000000000000000000000000000000000000000000000\n        /* \"#utility.yul\":2646:2647   */\n      0x00\n        /* \"#utility.yul\":2639:2727   */\n      mstore\n        /* \"#utility.yul\":2746:2750   */\n      0x21\n        /* \"#utility.yul\":2743:2744   */\n      0x04\n        /* \"#utility.yul\":2736:2751   */\n      mstore\n        /* \"#utility.yul\":2770:2774   */\n      0x24\n        /* \"#utility.yul\":2767:2768   */\n      0x00\n        /* \"#utility.yul\":2760:2775   */\n      revert\n        /* \"#utility.yul\":2787:2910   */\n    tag_408:\n        /* \"#utility.yul\":2878:2879   */\n      0x06\n        /* \"#utility.yul\":2871:2876   */\n      dup2\n        /* \"#utility.yul\":2868:2880   */\n      lt\n        /* \"#utility.yul\":2858:2904   */\n      tag_517\n      jumpi\n        /* \"#utility.yul\":2884:2902   */\n      tag_518\n      tag_242\n      jump\t// in\n    tag_518:\n        /* \"#utility.yul\":2858:2904   */\n    tag_517:\n        /* \"#utility.yul\":2787:2910   */\n      pop\n      jump\t// out\n        /* \"#utility.yul\":2916:3063   */\n    tag_409:\n        /* \"#utility.yul\":2971:2978   */\n      0x00\n        /* \"#utility.yul\":3000:3005   */\n      dup2\n        /* \"#utility.yul\":2989:3005   */\n      swap1\n      pop\n        /* \"#utility.yul\":3006:3057   */\n      tag_520\n        /* \"#utility.yul\":3051:3056   */\n      dup3\n        /* \"#utility.yul\":3006:3057   */\n      tag_408\n      jump\t// in\n    tag_520:\n        /* \"#utility.yul\":2916:3063   */\n      swap2\n      swap1\n      pop\n      jump\t// out\n        /* \"#utility.yul\":3069:3216   */\n    tag_410:\n        /* \"#utility.yul\":3135:3144   */\n      0x00\n        /* \"#utility.yul\":3168:3210   */\n      tag_522\n        /* \"#utility.yul\":3204:3209   */\n      dup3\n        /* \"#utility.yul\":3168:3210   */\n      tag_409\n      jump\t// in\n    tag_522:\n        /* \"#utility.yul\":3155:3210   */\n      swap1\n      pop\n        /* \"#utility.yul\":3069:3216   */\n      swap2\n      swap1\n      pop\n      jump\t// out\n        /* \"#utility.yul\":3222:3385   */\n    tag_411:\n        /* \"#utility.yul\":3325:3378   */\n      tag_524\n        /* \"#utility.yul\":3372:3377   */\n      dup2\n        /* \"#utility.yul\":3325:3378   */\n      tag_410\n      jump\t// in\n    tag_524:\n        /* \"#utility.yul\":3320:3323   */\n      dup3\n        /* \"#utility.yul\":3313:3379   */\n      mstore\n        /* \"#utility.yul\":3222:3385   */\n      pop\n      pop\n      jump\t// out\n        /* \"#utility.yul\":3391:3645   */\n    tag_39:\n        /* \"#utility.yul\":3500:3504   */\n      0x00\n        /* \"#utility.yul\":3538:3540   */\n      0x20\n        /* \"#utility.yul\":3527:3536   */\n      dup3\n        /* \"#utility.yul\":3523:3541   */\n      add\n        /* \"#utility.yul\":3515:3541   */\n      swap1\n      pop\n        /* \"#utility.yul\":3551:3638   */\n      tag_526\n        /* \"#utility.yul\":3635:3636   */\n      0x00\n        /* \"#utility.yul\":3624:3633   */\n      dup4\n        /* \"#utility.yul\":3620:3637   */\n      add\n        /* \"#utility.yul\":3611:3617   */\n      dup5\n        /* \"#utility.yul\":3551:3638   */\n      tag_411\n      jump\t// in\n    tag_526:\n        /* \"#utility.yul\":3391:3645   */\n      swap3\n      swap2\n      pop\n      pop\n      jump\t// out\n        /* \"#utility.yul\":3651:3768   */\n    tag_412:\n        /* \"#utility.yul\":3760:3761   */\n      0x00\n        /* \"#utility.yul\":3757:3758   */\n      dup1\n        /* \"#utility.yul\":3750:3762   */\n      revert\n        /* \"#utility.yul\":3774:3891   */\n    tag_413:\n        /* \"#utility.yul\":3883:3884   */\n      0x00\n        /* \"#utility.yul\":3880:3881   */\n      dup1\n        /* \"#utility.yul\":3873:3885   */\n      revert\n        /* \"#utility.yul\":3897:4077   */\n    tag_414:\n        /* \"#utility.yul\":3945:4022   */\n      0x4e487b7100000000000000000000000000000000000000000000000000000000\n        /* \"#utility.yul\":3942:3943   */\n      0x00\n        /* \"#utility.yul\":3935:4023   */\n      mstore\n        /* \"#utility.yul\":4042:4046   */\n      0x41\n        /* \"#utility.yul\":4039:4040   */\n      0x04\n        /* \"#utility.yul\":4032:4047   */\n      mstore\n        /* \"#utility.yul\":4066:4070   */\n      0x24\n        /* \"#utility.yul\":4063:4064   */\n      0x00\n        /* \"#utility.yul\":4056:4071   */\n      revert\n        /* \"#utility.yul\":4083:4364   */\n    tag_415:\n        /* \"#utility.yul\":4166:4193   */\n      tag_531\n        /* \"#utility.yul\":4188:4192   */\n      dup3\n        /* \"#utility.yul\":4166:4193   */\n      tag_405\n      jump\t// in\n    tag_531:\n        /* \"#utility.yul\":4158:4164   */\n      dup2\n        /* \"#utility.yul\":4154:4194   */\n      add\n        /* \"#utility.yul\":4296:4302   */\n      dup2\n        /* \"#utility.yul\":4284:4294   */\n      dup2\n        /* \"#utility.yul\":4281:4303   */\n      lt\n        /* \"#utility.yul\":4260:4278   */\n      0xffffffffffffffff\n        /* \"#utility.yul\":4248:4258   */\n      dup3\n        /* \"#utility.yul\":4245:4279   */\n      gt\n        /* \"#utility.yul\":4242:4304   */\n      or\n        /* \"#utility.yul\":4239:4327   */\n      iszero\n      tag_532\n      jumpi\n        /* \"#utility.yul\":4307:4325   */\n      tag_533\n      tag_414\n      jump\t// in\n    tag_533:\n        /* \"#utility.yul\":4239:4327   */\n    tag_532:\n        /* \"#utility.yul\":4347:4357   */\n      dup1\n        /* \"#utility.yul\":4343:4345   */\n      0x40\n        /* \"#utility.yul\":4336:4358   */\n      mstore\n        /* \"#utility.yul\":4126:4364   */\n      pop\n        /* \"#utility.yul\":4083:4364   */\n      pop\n      pop\n      jump\t// out\n        /* \"#utility.yul\":4370:4499   */\n    tag_416:\n        /* \"#utility.yul\":4404:4410   */\n      0x00\n        /* \"#utility.yul\":4431:4451   */\n      tag_535\n      tag_396\n      jump\t// in\n    tag_535:\n        /* \"#utility.yul\":4421:4451   */\n      swap1\n      pop\n        /* \"#utility.yul\":4460:4493   */\n      tag_536\n        /* \"#utility.yul\":4488:4492   */\n      dup3\n        /* \"#utility.yul\":4480:4486   */\n      dup3\n        /* \"#utility.yul\":4460:4493   */\n      tag_415\n      jump\t// in\n    tag_536:\n        /* \"#utility.yul\":4370:4499   */\n      swap2\n      swap1\n      pop\n      jump\t// out\n        /* \"#utility.yul\":4505:4813   */\n    tag_417:\n        /* \"#utility.yul\":4567:4571   */\n      0x00\n        /* \"#utility.yul\":4657:4675   */\n      0xffffffffffffffff\n        /* \"#utility.yul\":4649:4655   */\n      dup3\n        /* \"#utility.yul\":4646:4676   */\n      gt\n        /* \"#utility.yul\":4643:4699   */\n      iszero\n      tag_538\n      jumpi\n        /* \"#utility.yul\":4679:4697   */\n      tag_539\n      tag_414\n      jump\t// in\n    tag_539:\n        /* \"#utility.yul\":4643:4699   */\n    tag_538:\n        /* \"#utility.yul\":4717:4746   */\n      tag_540\n        /* \"#utility.yul\":4739:4745   */\n      dup3\n        /* \"#utility.yul\":4717:4746   */\n      tag_405\n      jump\t// in\n    tag_540:\n        /* \"#utility.yul\":4709:4746   */\n      swap1\n      pop\n        /* \"#utility.yul\":4801:4805   */\n      0x20\n        /* \"#utility.yul\":4795:4799   */\n      dup2\n        /* \"#utility.yul\":4791:4806   */\n      add\n        /* \"#utility.yul\":4783:4806   */\n      swap1\n      pop\n        /* \"#utility.yul\":4505:4813   */\n      swap2\n      swap1\n      pop\n      jump\t// out\n        /* \"#utility.yul\":4819:4965   */\n    tag_418:\n        /* \"#utility.yul\":4916:4922   */\n      dup3\n        /* \"#utility.yul\":4911:4914   */\n      dup2\n        /* \"#utility.yul\":4906:4909   */\n      dup4\n        /* \"#utility.yul\":4893:4923   */\n      calldatacopy\n        /* \"#utility.yul\":4957:4958   */\n      0x00\n        /* \"#utility.yul\":4948:4954   */\n      dup4\n        /* \"#utility.yul\":4943:4946   */\n      dup4\n        /* \"#utility.yul\":4939:4955   */\n      add\n        /* \"#utility.yul\":4932:4959   */\n      mstore\n        /* \"#utility.yul\":4819:4965   */\n      pop\n      pop\n      pop\n      jump\t// out\n        /* \"#utility.yul\":4971:5396   */\n    tag_419:\n        /* \"#utility.yul\":5049:5054   */\n      0x00\n        /* \"#utility.yul\":5074:5140   */\n      tag_543\n        /* \"#utility.yul\":5090:5139   */\n      tag_544\n        /* \"#utility.yul\":5132:5138   */\n      dup5\n        /* \"#utility.yul\":5090:5139   */\n      tag_417\n      jump\t// in\n    tag_544:\n        /* \"#utility.yul\":5074:5140   */\n      tag_416\n      jump\t// in\n    tag_543:\n        /* \"#utility.yul\":5065:5140   */\n      swap1\n      pop\n        /* \"#utility.yul\":5163:5169   */\n      dup3\n        /* \"#utility.yul\":5156:5161   */\n      dup2\n        /* \"#utility.yul\":5149:5170   */\n      mstore\n        /* \"#utility.yul\":5201:5205   */\n      0x20\n        /* \"#utility.yul\":5194:5199   */\n      dup2\n        /* \"#utility.yul\":5190:5206   */\n      add\n        /* \"#utility.yul\":5239:5242   */\n      dup5\n        /* \"#utility.yul\":5230:5236   */\n      dup5\n        /* \"#utility.yul\":5225:5228   */\n      dup5\n        /* \"#utility.yul\":5221:5237   */\n      add\n        /* \"#utility.yul\":5218:5243   */\n      gt\n        /* \"#utility.yul\":5215:5327   */\n      iszero\n      tag_545\n      jumpi\n        /* \"#utility.yul\":5246:5325   */\n      tag_546\n      tag_413\n      jump\t// in\n    tag_546:\n        /* \"#utility.yul\":5215:5327   */\n    tag_545:\n        /* \"#utility.yul\":5336:5390   */\n      tag_547\n        /* \"#utility.yul\":5383:5389   */\n      dup5\n        /* \"#utility.yul\":5378:5381   */\n      dup3\n        /* \"#utility.yul\":5373:5376   */\n      dup6\n        /* \"#utility.yul\":5336:5390   */\n      tag_418\n      jump\t// in\n    tag_547:\n        /* \"#utility.yul\":5055:5396   */\n      pop\n        /* \"#utility.yul\":4971:5396   */\n      swap4\n      swap3\n      pop\n      pop\n      pop\n      jump\t// out\n        /* \"#utility.yul\":5416:5756   */\n    tag_420:\n        /* \"#utility.yul\":5472:5477   */\n      0x00\n        /* \"#utility.yul\":5521:5524   */\n      dup3\n        /* \"#utility.yul\":5514:5518   */\n      0x1f\n        /* \"#utility.yul\":5506:5512   */\n      dup4\n        /* \"#utility.yul\":5502:5519   */\n      add\n        /* \"#utility.yul\":5498:5525   */\n      slt\n        /* \"#utility.yul\":5488:5610   */\n      tag_549\n      jumpi\n        /* \"#utility.yul\":5529:5608   */\n      tag_550\n      tag_412\n      jump\t// in\n    tag_550:\n        /* \"#utility.yul\":5488:5610   */\n    tag_549:\n        /* \"#utility.yul\":5646:5652   */\n      dup2\n        /* \"#utility.yul\":5633:5653   */\n      calldataload\n        /* \"#utility.yul\":5671:5750   */\n      tag_551\n        /* \"#utility.yul\":5746:5749   */\n      dup5\n        /* \"#utility.yul\":5738:5744   */\n      dup3\n        /* \"#utility.yul\":5731:5735   */\n      0x20\n        /* \"#utility.yul\":5723:5729   */\n      dup7\n        /* \"#utility.yul\":5719:5736   */\n      add\n        /* \"#utility.yul\":5671:5750   */\n      tag_419\n      jump\t// in\n    tag_551:\n        /* \"#utility.yul\":5662:5750   */\n      swap2\n      pop\n        /* \"#utility.yul\":5478:5756   */\n      pop\n        /* \"#utility.yul\":5416:5756   */\n      swap3\n      swap2\n      pop\n      pop\n      jump\t// out\n        /* \"#utility.yul\":5762:6271   */\n    tag_42:\n        /* \"#utility.yul\":5831:5837   */\n      0x00\n        /* \"#utility.yul\":5880:5882   */\n      0x20\n        /* \"#utility.yul\":5868:5877   */\n      dup3\n        /* \"#utility.yul\":5859:5866   */\n      dup5\n        /* \"#utility.yul\":5855:5878   */\n      sub\n        /* \"#utility.yul\":5851:5883   */\n      slt\n        /* \"#utility.yul\":5848:5967   */\n      iszero\n      tag_553\n      jumpi\n        /* \"#utility.yul\":5886:5965   */\n      tag_554\n      tag_397\n      jump\t// in\n    tag_554:\n        /* \"#utility.yul\":5848:5967   */\n    tag_553:\n        /* \"#utility.yul\":6034:6035   */\n      0x00\n        /* \"#utility.yul\":6023:6032   */\n      dup3\n        /* \"#utility.yul\":6019:6036   */\n      add\n        /* \"#utility.yul\":6006:6037   */\n      calldataload\n        /* \"#utility.yul\":6064:6082   */\n      0xffffffffffffffff\n        /* \"#utility.yul\":6056:6062   */\n      dup2\n        /* \"#utility.yul\":6053:6083   */\n      gt\n        /* \"#utility.yul\":6050:6167   */\n      iszero\n      tag_555\n      jumpi\n        /* \"#utility.yul\":6086:6165   */\n      tag_556\n      tag_398\n      jump\t// in\n    tag_556:\n        /* \"#utility.yul\":6050:6167   */\n    tag_555:\n        /* \"#utility.yul\":6191:6254   */\n      tag_557\n        /* \"#utility.yul\":6246:6253   */\n      dup5\n        /* \"#utility.yul\":6237:6243   */\n      dup3\n        /* \"#utility.yul\":6226:6235   */\n      dup6\n        /* \"#utility.yul\":6222:6244   */\n      add\n        /* \"#utility.yul\":6191:6254   */\n      tag_420\n      jump\t// in\n    tag_557:\n        /* \"#utility.yul\":6181:6254   */\n      swap2\n      pop\n        /* \"#utility.yul\":5977:6264   */\n      pop\n        /* \"#utility.yul\":5762:6271   */\n      swap3\n      swap2\n      pop\n      pop\n      jump\t// out\n        /* \"#utility.yul\":6277:6403   */\n    tag_421:\n        /* \"#utility.yul\":6314:6321   */\n      0x00\n        /* \"#utility.yul\":6354:6396   */\n      0xffffffffffffffffffffffffffffffffffffffff\n        /* \"#utility.yul\":6347:6352   */\n      dup3\n        /* \"#utility.yul\":6343:6397   */\n      and\n        /* \"#utility.yul\":6332:6397   */\n      swap1\n      pop\n        /* \"#utility.yul\":6277:6403   */\n      swap2\n      swap1\n      pop\n      jump\t// out\n        /* \"#utility.yul\":6409:6505   */\n    tag_422:\n        /* \"#utility.yul\":6446:6453   */\n      0x00\n        /* \"#utility.yul\":6475:6499   */\n      tag_560\n        /* \"#utility.yul\":6493:6498   */\n      dup3\n        /* \"#utility.yul\":6475:6499   */\n      tag_421\n      jump\t// in\n    tag_560:\n        /* \"#utility.yul\":6464:6499   */\n      swap1\n      pop\n        /* \"#utility.yul\":6409:6505   */\n      swap2\n      swap1\n      pop\n      jump\t// out\n        /* \"#utility.yul\":6511:6633   */\n    tag_423:\n        /* \"#utility.yul\":6584:6608   */\n      tag_562\n        /* \"#utility.yul\":6602:6607   */\n      dup2\n        /* \"#utility.yul\":6584:6608   */\n      tag_422\n      jump\t// in\n    tag_562:\n        /* \"#utility.yul\":6577:6582   */\n      dup2\n        /* \"#utility.yul\":6574:6609   */\n      eq\n        /* \"#utility.yul\":6564:6627   */\n      tag_563\n      jumpi\n        /* \"#utility.yul\":6623:6624   */\n      0x00\n        /* \"#utility.yul\":6620:6621   */\n      dup1\n        /* \"#utility.yul\":6613:6625   */\n      revert\n        /* \"#utility.yul\":6564:6627   */\n    tag_563:\n        /* \"#utility.yul\":6511:6633   */\n      pop\n      jump\t// out\n        /* \"#utility.yul\":6639:6778   */\n    tag_424:\n        /* \"#utility.yul\":6685:6690   */\n      0x00\n        /* \"#utility.yul\":6723:6729   */\n      dup2\n        /* \"#utility.yul\":6710:6730   */\n      calldataload\n        /* \"#utility.yul\":6701:6730   */\n      swap1\n      pop\n        /* \"#utility.yul\":6739:6772   */\n      tag_565\n        /* \"#utility.yul\":6766:6771   */\n      dup2\n        /* \"#utility.yul\":6739:6772   */\n      tag_423\n      jump\t// in\n    tag_565:\n        /* \"#utility.yul\":6639:6778   */\n      swap3\n      swap2\n      pop\n      pop\n      jump\t// out\n        /* \"#utility.yul\":6784:7113   */\n    tag_46:\n        /* \"#utility.yul\":6843:6849   */\n      0x00\n        /* \"#utility.yul\":6892:6894   */\n      0x20\n        /* \"#utility.yul\":6880:6889   */\n      dup3\n        /* \"#utility.yul\":6871:6878   */\n      dup5\n        /* \"#utility.yul\":6867:6890   */\n      sub\n        /* \"#utility.yul\":6863:6895   */\n      slt\n        /* \"#utility.yul\":6860:6979   */\n      iszero\n      tag_567\n      jumpi\n        /* \"#utility.yul\":6898:6977   */\n      tag_568\n      tag_397\n      jump\t// in\n    tag_568:\n        /* \"#utility.yul\":6860:6979   */\n    tag_567:\n        /* \"#utility.yul\":7018:7019   */\n      0x00\n        /* \"#utility.yul\":7043:7096   */\n      tag_569\n        /* \"#utility.yul\":7088:7095   */\n      dup5\n        /* \"#utility.yul\":7079:7085   */\n      dup3\n        /* \"#utility.yul\":7068:7077   */\n      dup6\n        /* \"#utility.yul\":7064:7086   */\n      add\n        /* \"#utility.yul\":7043:7096   */\n      tag_424\n      jump\t// in\n    tag_569:\n        /* \"#utility.yul\":7033:7096   */\n      swap2\n      pop\n        /* \"#utility.yul\":6989:7106   */\n      pop\n        /* \"#utility.yul\":6784:7113   */\n      swap3\n      swap2\n      pop\n      pop\n      jump\t// out\n        /* \"#utility.yul\":7119:7258   */\n    tag_425:\n        /* \"#utility.yul\":7211:7217   */\n      0x00\n        /* \"#utility.yul\":7245:7250   */\n      dup2\n        /* \"#utility.yul\":7239:7251   */\n      mload\n        /* \"#utility.yul\":7229:7251   */\n      swap1\n      pop\n        /* \"#utility.yul\":7119:7258   */\n      swap2\n      swap1\n      pop\n      jump\t// out\n        /* \"#utility.yul\":7264:7473   */\n    tag_426:\n        /* \"#utility.yul\":7388:7399   */\n      0x00\n        /* \"#utility.yul\":7422:7428   */\n      dup3\n        /* \"#utility.yul\":7417:7420   */\n      dup3\n        /* \"#utility.yul\":7410:7429   */\n      mstore\n        /* \"#utility.yul\":7462:7466   */\n      0x20\n        /* \"#utility.yul\":7457:7460   */\n      dup3\n        /* \"#utility.yul\":7453:7467   */\n      add\n        /* \"#utility.yul\":7438:7467   */\n      swap1\n      pop\n        /* \"#utility.yul\":7264:7473   */\n      swap3\n      swap2\n      pop\n      pop\n      jump\t// out\n        /* \"#utility.yul\":7479:7636   */\n    tag_427:\n        /* \"#utility.yul\":7571:7575   */\n      0x00\n        /* \"#utility.yul\":7594:7597   */\n      dup2\n        /* \"#utility.yul\":7586:7597   */\n      swap1\n      pop\n        /* \"#utility.yul\":7624:7628   */\n      0x20\n        /* \"#utility.yul\":7619:7622   */\n      dup3\n        /* \"#utility.yul\":7615:7629   */\n      add\n        /* \"#utility.yul\":7607:7629   */\n      swap1\n      pop\n        /* \"#utility.yul\":7479:7636   */\n      swap2\n      swap1\n      pop\n      jump\t// out\n        /* \"#utility.yul\":7642:7801   */\n    tag_428:\n        /* \"#utility.yul\":7716:7727   */\n      0x00\n        /* \"#utility.yul\":7750:7756   */\n      dup3\n        /* \"#utility.yul\":7745:7748   */\n      dup3\n        /* \"#utility.yul\":7738:7757   */\n      mstore\n        /* \"#utility.yul\":7790:7794   */\n      0x20\n        /* \"#utility.yul\":7785:7788   */\n      dup3\n        /* \"#utility.yul\":7781:7795   */\n      add\n        /* \"#utility.yul\":7766:7795   */\n      swap1\n      pop\n        /* \"#utility.yul\":7642:7801   */\n      swap3\n      swap2\n      pop\n      pop\n      jump\t// out\n        /* \"#utility.yul\":7807:8164   */\n    tag_429:\n        /* \"#utility.yul\":7885:7888   */\n      0x00\n        /* \"#utility.yul\":7913:7952   */\n      tag_575\n        /* \"#utility.yul\":7946:7951   */\n      dup3\n        /* \"#utility.yul\":7913:7952   */\n      tag_402\n      jump\t// in\n    tag_575:\n        /* \"#utility.yul\":7968:8029   */\n      tag_576\n        /* \"#utility.yul\":8022:8028   */\n      dup2\n        /* \"#utility.yul\":8017:8020   */\n      dup6\n        /* \"#utility.yul\":7968:8029   */\n      tag_428\n      jump\t// in\n    tag_576:\n        /* \"#utility.yul\":7961:8029   */\n      swap4\n      pop\n        /* \"#utility.yul\":8038:8103   */\n      tag_577\n        /* \"#utility.yul\":8096:8102   */\n      dup2\n        /* \"#utility.yul\":8091:8094   */\n      dup6\n        /* \"#utility.yul\":8084:8088   */\n      0x20\n        /* \"#utility.yul\":8077:8082   */\n      dup7\n        /* \"#utility.yul\":8073:8089   */\n      add\n        /* \"#utility.yul\":8038:8103   */\n      tag_404\n      jump\t// in\n    tag_577:\n        /* \"#utility.yul\":8128:8157   */\n      tag_578\n        /* \"#utility.yul\":8150:8156   */\n      dup2\n        /* \"#utility.yul\":8128:8157   */\n      tag_405\n      jump\t// in\n    tag_578:\n        /* \"#utility.yul\":8123:8126   */\n      dup5\n        /* \"#utility.yul\":8119:8158   */\n      add\n        /* \"#utility.yul\":8112:8158   */\n      swap2\n      pop\n        /* \"#utility.yul\":7889:8164   */\n      pop\n        /* \"#utility.yul\":7807:8164   */\n      swap3\n      swap2\n      pop\n      pop\n      jump\t// out\n        /* \"#utility.yul\":8170:8278   */\n    tag_430:\n        /* \"#utility.yul\":8247:8271   */\n      tag_580\n        /* \"#utility.yul\":8265:8270   */\n      dup2\n        /* \"#utility.yul\":8247:8271   */\n      tag_399\n      jump\t// in\n    tag_580:\n        /* \"#utility.yul\":8242:8245   */\n      dup3\n        /* \"#utility.yul\":8235:8272   */\n      mstore\n        /* \"#utility.yul\":8170:8278   */\n      pop\n      pop\n      jump\t// out\n        /* \"#utility.yul\":8340:8948   */\n    tag_431:\n        /* \"#utility.yul\":8449:8452   */\n      0x00\n        /* \"#utility.yul\":8485:8489   */\n      0x40\n        /* \"#utility.yul\":8480:8483   */\n      dup4\n        /* \"#utility.yul\":8476:8490   */\n      add\n        /* \"#utility.yul\":8579:8583   */\n      0x00\n        /* \"#utility.yul\":8572:8577   */\n      dup4\n        /* \"#utility.yul\":8568:8584   */\n      add\n        /* \"#utility.yul\":8562:8585   */\n      mload\n        /* \"#utility.yul\":8632:8635   */\n      dup5\n        /* \"#utility.yul\":8626:8630   */\n      dup3\n        /* \"#utility.yul\":8622:8636   */\n      sub\n        /* \"#utility.yul\":8615:8619   */\n      0x00\n        /* \"#utility.yul\":8610:8613   */\n      dup7\n        /* \"#utility.yul\":8606:8620   */\n      add\n        /* \"#utility.yul\":8599:8637   */\n      mstore\n        /* \"#utility.yul\":8658:8731   */\n      tag_582\n        /* \"#utility.yul\":8726:8730   */\n      dup3\n        /* \"#utility.yul\":8712:8724   */\n      dup3\n        /* \"#utility.yul\":8658:8731   */\n      tag_429\n      jump\t// in\n    tag_582:\n        /* \"#utility.yul\":8650:8731   */\n      swap2\n      pop\n        /* \"#utility.yul\":8500:8742   */\n      pop\n        /* \"#utility.yul\":8829:8833   */\n      0x20\n        /* \"#utility.yul\":8822:8827   */\n      dup4\n        /* \"#utility.yul\":8818:8834   */\n      add\n        /* \"#utility.yul\":8812:8835   */\n      mload\n        /* \"#utility.yul\":8848:8911   */\n      tag_583\n        /* \"#utility.yul\":8905:8909   */\n      0x20\n        /* \"#utility.yul\":8900:8903   */\n      dup7\n        /* \"#utility.yul\":8896:8910   */\n      add\n        /* \"#utility.yul\":8882:8894   */\n      dup3\n        /* \"#utility.yul\":8848:8911   */\n      tag_430\n      jump\t// in\n    tag_583:\n        /* \"#utility.yul\":8752:8921   */\n      pop\n        /* \"#utility.yul\":8938:8942   */\n      dup1\n        /* \"#utility.yul\":8931:8942   */\n      swap2\n      pop\n        /* \"#utility.yul\":8454:8948   */\n      pop\n        /* \"#utility.yul\":8340:8948   */\n      swap3\n      swap2\n      pop\n      pop\n      jump\t// out\n        /* \"#utility.yul\":8954:9210   */\n    tag_432:\n        /* \"#utility.yul\":9073:9083   */\n      0x00\n        /* \"#utility.yul\":9108:9204   */\n      tag_585\n        /* \"#utility.yul\":9200:9203   */\n      dup4\n        /* \"#utility.yul\":9192:9198   */\n      dup4\n        /* \"#utility.yul\":9108:9204   */\n      tag_431\n      jump\t// in\n    tag_585:\n        /* \"#utility.yul\":9094:9204   */\n      swap1\n      pop\n        /* \"#utility.yul\":8954:9210   */\n      swap3\n      swap2\n      pop\n      pop\n      jump\t// out\n        /* \"#utility.yul\":9216:9354   */\n    tag_433:\n        /* \"#utility.yul\":9311:9315   */\n      0x00\n        /* \"#utility.yul\":9343:9347   */\n      0x20\n        /* \"#utility.yul\":9338:9341   */\n      dup3\n        /* \"#utility.yul\":9334:9348   */\n      add\n        /* \"#utility.yul\":9326:9348   */\n      swap1\n      pop\n        /* \"#utility.yul\":9216:9354   */\n      swap2\n      swap1\n      pop\n      jump\t// out\n        /* \"#utility.yul\":9420:10531   */\n    tag_434:\n        /* \"#utility.yul\":9589:9592   */\n      0x00\n        /* \"#utility.yul\":9618:9697   */\n      tag_588\n        /* \"#utility.yul\":9691:9696   */\n      dup3\n        /* \"#utility.yul\":9618:9697   */\n      tag_425\n      jump\t// in\n    tag_588:\n        /* \"#utility.yul\":9713:9824   */\n      tag_589\n        /* \"#utility.yul\":9817:9823   */\n      dup2\n        /* \"#utility.yul\":9812:9815   */\n      dup6\n        /* \"#utility.yul\":9713:9824   */\n      tag_426\n      jump\t// in\n    tag_589:\n        /* \"#utility.yul\":9706:9824   */\n      swap4\n      pop\n        /* \"#utility.yul\":9850:9853   */\n      dup4\n        /* \"#utility.yul\":9895:9899   */\n      0x20\n        /* \"#utility.yul\":9887:9893   */\n      dup3\n        /* \"#utility.yul\":9883:9900   */\n      mul\n        /* \"#utility.yul\":9878:9881   */\n      dup6\n        /* \"#utility.yul\":9874:9901   */\n      add\n        /* \"#utility.yul\":9925:10006   */\n      tag_590\n        /* \"#utility.yul\":10000:10005   */\n      dup6\n        /* \"#utility.yul\":9925:10006   */\n      tag_427\n      jump\t// in\n    tag_590:\n        /* \"#utility.yul\":10029:10036   */\n      dup1\n        /* \"#utility.yul\":10060:10061   */\n      0x00\n        /* \"#utility.yul\":10045:10486   */\n    tag_591:\n        /* \"#utility.yul\":10070:10076   */\n      dup6\n        /* \"#utility.yul\":10067:10068   */\n      dup2\n        /* \"#utility.yul\":10064:10077   */\n      lt\n        /* \"#utility.yul\":10045:10486   */\n      iszero\n      tag_593\n      jumpi\n        /* \"#utility.yul\":10141:10150   */\n      dup5\n        /* \"#utility.yul\":10135:10139   */\n      dup5\n        /* \"#utility.yul\":10131:10151   */\n      sub\n        /* \"#utility.yul\":10126:10129   */\n      dup10\n        /* \"#utility.yul\":10119:10152   */\n      mstore\n        /* \"#utility.yul\":10192:10198   */\n      dup2\n        /* \"#utility.yul\":10186:10199   */\n      mload\n        /* \"#utility.yul\":10220:10334   */\n      tag_594\n        /* \"#utility.yul\":10329:10333   */\n      dup6\n        /* \"#utility.yul\":10314:10327   */\n      dup3\n        /* \"#utility.yul\":10220:10334   */\n      tag_432\n      jump\t// in\n    tag_594:\n        /* \"#utility.yul\":10212:10334   */\n      swap5\n      pop\n        /* \"#utility.yul\":10357:10442   */\n      tag_595\n        /* \"#utility.yul\":10435:10441   */\n      dup4\n        /* \"#utility.yul\":10357:10442   */\n      tag_433\n      jump\t// in\n    tag_595:\n        /* \"#utility.yul\":10347:10442   */\n      swap3\n      pop\n        /* \"#utility.yul\":10471:10475   */\n      0x20\n        /* \"#utility.yul\":10466:10469   */\n      dup11\n        /* \"#utility.yul\":10462:10476   */\n      add\n        /* \"#utility.yul\":10455:10476   */\n      swap10\n      pop\n        /* \"#utility.yul\":10105:10486   */\n      pop\n        /* \"#utility.yul\":10092:10093   */\n      0x01\n        /* \"#utility.yul\":10089:10090   */\n      dup2\n        /* \"#utility.yul\":10085:10094   */\n      add\n        /* \"#utility.yul\":10080:10094   */\n      swap1\n      pop\n        /* \"#utility.yul\":10045:10486   */\n      jump(tag_591)\n    tag_593:\n        /* \"#utility.yul\":10049:10063   */\n      pop\n        /* \"#utility.yul\":10502:10506   */\n      dup3\n        /* \"#utility.yul\":10495:10506   */\n      swap8\n      pop\n        /* \"#utility.yul\":10522:10525   */\n      dup8\n        /* \"#utility.yul\":10515:10525   */\n      swap6\n      pop\n        /* \"#utility.yul\":9594:10531   */\n      pop\n      pop\n      pop\n      pop\n      pop\n        /* \"#utility.yul\":9420:10531   */\n      swap3\n      swap2\n      pop\n      pop\n      jump\t// out\n        /* \"#utility.yul\":10537:11010   */\n    tag_51:\n        /* \"#utility.yul\":10730:10734   */\n      0x00\n        /* \"#utility.yul\":10768:10770   */\n      0x20\n        /* \"#utility.yul\":10757:10766   */\n      dup3\n        /* \"#utility.yul\":10753:10771   */\n      add\n        /* \"#utility.yul\":10745:10771   */\n      swap1\n      pop\n        /* \"#utility.yul\":10817:10826   */\n      dup2\n        /* \"#utility.yul\":10811:10815   */\n      dup2\n        /* \"#utility.yul\":10807:10827   */\n      sub\n        /* \"#utility.yul\":10803:10804   */\n      0x00\n        /* \"#utility.yul\":10792:10801   */\n      dup4\n        /* \"#utility.yul\":10788:10805   */\n      add\n        /* \"#utility.yul\":10781:10828   */\n      mstore\n        /* \"#utility.yul\":10845:11003   */\n      tag_597\n        /* \"#utility.yul\":10998:11002   */\n      dup2\n        /* \"#utility.yul\":10989:10995   */\n      dup5\n        /* \"#utility.yul\":10845:11003   */\n      tag_434\n      jump\t// in\n    tag_597:\n        /* \"#utility.yul\":10837:11003   */\n      swap1\n      pop\n        /* \"#utility.yul\":10537:11010   */\n      swap3\n      swap2\n      pop\n      pop\n      jump\t// out\n        /* \"#utility.yul\":11016:11134   */\n    tag_435:\n        /* \"#utility.yul\":11103:11127   */\n      tag_599\n        /* \"#utility.yul\":11121:11126   */\n      dup2\n        /* \"#utility.yul\":11103:11127   */\n      tag_422\n      jump\t// in\n    tag_599:\n        /* \"#utility.yul\":11098:11101   */\n      dup3\n        /* \"#utility.yul\":11091:11128   */\n      mstore\n        /* \"#utility.yul\":11016:11134   */\n      pop\n      pop\n      jump\t// out\n        /* \"#utility.yul\":11140:11362   */\n    tag_63:\n        /* \"#utility.yul\":11233:11237   */\n      0x00\n        /* \"#utility.yul\":11271:11273   */\n      0x20\n        /* \"#utility.yul\":11260:11269   */\n      dup3\n        /* \"#utility.yul\":11256:11274   */\n      add\n        /* \"#utility.yul\":11248:11274   */\n      swap1\n      pop\n        /* \"#utility.yul\":11284:11355   */\n      tag_601\n        /* \"#utility.yul\":11352:11353   */\n      0x00\n        /* \"#utility.yul\":11341:11350   */\n      dup4\n        /* \"#utility.yul\":11337:11354   */\n      add\n        /* \"#utility.yul\":11328:11334   */\n      dup5\n        /* \"#utility.yul\":11284:11355   */\n      tag_435\n      jump\t// in\n    tag_601:\n        /* \"#utility.yul\":11140:11362   */\n      swap3\n      swap2\n      pop\n      pop\n      jump\t// out\n        /* \"#utility.yul\":11424:12042   */\n    tag_436:\n        /* \"#utility.yul\":11543:11546   */\n      0x00\n        /* \"#utility.yul\":11579:11583   */\n      0x40\n        /* \"#utility.yul\":11574:11577   */\n      dup4\n        /* \"#utility.yul\":11570:11584   */\n      add\n        /* \"#utility.yul\":11673:11677   */\n      0x00\n        /* \"#utility.yul\":11666:11671   */\n      dup4\n        /* \"#utility.yul\":11662:11678   */\n      add\n        /* \"#utility.yul\":11656:11679   */\n      mload\n        /* \"#utility.yul\":11726:11729   */\n      dup5\n        /* \"#utility.yul\":11720:11724   */\n      dup3\n        /* \"#utility.yul\":11716:11730   */\n      sub\n        /* \"#utility.yul\":11709:11713   */\n      0x00\n        /* \"#utility.yul\":11704:11707   */\n      dup7\n        /* \"#utility.yul\":11700:11714   */\n      add\n        /* \"#utility.yul\":11693:11731   */\n      mstore\n        /* \"#utility.yul\":11752:11825   */\n      tag_603\n        /* \"#utility.yul\":11820:11824   */\n      dup3\n        /* \"#utility.yul\":11806:11818   */\n      dup3\n        /* \"#utility.yul\":11752:11825   */\n      tag_429\n      jump\t// in\n    tag_603:\n        /* \"#utility.yul\":11744:11825   */\n      swap2\n      pop\n        /* \"#utility.yul\":11594:11836   */\n      pop\n        /* \"#utility.yul\":11923:11927   */\n      0x20\n        /* \"#utility.yul\":11916:11921   */\n      dup4\n        /* \"#utility.yul\":11912:11928   */\n      add\n        /* \"#utility.yul\":11906:11929   */\n      mload\n        /* \"#utility.yul\":11942:12005   */\n      tag_604\n        /* \"#utility.yul\":11999:12003   */\n      0x20\n        /* \"#utility.yul\":11994:11997   */\n      dup7\n        /* \"#utility.yul\":11990:12004   */\n      add\n        /* \"#utility.yul\":11976:11988   */\n      dup3\n        /* \"#utility.yul\":11942:12005   */\n      tag_430\n      jump\t// in\n    tag_604:\n        /* \"#utility.yul\":11846:12015   */\n      pop\n        /* \"#utility.yul\":12032:12036   */\n      dup1\n        /* \"#utility.yul\":12025:12036   */\n      swap2\n      pop\n        /* \"#utility.yul\":11548:12042   */\n      pop\n        /* \"#utility.yul\":11424:12042   */\n      swap3\n      swap2\n      pop\n      pop\n      jump\t// out\n        /* \"#utility.yul\":12048:12421   */\n    tag_67:\n        /* \"#utility.yul\":12191:12195   */\n      0x00\n        /* \"#utility.yul\":12229:12231   */\n      0x20\n        /* \"#utility.yul\":12218:12227   */\n      dup3\n        /* \"#utility.yul\":12214:12232   */\n      add\n        /* \"#utility.yul\":12206:12232   */\n      swap1\n      pop\n        /* \"#utility.yul\":12278:12287   */\n      dup2\n        /* \"#utility.yul\":12272:12276   */\n      dup2\n        /* \"#utility.yul\":12268:12288   */\n      sub\n        /* \"#utility.yul\":12264:12265   */\n      0x00\n        /* \"#utility.yul\":12253:12262   */\n      dup4\n        /* \"#utility.yul\":12249:12266   */\n      add\n        /* \"#utility.yul\":12242:12289   */\n      mstore\n        /* \"#utility.yul\":12306:12414   */\n      tag_606\n        /* \"#utility.yul\":12409:12413   */\n      dup2\n        /* \"#utility.yul\":12400:12406   */\n      dup5\n        /* \"#utility.yul\":12306:12414   */\n      tag_436\n      jump\t// in\n    tag_606:\n        /* \"#utility.yul\":12298:12414   */\n      swap1\n      pop\n        /* \"#utility.yul\":12048:12421   */\n      swap3\n      swap2\n      pop\n      pop\n      jump\t// out\n        /* \"#utility.yul\":12427:12740   */\n    tag_72:\n        /* \"#utility.yul\":12540:12544   */\n      0x00\n        /* \"#utility.yul\":12578:12580   */\n      0x20\n        /* \"#utility.yul\":12567:12576   */\n      dup3\n        /* \"#utility.yul\":12563:12581   */\n      add\n        /* \"#utility.yul\":12555:12581   */\n      swap1\n      pop\n        /* \"#utility.yul\":12627:12636   */\n      dup2\n        /* \"#utility.yul\":12621:12625   */\n      dup2\n        /* \"#utility.yul\":12617:12637   */\n      sub\n        /* \"#utility.yul\":12613:12614   */\n      0x00\n        /* \"#utility.yul\":12602:12611   */\n      dup4\n        /* \"#utility.yul\":12598:12615   */\n      add\n        /* \"#utility.yul\":12591:12638   */\n      mstore\n        /* \"#utility.yul\":12655:12733   */\n      tag_608\n        /* \"#utility.yul\":12728:12732   */\n      dup2\n        /* \"#utility.yul\":12719:12725   */\n      dup5\n        /* \"#utility.yul\":12655:12733   */\n      tag_406\n      jump\t// in\n    tag_608:\n        /* \"#utility.yul\":12647:12733   */\n      swap1\n      pop\n        /* \"#utility.yul\":12427:12740   */\n      swap3\n      swap2\n      pop\n      pop\n      jump\t// out\n        /* \"#utility.yul\":12746:13057   */\n    tag_437:\n        /* \"#utility.yul\":12823:12827   */\n      0x00\n        /* \"#utility.yul\":12913:12931   */\n      0xffffffffffffffff\n        /* \"#utility.yul\":12905:12911   */\n      dup3\n        /* \"#utility.yul\":12902:12932   */\n      gt\n        /* \"#utility.yul\":12899:12955   */\n      iszero\n      tag_610\n      jumpi\n        /* \"#utility.yul\":12935:12953   */\n      tag_611\n      tag_414\n      jump\t// in\n    tag_611:\n        /* \"#utility.yul\":12899:12955   */\n    tag_610:\n        /* \"#utility.yul\":12985:12989   */\n      0x20\n        /* \"#utility.yul\":12977:12983   */\n      dup3\n        /* \"#utility.yul\":12973:12990   */\n      mul\n        /* \"#utility.yul\":12965:12990   */\n      swap1\n      pop\n        /* \"#utility.yul\":13045:13049   */\n      0x20\n        /* \"#utility.yul\":13039:13043   */\n      dup2\n        /* \"#utility.yul\":13035:13050   */\n      add\n        /* \"#utility.yul\":13027:13050   */\n      swap1\n      pop\n        /* \"#utility.yul\":12746:13057   */\n      swap2\n      swap1\n      pop\n      jump\t// out\n        /* \"#utility.yul\":13063:13180   */\n    tag_438:\n        /* \"#utility.yul\":13172:13173   */\n      0x00\n        /* \"#utility.yul\":13169:13170   */\n      dup1\n        /* \"#utility.yul\":13162:13174   */\n      revert\n        /* \"#utility.yul\":13203:13913   */\n    tag_439:\n        /* \"#utility.yul\":13299:13304   */\n      0x00\n        /* \"#utility.yul\":13324:13405   */\n      tag_614\n        /* \"#utility.yul\":13340:13404   */\n      tag_615\n        /* \"#utility.yul\":13397:13403   */\n      dup5\n        /* \"#utility.yul\":13340:13404   */\n      tag_437\n      jump\t// in\n    tag_615:\n        /* \"#utility.yul\":13324:13405   */\n      tag_416\n      jump\t// in\n    tag_614:\n        /* \"#utility.yul\":13315:13405   */\n      swap1\n      pop\n        /* \"#utility.yul\":13425:13430   */\n      dup1\n        /* \"#utility.yul\":13454:13460   */\n      dup4\n        /* \"#utility.yul\":13447:13452   */\n      dup3\n        /* \"#utility.yul\":13440:13461   */\n      mstore\n        /* \"#utility.yul\":13488:13492   */\n      0x20\n        /* \"#utility.yul\":13481:13486   */\n      dup3\n        /* \"#utility.yul\":13477:13493   */\n      add\n        /* \"#utility.yul\":13470:13493   */\n      swap1\n      pop\n        /* \"#utility.yul\":13541:13545   */\n      0x20\n        /* \"#utility.yul\":13533:13539   */\n      dup5\n        /* \"#utility.yul\":13529:13546   */\n      mul\n        /* \"#utility.yul\":13521:13527   */\n      dup4\n        /* \"#utility.yul\":13517:13547   */\n      add\n        /* \"#utility.yul\":13570:13573   */\n      dup6\n        /* \"#utility.yul\":13562:13568   */\n      dup2\n        /* \"#utility.yul\":13559:13574   */\n      gt\n        /* \"#utility.yul\":13556:13678   */\n      iszero\n      tag_616\n      jumpi\n        /* \"#utility.yul\":13589:13668   */\n      tag_617\n      tag_438\n      jump\t// in\n    tag_617:\n        /* \"#utility.yul\":13556:13678   */\n    tag_616:\n        /* \"#utility.yul\":13704:13710   */\n      dup4\n        /* \"#utility.yul\":13687:13907   */\n    tag_618:\n        /* \"#utility.yul\":13721:13727   */\n      dup2\n        /* \"#utility.yul\":13716:13719   */\n      dup2\n        /* \"#utility.yul\":13713:13728   */\n      lt\n        /* \"#utility.yul\":13687:13907   */\n      iszero\n      tag_620\n      jumpi\n        /* \"#utility.yul\":13796:13799   */\n      dup1\n        /* \"#utility.yul\":13825:13862   */\n      tag_621\n        /* \"#utility.yul\":13858:13861   */\n      dup9\n        /* \"#utility.yul\":13846:13856   */\n      dup3\n        /* \"#utility.yul\":13825:13862   */\n      tag_424\n      jump\t// in\n    tag_621:\n        /* \"#utility.yul\":13820:13823   */\n      dup5\n        /* \"#utility.yul\":13813:13863   */\n      mstore\n        /* \"#utility.yul\":13892:13896   */\n      0x20\n        /* \"#utility.yul\":13887:13890   */\n      dup5\n        /* \"#utility.yul\":13883:13897   */\n      add\n        /* \"#utility.yul\":13876:13897   */\n      swap4\n      pop\n        /* \"#utility.yul\":13763:13907   */\n      pop\n        /* \"#utility.yul\":13747:13751   */\n      0x20\n        /* \"#utility.yul\":13742:13745   */\n      dup2\n        /* \"#utility.yul\":13738:13752   */\n      add\n        /* \"#utility.yul\":13731:13752   */\n      swap1\n      pop\n        /* \"#utility.yul\":13687:13907   */\n      jump(tag_618)\n    tag_620:\n        /* \"#utility.yul\":13691:13712   */\n      pop\n        /* \"#utility.yul\":13305:13913   */\n      pop\n      pop\n        /* \"#utility.yul\":13203:13913   */\n      swap4\n      swap3\n      pop\n      pop\n      pop\n      jump\t// out\n        /* \"#utility.yul\":13936:14306   */\n    tag_440:\n        /* \"#utility.yul\":14007:14012   */\n      0x00\n        /* \"#utility.yul\":14056:14059   */\n      dup3\n        /* \"#utility.yul\":14049:14053   */\n      0x1f\n        /* \"#utility.yul\":14041:14047   */\n      dup4\n        /* \"#utility.yul\":14037:14054   */\n      add\n        /* \"#utility.yul\":14033:14060   */\n      slt\n        /* \"#utility.yul\":14023:14145   */\n      tag_623\n      jumpi\n        /* \"#utility.yul\":14064:14143   */\n      tag_624\n      tag_412\n      jump\t// in\n    tag_624:\n        /* \"#utility.yul\":14023:14145   */\n    tag_623:\n        /* \"#utility.yul\":14181:14187   */\n      dup2\n        /* \"#utility.yul\":14168:14188   */\n      calldataload\n        /* \"#utility.yul\":14206:14300   */\n      tag_625\n        /* \"#utility.yul\":14296:14299   */\n      dup5\n        /* \"#utility.yul\":14288:14294   */\n      dup3\n        /* \"#utility.yul\":14281:14285   */\n      0x20\n        /* \"#utility.yul\":14273:14279   */\n      dup7\n        /* \"#utility.yul\":14269:14286   */\n      add\n        /* \"#utility.yul\":14206:14300   */\n      tag_439\n      jump\t// in\n    tag_625:\n        /* \"#utility.yul\":14197:14300   */\n      swap2\n      pop\n        /* \"#utility.yul\":14013:14306   */\n      pop\n        /* \"#utility.yul\":13936:14306   */\n      swap3\n      swap2\n      pop\n      pop\n      jump\t// out\n        /* \"#utility.yul\":14312:14851   */\n    tag_75:\n        /* \"#utility.yul\":14396:14402   */\n      0x00\n        /* \"#utility.yul\":14445:14447   */\n      0x20\n        /* \"#utility.yul\":14433:14442   */\n      dup3\n        /* \"#utility.yul\":14424:14431   */\n      dup5\n        /* \"#utility.yul\":14420:14443   */\n      sub\n        /* \"#utility.yul\":14416:14448   */\n      slt\n        /* \"#utility.yul\":14413:14532   */\n      iszero\n      tag_627\n      jumpi\n        /* \"#utility.yul\":14451:14530   */\n      tag_628\n      tag_397\n      jump\t// in\n    tag_628:\n        /* \"#utility.yul\":14413:14532   */\n    tag_627:\n        /* \"#utility.yul\":14599:14600   */\n      0x00\n        /* \"#utility.yul\":14588:14597   */\n      dup3\n        /* \"#utility.yul\":14584:14601   */\n      add\n        /* \"#utility.yul\":14571:14602   */\n      calldataload\n        /* \"#utility.yul\":14629:14647   */\n      0xffffffffffffffff\n        /* \"#utility.yul\":14621:14627   */\n      dup2\n        /* \"#utility.yul\":14618:14648   */\n      gt\n        /* \"#utility.yul\":14615:14732   */\n      iszero\n      tag_629\n      jumpi\n        /* \"#utility.yul\":14651:14730   */\n      tag_630\n      tag_398\n      jump\t// in\n    tag_630:\n        /* \"#utility.yul\":14615:14732   */\n    tag_629:\n        /* \"#utility.yul\":14756:14834   */\n      tag_631\n        /* \"#utility.yul\":14826:14833   */\n      dup5\n        /* \"#utility.yul\":14817:14823   */\n      dup3\n        /* \"#utility.yul\":14806:14815   */\n      dup6\n        /* \"#utility.yul\":14802:14824   */\n      add\n        /* \"#utility.yul\":14756:14834   */\n      tag_440\n      jump\t// in\n    tag_631:\n        /* \"#utility.yul\":14746:14834   */\n      swap2\n      pop\n        /* \"#utility.yul\":14542:14844   */\n      pop\n        /* \"#utility.yul\":14312:14851   */\n      swap3\n      swap2\n      pop\n      pop\n      jump\t// out\n        /* \"#utility.yul\":14857:15037   */\n    tag_441:\n        /* \"#utility.yul\":14905:14982   */\n      0x4e487b7100000000000000000000000000000000000000000000000000000000\n        /* \"#utility.yul\":14902:14903   */\n      0x00\n        /* \"#utility.yul\":14895:14983   */\n      mstore\n        /* \"#utility.yul\":15002:15006   */\n      0x22\n        /* \"#utility.yul\":14999:15000   */\n      0x04\n        /* \"#utility.yul\":14992:15007   */\n      mstore\n        /* \"#utility.yul\":15026:15030   */\n      0x24\n        /* \"#utility.yul\":15023:15024   */\n      0x00\n        /* \"#utility.yul\":15016:15031   */\n      revert\n        /* \"#utility.yul\":15043:15363   */\n    tag_86:\n        /* \"#utility.yul\":15087:15093   */\n      0x00\n        /* \"#utility.yul\":15124:15125   */\n      0x02\n        /* \"#utility.yul\":15118:15122   */\n      dup3\n        /* \"#utility.yul\":15114:15126   */\n      div\n        /* \"#utility.yul\":15104:15126   */\n      swap1\n      pop\n        /* \"#utility.yul\":15171:15172   */\n      0x01\n        /* \"#utility.yul\":15165:15169   */\n      dup3\n        /* \"#utility.yul\":15161:15173   */\n      and\n        /* \"#utility.yul\":15192:15210   */\n      dup1\n        /* \"#utility.yul\":15182:15263   */\n      tag_634\n      jumpi\n        /* \"#utility.yul\":15248:15252   */\n      0x7f\n        /* \"#utility.yul\":15240:15246   */\n      dup3\n        /* \"#utility.yul\":15236:15253   */\n      and\n        /* \"#utility.yul\":15226:15253   */\n      swap2\n      pop\n        /* \"#utility.yul\":15182:15263   */\n    tag_634:\n        /* \"#utility.yul\":15310:15312   */\n      0x20\n        /* \"#utility.yul\":15302:15308   */\n      dup3\n        /* \"#utility.yul\":15299:15313   */\n      lt\n        /* \"#utility.yul\":15279:15297   */\n      dup2\n        /* \"#utility.yul\":15276:15314   */\n      sub\n        /* \"#utility.yul\":15273:15357   */\n      tag_635\n      jumpi\n        /* \"#utility.yul\":15329:15347   */\n      tag_636\n      tag_441\n      jump\t// in\n    tag_636:\n        /* \"#utility.yul\":15273:15357   */\n    tag_635:\n        /* \"#utility.yul\":15094:15363   */\n      pop\n        /* \"#utility.yul\":15043:15363   */\n      swap2\n      swap1\n      pop\n      jump\t// out\n        /* \"#utility.yul\":15369:15549   */\n    tag_103:\n        /* \"#utility.yul\":15417:15494   */\n      0x4e487b7100000000000000000000000000000000000000000000000000000000\n        /* \"#utility.yul\":15414:15415   */\n      0x00\n        /* \"#utility.yul\":15407:15495   */\n      mstore\n        /* \"#utility.yul\":15514:15518   */\n      0x32\n        /* \"#utility.yul\":15511:15512   */\n      0x04\n        /* \"#utility.yul\":15504:15519   */\n      mstore\n        /* \"#utility.yul\":15538:15542   */\n      0x24\n        /* \"#utility.yul\":15535:15536   */\n      0x00\n        /* \"#utility.yul\":15528:15543   */\n      revert\n        /* \"#utility.yul\":15555:15735   */\n    tag_442:\n        /* \"#utility.yul\":15603:15680   */\n      0x4e487b7100000000000000000000000000000000000000000000000000000000\n        /* \"#utility.yul\":15600:15601   */\n      0x00\n        /* \"#utility.yul\":15593:15681   */\n      mstore\n        /* \"#utility.yul\":15700:15704   */\n      0x11\n        /* \"#utility.yul\":15697:15698   */\n      0x04\n        /* \"#utility.yul\":15690:15705   */\n      mstore\n        /* \"#utility.yul\":15724:15728   */\n      0x24\n        /* \"#utility.yul\":15721:15722   */\n      0x00\n        /* \"#utility.yul\":15714:15729   */\n      revert\n        /* \"#utility.yul\":15741:15974   */\n    tag_110:\n        /* \"#utility.yul\":15780:15783   */\n      0x00\n        /* \"#utility.yul\":15803:15827   */\n      tag_640\n        /* \"#utility.yul\":15821:15826   */\n      dup3\n        /* \"#utility.yul\":15803:15827   */\n      tag_399\n      jump\t// in\n    tag_640:\n        /* \"#utility.yul\":15794:15827   */\n      swap2\n      pop\n        /* \"#utility.yul\":15849:15915   */\n      0xffffffffffffffffffffffffffffffffffffffffffffffffffffffffffffffff\n        /* \"#utility.yul\":15842:15847   */\n      dup3\n        /* \"#utility.yul\":15839:15916   */\n      sub\n        /* \"#utility.yul\":15836:15939   */\n      tag_641\n      jumpi\n        /* \"#utility.yul\":15919:15937   */\n      tag_642\n      tag_442\n      jump\t// in\n    tag_642:\n        /* \"#utility.yul\":15836:15939   */\n    tag_641:\n        /* \"#utility.yul\":15966:15967   */\n      0x01\n        /* \"#utility.yul\":15959:15964   */\n      dup3\n        /* \"#utility.yul\":15955:15968   */\n      add\n        /* \"#utility.yul\":15948:15968   */\n      swap1\n      pop\n        /* \"#utility.yul\":15741:15974   */\n      swap2\n      swap1\n      pop\n      jump\t// out\n        /* \"#utility.yul\":15980:16121   */\n    tag_443:\n        /* \"#utility.yul\":16029:16033   */\n      0x00\n        /* \"#utility.yul\":16052:16055   */\n      dup2\n        /* \"#utility.yul\":16044:16055   */\n      swap1\n      pop\n        /* \"#utility.yul\":16075:16078   */\n      dup2\n        /* \"#utility.yul\":16072:16073   */\n      0x00\n        /* \"#utility.yul\":16065:16079   */\n      mstore\n        /* \"#utility.yul\":16109:16113   */\n      0x20\n        /* \"#utility.yul\":16106:16107   */\n      0x00\n        /* \"#utility.yul\":16096:16114   */\n      keccak256\n        /* \"#utility.yul\":16088:16114   */\n      swap1\n      pop\n        /* \"#utility.yul\":15980:16121   */\n      swap2\n      swap1\n      pop\n      jump\t// out\n        /* \"#utility.yul\":16127:16220   */\n    tag_444:\n        /* \"#utility.yul\":16164:16170   */\n      0x00\n        /* \"#utility.yul\":16211:16213   */\n      0x20\n        /* \"#utility.yul\":16206:16208   */\n      0x1f\n        /* \"#utility.yul\":16199:16204   */\n      dup4\n        /* \"#utility.yul\":16195:16209   */\n      add\n        /* \"#utility.yul\":16191:16214   */\n      div\n        /* \"#utility.yul\":16181:16214   */\n      swap1\n      pop\n        /* \"#utility.yul\":16127:16220   */\n      swap2\n      swap1\n      pop\n      jump\t// out\n        /* \"#utility.yul\":16226:16333   */\n    tag_445:\n        /* \"#utility.yul\":16270:16278   */\n      0x00\n        /* \"#utility.yul\":16320:16325   */\n      dup3\n        /* \"#utility.yul\":16314:16318   */\n      dup3\n        /* \"#utility.yul\":16310:16326   */\n      shl\n        /* \"#utility.yul\":16289:16326   */\n      swap1\n      pop\n        /* \"#utility.yul\":16226:16333   */\n      swap3\n      swap2\n      pop\n      pop\n      jump\t// out\n        /* \"#utility.yul\":16339:16732   */\n    tag_446:\n        /* \"#utility.yul\":16408:16414   */\n      0x00\n        /* \"#utility.yul\":16458:16459   */\n      0x08\n        /* \"#utility.yul\":16446:16456   */\n      dup4\n        /* \"#utility.yul\":16442:16460   */\n      mul\n        /* \"#utility.yul\":16481:16578   */\n      tag_647\n        /* \"#utility.yul\":16511:16577   */\n      0xffffffffffffffffffffffffffffffffffffffffffffffffffffffffffffffff\n        /* \"#utility.yul\":16500:16509   */\n      dup3\n        /* \"#utility.yul\":16481:16578   */\n      tag_445\n      jump\t// in\n    tag_647:\n        /* \"#utility.yul\":16599:16638   */\n      tag_648\n        /* \"#utility.yul\":16629:16637   */\n      dup7\n        /* \"#utility.yul\":16618:16627   */\n      dup4\n        /* \"#utility.yul\":16599:16638   */\n      tag_445\n      jump\t// in\n    tag_648:\n        /* \"#utility.yul\":16587:16638   */\n      swap6\n      pop\n        /* \"#utility.yul\":16671:16675   */\n      dup1\n        /* \"#utility.yul\":16667:16676   */\n      not\n        /* \"#utility.yul\":16660:16665   */\n      dup5\n        /* \"#utility.yul\":16656:16677   */\n      and\n        /* \"#utility.yul\":16647:16677   */\n      swap4\n      pop\n        /* \"#utility.yul\":16720:16724   */\n      dup1\n        /* \"#utility.yul\":16710:16718   */\n      dup7\n        /* \"#utility.yul\":16706:16725   */\n      and\n        /* \"#utility.yul\":16699:16704   */\n      dup5\n        /* \"#utility.yul\":16696:16726   */\n      or\n        /* \"#utility.yul\":16686:16726   */\n      swap3\n      pop\n        /* \"#utility.yul\":16415:16732   */\n      pop\n      pop\n        /* \"#utility.yul\":16339:16732   */\n      swap4\n      swap3\n      pop\n      pop\n      pop\n      jump\t// out\n        /* \"#utility.yul\":16738:16798   */\n    tag_447:\n        /* \"#utility.yul\":16766:16769   */\n      0x00\n        /* \"#utility.yul\":16787:16792   */\n      dup2\n        /* \"#utility.yul\":16780:16792   */\n      swap1\n      pop\n        /* \"#utility.yul\":16738:16798   */\n      swap2\n      swap1\n      pop\n      jump\t// out\n        /* \"#utility.yul\":16804:16946   */\n    tag_448:\n        /* \"#utility.yul\":16854:16863   */\n      0x00\n        /* \"#utility.yul\":16887:16940   */\n      tag_651\n        /* \"#utility.yul\":16905:16939   */\n      tag_652\n        /* \"#utility.yul\":16914:16938   */\n      tag_653\n        /* \"#utility.yul\":16932:16937   */\n      dup5\n        /* \"#utility.yul\":16914:16938   */\n      tag_399\n      jump\t// in\n    tag_653:\n        /* \"#utility.yul\":16905:16939   */\n      tag_447\n      jump\t// in\n    tag_652:\n        /* \"#utility.yul\":16887:16940   */\n      tag_399\n      jump\t// in\n    tag_651:\n        /* \"#utility.yul\":16874:16940   */\n      swap1\n      pop\n        /* \"#utility.yul\":16804:16946   */\n      swap2\n      swap1\n      pop\n      jump\t// out\n        /* \"#utility.yul\":16952:17027   */\n    tag_449:\n        /* \"#utility.yul\":16995:16998   */\n      0x00\n        /* \"#utility.yul\":17016:17021   */\n      dup2\n        /* \"#utility.yul\":17009:17021   */\n      swap1\n      pop\n        /* \"#utility.yul\":16952:17027   */\n      swap2\n      swap1\n      pop\n      jump\t// out\n        /* \"#utility.yul\":17033:17302   */\n    tag_450:\n        /* \"#utility.yul\":17143:17182   */\n      tag_656\n        /* \"#utility.yul\":17174:17181   */\n      dup4\n        /* \"#utility.yul\":17143:17182   */\n      tag_448\n      jump\t// in\n    tag_656:\n        /* \"#utility.yul\":17204:17295   */\n      tag_657\n        /* \"#utility.yul\":17253:17294   */\n      tag_658\n        /* \"#utility.yul\":17277:17293   */\n      dup3\n        /* \"#utility.yul\":17253:17294   */\n      tag_449\n      jump\t// in\n    tag_658:\n        /* \"#utility.yul\":17245:17251   */\n      dup5\n        /* \"#utility.yul\":17238:17242   */\n      dup5\n        /* \"#utility.yul\":17232:17243   */\n      sload\n        /* \"#utility.yul\":17204:17295   */\n      tag_446\n      jump\t// in\n    tag_657:\n        /* \"#utility.yul\":17198:17202   */\n      dup3\n        /* \"#utility.yul\":17191:17296   */\n      sstore\n        /* \"#utility.yul\":17109:17302   */\n      pop\n        /* \"#utility.yul\":17033:17302   */\n      pop\n      pop\n      pop\n      jump\t// out\n        /* \"#utility.yul\":17308:17381   */\n    tag_451:\n        /* \"#utility.yul\":17353:17356   */\n      0x00\n        /* \"#utility.yul\":17308:17381   */\n      swap1\n      jump\t// out\n        /* \"#utility.yul\":17387:17576   */\n    tag_452:\n        /* \"#utility.yul\":17464:17496   */\n      tag_661\n      tag_451\n      jump\t// in\n    tag_661:\n        /* \"#utility.yul\":17505:17570   */\n      tag_662\n        /* \"#utility.yul\":17563:17569   */\n      dup2\n        /* \"#utility.yul\":17555:17561   */\n      dup5\n        /* \"#utility.yul\":17549:17553   */\n      dup5\n        /* \"#utility.yul\":17505:17570   */\n      tag_450\n      jump\t// in\n    tag_662:\n        /* \"#utility.yul\":17440:17576   */\n      pop\n        /* \"#utility.yul\":17387:17576   */\n      pop\n      pop\n      jump\t// out\n        /* \"#utility.yul\":17582:17768   */\n    tag_453:\n        /* \"#utility.yul\":17642:17762   */\n    tag_664:\n        /* \"#utility.yul\":17659:17662   */\n      dup2\n        /* \"#utility.yul\":17652:17657   */\n      dup2\n        /* \"#utility.yul\":17649:17663   */\n      lt\n        /* \"#utility.yul\":17642:17762   */\n      iszero\n      tag_666\n      jumpi\n        /* \"#utility.yul\":17713:17752   */\n      tag_667\n        /* \"#utility.yul\":17750:17751   */\n      0x00\n        /* \"#utility.yul\":17743:17748   */\n      dup3\n        /* \"#utility.yul\":17713:17752   */\n      tag_452\n      jump\t// in\n    tag_667:\n        /* \"#utility.yul\":17686:17687   */\n      0x01\n        /* \"#utility.yul\":17679:17684   */\n      dup2\n        /* \"#utility.yul\":17675:17688   */\n      add\n        /* \"#utility.yul\":17666:17688   */\n      swap1\n      pop\n        /* \"#utility.yul\":17642:17762   */\n      jump(tag_664)\n    tag_666:\n        /* \"#utility.yul\":17582:17768   */\n      pop\n      pop\n      jump\t// out\n        /* \"#utility.yul\":17774:18317   */\n    tag_454:\n        /* \"#utility.yul\":17875:17877   */\n      0x1f\n        /* \"#utility.yul\":17870:17873   */\n      dup3\n        /* \"#utility.yul\":17867:17878   */\n      gt\n        /* \"#utility.yul\":17864:18310   */\n      iszero\n      tag_669\n      jumpi\n        /* \"#utility.yul\":17909:17947   */\n      tag_670\n        /* \"#utility.yul\":17941:17946   */\n      dup2\n        /* \"#utility.yul\":17909:17947   */\n      tag_443\n      jump\t// in\n    tag_670:\n        /* \"#utility.yul\":17993:18022   */\n      tag_671\n        /* \"#utility.yul\":18011:18021   */\n      dup5\n        /* \"#utility.yul\":17993:18022   */\n      tag_444\n      jump\t// in\n    tag_671:\n        /* \"#utility.yul\":17983:17991   */\n      dup2\n        /* \"#utility.yul\":17979:18023   */\n      add\n        /* \"#utility.yul\":18176:18178   */\n      0x20\n        /* \"#utility.yul\":18164:18174   */\n      dup6\n        /* \"#utility.yul\":18161:18179   */\n      lt\n        /* \"#utility.yul\":18158:18207   */\n      iszero\n      tag_672\n      jumpi\n        /* \"#utility.yul\":18197:18205   */\n      dup2\n        /* \"#utility.yul\":18182:18205   */\n      swap1\n      pop\n        /* \"#utility.yul\":18158:18207   */\n    tag_672:\n        /* \"#utility.yul\":18220:18300   */\n      tag_673\n        /* \"#utility.yul\":18276:18298   */\n      tag_674\n        /* \"#utility.yul\":18294:18297   */\n      dup6\n        /* \"#utility.yul\":18276:18298   */\n      tag_444\n      jump\t// in\n    tag_674:\n        /* \"#utility.yul\":18266:18274   */\n      dup4\n        /* \"#utility.yul\":18262:18299   */\n      add\n        /* \"#utility.yul\":18249:18260   */\n      dup3\n        /* \"#utility.yul\":18220:18300   */\n      tag_453\n      jump\t// in\n    tag_673:\n        /* \"#utility.yul\":17879:18310   */\n      pop\n      pop\n        /* \"#utility.yul\":17864:18310   */\n    tag_669:\n        /* \"#utility.yul\":17774:18317   */\n      pop\n      pop\n      pop\n      jump\t// out\n        /* \"#utility.yul\":18323:18440   */\n    tag_455:\n        /* \"#utility.yul\":18377:18385   */\n      0x00\n        /* \"#utility.yul\":18427:18432   */\n      dup3\n        /* \"#utility.yul\":18421:18425   */\n      dup3\n        /* \"#utility.yul\":18417:18433   */\n      shr\n        /* \"#utility.yul\":18396:18433   */\n      swap1\n      pop\n        /* \"#utility.yul\":18323:18440   */\n      swap3\n      swap2\n      pop\n      pop\n      jump\t// out\n        /* \"#utility.yul\":18446:18615   */\n    tag_456:\n        /* \"#utility.yul\":18490:18496   */\n      0x00\n        /* \"#utility.yul\":18523:18574   */\n      tag_677\n        /* \"#utility.yul\":18571:18572   */\n      0x00\n        /* \"#utility.yul\":18567:18573   */\n      not\n        /* \"#utility.yul\":18559:18564   */\n      dup5\n        /* \"#utility.yul\":18556:18557   */\n      0x08\n        /* \"#utility.yul\":18552:18565   */\n      mul\n        /* \"#utility.yul\":18523:18574   */\n      tag_455\n      jump\t// in\n    tag_677:\n        /* \"#utility.yul\":18519:18575   */\n      not\n        /* \"#utility.yul\":18604:18608   */\n      dup1\n        /* \"#utility.yul\":18598:18602   */\n      dup4\n        /* \"#utility.yul\":18594:18609   */\n      and\n        /* \"#utility.yul\":18584:18609   */\n      swap2\n      pop\n        /* \"#utility.yul\":18497:18615   */\n      pop\n        /* \"#utility.yul\":18446:18615   */\n      swap3\n      swap2\n      pop\n      pop\n      jump\t// out\n        /* \"#utility.yul\":18620:18915   */\n    tag_457:\n        /* \"#utility.yul\":18696:18700   */\n      0x00\n        /* \"#utility.yul\":18842:18871   */\n      tag_679\n        /* \"#utility.yul\":18867:18870   */\n      dup4\n        /* \"#utility.yul\":18861:18865   */\n      dup4\n        /* \"#utility.yul\":18842:18871   */\n      tag_456\n      jump\t// in\n    tag_679:\n        /* \"#utility.yul\":18834:18871   */\n      swap2\n      pop\n        /* \"#utility.yul\":18904:18907   */\n      dup3\n        /* \"#utility.yul\":18901:18902   */\n      0x02\n        /* \"#utility.yul\":18897:18908   */\n      mul\n        /* \"#utility.yul\":18891:18895   */\n      dup3\n        /* \"#utility.yul\":18888:18909   */\n      or\n        /* \"#utility.yul\":18880:18909   */\n      swap1\n      pop\n        /* \"#utility.yul\":18620:18915   */\n      swap3\n      swap2\n      pop\n      pop\n      jump\t// out\n        /* \"#utility.yul\":18920:20315   */\n    tag_126:\n        /* \"#utility.yul\":19037:19074   */\n      tag_681\n        /* \"#utility.yul\":19070:19073   */\n      dup3\n        /* \"#utility.yul\":19037:19074   */\n      tag_402\n      jump\t// in\n    tag_681:\n        /* \"#utility.yul\":19139:19157   */\n      0xffffffffffffffff\n        /* \"#utility.yul\":19131:19137   */\n      dup2\n        /* \"#utility.yul\":19128:19158   */\n      gt\n        /* \"#utility.yul\":19125:19181   */\n      iszero\n      tag_682\n      jumpi\n        /* \"#utility.yul\":19161:19179   */\n      tag_683\n      tag_414\n      jump\t// in\n    tag_683:\n        /* \"#utility.yul\":19125:19181   */\n    tag_682:\n        /* \"#utility.yul\":19205:19243   */\n      tag_684\n        /* \"#utility.yul\":19237:19241   */\n      dup3\n        /* \"#utility.yul\":19231:19242   */\n      sload\n        /* \"#utility.yul\":19205:19243   */\n      tag_86\n      jump\t// in\n    tag_684:\n        /* \"#utility.yul\":19290:19357   */\n      tag_685\n        /* \"#utility.yul\":19350:19356   */\n      dup3\n        /* \"#utility.yul\":19342:19348   */\n      dup3\n        /* \"#utility.yul\":19336:19340   */\n      dup6\n        /* \"#utility.yul\":19290:19357   */\n      tag_454\n      jump\t// in\n    tag_685:\n        /* \"#utility.yul\":19384:19385   */\n      0x00\n        /* \"#utility.yul\":19408:19412   */\n      0x20\n        /* \"#utility.yul\":19395:19412   */\n      swap1\n      pop\n        /* \"#utility.yul\":19440:19442   */\n      0x1f\n        /* \"#utility.yul\":19432:19438   */\n      dup4\n        /* \"#utility.yul\":19429:19443   */\n      gt\n        /* \"#utility.yul\":19457:19458   */\n      0x01\n        /* \"#utility.yul\":19452:20070   */\n      dup2\n      eq\n      tag_687\n      jumpi\n        /* \"#utility.yul\":20114:20115   */\n      0x00\n        /* \"#utility.yul\":20131:20137   */\n      dup5\n        /* \"#utility.yul\":20128:20205   */\n      iszero\n      tag_688\n      jumpi\n        /* \"#utility.yul\":20180:20189   */\n      dup3\n        /* \"#utility.yul\":20175:20178   */\n      dup8\n        /* \"#utility.yul\":20171:20190   */\n      add\n        /* \"#utility.yul\":20165:20191   */\n      mload\n        /* \"#utility.yul\":20156:20191   */\n      swap1\n      pop\n        /* \"#utility.yul\":20128:20205   */\n    tag_688:\n        /* \"#utility.yul\":20231:20298   */\n      tag_689\n        /* \"#utility.yul\":20291:20297   */\n      dup6\n        /* \"#utility.yul\":20284:20289   */\n      dup3\n        /* \"#utility.yul\":20231:20298   */\n      tag_457\n      jump\t// in\n    tag_689:\n        /* \"#utility.yul\":20225:20229   */\n      dup7\n        /* \"#utility.yul\":20218:20299   */\n      sstore\n        /* \"#utility.yul\":20087:20309   */\n      pop\n        /* \"#utility.yul\":19422:20309   */\n      jump(tag_686)\n        /* \"#utility.yul\":19452:20070   */\n    tag_687:\n        /* \"#utility.yul\":19504:19508   */\n      0x1f\n        /* \"#utility.yul\":19500:19509   */\n      not\n        /* \"#utility.yul\":19492:19498   */\n      dup5\n        /* \"#utility.yul\":19488:19510   */\n      and\n        /* \"#utility.yul\":19538:19575   */\n      tag_690\n        /* \"#utility.yul\":19570:19574   */\n      dup7\n        /* \"#utility.yul\":19538:19575   */\n      tag_443\n      jump\t// in\n    tag_690:\n        /* \"#utility.yul\":19597:19598   */\n      0x00\n        /* \"#utility.yul\":19611:19819   */\n    tag_691:\n        /* \"#utility.yul\":19625:19632   */\n      dup3\n        /* \"#utility.yul\":19622:19623   */\n      dup2\n        /* \"#utility.yul\":19619:19633   */\n      lt\n        /* \"#utility.yul\":19611:19819   */\n      iszero\n      tag_693\n      jumpi\n        /* \"#utility.yul\":19704:19713   */\n      dup5\n        /* \"#utility.yul\":19699:19702   */\n      dup10\n        /* \"#utility.yul\":19695:19714   */\n      add\n        /* \"#utility.yul\":19689:19715   */\n      mload\n        /* \"#utility.yul\":19681:19687   */\n      dup3\n        /* \"#utility.yul\":19674:19716   */\n      sstore\n        /* \"#utility.yul\":19755:19756   */\n      0x01\n        /* \"#utility.yul\":19747:19753   */\n      dup3\n        /* \"#utility.yul\":19743:19757   */\n      add\n        /* \"#utility.yul\":19733:19757   */\n      swap2\n      pop\n        /* \"#utility.yul\":19802:19804   */\n      0x20\n        /* \"#utility.yul\":19791:19800   */\n      dup6\n        /* \"#utility.yul\":19787:19805   */\n      add\n        /* \"#utility.yul\":19774:19805   */\n      swap5\n      pop\n        /* \"#utility.yul\":19648:19652   */\n      0x20\n        /* \"#utility.yul\":19645:19646   */\n      dup2\n        /* \"#utility.yul\":19641:19653   */\n      add\n        /* \"#utility.yul\":19636:19653   */\n      swap1\n      pop\n        /* \"#utility.yul\":19611:19819   */\n      jump(tag_691)\n    tag_693:\n        /* \"#utility.yul\":19847:19853   */\n      dup7\n        /* \"#utility.yul\":19838:19845   */\n      dup4\n        /* \"#utility.yul\":19835:19854   */\n      lt\n        /* \"#utility.yul\":19832:20011   */\n      iszero\n      tag_694\n      jumpi\n        /* \"#utility.yul\":19905:19914   */\n      dup5\n        /* \"#utility.yul\":19900:19903   */\n      dup10\n        /* \"#utility.yul\":19896:19915   */\n      add\n        /* \"#utility.yul\":19890:19916   */\n      mload\n        /* \"#utility.yul\":19948:19996   */\n      tag_695\n        /* \"#utility.yul\":19990:19994   */\n      0x1f\n        /* \"#utility.yul\":19982:19988   */\n      dup10\n        /* \"#utility.yul\":19978:19995   */\n      and\n        /* \"#utility.yul\":19967:19976   */\n      dup3\n        /* \"#utility.yul\":19948:19996   */\n      tag_456\n      jump\t// in\n    tag_695:\n        /* \"#utility.yul\":19940:19946   */\n      dup4\n        /* \"#utility.yul\":19933:19997   */\n      sstore\n        /* \"#utility.yul\":19855:20011   */\n      pop\n        /* \"#utility.yul\":19832:20011   */\n    tag_694:\n        /* \"#utility.yul\":20057:20058   */\n      0x01\n        /* \"#utility.yul\":20053:20054   */\n      0x02\n        /* \"#utility.yul\":20045:20051   */\n      dup9\n        /* \"#utility.yul\":20041:20055   */\n      mul\n        /* \"#utility.yul\":20037:20059   */\n      add\n        /* \"#utility.yul\":20031:20035   */\n      dup9\n        /* \"#utility.yul\":20024:20060   */\n      sstore\n        /* \"#utility.yul\":19459:20070   */\n      pop\n      pop\n      pop\n        /* \"#utility.yul\":19422:20309   */\n    tag_686:\n      pop\n        /* \"#utility.yul\":19012:20315   */\n      pop\n      pop\n      pop\n        /* \"#utility.yul\":18920:20315   */\n      pop\n      pop\n      jump\t// out\n        /* \"#utility.yul\":20321:20515   */\n    tag_128:\n        /* \"#utility.yul\":20361:20365   */\n      0x00\n        /* \"#utility.yul\":20381:20401   */\n      tag_697\n        /* \"#utility.yul\":20399:20400   */\n      dup3\n        /* \"#utility.yul\":20381:20401   */\n      tag_399\n      jump\t// in\n    tag_697:\n        /* \"#utility.yul\":20376:20401   */\n      swap2\n      pop\n        /* \"#utility.yul\":20415:20435   */\n      tag_698\n        /* \"#utility.yul\":20433:20434   */\n      dup4\n        /* \"#utility.yul\":20415:20435   */\n      tag_399\n      jump\t// in\n    tag_698:\n        /* \"#utility.yul\":20410:20435   */\n      swap3\n      pop\n        /* \"#utility.yul\":20459:20460   */\n      dup3\n        /* \"#utility.yul\":20456:20457   */\n      dup3\n        /* \"#utility.yul\":20452:20461   */\n      sub\n        /* \"#utility.yul\":20444:20461   */\n      swap1\n      pop\n        /* \"#utility.yul\":20483:20484   */\n      dup2\n        /* \"#utility.yul\":20477:20481   */\n      dup2\n        /* \"#utility.yul\":20474:20485   */\n      gt\n        /* \"#utility.yul\":20471:20508   */\n      iszero\n      tag_699\n      jumpi\n        /* \"#utility.yul\":20488:20506   */\n      tag_700\n      tag_442\n      jump\t// in\n    tag_700:\n        /* \"#utility.yul\":20471:20508   */\n    tag_699:\n        /* \"#utility.yul\":20321:20515   */\n      swap3\n      swap2\n      pop\n      pop\n      jump\t// out\n        /* \"#utility.yul\":20521:20743   */\n    tag_130:\n        /* \"#utility.yul\":20614:20618   */\n      0x00\n        /* \"#utility.yul\":20652:20654   */\n      0x20\n        /* \"#utility.yul\":20641:20650   */\n      dup3\n        /* \"#utility.yul\":20637:20655   */\n      add\n        /* \"#utility.yul\":20629:20655   */\n      swap1\n      pop\n        /* \"#utility.yul\":20665:20736   */\n      tag_702\n        /* \"#utility.yul\":20733:20734   */\n      0x00\n        /* \"#utility.yul\":20722:20731   */\n      dup4\n        /* \"#utility.yul\":20718:20735   */\n      add\n        /* \"#utility.yul\":20709:20715   */\n      dup5\n        /* \"#utility.yul\":20665:20736   */\n      tag_407\n      jump\t// in\n    tag_702:\n        /* \"#utility.yul\":20521:20743   */\n      swap3\n      swap2\n      pop\n      pop\n      jump\t// out\n        /* \"#utility.yul\":20749:20927   */\n    tag_458:\n        /* \"#utility.yul\":20889:20919   */\n      0x566f74657220697320616c72656164792077686974656c697374656400000000\n        /* \"#utility.yul\":20885:20886   */\n      0x00\n        /* \"#utility.yul\":20877:20883   */\n      dup3\n        /* \"#utility.yul\":20873:20887   */\n      add\n        /* \"#utility.yul\":20866:20920   */\n      mstore\n        /* \"#utility.yul\":20749:20927   */\n      pop\n      jump\t// out\n        /* \"#utility.yul\":20933:21299   */\n    tag_459:\n        /* \"#utility.yul\":21075:21078   */\n      0x00\n        /* \"#utility.yul\":21096:21163   */\n      tag_705\n        /* \"#utility.yul\":21160:21162   */\n      0x1c\n        /* \"#utility.yul\":21155:21158   */\n      dup4\n        /* \"#utility.yul\":21096:21163   */\n      tag_403\n      jump\t// in\n    tag_705:\n        /* \"#utility.yul\":21089:21163   */\n      swap2\n      pop\n        /* \"#utility.yul\":21172:21265   */\n      tag_706\n        /* \"#utility.yul\":21261:21264   */\n      dup3\n        /* \"#utility.yul\":21172:21265   */\n      tag_458\n      jump\t// in\n    tag_706:\n        /* \"#utility.yul\":21290:21292   */\n      0x20\n        /* \"#utility.yul\":21285:21288   */\n      dup3\n        /* \"#utility.yul\":21281:21293   */\n      add\n        /* \"#utility.yul\":21274:21293   */\n      swap1\n      pop\n        /* \"#utility.yul\":20933:21299   */\n      swap2\n      swap1\n      pop\n      jump\t// out\n        /* \"#utility.yul\":21305:21724   */\n    tag_139:\n        /* \"#utility.yul\":21471:21475   */\n      0x00\n        /* \"#utility.yul\":21509:21511   */\n      0x20\n        /* \"#utility.yul\":21498:21507   */\n      dup3\n        /* \"#utility.yul\":21494:21512   */\n      add\n        /* \"#utility.yul\":21486:21512   */\n      swap1\n      pop\n        /* \"#utility.yul\":21558:21567   */\n      dup2\n        /* \"#utility.yul\":21552:21556   */\n      dup2\n        /* \"#utility.yul\":21548:21568   */\n      sub\n        /* \"#utility.yul\":21544:21545   */\n      0x00\n        /* \"#utility.yul\":21533:21542   */\n      dup4\n        /* \"#utility.yul\":21529:21546   */\n      add\n        /* \"#utility.yul\":21522:21569   */\n      mstore\n        /* \"#utility.yul\":21586:21717   */\n      tag_708\n        /* \"#utility.yul\":21712:21716   */\n      dup2\n        /* \"#utility.yul\":21586:21717   */\n      tag_459\n      jump\t// in\n    tag_708:\n        /* \"#utility.yul\":21578:21717   */\n      swap1\n      pop\n        /* \"#utility.yul\":21305:21724   */\n      swap2\n      swap1\n      pop\n      jump\t// out\n        /* \"#utility.yul\":21730:21901   */\n    tag_460:\n        /* \"#utility.yul\":21870:21893   */\n      0x546869732075736572206469646e277420766f74650000000000000000000000\n        /* \"#utility.yul\":21866:21867   */\n      0x00\n        /* \"#utility.yul\":21858:21864   */\n      dup3\n        /* \"#utility.yul\":21854:21868   */\n      add\n        /* \"#utility.yul\":21847:21894   */\n      mstore\n        /* \"#utility.yul\":21730:21901   */\n      pop\n      jump\t// out\n        /* \"#utility.yul\":21907:22273   */\n    tag_461:\n        /* \"#utility.yul\":22049:22052   */\n      0x00\n        /* \"#utility.yul\":22070:22137   */\n      tag_711\n        /* \"#utility.yul\":22134:22136   */\n      0x15\n        /* \"#utility.yul\":22129:22132   */\n      dup4\n        /* \"#utility.yul\":22070:22137   */\n      tag_403\n      jump\t// in\n    tag_711:\n        /* \"#utility.yul\":22063:22137   */\n      swap2\n      pop\n        /* \"#utility.yul\":22146:22239   */\n      tag_712\n        /* \"#utility.yul\":22235:22238   */\n      dup3\n        /* \"#utility.yul\":22146:22239   */\n      tag_460\n      jump\t// in\n    tag_712:\n        /* \"#utility.yul\":22264:22266   */\n      0x20\n        /* \"#utility.yul\":22259:22262   */\n      dup3\n        /* \"#utility.yul\":22255:22267   */\n      add\n        /* \"#utility.yul\":22248:22267   */\n      swap1\n      pop\n        /* \"#utility.yul\":21907:22273   */\n      swap2\n      swap1\n      pop\n      jump\t// out\n        /* \"#utility.yul\":22279:22698   */\n    tag_181:\n        /* \"#utility.yul\":22445:22449   */\n      0x00\n        /* \"#utility.yul\":22483:22485   */\n      0x20\n        /* \"#utility.yul\":22472:22481   */\n      dup3\n        /* \"#utility.yul\":22468:22486   */\n      add\n        /* \"#utility.yul\":22460:22486   */\n      swap1\n      pop\n        /* \"#utility.yul\":22532:22541   */\n      dup2\n        /* \"#utility.yul\":22526:22530   */\n      dup2\n        /* \"#utility.yul\":22522:22542   */\n      sub\n        /* \"#utility.yul\":22518:22519   */\n      0x00\n        /* \"#utility.yul\":22507:22516   */\n      dup4\n        /* \"#utility.yul\":22503:22520   */\n      add\n        /* \"#utility.yul\":22496:22543   */\n      mstore\n        /* \"#utility.yul\":22560:22691   */\n      tag_714\n        /* \"#utility.yul\":22686:22690   */\n      dup2\n        /* \"#utility.yul\":22560:22691   */\n      tag_461\n      jump\t// in\n    tag_714:\n        /* \"#utility.yul\":22552:22691   */\n      swap1\n      pop\n        /* \"#utility.yul\":22279:22698   */\n      swap2\n      swap1\n      pop\n      jump\t// out\n        /* \"#utility.yul\":22704:22929   */\n    tag_462:\n        /* \"#utility.yul\":22844:22878   */\n      0x4f776e61626c653a206e6577206f776e657220697320746865207a65726f2061\n        /* \"#utility.yul\":22840:22841   */\n      0x00\n        /* \"#utility.yul\":22832:22838   */\n      dup3\n        /* \"#utility.yul\":22828:22842   */\n      add\n        /* \"#utility.yul\":22821:22879   */\n      mstore\n        /* \"#utility.yul\":22913:22921   */\n      0x6464726573730000000000000000000000000000000000000000000000000000\n        /* \"#utility.yul\":22908:22910   */\n      0x20\n        /* \"#utility.yul\":22900:22906   */\n      dup3\n        /* \"#utility.yul\":22896:22911   */\n      add\n        /* \"#utility.yul\":22889:22922   */\n      mstore\n        /* \"#utility.yul\":22704:22929   */\n      pop\n      jump\t// out\n        /* \"#utility.yul\":22935:23301   */\n    tag_463:\n        /* \"#utility.yul\":23077:23080   */\n      0x00\n        /* \"#utility.yul\":23098:23165   */\n      tag_717\n        /* \"#utility.yul\":23162:23164   */\n      0x26\n        /* \"#utility.yul\":23157:23160   */\n      dup4\n        /* \"#utility.yul\":23098:23165   */\n      tag_403\n      jump\t// in\n    tag_717:\n        /* \"#utility.yul\":23091:23165   */\n      swap2\n      pop\n        /* \"#utility.yul\":23174:23267   */\n      tag_718\n        /* \"#utility.yul\":23263:23266   */\n      dup3\n        /* \"#utility.yul\":23174:23267   */\n      tag_462\n      jump\t// in\n    tag_718:\n        /* \"#utility.yul\":23292:23294   */\n      0x40\n        /* \"#utility.yul\":23287:23290   */\n      dup3\n        /* \"#utility.yul\":23283:23295   */\n      add\n        /* \"#utility.yul\":23276:23295   */\n      swap1\n      pop\n        /* \"#utility.yul\":22935:23301   */\n      swap2\n      swap1\n      pop\n      jump\t// out\n        /* \"#utility.yul\":23307:23726   */\n    tag_212:\n        /* \"#utility.yul\":23473:23477   */\n      0x00\n        /* \"#utility.yul\":23511:23513   */\n      0x20\n        /* \"#utility.yul\":23500:23509   */\n      dup3\n        /* \"#utility.yul\":23496:23514   */\n      add\n        /* \"#utility.yul\":23488:23514   */\n      swap1\n      pop\n        /* \"#utility.yul\":23560:23569   */\n      dup2\n        /* \"#utility.yul\":23554:23558   */\n      dup2\n        /* \"#utility.yul\":23550:23570   */\n      sub\n        /* \"#utility.yul\":23546:23547   */\n      0x00\n        /* \"#utility.yul\":23535:23544   */\n      dup4\n        /* \"#utility.yul\":23531:23548   */\n      add\n        /* \"#utility.yul\":23524:23571   */\n      mstore\n        /* \"#utility.yul\":23588:23719   */\n      tag_720\n        /* \"#utility.yul\":23714:23718   */\n      dup2\n        /* \"#utility.yul\":23588:23719   */\n      tag_463\n      jump\t// in\n    tag_720:\n        /* \"#utility.yul\":23580:23719   */\n      swap1\n      pop\n        /* \"#utility.yul\":23307:23726   */\n      swap2\n      swap1\n      pop\n      jump\t// out\n        /* \"#utility.yul\":23732:23967   */\n    tag_464:\n        /* \"#utility.yul\":23872:23906   */\n      0x596f75206861766520616c726561647920766f7465642e204f6e6c79206f6e65\n        /* \"#utility.yul\":23868:23869   */\n      0x00\n        /* \"#utility.yul\":23860:23866   */\n      dup3\n        /* \"#utility.yul\":23856:23870   */\n      add\n        /* \"#utility.yul\":23849:23907   */\n      mstore\n        /* \"#utility.yul\":23941:23959   */\n      0x20766f746520697320616c6c6f77656400000000000000000000000000000000\n        /* \"#utility.yul\":23936:23938   */\n      0x20\n        /* \"#utility.yul\":23928:23934   */\n      dup3\n        /* \"#utility.yul\":23924:23939   */\n      add\n        /* \"#utility.yul\":23917:23960   */\n      mstore\n        /* \"#utility.yul\":23732:23967   */\n      pop\n      jump\t// out\n        /* \"#utility.yul\":23973:24339   */\n    tag_465:\n        /* \"#utility.yul\":24115:24118   */\n      0x00\n        /* \"#utility.yul\":24136:24203   */\n      tag_723\n        /* \"#utility.yul\":24200:24202   */\n      0x30\n        /* \"#utility.yul\":24195:24198   */\n      dup4\n        /* \"#utility.yul\":24136:24203   */\n      tag_403\n      jump\t// in\n    tag_723:\n        /* \"#utility.yul\":24129:24203   */\n      swap2\n      pop\n        /* \"#utility.yul\":24212:24305   */\n      tag_724\n        /* \"#utility.yul\":24301:24304   */\n      dup3\n        /* \"#utility.yul\":24212:24305   */\n      tag_464\n      jump\t// in\n    tag_724:\n        /* \"#utility.yul\":24330:24332   */\n      0x40\n        /* \"#utility.yul\":24325:24328   */\n      dup3\n        /* \"#utility.yul\":24321:24333   */\n      add\n        /* \"#utility.yul\":24314:24333   */\n      swap1\n      pop\n        /* \"#utility.yul\":23973:24339   */\n      swap2\n      swap1\n      pop\n      jump\t// out\n        /* \"#utility.yul\":24345:24764   */\n    tag_222:\n        /* \"#utility.yul\":24511:24515   */\n      0x00\n        /* \"#utility.yul\":24549:24551   */\n      0x20\n        /* \"#utility.yul\":24538:24547   */\n      dup3\n        /* \"#utility.yul\":24534:24552   */\n      add\n        /* \"#utility.yul\":24526:24552   */\n      swap1\n      pop\n        /* \"#utility.yul\":24598:24607   */\n      dup2\n        /* \"#utility.yul\":24592:24596   */\n      dup2\n        /* \"#utility.yul\":24588:24608   */\n      sub\n        /* \"#utility.yul\":24584:24585   */\n      0x00\n        /* \"#utility.yul\":24573:24582   */\n      dup4\n        /* \"#utility.yul\":24569:24586   */\n      add\n        /* \"#utility.yul\":24562:24609   */\n      mstore\n        /* \"#utility.yul\":24626:24757   */\n      tag_726\n        /* \"#utility.yul\":24752:24756   */\n      dup2\n        /* \"#utility.yul\":24626:24757   */\n      tag_465\n      jump\t// in\n    tag_726:\n        /* \"#utility.yul\":24618:24757   */\n      swap1\n      pop\n        /* \"#utility.yul\":24345:24764   */\n      swap2\n      swap1\n      pop\n      jump\t// out\n        /* \"#utility.yul\":24770:25017   */\n    tag_466:\n        /* \"#utility.yul\":24910:24944   */\n      0x50726f706f73616c20496420646f65736e27742065786973742e20506c656173\n        /* \"#utility.yul\":24906:24907   */\n      0x00\n        /* \"#utility.yul\":24898:24904   */\n      dup3\n        /* \"#utility.yul\":24894:24908   */\n      add\n        /* \"#utility.yul\":24887:24945   */\n      mstore\n        /* \"#utility.yul\":24979:25009   */\n      0x652073656c65637420612076616c69642070726f706f73616c20496400000000\n        /* \"#utility.yul\":24974:24976   */\n      0x20\n        /* \"#utility.yul\":24966:24972   */\n      dup3\n        /* \"#utility.yul\":24962:24977   */\n      add\n        /* \"#utility.yul\":24955:25010   */\n      mstore\n        /* \"#utility.yul\":24770:25017   */\n      pop\n      jump\t// out\n        /* \"#utility.yul\":25023:25389   */\n    tag_467:\n        /* \"#utility.yul\":25165:25168   */\n      0x00\n        /* \"#utility.yul\":25186:25253   */\n      tag_729\n        /* \"#utility.yul\":25250:25252   */\n      0x3c\n        /* \"#utility.yul\":25245:25248   */\n      dup4\n        /* \"#utility.yul\":25186:25253   */\n      tag_403\n      jump\t// in\n    tag_729:\n        /* \"#utility.yul\":25179:25253   */\n      swap2\n      pop\n        /* \"#utility.yul\":25262:25355   */\n      tag_730\n        /* \"#utility.yul\":25351:25354   */\n      dup3\n        /* \"#utility.yul\":25262:25355   */\n      tag_466\n      jump\t// in\n    tag_730:\n        /* \"#utility.yul\":25380:25382   */\n      0x40\n        /* \"#utility.yul\":25375:25378   */\n      dup3\n        /* \"#utility.yul\":25371:25383   */\n      add\n        /* \"#utility.yul\":25364:25383   */\n      swap1\n      pop\n        /* \"#utility.yul\":25023:25389   */\n      swap2\n      swap1\n      pop\n      jump\t// out\n        /* \"#utility.yul\":25395:25814   */\n    tag_225:\n        /* \"#utility.yul\":25561:25565   */\n      0x00\n        /* \"#utility.yul\":25599:25601   */\n      0x20\n        /* \"#utility.yul\":25588:25597   */\n      dup3\n        /* \"#utility.yul\":25584:25602   */\n      add\n        /* \"#utility.yul\":25576:25602   */\n      swap1\n      pop\n        /* \"#utility.yul\":25648:25657   */\n      dup2\n        /* \"#utility.yul\":25642:25646   */\n      dup2\n        /* \"#utility.yul\":25638:25658   */\n      sub\n        /* \"#utility.yul\":25634:25635   */\n      0x00\n        /* \"#utility.yul\":25623:25632   */\n      dup4\n        /* \"#utility.yul\":25619:25636   */\n      add\n        /* \"#utility.yul\":25612:25659   */\n      mstore\n        /* \"#utility.yul\":25676:25807   */\n      tag_732\n        /* \"#utility.yul\":25802:25806   */\n      dup2\n        /* \"#utility.yul\":25676:25807   */\n      tag_467\n      jump\t// in\n    tag_732:\n        /* \"#utility.yul\":25668:25807   */\n      swap1\n      pop\n        /* \"#utility.yul\":25395:25814   */\n      swap2\n      swap1\n      pop\n      jump\t// out\n        /* \"#utility.yul\":25820:26152   */\n    tag_231:\n        /* \"#utility.yul\":25941:25945   */\n      0x00\n        /* \"#utility.yul\":25979:25981   */\n      0x40\n        /* \"#utility.yul\":25968:25977   */\n      dup3\n        /* \"#utility.yul\":25964:25982   */\n      add\n        /* \"#utility.yul\":25956:25982   */\n      swap1\n      pop\n        /* \"#utility.yul\":25992:26063   */\n      tag_734\n        /* \"#utility.yul\":26060:26061   */\n      0x00\n        /* \"#utility.yul\":26049:26058   */\n      dup4\n        /* \"#utility.yul\":26045:26062   */\n      add\n        /* \"#utility.yul\":26036:26042   */\n      dup6\n        /* \"#utility.yul\":25992:26063   */\n      tag_435\n      jump\t// in\n    tag_734:\n        /* \"#utility.yul\":26073:26145   */\n      tag_735\n        /* \"#utility.yul\":26141:26143   */\n      0x20\n        /* \"#utility.yul\":26130:26139   */\n      dup4\n        /* \"#utility.yul\":26126:26144   */\n      add\n        /* \"#utility.yul\":26117:26123   */\n      dup5\n        /* \"#utility.yul\":26073:26145   */\n      tag_407\n      jump\t// in\n    tag_735:\n        /* \"#utility.yul\":25820:26152   */\n      swap4\n      swap3\n      pop\n      pop\n      pop\n      jump\t// out\n        /* \"#utility.yul\":26158:26340   */\n    tag_468:\n        /* \"#utility.yul\":26298:26332   */\n      0x4f776e61626c653a2063616c6c6572206973206e6f7420746865206f776e6572\n        /* \"#utility.yul\":26294:26295   */\n      0x00\n        /* \"#utility.yul\":26286:26292   */\n      dup3\n        /* \"#utility.yul\":26282:26296   */\n      add\n        /* \"#utility.yul\":26275:26333   */\n      mstore\n        /* \"#utility.yul\":26158:26340   */\n      pop\n      jump\t// out\n        /* \"#utility.yul\":26346:26712   */\n    tag_469:\n        /* \"#utility.yul\":26488:26491   */\n      0x00\n        /* \"#utility.yul\":26509:26576   */\n      tag_738\n        /* \"#utility.yul\":26573:26575   */\n      0x20\n        /* \"#utility.yul\":26568:26571   */\n      dup4\n        /* \"#utility.yul\":26509:26576   */\n      tag_403\n      jump\t// in\n    tag_738:\n        /* \"#utility.yul\":26502:26576   */\n      swap2\n      pop\n        /* \"#utility.yul\":26585:26678   */\n      tag_739\n        /* \"#utility.yul\":26674:26677   */\n      dup3\n        /* \"#utility.yul\":26585:26678   */\n      tag_468\n      jump\t// in\n    tag_739:\n        /* \"#utility.yul\":26703:26705   */\n      0x20\n        /* \"#utility.yul\":26698:26701   */\n      dup3\n        /* \"#utility.yul\":26694:26706   */\n      add\n        /* \"#utility.yul\":26687:26706   */\n      swap1\n      pop\n        /* \"#utility.yul\":26346:26712   */\n      swap2\n      swap1\n      pop\n      jump\t// out\n        /* \"#utility.yul\":26718:27137   */\n    tag_238:\n        /* \"#utility.yul\":26884:26888   */\n      0x00\n        /* \"#utility.yul\":26922:26924   */\n      0x20\n        /* \"#utility.yul\":26911:26920   */\n      dup3\n        /* \"#utility.yul\":26907:26925   */\n      add\n        /* \"#utility.yul\":26899:26925   */\n      swap1\n      pop\n        /* \"#utility.yul\":26971:26980   */\n      dup2\n        /* \"#utility.yul\":26965:26969   */\n      dup2\n        /* \"#utility.yul\":26961:26981   */\n      sub\n        /* \"#utility.yul\":26957:26958   */\n      0x00\n        /* \"#utility.yul\":26946:26955   */\n      dup4\n        /* \"#utility.yul\":26942:26959   */\n      add\n        /* \"#utility.yul\":26935:26982   */\n      mstore\n        /* \"#utility.yul\":26999:27130   */\n      tag_741\n        /* \"#utility.yul\":27125:27129   */\n      dup2\n        /* \"#utility.yul\":26999:27130   */\n      tag_469\n      jump\t// in\n    tag_741:\n        /* \"#utility.yul\":26991:27130   */\n      swap1\n      pop\n        /* \"#utility.yul\":26718:27137   */\n      swap2\n      swap1\n      pop\n      jump\t// out\n        /* \"#utility.yul\":27143:27381   */\n    tag_470:\n        /* \"#utility.yul\":27283:27317   */\n      0x566f74696e67206973206e6f7420636c6f736564206f7220766f74657320636f\n        /* \"#utility.yul\":27279:27280   */\n      0x00\n        /* \"#utility.yul\":27271:27277   */\n      dup3\n        /* \"#utility.yul\":27267:27281   */\n      add\n        /* \"#utility.yul\":27260:27318   */\n      mstore\n        /* \"#utility.yul\":27352:27373   */\n      0x756e7420697320616c726561647920646f6e6500000000000000000000000000\n        /* \"#utility.yul\":27347:27349   */\n      0x20\n        /* \"#utility.yul\":27339:27345   */\n      dup3\n        /* \"#utility.yul\":27335:27350   */\n      add\n        /* \"#utility.yul\":27328:27374   */\n      mstore\n        /* \"#utility.yul\":27143:27381   */\n      pop\n      jump\t// out\n        /* \"#utility.yul\":27387:27753   */\n    tag_471:\n        /* \"#utility.yul\":27529:27532   */\n      0x00\n        /* \"#utility.yul\":27550:27617   */\n      tag_744\n        /* \"#utility.yul\":27614:27616   */\n      0x33\n        /* \"#utility.yul\":27609:27612   */\n      dup4\n        /* \"#utility.yul\":27550:27617   */\n      tag_403\n      jump\t// in\n    tag_744:\n        /* \"#utility.yul\":27543:27617   */\n      swap2\n      pop\n        /* \"#utility.yul\":27626:27719   */\n      tag_745\n        /* \"#utility.yul\":27715:27718   */\n      dup3\n        /* \"#utility.yul\":27626:27719   */\n      tag_470\n      jump\t// in\n    tag_745:\n        /* \"#utility.yul\":27744:27746   */\n      0x40\n        /* \"#utility.yul\":27739:27742   */\n      dup3\n        /* \"#utility.yul\":27735:27747   */\n      add\n        /* \"#utility.yul\":27728:27747   */\n      swap1\n      pop\n        /* \"#utility.yul\":27387:27753   */\n      swap2\n      swap1\n      pop\n      jump\t// out\n        /* \"#utility.yul\":27759:28178   */\n    tag_247:\n        /* \"#utility.yul\":27925:27929   */\n      0x00\n        /* \"#utility.yul\":27963:27965   */\n      0x20\n        /* \"#utility.yul\":27952:27961   */\n      dup3\n        /* \"#utility.yul\":27948:27966   */\n      add\n        /* \"#utility.yul\":27940:27966   */\n      swap1\n      pop\n        /* \"#utility.yul\":28012:28021   */\n      dup2\n        /* \"#utility.yul\":28006:28010   */\n      dup2\n        /* \"#utility.yul\":28002:28022   */\n      sub\n        /* \"#utility.yul\":27998:27999   */\n      0x00\n        /* \"#utility.yul\":27987:27996   */\n      dup4\n        /* \"#utility.yul\":27983:28000   */\n      add\n        /* \"#utility.yul\":27976:28023   */\n      mstore\n        /* \"#utility.yul\":28040:28171   */\n      tag_747\n        /* \"#utility.yul\":28166:28170   */\n      dup2\n        /* \"#utility.yul\":28040:28171   */\n      tag_471\n      jump\t// in\n    tag_747:\n        /* \"#utility.yul\":28032:28171   */\n      swap1\n      pop\n        /* \"#utility.yul\":27759:28178   */\n      swap2\n      swap1\n      pop\n      jump\t// out\n        /* \"#utility.yul\":28184:28580   */\n    tag_257:\n        /* \"#utility.yul\":28337:28341   */\n      0x00\n        /* \"#utility.yul\":28375:28377   */\n      0x40\n        /* \"#utility.yul\":28364:28373   */\n      dup3\n        /* \"#utility.yul\":28360:28378   */\n      add\n        /* \"#utility.yul\":28352:28378   */\n      swap1\n      pop\n        /* \"#utility.yul\":28388:28475   */\n      tag_749\n        /* \"#utility.yul\":28472:28473   */\n      0x00\n        /* \"#utility.yul\":28461:28470   */\n      dup4\n        /* \"#utility.yul\":28457:28474   */\n      add\n        /* \"#utility.yul\":28448:28454   */\n      dup6\n        /* \"#utility.yul\":28388:28475   */\n      tag_411\n      jump\t// in\n    tag_749:\n        /* \"#utility.yul\":28485:28573   */\n      tag_750\n        /* \"#utility.yul\":28569:28571   */\n      0x20\n        /* \"#utility.yul\":28558:28567   */\n      dup4\n        /* \"#utility.yul\":28554:28572   */\n      add\n        /* \"#utility.yul\":28545:28551   */\n      dup5\n        /* \"#utility.yul\":28485:28573   */\n      tag_411\n      jump\t// in\n    tag_750:\n        /* \"#utility.yul\":28184:28580   */\n      swap4\n      swap3\n      pop\n      pop\n      pop\n      jump\t// out\n        /* \"#utility.yul\":28586:28830   */\n    tag_472:\n        /* \"#utility.yul\":28726:28760   */\n      0x4f6e6c792077686974656c697374656420766f74657273206172652061757468\n        /* \"#utility.yul\":28722:28723   */\n      0x00\n        /* \"#utility.yul\":28714:28720   */\n      dup3\n        /* \"#utility.yul\":28710:28724   */\n      add\n        /* \"#utility.yul\":28703:28761   */\n      mstore\n        /* \"#utility.yul\":28795:28822   */\n      0x6f72697a656420746f20646f207468697320616374696f6e2e00000000000000\n        /* \"#utility.yul\":28790:28792   */\n      0x20\n        /* \"#utility.yul\":28782:28788   */\n      dup3\n        /* \"#utility.yul\":28778:28793   */\n      add\n        /* \"#utility.yul\":28771:28823   */\n      mstore\n        /* \"#utility.yul\":28586:28830   */\n      pop\n      jump\t// out\n        /* \"#utility.yul\":28836:29202   */\n    tag_473:\n        /* \"#utility.yul\":28978:28981   */\n      0x00\n        /* \"#utility.yul\":28999:29066   */\n      tag_753\n        /* \"#utility.yul\":29063:29065   */\n      0x39\n        /* \"#utility.yul\":29058:29061   */\n      dup4\n        /* \"#utility.yul\":28999:29066   */\n      tag_403\n      jump\t// in\n    tag_753:\n        /* \"#utility.yul\":28992:29066   */\n      swap2\n      pop\n        /* \"#utility.yul\":29075:29168   */\n      tag_754\n        /* \"#utility.yul\":29164:29167   */\n      dup3\n        /* \"#utility.yul\":29075:29168   */\n      tag_472\n      jump\t// in\n    tag_754:\n        /* \"#utility.yul\":29193:29195   */\n      0x40\n        /* \"#utility.yul\":29188:29191   */\n      dup3\n        /* \"#utility.yul\":29184:29196   */\n      add\n        /* \"#utility.yul\":29177:29196   */\n      swap1\n      pop\n        /* \"#utility.yul\":28836:29202   */\n      swap2\n      swap1\n      pop\n      jump\t// out\n        /* \"#utility.yul\":29208:29627   */\n    tag_263:\n        /* \"#utility.yul\":29374:29378   */\n      0x00\n        /* \"#utility.yul\":29412:29414   */\n      0x20\n        /* \"#utility.yul\":29401:29410   */\n      dup3\n        /* \"#utility.yul\":29397:29415   */\n      add\n        /* \"#utility.yul\":29389:29415   */\n      swap1\n      pop\n        /* \"#utility.yul\":29461:29470   */\n      dup2\n        /* \"#utility.yul\":29455:29459   */\n      dup2\n        /* \"#utility.yul\":29451:29471   */\n      sub\n        /* \"#utility.yul\":29447:29448   */\n      0x00\n        /* \"#utility.yul\":29436:29445   */\n      dup4\n        /* \"#utility.yul\":29432:29449   */\n      add\n        /* \"#utility.yul\":29425:29472   */\n      mstore\n        /* \"#utility.yul\":29489:29620   */\n      tag_756\n        /* \"#utility.yul\":29615:29619   */\n      dup2\n        /* \"#utility.yul\":29489:29620   */\n      tag_473\n      jump\t// in\n    tag_756:\n        /* \"#utility.yul\":29481:29620   */\n      swap1\n      pop\n        /* \"#utility.yul\":29208:29627   */\n      swap2\n      swap1\n      pop\n      jump\t// out\n        /* \"#utility.yul\":29633:29815   */\n    tag_474:\n        /* \"#utility.yul\":29773:29807   */\n      0x50726f706f73616c20726567697374726174696f6e20697320636c6f7365642e\n        /* \"#utility.yul\":29769:29770   */\n      0x00\n        /* \"#utility.yul\":29761:29767   */\n      dup3\n        /* \"#utility.yul\":29757:29771   */\n      add\n        /* \"#utility.yul\":29750:29808   */\n      mstore\n        /* \"#utility.yul\":29633:29815   */\n      pop\n      jump\t// out\n        /* \"#utility.yul\":29821:30187   */\n    tag_475:\n        /* \"#utility.yul\":29963:29966   */\n      0x00\n        /* \"#utility.yul\":29984:30051   */\n      tag_759\n        /* \"#utility.yul\":30048:30050   */\n      0x20\n        /* \"#utility.yul\":30043:30046   */\n      dup4\n        /* \"#utility.yul\":29984:30051   */\n      tag_403\n      jump\t// in\n    tag_759:\n        /* \"#utility.yul\":29977:30051   */\n      swap2\n      pop\n        /* \"#utility.yul\":30060:30153   */\n      tag_760\n        /* \"#utility.yul\":30149:30152   */\n      dup3\n        /* \"#utility.yul\":30060:30153   */\n      tag_474\n      jump\t// in\n    tag_760:\n        /* \"#utility.yul\":30178:30180   */\n      0x20\n        /* \"#utility.yul\":30173:30176   */\n      dup3\n        /* \"#utility.yul\":30169:30181   */\n      add\n        /* \"#utility.yul\":30162:30181   */\n      swap1\n      pop\n        /* \"#utility.yul\":29821:30187   */\n      swap2\n      swap1\n      pop\n      jump\t// out\n        /* \"#utility.yul\":30193:30612   */\n    tag_271:\n        /* \"#utility.yul\":30359:30363   */\n      0x00\n        /* \"#utility.yul\":30397:30399   */\n      0x20\n        /* \"#utility.yul\":30386:30395   */\n      dup3\n        /* \"#utility.yul\":30382:30400   */\n      add\n        /* \"#utility.yul\":30374:30400   */\n      swap1\n      pop\n        /* \"#utility.yul\":30446:30455   */\n      dup2\n        /* \"#utility.yul\":30440:30444   */\n      dup2\n        /* \"#utility.yul\":30436:30456   */\n      sub\n        /* \"#utility.yul\":30432:30433   */\n      0x00\n        /* \"#utility.yul\":30421:30430   */\n      dup4\n        /* \"#utility.yul\":30417:30434   */\n      add\n        /* \"#utility.yul\":30410:30457   */\n      mstore\n        /* \"#utility.yul\":30474:30605   */\n      tag_762\n        /* \"#utility.yul\":30600:30604   */\n      dup2\n        /* \"#utility.yul\":30474:30605   */\n      tag_475\n      jump\t// in\n    tag_762:\n        /* \"#utility.yul\":30466:30605   */\n      swap1\n      pop\n        /* \"#utility.yul\":30193:30612   */\n      swap2\n      swap1\n      pop\n      jump\t// out\n        /* \"#utility.yul\":30618:30845   */\n    tag_476:\n        /* \"#utility.yul\":30758:30792   */\n      0x526567697374726174696f6e20706572696f6420666f7220766f746572206973\n        /* \"#utility.yul\":30754:30755   */\n      0x00\n        /* \"#utility.yul\":30746:30752   */\n      dup3\n        /* \"#utility.yul\":30742:30756   */\n      add\n        /* \"#utility.yul\":30735:30793   */\n      mstore\n        /* \"#utility.yul\":30827:30837   */\n      0x20636c6f7365642e000000000000000000000000000000000000000000000000\n        /* \"#utility.yul\":30822:30824   */\n      0x20\n        /* \"#utility.yul\":30814:30820   */\n      dup3\n        /* \"#utility.yul\":30810:30825   */\n      add\n        /* \"#utility.yul\":30803:30838   */\n      mstore\n        /* \"#utility.yul\":30618:30845   */\n      pop\n      jump\t// out\n        /* \"#utility.yul\":30851:31217   */\n    tag_477:\n        /* \"#utility.yul\":30993:30996   */\n      0x00\n        /* \"#utility.yul\":31014:31081   */\n      tag_765\n        /* \"#utility.yul\":31078:31080   */\n      0x28\n        /* \"#utility.yul\":31073:31076   */\n      dup4\n        /* \"#utility.yul\":31014:31081   */\n      tag_403\n      jump\t// in\n    tag_765:\n        /* \"#utility.yul\":31007:31081   */\n      swap2\n      pop\n        /* \"#utility.yul\":31090:31183   */\n      tag_766\n        /* \"#utility.yul\":31179:31182   */\n      dup3\n        /* \"#utility.yul\":31090:31183   */\n      tag_476\n      jump\t// in\n    tag_766:\n        /* \"#utility.yul\":31208:31210   */\n      0x40\n        /* \"#utility.yul\":31203:31206   */\n      dup3\n        /* \"#utility.yul\":31199:31211   */\n      add\n        /* \"#utility.yul\":31192:31211   */\n      swap1\n      pop\n        /* \"#utility.yul\":30851:31217   */\n      swap2\n      swap1\n      pop\n      jump\t// out\n        /* \"#utility.yul\":31223:31642   */\n    tag_279:\n        /* \"#utility.yul\":31389:31393   */\n      0x00\n        /* \"#utility.yul\":31427:31429   */\n      0x20\n        /* \"#utility.yul\":31416:31425   */\n      dup3\n        /* \"#utility.yul\":31412:31430   */\n      add\n        /* \"#utility.yul\":31404:31430   */\n      swap1\n      pop\n        /* \"#utility.yul\":31476:31485   */\n      dup2\n        /* \"#utility.yul\":31470:31474   */\n      dup2\n        /* \"#utility.yul\":31466:31486   */\n      sub\n        /* \"#utility.yul\":31462:31463   */\n      0x00\n        /* \"#utility.yul\":31451:31460   */\n      dup4\n        /* \"#utility.yul\":31447:31464   */\n      add\n        /* \"#utility.yul\":31440:31487   */\n      mstore\n        /* \"#utility.yul\":31504:31635   */\n      tag_768\n        /* \"#utility.yul\":31630:31634   */\n      dup2\n        /* \"#utility.yul\":31504:31635   */\n      tag_477\n      jump\t// in\n    tag_768:\n        /* \"#utility.yul\":31496:31635   */\n      swap1\n      pop\n        /* \"#utility.yul\":31223:31642   */\n      swap2\n      swap1\n      pop\n      jump\t// out\n        /* \"#utility.yul\":31648:31825   */\n    tag_478:\n        /* \"#utility.yul\":31788:31817   */\n      0x566f74657320636f756e74206973206e6f742079657420646f6e650000000000\n        /* \"#utility.yul\":31784:31785   */\n      0x00\n        /* \"#utility.yul\":31776:31782   */\n      dup3\n        /* \"#utility.yul\":31772:31786   */\n      add\n        /* \"#utility.yul\":31765:31818   */\n      mstore\n        /* \"#utility.yul\":31648:31825   */\n      pop\n      jump\t// out\n        /* \"#utility.yul\":31831:32197   */\n    tag_479:\n        /* \"#utility.yul\":31973:31976   */\n      0x00\n        /* \"#utility.yul\":31994:32061   */\n      tag_771\n        /* \"#utility.yul\":32058:32060   */\n      0x1b\n        /* \"#utility.yul\":32053:32056   */\n      dup4\n        /* \"#utility.yul\":31994:32061   */\n      tag_403\n      jump\t// in\n    tag_771:\n        /* \"#utility.yul\":31987:32061   */\n      swap2\n      pop\n        /* \"#utility.yul\":32070:32163   */\n      tag_772\n        /* \"#utility.yul\":32159:32162   */\n      dup3\n        /* \"#utility.yul\":32070:32163   */\n      tag_478\n      jump\t// in\n    tag_772:\n        /* \"#utility.yul\":32188:32190   */\n      0x20\n        /* \"#utility.yul\":32183:32186   */\n      dup3\n        /* \"#utility.yul\":32179:32191   */\n      add\n        /* \"#utility.yul\":32172:32191   */\n      swap1\n      pop\n        /* \"#utility.yul\":31831:32197   */\n      swap2\n      swap1\n      pop\n      jump\t// out\n        /* \"#utility.yul\":32203:32622   */\n    tag_288:\n        /* \"#utility.yul\":32369:32373   */\n      0x00\n        /* \"#utility.yul\":32407:32409   */\n      0x20\n        /* \"#utility.yul\":32396:32405   */\n      dup3\n        /* \"#utility.yul\":32392:32410   */\n      add\n        /* \"#utility.yul\":32384:32410   */\n      swap1\n      pop\n        /* \"#utility.yul\":32456:32465   */\n      dup2\n        /* \"#utility.yul\":32450:32454   */\n      dup2\n        /* \"#utility.yul\":32446:32466   */\n      sub\n        /* \"#utility.yul\":32442:32443   */\n      0x00\n        /* \"#utility.yul\":32431:32440   */\n      dup4\n        /* \"#utility.yul\":32427:32444   */\n      add\n        /* \"#utility.yul\":32420:32467   */\n      mstore\n        /* \"#utility.yul\":32484:32615   */\n      tag_774\n        /* \"#utility.yul\":32610:32614   */\n      dup2\n        /* \"#utility.yul\":32484:32615   */\n      tag_479\n      jump\t// in\n    tag_774:\n        /* \"#utility.yul\":32476:32615   */\n      swap1\n      pop\n        /* \"#utility.yul\":32203:32622   */\n      swap2\n      swap1\n      pop\n      jump\t// out\n        /* \"#utility.yul\":32628:32803   */\n    tag_480:\n        /* \"#utility.yul\":32768:32795   */\n      0x566f74696e672073657373696f6e20697320636c6f7365642e00000000000000\n        /* \"#utility.yul\":32764:32765   */\n      0x00\n        /* \"#utility.yul\":32756:32762   */\n      dup3\n        /* \"#utility.yul\":32752:32766   */\n      add\n        /* \"#utility.yul\":32745:32796   */\n      mstore\n        /* \"#utility.yul\":32628:32803   */\n      pop\n      jump\t// out\n        /* \"#utility.yul\":32809:33175   */\n    tag_481:\n        /* \"#utility.yul\":32951:32954   */\n      0x00\n        /* \"#utility.yul\":32972:33039   */\n      tag_777\n        /* \"#utility.yul\":33036:33038   */\n      0x19\n        /* \"#utility.yul\":33031:33034   */\n      dup4\n        /* \"#utility.yul\":32972:33039   */\n      tag_403\n      jump\t// in\n    tag_777:\n        /* \"#utility.yul\":32965:33039   */\n      swap2\n      pop\n        /* \"#utility.yul\":33048:33141   */\n      tag_778\n        /* \"#utility.yul\":33137:33140   */\n      dup3\n        /* \"#utility.yul\":33048:33141   */\n      tag_480\n      jump\t// in\n    tag_778:\n        /* \"#utility.yul\":33166:33168   */\n      0x20\n        /* \"#utility.yul\":33161:33164   */\n      dup3\n        /* \"#utility.yul\":33157:33169   */\n      add\n        /* \"#utility.yul\":33150:33169   */\n      swap1\n      pop\n        /* \"#utility.yul\":32809:33175   */\n      swap2\n      swap1\n      pop\n      jump\t// out\n        /* \"#utility.yul\":33181:33600   */\n    tag_296:\n        /* \"#utility.yul\":33347:33351   */\n      0x00\n        /* \"#utility.yul\":33385:33387   */\n      0x20\n        /* \"#utility.yul\":33374:33383   */\n      dup3\n        /* \"#utility.yul\":33370:33388   */\n      add\n        /* \"#utility.yul\":33362:33388   */\n      swap1\n      pop\n        /* \"#utility.yul\":33434:33443   */\n      dup2\n        /* \"#utility.yul\":33428:33432   */\n      dup2\n        /* \"#utility.yul\":33424:33444   */\n      sub\n        /* \"#utility.yul\":33420:33421   */\n      0x00\n        /* \"#utility.yul\":33409:33418   */\n      dup4\n        /* \"#utility.yul\":33405:33422   */\n      add\n        /* \"#utility.yul\":33398:33445   */\n      mstore\n        /* \"#utility.yul\":33462:33593   */\n      tag_780\n        /* \"#utility.yul\":33588:33592   */\n      dup2\n        /* \"#utility.yul\":33462:33593   */\n      tag_481\n      jump\t// in\n    tag_780:\n        /* \"#utility.yul\":33454:33593   */\n      swap1\n      pop\n        /* \"#utility.yul\":33181:33600   */\n      swap2\n      swap1\n      pop\n      jump\t// out\n        /* \"#utility.yul\":33606:33912   */\n    tag_482:\n        /* \"#utility.yul\":33746:33780   */\n      0x41637475616c20737461747573206973206e6f7420636f6d70617469626c6520\n        /* \"#utility.yul\":33742:33743   */\n      0x00\n        /* \"#utility.yul\":33734:33740   */\n      dup3\n        /* \"#utility.yul\":33730:33744   */\n      add\n        /* \"#utility.yul\":33723:33781   */\n      mstore\n        /* \"#utility.yul\":33815:33849   */\n      0x7769746820796f75722063686f696365202863686f6f73652070726576696f75\n        /* \"#utility.yul\":33810:33812   */\n      0x20\n        /* \"#utility.yul\":33802:33808   */\n      dup3\n        /* \"#utility.yul\":33798:33813   */\n      add\n        /* \"#utility.yul\":33791:33850   */\n      mstore\n        /* \"#utility.yul\":33884:33904   */\n      0x73206f6e65206f72206e657874206f6e65290000000000000000000000000000\n        /* \"#utility.yul\":33879:33881   */\n      0x40\n        /* \"#utility.yul\":33871:33877   */\n      dup3\n        /* \"#utility.yul\":33867:33882   */\n      add\n        /* \"#utility.yul\":33860:33905   */\n      mstore\n        /* \"#utility.yul\":33606:33912   */\n      pop\n      jump\t// out\n        /* \"#utility.yul\":33918:34284   */\n    tag_483:\n        /* \"#utility.yul\":34060:34063   */\n      0x00\n        /* \"#utility.yul\":34081:34148   */\n      tag_783\n        /* \"#utility.yul\":34145:34147   */\n      0x52\n        /* \"#utility.yul\":34140:34143   */\n      dup4\n        /* \"#utility.yul\":34081:34148   */\n      tag_403\n      jump\t// in\n    tag_783:\n        /* \"#utility.yul\":34074:34148   */\n      swap2\n      pop\n        /* \"#utility.yul\":34157:34250   */\n      tag_784\n        /* \"#utility.yul\":34246:34249   */\n      dup3\n        /* \"#utility.yul\":34157:34250   */\n      tag_482\n      jump\t// in\n    tag_784:\n        /* \"#utility.yul\":34275:34277   */\n      0x60\n        /* \"#utility.yul\":34270:34273   */\n      dup3\n        /* \"#utility.yul\":34266:34278   */\n      add\n        /* \"#utility.yul\":34259:34278   */\n      swap1\n      pop\n        /* \"#utility.yul\":33918:34284   */\n      swap2\n      swap1\n      pop\n      jump\t// out\n        /* \"#utility.yul\":34290:34709   */\n    tag_315:\n        /* \"#utility.yul\":34456:34460   */\n      0x00\n        /* \"#utility.yul\":34494:34496   */\n      0x20\n        /* \"#utility.yul\":34483:34492   */\n      dup3\n        /* \"#utility.yul\":34479:34497   */\n      add\n        /* \"#utility.yul\":34471:34497   */\n      swap1\n      pop\n        /* \"#utility.yul\":34543:34552   */\n      dup2\n        /* \"#utility.yul\":34537:34541   */\n      dup2\n        /* \"#utility.yul\":34533:34553   */\n      sub\n        /* \"#utility.yul\":34529:34530   */\n      0x00\n        /* \"#utility.yul\":34518:34527   */\n      dup4\n        /* \"#utility.yul\":34514:34531   */\n      add\n        /* \"#utility.yul\":34507:34554   */\n      mstore\n        /* \"#utility.yul\":34571:34702   */\n      tag_786\n        /* \"#utility.yul\":34697:34701   */\n      dup2\n        /* \"#utility.yul\":34571:34702   */\n      tag_483\n      jump\t// in\n    tag_786:\n        /* \"#utility.yul\":34563:34702   */\n      swap1\n      pop\n        /* \"#utility.yul\":34290:34709   */\n      swap2\n      swap1\n      pop\n      jump\t// out\n\n    auxdata: 0xa264697066735822122017ae12f7e09cf78d68a4e1e9359e8f1801b9435d04ca37a38ac5a41fb86223f364736f6c63430008120033\n}\n",
				"bytecode": {
					"linkReferences": {},
					"object": "60806040523480156200001157600080fd5b5062000032620000266200003860201b60201c565b6200004060201b60201c565b62000104565b600033905090565b60008060009054906101000a900473ffffffffffffffffffffffffffffffffffffffff169050816000806101000a81548173ffffffffffffffffffffffffffffffffffffffff021916908373ffffffffffffffffffffffffffffffffffffffff1602179055508173ffffffffffffffffffffffffffffffffffffffff168173ffffffffffffffffffffffffffffffffffffffff167f8be0079c531659141344cd1fd0a4f28419497f9722a3daafe3b4186f6b6457e060405160405180910390a35050565b612a6a80620001146000396000f3fe608060405234801561001057600080fd5b50600436106101165760003560e01c8063715018a6116100a2578063b11accff11610071578063b11accff14610224578063b741bb7c14610242578063d55ec9c114610272578063f2fde38b1461028e578063fd4a77f1146102aa57610116565b8063715018a6146101e85780637b3d7042146101f25780637f320070146101fc5780638da5cb5b1461020657610116565b8063200d2ed2116100e9578063200d2ed21461016a5780632f95355b1461018857806338db6dd3146101a457806362564c48146101c05780636f475856146101de57610116565b8063013cf08b1461011b5780630c491a3a1461014c57806311f80b4f146101565780631bcb1eed14610160575b600080fd5b61013560048036038101906101309190611896565b6102c6565b604051610143929190611962565b60405180910390f35b610154610382565b005b61015e61042a565b005b610168610436565b005b610172610442565b60405161017f9190611a09565b60405180910390f35b6101a2600480360381019061019d9190611b59565b610455565b005b6101be60048036038101906101b99190611c00565b610513565b005b6101c861064d565b6040516101d59190611d85565b60405180910390f35b6101e6610748565b005b6101f0610754565b005b6101fa610768565b005b610204610774565b005b61020e610780565b60405161021b9190611db6565b60405180910390f35b61022c6107a9565b6040516102399190611e0e565b60405180910390f35b61025c60048036038101906102579190611c00565b610889565b6040516102699190611e30565b60405180910390f35b61028c60048036038101906102879190611f1a565b610a19565b005b6102a860048036038101906102a39190611c00565b610b8a565b005b6102c460048036038101906102bf9190611896565b610c0d565b005b600281815481106102d657600080fd5b90600052602060002090600202016000915090508060000180546102f990611f92565b80601f016020809104026020016040519081016040528092919081815260200182805461032590611f92565b80156103725780601f1061034757610100808354040283529160200191610372565b820191906000526020600020905b81548152906001019060200180831161035557829003601f168201915b5050505050908060010154905082565b61038a610e0c565b610392610e8a565b60008080600090505b6002805490508110156104145782600282815481106103bd576103bc611fc3565b5b906000526020600020906002020160010154111561040157600281815481106103e9576103e8611fc3565b5b90600052602060002090600202016001015492508091505b808061040c90612021565b91505061039b565b50806004819055506104266005610f02565b5050565b6104346000610f02565b565b6104406003610f02565b565b600360009054906101000a900460ff1681565b61045d610f90565b610465611065565b600260405180604001604052808381526020016000815250908060018154018082558091505060019003906000526020600020906002020160009091909190915060008201518160000190816104bb9190612215565b506020820151816001015550507f92e393e9b54e2f801d3ea4beb0c5e71a21cc34a5d34b77d0fb8a3aa1650dc18f60016002805490506104fb91906122e7565b604051610508919061231b565b60405180910390a150565b61051b610e0c565b6105236110dd565b60001515600160008373ffffffffffffffffffffffffffffffffffffffff1673ffffffffffffffffffffffffffffffffffffffff16815260200190815260200160002060000160009054906101000a900460ff161515146105b9576040517f08c379a00000000000000000000000000000000000000000000000000000000081526004016105b090612382565b60405180910390fd5b60018060008373ffffffffffffffffffffffffffffffffffffffff1673ffffffffffffffffffffffffffffffffffffffff16815260200190815260200160002060000160006101000a81548160ff0219169083151502179055507fb6be2187d059cc2a55fe29e0e503b566e1e0f8c8780096e185429350acffd3dd816040516106429190611db6565b60405180910390a150565b60606002805480602002602001604051908101604052809291908181526020016000905b8282101561073f57838290600052602060002090600202016040518060400160405290816000820180546106a490611f92565b80601f01602080910402602001604051908101604052809291908181526020018280546106d090611f92565b801561071d5780601f106106f25761010080835404028352916020019161071d565b820191906000526020600020905b81548152906001019060200180831161070057829003601f168201915b5050505050815260200160018201548152505081526020019060010190610671565b50505050905090565b6107526002610f02565b565b61075c610e0c565b6107666000611155565b565b6107726001610f02565b565b61077e6004610f02565b565b60008060009054906101000a900473ffffffffffffffffffffffffffffffffffffffff16905090565b6107b1611832565b6107b9611219565b6002600454815481106107cf576107ce611fc3565b5b90600052602060002090600202016040518060400160405290816000820180546107f890611f92565b80601f016020809104026020016040519081016040528092919081815260200182805461082490611f92565b80156108715780601f1061084657610100808354040283529160200191610871565b820191906000526020600020905b81548152906001019060200180831161085457829003601f168201915b50505050508152602001600182015481525050905090565b6060610893610f90565b600160008373ffffffffffffffffffffffffffffffffffffffff1673ffffffffffffffffffffffffffffffffffffffff16815260200190815260200160002060000160019054906101000a900460ff16610922576040517f08c379a0000000000000000000000000000000000000000000000000000000008152600401610919906123ee565b60405180910390fd5b6002600160008473ffffffffffffffffffffffffffffffffffffffff1673ffffffffffffffffffffffffffffffffffffffff168152602001908152602001600020600101548154811061097857610977611fc3565b5b9060005260206000209060020201600001805461099490611f92565b80601f01602080910402602001604051908101604052809291908181526020018280546109c090611f92565b8015610a0d5780601f106109e257610100808354040283529160200191610a0d565b820191906000526020600020905b8154815290600101906020018083116109f057829003601f168201915b50505050509050919050565b610a21610e0c565b610a296110dd565b60005b8151811015610b86576001806000848481518110610a4d57610a4c611fc3565b5b602002602001015173ffffffffffffffffffffffffffffffffffffffff1673ffffffffffffffffffffffffffffffffffffffff16815260200190815260200160002060000160006101000a81548160ff021916908315150217905515610b73576001806000848481518110610ac557610ac4611fc3565b5b602002602001015173ffffffffffffffffffffffffffffffffffffffff1673ffffffffffffffffffffffffffffffffffffffff16815260200190815260200160002060000160006101000a81548160ff0219169083151502179055507fb6be2187d059cc2a55fe29e0e503b566e1e0f8c8780096e185429350acffd3dd828281518110610b5557610b54611fc3565b5b6020026020010151604051610b6a9190611db6565b60405180910390a15b8080610b7e90612021565b915050610a2c565b5050565b610b92610e0c565b600073ffffffffffffffffffffffffffffffffffffffff168173ffffffffffffffffffffffffffffffffffffffff1603610c01576040517f08c379a0000000000000000000000000000000000000000000000000000000008152600401610bf890612480565b60405180910390fd5b610c0a81611155565b50565b610c15611290565b610c1d610f90565b600160003373ffffffffffffffffffffffffffffffffffffffff1673ffffffffffffffffffffffffffffffffffffffff16815260200190815260200160002060000160019054906101000a900460ff1615610cad576040517f08c379a0000000000000000000000000000000000000000000000000000000008152600401610ca490612512565b60405180910390fd5b6002805490508110610cf4576040517f08c379a0000000000000000000000000000000000000000000000000000000008152600401610ceb906125a4565b60405180910390fd5b60028181548110610d0857610d07611fc3565b5b90600052602060002090600202016001016000815480929190610d2a90612021565b919050555080600160003373ffffffffffffffffffffffffffffffffffffffff1673ffffffffffffffffffffffffffffffffffffffff1681526020019081526020016000206001018190555060018060003373ffffffffffffffffffffffffffffffffffffffff1673ffffffffffffffffffffffffffffffffffffffff16815260200190815260200160002060000160016101000a81548160ff0219169083151502179055507f4d99b957a2bc29a30ebd96a7be8e68fe50a3c701db28a91436490b7d53870ca43382604051610e019291906125c4565b60405180910390a150565b610e14611308565b73ffffffffffffffffffffffffffffffffffffffff16610e32610780565b73ffffffffffffffffffffffffffffffffffffffff1614610e88576040517f08c379a0000000000000000000000000000000000000000000000000000000008152600401610e7f90612639565b60405180910390fd5b565b60046005811115610e9e57610e9d611992565b5b600360009054906101000a900460ff166005811115610ec057610ebf611992565b5b14610f00576040517f08c379a0000000000000000000000000000000000000000000000000000000008152600401610ef7906126cb565b60405180910390fd5b565b610f0a610e0c565b80610f1481611310565b6000600360009054906101000a900460ff16905082600360006101000a81548160ff02191690836005811115610f4d57610f4c611992565b5b02179055507f0a97a4ee45751e2abf3e4fc8946939630b11b371ea8ae39ccdc3056e98f5cc3f8184604051610f839291906126eb565b60405180910390a1505050565b60011515600160003373ffffffffffffffffffffffffffffffffffffffff1673ffffffffffffffffffffffffffffffffffffffff16815260200190815260200160002060000160009054906101000a900460ff161515148061102457503373ffffffffffffffffffffffffffffffffffffffff1661100c610780565b73ffffffffffffffffffffffffffffffffffffffff16145b611063576040517f08c379a000000000000000000000000000000000000000000000000000000000815260040161105a90612786565b60405180910390fd5b565b6001600581111561107957611078611992565b5b600360009054906101000a900460ff16600581111561109b5761109a611992565b5b146110db576040517f08c379a00000000000000000000000000000000000000000000000000000000081526004016110d2906127f2565b60405180910390fd5b565b600060058111156110f1576110f0611992565b5b600360009054906101000a900460ff16600581111561111357611112611992565b5b14611153576040517f08c379a000000000000000000000000000000000000000000000000000000000815260040161114a90612884565b60405180910390fd5b565b60008060009054906101000a900473ffffffffffffffffffffffffffffffffffffffff169050816000806101000a81548173ffffffffffffffffffffffffffffffffffffffff021916908373ffffffffffffffffffffffffffffffffffffffff1602179055508173ffffffffffffffffffffffffffffffffffffffff168173ffffffffffffffffffffffffffffffffffffffff167f8be0079c531659141344cd1fd0a4f28419497f9722a3daafe3b4186f6b6457e060405160405180910390a35050565b60058081111561122c5761122b611992565b5b600360009054906101000a900460ff16600581111561124e5761124d611992565b5b1461128e576040517f08c379a0000000000000000000000000000000000000000000000000000000008152600401611285906128f0565b60405180910390fd5b565b600360058111156112a4576112a3611992565b5b600360009054906101000a900460ff1660058111156112c6576112c5611992565b5b14611306576040517f08c379a00000000000000000000000000000000000000000000000000000000081526004016112fd9061295c565b60405180910390fd5b565b600033905090565b6000600581111561132457611323611992565b5b81600581111561133757611336611992565b5b036113f557600060058111156113505761134f611992565b5b600360009054906101000a900460ff16600581111561137257611371611992565b5b14806113b157506001600581111561138d5761138c611992565b5b600360009054906101000a900460ff1660058111156113af576113ae611992565b5b145b6113f0576040517f08c379a00000000000000000000000000000000000000000000000000000000081526004016113e790612a14565b60405180910390fd5b61182f565b6001600581111561140957611408611992565b5b81600581111561141c5761141b611992565b5b036114da576000600581111561143557611434611992565b5b600360009054906101000a900460ff16600581111561145757611456611992565b5b148061149657506002600581111561147257611471611992565b5b600360009054906101000a900460ff16600581111561149457611493611992565b5b145b6114d5576040517f08c379a00000000000000000000000000000000000000000000000000000000081526004016114cc90612a14565b60405180910390fd5b61182e565b600260058111156114ee576114ed611992565b5b81600581111561150157611500611992565b5b036115bf576001600581111561151a57611519611992565b5b600360009054906101000a900460ff16600581111561153c5761153b611992565b5b148061157b57506003600581111561155757611556611992565b5b600360009054906101000a900460ff16600581111561157957611578611992565b5b145b6115ba576040517f08c379a00000000000000000000000000000000000000000000000000000000081526004016115b190612a14565b60405180910390fd5b61182d565b600360058111156115d3576115d2611992565b5b8160058111156115e6576115e5611992565b5b036116a457600260058111156115ff576115fe611992565b5b600360009054906101000a900460ff16600581111561162157611620611992565b5b148061166057506004600581111561163c5761163b611992565b5b600360009054906101000a900460ff16600581111561165e5761165d611992565b5b145b61169f576040517f08c379a000000000000000000000000000000000000000000000000000000000815260040161169690612a14565b60405180910390fd5b61182c565b600460058111156116b8576116b7611992565b5b8160058111156116cb576116ca611992565b5b0361178857600360058111156116e4576116e3611992565b5b600360009054906101000a900460ff16600581111561170657611705611992565b5b148061174457506005808111156117205761171f611992565b5b600360009054906101000a900460ff16600581111561174257611741611992565b5b145b611783576040517f08c379a000000000000000000000000000000000000000000000000000000000815260040161177a90612a14565b60405180910390fd5b61182b565b60058081111561179b5761179a611992565b5b8160058111156117ae576117ad611992565b5b0361182a57600460058111156117c7576117c6611992565b5b600360009054906101000a900460ff1660058111156117e9576117e8611992565b5b14611829576040517f08c379a000000000000000000000000000000000000000000000000000000000815260040161182090612a14565b60405180910390fd5b5b5b5b5b5b5b50565b604051806040016040528060608152602001600081525090565b6000604051905090565b600080fd5b600080fd5b6000819050919050565b61187381611860565b811461187e57600080fd5b50565b6000813590506118908161186a565b92915050565b6000602082840312156118ac576118ab611856565b5b60006118ba84828501611881565b91505092915050565b600081519050919050565b600082825260208201905092915050565b60005b838110156118fd5780820151818401526020810190506118e2565b60008484015250505050565b6000601f19601f8301169050919050565b6000611925826118c3565b61192f81856118ce565b935061193f8185602086016118df565b61194881611909565b840191505092915050565b61195c81611860565b82525050565b6000604082019050818103600083015261197c818561191a565b905061198b6020830184611953565b9392505050565b7f4e487b7100000000000000000000000000000000000000000000000000000000600052602160045260246000fd5b600681106119d2576119d1611992565b5b50565b60008190506119e3826119c1565b919050565b60006119f3826119d5565b9050919050565b611a03816119e8565b82525050565b6000602082019050611a1e60008301846119fa565b92915050565b600080fd5b600080fd5b7f4e487b7100000000000000000000000000000000000000000000000000000000600052604160045260246000fd5b611a6682611909565b810181811067ffffffffffffffff82111715611a8557611a84611a2e565b5b80604052505050565b6000611a9861184c565b9050611aa48282611a5d565b919050565b600067ffffffffffffffff821115611ac457611ac3611a2e565b5b611acd82611909565b9050602081019050919050565b82818337600083830152505050565b6000611afc611af784611aa9565b611a8e565b905082815260208101848484011115611b1857611b17611a29565b5b611b23848285611ada565b509392505050565b600082601f830112611b4057611b3f611a24565b5b8135611b50848260208601611ae9565b91505092915050565b600060208284031215611b6f57611b6e611856565b5b600082013567ffffffffffffffff811115611b8d57611b8c61185b565b5b611b9984828501611b2b565b91505092915050565b600073ffffffffffffffffffffffffffffffffffffffff82169050919050565b6000611bcd82611ba2565b9050919050565b611bdd81611bc2565b8114611be857600080fd5b50565b600081359050611bfa81611bd4565b92915050565b600060208284031215611c1657611c15611856565b5b6000611c2484828501611beb565b91505092915050565b600081519050919050565b600082825260208201905092915050565b6000819050602082019050919050565b600082825260208201905092915050565b6000611c75826118c3565b611c7f8185611c59565b9350611c8f8185602086016118df565b611c9881611909565b840191505092915050565b611cac81611860565b82525050565b60006040830160008301518482036000860152611ccf8282611c6a565b9150506020830151611ce46020860182611ca3565b508091505092915050565b6000611cfb8383611cb2565b905092915050565b6000602082019050919050565b6000611d1b82611c2d565b611d258185611c38565b935083602082028501611d3785611c49565b8060005b85811015611d735784840389528151611d548582611cef565b9450611d5f83611d03565b925060208a01995050600181019050611d3b565b50829750879550505050505092915050565b60006020820190508181036000830152611d9f8184611d10565b905092915050565b611db081611bc2565b82525050565b6000602082019050611dcb6000830184611da7565b92915050565b60006040830160008301518482036000860152611dee8282611c6a565b9150506020830151611e036020860182611ca3565b508091505092915050565b60006020820190508181036000830152611e288184611dd1565b905092915050565b60006020820190508181036000830152611e4a818461191a565b905092915050565b600067ffffffffffffffff821115611e6d57611e6c611a2e565b5b602082029050602081019050919050565b600080fd5b6000611e96611e9184611e52565b611a8e565b90508083825260208201905060208402830185811115611eb957611eb8611e7e565b5b835b81811015611ee25780611ece8882611beb565b845260208401935050602081019050611ebb565b5050509392505050565b600082601f830112611f0157611f00611a24565b5b8135611f11848260208601611e83565b91505092915050565b600060208284031215611f3057611f2f611856565b5b600082013567ffffffffffffffff811115611f4e57611f4d61185b565b5b611f5a84828501611eec565b91505092915050565b7f4e487b7100000000000000000000000000000000000000000000000000000000600052602260045260246000fd5b60006002820490506001821680611faa57607f821691505b602082108103611fbd57611fbc611f63565b5b50919050565b7f4e487b7100000000000000000000000000000000000000000000000000000000600052603260045260246000fd5b7f4e487b7100000000000000000000000000000000000000000000000000000000600052601160045260246000fd5b600061202c82611860565b91507fffffffffffffffffffffffffffffffffffffffffffffffffffffffffffffffff820361205e5761205d611ff2565b5b600182019050919050565b60008190508160005260206000209050919050565b60006020601f8301049050919050565b600082821b905092915050565b6000600883026120cb7fffffffffffffffffffffffffffffffffffffffffffffffffffffffffffffffff8261208e565b6120d5868361208e565b95508019841693508086168417925050509392505050565b6000819050919050565b600061211261210d61210884611860565b6120ed565b611860565b9050919050565b6000819050919050565b61212c836120f7565b61214061213882612119565b84845461209b565b825550505050565b600090565b612155612148565b612160818484612123565b505050565b5b818110156121845761217960008261214d565b600181019050612166565b5050565b601f8211156121c95761219a81612069565b6121a38461207e565b810160208510156121b2578190505b6121c66121be8561207e565b830182612165565b50505b505050565b600082821c905092915050565b60006121ec600019846008026121ce565b1980831691505092915050565b600061220583836121db565b9150826002028217905092915050565b61221e826118c3565b67ffffffffffffffff81111561223757612236611a2e565b5b6122418254611f92565b61224c828285612188565b600060209050601f83116001811461227f576000841561226d578287015190505b61227785826121f9565b8655506122df565b601f19841661228d86612069565b60005b828110156122b557848901518255600182019150602085019450602081019050612290565b868310156122d257848901516122ce601f8916826121db565b8355505b6001600288020188555050505b505050505050565b60006122f282611860565b91506122fd83611860565b925082820390508181111561231557612314611ff2565b5b92915050565b60006020820190506123306000830184611953565b92915050565b7f566f74657220697320616c72656164792077686974656c697374656400000000600082015250565b600061236c601c836118ce565b915061237782612336565b602082019050919050565b6000602082019050818103600083015261239b8161235f565b9050919050565b7f546869732075736572206469646e277420766f74650000000000000000000000600082015250565b60006123d86015836118ce565b91506123e3826123a2565b602082019050919050565b60006020820190508181036000830152612407816123cb565b9050919050565b7f4f776e61626c653a206e6577206f776e657220697320746865207a65726f206160008201527f6464726573730000000000000000000000000000000000000000000000000000602082015250565b600061246a6026836118ce565b91506124758261240e565b604082019050919050565b600060208201905081810360008301526124998161245d565b9050919050565b7f596f75206861766520616c726561647920766f7465642e204f6e6c79206f6e6560008201527f20766f746520697320616c6c6f77656400000000000000000000000000000000602082015250565b60006124fc6030836118ce565b9150612507826124a0565b604082019050919050565b6000602082019050818103600083015261252b816124ef565b9050919050565b7f50726f706f73616c20496420646f65736e27742065786973742e20506c65617360008201527f652073656c65637420612076616c69642070726f706f73616c20496400000000602082015250565b600061258e603c836118ce565b915061259982612532565b604082019050919050565b600060208201905081810360008301526125bd81612581565b9050919050565b60006040820190506125d96000830185611da7565b6125e66020830184611953565b9392505050565b7f4f776e61626c653a2063616c6c6572206973206e6f7420746865206f776e6572600082015250565b60006126236020836118ce565b915061262e826125ed565b602082019050919050565b6000602082019050818103600083015261265281612616565b9050919050565b7f566f74696e67206973206e6f7420636c6f736564206f7220766f74657320636f60008201527f756e7420697320616c726561647920646f6e6500000000000000000000000000602082015250565b60006126b56033836118ce565b91506126c082612659565b604082019050919050565b600060208201905081810360008301526126e4816126a8565b9050919050565b600060408201905061270060008301856119fa565b61270d60208301846119fa565b9392505050565b7f4f6e6c792077686974656c697374656420766f7465727320617265206175746860008201527f6f72697a656420746f20646f207468697320616374696f6e2e00000000000000602082015250565b60006127706039836118ce565b915061277b82612714565b604082019050919050565b6000602082019050818103600083015261279f81612763565b9050919050565b7f50726f706f73616c20726567697374726174696f6e20697320636c6f7365642e600082015250565b60006127dc6020836118ce565b91506127e7826127a6565b602082019050919050565b6000602082019050818103600083015261280b816127cf565b9050919050565b7f526567697374726174696f6e20706572696f6420666f7220766f74657220697360008201527f20636c6f7365642e000000000000000000000000000000000000000000000000602082015250565b600061286e6028836118ce565b915061287982612812565b604082019050919050565b6000602082019050818103600083015261289d81612861565b9050919050565b7f566f74657320636f756e74206973206e6f742079657420646f6e650000000000600082015250565b60006128da601b836118ce565b91506128e5826128a4565b602082019050919050565b60006020820190508181036000830152612909816128cd565b9050919050565b7f566f74696e672073657373696f6e20697320636c6f7365642e00000000000000600082015250565b60006129466019836118ce565b915061295182612910565b602082019050919050565b6000602082019050818103600083015261297581612939565b9050919050565b7f41637475616c20737461747573206973206e6f7420636f6d70617469626c652060008201527f7769746820796f75722063686f696365202863686f6f73652070726576696f7560208201527f73206f6e65206f72206e657874206f6e65290000000000000000000000000000604082015250565b60006129fe6052836118ce565b9150612a098261297c565b606082019050919050565b60006020820190508181036000830152612a2d816129f1565b905091905056fea264697066735822122017ae12f7e09cf78d68a4e1e9359e8f1801b9435d04ca37a38ac5a41fb86223f364736f6c63430008120033",
					"opcodes": "PUSH1 0x80 PUSH1 0x40 MSTORE CALLVALUE DUP1 ISZERO PUSH3 0x11 JUMPI PUSH1 0x0 DUP1 REVERT JUMPDEST POP PUSH3 0x32 PUSH3 0x26 PUSH3 0x38 PUSH1 0x20 SHL PUSH1 0x20 SHR JUMP JUMPDEST PUSH3 0x40 PUSH1 0x20 SHL PUSH1 0x20 SHR JUMP JUMPDEST PUSH3 0x104 JUMP JUMPDEST PUSH1 0x0 CALLER SWAP1 POP SWAP1 JUMP JUMPDEST PUSH1 0x0 DUP1 PUSH1 0x0 SWAP1 SLOAD SWAP1 PUSH2 0x100 EXP SWAP1 DIV PUSH20 0xFFFFFFFFFFFFFFFFFFFFFFFFFFFFFFFFFFFFFFFF AND SWAP1 POP DUP2 PUSH1 0x0 DUP1 PUSH2 0x100 EXP DUP2 SLOAD DUP2 PUSH20 0xFFFFFFFFFFFFFFFFFFFFFFFFFFFFFFFFFFFFFFFF MUL NOT AND SWAP1 DUP4 PUSH20 0xFFFFFFFFFFFFFFFFFFFFFFFFFFFFFFFFFFFFFFFF AND MUL OR SWAP1 SSTORE POP DUP2 PUSH20 0xFFFFFFFFFFFFFFFFFFFFFFFFFFFFFFFFFFFFFFFF AND DUP2 PUSH20 0xFFFFFFFFFFFFFFFFFFFFFFFFFFFFFFFFFFFFFFFF AND PUSH32 0x8BE0079C531659141344CD1FD0A4F28419497F9722A3DAAFE3B4186F6B6457E0 PUSH1 0x40 MLOAD PUSH1 0x40 MLOAD DUP1 SWAP2 SUB SWAP1 LOG3 POP POP JUMP JUMPDEST PUSH2 0x2A6A DUP1 PUSH3 0x114 PUSH1 0x0 CODECOPY PUSH1 0x0 RETURN INVALID PUSH1 0x80 PUSH1 0x40 MSTORE CALLVALUE DUP1 ISZERO PUSH2 0x10 JUMPI PUSH1 0x0 DUP1 REVERT JUMPDEST POP PUSH1 0x4 CALLDATASIZE LT PUSH2 0x116 JUMPI PUSH1 0x0 CALLDATALOAD PUSH1 0xE0 SHR DUP1 PUSH4 0x715018A6 GT PUSH2 0xA2 JUMPI DUP1 PUSH4 0xB11ACCFF GT PUSH2 0x71 JUMPI DUP1 PUSH4 0xB11ACCFF EQ PUSH2 0x224 JUMPI DUP1 PUSH4 0xB741BB7C EQ PUSH2 0x242 JUMPI DUP1 PUSH4 0xD55EC9C1 EQ PUSH2 0x272 JUMPI DUP1 PUSH4 0xF2FDE38B EQ PUSH2 0x28E JUMPI DUP1 PUSH4 0xFD4A77F1 EQ PUSH2 0x2AA JUMPI PUSH2 0x116 JUMP JUMPDEST DUP1 PUSH4 0x715018A6 EQ PUSH2 0x1E8 JUMPI DUP1 PUSH4 0x7B3D7042 EQ PUSH2 0x1F2 JUMPI DUP1 PUSH4 0x7F320070 EQ PUSH2 0x1FC JUMPI DUP1 PUSH4 0x8DA5CB5B EQ PUSH2 0x206 JUMPI PUSH2 0x116 JUMP JUMPDEST DUP1 PUSH4 0x200D2ED2 GT PUSH2 0xE9 JUMPI DUP1 PUSH4 0x200D2ED2 EQ PUSH2 0x16A JUMPI DUP1 PUSH4 0x2F95355B EQ PUSH2 0x188 JUMPI DUP1 PUSH4 0x38DB6DD3 EQ PUSH2 0x1A4 JUMPI DUP1 PUSH4 0x62564C48 EQ PUSH2 0x1C0 JUMPI DUP1 PUSH4 0x6F475856 EQ PUSH2 0x1DE JUMPI PUSH2 0x116 JUMP JUMPDEST DUP1 PUSH4 0x13CF08B EQ PUSH2 0x11B JUMPI DUP1 PUSH4 0xC491A3A EQ PUSH2 0x14C JUMPI DUP1 PUSH4 0x11F80B4F EQ PUSH2 0x156 JUMPI DUP1 PUSH4 0x1BCB1EED EQ PUSH2 0x160 JUMPI JUMPDEST PUSH1 0x0 DUP1 REVERT JUMPDEST PUSH2 0x135 PUSH1 0x4 DUP1 CALLDATASIZE SUB DUP2 ADD SWAP1 PUSH2 0x130 SWAP2 SWAP1 PUSH2 0x1896 JUMP JUMPDEST PUSH2 0x2C6 JUMP JUMPDEST PUSH1 0x40 MLOAD PUSH2 0x143 SWAP3 SWAP2 SWAP1 PUSH2 0x1962 JUMP JUMPDEST PUSH1 0x40 MLOAD DUP1 SWAP2 SUB SWAP1 RETURN JUMPDEST PUSH2 0x154 PUSH2 0x382 JUMP JUMPDEST STOP JUMPDEST PUSH2 0x15E PUSH2 0x42A JUMP JUMPDEST STOP JUMPDEST PUSH2 0x168 PUSH2 0x436 JUMP JUMPDEST STOP JUMPDEST PUSH2 0x172 PUSH2 0x442 JUMP JUMPDEST PUSH1 0x40 MLOAD PUSH2 0x17F SWAP2 SWAP1 PUSH2 0x1A09 JUMP JUMPDEST PUSH1 0x40 MLOAD DUP1 SWAP2 SUB SWAP1 RETURN JUMPDEST PUSH2 0x1A2 PUSH1 0x4 DUP1 CALLDATASIZE SUB DUP2 ADD SWAP1 PUSH2 0x19D SWAP2 SWAP1 PUSH2 0x1B59 JUMP JUMPDEST PUSH2 0x455 JUMP JUMPDEST STOP JUMPDEST PUSH2 0x1BE PUSH1 0x4 DUP1 CALLDATASIZE SUB DUP2 ADD SWAP1 PUSH2 0x1B9 SWAP2 SWAP1 PUSH2 0x1C00 JUMP JUMPDEST PUSH2 0x513 JUMP JUMPDEST STOP JUMPDEST PUSH2 0x1C8 PUSH2 0x64D JUMP JUMPDEST PUSH1 0x40 MLOAD PUSH2 0x1D5 SWAP2 SWAP1 PUSH2 0x1D85 JUMP JUMPDEST PUSH1 0x40 MLOAD DUP1 SWAP2 SUB SWAP1 RETURN JUMPDEST PUSH2 0x1E6 PUSH2 0x748 JUMP JUMPDEST STOP JUMPDEST PUSH2 0x1F0 PUSH2 0x754 JUMP JUMPDEST STOP JUMPDEST PUSH2 0x1FA PUSH2 0x768 JUMP JUMPDEST STOP JUMPDEST PUSH2 0x204 PUSH2 0x774 JUMP JUMPDEST STOP JUMPDEST PUSH2 0x20E PUSH2 0x780 JUMP JUMPDEST PUSH1 0x40 MLOAD PUSH2 0x21B SWAP2 SWAP1 PUSH2 0x1DB6 JUMP JUMPDEST PUSH1 0x40 MLOAD DUP1 SWAP2 SUB SWAP1 RETURN JUMPDEST PUSH2 0x22C PUSH2 0x7A9 JUMP JUMPDEST PUSH1 0x40 MLOAD PUSH2 0x239 SWAP2 SWAP1 PUSH2 0x1E0E JUMP JUMPDEST PUSH1 0x40 MLOAD DUP1 SWAP2 SUB SWAP1 RETURN JUMPDEST PUSH2 0x25C PUSH1 0x4 DUP1 CALLDATASIZE SUB DUP2 ADD SWAP1 PUSH2 0x257 SWAP2 SWAP1 PUSH2 0x1C00 JUMP JUMPDEST PUSH2 0x889 JUMP JUMPDEST PUSH1 0x40 MLOAD PUSH2 0x269 SWAP2 SWAP1 PUSH2 0x1E30 JUMP JUMPDEST PUSH1 0x40 MLOAD DUP1 SWAP2 SUB SWAP1 RETURN JUMPDEST PUSH2 0x28C PUSH1 0x4 DUP1 CALLDATASIZE SUB DUP2 ADD SWAP1 PUSH2 0x287 SWAP2 SWAP1 PUSH2 0x1F1A JUMP JUMPDEST PUSH2 0xA19 JUMP JUMPDEST STOP JUMPDEST PUSH2 0x2A8 PUSH1 0x4 DUP1 CALLDATASIZE SUB DUP2 ADD SWAP1 PUSH2 0x2A3 SWAP2 SWAP1 PUSH2 0x1C00 JUMP JUMPDEST PUSH2 0xB8A JUMP JUMPDEST STOP JUMPDEST PUSH2 0x2C4 PUSH1 0x4 DUP1 CALLDATASIZE SUB DUP2 ADD SWAP1 PUSH2 0x2BF SWAP2 SWAP1 PUSH2 0x1896 JUMP JUMPDEST PUSH2 0xC0D JUMP JUMPDEST STOP JUMPDEST PUSH1 0x2 DUP2 DUP2 SLOAD DUP2 LT PUSH2 0x2D6 JUMPI PUSH1 0x0 DUP1 REVERT JUMPDEST SWAP1 PUSH1 0x0 MSTORE PUSH1 0x20 PUSH1 0x0 KECCAK256 SWAP1 PUSH1 0x2 MUL ADD PUSH1 0x0 SWAP2 POP SWAP1 POP DUP1 PUSH1 0x0 ADD DUP1 SLOAD PUSH2 0x2F9 SWAP1 PUSH2 0x1F92 JUMP JUMPDEST DUP1 PUSH1 0x1F ADD PUSH1 0x20 DUP1 SWAP2 DIV MUL PUSH1 0x20 ADD PUSH1 0x40 MLOAD SWAP1 DUP2 ADD PUSH1 0x40 MSTORE DUP1 SWAP3 SWAP2 SWAP1 DUP2 DUP2 MSTORE PUSH1 0x20 ADD DUP3 DUP1 SLOAD PUSH2 0x325 SWAP1 PUSH2 0x1F92 JUMP JUMPDEST DUP1 ISZERO PUSH2 0x372 JUMPI DUP1 PUSH1 0x1F LT PUSH2 0x347 JUMPI PUSH2 0x100 DUP1 DUP4 SLOAD DIV MUL DUP4 MSTORE SWAP2 PUSH1 0x20 ADD SWAP2 PUSH2 0x372 JUMP JUMPDEST DUP3 ADD SWAP2 SWAP1 PUSH1 0x0 MSTORE PUSH1 0x20 PUSH1 0x0 KECCAK256 SWAP1 JUMPDEST DUP2 SLOAD DUP2 MSTORE SWAP1 PUSH1 0x1 ADD SWAP1 PUSH1 0x20 ADD DUP1 DUP4 GT PUSH2 0x355 JUMPI DUP3 SWAP1 SUB PUSH1 0x1F AND DUP3 ADD SWAP2 JUMPDEST POP POP POP POP POP SWAP1 DUP1 PUSH1 0x1 ADD SLOAD SWAP1 POP DUP3 JUMP JUMPDEST PUSH2 0x38A PUSH2 0xE0C JUMP JUMPDEST PUSH2 0x392 PUSH2 0xE8A JUMP JUMPDEST PUSH1 0x0 DUP1 DUP1 PUSH1 0x0 SWAP1 POP JUMPDEST PUSH1 0x2 DUP1 SLOAD SWAP1 POP DUP2 LT ISZERO PUSH2 0x414 JUMPI DUP3 PUSH1 0x2 DUP3 DUP2 SLOAD DUP2 LT PUSH2 0x3BD JUMPI PUSH2 0x3BC PUSH2 0x1FC3 JUMP JUMPDEST JUMPDEST SWAP1 PUSH1 0x0 MSTORE PUSH1 0x20 PUSH1 0x0 KECCAK256 SWAP1 PUSH1 0x2 MUL ADD PUSH1 0x1 ADD SLOAD GT ISZERO PUSH2 0x401 JUMPI PUSH1 0x2 DUP2 DUP2 SLOAD DUP2 LT PUSH2 0x3E9 JUMPI PUSH2 0x3E8 PUSH2 0x1FC3 JUMP JUMPDEST JUMPDEST SWAP1 PUSH1 0x0 MSTORE PUSH1 0x20 PUSH1 0x0 KECCAK256 SWAP1 PUSH1 0x2 MUL ADD PUSH1 0x1 ADD SLOAD SWAP3 POP DUP1 SWAP2 POP JUMPDEST DUP1 DUP1 PUSH2 0x40C SWAP1 PUSH2 0x2021 JUMP JUMPDEST SWAP2 POP POP PUSH2 0x39B JUMP JUMPDEST POP DUP1 PUSH1 0x4 DUP2 SWAP1 SSTORE POP PUSH2 0x426 PUSH1 0x5 PUSH2 0xF02 JUMP JUMPDEST POP POP JUMP JUMPDEST PUSH2 0x434 PUSH1 0x0 PUSH2 0xF02 JUMP JUMPDEST JUMP JUMPDEST PUSH2 0x440 PUSH1 0x3 PUSH2 0xF02 JUMP JUMPDEST JUMP JUMPDEST PUSH1 0x3 PUSH1 0x0 SWAP1 SLOAD SWAP1 PUSH2 0x100 EXP SWAP1 DIV PUSH1 0xFF AND DUP2 JUMP JUMPDEST PUSH2 0x45D PUSH2 0xF90 JUMP JUMPDEST PUSH2 0x465 PUSH2 0x1065 JUMP JUMPDEST PUSH1 0x2 PUSH1 0x40 MLOAD DUP1 PUSH1 0x40 ADD PUSH1 0x40 MSTORE DUP1 DUP4 DUP2 MSTORE PUSH1 0x20 ADD PUSH1 0x0 DUP2 MSTORE POP SWAP1 DUP1 PUSH1 0x1 DUP2 SLOAD ADD DUP1 DUP3 SSTORE DUP1 SWAP2 POP POP PUSH1 0x1 SWAP1 SUB SWAP1 PUSH1 0x0 MSTORE PUSH1 0x20 PUSH1 0x0 KECCAK256 SWAP1 PUSH1 0x2 MUL ADD PUSH1 0x0 SWAP1 SWAP2 SWAP1 SWAP2 SWAP1 SWAP2 POP PUSH1 0x0 DUP3 ADD MLOAD DUP2 PUSH1 0x0 ADD SWAP1 DUP2 PUSH2 0x4BB SWAP2 SWAP1 PUSH2 0x2215 JUMP JUMPDEST POP PUSH1 0x20 DUP3 ADD MLOAD DUP2 PUSH1 0x1 ADD SSTORE POP POP PUSH32 0x92E393E9B54E2F801D3EA4BEB0C5E71A21CC34A5D34B77D0FB8A3AA1650DC18F PUSH1 0x1 PUSH1 0x2 DUP1 SLOAD SWAP1 POP PUSH2 0x4FB SWAP2 SWAP1 PUSH2 0x22E7 JUMP JUMPDEST PUSH1 0x40 MLOAD PUSH2 0x508 SWAP2 SWAP1 PUSH2 0x231B JUMP JUMPDEST PUSH1 0x40 MLOAD DUP1 SWAP2 SUB SWAP1 LOG1 POP JUMP JUMPDEST PUSH2 0x51B PUSH2 0xE0C JUMP JUMPDEST PUSH2 0x523 PUSH2 0x10DD JUMP JUMPDEST PUSH1 0x0 ISZERO ISZERO PUSH1 0x1 PUSH1 0x0 DUP4 PUSH20 0xFFFFFFFFFFFFFFFFFFFFFFFFFFFFFFFFFFFFFFFF AND PUSH20 0xFFFFFFFFFFFFFFFFFFFFFFFFFFFFFFFFFFFFFFFF AND DUP2 MSTORE PUSH1 0x20 ADD SWAP1 DUP2 MSTORE PUSH1 0x20 ADD PUSH1 0x0 KECCAK256 PUSH1 0x0 ADD PUSH1 0x0 SWAP1 SLOAD SWAP1 PUSH2 0x100 EXP SWAP1 DIV PUSH1 0xFF AND ISZERO ISZERO EQ PUSH2 0x5B9 JUMPI PUSH1 0x40 MLOAD PUSH32 0x8C379A000000000000000000000000000000000000000000000000000000000 DUP2 MSTORE PUSH1 0x4 ADD PUSH2 0x5B0 SWAP1 PUSH2 0x2382 JUMP JUMPDEST PUSH1 0x40 MLOAD DUP1 SWAP2 SUB SWAP1 REVERT JUMPDEST PUSH1 0x1 DUP1 PUSH1 0x0 DUP4 PUSH20 0xFFFFFFFFFFFFFFFFFFFFFFFFFFFFFFFFFFFFFFFF AND PUSH20 0xFFFFFFFFFFFFFFFFFFFFFFFFFFFFFFFFFFFFFFFF AND DUP2 MSTORE PUSH1 0x20 ADD SWAP1 DUP2 MSTORE PUSH1 0x20 ADD PUSH1 0x0 KECCAK256 PUSH1 0x0 ADD PUSH1 0x0 PUSH2 0x100 EXP DUP2 SLOAD DUP2 PUSH1 0xFF MUL NOT AND SWAP1 DUP4 ISZERO ISZERO MUL OR SWAP1 SSTORE POP PUSH32 0xB6BE2187D059CC2A55FE29E0E503B566E1E0F8C8780096E185429350ACFFD3DD DUP2 PUSH1 0x40 MLOAD PUSH2 0x642 SWAP2 SWAP1 PUSH2 0x1DB6 JUMP JUMPDEST PUSH1 0x40 MLOAD DUP1 SWAP2 SUB SWAP1 LOG1 POP JUMP JUMPDEST PUSH1 0x60 PUSH1 0x2 DUP1 SLOAD DUP1 PUSH1 0x20 MUL PUSH1 0x20 ADD PUSH1 0x40 MLOAD SWAP1 DUP2 ADD PUSH1 0x40 MSTORE DUP1 SWAP3 SWAP2 SWAP1 DUP2 DUP2 MSTORE PUSH1 0x20 ADD PUSH1 0x0 SWAP1 JUMPDEST DUP3 DUP3 LT ISZERO PUSH2 0x73F JUMPI DUP4 DUP3 SWAP1 PUSH1 0x0 MSTORE PUSH1 0x20 PUSH1 0x0 KECCAK256 SWAP1 PUSH1 0x2 MUL ADD PUSH1 0x40 MLOAD DUP1 PUSH1 0x40 ADD PUSH1 0x40 MSTORE SWAP1 DUP2 PUSH1 0x0 DUP3 ADD DUP1 SLOAD PUSH2 0x6A4 SWAP1 PUSH2 0x1F92 JUMP JUMPDEST DUP1 PUSH1 0x1F ADD PUSH1 0x20 DUP1 SWAP2 DIV MUL PUSH1 0x20 ADD PUSH1 0x40 MLOAD SWAP1 DUP2 ADD PUSH1 0x40 MSTORE DUP1 SWAP3 SWAP2 SWAP1 DUP2 DUP2 MSTORE PUSH1 0x20 ADD DUP3 DUP1 SLOAD PUSH2 0x6D0 SWAP1 PUSH2 0x1F92 JUMP JUMPDEST DUP1 ISZERO PUSH2 0x71D JUMPI DUP1 PUSH1 0x1F LT PUSH2 0x6F2 JUMPI PUSH2 0x100 DUP1 DUP4 SLOAD DIV MUL DUP4 MSTORE SWAP2 PUSH1 0x20 ADD SWAP2 PUSH2 0x71D JUMP JUMPDEST DUP3 ADD SWAP2 SWAP1 PUSH1 0x0 MSTORE PUSH1 0x20 PUSH1 0x0 KECCAK256 SWAP1 JUMPDEST DUP2 SLOAD DUP2 MSTORE SWAP1 PUSH1 0x1 ADD SWAP1 PUSH1 0x20 ADD DUP1 DUP4 GT PUSH2 0x700 JUMPI DUP3 SWAP1 SUB PUSH1 0x1F AND DUP3 ADD SWAP2 JUMPDEST POP POP POP POP POP DUP2 MSTORE PUSH1 0x20 ADD PUSH1 0x1 DUP3 ADD SLOAD DUP2 MSTORE POP POP DUP2 MSTORE PUSH1 0x20 ADD SWAP1 PUSH1 0x1 ADD SWAP1 PUSH2 0x671 JUMP JUMPDEST POP POP POP POP SWAP1 POP SWAP1 JUMP JUMPDEST PUSH2 0x752 PUSH1 0x2 PUSH2 0xF02 JUMP JUMPDEST JUMP JUMPDEST PUSH2 0x75C PUSH2 0xE0C JUMP JUMPDEST PUSH2 0x766 PUSH1 0x0 PUSH2 0x1155 JUMP JUMPDEST JUMP JUMPDEST PUSH2 0x772 PUSH1 0x1 PUSH2 0xF02 JUMP JUMPDEST JUMP JUMPDEST PUSH2 0x77E PUSH1 0x4 PUSH2 0xF02 JUMP JUMPDEST JUMP JUMPDEST PUSH1 0x0 DUP1 PUSH1 0x0 SWAP1 SLOAD SWAP1 PUSH2 0x100 EXP SWAP1 DIV PUSH20 0xFFFFFFFFFFFFFFFFFFFFFFFFFFFFFFFFFFFFFFFF AND SWAP1 POP SWAP1 JUMP JUMPDEST PUSH2 0x7B1 PUSH2 0x1832 JUMP JUMPDEST PUSH2 0x7B9 PUSH2 0x1219 JUMP JUMPDEST PUSH1 0x2 PUSH1 0x4 SLOAD DUP2 SLOAD DUP2 LT PUSH2 0x7CF JUMPI PUSH2 0x7CE PUSH2 0x1FC3 JUMP JUMPDEST JUMPDEST SWAP1 PUSH1 0x0 MSTORE PUSH1 0x20 PUSH1 0x0 KECCAK256 SWAP1 PUSH1 0x2 MUL ADD PUSH1 0x40 MLOAD DUP1 PUSH1 0x40 ADD PUSH1 0x40 MSTORE SWAP1 DUP2 PUSH1 0x0 DUP3 ADD DUP1 SLOAD PUSH2 0x7F8 SWAP1 PUSH2 0x1F92 JUMP JUMPDEST DUP1 PUSH1 0x1F ADD PUSH1 0x20 DUP1 SWAP2 DIV MUL PUSH1 0x20 ADD PUSH1 0x40 MLOAD SWAP1 DUP2 ADD PUSH1 0x40 MSTORE DUP1 SWAP3 SWAP2 SWAP1 DUP2 DUP2 MSTORE PUSH1 0x20 ADD DUP3 DUP1 SLOAD PUSH2 0x824 SWAP1 PUSH2 0x1F92 JUMP JUMPDEST DUP1 ISZERO PUSH2 0x871 JUMPI DUP1 PUSH1 0x1F LT PUSH2 0x846 JUMPI PUSH2 0x100 DUP1 DUP4 SLOAD DIV MUL DUP4 MSTORE SWAP2 PUSH1 0x20 ADD SWAP2 PUSH2 0x871 JUMP JUMPDEST DUP3 ADD SWAP2 SWAP1 PUSH1 0x0 MSTORE PUSH1 0x20 PUSH1 0x0 KECCAK256 SWAP1 JUMPDEST DUP2 SLOAD DUP2 MSTORE SWAP1 PUSH1 0x1 ADD SWAP1 PUSH1 0x20 ADD DUP1 DUP4 GT PUSH2 0x854 JUMPI DUP3 SWAP1 SUB PUSH1 0x1F AND DUP3 ADD SWAP2 JUMPDEST POP POP POP POP POP DUP2 MSTORE PUSH1 0x20 ADD PUSH1 0x1 DUP3 ADD SLOAD DUP2 MSTORE POP POP SWAP1 POP SWAP1 JUMP JUMPDEST PUSH1 0x60 PUSH2 0x893 PUSH2 0xF90 JUMP JUMPDEST PUSH1 0x1 PUSH1 0x0 DUP4 PUSH20 0xFFFFFFFFFFFFFFFFFFFFFFFFFFFFFFFFFFFFFFFF AND PUSH20 0xFFFFFFFFFFFFFFFFFFFFFFFFFFFFFFFFFFFFFFFF AND DUP2 MSTORE PUSH1 0x20 ADD SWAP1 DUP2 MSTORE PUSH1 0x20 ADD PUSH1 0x0 KECCAK256 PUSH1 0x0 ADD PUSH1 0x1 SWAP1 SLOAD SWAP1 PUSH2 0x100 EXP SWAP1 DIV PUSH1 0xFF AND PUSH2 0x922 JUMPI PUSH1 0x40 MLOAD PUSH32 0x8C379A000000000000000000000000000000000000000000000000000000000 DUP2 MSTORE PUSH1 0x4 ADD PUSH2 0x919 SWAP1 PUSH2 0x23EE JUMP JUMPDEST PUSH1 0x40 MLOAD DUP1 SWAP2 SUB SWAP1 REVERT JUMPDEST PUSH1 0x2 PUSH1 0x1 PUSH1 0x0 DUP5 PUSH20 0xFFFFFFFFFFFFFFFFFFFFFFFFFFFFFFFFFFFFFFFF AND PUSH20 0xFFFFFFFFFFFFFFFFFFFFFFFFFFFFFFFFFFFFFFFF AND DUP2 MSTORE PUSH1 0x20 ADD SWAP1 DUP2 MSTORE PUSH1 0x20 ADD PUSH1 0x0 KECCAK256 PUSH1 0x1 ADD SLOAD DUP2 SLOAD DUP2 LT PUSH2 0x978 JUMPI PUSH2 0x977 PUSH2 0x1FC3 JUMP JUMPDEST JUMPDEST SWAP1 PUSH1 0x0 MSTORE PUSH1 0x20 PUSH1 0x0 KECCAK256 SWAP1 PUSH1 0x2 MUL ADD PUSH1 0x0 ADD DUP1 SLOAD PUSH2 0x994 SWAP1 PUSH2 0x1F92 JUMP JUMPDEST DUP1 PUSH1 0x1F ADD PUSH1 0x20 DUP1 SWAP2 DIV MUL PUSH1 0x20 ADD PUSH1 0x40 MLOAD SWAP1 DUP2 ADD PUSH1 0x40 MSTORE DUP1 SWAP3 SWAP2 SWAP1 DUP2 DUP2 MSTORE PUSH1 0x20 ADD DUP3 DUP1 SLOAD PUSH2 0x9C0 SWAP1 PUSH2 0x1F92 JUMP JUMPDEST DUP1 ISZERO PUSH2 0xA0D JUMPI DUP1 PUSH1 0x1F LT PUSH2 0x9E2 JUMPI PUSH2 0x100 DUP1 DUP4 SLOAD DIV MUL DUP4 MSTORE SWAP2 PUSH1 0x20 ADD SWAP2 PUSH2 0xA0D JUMP JUMPDEST DUP3 ADD SWAP2 SWAP1 PUSH1 0x0 MSTORE PUSH1 0x20 PUSH1 0x0 KECCAK256 SWAP1 JUMPDEST DUP2 SLOAD DUP2 MSTORE SWAP1 PUSH1 0x1 ADD SWAP1 PUSH1 0x20 ADD DUP1 DUP4 GT PUSH2 0x9F0 JUMPI DUP3 SWAP1 SUB PUSH1 0x1F AND DUP3 ADD SWAP2 JUMPDEST POP POP POP POP POP SWAP1 POP SWAP2 SWAP1 POP JUMP JUMPDEST PUSH2 0xA21 PUSH2 0xE0C JUMP JUMPDEST PUSH2 0xA29 PUSH2 0x10DD JUMP JUMPDEST PUSH1 0x0 JUMPDEST DUP2 MLOAD DUP2 LT ISZERO PUSH2 0xB86 JUMPI PUSH1 0x1 DUP1 PUSH1 0x0 DUP5 DUP5 DUP2 MLOAD DUP2 LT PUSH2 0xA4D JUMPI PUSH2 0xA4C PUSH2 0x1FC3 JUMP JUMPDEST JUMPDEST PUSH1 0x20 MUL PUSH1 0x20 ADD ADD MLOAD PUSH20 0xFFFFFFFFFFFFFFFFFFFFFFFFFFFFFFFFFFFFFFFF AND PUSH20 0xFFFFFFFFFFFFFFFFFFFFFFFFFFFFFFFFFFFFFFFF AND DUP2 MSTORE PUSH1 0x20 ADD SWAP1 DUP2 MSTORE PUSH1 0x20 ADD PUSH1 0x0 KECCAK256 PUSH1 0x0 ADD PUSH1 0x0 PUSH2 0x100 EXP DUP2 SLOAD DUP2 PUSH1 0xFF MUL NOT AND SWAP1 DUP4 ISZERO ISZERO MUL OR SWAP1 SSTORE ISZERO PUSH2 0xB73 JUMPI PUSH1 0x1 DUP1 PUSH1 0x0 DUP5 DUP5 DUP2 MLOAD DUP2 LT PUSH2 0xAC5 JUMPI PUSH2 0xAC4 PUSH2 0x1FC3 JUMP JUMPDEST JUMPDEST PUSH1 0x20 MUL PUSH1 0x20 ADD ADD MLOAD PUSH20 0xFFFFFFFFFFFFFFFFFFFFFFFFFFFFFFFFFFFFFFFF AND PUSH20 0xFFFFFFFFFFFFFFFFFFFFFFFFFFFFFFFFFFFFFFFF AND DUP2 MSTORE PUSH1 0x20 ADD SWAP1 DUP2 MSTORE PUSH1 0x20 ADD PUSH1 0x0 KECCAK256 PUSH1 0x0 ADD PUSH1 0x0 PUSH2 0x100 EXP DUP2 SLOAD DUP2 PUSH1 0xFF MUL NOT AND SWAP1 DUP4 ISZERO ISZERO MUL OR SWAP1 SSTORE POP PUSH32 0xB6BE2187D059CC2A55FE29E0E503B566E1E0F8C8780096E185429350ACFFD3DD DUP3 DUP3 DUP2 MLOAD DUP2 LT PUSH2 0xB55 JUMPI PUSH2 0xB54 PUSH2 0x1FC3 JUMP JUMPDEST JUMPDEST PUSH1 0x20 MUL PUSH1 0x20 ADD ADD MLOAD PUSH1 0x40 MLOAD PUSH2 0xB6A SWAP2 SWAP1 PUSH2 0x1DB6 JUMP JUMPDEST PUSH1 0x40 MLOAD DUP1 SWAP2 SUB SWAP1 LOG1 JUMPDEST DUP1 DUP1 PUSH2 0xB7E SWAP1 PUSH2 0x2021 JUMP JUMPDEST SWAP2 POP POP PUSH2 0xA2C JUMP JUMPDEST POP POP JUMP JUMPDEST PUSH2 0xB92 PUSH2 0xE0C JUMP JUMPDEST PUSH1 0x0 PUSH20 0xFFFFFFFFFFFFFFFFFFFFFFFFFFFFFFFFFFFFFFFF AND DUP2 PUSH20 0xFFFFFFFFFFFFFFFFFFFFFFFFFFFFFFFFFFFFFFFF AND SUB PUSH2 0xC01 JUMPI PUSH1 0x40 MLOAD PUSH32 0x8C379A000000000000000000000000000000000000000000000000000000000 DUP2 MSTORE PUSH1 0x4 ADD PUSH2 0xBF8 SWAP1 PUSH2 0x2480 JUMP JUMPDEST PUSH1 0x40 MLOAD DUP1 SWAP2 SUB SWAP1 REVERT JUMPDEST PUSH2 0xC0A DUP2 PUSH2 0x1155 JUMP JUMPDEST POP JUMP JUMPDEST PUSH2 0xC15 PUSH2 0x1290 JUMP JUMPDEST PUSH2 0xC1D PUSH2 0xF90 JUMP JUMPDEST PUSH1 0x1 PUSH1 0x0 CALLER PUSH20 0xFFFFFFFFFFFFFFFFFFFFFFFFFFFFFFFFFFFFFFFF AND PUSH20 0xFFFFFFFFFFFFFFFFFFFFFFFFFFFFFFFFFFFFFFFF AND DUP2 MSTORE PUSH1 0x20 ADD SWAP1 DUP2 MSTORE PUSH1 0x20 ADD PUSH1 0x0 KECCAK256 PUSH1 0x0 ADD PUSH1 0x1 SWAP1 SLOAD SWAP1 PUSH2 0x100 EXP SWAP1 DIV PUSH1 0xFF AND ISZERO PUSH2 0xCAD JUMPI PUSH1 0x40 MLOAD PUSH32 0x8C379A000000000000000000000000000000000000000000000000000000000 DUP2 MSTORE PUSH1 0x4 ADD PUSH2 0xCA4 SWAP1 PUSH2 0x2512 JUMP JUMPDEST PUSH1 0x40 MLOAD DUP1 SWAP2 SUB SWAP1 REVERT JUMPDEST PUSH1 0x2 DUP1 SLOAD SWAP1 POP DUP2 LT PUSH2 0xCF4 JUMPI PUSH1 0x40 MLOAD PUSH32 0x8C379A000000000000000000000000000000000000000000000000000000000 DUP2 MSTORE PUSH1 0x4 ADD PUSH2 0xCEB SWAP1 PUSH2 0x25A4 JUMP JUMPDEST PUSH1 0x40 MLOAD DUP1 SWAP2 SUB SWAP1 REVERT JUMPDEST PUSH1 0x2 DUP2 DUP2 SLOAD DUP2 LT PUSH2 0xD08 JUMPI PUSH2 0xD07 PUSH2 0x1FC3 JUMP JUMPDEST JUMPDEST SWAP1 PUSH1 0x0 MSTORE PUSH1 0x20 PUSH1 0x0 KECCAK256 SWAP1 PUSH1 0x2 MUL ADD PUSH1 0x1 ADD PUSH1 0x0 DUP2 SLOAD DUP1 SWAP3 SWAP2 SWAP1 PUSH2 0xD2A SWAP1 PUSH2 0x2021 JUMP JUMPDEST SWAP2 SWAP1 POP SSTORE POP DUP1 PUSH1 0x1 PUSH1 0x0 CALLER PUSH20 0xFFFFFFFFFFFFFFFFFFFFFFFFFFFFFFFFFFFFFFFF AND PUSH20 0xFFFFFFFFFFFFFFFFFFFFFFFFFFFFFFFFFFFFFFFF AND DUP2 MSTORE PUSH1 0x20 ADD SWAP1 DUP2 MSTORE PUSH1 0x20 ADD PUSH1 0x0 KECCAK256 PUSH1 0x1 ADD DUP2 SWAP1 SSTORE POP PUSH1 0x1 DUP1 PUSH1 0x0 CALLER PUSH20 0xFFFFFFFFFFFFFFFFFFFFFFFFFFFFFFFFFFFFFFFF AND PUSH20 0xFFFFFFFFFFFFFFFFFFFFFFFFFFFFFFFFFFFFFFFF AND DUP2 MSTORE PUSH1 0x20 ADD SWAP1 DUP2 MSTORE PUSH1 0x20 ADD PUSH1 0x0 KECCAK256 PUSH1 0x0 ADD PUSH1 0x1 PUSH2 0x100 EXP DUP2 SLOAD DUP2 PUSH1 0xFF MUL NOT AND SWAP1 DUP4 ISZERO ISZERO MUL OR SWAP1 SSTORE POP PUSH32 0x4D99B957A2BC29A30EBD96A7BE8E68FE50A3C701DB28A91436490B7D53870CA4 CALLER DUP3 PUSH1 0x40 MLOAD PUSH2 0xE01 SWAP3 SWAP2 SWAP1 PUSH2 0x25C4 JUMP JUMPDEST PUSH1 0x40 MLOAD DUP1 SWAP2 SUB SWAP1 LOG1 POP JUMP JUMPDEST PUSH2 0xE14 PUSH2 0x1308 JUMP JUMPDEST PUSH20 0xFFFFFFFFFFFFFFFFFFFFFFFFFFFFFFFFFFFFFFFF AND PUSH2 0xE32 PUSH2 0x780 JUMP JUMPDEST PUSH20 0xFFFFFFFFFFFFFFFFFFFFFFFFFFFFFFFFFFFFFFFF AND EQ PUSH2 0xE88 JUMPI PUSH1 0x40 MLOAD PUSH32 0x8C379A000000000000000000000000000000000000000000000000000000000 DUP2 MSTORE PUSH1 0x4 ADD PUSH2 0xE7F SWAP1 PUSH2 0x2639 JUMP JUMPDEST PUSH1 0x40 MLOAD DUP1 SWAP2 SUB SWAP1 REVERT JUMPDEST JUMP JUMPDEST PUSH1 0x4 PUSH1 0x5 DUP2 GT ISZERO PUSH2 0xE9E JUMPI PUSH2 0xE9D PUSH2 0x1992 JUMP JUMPDEST JUMPDEST PUSH1 0x3 PUSH1 0x0 SWAP1 SLOAD SWAP1 PUSH2 0x100 EXP SWAP1 DIV PUSH1 0xFF AND PUSH1 0x5 DUP2 GT ISZERO PUSH2 0xEC0 JUMPI PUSH2 0xEBF PUSH2 0x1992 JUMP JUMPDEST JUMPDEST EQ PUSH2 0xF00 JUMPI PUSH1 0x40 MLOAD PUSH32 0x8C379A000000000000000000000000000000000000000000000000000000000 DUP2 MSTORE PUSH1 0x4 ADD PUSH2 0xEF7 SWAP1 PUSH2 0x26CB JUMP JUMPDEST PUSH1 0x40 MLOAD DUP1 SWAP2 SUB SWAP1 REVERT JUMPDEST JUMP JUMPDEST PUSH2 0xF0A PUSH2 0xE0C JUMP JUMPDEST DUP1 PUSH2 0xF14 DUP2 PUSH2 0x1310 JUMP JUMPDEST PUSH1 0x0 PUSH1 0x3 PUSH1 0x0 SWAP1 SLOAD SWAP1 PUSH2 0x100 EXP SWAP1 DIV PUSH1 0xFF AND SWAP1 POP DUP3 PUSH1 0x3 PUSH1 0x0 PUSH2 0x100 EXP DUP2 SLOAD DUP2 PUSH1 0xFF MUL NOT AND SWAP1 DUP4 PUSH1 0x5 DUP2 GT ISZERO PUSH2 0xF4D JUMPI PUSH2 0xF4C PUSH2 0x1992 JUMP JUMPDEST JUMPDEST MUL OR SWAP1 SSTORE POP PUSH32 0xA97A4EE45751E2ABF3E4FC8946939630B11B371EA8AE39CCDC3056E98F5CC3F DUP2 DUP5 PUSH1 0x40 MLOAD PUSH2 0xF83 SWAP3 SWAP2 SWAP1 PUSH2 0x26EB JUMP JUMPDEST PUSH1 0x40 MLOAD DUP1 SWAP2 SUB SWAP1 LOG1 POP POP POP JUMP JUMPDEST PUSH1 0x1 ISZERO ISZERO PUSH1 0x1 PUSH1 0x0 CALLER PUSH20 0xFFFFFFFFFFFFFFFFFFFFFFFFFFFFFFFFFFFFFFFF AND PUSH20 0xFFFFFFFFFFFFFFFFFFFFFFFFFFFFFFFFFFFFFFFF AND DUP2 MSTORE PUSH1 0x20 ADD SWAP1 DUP2 MSTORE PUSH1 0x20 ADD PUSH1 0x0 KECCAK256 PUSH1 0x0 ADD PUSH1 0x0 SWAP1 SLOAD SWAP1 PUSH2 0x100 EXP SWAP1 DIV PUSH1 0xFF AND ISZERO ISZERO EQ DUP1 PUSH2 0x1024 JUMPI POP CALLER PUSH20 0xFFFFFFFFFFFFFFFFFFFFFFFFFFFFFFFFFFFFFFFF AND PUSH2 0x100C PUSH2 0x780 JUMP JUMPDEST PUSH20 0xFFFFFFFFFFFFFFFFFFFFFFFFFFFFFFFFFFFFFFFF AND EQ JUMPDEST PUSH2 0x1063 JUMPI PUSH1 0x40 MLOAD PUSH32 0x8C379A000000000000000000000000000000000000000000000000000000000 DUP2 MSTORE PUSH1 0x4 ADD PUSH2 0x105A SWAP1 PUSH2 0x2786 JUMP JUMPDEST PUSH1 0x40 MLOAD DUP1 SWAP2 SUB SWAP1 REVERT JUMPDEST JUMP JUMPDEST PUSH1 0x1 PUSH1 0x5 DUP2 GT ISZERO PUSH2 0x1079 JUMPI PUSH2 0x1078 PUSH2 0x1992 JUMP JUMPDEST JUMPDEST PUSH1 0x3 PUSH1 0x0 SWAP1 SLOAD SWAP1 PUSH2 0x100 EXP SWAP1 DIV PUSH1 0xFF AND PUSH1 0x5 DUP2 GT ISZERO PUSH2 0x109B JUMPI PUSH2 0x109A PUSH2 0x1992 JUMP JUMPDEST JUMPDEST EQ PUSH2 0x10DB JUMPI PUSH1 0x40 MLOAD PUSH32 0x8C379A000000000000000000000000000000000000000000000000000000000 DUP2 MSTORE PUSH1 0x4 ADD PUSH2 0x10D2 SWAP1 PUSH2 0x27F2 JUMP JUMPDEST PUSH1 0x40 MLOAD DUP1 SWAP2 SUB SWAP1 REVERT JUMPDEST JUMP JUMPDEST PUSH1 0x0 PUSH1 0x5 DUP2 GT ISZERO PUSH2 0x10F1 JUMPI PUSH2 0x10F0 PUSH2 0x1992 JUMP JUMPDEST JUMPDEST PUSH1 0x3 PUSH1 0x0 SWAP1 SLOAD SWAP1 PUSH2 0x100 EXP SWAP1 DIV PUSH1 0xFF AND PUSH1 0x5 DUP2 GT ISZERO PUSH2 0x1113 JUMPI PUSH2 0x1112 PUSH2 0x1992 JUMP JUMPDEST JUMPDEST EQ PUSH2 0x1153 JUMPI PUSH1 0x40 MLOAD PUSH32 0x8C379A000000000000000000000000000000000000000000000000000000000 DUP2 MSTORE PUSH1 0x4 ADD PUSH2 0x114A SWAP1 PUSH2 0x2884 JUMP JUMPDEST PUSH1 0x40 MLOAD DUP1 SWAP2 SUB SWAP1 REVERT JUMPDEST JUMP JUMPDEST PUSH1 0x0 DUP1 PUSH1 0x0 SWAP1 SLOAD SWAP1 PUSH2 0x100 EXP SWAP1 DIV PUSH20 0xFFFFFFFFFFFFFFFFFFFFFFFFFFFFFFFFFFFFFFFF AND SWAP1 POP DUP2 PUSH1 0x0 DUP1 PUSH2 0x100 EXP DUP2 SLOAD DUP2 PUSH20 0xFFFFFFFFFFFFFFFFFFFFFFFFFFFFFFFFFFFFFFFF MUL NOT AND SWAP1 DUP4 PUSH20 0xFFFFFFFFFFFFFFFFFFFFFFFFFFFFFFFFFFFFFFFF AND MUL OR SWAP1 SSTORE POP DUP2 PUSH20 0xFFFFFFFFFFFFFFFFFFFFFFFFFFFFFFFFFFFFFFFF AND DUP2 PUSH20 0xFFFFFFFFFFFFFFFFFFFFFFFFFFFFFFFFFFFFFFFF AND PUSH32 0x8BE0079C531659141344CD1FD0A4F28419497F9722A3DAAFE3B4186F6B6457E0 PUSH1 0x40 MLOAD PUSH1 0x40 MLOAD DUP1 SWAP2 SUB SWAP1 LOG3 POP POP JUMP JUMPDEST PUSH1 0x5 DUP1 DUP2 GT ISZERO PUSH2 0x122C JUMPI PUSH2 0x122B PUSH2 0x1992 JUMP JUMPDEST JUMPDEST PUSH1 0x3 PUSH1 0x0 SWAP1 SLOAD SWAP1 PUSH2 0x100 EXP SWAP1 DIV PUSH1 0xFF AND PUSH1 0x5 DUP2 GT ISZERO PUSH2 0x124E JUMPI PUSH2 0x124D PUSH2 0x1992 JUMP JUMPDEST JUMPDEST EQ PUSH2 0x128E JUMPI PUSH1 0x40 MLOAD PUSH32 0x8C379A000000000000000000000000000000000000000000000000000000000 DUP2 MSTORE PUSH1 0x4 ADD PUSH2 0x1285 SWAP1 PUSH2 0x28F0 JUMP JUMPDEST PUSH1 0x40 MLOAD DUP1 SWAP2 SUB SWAP1 REVERT JUMPDEST JUMP JUMPDEST PUSH1 0x3 PUSH1 0x5 DUP2 GT ISZERO PUSH2 0x12A4 JUMPI PUSH2 0x12A3 PUSH2 0x1992 JUMP JUMPDEST JUMPDEST PUSH1 0x3 PUSH1 0x0 SWAP1 SLOAD SWAP1 PUSH2 0x100 EXP SWAP1 DIV PUSH1 0xFF AND PUSH1 0x5 DUP2 GT ISZERO PUSH2 0x12C6 JUMPI PUSH2 0x12C5 PUSH2 0x1992 JUMP JUMPDEST JUMPDEST EQ PUSH2 0x1306 JUMPI PUSH1 0x40 MLOAD PUSH32 0x8C379A000000000000000000000000000000000000000000000000000000000 DUP2 MSTORE PUSH1 0x4 ADD PUSH2 0x12FD SWAP1 PUSH2 0x295C JUMP JUMPDEST PUSH1 0x40 MLOAD DUP1 SWAP2 SUB SWAP1 REVERT JUMPDEST JUMP JUMPDEST PUSH1 0x0 CALLER SWAP1 POP SWAP1 JUMP JUMPDEST PUSH1 0x0 PUSH1 0x5 DUP2 GT ISZERO PUSH2 0x1324 JUMPI PUSH2 0x1323 PUSH2 0x1992 JUMP JUMPDEST JUMPDEST DUP2 PUSH1 0x5 DUP2 GT ISZERO PUSH2 0x1337 JUMPI PUSH2 0x1336 PUSH2 0x1992 JUMP JUMPDEST JUMPDEST SUB PUSH2 0x13F5 JUMPI PUSH1 0x0 PUSH1 0x5 DUP2 GT ISZERO PUSH2 0x1350 JUMPI PUSH2 0x134F PUSH2 0x1992 JUMP JUMPDEST JUMPDEST PUSH1 0x3 PUSH1 0x0 SWAP1 SLOAD SWAP1 PUSH2 0x100 EXP SWAP1 DIV PUSH1 0xFF AND PUSH1 0x5 DUP2 GT ISZERO PUSH2 0x1372 JUMPI PUSH2 0x1371 PUSH2 0x1992 JUMP JUMPDEST JUMPDEST EQ DUP1 PUSH2 0x13B1 JUMPI POP PUSH1 0x1 PUSH1 0x5 DUP2 GT ISZERO PUSH2 0x138D JUMPI PUSH2 0x138C PUSH2 0x1992 JUMP JUMPDEST JUMPDEST PUSH1 0x3 PUSH1 0x0 SWAP1 SLOAD SWAP1 PUSH2 0x100 EXP SWAP1 DIV PUSH1 0xFF AND PUSH1 0x5 DUP2 GT ISZERO PUSH2 0x13AF JUMPI PUSH2 0x13AE PUSH2 0x1992 JUMP JUMPDEST JUMPDEST EQ JUMPDEST PUSH2 0x13F0 JUMPI PUSH1 0x40 MLOAD PUSH32 0x8C379A000000000000000000000000000000000000000000000000000000000 DUP2 MSTORE PUSH1 0x4 ADD PUSH2 0x13E7 SWAP1 PUSH2 0x2A14 JUMP JUMPDEST PUSH1 0x40 MLOAD DUP1 SWAP2 SUB SWAP1 REVERT JUMPDEST PUSH2 0x182F JUMP JUMPDEST PUSH1 0x1 PUSH1 0x5 DUP2 GT ISZERO PUSH2 0x1409 JUMPI PUSH2 0x1408 PUSH2 0x1992 JUMP JUMPDEST JUMPDEST DUP2 PUSH1 0x5 DUP2 GT ISZERO PUSH2 0x141C JUMPI PUSH2 0x141B PUSH2 0x1992 JUMP JUMPDEST JUMPDEST SUB PUSH2 0x14DA JUMPI PUSH1 0x0 PUSH1 0x5 DUP2 GT ISZERO PUSH2 0x1435 JUMPI PUSH2 0x1434 PUSH2 0x1992 JUMP JUMPDEST JUMPDEST PUSH1 0x3 PUSH1 0x0 SWAP1 SLOAD SWAP1 PUSH2 0x100 EXP SWAP1 DIV PUSH1 0xFF AND PUSH1 0x5 DUP2 GT ISZERO PUSH2 0x1457 JUMPI PUSH2 0x1456 PUSH2 0x1992 JUMP JUMPDEST JUMPDEST EQ DUP1 PUSH2 0x1496 JUMPI POP PUSH1 0x2 PUSH1 0x5 DUP2 GT ISZERO PUSH2 0x1472 JUMPI PUSH2 0x1471 PUSH2 0x1992 JUMP JUMPDEST JUMPDEST PUSH1 0x3 PUSH1 0x0 SWAP1 SLOAD SWAP1 PUSH2 0x100 EXP SWAP1 DIV PUSH1 0xFF AND PUSH1 0x5 DUP2 GT ISZERO PUSH2 0x1494 JUMPI PUSH2 0x1493 PUSH2 0x1992 JUMP JUMPDEST JUMPDEST EQ JUMPDEST PUSH2 0x14D5 JUMPI PUSH1 0x40 MLOAD PUSH32 0x8C379A000000000000000000000000000000000000000000000000000000000 DUP2 MSTORE PUSH1 0x4 ADD PUSH2 0x14CC SWAP1 PUSH2 0x2A14 JUMP JUMPDEST PUSH1 0x40 MLOAD DUP1 SWAP2 SUB SWAP1 REVERT JUMPDEST PUSH2 0x182E JUMP JUMPDEST PUSH1 0x2 PUSH1 0x5 DUP2 GT ISZERO PUSH2 0x14EE JUMPI PUSH2 0x14ED PUSH2 0x1992 JUMP JUMPDEST JUMPDEST DUP2 PUSH1 0x5 DUP2 GT ISZERO PUSH2 0x1501 JUMPI PUSH2 0x1500 PUSH2 0x1992 JUMP JUMPDEST JUMPDEST SUB PUSH2 0x15BF JUMPI PUSH1 0x1 PUSH1 0x5 DUP2 GT ISZERO PUSH2 0x151A JUMPI PUSH2 0x1519 PUSH2 0x1992 JUMP JUMPDEST JUMPDEST PUSH1 0x3 PUSH1 0x0 SWAP1 SLOAD SWAP1 PUSH2 0x100 EXP SWAP1 DIV PUSH1 0xFF AND PUSH1 0x5 DUP2 GT ISZERO PUSH2 0x153C JUMPI PUSH2 0x153B PUSH2 0x1992 JUMP JUMPDEST JUMPDEST EQ DUP1 PUSH2 0x157B JUMPI POP PUSH1 0x3 PUSH1 0x5 DUP2 GT ISZERO PUSH2 0x1557 JUMPI PUSH2 0x1556 PUSH2 0x1992 JUMP JUMPDEST JUMPDEST PUSH1 0x3 PUSH1 0x0 SWAP1 SLOAD SWAP1 PUSH2 0x100 EXP SWAP1 DIV PUSH1 0xFF AND PUSH1 0x5 DUP2 GT ISZERO PUSH2 0x1579 JUMPI PUSH2 0x1578 PUSH2 0x1992 JUMP JUMPDEST JUMPDEST EQ JUMPDEST PUSH2 0x15BA JUMPI PUSH1 0x40 MLOAD PUSH32 0x8C379A000000000000000000000000000000000000000000000000000000000 DUP2 MSTORE PUSH1 0x4 ADD PUSH2 0x15B1 SWAP1 PUSH2 0x2A14 JUMP JUMPDEST PUSH1 0x40 MLOAD DUP1 SWAP2 SUB SWAP1 REVERT JUMPDEST PUSH2 0x182D JUMP JUMPDEST PUSH1 0x3 PUSH1 0x5 DUP2 GT ISZERO PUSH2 0x15D3 JUMPI PUSH2 0x15D2 PUSH2 0x1992 JUMP JUMPDEST JUMPDEST DUP2 PUSH1 0x5 DUP2 GT ISZERO PUSH2 0x15E6 JUMPI PUSH2 0x15E5 PUSH2 0x1992 JUMP JUMPDEST JUMPDEST SUB PUSH2 0x16A4 JUMPI PUSH1 0x2 PUSH1 0x5 DUP2 GT ISZERO PUSH2 0x15FF JUMPI PUSH2 0x15FE PUSH2 0x1992 JUMP JUMPDEST JUMPDEST PUSH1 0x3 PUSH1 0x0 SWAP1 SLOAD SWAP1 PUSH2 0x100 EXP SWAP1 DIV PUSH1 0xFF AND PUSH1 0x5 DUP2 GT ISZERO PUSH2 0x1621 JUMPI PUSH2 0x1620 PUSH2 0x1992 JUMP JUMPDEST JUMPDEST EQ DUP1 PUSH2 0x1660 JUMPI POP PUSH1 0x4 PUSH1 0x5 DUP2 GT ISZERO PUSH2 0x163C JUMPI PUSH2 0x163B PUSH2 0x1992 JUMP JUMPDEST JUMPDEST PUSH1 0x3 PUSH1 0x0 SWAP1 SLOAD SWAP1 PUSH2 0x100 EXP SWAP1 DIV PUSH1 0xFF AND PUSH1 0x5 DUP2 GT ISZERO PUSH2 0x165E JUMPI PUSH2 0x165D PUSH2 0x1992 JUMP JUMPDEST JUMPDEST EQ JUMPDEST PUSH2 0x169F JUMPI PUSH1 0x40 MLOAD PUSH32 0x8C379A000000000000000000000000000000000000000000000000000000000 DUP2 MSTORE PUSH1 0x4 ADD PUSH2 0x1696 SWAP1 PUSH2 0x2A14 JUMP JUMPDEST PUSH1 0x40 MLOAD DUP1 SWAP2 SUB SWAP1 REVERT JUMPDEST PUSH2 0x182C JUMP JUMPDEST PUSH1 0x4 PUSH1 0x5 DUP2 GT ISZERO PUSH2 0x16B8 JUMPI PUSH2 0x16B7 PUSH2 0x1992 JUMP JUMPDEST JUMPDEST DUP2 PUSH1 0x5 DUP2 GT ISZERO PUSH2 0x16CB JUMPI PUSH2 0x16CA PUSH2 0x1992 JUMP JUMPDEST JUMPDEST SUB PUSH2 0x1788 JUMPI PUSH1 0x3 PUSH1 0x5 DUP2 GT ISZERO PUSH2 0x16E4 JUMPI PUSH2 0x16E3 PUSH2 0x1992 JUMP JUMPDEST JUMPDEST PUSH1 0x3 PUSH1 0x0 SWAP1 SLOAD SWAP1 PUSH2 0x100 EXP SWAP1 DIV PUSH1 0xFF AND PUSH1 0x5 DUP2 GT ISZERO PUSH2 0x1706 JUMPI PUSH2 0x1705 PUSH2 0x1992 JUMP JUMPDEST JUMPDEST EQ DUP1 PUSH2 0x1744 JUMPI POP PUSH1 0x5 DUP1 DUP2 GT ISZERO PUSH2 0x1720 JUMPI PUSH2 0x171F PUSH2 0x1992 JUMP JUMPDEST JUMPDEST PUSH1 0x3 PUSH1 0x0 SWAP1 SLOAD SWAP1 PUSH2 0x100 EXP SWAP1 DIV PUSH1 0xFF AND PUSH1 0x5 DUP2 GT ISZERO PUSH2 0x1742 JUMPI PUSH2 0x1741 PUSH2 0x1992 JUMP JUMPDEST JUMPDEST EQ JUMPDEST PUSH2 0x1783 JUMPI PUSH1 0x40 MLOAD PUSH32 0x8C379A000000000000000000000000000000000000000000000000000000000 DUP2 MSTORE PUSH1 0x4 ADD PUSH2 0x177A SWAP1 PUSH2 0x2A14 JUMP JUMPDEST PUSH1 0x40 MLOAD DUP1 SWAP2 SUB SWAP1 REVERT JUMPDEST PUSH2 0x182B JUMP JUMPDEST PUSH1 0x5 DUP1 DUP2 GT ISZERO PUSH2 0x179B JUMPI PUSH2 0x179A PUSH2 0x1992 JUMP JUMPDEST JUMPDEST DUP2 PUSH1 0x5 DUP2 GT ISZERO PUSH2 0x17AE JUMPI PUSH2 0x17AD PUSH2 0x1992 JUMP JUMPDEST JUMPDEST SUB PUSH2 0x182A JUMPI PUSH1 0x4 PUSH1 0x5 DUP2 GT ISZERO PUSH2 0x17C7 JUMPI PUSH2 0x17C6 PUSH2 0x1992 JUMP JUMPDEST JUMPDEST PUSH1 0x3 PUSH1 0x0 SWAP1 SLOAD SWAP1 PUSH2 0x100 EXP SWAP1 DIV PUSH1 0xFF AND PUSH1 0x5 DUP2 GT ISZERO PUSH2 0x17E9 JUMPI PUSH2 0x17E8 PUSH2 0x1992 JUMP JUMPDEST JUMPDEST EQ PUSH2 0x1829 JUMPI PUSH1 0x40 MLOAD PUSH32 0x8C379A000000000000000000000000000000000000000000000000000000000 DUP2 MSTORE PUSH1 0x4 ADD PUSH2 0x1820 SWAP1 PUSH2 0x2A14 JUMP JUMPDEST PUSH1 0x40 MLOAD DUP1 SWAP2 SUB SWAP1 REVERT JUMPDEST JUMPDEST JUMPDEST JUMPDEST JUMPDEST JUMPDEST JUMPDEST POP JUMP JUMPDEST PUSH1 0x40 MLOAD DUP1 PUSH1 0x40 ADD PUSH1 0x40 MSTORE DUP1 PUSH1 0x60 DUP2 MSTORE PUSH1 0x20 ADD PUSH1 0x0 DUP2 MSTORE POP SWAP1 JUMP JUMPDEST PUSH1 0x0 PUSH1 0x40 MLOAD SWAP1 POP SWAP1 JUMP JUMPDEST PUSH1 0x0 DUP1 REVERT JUMPDEST PUSH1 0x0 DUP1 REVERT JUMPDEST PUSH1 0x0 DUP2 SWAP1 POP SWAP2 SWAP1 POP JUMP JUMPDEST PUSH2 0x1873 DUP2 PUSH2 0x1860 JUMP JUMPDEST DUP2 EQ PUSH2 0x187E JUMPI PUSH1 0x0 DUP1 REVERT JUMPDEST POP JUMP JUMPDEST PUSH1 0x0 DUP2 CALLDATALOAD SWAP1 POP PUSH2 0x1890 DUP2 PUSH2 0x186A JUMP JUMPDEST SWAP3 SWAP2 POP POP JUMP JUMPDEST PUSH1 0x0 PUSH1 0x20 DUP3 DUP5 SUB SLT ISZERO PUSH2 0x18AC JUMPI PUSH2 0x18AB PUSH2 0x1856 JUMP JUMPDEST JUMPDEST PUSH1 0x0 PUSH2 0x18BA DUP5 DUP3 DUP6 ADD PUSH2 0x1881 JUMP JUMPDEST SWAP2 POP POP SWAP3 SWAP2 POP POP JUMP JUMPDEST PUSH1 0x0 DUP2 MLOAD SWAP1 POP SWAP2 SWAP1 POP JUMP JUMPDEST PUSH1 0x0 DUP3 DUP3 MSTORE PUSH1 0x20 DUP3 ADD SWAP1 POP SWAP3 SWAP2 POP POP JUMP JUMPDEST PUSH1 0x0 JUMPDEST DUP4 DUP2 LT ISZERO PUSH2 0x18FD JUMPI DUP1 DUP3 ADD MLOAD DUP2 DUP5 ADD MSTORE PUSH1 0x20 DUP2 ADD SWAP1 POP PUSH2 0x18E2 JUMP JUMPDEST PUSH1 0x0 DUP5 DUP5 ADD MSTORE POP POP POP POP JUMP JUMPDEST PUSH1 0x0 PUSH1 0x1F NOT PUSH1 0x1F DUP4 ADD AND SWAP1 POP SWAP2 SWAP1 POP JUMP JUMPDEST PUSH1 0x0 PUSH2 0x1925 DUP3 PUSH2 0x18C3 JUMP JUMPDEST PUSH2 0x192F DUP2 DUP6 PUSH2 0x18CE JUMP JUMPDEST SWAP4 POP PUSH2 0x193F DUP2 DUP6 PUSH1 0x20 DUP7 ADD PUSH2 0x18DF JUMP JUMPDEST PUSH2 0x1948 DUP2 PUSH2 0x1909 JUMP JUMPDEST DUP5 ADD SWAP2 POP POP SWAP3 SWAP2 POP POP JUMP JUMPDEST PUSH2 0x195C DUP2 PUSH2 0x1860 JUMP JUMPDEST DUP3 MSTORE POP POP JUMP JUMPDEST PUSH1 0x0 PUSH1 0x40 DUP3 ADD SWAP1 POP DUP2 DUP2 SUB PUSH1 0x0 DUP4 ADD MSTORE PUSH2 0x197C DUP2 DUP6 PUSH2 0x191A JUMP JUMPDEST SWAP1 POP PUSH2 0x198B PUSH1 0x20 DUP4 ADD DUP5 PUSH2 0x1953 JUMP JUMPDEST SWAP4 SWAP3 POP POP POP JUMP JUMPDEST PUSH32 0x4E487B7100000000000000000000000000000000000000000000000000000000 PUSH1 0x0 MSTORE PUSH1 0x21 PUSH1 0x4 MSTORE PUSH1 0x24 PUSH1 0x0 REVERT JUMPDEST PUSH1 0x6 DUP2 LT PUSH2 0x19D2 JUMPI PUSH2 0x19D1 PUSH2 0x1992 JUMP JUMPDEST JUMPDEST POP JUMP JUMPDEST PUSH1 0x0 DUP2 SWAP1 POP PUSH2 0x19E3 DUP3 PUSH2 0x19C1 JUMP JUMPDEST SWAP2 SWAP1 POP JUMP JUMPDEST PUSH1 0x0 PUSH2 0x19F3 DUP3 PUSH2 0x19D5 JUMP JUMPDEST SWAP1 POP SWAP2 SWAP1 POP JUMP JUMPDEST PUSH2 0x1A03 DUP2 PUSH2 0x19E8 JUMP JUMPDEST DUP3 MSTORE POP POP JUMP JUMPDEST PUSH1 0x0 PUSH1 0x20 DUP3 ADD SWAP1 POP PUSH2 0x1A1E PUSH1 0x0 DUP4 ADD DUP5 PUSH2 0x19FA JUMP JUMPDEST SWAP3 SWAP2 POP POP JUMP JUMPDEST PUSH1 0x0 DUP1 REVERT JUMPDEST PUSH1 0x0 DUP1 REVERT JUMPDEST PUSH32 0x4E487B7100000000000000000000000000000000000000000000000000000000 PUSH1 0x0 MSTORE PUSH1 0x41 PUSH1 0x4 MSTORE PUSH1 0x24 PUSH1 0x0 REVERT JUMPDEST PUSH2 0x1A66 DUP3 PUSH2 0x1909 JUMP JUMPDEST DUP2 ADD DUP2 DUP2 LT PUSH8 0xFFFFFFFFFFFFFFFF DUP3 GT OR ISZERO PUSH2 0x1A85 JUMPI PUSH2 0x1A84 PUSH2 0x1A2E JUMP JUMPDEST JUMPDEST DUP1 PUSH1 0x40 MSTORE POP POP POP JUMP JUMPDEST PUSH1 0x0 PUSH2 0x1A98 PUSH2 0x184C JUMP JUMPDEST SWAP1 POP PUSH2 0x1AA4 DUP3 DUP3 PUSH2 0x1A5D JUMP JUMPDEST SWAP2 SWAP1 POP JUMP JUMPDEST PUSH1 0x0 PUSH8 0xFFFFFFFFFFFFFFFF DUP3 GT ISZERO PUSH2 0x1AC4 JUMPI PUSH2 0x1AC3 PUSH2 0x1A2E JUMP JUMPDEST JUMPDEST PUSH2 0x1ACD DUP3 PUSH2 0x1909 JUMP JUMPDEST SWAP1 POP PUSH1 0x20 DUP2 ADD SWAP1 POP SWAP2 SWAP1 POP JUMP JUMPDEST DUP3 DUP2 DUP4 CALLDATACOPY PUSH1 0x0 DUP4 DUP4 ADD MSTORE POP POP POP JUMP JUMPDEST PUSH1 0x0 PUSH2 0x1AFC PUSH2 0x1AF7 DUP5 PUSH2 0x1AA9 JUMP JUMPDEST PUSH2 0x1A8E JUMP JUMPDEST SWAP1 POP DUP3 DUP2 MSTORE PUSH1 0x20 DUP2 ADD DUP5 DUP5 DUP5 ADD GT ISZERO PUSH2 0x1B18 JUMPI PUSH2 0x1B17 PUSH2 0x1A29 JUMP JUMPDEST JUMPDEST PUSH2 0x1B23 DUP5 DUP3 DUP6 PUSH2 0x1ADA JUMP JUMPDEST POP SWAP4 SWAP3 POP POP POP JUMP JUMPDEST PUSH1 0x0 DUP3 PUSH1 0x1F DUP4 ADD SLT PUSH2 0x1B40 JUMPI PUSH2 0x1B3F PUSH2 0x1A24 JUMP JUMPDEST JUMPDEST DUP2 CALLDATALOAD PUSH2 0x1B50 DUP5 DUP3 PUSH1 0x20 DUP7 ADD PUSH2 0x1AE9 JUMP JUMPDEST SWAP2 POP POP SWAP3 SWAP2 POP POP JUMP JUMPDEST PUSH1 0x0 PUSH1 0x20 DUP3 DUP5 SUB SLT ISZERO PUSH2 0x1B6F JUMPI PUSH2 0x1B6E PUSH2 0x1856 JUMP JUMPDEST JUMPDEST PUSH1 0x0 DUP3 ADD CALLDATALOAD PUSH8 0xFFFFFFFFFFFFFFFF DUP2 GT ISZERO PUSH2 0x1B8D JUMPI PUSH2 0x1B8C PUSH2 0x185B JUMP JUMPDEST JUMPDEST PUSH2 0x1B99 DUP5 DUP3 DUP6 ADD PUSH2 0x1B2B JUMP JUMPDEST SWAP2 POP POP SWAP3 SWAP2 POP POP JUMP JUMPDEST PUSH1 0x0 PUSH20 0xFFFFFFFFFFFFFFFFFFFFFFFFFFFFFFFFFFFFFFFF DUP3 AND SWAP1 POP SWAP2 SWAP1 POP JUMP JUMPDEST PUSH1 0x0 PUSH2 0x1BCD DUP3 PUSH2 0x1BA2 JUMP JUMPDEST SWAP1 POP SWAP2 SWAP1 POP JUMP JUMPDEST PUSH2 0x1BDD DUP2 PUSH2 0x1BC2 JUMP JUMPDEST DUP2 EQ PUSH2 0x1BE8 JUMPI PUSH1 0x0 DUP1 REVERT JUMPDEST POP JUMP JUMPDEST PUSH1 0x0 DUP2 CALLDATALOAD SWAP1 POP PUSH2 0x1BFA DUP2 PUSH2 0x1BD4 JUMP JUMPDEST SWAP3 SWAP2 POP POP JUMP JUMPDEST PUSH1 0x0 PUSH1 0x20 DUP3 DUP5 SUB SLT ISZERO PUSH2 0x1C16 JUMPI PUSH2 0x1C15 PUSH2 0x1856 JUMP JUMPDEST JUMPDEST PUSH1 0x0 PUSH2 0x1C24 DUP5 DUP3 DUP6 ADD PUSH2 0x1BEB JUMP JUMPDEST SWAP2 POP POP SWAP3 SWAP2 POP POP JUMP JUMPDEST PUSH1 0x0 DUP2 MLOAD SWAP1 POP SWAP2 SWAP1 POP JUMP JUMPDEST PUSH1 0x0 DUP3 DUP3 MSTORE PUSH1 0x20 DUP3 ADD SWAP1 POP SWAP3 SWAP2 POP POP JUMP JUMPDEST PUSH1 0x0 DUP2 SWAP1 POP PUSH1 0x20 DUP3 ADD SWAP1 POP SWAP2 SWAP1 POP JUMP JUMPDEST PUSH1 0x0 DUP3 DUP3 MSTORE PUSH1 0x20 DUP3 ADD SWAP1 POP SWAP3 SWAP2 POP POP JUMP JUMPDEST PUSH1 0x0 PUSH2 0x1C75 DUP3 PUSH2 0x18C3 JUMP JUMPDEST PUSH2 0x1C7F DUP2 DUP6 PUSH2 0x1C59 JUMP JUMPDEST SWAP4 POP PUSH2 0x1C8F DUP2 DUP6 PUSH1 0x20 DUP7 ADD PUSH2 0x18DF JUMP JUMPDEST PUSH2 0x1C98 DUP2 PUSH2 0x1909 JUMP JUMPDEST DUP5 ADD SWAP2 POP POP SWAP3 SWAP2 POP POP JUMP JUMPDEST PUSH2 0x1CAC DUP2 PUSH2 0x1860 JUMP JUMPDEST DUP3 MSTORE POP POP JUMP JUMPDEST PUSH1 0x0 PUSH1 0x40 DUP4 ADD PUSH1 0x0 DUP4 ADD MLOAD DUP5 DUP3 SUB PUSH1 0x0 DUP7 ADD MSTORE PUSH2 0x1CCF DUP3 DUP3 PUSH2 0x1C6A JUMP JUMPDEST SWAP2 POP POP PUSH1 0x20 DUP4 ADD MLOAD PUSH2 0x1CE4 PUSH1 0x20 DUP7 ADD DUP3 PUSH2 0x1CA3 JUMP JUMPDEST POP DUP1 SWAP2 POP POP SWAP3 SWAP2 POP POP JUMP JUMPDEST PUSH1 0x0 PUSH2 0x1CFB DUP4 DUP4 PUSH2 0x1CB2 JUMP JUMPDEST SWAP1 POP SWAP3 SWAP2 POP POP JUMP JUMPDEST PUSH1 0x0 PUSH1 0x20 DUP3 ADD SWAP1 POP SWAP2 SWAP1 POP JUMP JUMPDEST PUSH1 0x0 PUSH2 0x1D1B DUP3 PUSH2 0x1C2D JUMP JUMPDEST PUSH2 0x1D25 DUP2 DUP6 PUSH2 0x1C38 JUMP JUMPDEST SWAP4 POP DUP4 PUSH1 0x20 DUP3 MUL DUP6 ADD PUSH2 0x1D37 DUP6 PUSH2 0x1C49 JUMP JUMPDEST DUP1 PUSH1 0x0 JUMPDEST DUP6 DUP2 LT ISZERO PUSH2 0x1D73 JUMPI DUP5 DUP5 SUB DUP10 MSTORE DUP2 MLOAD PUSH2 0x1D54 DUP6 DUP3 PUSH2 0x1CEF JUMP JUMPDEST SWAP5 POP PUSH2 0x1D5F DUP4 PUSH2 0x1D03 JUMP JUMPDEST SWAP3 POP PUSH1 0x20 DUP11 ADD SWAP10 POP POP PUSH1 0x1 DUP2 ADD SWAP1 POP PUSH2 0x1D3B JUMP JUMPDEST POP DUP3 SWAP8 POP DUP8 SWAP6 POP POP POP POP POP POP SWAP3 SWAP2 POP POP JUMP JUMPDEST PUSH1 0x0 PUSH1 0x20 DUP3 ADD SWAP1 POP DUP2 DUP2 SUB PUSH1 0x0 DUP4 ADD MSTORE PUSH2 0x1D9F DUP2 DUP5 PUSH2 0x1D10 JUMP JUMPDEST SWAP1 POP SWAP3 SWAP2 POP POP JUMP JUMPDEST PUSH2 0x1DB0 DUP2 PUSH2 0x1BC2 JUMP JUMPDEST DUP3 MSTORE POP POP JUMP JUMPDEST PUSH1 0x0 PUSH1 0x20 DUP3 ADD SWAP1 POP PUSH2 0x1DCB PUSH1 0x0 DUP4 ADD DUP5 PUSH2 0x1DA7 JUMP JUMPDEST SWAP3 SWAP2 POP POP JUMP JUMPDEST PUSH1 0x0 PUSH1 0x40 DUP4 ADD PUSH1 0x0 DUP4 ADD MLOAD DUP5 DUP3 SUB PUSH1 0x0 DUP7 ADD MSTORE PUSH2 0x1DEE DUP3 DUP3 PUSH2 0x1C6A JUMP JUMPDEST SWAP2 POP POP PUSH1 0x20 DUP4 ADD MLOAD PUSH2 0x1E03 PUSH1 0x20 DUP7 ADD DUP3 PUSH2 0x1CA3 JUMP JUMPDEST POP DUP1 SWAP2 POP POP SWAP3 SWAP2 POP POP JUMP JUMPDEST PUSH1 0x0 PUSH1 0x20 DUP3 ADD SWAP1 POP DUP2 DUP2 SUB PUSH1 0x0 DUP4 ADD MSTORE PUSH2 0x1E28 DUP2 DUP5 PUSH2 0x1DD1 JUMP JUMPDEST SWAP1 POP SWAP3 SWAP2 POP POP JUMP JUMPDEST PUSH1 0x0 PUSH1 0x20 DUP3 ADD SWAP1 POP DUP2 DUP2 SUB PUSH1 0x0 DUP4 ADD MSTORE PUSH2 0x1E4A DUP2 DUP5 PUSH2 0x191A JUMP JUMPDEST SWAP1 POP SWAP3 SWAP2 POP POP JUMP JUMPDEST PUSH1 0x0 PUSH8 0xFFFFFFFFFFFFFFFF DUP3 GT ISZERO PUSH2 0x1E6D JUMPI PUSH2 0x1E6C PUSH2 0x1A2E JUMP JUMPDEST JUMPDEST PUSH1 0x20 DUP3 MUL SWAP1 POP PUSH1 0x20 DUP2 ADD SWAP1 POP SWAP2 SWAP1 POP JUMP JUMPDEST PUSH1 0x0 DUP1 REVERT JUMPDEST PUSH1 0x0 PUSH2 0x1E96 PUSH2 0x1E91 DUP5 PUSH2 0x1E52 JUMP JUMPDEST PUSH2 0x1A8E JUMP JUMPDEST SWAP1 POP DUP1 DUP4 DUP3 MSTORE PUSH1 0x20 DUP3 ADD SWAP1 POP PUSH1 0x20 DUP5 MUL DUP4 ADD DUP6 DUP2 GT ISZERO PUSH2 0x1EB9 JUMPI PUSH2 0x1EB8 PUSH2 0x1E7E JUMP JUMPDEST JUMPDEST DUP4 JUMPDEST DUP2 DUP2 LT ISZERO PUSH2 0x1EE2 JUMPI DUP1 PUSH2 0x1ECE DUP9 DUP3 PUSH2 0x1BEB JUMP JUMPDEST DUP5 MSTORE PUSH1 0x20 DUP5 ADD SWAP4 POP POP PUSH1 0x20 DUP2 ADD SWAP1 POP PUSH2 0x1EBB JUMP JUMPDEST POP POP POP SWAP4 SWAP3 POP POP POP JUMP JUMPDEST PUSH1 0x0 DUP3 PUSH1 0x1F DUP4 ADD SLT PUSH2 0x1F01 JUMPI PUSH2 0x1F00 PUSH2 0x1A24 JUMP JUMPDEST JUMPDEST DUP2 CALLDATALOAD PUSH2 0x1F11 DUP5 DUP3 PUSH1 0x20 DUP7 ADD PUSH2 0x1E83 JUMP JUMPDEST SWAP2 POP POP SWAP3 SWAP2 POP POP JUMP JUMPDEST PUSH1 0x0 PUSH1 0x20 DUP3 DUP5 SUB SLT ISZERO PUSH2 0x1F30 JUMPI PUSH2 0x1F2F PUSH2 0x1856 JUMP JUMPDEST JUMPDEST PUSH1 0x0 DUP3 ADD CALLDATALOAD PUSH8 0xFFFFFFFFFFFFFFFF DUP2 GT ISZERO PUSH2 0x1F4E JUMPI PUSH2 0x1F4D PUSH2 0x185B JUMP JUMPDEST JUMPDEST PUSH2 0x1F5A DUP5 DUP3 DUP6 ADD PUSH2 0x1EEC JUMP JUMPDEST SWAP2 POP POP SWAP3 SWAP2 POP POP JUMP JUMPDEST PUSH32 0x4E487B7100000000000000000000000000000000000000000000000000000000 PUSH1 0x0 MSTORE PUSH1 0x22 PUSH1 0x4 MSTORE PUSH1 0x24 PUSH1 0x0 REVERT JUMPDEST PUSH1 0x0 PUSH1 0x2 DUP3 DIV SWAP1 POP PUSH1 0x1 DUP3 AND DUP1 PUSH2 0x1FAA JUMPI PUSH1 0x7F DUP3 AND SWAP2 POP JUMPDEST PUSH1 0x20 DUP3 LT DUP2 SUB PUSH2 0x1FBD JUMPI PUSH2 0x1FBC PUSH2 0x1F63 JUMP JUMPDEST JUMPDEST POP SWAP2 SWAP1 POP JUMP JUMPDEST PUSH32 0x4E487B7100000000000000000000000000000000000000000000000000000000 PUSH1 0x0 MSTORE PUSH1 0x32 PUSH1 0x4 MSTORE PUSH1 0x24 PUSH1 0x0 REVERT JUMPDEST PUSH32 0x4E487B7100000000000000000000000000000000000000000000000000000000 PUSH1 0x0 MSTORE PUSH1 0x11 PUSH1 0x4 MSTORE PUSH1 0x24 PUSH1 0x0 REVERT JUMPDEST PUSH1 0x0 PUSH2 0x202C DUP3 PUSH2 0x1860 JUMP JUMPDEST SWAP2 POP PUSH32 0xFFFFFFFFFFFFFFFFFFFFFFFFFFFFFFFFFFFFFFFFFFFFFFFFFFFFFFFFFFFFFFFF DUP3 SUB PUSH2 0x205E JUMPI PUSH2 0x205D PUSH2 0x1FF2 JUMP JUMPDEST JUMPDEST PUSH1 0x1 DUP3 ADD SWAP1 POP SWAP2 SWAP1 POP JUMP JUMPDEST PUSH1 0x0 DUP2 SWAP1 POP DUP2 PUSH1 0x0 MSTORE PUSH1 0x20 PUSH1 0x0 KECCAK256 SWAP1 POP SWAP2 SWAP1 POP JUMP JUMPDEST PUSH1 0x0 PUSH1 0x20 PUSH1 0x1F DUP4 ADD DIV SWAP1 POP SWAP2 SWAP1 POP JUMP JUMPDEST PUSH1 0x0 DUP3 DUP3 SHL SWAP1 POP SWAP3 SWAP2 POP POP JUMP JUMPDEST PUSH1 0x0 PUSH1 0x8 DUP4 MUL PUSH2 0x20CB PUSH32 0xFFFFFFFFFFFFFFFFFFFFFFFFFFFFFFFFFFFFFFFFFFFFFFFFFFFFFFFFFFFFFFFF DUP3 PUSH2 0x208E JUMP JUMPDEST PUSH2 0x20D5 DUP7 DUP4 PUSH2 0x208E JUMP JUMPDEST SWAP6 POP DUP1 NOT DUP5 AND SWAP4 POP DUP1 DUP7 AND DUP5 OR SWAP3 POP POP POP SWAP4 SWAP3 POP POP POP JUMP JUMPDEST PUSH1 0x0 DUP2 SWAP1 POP SWAP2 SWAP1 POP JUMP JUMPDEST PUSH1 0x0 PUSH2 0x2112 PUSH2 0x210D PUSH2 0x2108 DUP5 PUSH2 0x1860 JUMP JUMPDEST PUSH2 0x20ED JUMP JUMPDEST PUSH2 0x1860 JUMP JUMPDEST SWAP1 POP SWAP2 SWAP1 POP JUMP JUMPDEST PUSH1 0x0 DUP2 SWAP1 POP SWAP2 SWAP1 POP JUMP JUMPDEST PUSH2 0x212C DUP4 PUSH2 0x20F7 JUMP JUMPDEST PUSH2 0x2140 PUSH2 0x2138 DUP3 PUSH2 0x2119 JUMP JUMPDEST DUP5 DUP5 SLOAD PUSH2 0x209B JUMP JUMPDEST DUP3 SSTORE POP POP POP POP JUMP JUMPDEST PUSH1 0x0 SWAP1 JUMP JUMPDEST PUSH2 0x2155 PUSH2 0x2148 JUMP JUMPDEST PUSH2 0x2160 DUP2 DUP5 DUP5 PUSH2 0x2123 JUMP JUMPDEST POP POP POP JUMP JUMPDEST JUMPDEST DUP2 DUP2 LT ISZERO PUSH2 0x2184 JUMPI PUSH2 0x2179 PUSH1 0x0 DUP3 PUSH2 0x214D JUMP JUMPDEST PUSH1 0x1 DUP2 ADD SWAP1 POP PUSH2 0x2166 JUMP JUMPDEST POP POP JUMP JUMPDEST PUSH1 0x1F DUP3 GT ISZERO PUSH2 0x21C9 JUMPI PUSH2 0x219A DUP2 PUSH2 0x2069 JUMP JUMPDEST PUSH2 0x21A3 DUP5 PUSH2 0x207E JUMP JUMPDEST DUP2 ADD PUSH1 0x20 DUP6 LT ISZERO PUSH2 0x21B2 JUMPI DUP2 SWAP1 POP JUMPDEST PUSH2 0x21C6 PUSH2 0x21BE DUP6 PUSH2 0x207E JUMP JUMPDEST DUP4 ADD DUP3 PUSH2 0x2165 JUMP JUMPDEST POP POP JUMPDEST POP POP POP JUMP JUMPDEST PUSH1 0x0 DUP3 DUP3 SHR SWAP1 POP SWAP3 SWAP2 POP POP JUMP JUMPDEST PUSH1 0x0 PUSH2 0x21EC PUSH1 0x0 NOT DUP5 PUSH1 0x8 MUL PUSH2 0x21CE JUMP JUMPDEST NOT DUP1 DUP4 AND SWAP2 POP POP SWAP3 SWAP2 POP POP JUMP JUMPDEST PUSH1 0x0 PUSH2 0x2205 DUP4 DUP4 PUSH2 0x21DB JUMP JUMPDEST SWAP2 POP DUP3 PUSH1 0x2 MUL DUP3 OR SWAP1 POP SWAP3 SWAP2 POP POP JUMP JUMPDEST PUSH2 0x221E DUP3 PUSH2 0x18C3 JUMP JUMPDEST PUSH8 0xFFFFFFFFFFFFFFFF DUP2 GT ISZERO PUSH2 0x2237 JUMPI PUSH2 0x2236 PUSH2 0x1A2E JUMP JUMPDEST JUMPDEST PUSH2 0x2241 DUP3 SLOAD PUSH2 0x1F92 JUMP JUMPDEST PUSH2 0x224C DUP3 DUP3 DUP6 PUSH2 0x2188 JUMP JUMPDEST PUSH1 0x0 PUSH1 0x20 SWAP1 POP PUSH1 0x1F DUP4 GT PUSH1 0x1 DUP2 EQ PUSH2 0x227F JUMPI PUSH1 0x0 DUP5 ISZERO PUSH2 0x226D JUMPI DUP3 DUP8 ADD MLOAD SWAP1 POP JUMPDEST PUSH2 0x2277 DUP6 DUP3 PUSH2 0x21F9 JUMP JUMPDEST DUP7 SSTORE POP PUSH2 0x22DF JUMP JUMPDEST PUSH1 0x1F NOT DUP5 AND PUSH2 0x228D DUP7 PUSH2 0x2069 JUMP JUMPDEST PUSH1 0x0 JUMPDEST DUP3 DUP2 LT ISZERO PUSH2 0x22B5 JUMPI DUP5 DUP10 ADD MLOAD DUP3 SSTORE PUSH1 0x1 DUP3 ADD SWAP2 POP PUSH1 0x20 DUP6 ADD SWAP5 POP PUSH1 0x20 DUP2 ADD SWAP1 POP PUSH2 0x2290 JUMP JUMPDEST DUP7 DUP4 LT ISZERO PUSH2 0x22D2 JUMPI DUP5 DUP10 ADD MLOAD PUSH2 0x22CE PUSH1 0x1F DUP10 AND DUP3 PUSH2 0x21DB JUMP JUMPDEST DUP4 SSTORE POP JUMPDEST PUSH1 0x1 PUSH1 0x2 DUP9 MUL ADD DUP9 SSTORE POP POP POP JUMPDEST POP POP POP POP POP POP JUMP JUMPDEST PUSH1 0x0 PUSH2 0x22F2 DUP3 PUSH2 0x1860 JUMP JUMPDEST SWAP2 POP PUSH2 0x22FD DUP4 PUSH2 0x1860 JUMP JUMPDEST SWAP3 POP DUP3 DUP3 SUB SWAP1 POP DUP2 DUP2 GT ISZERO PUSH2 0x2315 JUMPI PUSH2 0x2314 PUSH2 0x1FF2 JUMP JUMPDEST JUMPDEST SWAP3 SWAP2 POP POP JUMP JUMPDEST PUSH1 0x0 PUSH1 0x20 DUP3 ADD SWAP1 POP PUSH2 0x2330 PUSH1 0x0 DUP4 ADD DUP5 PUSH2 0x1953 JUMP JUMPDEST SWAP3 SWAP2 POP POP JUMP JUMPDEST PUSH32 0x566F74657220697320616C72656164792077686974656C697374656400000000 PUSH1 0x0 DUP3 ADD MSTORE POP JUMP JUMPDEST PUSH1 0x0 PUSH2 0x236C PUSH1 0x1C DUP4 PUSH2 0x18CE JUMP JUMPDEST SWAP2 POP PUSH2 0x2377 DUP3 PUSH2 0x2336 JUMP JUMPDEST PUSH1 0x20 DUP3 ADD SWAP1 POP SWAP2 SWAP1 POP JUMP JUMPDEST PUSH1 0x0 PUSH1 0x20 DUP3 ADD SWAP1 POP DUP2 DUP2 SUB PUSH1 0x0 DUP4 ADD MSTORE PUSH2 0x239B DUP2 PUSH2 0x235F JUMP JUMPDEST SWAP1 POP SWAP2 SWAP1 POP JUMP JUMPDEST PUSH32 0x546869732075736572206469646E277420766F74650000000000000000000000 PUSH1 0x0 DUP3 ADD MSTORE POP JUMP JUMPDEST PUSH1 0x0 PUSH2 0x23D8 PUSH1 0x15 DUP4 PUSH2 0x18CE JUMP JUMPDEST SWAP2 POP PUSH2 0x23E3 DUP3 PUSH2 0x23A2 JUMP JUMPDEST PUSH1 0x20 DUP3 ADD SWAP1 POP SWAP2 SWAP1 POP JUMP JUMPDEST PUSH1 0x0 PUSH1 0x20 DUP3 ADD SWAP1 POP DUP2 DUP2 SUB PUSH1 0x0 DUP4 ADD MSTORE PUSH2 0x2407 DUP2 PUSH2 0x23CB JUMP JUMPDEST SWAP1 POP SWAP2 SWAP1 POP JUMP JUMPDEST PUSH32 0x4F776E61626C653A206E6577206F776E657220697320746865207A65726F2061 PUSH1 0x0 DUP3 ADD MSTORE PUSH32 0x6464726573730000000000000000000000000000000000000000000000000000 PUSH1 0x20 DUP3 ADD MSTORE POP JUMP JUMPDEST PUSH1 0x0 PUSH2 0x246A PUSH1 0x26 DUP4 PUSH2 0x18CE JUMP JUMPDEST SWAP2 POP PUSH2 0x2475 DUP3 PUSH2 0x240E JUMP JUMPDEST PUSH1 0x40 DUP3 ADD SWAP1 POP SWAP2 SWAP1 POP JUMP JUMPDEST PUSH1 0x0 PUSH1 0x20 DUP3 ADD SWAP1 POP DUP2 DUP2 SUB PUSH1 0x0 DUP4 ADD MSTORE PUSH2 0x2499 DUP2 PUSH2 0x245D JUMP JUMPDEST SWAP1 POP SWAP2 SWAP1 POP JUMP JUMPDEST PUSH32 0x596F75206861766520616C726561647920766F7465642E204F6E6C79206F6E65 PUSH1 0x0 DUP3 ADD MSTORE PUSH32 0x20766F746520697320616C6C6F77656400000000000000000000000000000000 PUSH1 0x20 DUP3 ADD MSTORE POP JUMP JUMPDEST PUSH1 0x0 PUSH2 0x24FC PUSH1 0x30 DUP4 PUSH2 0x18CE JUMP JUMPDEST SWAP2 POP PUSH2 0x2507 DUP3 PUSH2 0x24A0 JUMP JUMPDEST PUSH1 0x40 DUP3 ADD SWAP1 POP SWAP2 SWAP1 POP JUMP JUMPDEST PUSH1 0x0 PUSH1 0x20 DUP3 ADD SWAP1 POP DUP2 DUP2 SUB PUSH1 0x0 DUP4 ADD MSTORE PUSH2 0x252B DUP2 PUSH2 0x24EF JUMP JUMPDEST SWAP1 POP SWAP2 SWAP1 POP JUMP JUMPDEST PUSH32 0x50726F706F73616C20496420646F65736E27742065786973742E20506C656173 PUSH1 0x0 DUP3 ADD MSTORE PUSH32 0x652073656C65637420612076616C69642070726F706F73616C20496400000000 PUSH1 0x20 DUP3 ADD MSTORE POP JUMP JUMPDEST PUSH1 0x0 PUSH2 0x258E PUSH1 0x3C DUP4 PUSH2 0x18CE JUMP JUMPDEST SWAP2 POP PUSH2 0x2599 DUP3 PUSH2 0x2532 JUMP JUMPDEST PUSH1 0x40 DUP3 ADD SWAP1 POP SWAP2 SWAP1 POP JUMP JUMPDEST PUSH1 0x0 PUSH1 0x20 DUP3 ADD SWAP1 POP DUP2 DUP2 SUB PUSH1 0x0 DUP4 ADD MSTORE PUSH2 0x25BD DUP2 PUSH2 0x2581 JUMP JUMPDEST SWAP1 POP SWAP2 SWAP1 POP JUMP JUMPDEST PUSH1 0x0 PUSH1 0x40 DUP3 ADD SWAP1 POP PUSH2 0x25D9 PUSH1 0x0 DUP4 ADD DUP6 PUSH2 0x1DA7 JUMP JUMPDEST PUSH2 0x25E6 PUSH1 0x20 DUP4 ADD DUP5 PUSH2 0x1953 JUMP JUMPDEST SWAP4 SWAP3 POP POP POP JUMP JUMPDEST PUSH32 0x4F776E61626C653A2063616C6C6572206973206E6F7420746865206F776E6572 PUSH1 0x0 DUP3 ADD MSTORE POP JUMP JUMPDEST PUSH1 0x0 PUSH2 0x2623 PUSH1 0x20 DUP4 PUSH2 0x18CE JUMP JUMPDEST SWAP2 POP PUSH2 0x262E DUP3 PUSH2 0x25ED JUMP JUMPDEST PUSH1 0x20 DUP3 ADD SWAP1 POP SWAP2 SWAP1 POP JUMP JUMPDEST PUSH1 0x0 PUSH1 0x20 DUP3 ADD SWAP1 POP DUP2 DUP2 SUB PUSH1 0x0 DUP4 ADD MSTORE PUSH2 0x2652 DUP2 PUSH2 0x2616 JUMP JUMPDEST SWAP1 POP SWAP2 SWAP1 POP JUMP JUMPDEST PUSH32 0x566F74696E67206973206E6F7420636C6F736564206F7220766F74657320636F PUSH1 0x0 DUP3 ADD MSTORE PUSH32 0x756E7420697320616C726561647920646F6E6500000000000000000000000000 PUSH1 0x20 DUP3 ADD MSTORE POP JUMP JUMPDEST PUSH1 0x0 PUSH2 0x26B5 PUSH1 0x33 DUP4 PUSH2 0x18CE JUMP JUMPDEST SWAP2 POP PUSH2 0x26C0 DUP3 PUSH2 0x2659 JUMP JUMPDEST PUSH1 0x40 DUP3 ADD SWAP1 POP SWAP2 SWAP1 POP JUMP JUMPDEST PUSH1 0x0 PUSH1 0x20 DUP3 ADD SWAP1 POP DUP2 DUP2 SUB PUSH1 0x0 DUP4 ADD MSTORE PUSH2 0x26E4 DUP2 PUSH2 0x26A8 JUMP JUMPDEST SWAP1 POP SWAP2 SWAP1 POP JUMP JUMPDEST PUSH1 0x0 PUSH1 0x40 DUP3 ADD SWAP1 POP PUSH2 0x2700 PUSH1 0x0 DUP4 ADD DUP6 PUSH2 0x19FA JUMP JUMPDEST PUSH2 0x270D PUSH1 0x20 DUP4 ADD DUP5 PUSH2 0x19FA JUMP JUMPDEST SWAP4 SWAP3 POP POP POP JUMP JUMPDEST PUSH32 0x4F6E6C792077686974656C697374656420766F74657273206172652061757468 PUSH1 0x0 DUP3 ADD MSTORE PUSH32 0x6F72697A656420746F20646F207468697320616374696F6E2E00000000000000 PUSH1 0x20 DUP3 ADD MSTORE POP JUMP JUMPDEST PUSH1 0x0 PUSH2 0x2770 PUSH1 0x39 DUP4 PUSH2 0x18CE JUMP JUMPDEST SWAP2 POP PUSH2 0x277B DUP3 PUSH2 0x2714 JUMP JUMPDEST PUSH1 0x40 DUP3 ADD SWAP1 POP SWAP2 SWAP1 POP JUMP JUMPDEST PUSH1 0x0 PUSH1 0x20 DUP3 ADD SWAP1 POP DUP2 DUP2 SUB PUSH1 0x0 DUP4 ADD MSTORE PUSH2 0x279F DUP2 PUSH2 0x2763 JUMP JUMPDEST SWAP1 POP SWAP2 SWAP1 POP JUMP JUMPDEST PUSH32 0x50726F706F73616C20726567697374726174696F6E20697320636C6F7365642E PUSH1 0x0 DUP3 ADD MSTORE POP JUMP JUMPDEST PUSH1 0x0 PUSH2 0x27DC PUSH1 0x20 DUP4 PUSH2 0x18CE JUMP JUMPDEST SWAP2 POP PUSH2 0x27E7 DUP3 PUSH2 0x27A6 JUMP JUMPDEST PUSH1 0x20 DUP3 ADD SWAP1 POP SWAP2 SWAP1 POP JUMP JUMPDEST PUSH1 0x0 PUSH1 0x20 DUP3 ADD SWAP1 POP DUP2 DUP2 SUB PUSH1 0x0 DUP4 ADD MSTORE PUSH2 0x280B DUP2 PUSH2 0x27CF JUMP JUMPDEST SWAP1 POP SWAP2 SWAP1 POP JUMP JUMPDEST PUSH32 0x526567697374726174696F6E20706572696F6420666F7220766F746572206973 PUSH1 0x0 DUP3 ADD MSTORE PUSH32 0x20636C6F7365642E000000000000000000000000000000000000000000000000 PUSH1 0x20 DUP3 ADD MSTORE POP JUMP JUMPDEST PUSH1 0x0 PUSH2 0x286E PUSH1 0x28 DUP4 PUSH2 0x18CE JUMP JUMPDEST SWAP2 POP PUSH2 0x2879 DUP3 PUSH2 0x2812 JUMP JUMPDEST PUSH1 0x40 DUP3 ADD SWAP1 POP SWAP2 SWAP1 POP JUMP JUMPDEST PUSH1 0x0 PUSH1 0x20 DUP3 ADD SWAP1 POP DUP2 DUP2 SUB PUSH1 0x0 DUP4 ADD MSTORE PUSH2 0x289D DUP2 PUSH2 0x2861 JUMP JUMPDEST SWAP1 POP SWAP2 SWAP1 POP JUMP JUMPDEST PUSH32 0x566F74657320636F756E74206973206E6F742079657420646F6E650000000000 PUSH1 0x0 DUP3 ADD MSTORE POP JUMP JUMPDEST PUSH1 0x0 PUSH2 0x28DA PUSH1 0x1B DUP4 PUSH2 0x18CE JUMP JUMPDEST SWAP2 POP PUSH2 0x28E5 DUP3 PUSH2 0x28A4 JUMP JUMPDEST PUSH1 0x20 DUP3 ADD SWAP1 POP SWAP2 SWAP1 POP JUMP JUMPDEST PUSH1 0x0 PUSH1 0x20 DUP3 ADD SWAP1 POP DUP2 DUP2 SUB PUSH1 0x0 DUP4 ADD MSTORE PUSH2 0x2909 DUP2 PUSH2 0x28CD JUMP JUMPDEST SWAP1 POP SWAP2 SWAP1 POP JUMP JUMPDEST PUSH32 0x566F74696E672073657373696F6E20697320636C6F7365642E00000000000000 PUSH1 0x0 DUP3 ADD MSTORE POP JUMP JUMPDEST PUSH1 0x0 PUSH2 0x2946 PUSH1 0x19 DUP4 PUSH2 0x18CE JUMP JUMPDEST SWAP2 POP PUSH2 0x2951 DUP3 PUSH2 0x2910 JUMP JUMPDEST PUSH1 0x20 DUP3 ADD SWAP1 POP SWAP2 SWAP1 POP JUMP JUMPDEST PUSH1 0x0 PUSH1 0x20 DUP3 ADD SWAP1 POP DUP2 DUP2 SUB PUSH1 0x0 DUP4 ADD MSTORE PUSH2 0x2975 DUP2 PUSH2 0x2939 JUMP JUMPDEST SWAP1 POP SWAP2 SWAP1 POP JUMP JUMPDEST PUSH32 0x41637475616C20737461747573206973206E6F7420636F6D70617469626C6520 PUSH1 0x0 DUP3 ADD MSTORE PUSH32 0x7769746820796F75722063686F696365202863686F6F73652070726576696F75 PUSH1 0x20 DUP3 ADD MSTORE PUSH32 0x73206F6E65206F72206E657874206F6E65290000000000000000000000000000 PUSH1 0x40 DUP3 ADD MSTORE POP JUMP JUMPDEST PUSH1 0x0 PUSH2 0x29FE PUSH1 0x52 DUP4 PUSH2 0x18CE JUMP JUMPDEST SWAP2 POP PUSH2 0x2A09 DUP3 PUSH2 0x297C JUMP JUMPDEST PUSH1 0x60 DUP3 ADD SWAP1 POP SWAP2 SWAP1 POP JUMP JUMPDEST PUSH1 0x0 PUSH1 0x20 DUP3 ADD SWAP1 POP DUP2 DUP2 SUB PUSH1 0x0 DUP4 ADD MSTORE PUSH2 0x2A2D DUP2 PUSH2 0x29F1 JUMP JUMPDEST SWAP1 POP SWAP2 SWAP1 POP JUMP INVALID LOG2 PUSH5 0x6970667358 0x22 SLT KECCAK256 OR 0xAE SLT 0xF7 0xE0 SWAP13 0xF7 DUP14 PUSH9 0xA4E1E9359E8F1801B9 NUMBER 0x5D DIV 0xCA CALLDATACOPY LOG3 DUP11 0xC5 LOG4 0x1F 0xB8 PUSH3 0x23F364 PUSH20 0x6F6C634300081200330000000000000000000000 "
				},
				"gasEstimates": {
					"creation": {
						"codeDepositCost": "2171600",
						"executionCost": "infinite",
						"totalCost": "infinite"
					},
					"external": {
						"StartProposalsRegistration()": "infinite",
						"StartRegisteringVoters()": "infinite",
						"StartVotingSession()": "infinite",
						"StopProposalsRegistration()": "infinite",
						"StopVotingSession()": "infinite",
						"discoverWinningProposal()": "infinite",
						"getProposalVotedForUser(address)": "infinite",
						"getProposals()": "infinite",
						"getWinningProposalDetails()": "infinite",
						"owner()": "2611",
						"proposals(uint256)": "infinite",
						"registerProposal(string)": "infinite",
						"registerVoter(address)": "infinite",
						"registerVoters(address[])": "infinite",
						"renounceOwnership()": "30421",
						"status()": "2583",
						"transferOwnership(address)": "30832",
						"voting(uint256)": "infinite"
					},
					"internal": {
						"_isConsistantStatus(enum Voting.WorkflowStatus)": "infinite",
						"_isProposalsRegistrationStarted()": "infinite",
						"_isRegisteringVotersStatus()": "infinite",
						"_isVotesTallied()": "infinite",
						"_isVotingSessionEnded()": "infinite",
						"_isVotingSessionStarted()": "infinite",
						"_isWhitelisted()": "infinite",
						"setStatus(enum Voting.WorkflowStatus)": "infinite"
					}
				},
				"methodIdentifiers": {
					"StartProposalsRegistration()": "7b3d7042",
					"StartRegisteringVoters()": "11f80b4f",
					"StartVotingSession()": "1bcb1eed",
					"StopProposalsRegistration()": "6f475856",
					"StopVotingSession()": "7f320070",
					"discoverWinningProposal()": "0c491a3a",
					"getProposalVotedForUser(address)": "b741bb7c",
					"getProposals()": "62564c48",
					"getWinningProposalDetails()": "b11accff",
					"owner()": "8da5cb5b",
					"proposals(uint256)": "013cf08b",
					"registerProposal(string)": "2f95355b",
					"registerVoter(address)": "38db6dd3",
					"registerVoters(address[])": "d55ec9c1",
					"renounceOwnership()": "715018a6",
					"status()": "200d2ed2",
					"transferOwnership(address)": "f2fde38b",
					"voting(uint256)": "fd4a77f1"
				}
			},
			"storageLayout": {
				"storage": [
					{
						"astId": 7,
						"contract": "Voting/Voting.sol:Voting",
						"label": "_owner",
						"offset": 0,
						"slot": "0",
						"type": "t_address"
					},
					{
						"astId": 163,
						"contract": "Voting/Voting.sol:Voting",
						"label": "whitelist",
						"offset": 0,
						"slot": "1",
						"type": "t_mapping(t_address,t_struct(Voter)153_storage)"
					},
					{
						"astId": 167,
						"contract": "Voting/Voting.sol:Voting",
						"label": "proposals",
						"offset": 0,
						"slot": "2",
						"type": "t_array(t_struct(Proposal)158_storage)dyn_storage"
					},
					{
						"astId": 170,
						"contract": "Voting/Voting.sol:Voting",
						"label": "status",
						"offset": 0,
						"slot": "3",
						"type": "t_enum(WorkflowStatus)146"
					},
					{
						"astId": 172,
						"contract": "Voting/Voting.sol:Voting",
						"label": "winningProposalId",
						"offset": 0,
						"slot": "4",
						"type": "t_uint256"
					}
				],
				"types": {
					"t_address": {
						"encoding": "inplace",
						"label": "address",
						"numberOfBytes": "20"
					},
					"t_array(t_struct(Proposal)158_storage)dyn_storage": {
						"base": "t_struct(Proposal)158_storage",
						"encoding": "dynamic_array",
						"label": "struct Voting.Proposal[]",
						"numberOfBytes": "32"
					},
					"t_bool": {
						"encoding": "inplace",
						"label": "bool",
						"numberOfBytes": "1"
					},
					"t_enum(WorkflowStatus)146": {
						"encoding": "inplace",
						"label": "enum Voting.WorkflowStatus",
						"numberOfBytes": "1"
					},
					"t_mapping(t_address,t_struct(Voter)153_storage)": {
						"encoding": "mapping",
						"key": "t_address",
						"label": "mapping(address => struct Voting.Voter)",
						"numberOfBytes": "32",
						"value": "t_struct(Voter)153_storage"
					},
					"t_string_storage": {
						"encoding": "bytes",
						"label": "string",
						"numberOfBytes": "32"
					},
					"t_struct(Proposal)158_storage": {
						"encoding": "inplace",
						"label": "struct Voting.Proposal",
						"members": [
							{
								"astId": 155,
								"contract": "Voting/Voting.sol:Voting",
								"label": "description",
								"offset": 0,
								"slot": "0",
								"type": "t_string_storage"
							},
							{
								"astId": 157,
								"contract": "Voting/Voting.sol:Voting",
								"label": "voteCount",
								"offset": 0,
								"slot": "1",
								"type": "t_uint256"
							}
						],
						"numberOfBytes": "64"
					},
					"t_struct(Voter)153_storage": {
						"encoding": "inplace",
						"label": "struct Voting.Voter",
						"members": [
							{
								"astId": 148,
								"contract": "Voting/Voting.sol:Voting",
								"label": "isRegistered",
								"offset": 0,
								"slot": "0",
								"type": "t_bool"
							},
							{
								"astId": 150,
								"contract": "Voting/Voting.sol:Voting",
								"label": "hasVoted",
								"offset": 1,
								"slot": "0",
								"type": "t_bool"
							},
							{
								"astId": 152,
								"contract": "Voting/Voting.sol:Voting",
								"label": "votedProposalId",
								"offset": 0,
								"slot": "1",
								"type": "t_uint256"
							}
						],
						"numberOfBytes": "64"
					},
					"t_uint256": {
						"encoding": "inplace",
						"label": "uint256",
						"numberOfBytes": "32"
					}
				}
			},
			"userdoc": {
				"kind": "user",
				"methods": {},
				"version": 1
			}
		}
	}
}