{
	"Voting/Voting.sol": {
		"Voting": {
			"abi": [
				{
					"anonymous": false,
					"inputs": [
						{
							"indexed": true,
							"internalType": "address",
							"name": "previousOwner",
							"type": "address"
						},
						{
							"indexed": true,
							"internalType": "address",
							"name": "newOwner",
							"type": "address"
						}
					],
					"name": "OwnershipTransferred",
					"type": "event"
				},
				{
					"anonymous": false,
					"inputs": [
						{
							"indexed": false,
							"internalType": "uint256",
							"name": "proposalId",
							"type": "uint256"
						}
					],
					"name": "ProposalRegistered",
					"type": "event"
				},
				{
					"anonymous": false,
					"inputs": [
						{
							"indexed": false,
							"internalType": "address",
							"name": "voter",
							"type": "address"
						},
						{
							"indexed": false,
							"internalType": "uint256",
							"name": "proposalId",
							"type": "uint256"
						}
					],
					"name": "Voted",
					"type": "event"
				},
				{
					"anonymous": false,
					"inputs": [
						{
							"indexed": false,
							"internalType": "address",
							"name": "voterAddress",
							"type": "address"
						}
					],
					"name": "VoterRegistered",
					"type": "event"
				},
				{
					"anonymous": false,
					"inputs": [
						{
							"indexed": false,
							"internalType": "enum Voting.WorkflowStatus",
							"name": "previousStatus",
							"type": "uint8"
						},
						{
							"indexed": false,
							"internalType": "enum Voting.WorkflowStatus",
							"name": "newStatus",
							"type": "uint8"
						}
					],
					"name": "WorkflowStatusChange",
					"type": "event"
				},
				{
					"inputs": [],
					"name": "computeWinningProposal",
					"outputs": [],
					"stateMutability": "nonpayable",
					"type": "function"
				},
				{
					"inputs": [
						{
							"internalType": "address",
							"name": "_address",
							"type": "address"
						}
					],
					"name": "getProposaleVotedForUser",
					"outputs": [
						{
							"internalType": "string",
							"name": "",
							"type": "string"
						}
					],
					"stateMutability": "view",
					"type": "function"
				},
				{
					"inputs": [],
					"name": "getProposals",
					"outputs": [
						{
							"components": [
								{
									"internalType": "string",
									"name": "description",
									"type": "string"
								},
								{
									"internalType": "uint256",
									"name": "voteCount",
									"type": "uint256"
								}
							],
							"internalType": "struct Voting.Proposal[]",
							"name": "",
							"type": "tuple[]"
						}
					],
					"stateMutability": "view",
					"type": "function"
				},
				{
					"inputs": [],
					"name": "getWinningProposalDetails",
					"outputs": [
						{
							"components": [
								{
									"internalType": "string",
									"name": "description",
									"type": "string"
								},
								{
									"internalType": "uint256",
									"name": "voteCount",
									"type": "uint256"
								}
							],
							"internalType": "struct Voting.Proposal",
							"name": "",
							"type": "tuple"
						}
					],
					"stateMutability": "view",
					"type": "function"
				},
				{
					"inputs": [],
					"name": "owner",
					"outputs": [
						{
							"internalType": "address",
							"name": "",
							"type": "address"
						}
					],
					"stateMutability": "view",
					"type": "function"
				},
				{
					"inputs": [
						{
							"internalType": "uint256",
							"name": "",
							"type": "uint256"
						}
					],
					"name": "proposals",
					"outputs": [
						{
							"internalType": "string",
							"name": "description",
							"type": "string"
						},
						{
							"internalType": "uint256",
							"name": "voteCount",
							"type": "uint256"
						}
					],
					"stateMutability": "view",
					"type": "function"
				},
				{
					"inputs": [
						{
							"internalType": "string",
							"name": "_description",
							"type": "string"
						}
					],
					"name": "registerProposal",
					"outputs": [],
					"stateMutability": "nonpayable",
					"type": "function"
				},
				{
					"inputs": [
						{
							"internalType": "address",
							"name": "_voterAdress",
							"type": "address"
						}
					],
					"name": "registerVoter",
					"outputs": [],
					"stateMutability": "nonpayable",
					"type": "function"
				},
				{
					"inputs": [
						{
							"internalType": "address[]",
							"name": "_votersAdresses",
							"type": "address[]"
						}
					],
					"name": "registerVoters",
					"outputs": [],
					"stateMutability": "nonpayable",
					"type": "function"
				},
				{
					"inputs": [],
					"name": "renounceOwnership",
					"outputs": [],
					"stateMutability": "nonpayable",
					"type": "function"
				},
				{
					"inputs": [],
					"name": "status",
					"outputs": [
						{
							"internalType": "enum Voting.WorkflowStatus",
							"name": "",
							"type": "uint8"
						}
					],
					"stateMutability": "view",
					"type": "function"
				},
				{
					"inputs": [
						{
							"internalType": "address",
							"name": "newOwner",
							"type": "address"
						}
					],
					"name": "transferOwnership",
					"outputs": [],
					"stateMutability": "nonpayable",
					"type": "function"
				},
				{
					"inputs": [
						{
							"internalType": "uint256",
							"name": "_proposalId",
							"type": "uint256"
						}
					],
					"name": "voting",
					"outputs": [],
					"stateMutability": "nonpayable",
					"type": "function"
				},
				{
					"inputs": [
						{
							"internalType": "address",
							"name": "",
							"type": "address"
						}
					],
					"name": "whitelist",
					"outputs": [
						{
							"internalType": "bool",
							"name": "isRegistered",
							"type": "bool"
						},
						{
							"internalType": "bool",
							"name": "hasVoted",
							"type": "bool"
						},
						{
							"internalType": "uint256",
							"name": "votedProposalId",
							"type": "uint256"
						}
					],
					"stateMutability": "view",
					"type": "function"
				}
			],
			"devdoc": {
				"kind": "dev",
				"methods": {
					"owner()": {
						"details": "Returns the address of the current owner."
					},
					"renounceOwnership()": {
						"details": "Leaves the contract without owner. It will not be possible to call `onlyOwner` functions anymore. Can only be called by the current owner. NOTE: Renouncing ownership will leave the contract without an owner, thereby removing any functionality that is only available to the owner."
					},
					"transferOwnership(address)": {
						"details": "Transfers ownership of the contract to a new account (`newOwner`). Can only be called by the current owner."
					}
				},
				"version": 1
			},
			"evm": {
				"assembly": "    /* \"Voting/Voting.sol\":115:8445  contract Voting is Ownable {... */\n  mstore(0x40, 0x80)\n  callvalue\n  dup1\n  iszero\n  tag_1\n  jumpi\n  0x00\n  dup1\n  revert\ntag_1:\n  pop\n    /* \"@openzeppelin/contracts/access/Ownable.sol\":936:968  _transferOwnership(_msgSender()) */\n  tag_4\n    /* \"@openzeppelin/contracts/access/Ownable.sol\":955:967  _msgSender() */\n  tag_5\n    /* \"@openzeppelin/contracts/access/Ownable.sol\":955:965  _msgSender */\n  shl(0x20, tag_6)\n    /* \"@openzeppelin/contracts/access/Ownable.sol\":955:967  _msgSender() */\n  0x20\n  shr\n  jump\t// in\ntag_5:\n    /* \"@openzeppelin/contracts/access/Ownable.sol\":936:954  _transferOwnership */\n  shl(0x20, tag_7)\n    /* \"@openzeppelin/contracts/access/Ownable.sol\":936:968  _transferOwnership(_msgSender()) */\n  0x20\n  shr\n  jump\t// in\ntag_4:\n    /* \"Voting/Voting.sol\":115:8445  contract Voting is Ownable {... */\n  jump(tag_8)\n    /* \"@openzeppelin/contracts/utils/Context.sol\":640:736  function _msgSender() internal view virtual returns (address) {... */\ntag_6:\n    /* \"@openzeppelin/contracts/utils/Context.sol\":693:700  address */\n  0x00\n    /* \"@openzeppelin/contracts/utils/Context.sol\":719:729  msg.sender */\n  caller\n    /* \"@openzeppelin/contracts/utils/Context.sol\":712:729  return msg.sender */\n  swap1\n  pop\n    /* \"@openzeppelin/contracts/utils/Context.sol\":640:736  function _msgSender() internal view virtual returns (address) {... */\n  swap1\n  jump\t// out\n    /* \"@openzeppelin/contracts/access/Ownable.sol\":2433:2620  function _transferOwnership(address newOwner) internal virtual {... */\ntag_7:\n    /* \"@openzeppelin/contracts/access/Ownable.sol\":2506:2522  address oldOwner */\n  0x00\n    /* \"@openzeppelin/contracts/access/Ownable.sol\":2525:2531  _owner */\n  dup1\n  0x00\n  swap1\n  sload\n  swap1\n  0x0100\n  exp\n  swap1\n  div\n  0xffffffffffffffffffffffffffffffffffffffff\n  and\n    /* \"@openzeppelin/contracts/access/Ownable.sol\":2506:2531  address oldOwner = _owner */\n  swap1\n  pop\n    /* \"@openzeppelin/contracts/access/Ownable.sol\":2550:2558  newOwner */\n  dup2\n    /* \"@openzeppelin/contracts/access/Ownable.sol\":2541:2547  _owner */\n  0x00\n  dup1\n    /* \"@openzeppelin/contracts/access/Ownable.sol\":2541:2558  _owner = newOwner */\n  0x0100\n  exp\n  dup2\n  sload\n  dup2\n  0xffffffffffffffffffffffffffffffffffffffff\n  mul\n  not\n  and\n  swap1\n  dup4\n  0xffffffffffffffffffffffffffffffffffffffff\n  and\n  mul\n  or\n  swap1\n  sstore\n  pop\n    /* \"@openzeppelin/contracts/access/Ownable.sol\":2604:2612  newOwner */\n  dup2\n    /* \"@openzeppelin/contracts/access/Ownable.sol\":2573:2613  OwnershipTransferred(oldOwner, newOwner) */\n  0xffffffffffffffffffffffffffffffffffffffff\n  and\n    /* \"@openzeppelin/contracts/access/Ownable.sol\":2594:2602  oldOwner */\n  dup2\n    /* \"@openzeppelin/contracts/access/Ownable.sol\":2573:2613  OwnershipTransferred(oldOwner, newOwner) */\n  0xffffffffffffffffffffffffffffffffffffffff\n  and\n  0x8be0079c531659141344cd1fd0a4f28419497f9722a3daafe3b4186f6b6457e0\n  mload(0x40)\n  mload(0x40)\n  dup1\n  swap2\n  sub\n  swap1\n  log3\n    /* \"@openzeppelin/contracts/access/Ownable.sol\":2496:2620  {... */\n  pop\n    /* \"@openzeppelin/contracts/access/Ownable.sol\":2433:2620  function _transferOwnership(address newOwner) internal virtual {... */\n  pop\n  jump\t// out\n    /* \"Voting/Voting.sol\":115:8445  contract Voting is Ownable {... */\ntag_8:\n  dataSize(sub_0)\n  dup1\n  dataOffset(sub_0)\n  0x00\n  codecopy\n  0x00\n  return\nstop\n\nsub_0: assembly {\n        /* \"Voting/Voting.sol\":115:8445  contract Voting is Ownable {... */\n      mstore(0x40, 0x80)\n      callvalue\n      dup1\n      iszero\n      tag_1\n      jumpi\n      0x00\n      dup1\n      revert\n    tag_1:\n      pop\n      jumpi(tag_2, lt(calldatasize, 0x04))\n      shr(0xe0, calldataload(0x00))\n      dup1\n      0x8da5cb5b\n      gt\n      tag_17\n      jumpi\n      dup1\n      0xc88d3851\n      gt\n      tag_18\n      jumpi\n      dup1\n      0xc88d3851\n      eq\n      tag_13\n      jumpi\n      dup1\n      0xd55ec9c1\n      eq\n      tag_14\n      jumpi\n      dup1\n      0xf2fde38b\n      eq\n      tag_15\n      jumpi\n      dup1\n      0xfd4a77f1\n      eq\n      tag_16\n      jumpi\n      jump(tag_2)\n    tag_18:\n      dup1\n      0x8da5cb5b\n      eq\n      tag_10\n      jumpi\n      dup1\n      0x9b19251a\n      eq\n      tag_11\n      jumpi\n      dup1\n      0xb11accff\n      eq\n      tag_12\n      jumpi\n      jump(tag_2)\n    tag_17:\n      dup1\n      0x38db6dd3\n      gt\n      tag_19\n      jumpi\n      dup1\n      0x38db6dd3\n      eq\n      tag_6\n      jumpi\n      dup1\n      0x62564c48\n      eq\n      tag_7\n      jumpi\n      dup1\n      0x6a00600c\n      eq\n      tag_8\n      jumpi\n      dup1\n      0x715018a6\n      eq\n      tag_9\n      jumpi\n      jump(tag_2)\n    tag_19:\n      dup1\n      0x013cf08b\n      eq\n      tag_3\n      jumpi\n      dup1\n      0x200d2ed2\n      eq\n      tag_4\n      jumpi\n      dup1\n      0x2f95355b\n      eq\n      tag_5\n      jumpi\n    tag_2:\n      0x00\n      dup1\n      revert\n        /* \"Voting/Voting.sol\":724:751  Proposal[] public proposals */\n    tag_3:\n      tag_20\n      0x04\n      dup1\n      calldatasize\n      sub\n      dup2\n      add\n      swap1\n      tag_21\n      swap2\n      swap1\n      tag_22\n      jump\t// in\n    tag_21:\n      tag_23\n      jump\t// in\n    tag_20:\n      mload(0x40)\n      tag_24\n      swap3\n      swap2\n      swap1\n      tag_25\n      jump\t// in\n    tag_24:\n      mload(0x40)\n      dup1\n      swap2\n      sub\n      swap1\n      return\n        /* \"Voting/Voting.sol\":783:811  WorkflowStatus public status */\n    tag_4:\n      tag_26\n      tag_27\n      jump\t// in\n    tag_26:\n      mload(0x40)\n      tag_28\n      swap2\n      swap1\n      tag_29\n      jump\t// in\n    tag_28:\n      mload(0x40)\n      dup1\n      swap2\n      sub\n      swap1\n      return\n        /* \"Voting/Voting.sol\":6155:6404  function registerProposal(string memory _description)... */\n    tag_5:\n      tag_30\n      0x04\n      dup1\n      calldatasize\n      sub\n      dup2\n      add\n      swap1\n      tag_31\n      swap2\n      swap1\n      tag_32\n      jump\t// in\n    tag_31:\n      tag_33\n      jump\t// in\n    tag_30:\n      stop\n        /* \"Voting/Voting.sol\":5322:5640  function registerVoter(address _voterAdress)... */\n    tag_6:\n      tag_34\n      0x04\n      dup1\n      calldatasize\n      sub\n      dup2\n      add\n      swap1\n      tag_35\n      swap2\n      swap1\n      tag_36\n      jump\t// in\n    tag_35:\n      tag_37\n      jump\t// in\n    tag_34:\n      stop\n        /* \"Voting/Voting.sol\":6705:6802  function getProposals() public view returns (Proposal[] memory) {... */\n    tag_7:\n      tag_38\n      tag_39\n      jump\t// in\n    tag_38:\n      mload(0x40)\n      tag_40\n      swap2\n      swap1\n      tag_41\n      jump\t// in\n    tag_40:\n      mload(0x40)\n      dup1\n      swap2\n      sub\n      swap1\n      return\n        /* \"Voting/Voting.sol\":7409:7908  function computeWinningProposal() ... */\n    tag_8:\n      tag_42\n      tag_43\n      jump\t// in\n    tag_42:\n      stop\n        /* \"@openzeppelin/contracts/access/Ownable.sol\":1831:1932  function renounceOwnership() public virtual onlyOwner {... */\n    tag_9:\n      tag_44\n      tag_45\n      jump\t// in\n    tag_44:\n      stop\n        /* \"@openzeppelin/contracts/access/Ownable.sol\":1201:1286  function owner() public view virtual returns (address) {... */\n    tag_10:\n      tag_46\n      tag_47\n      jump\t// in\n    tag_46:\n      mload(0x40)\n      tag_48\n      swap2\n      swap1\n      tag_49\n      jump\t// in\n    tag_48:\n      mload(0x40)\n      dup1\n      swap2\n      sub\n      swap1\n      return\n        /* \"Voting/Voting.sol\":675:717  mapping(address => Voter) public whitelist */\n    tag_11:\n      tag_50\n      0x04\n      dup1\n      calldatasize\n      sub\n      dup2\n      add\n      swap1\n      tag_51\n      swap2\n      swap1\n      tag_36\n      jump\t// in\n    tag_51:\n      tag_52\n      jump\t// in\n    tag_50:\n      mload(0x40)\n      tag_53\n      swap4\n      swap3\n      swap2\n      swap1\n      tag_54\n      jump\t// in\n    tag_53:\n      mload(0x40)\n      dup1\n      swap2\n      sub\n      swap1\n      return\n        /* \"Voting/Voting.sol\":7914:8095  function getWinningProposalDetails() ... */\n    tag_12:\n      tag_55\n      tag_56\n      jump\t// in\n    tag_55:\n      mload(0x40)\n      tag_57\n      swap2\n      swap1\n      tag_58\n      jump\t// in\n    tag_57:\n      mload(0x40)\n      dup1\n      swap2\n      sub\n      swap1\n      return\n        /* \"Voting/Voting.sol\":8103:8440  function getProposaleVotedForUser(address _address)... */\n    tag_13:\n      tag_59\n      0x04\n      dup1\n      calldatasize\n      sub\n      dup2\n      add\n      swap1\n      tag_60\n      swap2\n      swap1\n      tag_36\n      jump\t// in\n    tag_60:\n      tag_61\n      jump\t// in\n    tag_59:\n      mload(0x40)\n      tag_62\n      swap2\n      swap1\n      tag_63\n      jump\t// in\n    tag_62:\n      mload(0x40)\n      dup1\n      swap2\n      sub\n      swap1\n      return\n        /* \"Voting/Voting.sol\":5691:6110  function registerVoters(address[] memory _votersAdresses)... */\n    tag_14:\n      tag_64\n      0x04\n      dup1\n      calldatasize\n      sub\n      dup2\n      add\n      swap1\n      tag_65\n      swap2\n      swap1\n      tag_66\n      jump\t// in\n    tag_65:\n      tag_67\n      jump\t// in\n    tag_64:\n      stop\n        /* \"@openzeppelin/contracts/access/Ownable.sol\":2081:2279  function transferOwnership(address newOwner) public virtual onlyOwner {... */\n    tag_15:\n      tag_68\n      0x04\n      dup1\n      calldatasize\n      sub\n      dup2\n      add\n      swap1\n      tag_69\n      swap2\n      swap1\n      tag_36\n      jump\t// in\n    tag_69:\n      tag_70\n      jump\t// in\n    tag_68:\n      stop\n        /* \"Voting/Voting.sol\":6808:7403  function voting(uint _proposalId)... */\n    tag_16:\n      tag_71\n      0x04\n      dup1\n      calldatasize\n      sub\n      dup2\n      add\n      swap1\n      tag_72\n      swap2\n      swap1\n      tag_22\n      jump\t// in\n    tag_72:\n      tag_73\n      jump\t// in\n    tag_71:\n      stop\n        /* \"Voting/Voting.sol\":724:751  Proposal[] public proposals */\n    tag_23:\n      0x02\n      dup2\n      dup2\n      sload\n      dup2\n      lt\n      tag_74\n      jumpi\n      0x00\n      dup1\n      revert\n    tag_74:\n      swap1\n      0x00\n      mstore\n      keccak256(0x00, 0x20)\n      swap1\n      0x02\n      mul\n      add\n      0x00\n      swap2\n      pop\n      swap1\n      pop\n      dup1\n      0x00\n      add\n      dup1\n      sload\n      tag_76\n      swap1\n      tag_77\n      jump\t// in\n    tag_76:\n      dup1\n      0x1f\n      add\n      0x20\n      dup1\n      swap2\n      div\n      mul\n      0x20\n      add\n      mload(0x40)\n      swap1\n      dup2\n      add\n      0x40\n      mstore\n      dup1\n      swap3\n      swap2\n      swap1\n      dup2\n      dup2\n      mstore\n      0x20\n      add\n      dup3\n      dup1\n      sload\n      tag_78\n      swap1\n      tag_77\n      jump\t// in\n    tag_78:\n      dup1\n      iszero\n      tag_79\n      jumpi\n      dup1\n      0x1f\n      lt\n      tag_80\n      jumpi\n      0x0100\n      dup1\n      dup4\n      sload\n      div\n      mul\n      dup4\n      mstore\n      swap2\n      0x20\n      add\n      swap2\n      jump(tag_79)\n    tag_80:\n      dup3\n      add\n      swap2\n      swap1\n      0x00\n      mstore\n      keccak256(0x00, 0x20)\n      swap1\n    tag_81:\n      dup2\n      sload\n      dup2\n      mstore\n      swap1\n      0x01\n      add\n      swap1\n      0x20\n      add\n      dup1\n      dup4\n      gt\n      tag_81\n      jumpi\n      dup3\n      swap1\n      sub\n      0x1f\n      and\n      dup3\n      add\n      swap2\n    tag_79:\n      pop\n      pop\n      pop\n      pop\n      pop\n      swap1\n      dup1\n      0x01\n      add\n      sload\n      swap1\n      pop\n      dup3\n      jump\t// out\n        /* \"Voting/Voting.sol\":783:811  WorkflowStatus public status */\n    tag_27:\n      0x03\n      0x00\n      swap1\n      sload\n      swap1\n      0x0100\n      exp\n      swap1\n      div\n      0xff\n      and\n      dup2\n      jump\t// out\n        /* \"Voting/Voting.sol\":6155:6404  function registerProposal(string memory _description)... */\n    tag_33:\n        /* \"Voting/Voting.sol\":1563:1579  _isWhitelisted() */\n      tag_83\n        /* \"Voting/Voting.sol\":1563:1577  _isWhitelisted */\n      tag_84\n        /* \"Voting/Voting.sol\":1563:1579  _isWhitelisted() */\n      jump\t// in\n    tag_83:\n        /* \"Voting/Voting.sol\":1264:1297  _isProposalsRegistrationStarted() */\n      tag_86\n        /* \"Voting/Voting.sol\":1264:1295  _isProposalsRegistrationStarted */\n      tag_87\n        /* \"Voting/Voting.sol\":1264:1297  _isProposalsRegistrationStarted() */\n      jump\t// in\n    tag_86:\n        /* \"Voting/Voting.sol\":6301:6310  proposals */\n      0x02\n        /* \"Voting/Voting.sol\":6316:6341  Proposal(_description, 0) */\n      mload(0x40)\n      dup1\n      0x40\n      add\n      0x40\n      mstore\n      dup1\n        /* \"Voting/Voting.sol\":6325:6337  _description */\n      dup4\n        /* \"Voting/Voting.sol\":6316:6341  Proposal(_description, 0) */\n      dup2\n      mstore\n      0x20\n      add\n        /* \"Voting/Voting.sol\":6339:6340  0 */\n      0x00\n        /* \"Voting/Voting.sol\":6316:6341  Proposal(_description, 0) */\n      dup2\n      mstore\n      pop\n        /* \"Voting/Voting.sol\":6301:6342  proposals.push(Proposal(_description, 0)) */\n      swap1\n      dup1\n      0x01\n      dup2\n      sload\n      add\n      dup1\n      dup3\n      sstore\n      dup1\n      swap2\n      pop\n      pop\n      0x01\n      swap1\n      sub\n      swap1\n      0x00\n      mstore\n      keccak256(0x00, 0x20)\n      swap1\n      0x02\n      mul\n      add\n      0x00\n      swap1\n      swap2\n      swap1\n      swap2\n      swap1\n      swap2\n      pop\n      0x00\n      dup3\n      add\n      mload\n      dup2\n      0x00\n      add\n      swap1\n      dup2\n      tag_90\n      swap2\n      swap1\n      tag_91\n      jump\t// in\n    tag_90:\n      pop\n      0x20\n      dup3\n      add\n      mload\n      dup2\n      0x01\n      add\n      sstore\n      pop\n      pop\n        /* \"Voting/Voting.sol\":6357:6397  ProposalRegistered(proposals.length - 1) */\n      0x92e393e9b54e2f801d3ea4beb0c5e71a21cc34a5d34b77d0fb8a3aa1650dc18f\n        /* \"Voting/Voting.sol\":6395:6396  1 */\n      0x01\n        /* \"Voting/Voting.sol\":6376:6385  proposals */\n      0x02\n        /* \"Voting/Voting.sol\":6376:6392  proposals.length */\n      dup1\n      sload\n      swap1\n      pop\n        /* \"Voting/Voting.sol\":6376:6396  proposals.length - 1 */\n      tag_92\n      swap2\n      swap1\n      tag_93\n      jump\t// in\n    tag_92:\n        /* \"Voting/Voting.sol\":6357:6397  ProposalRegistered(proposals.length - 1) */\n      mload(0x40)\n      tag_94\n      swap2\n      swap1\n      tag_95\n      jump\t// in\n    tag_94:\n      mload(0x40)\n      dup1\n      swap2\n      sub\n      swap1\n      log1\n        /* \"Voting/Voting.sol\":6155:6404  function registerProposal(string memory _description)... */\n      pop\n      jump\t// out\n        /* \"Voting/Voting.sol\":5322:5640  function registerVoter(address _voterAdress)... */\n    tag_37:\n        /* \"@openzeppelin/contracts/access/Ownable.sol\":1094:1107  _checkOwner() */\n      tag_97\n        /* \"@openzeppelin/contracts/access/Ownable.sol\":1094:1105  _checkOwner */\n      tag_98\n        /* \"@openzeppelin/contracts/access/Ownable.sol\":1094:1107  _checkOwner() */\n      jump\t// in\n    tag_97:\n        /* \"Voting/Voting.sol\":1160:1188  _isRegisteringVotersStatus() */\n      tag_100\n        /* \"Voting/Voting.sol\":1160:1186  _isRegisteringVotersStatus */\n      tag_101\n        /* \"Voting/Voting.sol\":1160:1188  _isRegisteringVotersStatus() */\n      jump\t// in\n    tag_100:\n        /* \"Voting/Voting.sol\":5498:5503  false */\n      0x00\n        /* \"Voting/Voting.sol\":5458:5503  whitelist[_voterAdress].isRegistered == false */\n      iszero\n      iszero\n        /* \"Voting/Voting.sol\":5458:5467  whitelist */\n      0x01\n        /* \"Voting/Voting.sol\":5458:5481  whitelist[_voterAdress] */\n      0x00\n        /* \"Voting/Voting.sol\":5468:5480  _voterAdress */\n      dup4\n        /* \"Voting/Voting.sol\":5458:5481  whitelist[_voterAdress] */\n      0xffffffffffffffffffffffffffffffffffffffff\n      and\n      0xffffffffffffffffffffffffffffffffffffffff\n      and\n      dup2\n      mstore\n      0x20\n      add\n      swap1\n      dup2\n      mstore\n      0x20\n      add\n      0x00\n      keccak256\n        /* \"Voting/Voting.sol\":5458:5494  whitelist[_voterAdress].isRegistered */\n      0x00\n      add\n      0x00\n      swap1\n      sload\n      swap1\n      0x0100\n      exp\n      swap1\n      div\n      0xff\n      and\n        /* \"Voting/Voting.sol\":5458:5503  whitelist[_voterAdress].isRegistered == false */\n      iszero\n      iszero\n      eq\n        /* \"Voting/Voting.sol\":5450:5536  require(whitelist[_voterAdress].isRegistered == false, \"Voter is already whitelisted\") */\n      tag_103\n      jumpi\n      mload(0x40)\n      0x08c379a000000000000000000000000000000000000000000000000000000000\n      dup2\n      mstore\n      0x04\n      add\n      tag_104\n      swap1\n      tag_105\n      jump\t// in\n    tag_104:\n      mload(0x40)\n      dup1\n      swap2\n      sub\n      swap1\n      revert\n    tag_103:\n        /* \"Voting/Voting.sol\":5585:5589  true */\n      0x01\n        /* \"Voting/Voting.sol\":5546:5555  whitelist */\n      dup1\n        /* \"Voting/Voting.sol\":5546:5569  whitelist[_voterAdress] */\n      0x00\n        /* \"Voting/Voting.sol\":5556:5568  _voterAdress */\n      dup4\n        /* \"Voting/Voting.sol\":5546:5569  whitelist[_voterAdress] */\n      0xffffffffffffffffffffffffffffffffffffffff\n      and\n      0xffffffffffffffffffffffffffffffffffffffff\n      and\n      dup2\n      mstore\n      0x20\n      add\n      swap1\n      dup2\n      mstore\n      0x20\n      add\n      0x00\n      keccak256\n        /* \"Voting/Voting.sol\":5546:5582  whitelist[_voterAdress].isRegistered */\n      0x00\n      add\n      0x00\n        /* \"Voting/Voting.sol\":5546:5589  whitelist[_voterAdress].isRegistered = true */\n      0x0100\n      exp\n      dup2\n      sload\n      dup2\n      0xff\n      mul\n      not\n      and\n      swap1\n      dup4\n      iszero\n      iszero\n      mul\n      or\n      swap1\n      sstore\n      pop\n        /* \"Voting/Voting.sol\":5604:5633  VoterRegistered(_voterAdress) */\n      0xb6be2187d059cc2a55fe29e0e503b566e1e0f8c8780096e185429350acffd3dd\n        /* \"Voting/Voting.sol\":5620:5632  _voterAdress */\n      dup2\n        /* \"Voting/Voting.sol\":5604:5633  VoterRegistered(_voterAdress) */\n      mload(0x40)\n      tag_106\n      swap2\n      swap1\n      tag_49\n      jump\t// in\n    tag_106:\n      mload(0x40)\n      dup1\n      swap2\n      sub\n      swap1\n      log1\n        /* \"Voting/Voting.sol\":5322:5640  function registerVoter(address _voterAdress)... */\n      pop\n      jump\t// out\n        /* \"Voting/Voting.sol\":6705:6802  function getProposals() public view returns (Proposal[] memory) {... */\n    tag_39:\n        /* \"Voting/Voting.sol\":6750:6767  Proposal[] memory */\n      0x60\n        /* \"Voting/Voting.sol\":6786:6795  proposals */\n      0x02\n        /* \"Voting/Voting.sol\":6779:6795  return proposals */\n      dup1\n      sload\n      dup1\n      0x20\n      mul\n      0x20\n      add\n      mload(0x40)\n      swap1\n      dup2\n      add\n      0x40\n      mstore\n      dup1\n      swap3\n      swap2\n      swap1\n      dup2\n      dup2\n      mstore\n      0x20\n      add\n      0x00\n      swap1\n    tag_108:\n      dup3\n      dup3\n      lt\n      iszero\n      tag_109\n      jumpi\n      dup4\n      dup3\n      swap1\n      0x00\n      mstore\n      keccak256(0x00, 0x20)\n      swap1\n      0x02\n      mul\n      add\n      mload(0x40)\n      dup1\n      0x40\n      add\n      0x40\n      mstore\n      swap1\n      dup2\n      0x00\n      dup3\n      add\n      dup1\n      sload\n      tag_111\n      swap1\n      tag_77\n      jump\t// in\n    tag_111:\n      dup1\n      0x1f\n      add\n      0x20\n      dup1\n      swap2\n      div\n      mul\n      0x20\n      add\n      mload(0x40)\n      swap1\n      dup2\n      add\n      0x40\n      mstore\n      dup1\n      swap3\n      swap2\n      swap1\n      dup2\n      dup2\n      mstore\n      0x20\n      add\n      dup3\n      dup1\n      sload\n      tag_112\n      swap1\n      tag_77\n      jump\t// in\n    tag_112:\n      dup1\n      iszero\n      tag_113\n      jumpi\n      dup1\n      0x1f\n      lt\n      tag_114\n      jumpi\n      0x0100\n      dup1\n      dup4\n      sload\n      div\n      mul\n      dup4\n      mstore\n      swap2\n      0x20\n      add\n      swap2\n      jump(tag_113)\n    tag_114:\n      dup3\n      add\n      swap2\n      swap1\n      0x00\n      mstore\n      keccak256(0x00, 0x20)\n      swap1\n    tag_115:\n      dup2\n      sload\n      dup2\n      mstore\n      swap1\n      0x01\n      add\n      swap1\n      0x20\n      add\n      dup1\n      dup4\n      gt\n      tag_115\n      jumpi\n      dup3\n      swap1\n      sub\n      0x1f\n      and\n      dup3\n      add\n      swap2\n    tag_113:\n      pop\n      pop\n      pop\n      pop\n      pop\n      dup2\n      mstore\n      0x20\n      add\n      0x01\n      dup3\n      add\n      sload\n      dup2\n      mstore\n      pop\n      pop\n      dup2\n      mstore\n      0x20\n      add\n      swap1\n      0x01\n      add\n      swap1\n      jump(tag_108)\n    tag_109:\n      pop\n      pop\n      pop\n      pop\n      swap1\n      pop\n        /* \"Voting/Voting.sol\":6705:6802  function getProposals() public view returns (Proposal[] memory) {... */\n      swap1\n      jump\t// out\n        /* \"Voting/Voting.sol\":7409:7908  function computeWinningProposal() ... */\n    tag_43:\n        /* \"@openzeppelin/contracts/access/Ownable.sol\":1094:1107  _checkOwner() */\n      tag_117\n        /* \"@openzeppelin/contracts/access/Ownable.sol\":1094:1105  _checkOwner */\n      tag_98\n        /* \"@openzeppelin/contracts/access/Ownable.sol\":1094:1107  _checkOwner() */\n      jump\t// in\n    tag_117:\n        /* \"Voting/Voting.sol\":1644:1667  _isVotingSessionEnded() */\n      tag_119\n        /* \"Voting/Voting.sol\":1644:1665  _isVotingSessionEnded */\n      tag_120\n        /* \"Voting/Voting.sol\":1644:1667  _isVotingSessionEnded() */\n      jump\t// in\n    tag_119:\n        /* \"Voting/Voting.sol\":7524:7537  uint maxVotes */\n      0x00\n        /* \"Voting/Voting.sol\":7551:7577  uint tempWinningProposalId */\n      dup1\n        /* \"Voting/Voting.sol\":7592:7598  uint i */\n      dup1\n        /* \"Voting/Voting.sol\":7601:7602  0 */\n      0x00\n        /* \"Voting/Voting.sol\":7592:7602  uint i = 0 */\n      swap1\n      pop\n        /* \"Voting/Voting.sol\":7587:7803  for (uint i = 0; i < proposals.length; i++) {... */\n    tag_122:\n        /* \"Voting/Voting.sol\":7608:7617  proposals */\n      0x02\n        /* \"Voting/Voting.sol\":7608:7624  proposals.length */\n      dup1\n      sload\n      swap1\n      pop\n        /* \"Voting/Voting.sol\":7604:7605  i */\n      dup2\n        /* \"Voting/Voting.sol\":7604:7624  i < proposals.length */\n      lt\n        /* \"Voting/Voting.sol\":7587:7803  for (uint i = 0; i < proposals.length; i++) {... */\n      iszero\n      tag_123\n      jumpi\n        /* \"Voting/Voting.sol\":7674:7682  maxVotes */\n      dup3\n        /* \"Voting/Voting.sol\":7649:7658  proposals */\n      0x02\n        /* \"Voting/Voting.sol\":7659:7660  i */\n      dup3\n        /* \"Voting/Voting.sol\":7649:7661  proposals[i] */\n      dup2\n      sload\n      dup2\n      lt\n      tag_125\n      jumpi\n      tag_126\n      tag_127\n      jump\t// in\n    tag_126:\n    tag_125:\n      swap1\n      0x00\n      mstore\n      keccak256(0x00, 0x20)\n      swap1\n      0x02\n      mul\n      add\n        /* \"Voting/Voting.sol\":7649:7671  proposals[i].voteCount */\n      0x01\n      add\n      sload\n        /* \"Voting/Voting.sol\":7649:7682  proposals[i].voteCount > maxVotes */\n      gt\n        /* \"Voting/Voting.sol\":7645:7793  if (proposals[i].voteCount > maxVotes) {... */\n      iszero\n      tag_129\n      jumpi\n        /* \"Voting/Voting.sol\":7713:7722  proposals */\n      0x02\n        /* \"Voting/Voting.sol\":7723:7724  i */\n      dup2\n        /* \"Voting/Voting.sol\":7713:7725  proposals[i] */\n      dup2\n      sload\n      dup2\n      lt\n      tag_130\n      jumpi\n      tag_131\n      tag_127\n      jump\t// in\n    tag_131:\n    tag_130:\n      swap1\n      0x00\n      mstore\n      keccak256(0x00, 0x20)\n      swap1\n      0x02\n      mul\n      add\n        /* \"Voting/Voting.sol\":7713:7735  proposals[i].voteCount */\n      0x01\n      add\n      sload\n        /* \"Voting/Voting.sol\":7702:7735  maxVotes = proposals[i].voteCount */\n      swap3\n      pop\n        /* \"Voting/Voting.sol\":7777:7778  i */\n      dup1\n        /* \"Voting/Voting.sol\":7753:7778  tempWinningProposalId = i */\n      swap2\n      pop\n        /* \"Voting/Voting.sol\":7645:7793  if (proposals[i].voteCount > maxVotes) {... */\n    tag_129:\n        /* \"Voting/Voting.sol\":7626:7629  i++ */\n      dup1\n      dup1\n      tag_133\n      swap1\n      tag_134\n      jump\t// in\n    tag_133:\n      swap2\n      pop\n      pop\n        /* \"Voting/Voting.sol\":7587:7803  for (uint i = 0; i < proposals.length; i++) {... */\n      jump(tag_122)\n    tag_123:\n      pop\n        /* \"Voting/Voting.sol\":7832:7853  tempWinningProposalId */\n      dup1\n        /* \"Voting/Voting.sol\":7812:7829  winningProposalId */\n      0x04\n        /* \"Voting/Voting.sol\":7812:7853  winningProposalId = tempWinningProposalId */\n      dup2\n      swap1\n      sstore\n      pop\n        /* \"Voting/Voting.sol\":7863:7901  setStatus(WorkflowStatus.VotesTallied) */\n      tag_135\n        /* \"Voting/Voting.sol\":7873:7900  WorkflowStatus.VotesTallied */\n      0x05\n        /* \"Voting/Voting.sol\":7863:7872  setStatus */\n      tag_136\n        /* \"Voting/Voting.sol\":7863:7901  setStatus(WorkflowStatus.VotesTallied) */\n      jump\t// in\n    tag_135:\n        /* \"Voting/Voting.sol\":7514:7908  {... */\n      pop\n      pop\n        /* \"Voting/Voting.sol\":7409:7908  function computeWinningProposal() ... */\n      jump\t// out\n        /* \"@openzeppelin/contracts/access/Ownable.sol\":1831:1932  function renounceOwnership() public virtual onlyOwner {... */\n    tag_45:\n        /* \"@openzeppelin/contracts/access/Ownable.sol\":1094:1107  _checkOwner() */\n      tag_138\n        /* \"@openzeppelin/contracts/access/Ownable.sol\":1094:1105  _checkOwner */\n      tag_98\n        /* \"@openzeppelin/contracts/access/Ownable.sol\":1094:1107  _checkOwner() */\n      jump\t// in\n    tag_138:\n        /* \"@openzeppelin/contracts/access/Ownable.sol\":1895:1925  _transferOwnership(address(0)) */\n      tag_140\n        /* \"@openzeppelin/contracts/access/Ownable.sol\":1922:1923  0 */\n      0x00\n        /* \"@openzeppelin/contracts/access/Ownable.sol\":1895:1913  _transferOwnership */\n      tag_141\n        /* \"@openzeppelin/contracts/access/Ownable.sol\":1895:1925  _transferOwnership(address(0)) */\n      jump\t// in\n    tag_140:\n        /* \"@openzeppelin/contracts/access/Ownable.sol\":1831:1932  function renounceOwnership() public virtual onlyOwner {... */\n      jump\t// out\n        /* \"@openzeppelin/contracts/access/Ownable.sol\":1201:1286  function owner() public view virtual returns (address) {... */\n    tag_47:\n        /* \"@openzeppelin/contracts/access/Ownable.sol\":1247:1254  address */\n      0x00\n        /* \"@openzeppelin/contracts/access/Ownable.sol\":1273:1279  _owner */\n      dup1\n      0x00\n      swap1\n      sload\n      swap1\n      0x0100\n      exp\n      swap1\n      div\n      0xffffffffffffffffffffffffffffffffffffffff\n      and\n        /* \"@openzeppelin/contracts/access/Ownable.sol\":1266:1279  return _owner */\n      swap1\n      pop\n        /* \"@openzeppelin/contracts/access/Ownable.sol\":1201:1286  function owner() public view virtual returns (address) {... */\n      swap1\n      jump\t// out\n        /* \"Voting/Voting.sol\":675:717  mapping(address => Voter) public whitelist */\n    tag_52:\n      mstore(0x20, 0x01)\n      dup1\n      0x00\n      mstore\n      keccak256(0x00, 0x40)\n      0x00\n      swap2\n      pop\n      swap1\n      pop\n      dup1\n      0x00\n      add\n      0x00\n      swap1\n      sload\n      swap1\n      0x0100\n      exp\n      swap1\n      div\n      0xff\n      and\n      swap1\n      dup1\n      0x00\n      add\n      0x01\n      swap1\n      sload\n      swap1\n      0x0100\n      exp\n      swap1\n      div\n      0xff\n      and\n      swap1\n      dup1\n      0x01\n      add\n      sload\n      swap1\n      pop\n      dup4\n      jump\t// out\n        /* \"Voting/Voting.sol\":7914:8095  function getWinningProposalDetails() ... */\n    tag_56:\n        /* \"Voting/Voting.sol\":8023:8038  Proposal memory */\n      tag_143\n      tag_144\n      jump\t// in\n    tag_143:\n        /* \"Voting/Voting.sol\":1726:1743  _isVotesTallied() */\n      tag_146\n        /* \"Voting/Voting.sol\":1726:1741  _isVotesTallied */\n      tag_147\n        /* \"Voting/Voting.sol\":1726:1743  _isVotesTallied() */\n      jump\t// in\n    tag_146:\n        /* \"Voting/Voting.sol\":8060:8069  proposals */\n      0x02\n        /* \"Voting/Voting.sol\":8070:8087  winningProposalId */\n      sload(0x04)\n        /* \"Voting/Voting.sol\":8060:8088  proposals[winningProposalId] */\n      dup2\n      sload\n      dup2\n      lt\n      tag_149\n      jumpi\n      tag_150\n      tag_127\n      jump\t// in\n    tag_150:\n    tag_149:\n      swap1\n      0x00\n      mstore\n      keccak256(0x00, 0x20)\n      swap1\n      0x02\n      mul\n      add\n        /* \"Voting/Voting.sol\":8053:8088  return proposals[winningProposalId] */\n      mload(0x40)\n      dup1\n      0x40\n      add\n      0x40\n      mstore\n      swap1\n      dup2\n      0x00\n      dup3\n      add\n      dup1\n      sload\n      tag_152\n      swap1\n      tag_77\n      jump\t// in\n    tag_152:\n      dup1\n      0x1f\n      add\n      0x20\n      dup1\n      swap2\n      div\n      mul\n      0x20\n      add\n      mload(0x40)\n      swap1\n      dup2\n      add\n      0x40\n      mstore\n      dup1\n      swap3\n      swap2\n      swap1\n      dup2\n      dup2\n      mstore\n      0x20\n      add\n      dup3\n      dup1\n      sload\n      tag_153\n      swap1\n      tag_77\n      jump\t// in\n    tag_153:\n      dup1\n      iszero\n      tag_154\n      jumpi\n      dup1\n      0x1f\n      lt\n      tag_155\n      jumpi\n      0x0100\n      dup1\n      dup4\n      sload\n      div\n      mul\n      dup4\n      mstore\n      swap2\n      0x20\n      add\n      swap2\n      jump(tag_154)\n    tag_155:\n      dup3\n      add\n      swap2\n      swap1\n      0x00\n      mstore\n      keccak256(0x00, 0x20)\n      swap1\n    tag_156:\n      dup2\n      sload\n      dup2\n      mstore\n      swap1\n      0x01\n      add\n      swap1\n      0x20\n      add\n      dup1\n      dup4\n      gt\n      tag_156\n      jumpi\n      dup3\n      swap1\n      sub\n      0x1f\n      and\n      dup3\n      add\n      swap2\n    tag_154:\n      pop\n      pop\n      pop\n      pop\n      pop\n      dup2\n      mstore\n      0x20\n      add\n      0x01\n      dup3\n      add\n      sload\n      dup2\n      mstore\n      pop\n      pop\n      swap1\n      pop\n        /* \"Voting/Voting.sol\":7914:8095  function getWinningProposalDetails() ... */\n      swap1\n      jump\t// out\n        /* \"Voting/Voting.sol\":8103:8440  function getProposaleVotedForUser(address _address)... */\n    tag_61:\n        /* \"Voting/Voting.sol\":8233:8246  string memory */\n      0x60\n        /* \"Voting/Voting.sol\":1644:1667  _isVotingSessionEnded() */\n      tag_158\n        /* \"Voting/Voting.sol\":1644:1665  _isVotingSessionEnded */\n      tag_120\n        /* \"Voting/Voting.sol\":1644:1667  _isVotingSessionEnded() */\n      jump\t// in\n    tag_158:\n        /* \"Voting/Voting.sol\":8283:8292  whitelist */\n      0x01\n        /* \"Voting/Voting.sol\":8283:8302  whitelist[_address] */\n      0x00\n        /* \"Voting/Voting.sol\":8293:8301  _address */\n      dup4\n        /* \"Voting/Voting.sol\":8283:8302  whitelist[_address] */\n      0xffffffffffffffffffffffffffffffffffffffff\n      and\n      0xffffffffffffffffffffffffffffffffffffffff\n      and\n      dup2\n      mstore\n      0x20\n      add\n      swap1\n      dup2\n      mstore\n      0x20\n      add\n      0x00\n      keccak256\n        /* \"Voting/Voting.sol\":8283:8311  whitelist[_address].hasVoted */\n      0x00\n      add\n      0x01\n      swap1\n      sload\n      swap1\n      0x0100\n      exp\n      swap1\n      div\n      0xff\n      and\n        /* \"Voting/Voting.sol\":8262:8358  require(... */\n      tag_160\n      jumpi\n      mload(0x40)\n      0x08c379a000000000000000000000000000000000000000000000000000000000\n      dup2\n      mstore\n      0x04\n      add\n      tag_161\n      swap1\n      tag_162\n      jump\t// in\n    tag_161:\n      mload(0x40)\n      dup1\n      swap2\n      sub\n      swap1\n      revert\n    tag_160:\n        /* \"Voting/Voting.sol\":8375:8384  proposals */\n      0x02\n        /* \"Voting/Voting.sol\":8385:8394  whitelist */\n      0x01\n        /* \"Voting/Voting.sol\":8385:8404  whitelist[_address] */\n      0x00\n        /* \"Voting/Voting.sol\":8395:8403  _address */\n      dup5\n        /* \"Voting/Voting.sol\":8385:8404  whitelist[_address] */\n      0xffffffffffffffffffffffffffffffffffffffff\n      and\n      0xffffffffffffffffffffffffffffffffffffffff\n      and\n      dup2\n      mstore\n      0x20\n      add\n      swap1\n      dup2\n      mstore\n      0x20\n      add\n      0x00\n      keccak256\n        /* \"Voting/Voting.sol\":8385:8420  whitelist[_address].votedProposalId */\n      0x01\n      add\n      sload\n        /* \"Voting/Voting.sol\":8375:8421  proposals[whitelist[_address].votedProposalId] */\n      dup2\n      sload\n      dup2\n      lt\n      tag_163\n      jumpi\n      tag_164\n      tag_127\n      jump\t// in\n    tag_164:\n    tag_163:\n      swap1\n      0x00\n      mstore\n      keccak256(0x00, 0x20)\n      swap1\n      0x02\n      mul\n      add\n        /* \"Voting/Voting.sol\":8375:8433  proposals[whitelist[_address].votedProposalId].description */\n      0x00\n      add\n        /* \"Voting/Voting.sol\":8368:8433  return proposals[whitelist[_address].votedProposalId].description */\n      dup1\n      sload\n      tag_166\n      swap1\n      tag_77\n      jump\t// in\n    tag_166:\n      dup1\n      0x1f\n      add\n      0x20\n      dup1\n      swap2\n      div\n      mul\n      0x20\n      add\n      mload(0x40)\n      swap1\n      dup2\n      add\n      0x40\n      mstore\n      dup1\n      swap3\n      swap2\n      swap1\n      dup2\n      dup2\n      mstore\n      0x20\n      add\n      dup3\n      dup1\n      sload\n      tag_167\n      swap1\n      tag_77\n      jump\t// in\n    tag_167:\n      dup1\n      iszero\n      tag_168\n      jumpi\n      dup1\n      0x1f\n      lt\n      tag_169\n      jumpi\n      0x0100\n      dup1\n      dup4\n      sload\n      div\n      mul\n      dup4\n      mstore\n      swap2\n      0x20\n      add\n      swap2\n      jump(tag_168)\n    tag_169:\n      dup3\n      add\n      swap2\n      swap1\n      0x00\n      mstore\n      keccak256(0x00, 0x20)\n      swap1\n    tag_170:\n      dup2\n      sload\n      dup2\n      mstore\n      swap1\n      0x01\n      add\n      swap1\n      0x20\n      add\n      dup1\n      dup4\n      gt\n      tag_170\n      jumpi\n      dup3\n      swap1\n      sub\n      0x1f\n      and\n      dup3\n      add\n      swap2\n    tag_168:\n      pop\n      pop\n      pop\n      pop\n      pop\n      swap1\n      pop\n        /* \"Voting/Voting.sol\":8103:8440  function getProposaleVotedForUser(address _address)... */\n      swap2\n      swap1\n      pop\n      jump\t// out\n        /* \"Voting/Voting.sol\":5691:6110  function registerVoters(address[] memory _votersAdresses)... */\n    tag_67:\n        /* \"@openzeppelin/contracts/access/Ownable.sol\":1094:1107  _checkOwner() */\n      tag_172\n        /* \"@openzeppelin/contracts/access/Ownable.sol\":1094:1105  _checkOwner */\n      tag_98\n        /* \"@openzeppelin/contracts/access/Ownable.sol\":1094:1107  _checkOwner() */\n      jump\t// in\n    tag_172:\n        /* \"Voting/Voting.sol\":1160:1188  _isRegisteringVotersStatus() */\n      tag_174\n        /* \"Voting/Voting.sol\":1160:1186  _isRegisteringVotersStatus */\n      tag_101\n        /* \"Voting/Voting.sol\":1160:1188  _isRegisteringVotersStatus() */\n      jump\t// in\n    tag_174:\n        /* \"Voting/Voting.sol\":5837:5846  uint256 i */\n      0x00\n        /* \"Voting/Voting.sol\":5832:6104  for (uint256 i = 0; i < _votersAdresses.length; i++) {... */\n    tag_176:\n        /* \"Voting/Voting.sol\":5856:5871  _votersAdresses */\n      dup2\n        /* \"Voting/Voting.sol\":5856:5878  _votersAdresses.length */\n      mload\n        /* \"Voting/Voting.sol\":5852:5853  i */\n      dup2\n        /* \"Voting/Voting.sol\":5852:5878  i < _votersAdresses.length */\n      lt\n        /* \"Voting/Voting.sol\":5832:6104  for (uint256 i = 0; i < _votersAdresses.length; i++) {... */\n      iszero\n      tag_177\n      jumpi\n        /* \"Voting/Voting.sol\":5949:5953  true */\n      0x01\n        /* \"Voting/Voting.sol\":5904:5913  whitelist */\n      dup1\n        /* \"Voting/Voting.sol\":5904:5933  whitelist[_votersAdresses[i]] */\n      0x00\n        /* \"Voting/Voting.sol\":5914:5929  _votersAdresses */\n      dup5\n        /* \"Voting/Voting.sol\":5930:5931  i */\n      dup5\n        /* \"Voting/Voting.sol\":5914:5932  _votersAdresses[i] */\n      dup2\n      mload\n      dup2\n      lt\n      tag_179\n      jumpi\n      tag_180\n      tag_127\n      jump\t// in\n    tag_180:\n    tag_179:\n      0x20\n      mul\n      0x20\n      add\n      add\n      mload\n        /* \"Voting/Voting.sol\":5904:5933  whitelist[_votersAdresses[i]] */\n      0xffffffffffffffffffffffffffffffffffffffff\n      and\n      0xffffffffffffffffffffffffffffffffffffffff\n      and\n      dup2\n      mstore\n      0x20\n      add\n      swap1\n      dup2\n      mstore\n      0x20\n      add\n      0x00\n      keccak256\n        /* \"Voting/Voting.sol\":5904:5946  whitelist[_votersAdresses[i]].isRegistered */\n      0x00\n      add\n      0x00\n        /* \"Voting/Voting.sol\":5904:5953  whitelist[_votersAdresses[i]].isRegistered = true */\n      0x0100\n      exp\n      dup2\n      sload\n      dup2\n      0xff\n      mul\n      not\n      and\n      swap1\n      dup4\n      iszero\n      iszero\n      mul\n      or\n      swap1\n      sstore\n        /* \"Voting/Voting.sol\":5899:6094  if ( whitelist[_votersAdresses[i]].isRegistered = true){... */\n      iszero\n      tag_181\n      jumpi\n        /* \"Voting/Voting.sol\":6017:6021  true */\n      0x01\n        /* \"Voting/Voting.sol\":5972:5981  whitelist */\n      dup1\n        /* \"Voting/Voting.sol\":5972:6001  whitelist[_votersAdresses[i]] */\n      0x00\n        /* \"Voting/Voting.sol\":5982:5997  _votersAdresses */\n      dup5\n        /* \"Voting/Voting.sol\":5998:5999  i */\n      dup5\n        /* \"Voting/Voting.sol\":5982:6000  _votersAdresses[i] */\n      dup2\n      mload\n      dup2\n      lt\n      tag_182\n      jumpi\n      tag_183\n      tag_127\n      jump\t// in\n    tag_183:\n    tag_182:\n      0x20\n      mul\n      0x20\n      add\n      add\n      mload\n        /* \"Voting/Voting.sol\":5972:6001  whitelist[_votersAdresses[i]] */\n      0xffffffffffffffffffffffffffffffffffffffff\n      and\n      0xffffffffffffffffffffffffffffffffffffffff\n      and\n      dup2\n      mstore\n      0x20\n      add\n      swap1\n      dup2\n      mstore\n      0x20\n      add\n      0x00\n      keccak256\n        /* \"Voting/Voting.sol\":5972:6014  whitelist[_votersAdresses[i]].isRegistered */\n      0x00\n      add\n      0x00\n        /* \"Voting/Voting.sol\":5972:6021  whitelist[_votersAdresses[i]].isRegistered = true */\n      0x0100\n      exp\n      dup2\n      sload\n      dup2\n      0xff\n      mul\n      not\n      and\n      swap1\n      dup4\n      iszero\n      iszero\n      mul\n      or\n      swap1\n      sstore\n      pop\n        /* \"Voting/Voting.sol\":6044:6079  VoterRegistered(_votersAdresses[i]) */\n      0xb6be2187d059cc2a55fe29e0e503b566e1e0f8c8780096e185429350acffd3dd\n        /* \"Voting/Voting.sol\":6060:6075  _votersAdresses */\n      dup3\n        /* \"Voting/Voting.sol\":6076:6077  i */\n      dup3\n        /* \"Voting/Voting.sol\":6060:6078  _votersAdresses[i] */\n      dup2\n      mload\n      dup2\n      lt\n      tag_184\n      jumpi\n      tag_185\n      tag_127\n      jump\t// in\n    tag_185:\n    tag_184:\n      0x20\n      mul\n      0x20\n      add\n      add\n      mload\n        /* \"Voting/Voting.sol\":6044:6079  VoterRegistered(_votersAdresses[i]) */\n      mload(0x40)\n      tag_186\n      swap2\n      swap1\n      tag_49\n      jump\t// in\n    tag_186:\n      mload(0x40)\n      dup1\n      swap2\n      sub\n      swap1\n      log1\n        /* \"Voting/Voting.sol\":5899:6094  if ( whitelist[_votersAdresses[i]].isRegistered = true){... */\n    tag_181:\n        /* \"Voting/Voting.sol\":5880:5883  i++ */\n      dup1\n      dup1\n      tag_187\n      swap1\n      tag_134\n      jump\t// in\n    tag_187:\n      swap2\n      pop\n      pop\n        /* \"Voting/Voting.sol\":5832:6104  for (uint256 i = 0; i < _votersAdresses.length; i++) {... */\n      jump(tag_176)\n    tag_177:\n      pop\n        /* \"Voting/Voting.sol\":5691:6110  function registerVoters(address[] memory _votersAdresses)... */\n      pop\n      jump\t// out\n        /* \"@openzeppelin/contracts/access/Ownable.sol\":2081:2279  function transferOwnership(address newOwner) public virtual onlyOwner {... */\n    tag_70:\n        /* \"@openzeppelin/contracts/access/Ownable.sol\":1094:1107  _checkOwner() */\n      tag_189\n        /* \"@openzeppelin/contracts/access/Ownable.sol\":1094:1105  _checkOwner */\n      tag_98\n        /* \"@openzeppelin/contracts/access/Ownable.sol\":1094:1107  _checkOwner() */\n      jump\t// in\n    tag_189:\n        /* \"@openzeppelin/contracts/access/Ownable.sol\":2189:2190  0 */\n      0x00\n        /* \"@openzeppelin/contracts/access/Ownable.sol\":2169:2191  newOwner != address(0) */\n      0xffffffffffffffffffffffffffffffffffffffff\n      and\n        /* \"@openzeppelin/contracts/access/Ownable.sol\":2169:2177  newOwner */\n      dup2\n        /* \"@openzeppelin/contracts/access/Ownable.sol\":2169:2191  newOwner != address(0) */\n      0xffffffffffffffffffffffffffffffffffffffff\n      and\n      sub\n        /* \"@openzeppelin/contracts/access/Ownable.sol\":2161:2234  require(newOwner != address(0), \"Ownable: new owner is the zero address\") */\n      tag_191\n      jumpi\n      mload(0x40)\n      0x08c379a000000000000000000000000000000000000000000000000000000000\n      dup2\n      mstore\n      0x04\n      add\n      tag_192\n      swap1\n      tag_193\n      jump\t// in\n    tag_192:\n      mload(0x40)\n      dup1\n      swap2\n      sub\n      swap1\n      revert\n    tag_191:\n        /* \"@openzeppelin/contracts/access/Ownable.sol\":2244:2272  _transferOwnership(newOwner) */\n      tag_194\n        /* \"@openzeppelin/contracts/access/Ownable.sol\":2263:2271  newOwner */\n      dup2\n        /* \"@openzeppelin/contracts/access/Ownable.sol\":2244:2262  _transferOwnership */\n      tag_141\n        /* \"@openzeppelin/contracts/access/Ownable.sol\":2244:2272  _transferOwnership(newOwner) */\n      jump\t// in\n    tag_194:\n        /* \"@openzeppelin/contracts/access/Ownable.sol\":2081:2279  function transferOwnership(address newOwner) public virtual onlyOwner {... */\n      pop\n      jump\t// out\n        /* \"Voting/Voting.sol\":6808:7403  function voting(uint _proposalId)... */\n    tag_73:\n        /* \"Voting/Voting.sol\":1365:1390  _isVotingSessionStarted() */\n      tag_196\n        /* \"Voting/Voting.sol\":1365:1388  _isVotingSessionStarted */\n      tag_197\n        /* \"Voting/Voting.sol\":1365:1390  _isVotingSessionStarted() */\n      jump\t// in\n    tag_196:\n        /* \"Voting/Voting.sol\":1563:1579  _isWhitelisted() */\n      tag_199\n        /* \"Voting/Voting.sol\":1563:1577  _isWhitelisted */\n      tag_84\n        /* \"Voting/Voting.sol\":1563:1579  _isWhitelisted() */\n      jump\t// in\n    tag_199:\n        /* \"Voting/Voting.sol\":6948:6957  whitelist */\n      0x01\n        /* \"Voting/Voting.sol\":6948:6969  whitelist[msg.sender] */\n      0x00\n        /* \"Voting/Voting.sol\":6958:6968  msg.sender */\n      caller\n        /* \"Voting/Voting.sol\":6948:6969  whitelist[msg.sender] */\n      0xffffffffffffffffffffffffffffffffffffffff\n      and\n      0xffffffffffffffffffffffffffffffffffffffff\n      and\n      dup2\n      mstore\n      0x20\n      add\n      swap1\n      dup2\n      mstore\n      0x20\n      add\n      0x00\n      keccak256\n        /* \"Voting/Voting.sol\":6948:6978  whitelist[msg.sender].hasVoted */\n      0x00\n      add\n      0x01\n      swap1\n      sload\n      swap1\n      0x0100\n      exp\n      swap1\n      div\n      0xff\n      and\n        /* \"Voting/Voting.sol\":6947:6978  !whitelist[msg.sender].hasVoted */\n      iszero\n        /* \"Voting/Voting.sol\":6926:7052  require(... */\n      tag_201\n      jumpi\n      mload(0x40)\n      0x08c379a000000000000000000000000000000000000000000000000000000000\n      dup2\n      mstore\n      0x04\n      add\n      tag_202\n      swap1\n      tag_203\n      jump\t// in\n    tag_202:\n      mload(0x40)\n      dup1\n      swap2\n      sub\n      swap1\n      revert\n    tag_201:\n        /* \"Voting/Voting.sol\":7097:7106  proposals */\n      0x02\n        /* \"Voting/Voting.sol\":7097:7113  proposals.length */\n      dup1\n      sload\n      swap1\n      pop\n        /* \"Voting/Voting.sol\":7083:7094  _proposalId */\n      dup2\n        /* \"Voting/Voting.sol\":7083:7113  _proposalId < proposals.length */\n      lt\n        /* \"Voting/Voting.sol\":7062:7199  require(... */\n      tag_204\n      jumpi\n      mload(0x40)\n      0x08c379a000000000000000000000000000000000000000000000000000000000\n      dup2\n      mstore\n      0x04\n      add\n      tag_205\n      swap1\n      tag_206\n      jump\t// in\n    tag_205:\n      mload(0x40)\n      dup1\n      swap2\n      sub\n      swap1\n      revert\n    tag_204:\n        /* \"Voting/Voting.sol\":7209:7218  proposals */\n      0x02\n        /* \"Voting/Voting.sol\":7219:7230  _proposalId */\n      dup2\n        /* \"Voting/Voting.sol\":7209:7231  proposals[_proposalId] */\n      dup2\n      sload\n      dup2\n      lt\n      tag_207\n      jumpi\n      tag_208\n      tag_127\n      jump\t// in\n    tag_208:\n    tag_207:\n      swap1\n      0x00\n      mstore\n      keccak256(0x00, 0x20)\n      swap1\n      0x02\n      mul\n      add\n        /* \"Voting/Voting.sol\":7209:7241  proposals[_proposalId].voteCount */\n      0x01\n      add\n      0x00\n        /* \"Voting/Voting.sol\":7209:7243  proposals[_proposalId].voteCount++ */\n      dup2\n      sload\n      dup1\n      swap3\n      swap2\n      swap1\n      tag_210\n      swap1\n      tag_134\n      jump\t// in\n    tag_210:\n      swap2\n      swap1\n      pop\n      sstore\n      pop\n        /* \"Voting/Voting.sol\":7293:7304  _proposalId */\n      dup1\n        /* \"Voting/Voting.sol\":7253:7262  whitelist */\n      0x01\n        /* \"Voting/Voting.sol\":7253:7274  whitelist[msg.sender] */\n      0x00\n        /* \"Voting/Voting.sol\":7263:7273  msg.sender */\n      caller\n        /* \"Voting/Voting.sol\":7253:7274  whitelist[msg.sender] */\n      0xffffffffffffffffffffffffffffffffffffffff\n      and\n      0xffffffffffffffffffffffffffffffffffffffff\n      and\n      dup2\n      mstore\n      0x20\n      add\n      swap1\n      dup2\n      mstore\n      0x20\n      add\n      0x00\n      keccak256\n        /* \"Voting/Voting.sol\":7253:7290  whitelist[msg.sender].votedProposalId */\n      0x01\n      add\n        /* \"Voting/Voting.sol\":7253:7304  whitelist[msg.sender].votedProposalId = _proposalId */\n      dup2\n      swap1\n      sstore\n      pop\n        /* \"Voting/Voting.sol\":7347:7351  true */\n      0x01\n        /* \"Voting/Voting.sol\":7314:7323  whitelist */\n      dup1\n        /* \"Voting/Voting.sol\":7314:7335  whitelist[msg.sender] */\n      0x00\n        /* \"Voting/Voting.sol\":7324:7334  msg.sender */\n      caller\n        /* \"Voting/Voting.sol\":7314:7335  whitelist[msg.sender] */\n      0xffffffffffffffffffffffffffffffffffffffff\n      and\n      0xffffffffffffffffffffffffffffffffffffffff\n      and\n      dup2\n      mstore\n      0x20\n      add\n      swap1\n      dup2\n      mstore\n      0x20\n      add\n      0x00\n      keccak256\n        /* \"Voting/Voting.sol\":7314:7344  whitelist[msg.sender].hasVoted */\n      0x00\n      add\n      0x01\n        /* \"Voting/Voting.sol\":7314:7351  whitelist[msg.sender].hasVoted = true */\n      0x0100\n      exp\n      dup2\n      sload\n      dup2\n      0xff\n      mul\n      not\n      and\n      swap1\n      dup4\n      iszero\n      iszero\n      mul\n      or\n      swap1\n      sstore\n      pop\n        /* \"Voting/Voting.sol\":7366:7396  Voted(msg.sender, _proposalId) */\n      0x4d99b957a2bc29a30ebd96a7be8e68fe50a3c701db28a91436490b7d53870ca4\n        /* \"Voting/Voting.sol\":7372:7382  msg.sender */\n      caller\n        /* \"Voting/Voting.sol\":7384:7395  _proposalId */\n      dup3\n        /* \"Voting/Voting.sol\":7366:7396  Voted(msg.sender, _proposalId) */\n      mload(0x40)\n      tag_211\n      swap3\n      swap2\n      swap1\n      tag_212\n      jump\t// in\n    tag_211:\n      mload(0x40)\n      dup1\n      swap2\n      sub\n      swap1\n      log1\n        /* \"Voting/Voting.sol\":6808:7403  function voting(uint _proposalId)... */\n      pop\n      jump\t// out\n        /* \"Voting/Voting.sol\":2069:2272  function _isWhitelisted() internal view {... */\n    tag_84:\n        /* \"Voting/Voting.sol\":2178:2182  true */\n      0x01\n        /* \"Voting/Voting.sol\":2140:2182  whitelist[msg.sender].isRegistered == true */\n      iszero\n      iszero\n        /* \"Voting/Voting.sol\":2140:2149  whitelist */\n      0x01\n        /* \"Voting/Voting.sol\":2140:2161  whitelist[msg.sender] */\n      0x00\n        /* \"Voting/Voting.sol\":2150:2160  msg.sender */\n      caller\n        /* \"Voting/Voting.sol\":2140:2161  whitelist[msg.sender] */\n      0xffffffffffffffffffffffffffffffffffffffff\n      and\n      0xffffffffffffffffffffffffffffffffffffffff\n      and\n      dup2\n      mstore\n      0x20\n      add\n      swap1\n      dup2\n      mstore\n      0x20\n      add\n      0x00\n      keccak256\n        /* \"Voting/Voting.sol\":2140:2174  whitelist[msg.sender].isRegistered */\n      0x00\n      add\n      0x00\n      swap1\n      sload\n      swap1\n      0x0100\n      exp\n      swap1\n      div\n      0xff\n      and\n        /* \"Voting/Voting.sol\":2140:2182  whitelist[msg.sender].isRegistered == true */\n      iszero\n      iszero\n      eq\n        /* \"Voting/Voting.sol\":2119:2265  require(... */\n      tag_214\n      jumpi\n      mload(0x40)\n      0x08c379a000000000000000000000000000000000000000000000000000000000\n      dup2\n      mstore\n      0x04\n      add\n      tag_215\n      swap1\n      tag_216\n      jump\t// in\n    tag_215:\n      mload(0x40)\n      dup1\n      swap2\n      sub\n      swap1\n      revert\n    tag_214:\n        /* \"Voting/Voting.sol\":2069:2272  function _isWhitelisted() internal view {... */\n      jump\t// out\n        /* \"Voting/Voting.sol\":2334:2540  function _isProposalsRegistrationStarted() internal view {... */\n    tag_87:\n        /* \"Voting/Voting.sol\":2432:2475  WorkflowStatus.ProposalsRegistrationStarted */\n      0x01\n        /* \"Voting/Voting.sol\":2422:2475  status == WorkflowStatus.ProposalsRegistrationStarted */\n      0x05\n      dup2\n      gt\n      iszero\n      tag_218\n      jumpi\n      tag_219\n      tag_220\n      jump\t// in\n    tag_219:\n    tag_218:\n        /* \"Voting/Voting.sol\":2422:2428  status */\n      0x03\n      0x00\n      swap1\n      sload\n      swap1\n      0x0100\n      exp\n      swap1\n      div\n      0xff\n      and\n        /* \"Voting/Voting.sol\":2422:2475  status == WorkflowStatus.ProposalsRegistrationStarted */\n      0x05\n      dup2\n      gt\n      iszero\n      tag_221\n      jumpi\n      tag_222\n      tag_220\n      jump\t// in\n    tag_222:\n    tag_221:\n      eq\n        /* \"Voting/Voting.sol\":2401:2533  require(... */\n      tag_223\n      jumpi\n      mload(0x40)\n      0x08c379a000000000000000000000000000000000000000000000000000000000\n      dup2\n      mstore\n      0x04\n      add\n      tag_224\n      swap1\n      tag_225\n      jump\t// in\n    tag_224:\n      mload(0x40)\n      dup1\n      swap2\n      sub\n      swap1\n      revert\n    tag_223:\n        /* \"Voting/Voting.sol\":2334:2540  function _isProposalsRegistrationStarted() internal view {... */\n      jump\t// out\n        /* \"@openzeppelin/contracts/access/Ownable.sol\":1359:1489  function _checkOwner() internal view virtual {... */\n    tag_98:\n        /* \"@openzeppelin/contracts/access/Ownable.sol\":1433:1445  _msgSender() */\n      tag_227\n        /* \"@openzeppelin/contracts/access/Ownable.sol\":1433:1443  _msgSender */\n      tag_228\n        /* \"@openzeppelin/contracts/access/Ownable.sol\":1433:1445  _msgSender() */\n      jump\t// in\n    tag_227:\n        /* \"@openzeppelin/contracts/access/Ownable.sol\":1422:1445  owner() == _msgSender() */\n      0xffffffffffffffffffffffffffffffffffffffff\n      and\n        /* \"@openzeppelin/contracts/access/Ownable.sol\":1422:1429  owner() */\n      tag_229\n        /* \"@openzeppelin/contracts/access/Ownable.sol\":1422:1427  owner */\n      tag_47\n        /* \"@openzeppelin/contracts/access/Ownable.sol\":1422:1429  owner() */\n      jump\t// in\n    tag_229:\n        /* \"@openzeppelin/contracts/access/Ownable.sol\":1422:1445  owner() == _msgSender() */\n      0xffffffffffffffffffffffffffffffffffffffff\n      and\n      eq\n        /* \"@openzeppelin/contracts/access/Ownable.sol\":1414:1482  require(owner() == _msgSender(), \"Ownable: caller is not the owner\") */\n      tag_230\n      jumpi\n      mload(0x40)\n      0x08c379a000000000000000000000000000000000000000000000000000000000\n      dup2\n      mstore\n      0x04\n      add\n      tag_231\n      swap1\n      tag_232\n      jump\t// in\n    tag_231:\n      mload(0x40)\n      dup1\n      swap2\n      sub\n      swap1\n      revert\n    tag_230:\n        /* \"@openzeppelin/contracts/access/Ownable.sol\":1359:1489  function _checkOwner() internal view virtual {... */\n      jump\t// out\n        /* \"Voting/Voting.sol\":1823:2021  function _isRegisteringVotersStatus() internal view {... */\n    tag_101:\n        /* \"Voting/Voting.sol\":1916:1948  WorkflowStatus.RegisteringVoters */\n      0x00\n        /* \"Voting/Voting.sol\":1906:1948  status == WorkflowStatus.RegisteringVoters */\n      0x05\n      dup2\n      gt\n      iszero\n      tag_234\n      jumpi\n      tag_235\n      tag_220\n      jump\t// in\n    tag_235:\n    tag_234:\n        /* \"Voting/Voting.sol\":1906:1912  status */\n      0x03\n      0x00\n      swap1\n      sload\n      swap1\n      0x0100\n      exp\n      swap1\n      div\n      0xff\n      and\n        /* \"Voting/Voting.sol\":1906:1948  status == WorkflowStatus.RegisteringVoters */\n      0x05\n      dup2\n      gt\n      iszero\n      tag_236\n      jumpi\n      tag_237\n      tag_220\n      jump\t// in\n    tag_237:\n    tag_236:\n      eq\n        /* \"Voting/Voting.sol\":1885:2014  require(... */\n      tag_238\n      jumpi\n      mload(0x40)\n      0x08c379a000000000000000000000000000000000000000000000000000000000\n      dup2\n      mstore\n      0x04\n      add\n      tag_239\n      swap1\n      tag_240\n      jump\t// in\n    tag_239:\n      mload(0x40)\n      dup1\n      swap2\n      sub\n      swap1\n      revert\n    tag_238:\n        /* \"Voting/Voting.sol\":1823:2021  function _isRegisteringVotersStatus() internal view {... */\n      jump\t// out\n        /* \"Voting/Voting.sol\":2791:2996  function _isVotingSessionEnded() internal view {... */\n    tag_120:\n        /* \"Voting/Voting.sol\":2879:2912  WorkflowStatus.VotingSessionEnded */\n      0x04\n        /* \"Voting/Voting.sol\":2869:2912  status == WorkflowStatus.VotingSessionEnded */\n      0x05\n      dup2\n      gt\n      iszero\n      tag_242\n      jumpi\n      tag_243\n      tag_220\n      jump\t// in\n    tag_243:\n    tag_242:\n        /* \"Voting/Voting.sol\":2869:2875  status */\n      0x03\n      0x00\n      swap1\n      sload\n      swap1\n      0x0100\n      exp\n      swap1\n      div\n      0xff\n      and\n        /* \"Voting/Voting.sol\":2869:2912  status == WorkflowStatus.VotingSessionEnded */\n      0x05\n      dup2\n      gt\n      iszero\n      tag_244\n      jumpi\n      tag_245\n      tag_220\n      jump\t// in\n    tag_245:\n    tag_244:\n      eq\n        /* \"Voting/Voting.sol\":2848:2989  require(... */\n      tag_246\n      jumpi\n      mload(0x40)\n      0x08c379a000000000000000000000000000000000000000000000000000000000\n      dup2\n      mstore\n      0x04\n      add\n      tag_247\n      swap1\n      tag_248\n      jump\t// in\n    tag_247:\n      mload(0x40)\n      dup1\n      swap2\n      sub\n      swap1\n      revert\n    tag_246:\n        /* \"Voting/Voting.sol\":2791:2996  function _isVotingSessionEnded() internal view {... */\n      jump\t// out\n        /* \"Voting/Voting.sol\":6450:6699  function setStatus(WorkflowStatus _status)... */\n    tag_136:\n        /* \"@openzeppelin/contracts/access/Ownable.sol\":1094:1107  _checkOwner() */\n      tag_250\n        /* \"@openzeppelin/contracts/access/Ownable.sol\":1094:1105  _checkOwner */\n      tag_98\n        /* \"@openzeppelin/contracts/access/Ownable.sol\":1094:1107  _checkOwner() */\n      jump\t// in\n    tag_250:\n        /* \"Voting/Voting.sol\":6555:6562  _status */\n      dup1\n        /* \"Voting/Voting.sol\":1476:1504  _isConsistantStatus(_status) */\n      tag_252\n        /* \"Voting/Voting.sol\":1496:1503  _status */\n      dup2\n        /* \"Voting/Voting.sol\":1476:1495  _isConsistantStatus */\n      tag_253\n        /* \"Voting/Voting.sol\":1476:1504  _isConsistantStatus(_status) */\n      jump\t// in\n    tag_252:\n        /* \"Voting/Voting.sol\":6578:6602  WorkflowStatus oldStatus */\n      0x00\n        /* \"Voting/Voting.sol\":6605:6611  status */\n      0x03\n      0x00\n      swap1\n      sload\n      swap1\n      0x0100\n      exp\n      swap1\n      div\n      0xff\n      and\n        /* \"Voting/Voting.sol\":6578:6611  WorkflowStatus oldStatus = status */\n      swap1\n      pop\n        /* \"Voting/Voting.sol\":6630:6637  _status */\n      dup3\n        /* \"Voting/Voting.sol\":6621:6627  status */\n      0x03\n      0x00\n        /* \"Voting/Voting.sol\":6621:6637  status = _status */\n      0x0100\n      exp\n      dup2\n      sload\n      dup2\n      0xff\n      mul\n      not\n      and\n      swap1\n      dup4\n      0x05\n      dup2\n      gt\n      iszero\n      tag_255\n      jumpi\n      tag_256\n      tag_220\n      jump\t// in\n    tag_256:\n    tag_255:\n      mul\n      or\n      swap1\n      sstore\n      pop\n        /* \"Voting/Voting.sol\":6652:6692  WorkflowStatusChange(oldStatus, _status) */\n      0x0a97a4ee45751e2abf3e4fc8946939630b11b371ea8ae39ccdc3056e98f5cc3f\n        /* \"Voting/Voting.sol\":6673:6682  oldStatus */\n      dup2\n        /* \"Voting/Voting.sol\":6684:6691  _status */\n      dup5\n        /* \"Voting/Voting.sol\":6652:6692  WorkflowStatusChange(oldStatus, _status) */\n      mload(0x40)\n      tag_257\n      swap3\n      swap2\n      swap1\n      tag_258\n      jump\t// in\n    tag_257:\n      mload(0x40)\n      dup1\n      swap2\n      sub\n      swap1\n      log1\n        /* \"Voting/Voting.sol\":6568:6699  {... */\n      pop\n        /* \"@openzeppelin/contracts/access/Ownable.sol\":1117:1118  _ */\n      pop\n        /* \"Voting/Voting.sol\":6450:6699  function setStatus(WorkflowStatus _status)... */\n      pop\n      jump\t// out\n        /* \"@openzeppelin/contracts/access/Ownable.sol\":2433:2620  function _transferOwnership(address newOwner) internal virtual {... */\n    tag_141:\n        /* \"@openzeppelin/contracts/access/Ownable.sol\":2506:2522  address oldOwner */\n      0x00\n        /* \"@openzeppelin/contracts/access/Ownable.sol\":2525:2531  _owner */\n      dup1\n      0x00\n      swap1\n      sload\n      swap1\n      0x0100\n      exp\n      swap1\n      div\n      0xffffffffffffffffffffffffffffffffffffffff\n      and\n        /* \"@openzeppelin/contracts/access/Ownable.sol\":2506:2531  address oldOwner = _owner */\n      swap1\n      pop\n        /* \"@openzeppelin/contracts/access/Ownable.sol\":2550:2558  newOwner */\n      dup2\n        /* \"@openzeppelin/contracts/access/Ownable.sol\":2541:2547  _owner */\n      0x00\n      dup1\n        /* \"@openzeppelin/contracts/access/Ownable.sol\":2541:2558  _owner = newOwner */\n      0x0100\n      exp\n      dup2\n      sload\n      dup2\n      0xffffffffffffffffffffffffffffffffffffffff\n      mul\n      not\n      and\n      swap1\n      dup4\n      0xffffffffffffffffffffffffffffffffffffffff\n      and\n      mul\n      or\n      swap1\n      sstore\n      pop\n        /* \"@openzeppelin/contracts/access/Ownable.sol\":2604:2612  newOwner */\n      dup2\n        /* \"@openzeppelin/contracts/access/Ownable.sol\":2573:2613  OwnershipTransferred(oldOwner, newOwner) */\n      0xffffffffffffffffffffffffffffffffffffffff\n      and\n        /* \"@openzeppelin/contracts/access/Ownable.sol\":2594:2602  oldOwner */\n      dup2\n        /* \"@openzeppelin/contracts/access/Ownable.sol\":2573:2613  OwnershipTransferred(oldOwner, newOwner) */\n      0xffffffffffffffffffffffffffffffffffffffff\n      and\n      0x8be0079c531659141344cd1fd0a4f28419497f9722a3daafe3b4186f6b6457e0\n      mload(0x40)\n      mload(0x40)\n      dup1\n      swap2\n      sub\n      swap1\n      log3\n        /* \"@openzeppelin/contracts/access/Ownable.sol\":2496:2620  {... */\n      pop\n        /* \"@openzeppelin/contracts/access/Ownable.sol\":2433:2620  function _transferOwnership(address newOwner) internal virtual {... */\n      pop\n      jump\t// out\n        /* \"Voting/Voting.sol\":3002:3171  function _isVotesTallied() internal view {... */\n    tag_147:\n        /* \"Voting/Voting.sol\":3084:3111  WorkflowStatus.VotesTallied */\n      0x05\n        /* \"Voting/Voting.sol\":3074:3111  status == WorkflowStatus.VotesTallied */\n      dup1\n      dup2\n      gt\n      iszero\n      tag_261\n      jumpi\n      tag_262\n      tag_220\n      jump\t// in\n    tag_262:\n    tag_261:\n        /* \"Voting/Voting.sol\":3074:3080  status */\n      0x03\n      0x00\n      swap1\n      sload\n      swap1\n      0x0100\n      exp\n      swap1\n      div\n      0xff\n      and\n        /* \"Voting/Voting.sol\":3074:3111  status == WorkflowStatus.VotesTallied */\n      0x05\n      dup2\n      gt\n      iszero\n      tag_263\n      jumpi\n      tag_264\n      tag_220\n      jump\t// in\n    tag_264:\n    tag_263:\n      eq\n        /* \"Voting/Voting.sol\":3053:3164  require(... */\n      tag_265\n      jumpi\n      mload(0x40)\n      0x08c379a000000000000000000000000000000000000000000000000000000000\n      dup2\n      mstore\n      0x04\n      add\n      tag_266\n      swap1\n      tag_267\n      jump\t// in\n    tag_266:\n      mload(0x40)\n      dup1\n      swap2\n      sub\n      swap1\n      revert\n    tag_265:\n        /* \"Voting/Voting.sol\":3002:3171  function _isVotesTallied() internal view {... */\n      jump\t// out\n        /* \"Voting/Voting.sol\":2602:2785  function _isVotingSessionStarted() internal view {... */\n    tag_197:\n        /* \"Voting/Voting.sol\":2692:2727  WorkflowStatus.VotingSessionStarted */\n      0x03\n        /* \"Voting/Voting.sol\":2682:2727  status == WorkflowStatus.VotingSessionStarted */\n      0x05\n      dup2\n      gt\n      iszero\n      tag_269\n      jumpi\n      tag_270\n      tag_220\n      jump\t// in\n    tag_270:\n    tag_269:\n        /* \"Voting/Voting.sol\":2682:2688  status */\n      0x03\n      0x00\n      swap1\n      sload\n      swap1\n      0x0100\n      exp\n      swap1\n      div\n      0xff\n      and\n        /* \"Voting/Voting.sol\":2682:2727  status == WorkflowStatus.VotingSessionStarted */\n      0x05\n      dup2\n      gt\n      iszero\n      tag_271\n      jumpi\n      tag_272\n      tag_220\n      jump\t// in\n    tag_272:\n    tag_271:\n      eq\n        /* \"Voting/Voting.sol\":2661:2778  require(... */\n      tag_273\n      jumpi\n      mload(0x40)\n      0x08c379a000000000000000000000000000000000000000000000000000000000\n      dup2\n      mstore\n      0x04\n      add\n      tag_274\n      swap1\n      tag_275\n      jump\t// in\n    tag_274:\n      mload(0x40)\n      dup1\n      swap2\n      sub\n      swap1\n      revert\n    tag_273:\n        /* \"Voting/Voting.sol\":2602:2785  function _isVotingSessionStarted() internal view {... */\n      jump\t// out\n        /* \"@openzeppelin/contracts/utils/Context.sol\":640:736  function _msgSender() internal view virtual returns (address) {... */\n    tag_228:\n        /* \"@openzeppelin/contracts/utils/Context.sol\":693:700  address */\n      0x00\n        /* \"@openzeppelin/contracts/utils/Context.sol\":719:729  msg.sender */\n      caller\n        /* \"@openzeppelin/contracts/utils/Context.sol\":712:729  return msg.sender */\n      swap1\n      pop\n        /* \"@openzeppelin/contracts/utils/Context.sol\":640:736  function _msgSender() internal view virtual returns (address) {... */\n      swap1\n      jump\t// out\n        /* \"Voting/Voting.sol\":3233:5280  function _isConsistantStatus(WorkflowStatus _status) internal view {... */\n    tag_253:\n        /* \"Voting/Voting.sol\":3325:3357  WorkflowStatus.RegisteringVoters */\n      0x00\n        /* \"Voting/Voting.sol\":3314:3357  _status == WorkflowStatus.RegisteringVoters */\n      0x05\n      dup2\n      gt\n      iszero\n      tag_278\n      jumpi\n      tag_279\n      tag_220\n      jump\t// in\n    tag_279:\n    tag_278:\n        /* \"Voting/Voting.sol\":3314:3321  _status */\n      dup2\n        /* \"Voting/Voting.sol\":3314:3357  _status == WorkflowStatus.RegisteringVoters */\n      0x05\n      dup2\n      gt\n      iszero\n      tag_280\n      jumpi\n      tag_281\n      tag_220\n      jump\t// in\n    tag_281:\n    tag_280:\n      sub\n        /* \"Voting/Voting.sol\":3310:5274  if (_status == WorkflowStatus.RegisteringVoters) {... */\n      tag_282\n      jumpi\n        /* \"Voting/Voting.sol\":3408:3440  WorkflowStatus.RegisteringVoters */\n      0x00\n        /* \"Voting/Voting.sol\":3398:3440  status == WorkflowStatus.RegisteringVoters */\n      0x05\n      dup2\n      gt\n      iszero\n      tag_283\n      jumpi\n      tag_284\n      tag_220\n      jump\t// in\n    tag_284:\n    tag_283:\n        /* \"Voting/Voting.sol\":3398:3404  status */\n      0x03\n      0x00\n      swap1\n      sload\n      swap1\n      0x0100\n      exp\n      swap1\n      div\n      0xff\n      and\n        /* \"Voting/Voting.sol\":3398:3440  status == WorkflowStatus.RegisteringVoters */\n      0x05\n      dup2\n      gt\n      iszero\n      tag_285\n      jumpi\n      tag_286\n      tag_220\n      jump\t// in\n    tag_286:\n    tag_285:\n      eq\n        /* \"Voting/Voting.sol\":3398:3517  status == WorkflowStatus.RegisteringVoters ||... */\n      dup1\n      tag_287\n      jumpi\n      pop\n        /* \"Voting/Voting.sol\":3474:3517  WorkflowStatus.ProposalsRegistrationStarted */\n      0x01\n        /* \"Voting/Voting.sol\":3464:3517  status == WorkflowStatus.ProposalsRegistrationStarted */\n      0x05\n      dup2\n      gt\n      iszero\n      tag_288\n      jumpi\n      tag_289\n      tag_220\n      jump\t// in\n    tag_289:\n    tag_288:\n        /* \"Voting/Voting.sol\":3464:3470  status */\n      0x03\n      0x00\n      swap1\n      sload\n      swap1\n      0x0100\n      exp\n      swap1\n      div\n      0xff\n      and\n        /* \"Voting/Voting.sol\":3464:3517  status == WorkflowStatus.ProposalsRegistrationStarted */\n      0x05\n      dup2\n      gt\n      iszero\n      tag_290\n      jumpi\n      tag_291\n      tag_220\n      jump\t// in\n    tag_291:\n    tag_290:\n      eq\n        /* \"Voting/Voting.sol\":3398:3517  status == WorkflowStatus.RegisteringVoters ||... */\n    tag_287:\n        /* \"Voting/Voting.sol\":3373:3633  require(... */\n      tag_292\n      jumpi\n      mload(0x40)\n      0x08c379a000000000000000000000000000000000000000000000000000000000\n      dup2\n      mstore\n      0x04\n      add\n      tag_293\n      swap1\n      tag_294\n      jump\t// in\n    tag_293:\n      mload(0x40)\n      dup1\n      swap2\n      sub\n      swap1\n      revert\n    tag_292:\n        /* \"Voting/Voting.sol\":3310:5274  if (_status == WorkflowStatus.RegisteringVoters) {... */\n      jump(tag_295)\n    tag_282:\n        /* \"Voting/Voting.sol\":3665:3708  WorkflowStatus.ProposalsRegistrationStarted */\n      0x01\n        /* \"Voting/Voting.sol\":3654:3708  _status == WorkflowStatus.ProposalsRegistrationStarted */\n      0x05\n      dup2\n      gt\n      iszero\n      tag_296\n      jumpi\n      tag_297\n      tag_220\n      jump\t// in\n    tag_297:\n    tag_296:\n        /* \"Voting/Voting.sol\":3654:3661  _status */\n      dup2\n        /* \"Voting/Voting.sol\":3654:3708  _status == WorkflowStatus.ProposalsRegistrationStarted */\n      0x05\n      dup2\n      gt\n      iszero\n      tag_298\n      jumpi\n      tag_299\n      tag_220\n      jump\t// in\n    tag_299:\n    tag_298:\n      sub\n        /* \"Voting/Voting.sol\":3650:5274  if (_status == WorkflowStatus.ProposalsRegistrationStarted) {... */\n      tag_300\n      jumpi\n        /* \"Voting/Voting.sol\":3759:3791  WorkflowStatus.RegisteringVoters */\n      0x00\n        /* \"Voting/Voting.sol\":3749:3791  status == WorkflowStatus.RegisteringVoters */\n      0x05\n      dup2\n      gt\n      iszero\n      tag_301\n      jumpi\n      tag_302\n      tag_220\n      jump\t// in\n    tag_302:\n    tag_301:\n        /* \"Voting/Voting.sol\":3749:3755  status */\n      0x03\n      0x00\n      swap1\n      sload\n      swap1\n      0x0100\n      exp\n      swap1\n      div\n      0xff\n      and\n        /* \"Voting/Voting.sol\":3749:3791  status == WorkflowStatus.RegisteringVoters */\n      0x05\n      dup2\n      gt\n      iszero\n      tag_303\n      jumpi\n      tag_304\n      tag_220\n      jump\t// in\n    tag_304:\n    tag_303:\n      eq\n        /* \"Voting/Voting.sol\":3749:3866  status == WorkflowStatus.RegisteringVoters ||... */\n      dup1\n      tag_305\n      jumpi\n      pop\n        /* \"Voting/Voting.sol\":3825:3866  WorkflowStatus.ProposalsRegistrationEnded */\n      0x02\n        /* \"Voting/Voting.sol\":3815:3866  status == WorkflowStatus.ProposalsRegistrationEnded */\n      0x05\n      dup2\n      gt\n      iszero\n      tag_306\n      jumpi\n      tag_307\n      tag_220\n      jump\t// in\n    tag_307:\n    tag_306:\n        /* \"Voting/Voting.sol\":3815:3821  status */\n      0x03\n      0x00\n      swap1\n      sload\n      swap1\n      0x0100\n      exp\n      swap1\n      div\n      0xff\n      and\n        /* \"Voting/Voting.sol\":3815:3866  status == WorkflowStatus.ProposalsRegistrationEnded */\n      0x05\n      dup2\n      gt\n      iszero\n      tag_308\n      jumpi\n      tag_309\n      tag_220\n      jump\t// in\n    tag_309:\n    tag_308:\n      eq\n        /* \"Voting/Voting.sol\":3749:3866  status == WorkflowStatus.RegisteringVoters ||... */\n    tag_305:\n        /* \"Voting/Voting.sol\":3724:3982  require(... */\n      tag_310\n      jumpi\n      mload(0x40)\n      0x08c379a000000000000000000000000000000000000000000000000000000000\n      dup2\n      mstore\n      0x04\n      add\n      tag_311\n      swap1\n      tag_294\n      jump\t// in\n    tag_311:\n      mload(0x40)\n      dup1\n      swap2\n      sub\n      swap1\n      revert\n    tag_310:\n        /* \"Voting/Voting.sol\":3650:5274  if (_status == WorkflowStatus.ProposalsRegistrationStarted) {... */\n      jump(tag_312)\n    tag_300:\n        /* \"Voting/Voting.sol\":4014:4055  WorkflowStatus.ProposalsRegistrationEnded */\n      0x02\n        /* \"Voting/Voting.sol\":4003:4055  _status == WorkflowStatus.ProposalsRegistrationEnded */\n      0x05\n      dup2\n      gt\n      iszero\n      tag_313\n      jumpi\n      tag_314\n      tag_220\n      jump\t// in\n    tag_314:\n    tag_313:\n        /* \"Voting/Voting.sol\":4003:4010  _status */\n      dup2\n        /* \"Voting/Voting.sol\":4003:4055  _status == WorkflowStatus.ProposalsRegistrationEnded */\n      0x05\n      dup2\n      gt\n      iszero\n      tag_315\n      jumpi\n      tag_316\n      tag_220\n      jump\t// in\n    tag_316:\n    tag_315:\n      sub\n        /* \"Voting/Voting.sol\":3999:5274  if (_status == WorkflowStatus.ProposalsRegistrationEnded) {... */\n      tag_317\n      jumpi\n        /* \"Voting/Voting.sol\":4106:4149  WorkflowStatus.ProposalsRegistrationStarted */\n      0x01\n        /* \"Voting/Voting.sol\":4096:4149  status == WorkflowStatus.ProposalsRegistrationStarted */\n      0x05\n      dup2\n      gt\n      iszero\n      tag_318\n      jumpi\n      tag_319\n      tag_220\n      jump\t// in\n    tag_319:\n    tag_318:\n        /* \"Voting/Voting.sol\":4096:4102  status */\n      0x03\n      0x00\n      swap1\n      sload\n      swap1\n      0x0100\n      exp\n      swap1\n      div\n      0xff\n      and\n        /* \"Voting/Voting.sol\":4096:4149  status == WorkflowStatus.ProposalsRegistrationStarted */\n      0x05\n      dup2\n      gt\n      iszero\n      tag_320\n      jumpi\n      tag_321\n      tag_220\n      jump\t// in\n    tag_321:\n    tag_320:\n      eq\n        /* \"Voting/Voting.sol\":4096:4218  status == WorkflowStatus.ProposalsRegistrationStarted ||... */\n      dup1\n      tag_322\n      jumpi\n      pop\n        /* \"Voting/Voting.sol\":4183:4218  WorkflowStatus.VotingSessionStarted */\n      0x03\n        /* \"Voting/Voting.sol\":4173:4218  status == WorkflowStatus.VotingSessionStarted */\n      0x05\n      dup2\n      gt\n      iszero\n      tag_323\n      jumpi\n      tag_324\n      tag_220\n      jump\t// in\n    tag_324:\n    tag_323:\n        /* \"Voting/Voting.sol\":4173:4179  status */\n      0x03\n      0x00\n      swap1\n      sload\n      swap1\n      0x0100\n      exp\n      swap1\n      div\n      0xff\n      and\n        /* \"Voting/Voting.sol\":4173:4218  status == WorkflowStatus.VotingSessionStarted */\n      0x05\n      dup2\n      gt\n      iszero\n      tag_325\n      jumpi\n      tag_326\n      tag_220\n      jump\t// in\n    tag_326:\n    tag_325:\n      eq\n        /* \"Voting/Voting.sol\":4096:4218  status == WorkflowStatus.ProposalsRegistrationStarted ||... */\n    tag_322:\n        /* \"Voting/Voting.sol\":4071:4334  require(... */\n      tag_327\n      jumpi\n      mload(0x40)\n      0x08c379a000000000000000000000000000000000000000000000000000000000\n      dup2\n      mstore\n      0x04\n      add\n      tag_328\n      swap1\n      tag_294\n      jump\t// in\n    tag_328:\n      mload(0x40)\n      dup1\n      swap2\n      sub\n      swap1\n      revert\n    tag_327:\n        /* \"Voting/Voting.sol\":3999:5274  if (_status == WorkflowStatus.ProposalsRegistrationEnded) {... */\n      jump(tag_329)\n    tag_317:\n        /* \"Voting/Voting.sol\":4366:4401  WorkflowStatus.VotingSessionStarted */\n      0x03\n        /* \"Voting/Voting.sol\":4355:4401  _status == WorkflowStatus.VotingSessionStarted */\n      0x05\n      dup2\n      gt\n      iszero\n      tag_330\n      jumpi\n      tag_331\n      tag_220\n      jump\t// in\n    tag_331:\n    tag_330:\n        /* \"Voting/Voting.sol\":4355:4362  _status */\n      dup2\n        /* \"Voting/Voting.sol\":4355:4401  _status == WorkflowStatus.VotingSessionStarted */\n      0x05\n      dup2\n      gt\n      iszero\n      tag_332\n      jumpi\n      tag_333\n      tag_220\n      jump\t// in\n    tag_333:\n    tag_332:\n      sub\n        /* \"Voting/Voting.sol\":4351:5274  if (_status == WorkflowStatus.VotingSessionStarted) {... */\n      tag_334\n      jumpi\n        /* \"Voting/Voting.sol\":4452:4493  WorkflowStatus.ProposalsRegistrationEnded */\n      0x02\n        /* \"Voting/Voting.sol\":4442:4493  status == WorkflowStatus.ProposalsRegistrationEnded */\n      0x05\n      dup2\n      gt\n      iszero\n      tag_335\n      jumpi\n      tag_336\n      tag_220\n      jump\t// in\n    tag_336:\n    tag_335:\n        /* \"Voting/Voting.sol\":4442:4448  status */\n      0x03\n      0x00\n      swap1\n      sload\n      swap1\n      0x0100\n      exp\n      swap1\n      div\n      0xff\n      and\n        /* \"Voting/Voting.sol\":4442:4493  status == WorkflowStatus.ProposalsRegistrationEnded */\n      0x05\n      dup2\n      gt\n      iszero\n      tag_337\n      jumpi\n      tag_338\n      tag_220\n      jump\t// in\n    tag_338:\n    tag_337:\n      eq\n        /* \"Voting/Voting.sol\":4442:4560  status == WorkflowStatus.ProposalsRegistrationEnded ||... */\n      dup1\n      tag_339\n      jumpi\n      pop\n        /* \"Voting/Voting.sol\":4527:4560  WorkflowStatus.VotingSessionEnded */\n      0x04\n        /* \"Voting/Voting.sol\":4517:4560  status == WorkflowStatus.VotingSessionEnded */\n      0x05\n      dup2\n      gt\n      iszero\n      tag_340\n      jumpi\n      tag_341\n      tag_220\n      jump\t// in\n    tag_341:\n    tag_340:\n        /* \"Voting/Voting.sol\":4517:4523  status */\n      0x03\n      0x00\n      swap1\n      sload\n      swap1\n      0x0100\n      exp\n      swap1\n      div\n      0xff\n      and\n        /* \"Voting/Voting.sol\":4517:4560  status == WorkflowStatus.VotingSessionEnded */\n      0x05\n      dup2\n      gt\n      iszero\n      tag_342\n      jumpi\n      tag_343\n      tag_220\n      jump\t// in\n    tag_343:\n    tag_342:\n      eq\n        /* \"Voting/Voting.sol\":4442:4560  status == WorkflowStatus.ProposalsRegistrationEnded ||... */\n    tag_339:\n        /* \"Voting/Voting.sol\":4417:4676  require(... */\n      tag_344\n      jumpi\n      mload(0x40)\n      0x08c379a000000000000000000000000000000000000000000000000000000000\n      dup2\n      mstore\n      0x04\n      add\n      tag_345\n      swap1\n      tag_294\n      jump\t// in\n    tag_345:\n      mload(0x40)\n      dup1\n      swap2\n      sub\n      swap1\n      revert\n    tag_344:\n        /* \"Voting/Voting.sol\":4351:5274  if (_status == WorkflowStatus.VotingSessionStarted) {... */\n      jump(tag_346)\n    tag_334:\n        /* \"Voting/Voting.sol\":4708:4741  WorkflowStatus.VotingSessionEnded */\n      0x04\n        /* \"Voting/Voting.sol\":4697:4741  _status == WorkflowStatus.VotingSessionEnded */\n      0x05\n      dup2\n      gt\n      iszero\n      tag_347\n      jumpi\n      tag_348\n      tag_220\n      jump\t// in\n    tag_348:\n    tag_347:\n        /* \"Voting/Voting.sol\":4697:4704  _status */\n      dup2\n        /* \"Voting/Voting.sol\":4697:4741  _status == WorkflowStatus.VotingSessionEnded */\n      0x05\n      dup2\n      gt\n      iszero\n      tag_349\n      jumpi\n      tag_350\n      tag_220\n      jump\t// in\n    tag_350:\n    tag_349:\n      sub\n        /* \"Voting/Voting.sol\":4693:5274  if (_status == WorkflowStatus.VotingSessionEnded) {... */\n      tag_351\n      jumpi\n        /* \"Voting/Voting.sol\":4792:4827  WorkflowStatus.VotingSessionStarted */\n      0x03\n        /* \"Voting/Voting.sol\":4782:4827  status == WorkflowStatus.VotingSessionStarted */\n      0x05\n      dup2\n      gt\n      iszero\n      tag_352\n      jumpi\n      tag_353\n      tag_220\n      jump\t// in\n    tag_353:\n    tag_352:\n        /* \"Voting/Voting.sol\":4782:4788  status */\n      0x03\n      0x00\n      swap1\n      sload\n      swap1\n      0x0100\n      exp\n      swap1\n      div\n      0xff\n      and\n        /* \"Voting/Voting.sol\":4782:4827  status == WorkflowStatus.VotingSessionStarted */\n      0x05\n      dup2\n      gt\n      iszero\n      tag_354\n      jumpi\n      tag_355\n      tag_220\n      jump\t// in\n    tag_355:\n    tag_354:\n      eq\n        /* \"Voting/Voting.sol\":4782:4888  status == WorkflowStatus.VotingSessionStarted ||... */\n      dup1\n      tag_356\n      jumpi\n      pop\n        /* \"Voting/Voting.sol\":4861:4888  WorkflowStatus.VotesTallied */\n      0x05\n        /* \"Voting/Voting.sol\":4851:4888  status == WorkflowStatus.VotesTallied */\n      dup1\n      dup2\n      gt\n      iszero\n      tag_357\n      jumpi\n      tag_358\n      tag_220\n      jump\t// in\n    tag_358:\n    tag_357:\n        /* \"Voting/Voting.sol\":4851:4857  status */\n      0x03\n      0x00\n      swap1\n      sload\n      swap1\n      0x0100\n      exp\n      swap1\n      div\n      0xff\n      and\n        /* \"Voting/Voting.sol\":4851:4888  status == WorkflowStatus.VotesTallied */\n      0x05\n      dup2\n      gt\n      iszero\n      tag_359\n      jumpi\n      tag_360\n      tag_220\n      jump\t// in\n    tag_360:\n    tag_359:\n      eq\n        /* \"Voting/Voting.sol\":4782:4888  status == WorkflowStatus.VotingSessionStarted ||... */\n    tag_356:\n        /* \"Voting/Voting.sol\":4757:5004  require(... */\n      tag_361\n      jumpi\n      mload(0x40)\n      0x08c379a000000000000000000000000000000000000000000000000000000000\n      dup2\n      mstore\n      0x04\n      add\n      tag_362\n      swap1\n      tag_294\n      jump\t// in\n    tag_362:\n      mload(0x40)\n      dup1\n      swap2\n      sub\n      swap1\n      revert\n    tag_361:\n        /* \"Voting/Voting.sol\":4693:5274  if (_status == WorkflowStatus.VotingSessionEnded) {... */\n      jump(tag_363)\n    tag_351:\n        /* \"Voting/Voting.sol\":5036:5063  WorkflowStatus.VotesTallied */\n      0x05\n        /* \"Voting/Voting.sol\":5025:5063  _status == WorkflowStatus.VotesTallied */\n      dup1\n      dup2\n      gt\n      iszero\n      tag_364\n      jumpi\n      tag_365\n      tag_220\n      jump\t// in\n    tag_365:\n    tag_364:\n        /* \"Voting/Voting.sol\":5025:5032  _status */\n      dup2\n        /* \"Voting/Voting.sol\":5025:5063  _status == WorkflowStatus.VotesTallied */\n      0x05\n      dup2\n      gt\n      iszero\n      tag_366\n      jumpi\n      tag_367\n      tag_220\n      jump\t// in\n    tag_367:\n    tag_366:\n      sub\n        /* \"Voting/Voting.sol\":5021:5274  if (_status == WorkflowStatus.VotesTallied) {... */\n      tag_368\n      jumpi\n        /* \"Voting/Voting.sol\":5114:5147  WorkflowStatus.VotingSessionEnded */\n      0x04\n        /* \"Voting/Voting.sol\":5104:5147  status == WorkflowStatus.VotingSessionEnded */\n      0x05\n      dup2\n      gt\n      iszero\n      tag_369\n      jumpi\n      tag_370\n      tag_220\n      jump\t// in\n    tag_370:\n    tag_369:\n        /* \"Voting/Voting.sol\":5104:5110  status */\n      0x03\n      0x00\n      swap1\n      sload\n      swap1\n      0x0100\n      exp\n      swap1\n      div\n      0xff\n      and\n        /* \"Voting/Voting.sol\":5104:5147  status == WorkflowStatus.VotingSessionEnded */\n      0x05\n      dup2\n      gt\n      iszero\n      tag_371\n      jumpi\n      tag_372\n      tag_220\n      jump\t// in\n    tag_372:\n    tag_371:\n      eq\n        /* \"Voting/Voting.sol\":5079:5263  require(... */\n      tag_373\n      jumpi\n      mload(0x40)\n      0x08c379a000000000000000000000000000000000000000000000000000000000\n      dup2\n      mstore\n      0x04\n      add\n      tag_374\n      swap1\n      tag_294\n      jump\t// in\n    tag_374:\n      mload(0x40)\n      dup1\n      swap2\n      sub\n      swap1\n      revert\n    tag_373:\n        /* \"Voting/Voting.sol\":5021:5274  if (_status == WorkflowStatus.VotesTallied) {... */\n    tag_368:\n        /* \"Voting/Voting.sol\":4693:5274  if (_status == WorkflowStatus.VotingSessionEnded) {... */\n    tag_363:\n        /* \"Voting/Voting.sol\":4351:5274  if (_status == WorkflowStatus.VotingSessionStarted) {... */\n    tag_346:\n        /* \"Voting/Voting.sol\":3999:5274  if (_status == WorkflowStatus.ProposalsRegistrationEnded) {... */\n    tag_329:\n        /* \"Voting/Voting.sol\":3650:5274  if (_status == WorkflowStatus.ProposalsRegistrationStarted) {... */\n    tag_312:\n        /* \"Voting/Voting.sol\":3310:5274  if (_status == WorkflowStatus.RegisteringVoters) {... */\n    tag_295:\n        /* \"Voting/Voting.sol\":3233:5280  function _isConsistantStatus(WorkflowStatus _status) internal view {... */\n      pop\n      jump\t// out\n    tag_144:\n      mload(0x40)\n      dup1\n      0x40\n      add\n      0x40\n      mstore\n      dup1\n      0x60\n      dup2\n      mstore\n      0x20\n      add\n      0x00\n      dup2\n      mstore\n      pop\n      swap1\n      jump\t// out\n        /* \"#utility.yul\":7:82   */\n    tag_375:\n        /* \"#utility.yul\":40:46   */\n      0x00\n        /* \"#utility.yul\":73:75   */\n      0x40\n        /* \"#utility.yul\":67:76   */\n      mload\n        /* \"#utility.yul\":57:76   */\n      swap1\n      pop\n        /* \"#utility.yul\":7:82   */\n      swap1\n      jump\t// out\n        /* \"#utility.yul\":88:205   */\n    tag_376:\n        /* \"#utility.yul\":197:198   */\n      0x00\n        /* \"#utility.yul\":194:195   */\n      dup1\n        /* \"#utility.yul\":187:199   */\n      revert\n        /* \"#utility.yul\":211:328   */\n    tag_377:\n        /* \"#utility.yul\":320:321   */\n      0x00\n        /* \"#utility.yul\":317:318   */\n      dup1\n        /* \"#utility.yul\":310:322   */\n      revert\n        /* \"#utility.yul\":334:411   */\n    tag_378:\n        /* \"#utility.yul\":371:378   */\n      0x00\n        /* \"#utility.yul\":400:405   */\n      dup2\n        /* \"#utility.yul\":389:405   */\n      swap1\n      pop\n        /* \"#utility.yul\":334:411   */\n      swap2\n      swap1\n      pop\n      jump\t// out\n        /* \"#utility.yul\":417:539   */\n    tag_379:\n        /* \"#utility.yul\":490:514   */\n      tag_471\n        /* \"#utility.yul\":508:513   */\n      dup2\n        /* \"#utility.yul\":490:514   */\n      tag_378\n      jump\t// in\n    tag_471:\n        /* \"#utility.yul\":483:488   */\n      dup2\n        /* \"#utility.yul\":480:515   */\n      eq\n        /* \"#utility.yul\":470:533   */\n      tag_472\n      jumpi\n        /* \"#utility.yul\":529:530   */\n      0x00\n        /* \"#utility.yul\":526:527   */\n      dup1\n        /* \"#utility.yul\":519:531   */\n      revert\n        /* \"#utility.yul\":470:533   */\n    tag_472:\n        /* \"#utility.yul\":417:539   */\n      pop\n      jump\t// out\n        /* \"#utility.yul\":545:684   */\n    tag_380:\n        /* \"#utility.yul\":591:596   */\n      0x00\n        /* \"#utility.yul\":629:635   */\n      dup2\n        /* \"#utility.yul\":616:636   */\n      calldataload\n        /* \"#utility.yul\":607:636   */\n      swap1\n      pop\n        /* \"#utility.yul\":645:678   */\n      tag_474\n        /* \"#utility.yul\":672:677   */\n      dup2\n        /* \"#utility.yul\":645:678   */\n      tag_379\n      jump\t// in\n    tag_474:\n        /* \"#utility.yul\":545:684   */\n      swap3\n      swap2\n      pop\n      pop\n      jump\t// out\n        /* \"#utility.yul\":690:1019   */\n    tag_22:\n        /* \"#utility.yul\":749:755   */\n      0x00\n        /* \"#utility.yul\":798:800   */\n      0x20\n        /* \"#utility.yul\":786:795   */\n      dup3\n        /* \"#utility.yul\":777:784   */\n      dup5\n        /* \"#utility.yul\":773:796   */\n      sub\n        /* \"#utility.yul\":769:801   */\n      slt\n        /* \"#utility.yul\":766:885   */\n      iszero\n      tag_476\n      jumpi\n        /* \"#utility.yul\":804:883   */\n      tag_477\n      tag_376\n      jump\t// in\n    tag_477:\n        /* \"#utility.yul\":766:885   */\n    tag_476:\n        /* \"#utility.yul\":924:925   */\n      0x00\n        /* \"#utility.yul\":949:1002   */\n      tag_478\n        /* \"#utility.yul\":994:1001   */\n      dup5\n        /* \"#utility.yul\":985:991   */\n      dup3\n        /* \"#utility.yul\":974:983   */\n      dup6\n        /* \"#utility.yul\":970:992   */\n      add\n        /* \"#utility.yul\":949:1002   */\n      tag_380\n      jump\t// in\n    tag_478:\n        /* \"#utility.yul\":939:1002   */\n      swap2\n      pop\n        /* \"#utility.yul\":895:1012   */\n      pop\n        /* \"#utility.yul\":690:1019   */\n      swap3\n      swap2\n      pop\n      pop\n      jump\t// out\n        /* \"#utility.yul\":1025:1124   */\n    tag_381:\n        /* \"#utility.yul\":1077:1083   */\n      0x00\n        /* \"#utility.yul\":1111:1116   */\n      dup2\n        /* \"#utility.yul\":1105:1117   */\n      mload\n        /* \"#utility.yul\":1095:1117   */\n      swap1\n      pop\n        /* \"#utility.yul\":1025:1124   */\n      swap2\n      swap1\n      pop\n      jump\t// out\n        /* \"#utility.yul\":1130:1299   */\n    tag_382:\n        /* \"#utility.yul\":1214:1225   */\n      0x00\n        /* \"#utility.yul\":1248:1254   */\n      dup3\n        /* \"#utility.yul\":1243:1246   */\n      dup3\n        /* \"#utility.yul\":1236:1255   */\n      mstore\n        /* \"#utility.yul\":1288:1292   */\n      0x20\n        /* \"#utility.yul\":1283:1286   */\n      dup3\n        /* \"#utility.yul\":1279:1293   */\n      add\n        /* \"#utility.yul\":1264:1293   */\n      swap1\n      pop\n        /* \"#utility.yul\":1130:1299   */\n      swap3\n      swap2\n      pop\n      pop\n      jump\t// out\n        /* \"#utility.yul\":1305:1551   */\n    tag_383:\n        /* \"#utility.yul\":1386:1387   */\n      0x00\n        /* \"#utility.yul\":1396:1509   */\n    tag_482:\n        /* \"#utility.yul\":1410:1416   */\n      dup4\n        /* \"#utility.yul\":1407:1408   */\n      dup2\n        /* \"#utility.yul\":1404:1417   */\n      lt\n        /* \"#utility.yul\":1396:1509   */\n      iszero\n      tag_484\n      jumpi\n        /* \"#utility.yul\":1495:1496   */\n      dup1\n        /* \"#utility.yul\":1490:1493   */\n      dup3\n        /* \"#utility.yul\":1486:1497   */\n      add\n        /* \"#utility.yul\":1480:1498   */\n      mload\n        /* \"#utility.yul\":1476:1477   */\n      dup2\n        /* \"#utility.yul\":1471:1474   */\n      dup5\n        /* \"#utility.yul\":1467:1478   */\n      add\n        /* \"#utility.yul\":1460:1499   */\n      mstore\n        /* \"#utility.yul\":1432:1434   */\n      0x20\n        /* \"#utility.yul\":1429:1430   */\n      dup2\n        /* \"#utility.yul\":1425:1435   */\n      add\n        /* \"#utility.yul\":1420:1435   */\n      swap1\n      pop\n        /* \"#utility.yul\":1396:1509   */\n      jump(tag_482)\n    tag_484:\n        /* \"#utility.yul\":1543:1544   */\n      0x00\n        /* \"#utility.yul\":1534:1540   */\n      dup5\n        /* \"#utility.yul\":1529:1532   */\n      dup5\n        /* \"#utility.yul\":1525:1541   */\n      add\n        /* \"#utility.yul\":1518:1545   */\n      mstore\n        /* \"#utility.yul\":1367:1551   */\n      pop\n        /* \"#utility.yul\":1305:1551   */\n      pop\n      pop\n      pop\n      jump\t// out\n        /* \"#utility.yul\":1557:1659   */\n    tag_384:\n        /* \"#utility.yul\":1598:1604   */\n      0x00\n        /* \"#utility.yul\":1649:1651   */\n      0x1f\n        /* \"#utility.yul\":1645:1652   */\n      not\n        /* \"#utility.yul\":1640:1642   */\n      0x1f\n        /* \"#utility.yul\":1633:1638   */\n      dup4\n        /* \"#utility.yul\":1629:1643   */\n      add\n        /* \"#utility.yul\":1625:1653   */\n      and\n        /* \"#utility.yul\":1615:1653   */\n      swap1\n      pop\n        /* \"#utility.yul\":1557:1659   */\n      swap2\n      swap1\n      pop\n      jump\t// out\n        /* \"#utility.yul\":1665:2042   */\n    tag_385:\n        /* \"#utility.yul\":1753:1756   */\n      0x00\n        /* \"#utility.yul\":1781:1820   */\n      tag_487\n        /* \"#utility.yul\":1814:1819   */\n      dup3\n        /* \"#utility.yul\":1781:1820   */\n      tag_381\n      jump\t// in\n    tag_487:\n        /* \"#utility.yul\":1836:1907   */\n      tag_488\n        /* \"#utility.yul\":1900:1906   */\n      dup2\n        /* \"#utility.yul\":1895:1898   */\n      dup6\n        /* \"#utility.yul\":1836:1907   */\n      tag_382\n      jump\t// in\n    tag_488:\n        /* \"#utility.yul\":1829:1907   */\n      swap4\n      pop\n        /* \"#utility.yul\":1916:1981   */\n      tag_489\n        /* \"#utility.yul\":1974:1980   */\n      dup2\n        /* \"#utility.yul\":1969:1972   */\n      dup6\n        /* \"#utility.yul\":1962:1966   */\n      0x20\n        /* \"#utility.yul\":1955:1960   */\n      dup7\n        /* \"#utility.yul\":1951:1967   */\n      add\n        /* \"#utility.yul\":1916:1981   */\n      tag_383\n      jump\t// in\n    tag_489:\n        /* \"#utility.yul\":2006:2035   */\n      tag_490\n        /* \"#utility.yul\":2028:2034   */\n      dup2\n        /* \"#utility.yul\":2006:2035   */\n      tag_384\n      jump\t// in\n    tag_490:\n        /* \"#utility.yul\":2001:2004   */\n      dup5\n        /* \"#utility.yul\":1997:2036   */\n      add\n        /* \"#utility.yul\":1990:2036   */\n      swap2\n      pop\n        /* \"#utility.yul\":1757:2042   */\n      pop\n        /* \"#utility.yul\":1665:2042   */\n      swap3\n      swap2\n      pop\n      pop\n      jump\t// out\n        /* \"#utility.yul\":2048:2166   */\n    tag_386:\n        /* \"#utility.yul\":2135:2159   */\n      tag_492\n        /* \"#utility.yul\":2153:2158   */\n      dup2\n        /* \"#utility.yul\":2135:2159   */\n      tag_378\n      jump\t// in\n    tag_492:\n        /* \"#utility.yul\":2130:2133   */\n      dup3\n        /* \"#utility.yul\":2123:2160   */\n      mstore\n        /* \"#utility.yul\":2048:2166   */\n      pop\n      pop\n      jump\t// out\n        /* \"#utility.yul\":2172:2595   */\n    tag_25:\n        /* \"#utility.yul\":2313:2317   */\n      0x00\n        /* \"#utility.yul\":2351:2353   */\n      0x40\n        /* \"#utility.yul\":2340:2349   */\n      dup3\n        /* \"#utility.yul\":2336:2354   */\n      add\n        /* \"#utility.yul\":2328:2354   */\n      swap1\n      pop\n        /* \"#utility.yul\":2400:2409   */\n      dup2\n        /* \"#utility.yul\":2394:2398   */\n      dup2\n        /* \"#utility.yul\":2390:2410   */\n      sub\n        /* \"#utility.yul\":2386:2387   */\n      0x00\n        /* \"#utility.yul\":2375:2384   */\n      dup4\n        /* \"#utility.yul\":2371:2388   */\n      add\n        /* \"#utility.yul\":2364:2411   */\n      mstore\n        /* \"#utility.yul\":2428:2506   */\n      tag_494\n        /* \"#utility.yul\":2501:2505   */\n      dup2\n        /* \"#utility.yul\":2492:2498   */\n      dup6\n        /* \"#utility.yul\":2428:2506   */\n      tag_385\n      jump\t// in\n    tag_494:\n        /* \"#utility.yul\":2420:2506   */\n      swap1\n      pop\n        /* \"#utility.yul\":2516:2588   */\n      tag_495\n        /* \"#utility.yul\":2584:2586   */\n      0x20\n        /* \"#utility.yul\":2573:2582   */\n      dup4\n        /* \"#utility.yul\":2569:2587   */\n      add\n        /* \"#utility.yul\":2560:2566   */\n      dup5\n        /* \"#utility.yul\":2516:2588   */\n      tag_386\n      jump\t// in\n    tag_495:\n        /* \"#utility.yul\":2172:2595   */\n      swap4\n      swap3\n      pop\n      pop\n      pop\n      jump\t// out\n        /* \"#utility.yul\":2601:2781   */\n    tag_220:\n        /* \"#utility.yul\":2649:2726   */\n      0x4e487b7100000000000000000000000000000000000000000000000000000000\n        /* \"#utility.yul\":2646:2647   */\n      0x00\n        /* \"#utility.yul\":2639:2727   */\n      mstore\n        /* \"#utility.yul\":2746:2750   */\n      0x21\n        /* \"#utility.yul\":2743:2744   */\n      0x04\n        /* \"#utility.yul\":2736:2751   */\n      mstore\n        /* \"#utility.yul\":2770:2774   */\n      0x24\n        /* \"#utility.yul\":2767:2768   */\n      0x00\n        /* \"#utility.yul\":2760:2775   */\n      revert\n        /* \"#utility.yul\":2787:2910   */\n    tag_387:\n        /* \"#utility.yul\":2878:2879   */\n      0x06\n        /* \"#utility.yul\":2871:2876   */\n      dup2\n        /* \"#utility.yul\":2868:2880   */\n      lt\n        /* \"#utility.yul\":2858:2904   */\n      tag_498\n      jumpi\n        /* \"#utility.yul\":2884:2902   */\n      tag_499\n      tag_220\n      jump\t// in\n    tag_499:\n        /* \"#utility.yul\":2858:2904   */\n    tag_498:\n        /* \"#utility.yul\":2787:2910   */\n      pop\n      jump\t// out\n        /* \"#utility.yul\":2916:3063   */\n    tag_388:\n        /* \"#utility.yul\":2971:2978   */\n      0x00\n        /* \"#utility.yul\":3000:3005   */\n      dup2\n        /* \"#utility.yul\":2989:3005   */\n      swap1\n      pop\n        /* \"#utility.yul\":3006:3057   */\n      tag_501\n        /* \"#utility.yul\":3051:3056   */\n      dup3\n        /* \"#utility.yul\":3006:3057   */\n      tag_387\n      jump\t// in\n    tag_501:\n        /* \"#utility.yul\":2916:3063   */\n      swap2\n      swap1\n      pop\n      jump\t// out\n        /* \"#utility.yul\":3069:3216   */\n    tag_389:\n        /* \"#utility.yul\":3135:3144   */\n      0x00\n        /* \"#utility.yul\":3168:3210   */\n      tag_503\n        /* \"#utility.yul\":3204:3209   */\n      dup3\n        /* \"#utility.yul\":3168:3210   */\n      tag_388\n      jump\t// in\n    tag_503:\n        /* \"#utility.yul\":3155:3210   */\n      swap1\n      pop\n        /* \"#utility.yul\":3069:3216   */\n      swap2\n      swap1\n      pop\n      jump\t// out\n        /* \"#utility.yul\":3222:3385   */\n    tag_390:\n        /* \"#utility.yul\":3325:3378   */\n      tag_505\n        /* \"#utility.yul\":3372:3377   */\n      dup2\n        /* \"#utility.yul\":3325:3378   */\n      tag_389\n      jump\t// in\n    tag_505:\n        /* \"#utility.yul\":3320:3323   */\n      dup3\n        /* \"#utility.yul\":3313:3379   */\n      mstore\n        /* \"#utility.yul\":3222:3385   */\n      pop\n      pop\n      jump\t// out\n        /* \"#utility.yul\":3391:3645   */\n    tag_29:\n        /* \"#utility.yul\":3500:3504   */\n      0x00\n        /* \"#utility.yul\":3538:3540   */\n      0x20\n        /* \"#utility.yul\":3527:3536   */\n      dup3\n        /* \"#utility.yul\":3523:3541   */\n      add\n        /* \"#utility.yul\":3515:3541   */\n      swap1\n      pop\n        /* \"#utility.yul\":3551:3638   */\n      tag_507\n        /* \"#utility.yul\":3635:3636   */\n      0x00\n        /* \"#utility.yul\":3624:3633   */\n      dup4\n        /* \"#utility.yul\":3620:3637   */\n      add\n        /* \"#utility.yul\":3611:3617   */\n      dup5\n        /* \"#utility.yul\":3551:3638   */\n      tag_390\n      jump\t// in\n    tag_507:\n        /* \"#utility.yul\":3391:3645   */\n      swap3\n      swap2\n      pop\n      pop\n      jump\t// out\n        /* \"#utility.yul\":3651:3768   */\n    tag_391:\n        /* \"#utility.yul\":3760:3761   */\n      0x00\n        /* \"#utility.yul\":3757:3758   */\n      dup1\n        /* \"#utility.yul\":3750:3762   */\n      revert\n        /* \"#utility.yul\":3774:3891   */\n    tag_392:\n        /* \"#utility.yul\":3883:3884   */\n      0x00\n        /* \"#utility.yul\":3880:3881   */\n      dup1\n        /* \"#utility.yul\":3873:3885   */\n      revert\n        /* \"#utility.yul\":3897:4077   */\n    tag_393:\n        /* \"#utility.yul\":3945:4022   */\n      0x4e487b7100000000000000000000000000000000000000000000000000000000\n        /* \"#utility.yul\":3942:3943   */\n      0x00\n        /* \"#utility.yul\":3935:4023   */\n      mstore\n        /* \"#utility.yul\":4042:4046   */\n      0x41\n        /* \"#utility.yul\":4039:4040   */\n      0x04\n        /* \"#utility.yul\":4032:4047   */\n      mstore\n        /* \"#utility.yul\":4066:4070   */\n      0x24\n        /* \"#utility.yul\":4063:4064   */\n      0x00\n        /* \"#utility.yul\":4056:4071   */\n      revert\n        /* \"#utility.yul\":4083:4364   */\n    tag_394:\n        /* \"#utility.yul\":4166:4193   */\n      tag_512\n        /* \"#utility.yul\":4188:4192   */\n      dup3\n        /* \"#utility.yul\":4166:4193   */\n      tag_384\n      jump\t// in\n    tag_512:\n        /* \"#utility.yul\":4158:4164   */\n      dup2\n        /* \"#utility.yul\":4154:4194   */\n      add\n        /* \"#utility.yul\":4296:4302   */\n      dup2\n        /* \"#utility.yul\":4284:4294   */\n      dup2\n        /* \"#utility.yul\":4281:4303   */\n      lt\n        /* \"#utility.yul\":4260:4278   */\n      0xffffffffffffffff\n        /* \"#utility.yul\":4248:4258   */\n      dup3\n        /* \"#utility.yul\":4245:4279   */\n      gt\n        /* \"#utility.yul\":4242:4304   */\n      or\n        /* \"#utility.yul\":4239:4327   */\n      iszero\n      tag_513\n      jumpi\n        /* \"#utility.yul\":4307:4325   */\n      tag_514\n      tag_393\n      jump\t// in\n    tag_514:\n        /* \"#utility.yul\":4239:4327   */\n    tag_513:\n        /* \"#utility.yul\":4347:4357   */\n      dup1\n        /* \"#utility.yul\":4343:4345   */\n      0x40\n        /* \"#utility.yul\":4336:4358   */\n      mstore\n        /* \"#utility.yul\":4126:4364   */\n      pop\n        /* \"#utility.yul\":4083:4364   */\n      pop\n      pop\n      jump\t// out\n        /* \"#utility.yul\":4370:4499   */\n    tag_395:\n        /* \"#utility.yul\":4404:4410   */\n      0x00\n        /* \"#utility.yul\":4431:4451   */\n      tag_516\n      tag_375\n      jump\t// in\n    tag_516:\n        /* \"#utility.yul\":4421:4451   */\n      swap1\n      pop\n        /* \"#utility.yul\":4460:4493   */\n      tag_517\n        /* \"#utility.yul\":4488:4492   */\n      dup3\n        /* \"#utility.yul\":4480:4486   */\n      dup3\n        /* \"#utility.yul\":4460:4493   */\n      tag_394\n      jump\t// in\n    tag_517:\n        /* \"#utility.yul\":4370:4499   */\n      swap2\n      swap1\n      pop\n      jump\t// out\n        /* \"#utility.yul\":4505:4813   */\n    tag_396:\n        /* \"#utility.yul\":4567:4571   */\n      0x00\n        /* \"#utility.yul\":4657:4675   */\n      0xffffffffffffffff\n        /* \"#utility.yul\":4649:4655   */\n      dup3\n        /* \"#utility.yul\":4646:4676   */\n      gt\n        /* \"#utility.yul\":4643:4699   */\n      iszero\n      tag_519\n      jumpi\n        /* \"#utility.yul\":4679:4697   */\n      tag_520\n      tag_393\n      jump\t// in\n    tag_520:\n        /* \"#utility.yul\":4643:4699   */\n    tag_519:\n        /* \"#utility.yul\":4717:4746   */\n      tag_521\n        /* \"#utility.yul\":4739:4745   */\n      dup3\n        /* \"#utility.yul\":4717:4746   */\n      tag_384\n      jump\t// in\n    tag_521:\n        /* \"#utility.yul\":4709:4746   */\n      swap1\n      pop\n        /* \"#utility.yul\":4801:4805   */\n      0x20\n        /* \"#utility.yul\":4795:4799   */\n      dup2\n        /* \"#utility.yul\":4791:4806   */\n      add\n        /* \"#utility.yul\":4783:4806   */\n      swap1\n      pop\n        /* \"#utility.yul\":4505:4813   */\n      swap2\n      swap1\n      pop\n      jump\t// out\n        /* \"#utility.yul\":4819:4965   */\n    tag_397:\n        /* \"#utility.yul\":4916:4922   */\n      dup3\n        /* \"#utility.yul\":4911:4914   */\n      dup2\n        /* \"#utility.yul\":4906:4909   */\n      dup4\n        /* \"#utility.yul\":4893:4923   */\n      calldatacopy\n        /* \"#utility.yul\":4957:4958   */\n      0x00\n        /* \"#utility.yul\":4948:4954   */\n      dup4\n        /* \"#utility.yul\":4943:4946   */\n      dup4\n        /* \"#utility.yul\":4939:4955   */\n      add\n        /* \"#utility.yul\":4932:4959   */\n      mstore\n        /* \"#utility.yul\":4819:4965   */\n      pop\n      pop\n      pop\n      jump\t// out\n        /* \"#utility.yul\":4971:5396   */\n    tag_398:\n        /* \"#utility.yul\":5049:5054   */\n      0x00\n        /* \"#utility.yul\":5074:5140   */\n      tag_524\n        /* \"#utility.yul\":5090:5139   */\n      tag_525\n        /* \"#utility.yul\":5132:5138   */\n      dup5\n        /* \"#utility.yul\":5090:5139   */\n      tag_396\n      jump\t// in\n    tag_525:\n        /* \"#utility.yul\":5074:5140   */\n      tag_395\n      jump\t// in\n    tag_524:\n        /* \"#utility.yul\":5065:5140   */\n      swap1\n      pop\n        /* \"#utility.yul\":5163:5169   */\n      dup3\n        /* \"#utility.yul\":5156:5161   */\n      dup2\n        /* \"#utility.yul\":5149:5170   */\n      mstore\n        /* \"#utility.yul\":5201:5205   */\n      0x20\n        /* \"#utility.yul\":5194:5199   */\n      dup2\n        /* \"#utility.yul\":5190:5206   */\n      add\n        /* \"#utility.yul\":5239:5242   */\n      dup5\n        /* \"#utility.yul\":5230:5236   */\n      dup5\n        /* \"#utility.yul\":5225:5228   */\n      dup5\n        /* \"#utility.yul\":5221:5237   */\n      add\n        /* \"#utility.yul\":5218:5243   */\n      gt\n        /* \"#utility.yul\":5215:5327   */\n      iszero\n      tag_526\n      jumpi\n        /* \"#utility.yul\":5246:5325   */\n      tag_527\n      tag_392\n      jump\t// in\n    tag_527:\n        /* \"#utility.yul\":5215:5327   */\n    tag_526:\n        /* \"#utility.yul\":5336:5390   */\n      tag_528\n        /* \"#utility.yul\":5383:5389   */\n      dup5\n        /* \"#utility.yul\":5378:5381   */\n      dup3\n        /* \"#utility.yul\":5373:5376   */\n      dup6\n        /* \"#utility.yul\":5336:5390   */\n      tag_397\n      jump\t// in\n    tag_528:\n        /* \"#utility.yul\":5055:5396   */\n      pop\n        /* \"#utility.yul\":4971:5396   */\n      swap4\n      swap3\n      pop\n      pop\n      pop\n      jump\t// out\n        /* \"#utility.yul\":5416:5756   */\n    tag_399:\n        /* \"#utility.yul\":5472:5477   */\n      0x00\n        /* \"#utility.yul\":5521:5524   */\n      dup3\n        /* \"#utility.yul\":5514:5518   */\n      0x1f\n        /* \"#utility.yul\":5506:5512   */\n      dup4\n        /* \"#utility.yul\":5502:5519   */\n      add\n        /* \"#utility.yul\":5498:5525   */\n      slt\n        /* \"#utility.yul\":5488:5610   */\n      tag_530\n      jumpi\n        /* \"#utility.yul\":5529:5608   */\n      tag_531\n      tag_391\n      jump\t// in\n    tag_531:\n        /* \"#utility.yul\":5488:5610   */\n    tag_530:\n        /* \"#utility.yul\":5646:5652   */\n      dup2\n        /* \"#utility.yul\":5633:5653   */\n      calldataload\n        /* \"#utility.yul\":5671:5750   */\n      tag_532\n        /* \"#utility.yul\":5746:5749   */\n      dup5\n        /* \"#utility.yul\":5738:5744   */\n      dup3\n        /* \"#utility.yul\":5731:5735   */\n      0x20\n        /* \"#utility.yul\":5723:5729   */\n      dup7\n        /* \"#utility.yul\":5719:5736   */\n      add\n        /* \"#utility.yul\":5671:5750   */\n      tag_398\n      jump\t// in\n    tag_532:\n        /* \"#utility.yul\":5662:5750   */\n      swap2\n      pop\n        /* \"#utility.yul\":5478:5756   */\n      pop\n        /* \"#utility.yul\":5416:5756   */\n      swap3\n      swap2\n      pop\n      pop\n      jump\t// out\n        /* \"#utility.yul\":5762:6271   */\n    tag_32:\n        /* \"#utility.yul\":5831:5837   */\n      0x00\n        /* \"#utility.yul\":5880:5882   */\n      0x20\n        /* \"#utility.yul\":5868:5877   */\n      dup3\n        /* \"#utility.yul\":5859:5866   */\n      dup5\n        /* \"#utility.yul\":5855:5878   */\n      sub\n        /* \"#utility.yul\":5851:5883   */\n      slt\n        /* \"#utility.yul\":5848:5967   */\n      iszero\n      tag_534\n      jumpi\n        /* \"#utility.yul\":5886:5965   */\n      tag_535\n      tag_376\n      jump\t// in\n    tag_535:\n        /* \"#utility.yul\":5848:5967   */\n    tag_534:\n        /* \"#utility.yul\":6034:6035   */\n      0x00\n        /* \"#utility.yul\":6023:6032   */\n      dup3\n        /* \"#utility.yul\":6019:6036   */\n      add\n        /* \"#utility.yul\":6006:6037   */\n      calldataload\n        /* \"#utility.yul\":6064:6082   */\n      0xffffffffffffffff\n        /* \"#utility.yul\":6056:6062   */\n      dup2\n        /* \"#utility.yul\":6053:6083   */\n      gt\n        /* \"#utility.yul\":6050:6167   */\n      iszero\n      tag_536\n      jumpi\n        /* \"#utility.yul\":6086:6165   */\n      tag_537\n      tag_377\n      jump\t// in\n    tag_537:\n        /* \"#utility.yul\":6050:6167   */\n    tag_536:\n        /* \"#utility.yul\":6191:6254   */\n      tag_538\n        /* \"#utility.yul\":6246:6253   */\n      dup5\n        /* \"#utility.yul\":6237:6243   */\n      dup3\n        /* \"#utility.yul\":6226:6235   */\n      dup6\n        /* \"#utility.yul\":6222:6244   */\n      add\n        /* \"#utility.yul\":6191:6254   */\n      tag_399\n      jump\t// in\n    tag_538:\n        /* \"#utility.yul\":6181:6254   */\n      swap2\n      pop\n        /* \"#utility.yul\":5977:6264   */\n      pop\n        /* \"#utility.yul\":5762:6271   */\n      swap3\n      swap2\n      pop\n      pop\n      jump\t// out\n        /* \"#utility.yul\":6277:6403   */\n    tag_400:\n        /* \"#utility.yul\":6314:6321   */\n      0x00\n        /* \"#utility.yul\":6354:6396   */\n      0xffffffffffffffffffffffffffffffffffffffff\n        /* \"#utility.yul\":6347:6352   */\n      dup3\n        /* \"#utility.yul\":6343:6397   */\n      and\n        /* \"#utility.yul\":6332:6397   */\n      swap1\n      pop\n        /* \"#utility.yul\":6277:6403   */\n      swap2\n      swap1\n      pop\n      jump\t// out\n        /* \"#utility.yul\":6409:6505   */\n    tag_401:\n        /* \"#utility.yul\":6446:6453   */\n      0x00\n        /* \"#utility.yul\":6475:6499   */\n      tag_541\n        /* \"#utility.yul\":6493:6498   */\n      dup3\n        /* \"#utility.yul\":6475:6499   */\n      tag_400\n      jump\t// in\n    tag_541:\n        /* \"#utility.yul\":6464:6499   */\n      swap1\n      pop\n        /* \"#utility.yul\":6409:6505   */\n      swap2\n      swap1\n      pop\n      jump\t// out\n        /* \"#utility.yul\":6511:6633   */\n    tag_402:\n        /* \"#utility.yul\":6584:6608   */\n      tag_543\n        /* \"#utility.yul\":6602:6607   */\n      dup2\n        /* \"#utility.yul\":6584:6608   */\n      tag_401\n      jump\t// in\n    tag_543:\n        /* \"#utility.yul\":6577:6582   */\n      dup2\n        /* \"#utility.yul\":6574:6609   */\n      eq\n        /* \"#utility.yul\":6564:6627   */\n      tag_544\n      jumpi\n        /* \"#utility.yul\":6623:6624   */\n      0x00\n        /* \"#utility.yul\":6620:6621   */\n      dup1\n        /* \"#utility.yul\":6613:6625   */\n      revert\n        /* \"#utility.yul\":6564:6627   */\n    tag_544:\n        /* \"#utility.yul\":6511:6633   */\n      pop\n      jump\t// out\n        /* \"#utility.yul\":6639:6778   */\n    tag_403:\n        /* \"#utility.yul\":6685:6690   */\n      0x00\n        /* \"#utility.yul\":6723:6729   */\n      dup2\n        /* \"#utility.yul\":6710:6730   */\n      calldataload\n        /* \"#utility.yul\":6701:6730   */\n      swap1\n      pop\n        /* \"#utility.yul\":6739:6772   */\n      tag_546\n        /* \"#utility.yul\":6766:6771   */\n      dup2\n        /* \"#utility.yul\":6739:6772   */\n      tag_402\n      jump\t// in\n    tag_546:\n        /* \"#utility.yul\":6639:6778   */\n      swap3\n      swap2\n      pop\n      pop\n      jump\t// out\n        /* \"#utility.yul\":6784:7113   */\n    tag_36:\n        /* \"#utility.yul\":6843:6849   */\n      0x00\n        /* \"#utility.yul\":6892:6894   */\n      0x20\n        /* \"#utility.yul\":6880:6889   */\n      dup3\n        /* \"#utility.yul\":6871:6878   */\n      dup5\n        /* \"#utility.yul\":6867:6890   */\n      sub\n        /* \"#utility.yul\":6863:6895   */\n      slt\n        /* \"#utility.yul\":6860:6979   */\n      iszero\n      tag_548\n      jumpi\n        /* \"#utility.yul\":6898:6977   */\n      tag_549\n      tag_376\n      jump\t// in\n    tag_549:\n        /* \"#utility.yul\":6860:6979   */\n    tag_548:\n        /* \"#utility.yul\":7018:7019   */\n      0x00\n        /* \"#utility.yul\":7043:7096   */\n      tag_550\n        /* \"#utility.yul\":7088:7095   */\n      dup5\n        /* \"#utility.yul\":7079:7085   */\n      dup3\n        /* \"#utility.yul\":7068:7077   */\n      dup6\n        /* \"#utility.yul\":7064:7086   */\n      add\n        /* \"#utility.yul\":7043:7096   */\n      tag_403\n      jump\t// in\n    tag_550:\n        /* \"#utility.yul\":7033:7096   */\n      swap2\n      pop\n        /* \"#utility.yul\":6989:7106   */\n      pop\n        /* \"#utility.yul\":6784:7113   */\n      swap3\n      swap2\n      pop\n      pop\n      jump\t// out\n        /* \"#utility.yul\":7119:7258   */\n    tag_404:\n        /* \"#utility.yul\":7211:7217   */\n      0x00\n        /* \"#utility.yul\":7245:7250   */\n      dup2\n        /* \"#utility.yul\":7239:7251   */\n      mload\n        /* \"#utility.yul\":7229:7251   */\n      swap1\n      pop\n        /* \"#utility.yul\":7119:7258   */\n      swap2\n      swap1\n      pop\n      jump\t// out\n        /* \"#utility.yul\":7264:7473   */\n    tag_405:\n        /* \"#utility.yul\":7388:7399   */\n      0x00\n        /* \"#utility.yul\":7422:7428   */\n      dup3\n        /* \"#utility.yul\":7417:7420   */\n      dup3\n        /* \"#utility.yul\":7410:7429   */\n      mstore\n        /* \"#utility.yul\":7462:7466   */\n      0x20\n        /* \"#utility.yul\":7457:7460   */\n      dup3\n        /* \"#utility.yul\":7453:7467   */\n      add\n        /* \"#utility.yul\":7438:7467   */\n      swap1\n      pop\n        /* \"#utility.yul\":7264:7473   */\n      swap3\n      swap2\n      pop\n      pop\n      jump\t// out\n        /* \"#utility.yul\":7479:7636   */\n    tag_406:\n        /* \"#utility.yul\":7571:7575   */\n      0x00\n        /* \"#utility.yul\":7594:7597   */\n      dup2\n        /* \"#utility.yul\":7586:7597   */\n      swap1\n      pop\n        /* \"#utility.yul\":7624:7628   */\n      0x20\n        /* \"#utility.yul\":7619:7622   */\n      dup3\n        /* \"#utility.yul\":7615:7629   */\n      add\n        /* \"#utility.yul\":7607:7629   */\n      swap1\n      pop\n        /* \"#utility.yul\":7479:7636   */\n      swap2\n      swap1\n      pop\n      jump\t// out\n        /* \"#utility.yul\":7642:7801   */\n    tag_407:\n        /* \"#utility.yul\":7716:7727   */\n      0x00\n        /* \"#utility.yul\":7750:7756   */\n      dup3\n        /* \"#utility.yul\":7745:7748   */\n      dup3\n        /* \"#utility.yul\":7738:7757   */\n      mstore\n        /* \"#utility.yul\":7790:7794   */\n      0x20\n        /* \"#utility.yul\":7785:7788   */\n      dup3\n        /* \"#utility.yul\":7781:7795   */\n      add\n        /* \"#utility.yul\":7766:7795   */\n      swap1\n      pop\n        /* \"#utility.yul\":7642:7801   */\n      swap3\n      swap2\n      pop\n      pop\n      jump\t// out\n        /* \"#utility.yul\":7807:8164   */\n    tag_408:\n        /* \"#utility.yul\":7885:7888   */\n      0x00\n        /* \"#utility.yul\":7913:7952   */\n      tag_556\n        /* \"#utility.yul\":7946:7951   */\n      dup3\n        /* \"#utility.yul\":7913:7952   */\n      tag_381\n      jump\t// in\n    tag_556:\n        /* \"#utility.yul\":7968:8029   */\n      tag_557\n        /* \"#utility.yul\":8022:8028   */\n      dup2\n        /* \"#utility.yul\":8017:8020   */\n      dup6\n        /* \"#utility.yul\":7968:8029   */\n      tag_407\n      jump\t// in\n    tag_557:\n        /* \"#utility.yul\":7961:8029   */\n      swap4\n      pop\n        /* \"#utility.yul\":8038:8103   */\n      tag_558\n        /* \"#utility.yul\":8096:8102   */\n      dup2\n        /* \"#utility.yul\":8091:8094   */\n      dup6\n        /* \"#utility.yul\":8084:8088   */\n      0x20\n        /* \"#utility.yul\":8077:8082   */\n      dup7\n        /* \"#utility.yul\":8073:8089   */\n      add\n        /* \"#utility.yul\":8038:8103   */\n      tag_383\n      jump\t// in\n    tag_558:\n        /* \"#utility.yul\":8128:8157   */\n      tag_559\n        /* \"#utility.yul\":8150:8156   */\n      dup2\n        /* \"#utility.yul\":8128:8157   */\n      tag_384\n      jump\t// in\n    tag_559:\n        /* \"#utility.yul\":8123:8126   */\n      dup5\n        /* \"#utility.yul\":8119:8158   */\n      add\n        /* \"#utility.yul\":8112:8158   */\n      swap2\n      pop\n        /* \"#utility.yul\":7889:8164   */\n      pop\n        /* \"#utility.yul\":7807:8164   */\n      swap3\n      swap2\n      pop\n      pop\n      jump\t// out\n        /* \"#utility.yul\":8170:8278   */\n    tag_409:\n        /* \"#utility.yul\":8247:8271   */\n      tag_561\n        /* \"#utility.yul\":8265:8270   */\n      dup2\n        /* \"#utility.yul\":8247:8271   */\n      tag_378\n      jump\t// in\n    tag_561:\n        /* \"#utility.yul\":8242:8245   */\n      dup3\n        /* \"#utility.yul\":8235:8272   */\n      mstore\n        /* \"#utility.yul\":8170:8278   */\n      pop\n      pop\n      jump\t// out\n        /* \"#utility.yul\":8340:8948   */\n    tag_410:\n        /* \"#utility.yul\":8449:8452   */\n      0x00\n        /* \"#utility.yul\":8485:8489   */\n      0x40\n        /* \"#utility.yul\":8480:8483   */\n      dup4\n        /* \"#utility.yul\":8476:8490   */\n      add\n        /* \"#utility.yul\":8579:8583   */\n      0x00\n        /* \"#utility.yul\":8572:8577   */\n      dup4\n        /* \"#utility.yul\":8568:8584   */\n      add\n        /* \"#utility.yul\":8562:8585   */\n      mload\n        /* \"#utility.yul\":8632:8635   */\n      dup5\n        /* \"#utility.yul\":8626:8630   */\n      dup3\n        /* \"#utility.yul\":8622:8636   */\n      sub\n        /* \"#utility.yul\":8615:8619   */\n      0x00\n        /* \"#utility.yul\":8610:8613   */\n      dup7\n        /* \"#utility.yul\":8606:8620   */\n      add\n        /* \"#utility.yul\":8599:8637   */\n      mstore\n        /* \"#utility.yul\":8658:8731   */\n      tag_563\n        /* \"#utility.yul\":8726:8730   */\n      dup3\n        /* \"#utility.yul\":8712:8724   */\n      dup3\n        /* \"#utility.yul\":8658:8731   */\n      tag_408\n      jump\t// in\n    tag_563:\n        /* \"#utility.yul\":8650:8731   */\n      swap2\n      pop\n        /* \"#utility.yul\":8500:8742   */\n      pop\n        /* \"#utility.yul\":8829:8833   */\n      0x20\n        /* \"#utility.yul\":8822:8827   */\n      dup4\n        /* \"#utility.yul\":8818:8834   */\n      add\n        /* \"#utility.yul\":8812:8835   */\n      mload\n        /* \"#utility.yul\":8848:8911   */\n      tag_564\n        /* \"#utility.yul\":8905:8909   */\n      0x20\n        /* \"#utility.yul\":8900:8903   */\n      dup7\n        /* \"#utility.yul\":8896:8910   */\n      add\n        /* \"#utility.yul\":8882:8894   */\n      dup3\n        /* \"#utility.yul\":8848:8911   */\n      tag_409\n      jump\t// in\n    tag_564:\n        /* \"#utility.yul\":8752:8921   */\n      pop\n        /* \"#utility.yul\":8938:8942   */\n      dup1\n        /* \"#utility.yul\":8931:8942   */\n      swap2\n      pop\n        /* \"#utility.yul\":8454:8948   */\n      pop\n        /* \"#utility.yul\":8340:8948   */\n      swap3\n      swap2\n      pop\n      pop\n      jump\t// out\n        /* \"#utility.yul\":8954:9210   */\n    tag_411:\n        /* \"#utility.yul\":9073:9083   */\n      0x00\n        /* \"#utility.yul\":9108:9204   */\n      tag_566\n        /* \"#utility.yul\":9200:9203   */\n      dup4\n        /* \"#utility.yul\":9192:9198   */\n      dup4\n        /* \"#utility.yul\":9108:9204   */\n      tag_410\n      jump\t// in\n    tag_566:\n        /* \"#utility.yul\":9094:9204   */\n      swap1\n      pop\n        /* \"#utility.yul\":8954:9210   */\n      swap3\n      swap2\n      pop\n      pop\n      jump\t// out\n        /* \"#utility.yul\":9216:9354   */\n    tag_412:\n        /* \"#utility.yul\":9311:9315   */\n      0x00\n        /* \"#utility.yul\":9343:9347   */\n      0x20\n        /* \"#utility.yul\":9338:9341   */\n      dup3\n        /* \"#utility.yul\":9334:9348   */\n      add\n        /* \"#utility.yul\":9326:9348   */\n      swap1\n      pop\n        /* \"#utility.yul\":9216:9354   */\n      swap2\n      swap1\n      pop\n      jump\t// out\n        /* \"#utility.yul\":9420:10531   */\n    tag_413:\n        /* \"#utility.yul\":9589:9592   */\n      0x00\n        /* \"#utility.yul\":9618:9697   */\n      tag_569\n        /* \"#utility.yul\":9691:9696   */\n      dup3\n        /* \"#utility.yul\":9618:9697   */\n      tag_404\n      jump\t// in\n    tag_569:\n        /* \"#utility.yul\":9713:9824   */\n      tag_570\n        /* \"#utility.yul\":9817:9823   */\n      dup2\n        /* \"#utility.yul\":9812:9815   */\n      dup6\n        /* \"#utility.yul\":9713:9824   */\n      tag_405\n      jump\t// in\n    tag_570:\n        /* \"#utility.yul\":9706:9824   */\n      swap4\n      pop\n        /* \"#utility.yul\":9850:9853   */\n      dup4\n        /* \"#utility.yul\":9895:9899   */\n      0x20\n        /* \"#utility.yul\":9887:9893   */\n      dup3\n        /* \"#utility.yul\":9883:9900   */\n      mul\n        /* \"#utility.yul\":9878:9881   */\n      dup6\n        /* \"#utility.yul\":9874:9901   */\n      add\n        /* \"#utility.yul\":9925:10006   */\n      tag_571\n        /* \"#utility.yul\":10000:10005   */\n      dup6\n        /* \"#utility.yul\":9925:10006   */\n      tag_406\n      jump\t// in\n    tag_571:\n        /* \"#utility.yul\":10029:10036   */\n      dup1\n        /* \"#utility.yul\":10060:10061   */\n      0x00\n        /* \"#utility.yul\":10045:10486   */\n    tag_572:\n        /* \"#utility.yul\":10070:10076   */\n      dup6\n        /* \"#utility.yul\":10067:10068   */\n      dup2\n        /* \"#utility.yul\":10064:10077   */\n      lt\n        /* \"#utility.yul\":10045:10486   */\n      iszero\n      tag_574\n      jumpi\n        /* \"#utility.yul\":10141:10150   */\n      dup5\n        /* \"#utility.yul\":10135:10139   */\n      dup5\n        /* \"#utility.yul\":10131:10151   */\n      sub\n        /* \"#utility.yul\":10126:10129   */\n      dup10\n        /* \"#utility.yul\":10119:10152   */\n      mstore\n        /* \"#utility.yul\":10192:10198   */\n      dup2\n        /* \"#utility.yul\":10186:10199   */\n      mload\n        /* \"#utility.yul\":10220:10334   */\n      tag_575\n        /* \"#utility.yul\":10329:10333   */\n      dup6\n        /* \"#utility.yul\":10314:10327   */\n      dup3\n        /* \"#utility.yul\":10220:10334   */\n      tag_411\n      jump\t// in\n    tag_575:\n        /* \"#utility.yul\":10212:10334   */\n      swap5\n      pop\n        /* \"#utility.yul\":10357:10442   */\n      tag_576\n        /* \"#utility.yul\":10435:10441   */\n      dup4\n        /* \"#utility.yul\":10357:10442   */\n      tag_412\n      jump\t// in\n    tag_576:\n        /* \"#utility.yul\":10347:10442   */\n      swap3\n      pop\n        /* \"#utility.yul\":10471:10475   */\n      0x20\n        /* \"#utility.yul\":10466:10469   */\n      dup11\n        /* \"#utility.yul\":10462:10476   */\n      add\n        /* \"#utility.yul\":10455:10476   */\n      swap10\n      pop\n        /* \"#utility.yul\":10105:10486   */\n      pop\n        /* \"#utility.yul\":10092:10093   */\n      0x01\n        /* \"#utility.yul\":10089:10090   */\n      dup2\n        /* \"#utility.yul\":10085:10094   */\n      add\n        /* \"#utility.yul\":10080:10094   */\n      swap1\n      pop\n        /* \"#utility.yul\":10045:10486   */\n      jump(tag_572)\n    tag_574:\n        /* \"#utility.yul\":10049:10063   */\n      pop\n        /* \"#utility.yul\":10502:10506   */\n      dup3\n        /* \"#utility.yul\":10495:10506   */\n      swap8\n      pop\n        /* \"#utility.yul\":10522:10525   */\n      dup8\n        /* \"#utility.yul\":10515:10525   */\n      swap6\n      pop\n        /* \"#utility.yul\":9594:10531   */\n      pop\n      pop\n      pop\n      pop\n      pop\n        /* \"#utility.yul\":9420:10531   */\n      swap3\n      swap2\n      pop\n      pop\n      jump\t// out\n        /* \"#utility.yul\":10537:11010   */\n    tag_41:\n        /* \"#utility.yul\":10730:10734   */\n      0x00\n        /* \"#utility.yul\":10768:10770   */\n      0x20\n        /* \"#utility.yul\":10757:10766   */\n      dup3\n        /* \"#utility.yul\":10753:10771   */\n      add\n        /* \"#utility.yul\":10745:10771   */\n      swap1\n      pop\n        /* \"#utility.yul\":10817:10826   */\n      dup2\n        /* \"#utility.yul\":10811:10815   */\n      dup2\n        /* \"#utility.yul\":10807:10827   */\n      sub\n        /* \"#utility.yul\":10803:10804   */\n      0x00\n        /* \"#utility.yul\":10792:10801   */\n      dup4\n        /* \"#utility.yul\":10788:10805   */\n      add\n        /* \"#utility.yul\":10781:10828   */\n      mstore\n        /* \"#utility.yul\":10845:11003   */\n      tag_578\n        /* \"#utility.yul\":10998:11002   */\n      dup2\n        /* \"#utility.yul\":10989:10995   */\n      dup5\n        /* \"#utility.yul\":10845:11003   */\n      tag_413\n      jump\t// in\n    tag_578:\n        /* \"#utility.yul\":10837:11003   */\n      swap1\n      pop\n        /* \"#utility.yul\":10537:11010   */\n      swap3\n      swap2\n      pop\n      pop\n      jump\t// out\n        /* \"#utility.yul\":11016:11134   */\n    tag_414:\n        /* \"#utility.yul\":11103:11127   */\n      tag_580\n        /* \"#utility.yul\":11121:11126   */\n      dup2\n        /* \"#utility.yul\":11103:11127   */\n      tag_401\n      jump\t// in\n    tag_580:\n        /* \"#utility.yul\":11098:11101   */\n      dup3\n        /* \"#utility.yul\":11091:11128   */\n      mstore\n        /* \"#utility.yul\":11016:11134   */\n      pop\n      pop\n      jump\t// out\n        /* \"#utility.yul\":11140:11362   */\n    tag_49:\n        /* \"#utility.yul\":11233:11237   */\n      0x00\n        /* \"#utility.yul\":11271:11273   */\n      0x20\n        /* \"#utility.yul\":11260:11269   */\n      dup3\n        /* \"#utility.yul\":11256:11274   */\n      add\n        /* \"#utility.yul\":11248:11274   */\n      swap1\n      pop\n        /* \"#utility.yul\":11284:11355   */\n      tag_582\n        /* \"#utility.yul\":11352:11353   */\n      0x00\n        /* \"#utility.yul\":11341:11350   */\n      dup4\n        /* \"#utility.yul\":11337:11354   */\n      add\n        /* \"#utility.yul\":11328:11334   */\n      dup5\n        /* \"#utility.yul\":11284:11355   */\n      tag_414\n      jump\t// in\n    tag_582:\n        /* \"#utility.yul\":11140:11362   */\n      swap3\n      swap2\n      pop\n      pop\n      jump\t// out\n        /* \"#utility.yul\":11368:11458   */\n    tag_415:\n        /* \"#utility.yul\":11402:11409   */\n      0x00\n        /* \"#utility.yul\":11445:11450   */\n      dup2\n        /* \"#utility.yul\":11438:11451   */\n      iszero\n        /* \"#utility.yul\":11431:11452   */\n      iszero\n        /* \"#utility.yul\":11420:11452   */\n      swap1\n      pop\n        /* \"#utility.yul\":11368:11458   */\n      swap2\n      swap1\n      pop\n      jump\t// out\n        /* \"#utility.yul\":11464:11573   */\n    tag_416:\n        /* \"#utility.yul\":11545:11566   */\n      tag_585\n        /* \"#utility.yul\":11560:11565   */\n      dup2\n        /* \"#utility.yul\":11545:11566   */\n      tag_415\n      jump\t// in\n    tag_585:\n        /* \"#utility.yul\":11540:11543   */\n      dup3\n        /* \"#utility.yul\":11533:11567   */\n      mstore\n        /* \"#utility.yul\":11464:11573   */\n      pop\n      pop\n      jump\t// out\n        /* \"#utility.yul\":11579:11997   */\n    tag_54:\n        /* \"#utility.yul\":11716:11720   */\n      0x00\n        /* \"#utility.yul\":11754:11756   */\n      0x60\n        /* \"#utility.yul\":11743:11752   */\n      dup3\n        /* \"#utility.yul\":11739:11757   */\n      add\n        /* \"#utility.yul\":11731:11757   */\n      swap1\n      pop\n        /* \"#utility.yul\":11767:11832   */\n      tag_587\n        /* \"#utility.yul\":11829:11830   */\n      0x00\n        /* \"#utility.yul\":11818:11827   */\n      dup4\n        /* \"#utility.yul\":11814:11831   */\n      add\n        /* \"#utility.yul\":11805:11811   */\n      dup7\n        /* \"#utility.yul\":11767:11832   */\n      tag_416\n      jump\t// in\n    tag_587:\n        /* \"#utility.yul\":11842:11908   */\n      tag_588\n        /* \"#utility.yul\":11904:11906   */\n      0x20\n        /* \"#utility.yul\":11893:11902   */\n      dup4\n        /* \"#utility.yul\":11889:11907   */\n      add\n        /* \"#utility.yul\":11880:11886   */\n      dup6\n        /* \"#utility.yul\":11842:11908   */\n      tag_416\n      jump\t// in\n    tag_588:\n        /* \"#utility.yul\":11918:11990   */\n      tag_589\n        /* \"#utility.yul\":11986:11988   */\n      0x40\n        /* \"#utility.yul\":11975:11984   */\n      dup4\n        /* \"#utility.yul\":11971:11989   */\n      add\n        /* \"#utility.yul\":11962:11968   */\n      dup5\n        /* \"#utility.yul\":11918:11990   */\n      tag_386\n      jump\t// in\n    tag_589:\n        /* \"#utility.yul\":11579:11997   */\n      swap5\n      swap4\n      pop\n      pop\n      pop\n      pop\n      jump\t// out\n        /* \"#utility.yul\":12059:12677   */\n    tag_417:\n        /* \"#utility.yul\":12178:12181   */\n      0x00\n        /* \"#utility.yul\":12214:12218   */\n      0x40\n        /* \"#utility.yul\":12209:12212   */\n      dup4\n        /* \"#utility.yul\":12205:12219   */\n      add\n        /* \"#utility.yul\":12308:12312   */\n      0x00\n        /* \"#utility.yul\":12301:12306   */\n      dup4\n        /* \"#utility.yul\":12297:12313   */\n      add\n        /* \"#utility.yul\":12291:12314   */\n      mload\n        /* \"#utility.yul\":12361:12364   */\n      dup5\n        /* \"#utility.yul\":12355:12359   */\n      dup3\n        /* \"#utility.yul\":12351:12365   */\n      sub\n        /* \"#utility.yul\":12344:12348   */\n      0x00\n        /* \"#utility.yul\":12339:12342   */\n      dup7\n        /* \"#utility.yul\":12335:12349   */\n      add\n        /* \"#utility.yul\":12328:12366   */\n      mstore\n        /* \"#utility.yul\":12387:12460   */\n      tag_591\n        /* \"#utility.yul\":12455:12459   */\n      dup3\n        /* \"#utility.yul\":12441:12453   */\n      dup3\n        /* \"#utility.yul\":12387:12460   */\n      tag_408\n      jump\t// in\n    tag_591:\n        /* \"#utility.yul\":12379:12460   */\n      swap2\n      pop\n        /* \"#utility.yul\":12229:12471   */\n      pop\n        /* \"#utility.yul\":12558:12562   */\n      0x20\n        /* \"#utility.yul\":12551:12556   */\n      dup4\n        /* \"#utility.yul\":12547:12563   */\n      add\n        /* \"#utility.yul\":12541:12564   */\n      mload\n        /* \"#utility.yul\":12577:12640   */\n      tag_592\n        /* \"#utility.yul\":12634:12638   */\n      0x20\n        /* \"#utility.yul\":12629:12632   */\n      dup7\n        /* \"#utility.yul\":12625:12639   */\n      add\n        /* \"#utility.yul\":12611:12623   */\n      dup3\n        /* \"#utility.yul\":12577:12640   */\n      tag_409\n      jump\t// in\n    tag_592:\n        /* \"#utility.yul\":12481:12650   */\n      pop\n        /* \"#utility.yul\":12667:12671   */\n      dup1\n        /* \"#utility.yul\":12660:12671   */\n      swap2\n      pop\n        /* \"#utility.yul\":12183:12677   */\n      pop\n        /* \"#utility.yul\":12059:12677   */\n      swap3\n      swap2\n      pop\n      pop\n      jump\t// out\n        /* \"#utility.yul\":12683:13056   */\n    tag_58:\n        /* \"#utility.yul\":12826:12830   */\n      0x00\n        /* \"#utility.yul\":12864:12866   */\n      0x20\n        /* \"#utility.yul\":12853:12862   */\n      dup3\n        /* \"#utility.yul\":12849:12867   */\n      add\n        /* \"#utility.yul\":12841:12867   */\n      swap1\n      pop\n        /* \"#utility.yul\":12913:12922   */\n      dup2\n        /* \"#utility.yul\":12907:12911   */\n      dup2\n        /* \"#utility.yul\":12903:12923   */\n      sub\n        /* \"#utility.yul\":12899:12900   */\n      0x00\n        /* \"#utility.yul\":12888:12897   */\n      dup4\n        /* \"#utility.yul\":12884:12901   */\n      add\n        /* \"#utility.yul\":12877:12924   */\n      mstore\n        /* \"#utility.yul\":12941:13049   */\n      tag_594\n        /* \"#utility.yul\":13044:13048   */\n      dup2\n        /* \"#utility.yul\":13035:13041   */\n      dup5\n        /* \"#utility.yul\":12941:13049   */\n      tag_417\n      jump\t// in\n    tag_594:\n        /* \"#utility.yul\":12933:13049   */\n      swap1\n      pop\n        /* \"#utility.yul\":12683:13056   */\n      swap3\n      swap2\n      pop\n      pop\n      jump\t// out\n        /* \"#utility.yul\":13062:13375   */\n    tag_63:\n        /* \"#utility.yul\":13175:13179   */\n      0x00\n        /* \"#utility.yul\":13213:13215   */\n      0x20\n        /* \"#utility.yul\":13202:13211   */\n      dup3\n        /* \"#utility.yul\":13198:13216   */\n      add\n        /* \"#utility.yul\":13190:13216   */\n      swap1\n      pop\n        /* \"#utility.yul\":13262:13271   */\n      dup2\n        /* \"#utility.yul\":13256:13260   */\n      dup2\n        /* \"#utility.yul\":13252:13272   */\n      sub\n        /* \"#utility.yul\":13248:13249   */\n      0x00\n        /* \"#utility.yul\":13237:13246   */\n      dup4\n        /* \"#utility.yul\":13233:13250   */\n      add\n        /* \"#utility.yul\":13226:13273   */\n      mstore\n        /* \"#utility.yul\":13290:13368   */\n      tag_596\n        /* \"#utility.yul\":13363:13367   */\n      dup2\n        /* \"#utility.yul\":13354:13360   */\n      dup5\n        /* \"#utility.yul\":13290:13368   */\n      tag_385\n      jump\t// in\n    tag_596:\n        /* \"#utility.yul\":13282:13368   */\n      swap1\n      pop\n        /* \"#utility.yul\":13062:13375   */\n      swap3\n      swap2\n      pop\n      pop\n      jump\t// out\n        /* \"#utility.yul\":13381:13692   */\n    tag_418:\n        /* \"#utility.yul\":13458:13462   */\n      0x00\n        /* \"#utility.yul\":13548:13566   */\n      0xffffffffffffffff\n        /* \"#utility.yul\":13540:13546   */\n      dup3\n        /* \"#utility.yul\":13537:13567   */\n      gt\n        /* \"#utility.yul\":13534:13590   */\n      iszero\n      tag_598\n      jumpi\n        /* \"#utility.yul\":13570:13588   */\n      tag_599\n      tag_393\n      jump\t// in\n    tag_599:\n        /* \"#utility.yul\":13534:13590   */\n    tag_598:\n        /* \"#utility.yul\":13620:13624   */\n      0x20\n        /* \"#utility.yul\":13612:13618   */\n      dup3\n        /* \"#utility.yul\":13608:13625   */\n      mul\n        /* \"#utility.yul\":13600:13625   */\n      swap1\n      pop\n        /* \"#utility.yul\":13680:13684   */\n      0x20\n        /* \"#utility.yul\":13674:13678   */\n      dup2\n        /* \"#utility.yul\":13670:13685   */\n      add\n        /* \"#utility.yul\":13662:13685   */\n      swap1\n      pop\n        /* \"#utility.yul\":13381:13692   */\n      swap2\n      swap1\n      pop\n      jump\t// out\n        /* \"#utility.yul\":13698:13815   */\n    tag_419:\n        /* \"#utility.yul\":13807:13808   */\n      0x00\n        /* \"#utility.yul\":13804:13805   */\n      dup1\n        /* \"#utility.yul\":13797:13809   */\n      revert\n        /* \"#utility.yul\":13838:14548   */\n    tag_420:\n        /* \"#utility.yul\":13934:13939   */\n      0x00\n        /* \"#utility.yul\":13959:14040   */\n      tag_602\n        /* \"#utility.yul\":13975:14039   */\n      tag_603\n        /* \"#utility.yul\":14032:14038   */\n      dup5\n        /* \"#utility.yul\":13975:14039   */\n      tag_418\n      jump\t// in\n    tag_603:\n        /* \"#utility.yul\":13959:14040   */\n      tag_395\n      jump\t// in\n    tag_602:\n        /* \"#utility.yul\":13950:14040   */\n      swap1\n      pop\n        /* \"#utility.yul\":14060:14065   */\n      dup1\n        /* \"#utility.yul\":14089:14095   */\n      dup4\n        /* \"#utility.yul\":14082:14087   */\n      dup3\n        /* \"#utility.yul\":14075:14096   */\n      mstore\n        /* \"#utility.yul\":14123:14127   */\n      0x20\n        /* \"#utility.yul\":14116:14121   */\n      dup3\n        /* \"#utility.yul\":14112:14128   */\n      add\n        /* \"#utility.yul\":14105:14128   */\n      swap1\n      pop\n        /* \"#utility.yul\":14176:14180   */\n      0x20\n        /* \"#utility.yul\":14168:14174   */\n      dup5\n        /* \"#utility.yul\":14164:14181   */\n      mul\n        /* \"#utility.yul\":14156:14162   */\n      dup4\n        /* \"#utility.yul\":14152:14182   */\n      add\n        /* \"#utility.yul\":14205:14208   */\n      dup6\n        /* \"#utility.yul\":14197:14203   */\n      dup2\n        /* \"#utility.yul\":14194:14209   */\n      gt\n        /* \"#utility.yul\":14191:14313   */\n      iszero\n      tag_604\n      jumpi\n        /* \"#utility.yul\":14224:14303   */\n      tag_605\n      tag_419\n      jump\t// in\n    tag_605:\n        /* \"#utility.yul\":14191:14313   */\n    tag_604:\n        /* \"#utility.yul\":14339:14345   */\n      dup4\n        /* \"#utility.yul\":14322:14542   */\n    tag_606:\n        /* \"#utility.yul\":14356:14362   */\n      dup2\n        /* \"#utility.yul\":14351:14354   */\n      dup2\n        /* \"#utility.yul\":14348:14363   */\n      lt\n        /* \"#utility.yul\":14322:14542   */\n      iszero\n      tag_608\n      jumpi\n        /* \"#utility.yul\":14431:14434   */\n      dup1\n        /* \"#utility.yul\":14460:14497   */\n      tag_609\n        /* \"#utility.yul\":14493:14496   */\n      dup9\n        /* \"#utility.yul\":14481:14491   */\n      dup3\n        /* \"#utility.yul\":14460:14497   */\n      tag_403\n      jump\t// in\n    tag_609:\n        /* \"#utility.yul\":14455:14458   */\n      dup5\n        /* \"#utility.yul\":14448:14498   */\n      mstore\n        /* \"#utility.yul\":14527:14531   */\n      0x20\n        /* \"#utility.yul\":14522:14525   */\n      dup5\n        /* \"#utility.yul\":14518:14532   */\n      add\n        /* \"#utility.yul\":14511:14532   */\n      swap4\n      pop\n        /* \"#utility.yul\":14398:14542   */\n      pop\n        /* \"#utility.yul\":14382:14386   */\n      0x20\n        /* \"#utility.yul\":14377:14380   */\n      dup2\n        /* \"#utility.yul\":14373:14387   */\n      add\n        /* \"#utility.yul\":14366:14387   */\n      swap1\n      pop\n        /* \"#utility.yul\":14322:14542   */\n      jump(tag_606)\n    tag_608:\n        /* \"#utility.yul\":14326:14347   */\n      pop\n        /* \"#utility.yul\":13940:14548   */\n      pop\n      pop\n        /* \"#utility.yul\":13838:14548   */\n      swap4\n      swap3\n      pop\n      pop\n      pop\n      jump\t// out\n        /* \"#utility.yul\":14571:14941   */\n    tag_421:\n        /* \"#utility.yul\":14642:14647   */\n      0x00\n        /* \"#utility.yul\":14691:14694   */\n      dup3\n        /* \"#utility.yul\":14684:14688   */\n      0x1f\n        /* \"#utility.yul\":14676:14682   */\n      dup4\n        /* \"#utility.yul\":14672:14689   */\n      add\n        /* \"#utility.yul\":14668:14695   */\n      slt\n        /* \"#utility.yul\":14658:14780   */\n      tag_611\n      jumpi\n        /* \"#utility.yul\":14699:14778   */\n      tag_612\n      tag_391\n      jump\t// in\n    tag_612:\n        /* \"#utility.yul\":14658:14780   */\n    tag_611:\n        /* \"#utility.yul\":14816:14822   */\n      dup2\n        /* \"#utility.yul\":14803:14823   */\n      calldataload\n        /* \"#utility.yul\":14841:14935   */\n      tag_613\n        /* \"#utility.yul\":14931:14934   */\n      dup5\n        /* \"#utility.yul\":14923:14929   */\n      dup3\n        /* \"#utility.yul\":14916:14920   */\n      0x20\n        /* \"#utility.yul\":14908:14914   */\n      dup7\n        /* \"#utility.yul\":14904:14921   */\n      add\n        /* \"#utility.yul\":14841:14935   */\n      tag_420\n      jump\t// in\n    tag_613:\n        /* \"#utility.yul\":14832:14935   */\n      swap2\n      pop\n        /* \"#utility.yul\":14648:14941   */\n      pop\n        /* \"#utility.yul\":14571:14941   */\n      swap3\n      swap2\n      pop\n      pop\n      jump\t// out\n        /* \"#utility.yul\":14947:15486   */\n    tag_66:\n        /* \"#utility.yul\":15031:15037   */\n      0x00\n        /* \"#utility.yul\":15080:15082   */\n      0x20\n        /* \"#utility.yul\":15068:15077   */\n      dup3\n        /* \"#utility.yul\":15059:15066   */\n      dup5\n        /* \"#utility.yul\":15055:15078   */\n      sub\n        /* \"#utility.yul\":15051:15083   */\n      slt\n        /* \"#utility.yul\":15048:15167   */\n      iszero\n      tag_615\n      jumpi\n        /* \"#utility.yul\":15086:15165   */\n      tag_616\n      tag_376\n      jump\t// in\n    tag_616:\n        /* \"#utility.yul\":15048:15167   */\n    tag_615:\n        /* \"#utility.yul\":15234:15235   */\n      0x00\n        /* \"#utility.yul\":15223:15232   */\n      dup3\n        /* \"#utility.yul\":15219:15236   */\n      add\n        /* \"#utility.yul\":15206:15237   */\n      calldataload\n        /* \"#utility.yul\":15264:15282   */\n      0xffffffffffffffff\n        /* \"#utility.yul\":15256:15262   */\n      dup2\n        /* \"#utility.yul\":15253:15283   */\n      gt\n        /* \"#utility.yul\":15250:15367   */\n      iszero\n      tag_617\n      jumpi\n        /* \"#utility.yul\":15286:15365   */\n      tag_618\n      tag_377\n      jump\t// in\n    tag_618:\n        /* \"#utility.yul\":15250:15367   */\n    tag_617:\n        /* \"#utility.yul\":15391:15469   */\n      tag_619\n        /* \"#utility.yul\":15461:15468   */\n      dup5\n        /* \"#utility.yul\":15452:15458   */\n      dup3\n        /* \"#utility.yul\":15441:15450   */\n      dup6\n        /* \"#utility.yul\":15437:15459   */\n      add\n        /* \"#utility.yul\":15391:15469   */\n      tag_421\n      jump\t// in\n    tag_619:\n        /* \"#utility.yul\":15381:15469   */\n      swap2\n      pop\n        /* \"#utility.yul\":15177:15479   */\n      pop\n        /* \"#utility.yul\":14947:15486   */\n      swap3\n      swap2\n      pop\n      pop\n      jump\t// out\n        /* \"#utility.yul\":15492:15672   */\n    tag_422:\n        /* \"#utility.yul\":15540:15617   */\n      0x4e487b7100000000000000000000000000000000000000000000000000000000\n        /* \"#utility.yul\":15537:15538   */\n      0x00\n        /* \"#utility.yul\":15530:15618   */\n      mstore\n        /* \"#utility.yul\":15637:15641   */\n      0x22\n        /* \"#utility.yul\":15634:15635   */\n      0x04\n        /* \"#utility.yul\":15627:15642   */\n      mstore\n        /* \"#utility.yul\":15661:15665   */\n      0x24\n        /* \"#utility.yul\":15658:15659   */\n      0x00\n        /* \"#utility.yul\":15651:15666   */\n      revert\n        /* \"#utility.yul\":15678:15998   */\n    tag_77:\n        /* \"#utility.yul\":15722:15728   */\n      0x00\n        /* \"#utility.yul\":15759:15760   */\n      0x02\n        /* \"#utility.yul\":15753:15757   */\n      dup3\n        /* \"#utility.yul\":15749:15761   */\n      div\n        /* \"#utility.yul\":15739:15761   */\n      swap1\n      pop\n        /* \"#utility.yul\":15806:15807   */\n      0x01\n        /* \"#utility.yul\":15800:15804   */\n      dup3\n        /* \"#utility.yul\":15796:15808   */\n      and\n        /* \"#utility.yul\":15827:15845   */\n      dup1\n        /* \"#utility.yul\":15817:15898   */\n      tag_622\n      jumpi\n        /* \"#utility.yul\":15883:15887   */\n      0x7f\n        /* \"#utility.yul\":15875:15881   */\n      dup3\n        /* \"#utility.yul\":15871:15888   */\n      and\n        /* \"#utility.yul\":15861:15888   */\n      swap2\n      pop\n        /* \"#utility.yul\":15817:15898   */\n    tag_622:\n        /* \"#utility.yul\":15945:15947   */\n      0x20\n        /* \"#utility.yul\":15937:15943   */\n      dup3\n        /* \"#utility.yul\":15934:15948   */\n      lt\n        /* \"#utility.yul\":15914:15932   */\n      dup2\n        /* \"#utility.yul\":15911:15949   */\n      sub\n        /* \"#utility.yul\":15908:15992   */\n      tag_623\n      jumpi\n        /* \"#utility.yul\":15964:15982   */\n      tag_624\n      tag_422\n      jump\t// in\n    tag_624:\n        /* \"#utility.yul\":15908:15992   */\n    tag_623:\n        /* \"#utility.yul\":15729:15998   */\n      pop\n        /* \"#utility.yul\":15678:15998   */\n      swap2\n      swap1\n      pop\n      jump\t// out\n        /* \"#utility.yul\":16004:16145   */\n    tag_423:\n        /* \"#utility.yul\":16053:16057   */\n      0x00\n        /* \"#utility.yul\":16076:16079   */\n      dup2\n        /* \"#utility.yul\":16068:16079   */\n      swap1\n      pop\n        /* \"#utility.yul\":16099:16102   */\n      dup2\n        /* \"#utility.yul\":16096:16097   */\n      0x00\n        /* \"#utility.yul\":16089:16103   */\n      mstore\n        /* \"#utility.yul\":16133:16137   */\n      0x20\n        /* \"#utility.yul\":16130:16131   */\n      0x00\n        /* \"#utility.yul\":16120:16138   */\n      keccak256\n        /* \"#utility.yul\":16112:16138   */\n      swap1\n      pop\n        /* \"#utility.yul\":16004:16145   */\n      swap2\n      swap1\n      pop\n      jump\t// out\n        /* \"#utility.yul\":16151:16244   */\n    tag_424:\n        /* \"#utility.yul\":16188:16194   */\n      0x00\n        /* \"#utility.yul\":16235:16237   */\n      0x20\n        /* \"#utility.yul\":16230:16232   */\n      0x1f\n        /* \"#utility.yul\":16223:16228   */\n      dup4\n        /* \"#utility.yul\":16219:16233   */\n      add\n        /* \"#utility.yul\":16215:16238   */\n      div\n        /* \"#utility.yul\":16205:16238   */\n      swap1\n      pop\n        /* \"#utility.yul\":16151:16244   */\n      swap2\n      swap1\n      pop\n      jump\t// out\n        /* \"#utility.yul\":16250:16357   */\n    tag_425:\n        /* \"#utility.yul\":16294:16302   */\n      0x00\n        /* \"#utility.yul\":16344:16349   */\n      dup3\n        /* \"#utility.yul\":16338:16342   */\n      dup3\n        /* \"#utility.yul\":16334:16350   */\n      shl\n        /* \"#utility.yul\":16313:16350   */\n      swap1\n      pop\n        /* \"#utility.yul\":16250:16357   */\n      swap3\n      swap2\n      pop\n      pop\n      jump\t// out\n        /* \"#utility.yul\":16363:16756   */\n    tag_426:\n        /* \"#utility.yul\":16432:16438   */\n      0x00\n        /* \"#utility.yul\":16482:16483   */\n      0x08\n        /* \"#utility.yul\":16470:16480   */\n      dup4\n        /* \"#utility.yul\":16466:16484   */\n      mul\n        /* \"#utility.yul\":16505:16602   */\n      tag_629\n        /* \"#utility.yul\":16535:16601   */\n      0xffffffffffffffffffffffffffffffffffffffffffffffffffffffffffffffff\n        /* \"#utility.yul\":16524:16533   */\n      dup3\n        /* \"#utility.yul\":16505:16602   */\n      tag_425\n      jump\t// in\n    tag_629:\n        /* \"#utility.yul\":16623:16662   */\n      tag_630\n        /* \"#utility.yul\":16653:16661   */\n      dup7\n        /* \"#utility.yul\":16642:16651   */\n      dup4\n        /* \"#utility.yul\":16623:16662   */\n      tag_425\n      jump\t// in\n    tag_630:\n        /* \"#utility.yul\":16611:16662   */\n      swap6\n      pop\n        /* \"#utility.yul\":16695:16699   */\n      dup1\n        /* \"#utility.yul\":16691:16700   */\n      not\n        /* \"#utility.yul\":16684:16689   */\n      dup5\n        /* \"#utility.yul\":16680:16701   */\n      and\n        /* \"#utility.yul\":16671:16701   */\n      swap4\n      pop\n        /* \"#utility.yul\":16744:16748   */\n      dup1\n        /* \"#utility.yul\":16734:16742   */\n      dup7\n        /* \"#utility.yul\":16730:16749   */\n      and\n        /* \"#utility.yul\":16723:16728   */\n      dup5\n        /* \"#utility.yul\":16720:16750   */\n      or\n        /* \"#utility.yul\":16710:16750   */\n      swap3\n      pop\n        /* \"#utility.yul\":16439:16756   */\n      pop\n      pop\n        /* \"#utility.yul\":16363:16756   */\n      swap4\n      swap3\n      pop\n      pop\n      pop\n      jump\t// out\n        /* \"#utility.yul\":16762:16822   */\n    tag_427:\n        /* \"#utility.yul\":16790:16793   */\n      0x00\n        /* \"#utility.yul\":16811:16816   */\n      dup2\n        /* \"#utility.yul\":16804:16816   */\n      swap1\n      pop\n        /* \"#utility.yul\":16762:16822   */\n      swap2\n      swap1\n      pop\n      jump\t// out\n        /* \"#utility.yul\":16828:16970   */\n    tag_428:\n        /* \"#utility.yul\":16878:16887   */\n      0x00\n        /* \"#utility.yul\":16911:16964   */\n      tag_633\n        /* \"#utility.yul\":16929:16963   */\n      tag_634\n        /* \"#utility.yul\":16938:16962   */\n      tag_635\n        /* \"#utility.yul\":16956:16961   */\n      dup5\n        /* \"#utility.yul\":16938:16962   */\n      tag_378\n      jump\t// in\n    tag_635:\n        /* \"#utility.yul\":16929:16963   */\n      tag_427\n      jump\t// in\n    tag_634:\n        /* \"#utility.yul\":16911:16964   */\n      tag_378\n      jump\t// in\n    tag_633:\n        /* \"#utility.yul\":16898:16964   */\n      swap1\n      pop\n        /* \"#utility.yul\":16828:16970   */\n      swap2\n      swap1\n      pop\n      jump\t// out\n        /* \"#utility.yul\":16976:17051   */\n    tag_429:\n        /* \"#utility.yul\":17019:17022   */\n      0x00\n        /* \"#utility.yul\":17040:17045   */\n      dup2\n        /* \"#utility.yul\":17033:17045   */\n      swap1\n      pop\n        /* \"#utility.yul\":16976:17051   */\n      swap2\n      swap1\n      pop\n      jump\t// out\n        /* \"#utility.yul\":17057:17326   */\n    tag_430:\n        /* \"#utility.yul\":17167:17206   */\n      tag_638\n        /* \"#utility.yul\":17198:17205   */\n      dup4\n        /* \"#utility.yul\":17167:17206   */\n      tag_428\n      jump\t// in\n    tag_638:\n        /* \"#utility.yul\":17228:17319   */\n      tag_639\n        /* \"#utility.yul\":17277:17318   */\n      tag_640\n        /* \"#utility.yul\":17301:17317   */\n      dup3\n        /* \"#utility.yul\":17277:17318   */\n      tag_429\n      jump\t// in\n    tag_640:\n        /* \"#utility.yul\":17269:17275   */\n      dup5\n        /* \"#utility.yul\":17262:17266   */\n      dup5\n        /* \"#utility.yul\":17256:17267   */\n      sload\n        /* \"#utility.yul\":17228:17319   */\n      tag_426\n      jump\t// in\n    tag_639:\n        /* \"#utility.yul\":17222:17226   */\n      dup3\n        /* \"#utility.yul\":17215:17320   */\n      sstore\n        /* \"#utility.yul\":17133:17326   */\n      pop\n        /* \"#utility.yul\":17057:17326   */\n      pop\n      pop\n      pop\n      jump\t// out\n        /* \"#utility.yul\":17332:17405   */\n    tag_431:\n        /* \"#utility.yul\":17377:17380   */\n      0x00\n        /* \"#utility.yul\":17332:17405   */\n      swap1\n      jump\t// out\n        /* \"#utility.yul\":17411:17600   */\n    tag_432:\n        /* \"#utility.yul\":17488:17520   */\n      tag_643\n      tag_431\n      jump\t// in\n    tag_643:\n        /* \"#utility.yul\":17529:17594   */\n      tag_644\n        /* \"#utility.yul\":17587:17593   */\n      dup2\n        /* \"#utility.yul\":17579:17585   */\n      dup5\n        /* \"#utility.yul\":17573:17577   */\n      dup5\n        /* \"#utility.yul\":17529:17594   */\n      tag_430\n      jump\t// in\n    tag_644:\n        /* \"#utility.yul\":17464:17600   */\n      pop\n        /* \"#utility.yul\":17411:17600   */\n      pop\n      pop\n      jump\t// out\n        /* \"#utility.yul\":17606:17792   */\n    tag_433:\n        /* \"#utility.yul\":17666:17786   */\n    tag_646:\n        /* \"#utility.yul\":17683:17686   */\n      dup2\n        /* \"#utility.yul\":17676:17681   */\n      dup2\n        /* \"#utility.yul\":17673:17687   */\n      lt\n        /* \"#utility.yul\":17666:17786   */\n      iszero\n      tag_648\n      jumpi\n        /* \"#utility.yul\":17737:17776   */\n      tag_649\n        /* \"#utility.yul\":17774:17775   */\n      0x00\n        /* \"#utility.yul\":17767:17772   */\n      dup3\n        /* \"#utility.yul\":17737:17776   */\n      tag_432\n      jump\t// in\n    tag_649:\n        /* \"#utility.yul\":17710:17711   */\n      0x01\n        /* \"#utility.yul\":17703:17708   */\n      dup2\n        /* \"#utility.yul\":17699:17712   */\n      add\n        /* \"#utility.yul\":17690:17712   */\n      swap1\n      pop\n        /* \"#utility.yul\":17666:17786   */\n      jump(tag_646)\n    tag_648:\n        /* \"#utility.yul\":17606:17792   */\n      pop\n      pop\n      jump\t// out\n        /* \"#utility.yul\":17798:18341   */\n    tag_434:\n        /* \"#utility.yul\":17899:17901   */\n      0x1f\n        /* \"#utility.yul\":17894:17897   */\n      dup3\n        /* \"#utility.yul\":17891:17902   */\n      gt\n        /* \"#utility.yul\":17888:18334   */\n      iszero\n      tag_651\n      jumpi\n        /* \"#utility.yul\":17933:17971   */\n      tag_652\n        /* \"#utility.yul\":17965:17970   */\n      dup2\n        /* \"#utility.yul\":17933:17971   */\n      tag_423\n      jump\t// in\n    tag_652:\n        /* \"#utility.yul\":18017:18046   */\n      tag_653\n        /* \"#utility.yul\":18035:18045   */\n      dup5\n        /* \"#utility.yul\":18017:18046   */\n      tag_424\n      jump\t// in\n    tag_653:\n        /* \"#utility.yul\":18007:18015   */\n      dup2\n        /* \"#utility.yul\":18003:18047   */\n      add\n        /* \"#utility.yul\":18200:18202   */\n      0x20\n        /* \"#utility.yul\":18188:18198   */\n      dup6\n        /* \"#utility.yul\":18185:18203   */\n      lt\n        /* \"#utility.yul\":18182:18231   */\n      iszero\n      tag_654\n      jumpi\n        /* \"#utility.yul\":18221:18229   */\n      dup2\n        /* \"#utility.yul\":18206:18229   */\n      swap1\n      pop\n        /* \"#utility.yul\":18182:18231   */\n    tag_654:\n        /* \"#utility.yul\":18244:18324   */\n      tag_655\n        /* \"#utility.yul\":18300:18322   */\n      tag_656\n        /* \"#utility.yul\":18318:18321   */\n      dup6\n        /* \"#utility.yul\":18300:18322   */\n      tag_424\n      jump\t// in\n    tag_656:\n        /* \"#utility.yul\":18290:18298   */\n      dup4\n        /* \"#utility.yul\":18286:18323   */\n      add\n        /* \"#utility.yul\":18273:18284   */\n      dup3\n        /* \"#utility.yul\":18244:18324   */\n      tag_433\n      jump\t// in\n    tag_655:\n        /* \"#utility.yul\":17903:18334   */\n      pop\n      pop\n        /* \"#utility.yul\":17888:18334   */\n    tag_651:\n        /* \"#utility.yul\":17798:18341   */\n      pop\n      pop\n      pop\n      jump\t// out\n        /* \"#utility.yul\":18347:18464   */\n    tag_435:\n        /* \"#utility.yul\":18401:18409   */\n      0x00\n        /* \"#utility.yul\":18451:18456   */\n      dup3\n        /* \"#utility.yul\":18445:18449   */\n      dup3\n        /* \"#utility.yul\":18441:18457   */\n      shr\n        /* \"#utility.yul\":18420:18457   */\n      swap1\n      pop\n        /* \"#utility.yul\":18347:18464   */\n      swap3\n      swap2\n      pop\n      pop\n      jump\t// out\n        /* \"#utility.yul\":18470:18639   */\n    tag_436:\n        /* \"#utility.yul\":18514:18520   */\n      0x00\n        /* \"#utility.yul\":18547:18598   */\n      tag_659\n        /* \"#utility.yul\":18595:18596   */\n      0x00\n        /* \"#utility.yul\":18591:18597   */\n      not\n        /* \"#utility.yul\":18583:18588   */\n      dup5\n        /* \"#utility.yul\":18580:18581   */\n      0x08\n        /* \"#utility.yul\":18576:18589   */\n      mul\n        /* \"#utility.yul\":18547:18598   */\n      tag_435\n      jump\t// in\n    tag_659:\n        /* \"#utility.yul\":18543:18599   */\n      not\n        /* \"#utility.yul\":18628:18632   */\n      dup1\n        /* \"#utility.yul\":18622:18626   */\n      dup4\n        /* \"#utility.yul\":18618:18633   */\n      and\n        /* \"#utility.yul\":18608:18633   */\n      swap2\n      pop\n        /* \"#utility.yul\":18521:18639   */\n      pop\n        /* \"#utility.yul\":18470:18639   */\n      swap3\n      swap2\n      pop\n      pop\n      jump\t// out\n        /* \"#utility.yul\":18644:18939   */\n    tag_437:\n        /* \"#utility.yul\":18720:18724   */\n      0x00\n        /* \"#utility.yul\":18866:18895   */\n      tag_661\n        /* \"#utility.yul\":18891:18894   */\n      dup4\n        /* \"#utility.yul\":18885:18889   */\n      dup4\n        /* \"#utility.yul\":18866:18895   */\n      tag_436\n      jump\t// in\n    tag_661:\n        /* \"#utility.yul\":18858:18895   */\n      swap2\n      pop\n        /* \"#utility.yul\":18928:18931   */\n      dup3\n        /* \"#utility.yul\":18925:18926   */\n      0x02\n        /* \"#utility.yul\":18921:18932   */\n      mul\n        /* \"#utility.yul\":18915:18919   */\n      dup3\n        /* \"#utility.yul\":18912:18933   */\n      or\n        /* \"#utility.yul\":18904:18933   */\n      swap1\n      pop\n        /* \"#utility.yul\":18644:18939   */\n      swap3\n      swap2\n      pop\n      pop\n      jump\t// out\n        /* \"#utility.yul\":18944:20339   */\n    tag_91:\n        /* \"#utility.yul\":19061:19098   */\n      tag_663\n        /* \"#utility.yul\":19094:19097   */\n      dup3\n        /* \"#utility.yul\":19061:19098   */\n      tag_381\n      jump\t// in\n    tag_663:\n        /* \"#utility.yul\":19163:19181   */\n      0xffffffffffffffff\n        /* \"#utility.yul\":19155:19161   */\n      dup2\n        /* \"#utility.yul\":19152:19182   */\n      gt\n        /* \"#utility.yul\":19149:19205   */\n      iszero\n      tag_664\n      jumpi\n        /* \"#utility.yul\":19185:19203   */\n      tag_665\n      tag_393\n      jump\t// in\n    tag_665:\n        /* \"#utility.yul\":19149:19205   */\n    tag_664:\n        /* \"#utility.yul\":19229:19267   */\n      tag_666\n        /* \"#utility.yul\":19261:19265   */\n      dup3\n        /* \"#utility.yul\":19255:19266   */\n      sload\n        /* \"#utility.yul\":19229:19267   */\n      tag_77\n      jump\t// in\n    tag_666:\n        /* \"#utility.yul\":19314:19381   */\n      tag_667\n        /* \"#utility.yul\":19374:19380   */\n      dup3\n        /* \"#utility.yul\":19366:19372   */\n      dup3\n        /* \"#utility.yul\":19360:19364   */\n      dup6\n        /* \"#utility.yul\":19314:19381   */\n      tag_434\n      jump\t// in\n    tag_667:\n        /* \"#utility.yul\":19408:19409   */\n      0x00\n        /* \"#utility.yul\":19432:19436   */\n      0x20\n        /* \"#utility.yul\":19419:19436   */\n      swap1\n      pop\n        /* \"#utility.yul\":19464:19466   */\n      0x1f\n        /* \"#utility.yul\":19456:19462   */\n      dup4\n        /* \"#utility.yul\":19453:19467   */\n      gt\n        /* \"#utility.yul\":19481:19482   */\n      0x01\n        /* \"#utility.yul\":19476:20094   */\n      dup2\n      eq\n      tag_669\n      jumpi\n        /* \"#utility.yul\":20138:20139   */\n      0x00\n        /* \"#utility.yul\":20155:20161   */\n      dup5\n        /* \"#utility.yul\":20152:20229   */\n      iszero\n      tag_670\n      jumpi\n        /* \"#utility.yul\":20204:20213   */\n      dup3\n        /* \"#utility.yul\":20199:20202   */\n      dup8\n        /* \"#utility.yul\":20195:20214   */\n      add\n        /* \"#utility.yul\":20189:20215   */\n      mload\n        /* \"#utility.yul\":20180:20215   */\n      swap1\n      pop\n        /* \"#utility.yul\":20152:20229   */\n    tag_670:\n        /* \"#utility.yul\":20255:20322   */\n      tag_671\n        /* \"#utility.yul\":20315:20321   */\n      dup6\n        /* \"#utility.yul\":20308:20313   */\n      dup3\n        /* \"#utility.yul\":20255:20322   */\n      tag_437\n      jump\t// in\n    tag_671:\n        /* \"#utility.yul\":20249:20253   */\n      dup7\n        /* \"#utility.yul\":20242:20323   */\n      sstore\n        /* \"#utility.yul\":20111:20333   */\n      pop\n        /* \"#utility.yul\":19446:20333   */\n      jump(tag_668)\n        /* \"#utility.yul\":19476:20094   */\n    tag_669:\n        /* \"#utility.yul\":19528:19532   */\n      0x1f\n        /* \"#utility.yul\":19524:19533   */\n      not\n        /* \"#utility.yul\":19516:19522   */\n      dup5\n        /* \"#utility.yul\":19512:19534   */\n      and\n        /* \"#utility.yul\":19562:19599   */\n      tag_672\n        /* \"#utility.yul\":19594:19598   */\n      dup7\n        /* \"#utility.yul\":19562:19599   */\n      tag_423\n      jump\t// in\n    tag_672:\n        /* \"#utility.yul\":19621:19622   */\n      0x00\n        /* \"#utility.yul\":19635:19843   */\n    tag_673:\n        /* \"#utility.yul\":19649:19656   */\n      dup3\n        /* \"#utility.yul\":19646:19647   */\n      dup2\n        /* \"#utility.yul\":19643:19657   */\n      lt\n        /* \"#utility.yul\":19635:19843   */\n      iszero\n      tag_675\n      jumpi\n        /* \"#utility.yul\":19728:19737   */\n      dup5\n        /* \"#utility.yul\":19723:19726   */\n      dup10\n        /* \"#utility.yul\":19719:19738   */\n      add\n        /* \"#utility.yul\":19713:19739   */\n      mload\n        /* \"#utility.yul\":19705:19711   */\n      dup3\n        /* \"#utility.yul\":19698:19740   */\n      sstore\n        /* \"#utility.yul\":19779:19780   */\n      0x01\n        /* \"#utility.yul\":19771:19777   */\n      dup3\n        /* \"#utility.yul\":19767:19781   */\n      add\n        /* \"#utility.yul\":19757:19781   */\n      swap2\n      pop\n        /* \"#utility.yul\":19826:19828   */\n      0x20\n        /* \"#utility.yul\":19815:19824   */\n      dup6\n        /* \"#utility.yul\":19811:19829   */\n      add\n        /* \"#utility.yul\":19798:19829   */\n      swap5\n      pop\n        /* \"#utility.yul\":19672:19676   */\n      0x20\n        /* \"#utility.yul\":19669:19670   */\n      dup2\n        /* \"#utility.yul\":19665:19677   */\n      add\n        /* \"#utility.yul\":19660:19677   */\n      swap1\n      pop\n        /* \"#utility.yul\":19635:19843   */\n      jump(tag_673)\n    tag_675:\n        /* \"#utility.yul\":19871:19877   */\n      dup7\n        /* \"#utility.yul\":19862:19869   */\n      dup4\n        /* \"#utility.yul\":19859:19878   */\n      lt\n        /* \"#utility.yul\":19856:20035   */\n      iszero\n      tag_676\n      jumpi\n        /* \"#utility.yul\":19929:19938   */\n      dup5\n        /* \"#utility.yul\":19924:19927   */\n      dup10\n        /* \"#utility.yul\":19920:19939   */\n      add\n        /* \"#utility.yul\":19914:19940   */\n      mload\n        /* \"#utility.yul\":19972:20020   */\n      tag_677\n        /* \"#utility.yul\":20014:20018   */\n      0x1f\n        /* \"#utility.yul\":20006:20012   */\n      dup10\n        /* \"#utility.yul\":20002:20019   */\n      and\n        /* \"#utility.yul\":19991:20000   */\n      dup3\n        /* \"#utility.yul\":19972:20020   */\n      tag_436\n      jump\t// in\n    tag_677:\n        /* \"#utility.yul\":19964:19970   */\n      dup4\n        /* \"#utility.yul\":19957:20021   */\n      sstore\n        /* \"#utility.yul\":19879:20035   */\n      pop\n        /* \"#utility.yul\":19856:20035   */\n    tag_676:\n        /* \"#utility.yul\":20081:20082   */\n      0x01\n        /* \"#utility.yul\":20077:20078   */\n      0x02\n        /* \"#utility.yul\":20069:20075   */\n      dup9\n        /* \"#utility.yul\":20065:20079   */\n      mul\n        /* \"#utility.yul\":20061:20083   */\n      add\n        /* \"#utility.yul\":20055:20059   */\n      dup9\n        /* \"#utility.yul\":20048:20084   */\n      sstore\n        /* \"#utility.yul\":19483:20094   */\n      pop\n      pop\n      pop\n        /* \"#utility.yul\":19446:20333   */\n    tag_668:\n      pop\n        /* \"#utility.yul\":19036:20339   */\n      pop\n      pop\n      pop\n        /* \"#utility.yul\":18944:20339   */\n      pop\n      pop\n      jump\t// out\n        /* \"#utility.yul\":20345:20525   */\n    tag_438:\n        /* \"#utility.yul\":20393:20470   */\n      0x4e487b7100000000000000000000000000000000000000000000000000000000\n        /* \"#utility.yul\":20390:20391   */\n      0x00\n        /* \"#utility.yul\":20383:20471   */\n      mstore\n        /* \"#utility.yul\":20490:20494   */\n      0x11\n        /* \"#utility.yul\":20487:20488   */\n      0x04\n        /* \"#utility.yul\":20480:20495   */\n      mstore\n        /* \"#utility.yul\":20514:20518   */\n      0x24\n        /* \"#utility.yul\":20511:20512   */\n      0x00\n        /* \"#utility.yul\":20504:20519   */\n      revert\n        /* \"#utility.yul\":20531:20725   */\n    tag_93:\n        /* \"#utility.yul\":20571:20575   */\n      0x00\n        /* \"#utility.yul\":20591:20611   */\n      tag_680\n        /* \"#utility.yul\":20609:20610   */\n      dup3\n        /* \"#utility.yul\":20591:20611   */\n      tag_378\n      jump\t// in\n    tag_680:\n        /* \"#utility.yul\":20586:20611   */\n      swap2\n      pop\n        /* \"#utility.yul\":20625:20645   */\n      tag_681\n        /* \"#utility.yul\":20643:20644   */\n      dup4\n        /* \"#utility.yul\":20625:20645   */\n      tag_378\n      jump\t// in\n    tag_681:\n        /* \"#utility.yul\":20620:20645   */\n      swap3\n      pop\n        /* \"#utility.yul\":20669:20670   */\n      dup3\n        /* \"#utility.yul\":20666:20667   */\n      dup3\n        /* \"#utility.yul\":20662:20671   */\n      sub\n        /* \"#utility.yul\":20654:20671   */\n      swap1\n      pop\n        /* \"#utility.yul\":20693:20694   */\n      dup2\n        /* \"#utility.yul\":20687:20691   */\n      dup2\n        /* \"#utility.yul\":20684:20695   */\n      gt\n        /* \"#utility.yul\":20681:20718   */\n      iszero\n      tag_682\n      jumpi\n        /* \"#utility.yul\":20698:20716   */\n      tag_683\n      tag_438\n      jump\t// in\n    tag_683:\n        /* \"#utility.yul\":20681:20718   */\n    tag_682:\n        /* \"#utility.yul\":20531:20725   */\n      swap3\n      swap2\n      pop\n      pop\n      jump\t// out\n        /* \"#utility.yul\":20731:20953   */\n    tag_95:\n        /* \"#utility.yul\":20824:20828   */\n      0x00\n        /* \"#utility.yul\":20862:20864   */\n      0x20\n        /* \"#utility.yul\":20851:20860   */\n      dup3\n        /* \"#utility.yul\":20847:20865   */\n      add\n        /* \"#utility.yul\":20839:20865   */\n      swap1\n      pop\n        /* \"#utility.yul\":20875:20946   */\n      tag_685\n        /* \"#utility.yul\":20943:20944   */\n      0x00\n        /* \"#utility.yul\":20932:20941   */\n      dup4\n        /* \"#utility.yul\":20928:20945   */\n      add\n        /* \"#utility.yul\":20919:20925   */\n      dup5\n        /* \"#utility.yul\":20875:20946   */\n      tag_386\n      jump\t// in\n    tag_685:\n        /* \"#utility.yul\":20731:20953   */\n      swap3\n      swap2\n      pop\n      pop\n      jump\t// out\n        /* \"#utility.yul\":20959:21137   */\n    tag_439:\n        /* \"#utility.yul\":21099:21129   */\n      0x566f74657220697320616c72656164792077686974656c697374656400000000\n        /* \"#utility.yul\":21095:21096   */\n      0x00\n        /* \"#utility.yul\":21087:21093   */\n      dup3\n        /* \"#utility.yul\":21083:21097   */\n      add\n        /* \"#utility.yul\":21076:21130   */\n      mstore\n        /* \"#utility.yul\":20959:21137   */\n      pop\n      jump\t// out\n        /* \"#utility.yul\":21143:21509   */\n    tag_440:\n        /* \"#utility.yul\":21285:21288   */\n      0x00\n        /* \"#utility.yul\":21306:21373   */\n      tag_688\n        /* \"#utility.yul\":21370:21372   */\n      0x1c\n        /* \"#utility.yul\":21365:21368   */\n      dup4\n        /* \"#utility.yul\":21306:21373   */\n      tag_382\n      jump\t// in\n    tag_688:\n        /* \"#utility.yul\":21299:21373   */\n      swap2\n      pop\n        /* \"#utility.yul\":21382:21475   */\n      tag_689\n        /* \"#utility.yul\":21471:21474   */\n      dup3\n        /* \"#utility.yul\":21382:21475   */\n      tag_439\n      jump\t// in\n    tag_689:\n        /* \"#utility.yul\":21500:21502   */\n      0x20\n        /* \"#utility.yul\":21495:21498   */\n      dup3\n        /* \"#utility.yul\":21491:21503   */\n      add\n        /* \"#utility.yul\":21484:21503   */\n      swap1\n      pop\n        /* \"#utility.yul\":21143:21509   */\n      swap2\n      swap1\n      pop\n      jump\t// out\n        /* \"#utility.yul\":21515:21934   */\n    tag_105:\n        /* \"#utility.yul\":21681:21685   */\n      0x00\n        /* \"#utility.yul\":21719:21721   */\n      0x20\n        /* \"#utility.yul\":21708:21717   */\n      dup3\n        /* \"#utility.yul\":21704:21722   */\n      add\n        /* \"#utility.yul\":21696:21722   */\n      swap1\n      pop\n        /* \"#utility.yul\":21768:21777   */\n      dup2\n        /* \"#utility.yul\":21762:21766   */\n      dup2\n        /* \"#utility.yul\":21758:21778   */\n      sub\n        /* \"#utility.yul\":21754:21755   */\n      0x00\n        /* \"#utility.yul\":21743:21752   */\n      dup4\n        /* \"#utility.yul\":21739:21756   */\n      add\n        /* \"#utility.yul\":21732:21779   */\n      mstore\n        /* \"#utility.yul\":21796:21927   */\n      tag_691\n        /* \"#utility.yul\":21922:21926   */\n      dup2\n        /* \"#utility.yul\":21796:21927   */\n      tag_440\n      jump\t// in\n    tag_691:\n        /* \"#utility.yul\":21788:21927   */\n      swap1\n      pop\n        /* \"#utility.yul\":21515:21934   */\n      swap2\n      swap1\n      pop\n      jump\t// out\n        /* \"#utility.yul\":21940:22120   */\n    tag_127:\n        /* \"#utility.yul\":21988:22065   */\n      0x4e487b7100000000000000000000000000000000000000000000000000000000\n        /* \"#utility.yul\":21985:21986   */\n      0x00\n        /* \"#utility.yul\":21978:22066   */\n      mstore\n        /* \"#utility.yul\":22085:22089   */\n      0x32\n        /* \"#utility.yul\":22082:22083   */\n      0x04\n        /* \"#utility.yul\":22075:22090   */\n      mstore\n        /* \"#utility.yul\":22109:22113   */\n      0x24\n        /* \"#utility.yul\":22106:22107   */\n      0x00\n        /* \"#utility.yul\":22099:22114   */\n      revert\n        /* \"#utility.yul\":22126:22359   */\n    tag_134:\n        /* \"#utility.yul\":22165:22168   */\n      0x00\n        /* \"#utility.yul\":22188:22212   */\n      tag_694\n        /* \"#utility.yul\":22206:22211   */\n      dup3\n        /* \"#utility.yul\":22188:22212   */\n      tag_378\n      jump\t// in\n    tag_694:\n        /* \"#utility.yul\":22179:22212   */\n      swap2\n      pop\n        /* \"#utility.yul\":22234:22300   */\n      0xffffffffffffffffffffffffffffffffffffffffffffffffffffffffffffffff\n        /* \"#utility.yul\":22227:22232   */\n      dup3\n        /* \"#utility.yul\":22224:22301   */\n      sub\n        /* \"#utility.yul\":22221:22324   */\n      tag_695\n      jumpi\n        /* \"#utility.yul\":22304:22322   */\n      tag_696\n      tag_438\n      jump\t// in\n    tag_696:\n        /* \"#utility.yul\":22221:22324   */\n    tag_695:\n        /* \"#utility.yul\":22351:22352   */\n      0x01\n        /* \"#utility.yul\":22344:22349   */\n      dup3\n        /* \"#utility.yul\":22340:22353   */\n      add\n        /* \"#utility.yul\":22333:22353   */\n      swap1\n      pop\n        /* \"#utility.yul\":22126:22359   */\n      swap2\n      swap1\n      pop\n      jump\t// out\n        /* \"#utility.yul\":22365:22536   */\n    tag_441:\n        /* \"#utility.yul\":22505:22528   */\n      0x546869732075736572206469646e277420766f74650000000000000000000000\n        /* \"#utility.yul\":22501:22502   */\n      0x00\n        /* \"#utility.yul\":22493:22499   */\n      dup3\n        /* \"#utility.yul\":22489:22503   */\n      add\n        /* \"#utility.yul\":22482:22529   */\n      mstore\n        /* \"#utility.yul\":22365:22536   */\n      pop\n      jump\t// out\n        /* \"#utility.yul\":22542:22908   */\n    tag_442:\n        /* \"#utility.yul\":22684:22687   */\n      0x00\n        /* \"#utility.yul\":22705:22772   */\n      tag_699\n        /* \"#utility.yul\":22769:22771   */\n      0x15\n        /* \"#utility.yul\":22764:22767   */\n      dup4\n        /* \"#utility.yul\":22705:22772   */\n      tag_382\n      jump\t// in\n    tag_699:\n        /* \"#utility.yul\":22698:22772   */\n      swap2\n      pop\n        /* \"#utility.yul\":22781:22874   */\n      tag_700\n        /* \"#utility.yul\":22870:22873   */\n      dup3\n        /* \"#utility.yul\":22781:22874   */\n      tag_441\n      jump\t// in\n    tag_700:\n        /* \"#utility.yul\":22899:22901   */\n      0x20\n        /* \"#utility.yul\":22894:22897   */\n      dup3\n        /* \"#utility.yul\":22890:22902   */\n      add\n        /* \"#utility.yul\":22883:22902   */\n      swap1\n      pop\n        /* \"#utility.yul\":22542:22908   */\n      swap2\n      swap1\n      pop\n      jump\t// out\n        /* \"#utility.yul\":22914:23333   */\n    tag_162:\n        /* \"#utility.yul\":23080:23084   */\n      0x00\n        /* \"#utility.yul\":23118:23120   */\n      0x20\n        /* \"#utility.yul\":23107:23116   */\n      dup3\n        /* \"#utility.yul\":23103:23121   */\n      add\n        /* \"#utility.yul\":23095:23121   */\n      swap1\n      pop\n        /* \"#utility.yul\":23167:23176   */\n      dup2\n        /* \"#utility.yul\":23161:23165   */\n      dup2\n        /* \"#utility.yul\":23157:23177   */\n      sub\n        /* \"#utility.yul\":23153:23154   */\n      0x00\n        /* \"#utility.yul\":23142:23151   */\n      dup4\n        /* \"#utility.yul\":23138:23155   */\n      add\n        /* \"#utility.yul\":23131:23178   */\n      mstore\n        /* \"#utility.yul\":23195:23326   */\n      tag_702\n        /* \"#utility.yul\":23321:23325   */\n      dup2\n        /* \"#utility.yul\":23195:23326   */\n      tag_442\n      jump\t// in\n    tag_702:\n        /* \"#utility.yul\":23187:23326   */\n      swap1\n      pop\n        /* \"#utility.yul\":22914:23333   */\n      swap2\n      swap1\n      pop\n      jump\t// out\n        /* \"#utility.yul\":23339:23564   */\n    tag_443:\n        /* \"#utility.yul\":23479:23513   */\n      0x4f776e61626c653a206e6577206f776e657220697320746865207a65726f2061\n        /* \"#utility.yul\":23475:23476   */\n      0x00\n        /* \"#utility.yul\":23467:23473   */\n      dup3\n        /* \"#utility.yul\":23463:23477   */\n      add\n        /* \"#utility.yul\":23456:23514   */\n      mstore\n        /* \"#utility.yul\":23548:23556   */\n      0x6464726573730000000000000000000000000000000000000000000000000000\n        /* \"#utility.yul\":23543:23545   */\n      0x20\n        /* \"#utility.yul\":23535:23541   */\n      dup3\n        /* \"#utility.yul\":23531:23546   */\n      add\n        /* \"#utility.yul\":23524:23557   */\n      mstore\n        /* \"#utility.yul\":23339:23564   */\n      pop\n      jump\t// out\n        /* \"#utility.yul\":23570:23936   */\n    tag_444:\n        /* \"#utility.yul\":23712:23715   */\n      0x00\n        /* \"#utility.yul\":23733:23800   */\n      tag_705\n        /* \"#utility.yul\":23797:23799   */\n      0x26\n        /* \"#utility.yul\":23792:23795   */\n      dup4\n        /* \"#utility.yul\":23733:23800   */\n      tag_382\n      jump\t// in\n    tag_705:\n        /* \"#utility.yul\":23726:23800   */\n      swap2\n      pop\n        /* \"#utility.yul\":23809:23902   */\n      tag_706\n        /* \"#utility.yul\":23898:23901   */\n      dup3\n        /* \"#utility.yul\":23809:23902   */\n      tag_443\n      jump\t// in\n    tag_706:\n        /* \"#utility.yul\":23927:23929   */\n      0x40\n        /* \"#utility.yul\":23922:23925   */\n      dup3\n        /* \"#utility.yul\":23918:23930   */\n      add\n        /* \"#utility.yul\":23911:23930   */\n      swap1\n      pop\n        /* \"#utility.yul\":23570:23936   */\n      swap2\n      swap1\n      pop\n      jump\t// out\n        /* \"#utility.yul\":23942:24361   */\n    tag_193:\n        /* \"#utility.yul\":24108:24112   */\n      0x00\n        /* \"#utility.yul\":24146:24148   */\n      0x20\n        /* \"#utility.yul\":24135:24144   */\n      dup3\n        /* \"#utility.yul\":24131:24149   */\n      add\n        /* \"#utility.yul\":24123:24149   */\n      swap1\n      pop\n        /* \"#utility.yul\":24195:24204   */\n      dup2\n        /* \"#utility.yul\":24189:24193   */\n      dup2\n        /* \"#utility.yul\":24185:24205   */\n      sub\n        /* \"#utility.yul\":24181:24182   */\n      0x00\n        /* \"#utility.yul\":24170:24179   */\n      dup4\n        /* \"#utility.yul\":24166:24183   */\n      add\n        /* \"#utility.yul\":24159:24206   */\n      mstore\n        /* \"#utility.yul\":24223:24354   */\n      tag_708\n        /* \"#utility.yul\":24349:24353   */\n      dup2\n        /* \"#utility.yul\":24223:24354   */\n      tag_444\n      jump\t// in\n    tag_708:\n        /* \"#utility.yul\":24215:24354   */\n      swap1\n      pop\n        /* \"#utility.yul\":23942:24361   */\n      swap2\n      swap1\n      pop\n      jump\t// out\n        /* \"#utility.yul\":24367:24602   */\n    tag_445:\n        /* \"#utility.yul\":24507:24541   */\n      0x596f75206861766520616c726561647920766f7465642e204f6e6c79206f6e65\n        /* \"#utility.yul\":24503:24504   */\n      0x00\n        /* \"#utility.yul\":24495:24501   */\n      dup3\n        /* \"#utility.yul\":24491:24505   */\n      add\n        /* \"#utility.yul\":24484:24542   */\n      mstore\n        /* \"#utility.yul\":24576:24594   */\n      0x20766f746520697320616c6c6f77656400000000000000000000000000000000\n        /* \"#utility.yul\":24571:24573   */\n      0x20\n        /* \"#utility.yul\":24563:24569   */\n      dup3\n        /* \"#utility.yul\":24559:24574   */\n      add\n        /* \"#utility.yul\":24552:24595   */\n      mstore\n        /* \"#utility.yul\":24367:24602   */\n      pop\n      jump\t// out\n        /* \"#utility.yul\":24608:24974   */\n    tag_446:\n        /* \"#utility.yul\":24750:24753   */\n      0x00\n        /* \"#utility.yul\":24771:24838   */\n      tag_711\n        /* \"#utility.yul\":24835:24837   */\n      0x30\n        /* \"#utility.yul\":24830:24833   */\n      dup4\n        /* \"#utility.yul\":24771:24838   */\n      tag_382\n      jump\t// in\n    tag_711:\n        /* \"#utility.yul\":24764:24838   */\n      swap2\n      pop\n        /* \"#utility.yul\":24847:24940   */\n      tag_712\n        /* \"#utility.yul\":24936:24939   */\n      dup3\n        /* \"#utility.yul\":24847:24940   */\n      tag_445\n      jump\t// in\n    tag_712:\n        /* \"#utility.yul\":24965:24967   */\n      0x40\n        /* \"#utility.yul\":24960:24963   */\n      dup3\n        /* \"#utility.yul\":24956:24968   */\n      add\n        /* \"#utility.yul\":24949:24968   */\n      swap1\n      pop\n        /* \"#utility.yul\":24608:24974   */\n      swap2\n      swap1\n      pop\n      jump\t// out\n        /* \"#utility.yul\":24980:25399   */\n    tag_203:\n        /* \"#utility.yul\":25146:25150   */\n      0x00\n        /* \"#utility.yul\":25184:25186   */\n      0x20\n        /* \"#utility.yul\":25173:25182   */\n      dup3\n        /* \"#utility.yul\":25169:25187   */\n      add\n        /* \"#utility.yul\":25161:25187   */\n      swap1\n      pop\n        /* \"#utility.yul\":25233:25242   */\n      dup2\n        /* \"#utility.yul\":25227:25231   */\n      dup2\n        /* \"#utility.yul\":25223:25243   */\n      sub\n        /* \"#utility.yul\":25219:25220   */\n      0x00\n        /* \"#utility.yul\":25208:25217   */\n      dup4\n        /* \"#utility.yul\":25204:25221   */\n      add\n        /* \"#utility.yul\":25197:25244   */\n      mstore\n        /* \"#utility.yul\":25261:25392   */\n      tag_714\n        /* \"#utility.yul\":25387:25391   */\n      dup2\n        /* \"#utility.yul\":25261:25392   */\n      tag_446\n      jump\t// in\n    tag_714:\n        /* \"#utility.yul\":25253:25392   */\n      swap1\n      pop\n        /* \"#utility.yul\":24980:25399   */\n      swap2\n      swap1\n      pop\n      jump\t// out\n        /* \"#utility.yul\":25405:25652   */\n    tag_447:\n        /* \"#utility.yul\":25545:25579   */\n      0x50726f706f73616c20496420646f65736e27742065786973742e20506c656173\n        /* \"#utility.yul\":25541:25542   */\n      0x00\n        /* \"#utility.yul\":25533:25539   */\n      dup3\n        /* \"#utility.yul\":25529:25543   */\n      add\n        /* \"#utility.yul\":25522:25580   */\n      mstore\n        /* \"#utility.yul\":25614:25644   */\n      0x652073656c65637420612076616c69642070726f706f73616c20496400000000\n        /* \"#utility.yul\":25609:25611   */\n      0x20\n        /* \"#utility.yul\":25601:25607   */\n      dup3\n        /* \"#utility.yul\":25597:25612   */\n      add\n        /* \"#utility.yul\":25590:25645   */\n      mstore\n        /* \"#utility.yul\":25405:25652   */\n      pop\n      jump\t// out\n        /* \"#utility.yul\":25658:26024   */\n    tag_448:\n        /* \"#utility.yul\":25800:25803   */\n      0x00\n        /* \"#utility.yul\":25821:25888   */\n      tag_717\n        /* \"#utility.yul\":25885:25887   */\n      0x3c\n        /* \"#utility.yul\":25880:25883   */\n      dup4\n        /* \"#utility.yul\":25821:25888   */\n      tag_382\n      jump\t// in\n    tag_717:\n        /* \"#utility.yul\":25814:25888   */\n      swap2\n      pop\n        /* \"#utility.yul\":25897:25990   */\n      tag_718\n        /* \"#utility.yul\":25986:25989   */\n      dup3\n        /* \"#utility.yul\":25897:25990   */\n      tag_447\n      jump\t// in\n    tag_718:\n        /* \"#utility.yul\":26015:26017   */\n      0x40\n        /* \"#utility.yul\":26010:26013   */\n      dup3\n        /* \"#utility.yul\":26006:26018   */\n      add\n        /* \"#utility.yul\":25999:26018   */\n      swap1\n      pop\n        /* \"#utility.yul\":25658:26024   */\n      swap2\n      swap1\n      pop\n      jump\t// out\n        /* \"#utility.yul\":26030:26449   */\n    tag_206:\n        /* \"#utility.yul\":26196:26200   */\n      0x00\n        /* \"#utility.yul\":26234:26236   */\n      0x20\n        /* \"#utility.yul\":26223:26232   */\n      dup3\n        /* \"#utility.yul\":26219:26237   */\n      add\n        /* \"#utility.yul\":26211:26237   */\n      swap1\n      pop\n        /* \"#utility.yul\":26283:26292   */\n      dup2\n        /* \"#utility.yul\":26277:26281   */\n      dup2\n        /* \"#utility.yul\":26273:26293   */\n      sub\n        /* \"#utility.yul\":26269:26270   */\n      0x00\n        /* \"#utility.yul\":26258:26267   */\n      dup4\n        /* \"#utility.yul\":26254:26271   */\n      add\n        /* \"#utility.yul\":26247:26294   */\n      mstore\n        /* \"#utility.yul\":26311:26442   */\n      tag_720\n        /* \"#utility.yul\":26437:26441   */\n      dup2\n        /* \"#utility.yul\":26311:26442   */\n      tag_448\n      jump\t// in\n    tag_720:\n        /* \"#utility.yul\":26303:26442   */\n      swap1\n      pop\n        /* \"#utility.yul\":26030:26449   */\n      swap2\n      swap1\n      pop\n      jump\t// out\n        /* \"#utility.yul\":26455:26787   */\n    tag_212:\n        /* \"#utility.yul\":26576:26580   */\n      0x00\n        /* \"#utility.yul\":26614:26616   */\n      0x40\n        /* \"#utility.yul\":26603:26612   */\n      dup3\n        /* \"#utility.yul\":26599:26617   */\n      add\n        /* \"#utility.yul\":26591:26617   */\n      swap1\n      pop\n        /* \"#utility.yul\":26627:26698   */\n      tag_722\n        /* \"#utility.yul\":26695:26696   */\n      0x00\n        /* \"#utility.yul\":26684:26693   */\n      dup4\n        /* \"#utility.yul\":26680:26697   */\n      add\n        /* \"#utility.yul\":26671:26677   */\n      dup6\n        /* \"#utility.yul\":26627:26698   */\n      tag_414\n      jump\t// in\n    tag_722:\n        /* \"#utility.yul\":26708:26780   */\n      tag_723\n        /* \"#utility.yul\":26776:26778   */\n      0x20\n        /* \"#utility.yul\":26765:26774   */\n      dup4\n        /* \"#utility.yul\":26761:26779   */\n      add\n        /* \"#utility.yul\":26752:26758   */\n      dup5\n        /* \"#utility.yul\":26708:26780   */\n      tag_386\n      jump\t// in\n    tag_723:\n        /* \"#utility.yul\":26455:26787   */\n      swap4\n      swap3\n      pop\n      pop\n      pop\n      jump\t// out\n        /* \"#utility.yul\":26793:27037   */\n    tag_449:\n        /* \"#utility.yul\":26933:26967   */\n      0x4f6e6c792077686974656c697374656420766f74657273206172652061757468\n        /* \"#utility.yul\":26929:26930   */\n      0x00\n        /* \"#utility.yul\":26921:26927   */\n      dup3\n        /* \"#utility.yul\":26917:26931   */\n      add\n        /* \"#utility.yul\":26910:26968   */\n      mstore\n        /* \"#utility.yul\":27002:27029   */\n      0x6f72697a656420746f20646f207468697320616374696f6e2e00000000000000\n        /* \"#utility.yul\":26997:26999   */\n      0x20\n        /* \"#utility.yul\":26989:26995   */\n      dup3\n        /* \"#utility.yul\":26985:27000   */\n      add\n        /* \"#utility.yul\":26978:27030   */\n      mstore\n        /* \"#utility.yul\":26793:27037   */\n      pop\n      jump\t// out\n        /* \"#utility.yul\":27043:27409   */\n    tag_450:\n        /* \"#utility.yul\":27185:27188   */\n      0x00\n        /* \"#utility.yul\":27206:27273   */\n      tag_726\n        /* \"#utility.yul\":27270:27272   */\n      0x39\n        /* \"#utility.yul\":27265:27268   */\n      dup4\n        /* \"#utility.yul\":27206:27273   */\n      tag_382\n      jump\t// in\n    tag_726:\n        /* \"#utility.yul\":27199:27273   */\n      swap2\n      pop\n        /* \"#utility.yul\":27282:27375   */\n      tag_727\n        /* \"#utility.yul\":27371:27374   */\n      dup3\n        /* \"#utility.yul\":27282:27375   */\n      tag_449\n      jump\t// in\n    tag_727:\n        /* \"#utility.yul\":27400:27402   */\n      0x40\n        /* \"#utility.yul\":27395:27398   */\n      dup3\n        /* \"#utility.yul\":27391:27403   */\n      add\n        /* \"#utility.yul\":27384:27403   */\n      swap1\n      pop\n        /* \"#utility.yul\":27043:27409   */\n      swap2\n      swap1\n      pop\n      jump\t// out\n        /* \"#utility.yul\":27415:27834   */\n    tag_216:\n        /* \"#utility.yul\":27581:27585   */\n      0x00\n        /* \"#utility.yul\":27619:27621   */\n      0x20\n        /* \"#utility.yul\":27608:27617   */\n      dup3\n        /* \"#utility.yul\":27604:27622   */\n      add\n        /* \"#utility.yul\":27596:27622   */\n      swap1\n      pop\n        /* \"#utility.yul\":27668:27677   */\n      dup2\n        /* \"#utility.yul\":27662:27666   */\n      dup2\n        /* \"#utility.yul\":27658:27678   */\n      sub\n        /* \"#utility.yul\":27654:27655   */\n      0x00\n        /* \"#utility.yul\":27643:27652   */\n      dup4\n        /* \"#utility.yul\":27639:27656   */\n      add\n        /* \"#utility.yul\":27632:27679   */\n      mstore\n        /* \"#utility.yul\":27696:27827   */\n      tag_729\n        /* \"#utility.yul\":27822:27826   */\n      dup2\n        /* \"#utility.yul\":27696:27827   */\n      tag_450\n      jump\t// in\n    tag_729:\n        /* \"#utility.yul\":27688:27827   */\n      swap1\n      pop\n        /* \"#utility.yul\":27415:27834   */\n      swap2\n      swap1\n      pop\n      jump\t// out\n        /* \"#utility.yul\":27840:28022   */\n    tag_451:\n        /* \"#utility.yul\":27980:28014   */\n      0x50726f706f73616c20726567697374726174696f6e20697320636c6f7365642e\n        /* \"#utility.yul\":27976:27977   */\n      0x00\n        /* \"#utility.yul\":27968:27974   */\n      dup3\n        /* \"#utility.yul\":27964:27978   */\n      add\n        /* \"#utility.yul\":27957:28015   */\n      mstore\n        /* \"#utility.yul\":27840:28022   */\n      pop\n      jump\t// out\n        /* \"#utility.yul\":28028:28394   */\n    tag_452:\n        /* \"#utility.yul\":28170:28173   */\n      0x00\n        /* \"#utility.yul\":28191:28258   */\n      tag_732\n        /* \"#utility.yul\":28255:28257   */\n      0x20\n        /* \"#utility.yul\":28250:28253   */\n      dup4\n        /* \"#utility.yul\":28191:28258   */\n      tag_382\n      jump\t// in\n    tag_732:\n        /* \"#utility.yul\":28184:28258   */\n      swap2\n      pop\n        /* \"#utility.yul\":28267:28360   */\n      tag_733\n        /* \"#utility.yul\":28356:28359   */\n      dup3\n        /* \"#utility.yul\":28267:28360   */\n      tag_451\n      jump\t// in\n    tag_733:\n        /* \"#utility.yul\":28385:28387   */\n      0x20\n        /* \"#utility.yul\":28380:28383   */\n      dup3\n        /* \"#utility.yul\":28376:28388   */\n      add\n        /* \"#utility.yul\":28369:28388   */\n      swap1\n      pop\n        /* \"#utility.yul\":28028:28394   */\n      swap2\n      swap1\n      pop\n      jump\t// out\n        /* \"#utility.yul\":28400:28819   */\n    tag_225:\n        /* \"#utility.yul\":28566:28570   */\n      0x00\n        /* \"#utility.yul\":28604:28606   */\n      0x20\n        /* \"#utility.yul\":28593:28602   */\n      dup3\n        /* \"#utility.yul\":28589:28607   */\n      add\n        /* \"#utility.yul\":28581:28607   */\n      swap1\n      pop\n        /* \"#utility.yul\":28653:28662   */\n      dup2\n        /* \"#utility.yul\":28647:28651   */\n      dup2\n        /* \"#utility.yul\":28643:28663   */\n      sub\n        /* \"#utility.yul\":28639:28640   */\n      0x00\n        /* \"#utility.yul\":28628:28637   */\n      dup4\n        /* \"#utility.yul\":28624:28641   */\n      add\n        /* \"#utility.yul\":28617:28664   */\n      mstore\n        /* \"#utility.yul\":28681:28812   */\n      tag_735\n        /* \"#utility.yul\":28807:28811   */\n      dup2\n        /* \"#utility.yul\":28681:28812   */\n      tag_452\n      jump\t// in\n    tag_735:\n        /* \"#utility.yul\":28673:28812   */\n      swap1\n      pop\n        /* \"#utility.yul\":28400:28819   */\n      swap2\n      swap1\n      pop\n      jump\t// out\n        /* \"#utility.yul\":28825:29007   */\n    tag_453:\n        /* \"#utility.yul\":28965:28999   */\n      0x4f776e61626c653a2063616c6c6572206973206e6f7420746865206f776e6572\n        /* \"#utility.yul\":28961:28962   */\n      0x00\n        /* \"#utility.yul\":28953:28959   */\n      dup3\n        /* \"#utility.yul\":28949:28963   */\n      add\n        /* \"#utility.yul\":28942:29000   */\n      mstore\n        /* \"#utility.yul\":28825:29007   */\n      pop\n      jump\t// out\n        /* \"#utility.yul\":29013:29379   */\n    tag_454:\n        /* \"#utility.yul\":29155:29158   */\n      0x00\n        /* \"#utility.yul\":29176:29243   */\n      tag_738\n        /* \"#utility.yul\":29240:29242   */\n      0x20\n        /* \"#utility.yul\":29235:29238   */\n      dup4\n        /* \"#utility.yul\":29176:29243   */\n      tag_382\n      jump\t// in\n    tag_738:\n        /* \"#utility.yul\":29169:29243   */\n      swap2\n      pop\n        /* \"#utility.yul\":29252:29345   */\n      tag_739\n        /* \"#utility.yul\":29341:29344   */\n      dup3\n        /* \"#utility.yul\":29252:29345   */\n      tag_453\n      jump\t// in\n    tag_739:\n        /* \"#utility.yul\":29370:29372   */\n      0x20\n        /* \"#utility.yul\":29365:29368   */\n      dup3\n        /* \"#utility.yul\":29361:29373   */\n      add\n        /* \"#utility.yul\":29354:29373   */\n      swap1\n      pop\n        /* \"#utility.yul\":29013:29379   */\n      swap2\n      swap1\n      pop\n      jump\t// out\n        /* \"#utility.yul\":29385:29804   */\n    tag_232:\n        /* \"#utility.yul\":29551:29555   */\n      0x00\n        /* \"#utility.yul\":29589:29591   */\n      0x20\n        /* \"#utility.yul\":29578:29587   */\n      dup3\n        /* \"#utility.yul\":29574:29592   */\n      add\n        /* \"#utility.yul\":29566:29592   */\n      swap1\n      pop\n        /* \"#utility.yul\":29638:29647   */\n      dup2\n        /* \"#utility.yul\":29632:29636   */\n      dup2\n        /* \"#utility.yul\":29628:29648   */\n      sub\n        /* \"#utility.yul\":29624:29625   */\n      0x00\n        /* \"#utility.yul\":29613:29622   */\n      dup4\n        /* \"#utility.yul\":29609:29626   */\n      add\n        /* \"#utility.yul\":29602:29649   */\n      mstore\n        /* \"#utility.yul\":29666:29797   */\n      tag_741\n        /* \"#utility.yul\":29792:29796   */\n      dup2\n        /* \"#utility.yul\":29666:29797   */\n      tag_454\n      jump\t// in\n    tag_741:\n        /* \"#utility.yul\":29658:29797   */\n      swap1\n      pop\n        /* \"#utility.yul\":29385:29804   */\n      swap2\n      swap1\n      pop\n      jump\t// out\n        /* \"#utility.yul\":29810:30037   */\n    tag_455:\n        /* \"#utility.yul\":29950:29984   */\n      0x526567697374726174696f6e20706572696f6420666f7220766f746572206973\n        /* \"#utility.yul\":29946:29947   */\n      0x00\n        /* \"#utility.yul\":29938:29944   */\n      dup3\n        /* \"#utility.yul\":29934:29948   */\n      add\n        /* \"#utility.yul\":29927:29985   */\n      mstore\n        /* \"#utility.yul\":30019:30029   */\n      0x20636c6f7365642e000000000000000000000000000000000000000000000000\n        /* \"#utility.yul\":30014:30016   */\n      0x20\n        /* \"#utility.yul\":30006:30012   */\n      dup3\n        /* \"#utility.yul\":30002:30017   */\n      add\n        /* \"#utility.yul\":29995:30030   */\n      mstore\n        /* \"#utility.yul\":29810:30037   */\n      pop\n      jump\t// out\n        /* \"#utility.yul\":30043:30409   */\n    tag_456:\n        /* \"#utility.yul\":30185:30188   */\n      0x00\n        /* \"#utility.yul\":30206:30273   */\n      tag_744\n        /* \"#utility.yul\":30270:30272   */\n      0x28\n        /* \"#utility.yul\":30265:30268   */\n      dup4\n        /* \"#utility.yul\":30206:30273   */\n      tag_382\n      jump\t// in\n    tag_744:\n        /* \"#utility.yul\":30199:30273   */\n      swap2\n      pop\n        /* \"#utility.yul\":30282:30375   */\n      tag_745\n        /* \"#utility.yul\":30371:30374   */\n      dup3\n        /* \"#utility.yul\":30282:30375   */\n      tag_455\n      jump\t// in\n    tag_745:\n        /* \"#utility.yul\":30400:30402   */\n      0x40\n        /* \"#utility.yul\":30395:30398   */\n      dup3\n        /* \"#utility.yul\":30391:30403   */\n      add\n        /* \"#utility.yul\":30384:30403   */\n      swap1\n      pop\n        /* \"#utility.yul\":30043:30409   */\n      swap2\n      swap1\n      pop\n      jump\t// out\n        /* \"#utility.yul\":30415:30834   */\n    tag_240:\n        /* \"#utility.yul\":30581:30585   */\n      0x00\n        /* \"#utility.yul\":30619:30621   */\n      0x20\n        /* \"#utility.yul\":30608:30617   */\n      dup3\n        /* \"#utility.yul\":30604:30622   */\n      add\n        /* \"#utility.yul\":30596:30622   */\n      swap1\n      pop\n        /* \"#utility.yul\":30668:30677   */\n      dup2\n        /* \"#utility.yul\":30662:30666   */\n      dup2\n        /* \"#utility.yul\":30658:30678   */\n      sub\n        /* \"#utility.yul\":30654:30655   */\n      0x00\n        /* \"#utility.yul\":30643:30652   */\n      dup4\n        /* \"#utility.yul\":30639:30656   */\n      add\n        /* \"#utility.yul\":30632:30679   */\n      mstore\n        /* \"#utility.yul\":30696:30827   */\n      tag_747\n        /* \"#utility.yul\":30822:30826   */\n      dup2\n        /* \"#utility.yul\":30696:30827   */\n      tag_456\n      jump\t// in\n    tag_747:\n        /* \"#utility.yul\":30688:30827   */\n      swap1\n      pop\n        /* \"#utility.yul\":30415:30834   */\n      swap2\n      swap1\n      pop\n      jump\t// out\n        /* \"#utility.yul\":30840:31078   */\n    tag_457:\n        /* \"#utility.yul\":30980:31014   */\n      0x566f74696e67206973206e6f7420636c6f736564206f7220766f74657320636f\n        /* \"#utility.yul\":30976:30977   */\n      0x00\n        /* \"#utility.yul\":30968:30974   */\n      dup3\n        /* \"#utility.yul\":30964:30978   */\n      add\n        /* \"#utility.yul\":30957:31015   */\n      mstore\n        /* \"#utility.yul\":31049:31070   */\n      0x756e7420697320616c726561647920646f6e6500000000000000000000000000\n        /* \"#utility.yul\":31044:31046   */\n      0x20\n        /* \"#utility.yul\":31036:31042   */\n      dup3\n        /* \"#utility.yul\":31032:31047   */\n      add\n        /* \"#utility.yul\":31025:31071   */\n      mstore\n        /* \"#utility.yul\":30840:31078   */\n      pop\n      jump\t// out\n        /* \"#utility.yul\":31084:31450   */\n    tag_458:\n        /* \"#utility.yul\":31226:31229   */\n      0x00\n        /* \"#utility.yul\":31247:31314   */\n      tag_750\n        /* \"#utility.yul\":31311:31313   */\n      0x33\n        /* \"#utility.yul\":31306:31309   */\n      dup4\n        /* \"#utility.yul\":31247:31314   */\n      tag_382\n      jump\t// in\n    tag_750:\n        /* \"#utility.yul\":31240:31314   */\n      swap2\n      pop\n        /* \"#utility.yul\":31323:31416   */\n      tag_751\n        /* \"#utility.yul\":31412:31415   */\n      dup3\n        /* \"#utility.yul\":31323:31416   */\n      tag_457\n      jump\t// in\n    tag_751:\n        /* \"#utility.yul\":31441:31443   */\n      0x40\n        /* \"#utility.yul\":31436:31439   */\n      dup3\n        /* \"#utility.yul\":31432:31444   */\n      add\n        /* \"#utility.yul\":31425:31444   */\n      swap1\n      pop\n        /* \"#utility.yul\":31084:31450   */\n      swap2\n      swap1\n      pop\n      jump\t// out\n        /* \"#utility.yul\":31456:31875   */\n    tag_248:\n        /* \"#utility.yul\":31622:31626   */\n      0x00\n        /* \"#utility.yul\":31660:31662   */\n      0x20\n        /* \"#utility.yul\":31649:31658   */\n      dup3\n        /* \"#utility.yul\":31645:31663   */\n      add\n        /* \"#utility.yul\":31637:31663   */\n      swap1\n      pop\n        /* \"#utility.yul\":31709:31718   */\n      dup2\n        /* \"#utility.yul\":31703:31707   */\n      dup2\n        /* \"#utility.yul\":31699:31719   */\n      sub\n        /* \"#utility.yul\":31695:31696   */\n      0x00\n        /* \"#utility.yul\":31684:31693   */\n      dup4\n        /* \"#utility.yul\":31680:31697   */\n      add\n        /* \"#utility.yul\":31673:31720   */\n      mstore\n        /* \"#utility.yul\":31737:31868   */\n      tag_753\n        /* \"#utility.yul\":31863:31867   */\n      dup2\n        /* \"#utility.yul\":31737:31868   */\n      tag_458\n      jump\t// in\n    tag_753:\n        /* \"#utility.yul\":31729:31868   */\n      swap1\n      pop\n        /* \"#utility.yul\":31456:31875   */\n      swap2\n      swap1\n      pop\n      jump\t// out\n        /* \"#utility.yul\":31881:32277   */\n    tag_258:\n        /* \"#utility.yul\":32034:32038   */\n      0x00\n        /* \"#utility.yul\":32072:32074   */\n      0x40\n        /* \"#utility.yul\":32061:32070   */\n      dup3\n        /* \"#utility.yul\":32057:32075   */\n      add\n        /* \"#utility.yul\":32049:32075   */\n      swap1\n      pop\n        /* \"#utility.yul\":32085:32172   */\n      tag_755\n        /* \"#utility.yul\":32169:32170   */\n      0x00\n        /* \"#utility.yul\":32158:32167   */\n      dup4\n        /* \"#utility.yul\":32154:32171   */\n      add\n        /* \"#utility.yul\":32145:32151   */\n      dup6\n        /* \"#utility.yul\":32085:32172   */\n      tag_390\n      jump\t// in\n    tag_755:\n        /* \"#utility.yul\":32182:32270   */\n      tag_756\n        /* \"#utility.yul\":32266:32268   */\n      0x20\n        /* \"#utility.yul\":32255:32264   */\n      dup4\n        /* \"#utility.yul\":32251:32269   */\n      add\n        /* \"#utility.yul\":32242:32248   */\n      dup5\n        /* \"#utility.yul\":32182:32270   */\n      tag_390\n      jump\t// in\n    tag_756:\n        /* \"#utility.yul\":31881:32277   */\n      swap4\n      swap3\n      pop\n      pop\n      pop\n      jump\t// out\n        /* \"#utility.yul\":32283:32460   */\n    tag_459:\n        /* \"#utility.yul\":32423:32452   */\n      0x566f74657320636f756e74206973206e6f742079657420646f6e650000000000\n        /* \"#utility.yul\":32419:32420   */\n      0x00\n        /* \"#utility.yul\":32411:32417   */\n      dup3\n        /* \"#utility.yul\":32407:32421   */\n      add\n        /* \"#utility.yul\":32400:32453   */\n      mstore\n        /* \"#utility.yul\":32283:32460   */\n      pop\n      jump\t// out\n        /* \"#utility.yul\":32466:32832   */\n    tag_460:\n        /* \"#utility.yul\":32608:32611   */\n      0x00\n        /* \"#utility.yul\":32629:32696   */\n      tag_759\n        /* \"#utility.yul\":32693:32695   */\n      0x1b\n        /* \"#utility.yul\":32688:32691   */\n      dup4\n        /* \"#utility.yul\":32629:32696   */\n      tag_382\n      jump\t// in\n    tag_759:\n        /* \"#utility.yul\":32622:32696   */\n      swap2\n      pop\n        /* \"#utility.yul\":32705:32798   */\n      tag_760\n        /* \"#utility.yul\":32794:32797   */\n      dup3\n        /* \"#utility.yul\":32705:32798   */\n      tag_459\n      jump\t// in\n    tag_760:\n        /* \"#utility.yul\":32823:32825   */\n      0x20\n        /* \"#utility.yul\":32818:32821   */\n      dup3\n        /* \"#utility.yul\":32814:32826   */\n      add\n        /* \"#utility.yul\":32807:32826   */\n      swap1\n      pop\n        /* \"#utility.yul\":32466:32832   */\n      swap2\n      swap1\n      pop\n      jump\t// out\n        /* \"#utility.yul\":32838:33257   */\n    tag_267:\n        /* \"#utility.yul\":33004:33008   */\n      0x00\n        /* \"#utility.yul\":33042:33044   */\n      0x20\n        /* \"#utility.yul\":33031:33040   */\n      dup3\n        /* \"#utility.yul\":33027:33045   */\n      add\n        /* \"#utility.yul\":33019:33045   */\n      swap1\n      pop\n        /* \"#utility.yul\":33091:33100   */\n      dup2\n        /* \"#utility.yul\":33085:33089   */\n      dup2\n        /* \"#utility.yul\":33081:33101   */\n      sub\n        /* \"#utility.yul\":33077:33078   */\n      0x00\n        /* \"#utility.yul\":33066:33075   */\n      dup4\n        /* \"#utility.yul\":33062:33079   */\n      add\n        /* \"#utility.yul\":33055:33102   */\n      mstore\n        /* \"#utility.yul\":33119:33250   */\n      tag_762\n        /* \"#utility.yul\":33245:33249   */\n      dup2\n        /* \"#utility.yul\":33119:33250   */\n      tag_460\n      jump\t// in\n    tag_762:\n        /* \"#utility.yul\":33111:33250   */\n      swap1\n      pop\n        /* \"#utility.yul\":32838:33257   */\n      swap2\n      swap1\n      pop\n      jump\t// out\n        /* \"#utility.yul\":33263:33438   */\n    tag_461:\n        /* \"#utility.yul\":33403:33430   */\n      0x566f74696e672073657373696f6e20697320636c6f7365642e00000000000000\n        /* \"#utility.yul\":33399:33400   */\n      0x00\n        /* \"#utility.yul\":33391:33397   */\n      dup3\n        /* \"#utility.yul\":33387:33401   */\n      add\n        /* \"#utility.yul\":33380:33431   */\n      mstore\n        /* \"#utility.yul\":33263:33438   */\n      pop\n      jump\t// out\n        /* \"#utility.yul\":33444:33810   */\n    tag_462:\n        /* \"#utility.yul\":33586:33589   */\n      0x00\n        /* \"#utility.yul\":33607:33674   */\n      tag_765\n        /* \"#utility.yul\":33671:33673   */\n      0x19\n        /* \"#utility.yul\":33666:33669   */\n      dup4\n        /* \"#utility.yul\":33607:33674   */\n      tag_382\n      jump\t// in\n    tag_765:\n        /* \"#utility.yul\":33600:33674   */\n      swap2\n      pop\n        /* \"#utility.yul\":33683:33776   */\n      tag_766\n        /* \"#utility.yul\":33772:33775   */\n      dup3\n        /* \"#utility.yul\":33683:33776   */\n      tag_461\n      jump\t// in\n    tag_766:\n        /* \"#utility.yul\":33801:33803   */\n      0x20\n        /* \"#utility.yul\":33796:33799   */\n      dup3\n        /* \"#utility.yul\":33792:33804   */\n      add\n        /* \"#utility.yul\":33785:33804   */\n      swap1\n      pop\n        /* \"#utility.yul\":33444:33810   */\n      swap2\n      swap1\n      pop\n      jump\t// out\n        /* \"#utility.yul\":33816:34235   */\n    tag_275:\n        /* \"#utility.yul\":33982:33986   */\n      0x00\n        /* \"#utility.yul\":34020:34022   */\n      0x20\n        /* \"#utility.yul\":34009:34018   */\n      dup3\n        /* \"#utility.yul\":34005:34023   */\n      add\n        /* \"#utility.yul\":33997:34023   */\n      swap1\n      pop\n        /* \"#utility.yul\":34069:34078   */\n      dup2\n        /* \"#utility.yul\":34063:34067   */\n      dup2\n        /* \"#utility.yul\":34059:34079   */\n      sub\n        /* \"#utility.yul\":34055:34056   */\n      0x00\n        /* \"#utility.yul\":34044:34053   */\n      dup4\n        /* \"#utility.yul\":34040:34057   */\n      add\n        /* \"#utility.yul\":34033:34080   */\n      mstore\n        /* \"#utility.yul\":34097:34228   */\n      tag_768\n        /* \"#utility.yul\":34223:34227   */\n      dup2\n        /* \"#utility.yul\":34097:34228   */\n      tag_462\n      jump\t// in\n    tag_768:\n        /* \"#utility.yul\":34089:34228   */\n      swap1\n      pop\n        /* \"#utility.yul\":33816:34235   */\n      swap2\n      swap1\n      pop\n      jump\t// out\n        /* \"#utility.yul\":34241:34547   */\n    tag_463:\n        /* \"#utility.yul\":34381:34415   */\n      0x41637475616c20737461747573206973206e6f7420636f6d70617469626c6520\n        /* \"#utility.yul\":34377:34378   */\n      0x00\n        /* \"#utility.yul\":34369:34375   */\n      dup3\n        /* \"#utility.yul\":34365:34379   */\n      add\n        /* \"#utility.yul\":34358:34416   */\n      mstore\n        /* \"#utility.yul\":34450:34484   */\n      0x7769746820796f75722063686f696365202863686f6f73652070726576696f75\n        /* \"#utility.yul\":34445:34447   */\n      0x20\n        /* \"#utility.yul\":34437:34443   */\n      dup3\n        /* \"#utility.yul\":34433:34448   */\n      add\n        /* \"#utility.yul\":34426:34485   */\n      mstore\n        /* \"#utility.yul\":34519:34539   */\n      0x73206f6e65206f72206e657874206f6e65290000000000000000000000000000\n        /* \"#utility.yul\":34514:34516   */\n      0x40\n        /* \"#utility.yul\":34506:34512   */\n      dup3\n        /* \"#utility.yul\":34502:34517   */\n      add\n        /* \"#utility.yul\":34495:34540   */\n      mstore\n        /* \"#utility.yul\":34241:34547   */\n      pop\n      jump\t// out\n        /* \"#utility.yul\":34553:34919   */\n    tag_464:\n        /* \"#utility.yul\":34695:34698   */\n      0x00\n        /* \"#utility.yul\":34716:34783   */\n      tag_771\n        /* \"#utility.yul\":34780:34782   */\n      0x52\n        /* \"#utility.yul\":34775:34778   */\n      dup4\n        /* \"#utility.yul\":34716:34783   */\n      tag_382\n      jump\t// in\n    tag_771:\n        /* \"#utility.yul\":34709:34783   */\n      swap2\n      pop\n        /* \"#utility.yul\":34792:34885   */\n      tag_772\n        /* \"#utility.yul\":34881:34884   */\n      dup3\n        /* \"#utility.yul\":34792:34885   */\n      tag_463\n      jump\t// in\n    tag_772:\n        /* \"#utility.yul\":34910:34912   */\n      0x60\n        /* \"#utility.yul\":34905:34908   */\n      dup3\n        /* \"#utility.yul\":34901:34913   */\n      add\n        /* \"#utility.yul\":34894:34913   */\n      swap1\n      pop\n        /* \"#utility.yul\":34553:34919   */\n      swap2\n      swap1\n      pop\n      jump\t// out\n        /* \"#utility.yul\":34925:35344   */\n    tag_294:\n        /* \"#utility.yul\":35091:35095   */\n      0x00\n        /* \"#utility.yul\":35129:35131   */\n      0x20\n        /* \"#utility.yul\":35118:35127   */\n      dup3\n        /* \"#utility.yul\":35114:35132   */\n      add\n        /* \"#utility.yul\":35106:35132   */\n      swap1\n      pop\n        /* \"#utility.yul\":35178:35187   */\n      dup2\n        /* \"#utility.yul\":35172:35176   */\n      dup2\n        /* \"#utility.yul\":35168:35188   */\n      sub\n        /* \"#utility.yul\":35164:35165   */\n      0x00\n        /* \"#utility.yul\":35153:35162   */\n      dup4\n        /* \"#utility.yul\":35149:35166   */\n      add\n        /* \"#utility.yul\":35142:35189   */\n      mstore\n        /* \"#utility.yul\":35206:35337   */\n      tag_774\n        /* \"#utility.yul\":35332:35336   */\n      dup2\n        /* \"#utility.yul\":35206:35337   */\n      tag_464\n      jump\t// in\n    tag_774:\n        /* \"#utility.yul\":35198:35337   */\n      swap1\n      pop\n        /* \"#utility.yul\":34925:35344   */\n      swap2\n      swap1\n      pop\n      jump\t// out\n\n    auxdata: 0xa26469706673582212206e1ddad6c06b0ebd4cefc82096191d9041c61e4ffe56cf53996be745aa5f769564736f6c63430008120033\n}\n",
				"bytecode": {
					"linkReferences": {},
					"object": "60806040523480156200001157600080fd5b5062000032620000266200003860201b60201c565b6200004060201b60201c565b62000104565b600033905090565b60008060009054906101000a900473ffffffffffffffffffffffffffffffffffffffff169050816000806101000a81548173ffffffffffffffffffffffffffffffffffffffff021916908373ffffffffffffffffffffffffffffffffffffffff1602179055508173ffffffffffffffffffffffffffffffffffffffff168173ffffffffffffffffffffffffffffffffffffffff167f8be0079c531659141344cd1fd0a4f28419497f9722a3daafe3b4186f6b6457e060405160405180910390a35050565b612a5b80620001146000396000f3fe608060405234801561001057600080fd5b50600436106100ea5760003560e01c80638da5cb5b1161008c578063c88d385111610066578063c88d385114610216578063d55ec9c114610246578063f2fde38b14610262578063fd4a77f11461027e576100ea565b80638da5cb5b146101a85780639b19251a146101c6578063b11accff146101f8576100ea565b806338db6dd3116100c857806338db6dd31461015a57806362564c48146101765780636a00600c14610194578063715018a61461019e576100ea565b8063013cf08b146100ef578063200d2ed2146101205780632f95355b1461013e575b600080fd5b61010960048036038101906101049190611835565b61029a565b604051610117929190611901565b60405180910390f35b610128610356565b60405161013591906119a8565b60405180910390f35b61015860048036038101906101539190611af8565b610369565b005b610174600480360381019061016f9190611b9f565b610427565b005b61017e610561565b60405161018b9190611d24565b60405180910390f35b61019c61065c565b005b6101a6610704565b005b6101b0610718565b6040516101bd9190611d55565b60405180910390f35b6101e060048036038101906101db9190611b9f565b610741565b6040516101ef93929190611d8b565b60405180910390f35b610200610785565b60405161020d9190611dff565b60405180910390f35b610230600480360381019061022b9190611b9f565b610865565b60405161023d9190611e21565b60405180910390f35b610260600480360381019061025b9190611f0b565b6109f5565b005b61027c60048036038101906102779190611b9f565b610b66565b005b61029860048036038101906102939190611835565b610be9565b005b600281815481106102aa57600080fd5b90600052602060002090600202016000915090508060000180546102cd90611f83565b80601f01602080910402602001604051908101604052809291908181526020018280546102f990611f83565b80156103465780601f1061031b57610100808354040283529160200191610346565b820191906000526020600020905b81548152906001019060200180831161032957829003601f168201915b5050505050908060010154905082565b600360009054906101000a900460ff1681565b610371610de8565b610379610e80565b600260405180604001604052808381526020016000815250908060018154018082558091505060019003906000526020600020906002020160009091909190915060008201518160000190816103cf9190612160565b506020820151816001015550507f92e393e9b54e2f801d3ea4beb0c5e71a21cc34a5d34b77d0fb8a3aa1650dc18f600160028054905061040f9190612261565b60405161041c9190612295565b60405180910390a150565b61042f610ef8565b610437610f76565b60001515600160008373ffffffffffffffffffffffffffffffffffffffff1673ffffffffffffffffffffffffffffffffffffffff16815260200190815260200160002060000160009054906101000a900460ff161515146104cd576040517f08c379a00000000000000000000000000000000000000000000000000000000081526004016104c4906122fc565b60405180910390fd5b60018060008373ffffffffffffffffffffffffffffffffffffffff1673ffffffffffffffffffffffffffffffffffffffff16815260200190815260200160002060000160006101000a81548160ff0219169083151502179055507fb6be2187d059cc2a55fe29e0e503b566e1e0f8c8780096e185429350acffd3dd816040516105569190611d55565b60405180910390a150565b60606002805480602002602001604051908101604052809291908181526020016000905b8282101561065357838290600052602060002090600202016040518060400160405290816000820180546105b890611f83565b80601f01602080910402602001604051908101604052809291908181526020018280546105e490611f83565b80156106315780601f1061060657610100808354040283529160200191610631565b820191906000526020600020905b81548152906001019060200180831161061457829003601f168201915b5050505050815260200160018201548152505081526020019060010190610585565b50505050905090565b610664610ef8565b61066c610fee565b60008080600090505b6002805490508110156106ee5782600282815481106106975761069661231c565b5b90600052602060002090600202016001015411156106db57600281815481106106c3576106c261231c565b5b90600052602060002090600202016001015492508091505b80806106e69061234b565b915050610675565b50806004819055506107006005611066565b5050565b61070c610ef8565b61071660006110f4565b565b60008060009054906101000a900473ffffffffffffffffffffffffffffffffffffffff16905090565b60016020528060005260406000206000915090508060000160009054906101000a900460ff16908060000160019054906101000a900460ff16908060010154905083565b61078d6117d1565b6107956111b8565b6002600454815481106107ab576107aa61231c565b5b90600052602060002090600202016040518060400160405290816000820180546107d490611f83565b80601f016020809104026020016040519081016040528092919081815260200182805461080090611f83565b801561084d5780601f106108225761010080835404028352916020019161084d565b820191906000526020600020905b81548152906001019060200180831161083057829003601f168201915b50505050508152602001600182015481525050905090565b606061086f610fee565b600160008373ffffffffffffffffffffffffffffffffffffffff1673ffffffffffffffffffffffffffffffffffffffff16815260200190815260200160002060000160019054906101000a900460ff166108fe576040517f08c379a00000000000000000000000000000000000000000000000000000000081526004016108f5906123df565b60405180910390fd5b6002600160008473ffffffffffffffffffffffffffffffffffffffff1673ffffffffffffffffffffffffffffffffffffffff16815260200190815260200160002060010154815481106109545761095361231c565b5b9060005260206000209060020201600001805461097090611f83565b80601f016020809104026020016040519081016040528092919081815260200182805461099c90611f83565b80156109e95780601f106109be576101008083540402835291602001916109e9565b820191906000526020600020905b8154815290600101906020018083116109cc57829003601f168201915b50505050509050919050565b6109fd610ef8565b610a05610f76565b60005b8151811015610b62576001806000848481518110610a2957610a2861231c565b5b602002602001015173ffffffffffffffffffffffffffffffffffffffff1673ffffffffffffffffffffffffffffffffffffffff16815260200190815260200160002060000160006101000a81548160ff021916908315150217905515610b4f576001806000848481518110610aa157610aa061231c565b5b602002602001015173ffffffffffffffffffffffffffffffffffffffff1673ffffffffffffffffffffffffffffffffffffffff16815260200190815260200160002060000160006101000a81548160ff0219169083151502179055507fb6be2187d059cc2a55fe29e0e503b566e1e0f8c8780096e185429350acffd3dd828281518110610b3157610b3061231c565b5b6020026020010151604051610b469190611d55565b60405180910390a15b8080610b5a9061234b565b915050610a08565b5050565b610b6e610ef8565b600073ffffffffffffffffffffffffffffffffffffffff168173ffffffffffffffffffffffffffffffffffffffff1603610bdd576040517f08c379a0000000000000000000000000000000000000000000000000000000008152600401610bd490612471565b60405180910390fd5b610be6816110f4565b50565b610bf161122f565b610bf9610de8565b600160003373ffffffffffffffffffffffffffffffffffffffff1673ffffffffffffffffffffffffffffffffffffffff16815260200190815260200160002060000160019054906101000a900460ff1615610c89576040517f08c379a0000000000000000000000000000000000000000000000000000000008152600401610c8090612503565b60405180910390fd5b6002805490508110610cd0576040517f08c379a0000000000000000000000000000000000000000000000000000000008152600401610cc790612595565b60405180910390fd5b60028181548110610ce457610ce361231c565b5b90600052602060002090600202016001016000815480929190610d069061234b565b919050555080600160003373ffffffffffffffffffffffffffffffffffffffff1673ffffffffffffffffffffffffffffffffffffffff1681526020019081526020016000206001018190555060018060003373ffffffffffffffffffffffffffffffffffffffff1673ffffffffffffffffffffffffffffffffffffffff16815260200190815260200160002060000160016101000a81548160ff0219169083151502179055507f4d99b957a2bc29a30ebd96a7be8e68fe50a3c701db28a91436490b7d53870ca43382604051610ddd9291906125b5565b60405180910390a150565b60011515600160003373ffffffffffffffffffffffffffffffffffffffff1673ffffffffffffffffffffffffffffffffffffffff16815260200190815260200160002060000160009054906101000a900460ff16151514610e7e576040517f08c379a0000000000000000000000000000000000000000000000000000000008152600401610e7590612650565b60405180910390fd5b565b60016005811115610e9457610e93611931565b5b600360009054906101000a900460ff166005811115610eb657610eb5611931565b5b14610ef6576040517f08c379a0000000000000000000000000000000000000000000000000000000008152600401610eed906126bc565b60405180910390fd5b565b610f006112a7565b73ffffffffffffffffffffffffffffffffffffffff16610f1e610718565b73ffffffffffffffffffffffffffffffffffffffff1614610f74576040517f08c379a0000000000000000000000000000000000000000000000000000000008152600401610f6b90612728565b60405180910390fd5b565b60006005811115610f8a57610f89611931565b5b600360009054906101000a900460ff166005811115610fac57610fab611931565b5b14610fec576040517f08c379a0000000000000000000000000000000000000000000000000000000008152600401610fe3906127ba565b60405180910390fd5b565b6004600581111561100257611001611931565b5b600360009054906101000a900460ff16600581111561102457611023611931565b5b14611064576040517f08c379a000000000000000000000000000000000000000000000000000000000815260040161105b9061284c565b60405180910390fd5b565b61106e610ef8565b80611078816112af565b6000600360009054906101000a900460ff16905082600360006101000a81548160ff021916908360058111156110b1576110b0611931565b5b02179055507f0a97a4ee45751e2abf3e4fc8946939630b11b371ea8ae39ccdc3056e98f5cc3f81846040516110e792919061286c565b60405180910390a1505050565b60008060009054906101000a900473ffffffffffffffffffffffffffffffffffffffff169050816000806101000a81548173ffffffffffffffffffffffffffffffffffffffff021916908373ffffffffffffffffffffffffffffffffffffffff1602179055508173ffffffffffffffffffffffffffffffffffffffff168173ffffffffffffffffffffffffffffffffffffffff167f8be0079c531659141344cd1fd0a4f28419497f9722a3daafe3b4186f6b6457e060405160405180910390a35050565b6005808111156111cb576111ca611931565b5b600360009054906101000a900460ff1660058111156111ed576111ec611931565b5b1461122d576040517f08c379a0000000000000000000000000000000000000000000000000000000008152600401611224906128e1565b60405180910390fd5b565b6003600581111561124357611242611931565b5b600360009054906101000a900460ff16600581111561126557611264611931565b5b146112a5576040517f08c379a000000000000000000000000000000000000000000000000000000000815260040161129c9061294d565b60405180910390fd5b565b600033905090565b600060058111156112c3576112c2611931565b5b8160058111156112d6576112d5611931565b5b0361139457600060058111156112ef576112ee611931565b5b600360009054906101000a900460ff16600581111561131157611310611931565b5b148061135057506001600581111561132c5761132b611931565b5b600360009054906101000a900460ff16600581111561134e5761134d611931565b5b145b61138f576040517f08c379a000000000000000000000000000000000000000000000000000000000815260040161138690612a05565b60405180910390fd5b6117ce565b600160058111156113a8576113a7611931565b5b8160058111156113bb576113ba611931565b5b0361147957600060058111156113d4576113d3611931565b5b600360009054906101000a900460ff1660058111156113f6576113f5611931565b5b148061143557506002600581111561141157611410611931565b5b600360009054906101000a900460ff16600581111561143357611432611931565b5b145b611474576040517f08c379a000000000000000000000000000000000000000000000000000000000815260040161146b90612a05565b60405180910390fd5b6117cd565b6002600581111561148d5761148c611931565b5b8160058111156114a05761149f611931565b5b0361155e57600160058111156114b9576114b8611931565b5b600360009054906101000a900460ff1660058111156114db576114da611931565b5b148061151a5750600360058111156114f6576114f5611931565b5b600360009054906101000a900460ff16600581111561151857611517611931565b5b145b611559576040517f08c379a000000000000000000000000000000000000000000000000000000000815260040161155090612a05565b60405180910390fd5b6117cc565b6003600581111561157257611571611931565b5b81600581111561158557611584611931565b5b03611643576002600581111561159e5761159d611931565b5b600360009054906101000a900460ff1660058111156115c0576115bf611931565b5b14806115ff5750600460058111156115db576115da611931565b5b600360009054906101000a900460ff1660058111156115fd576115fc611931565b5b145b61163e576040517f08c379a000000000000000000000000000000000000000000000000000000000815260040161163590612a05565b60405180910390fd5b6117cb565b6004600581111561165757611656611931565b5b81600581111561166a57611669611931565b5b03611727576003600581111561168357611682611931565b5b600360009054906101000a900460ff1660058111156116a5576116a4611931565b5b14806116e357506005808111156116bf576116be611931565b5b600360009054906101000a900460ff1660058111156116e1576116e0611931565b5b145b611722576040517f08c379a000000000000000000000000000000000000000000000000000000000815260040161171990612a05565b60405180910390fd5b6117ca565b60058081111561173a57611739611931565b5b81600581111561174d5761174c611931565b5b036117c9576004600581111561176657611765611931565b5b600360009054906101000a900460ff16600581111561178857611787611931565b5b146117c8576040517f08c379a00000000000000000000000000000000000000000000000000000000081526004016117bf90612a05565b60405180910390fd5b5b5b5b5b5b5b50565b604051806040016040528060608152602001600081525090565b6000604051905090565b600080fd5b600080fd5b6000819050919050565b611812816117ff565b811461181d57600080fd5b50565b60008135905061182f81611809565b92915050565b60006020828403121561184b5761184a6117f5565b5b600061185984828501611820565b91505092915050565b600081519050919050565b600082825260208201905092915050565b60005b8381101561189c578082015181840152602081019050611881565b60008484015250505050565b6000601f19601f8301169050919050565b60006118c482611862565b6118ce818561186d565b93506118de81856020860161187e565b6118e7816118a8565b840191505092915050565b6118fb816117ff565b82525050565b6000604082019050818103600083015261191b81856118b9565b905061192a60208301846118f2565b9392505050565b7f4e487b7100000000000000000000000000000000000000000000000000000000600052602160045260246000fd5b6006811061197157611970611931565b5b50565b600081905061198282611960565b919050565b600061199282611974565b9050919050565b6119a281611987565b82525050565b60006020820190506119bd6000830184611999565b92915050565b600080fd5b600080fd5b7f4e487b7100000000000000000000000000000000000000000000000000000000600052604160045260246000fd5b611a05826118a8565b810181811067ffffffffffffffff82111715611a2457611a236119cd565b5b80604052505050565b6000611a376117eb565b9050611a4382826119fc565b919050565b600067ffffffffffffffff821115611a6357611a626119cd565b5b611a6c826118a8565b9050602081019050919050565b82818337600083830152505050565b6000611a9b611a9684611a48565b611a2d565b905082815260208101848484011115611ab757611ab66119c8565b5b611ac2848285611a79565b509392505050565b600082601f830112611adf57611ade6119c3565b5b8135611aef848260208601611a88565b91505092915050565b600060208284031215611b0e57611b0d6117f5565b5b600082013567ffffffffffffffff811115611b2c57611b2b6117fa565b5b611b3884828501611aca565b91505092915050565b600073ffffffffffffffffffffffffffffffffffffffff82169050919050565b6000611b6c82611b41565b9050919050565b611b7c81611b61565b8114611b8757600080fd5b50565b600081359050611b9981611b73565b92915050565b600060208284031215611bb557611bb46117f5565b5b6000611bc384828501611b8a565b91505092915050565b600081519050919050565b600082825260208201905092915050565b6000819050602082019050919050565b600082825260208201905092915050565b6000611c1482611862565b611c1e8185611bf8565b9350611c2e81856020860161187e565b611c37816118a8565b840191505092915050565b611c4b816117ff565b82525050565b60006040830160008301518482036000860152611c6e8282611c09565b9150506020830151611c836020860182611c42565b508091505092915050565b6000611c9a8383611c51565b905092915050565b6000602082019050919050565b6000611cba82611bcc565b611cc48185611bd7565b935083602082028501611cd685611be8565b8060005b85811015611d125784840389528151611cf38582611c8e565b9450611cfe83611ca2565b925060208a01995050600181019050611cda565b50829750879550505050505092915050565b60006020820190508181036000830152611d3e8184611caf565b905092915050565b611d4f81611b61565b82525050565b6000602082019050611d6a6000830184611d46565b92915050565b60008115159050919050565b611d8581611d70565b82525050565b6000606082019050611da06000830186611d7c565b611dad6020830185611d7c565b611dba60408301846118f2565b949350505050565b60006040830160008301518482036000860152611ddf8282611c09565b9150506020830151611df46020860182611c42565b508091505092915050565b60006020820190508181036000830152611e198184611dc2565b905092915050565b60006020820190508181036000830152611e3b81846118b9565b905092915050565b600067ffffffffffffffff821115611e5e57611e5d6119cd565b5b602082029050602081019050919050565b600080fd5b6000611e87611e8284611e43565b611a2d565b90508083825260208201905060208402830185811115611eaa57611ea9611e6f565b5b835b81811015611ed35780611ebf8882611b8a565b845260208401935050602081019050611eac565b5050509392505050565b600082601f830112611ef257611ef16119c3565b5b8135611f02848260208601611e74565b91505092915050565b600060208284031215611f2157611f206117f5565b5b600082013567ffffffffffffffff811115611f3f57611f3e6117fa565b5b611f4b84828501611edd565b91505092915050565b7f4e487b7100000000000000000000000000000000000000000000000000000000600052602260045260246000fd5b60006002820490506001821680611f9b57607f821691505b602082108103611fae57611fad611f54565b5b50919050565b60008190508160005260206000209050919050565b60006020601f8301049050919050565b600082821b905092915050565b6000600883026120167fffffffffffffffffffffffffffffffffffffffffffffffffffffffffffffffff82611fd9565b6120208683611fd9565b95508019841693508086168417925050509392505050565b6000819050919050565b600061205d612058612053846117ff565b612038565b6117ff565b9050919050565b6000819050919050565b61207783612042565b61208b61208382612064565b848454611fe6565b825550505050565b600090565b6120a0612093565b6120ab81848461206e565b505050565b5b818110156120cf576120c4600082612098565b6001810190506120b1565b5050565b601f821115612114576120e581611fb4565b6120ee84611fc9565b810160208510156120fd578190505b61211161210985611fc9565b8301826120b0565b50505b505050565b600082821c905092915050565b600061213760001984600802612119565b1980831691505092915050565b60006121508383612126565b9150826002028217905092915050565b61216982611862565b67ffffffffffffffff811115612182576121816119cd565b5b61218c8254611f83565b6121978282856120d3565b600060209050601f8311600181146121ca57600084156121b8578287015190505b6121c28582612144565b86555061222a565b601f1984166121d886611fb4565b60005b82811015612200578489015182556001820191506020850194506020810190506121db565b8683101561221d5784890151612219601f891682612126565b8355505b6001600288020188555050505b505050505050565b7f4e487b7100000000000000000000000000000000000000000000000000000000600052601160045260246000fd5b600061226c826117ff565b9150612277836117ff565b925082820390508181111561228f5761228e612232565b5b92915050565b60006020820190506122aa60008301846118f2565b92915050565b7f566f74657220697320616c72656164792077686974656c697374656400000000600082015250565b60006122e6601c8361186d565b91506122f1826122b0565b602082019050919050565b60006020820190508181036000830152612315816122d9565b9050919050565b7f4e487b7100000000000000000000000000000000000000000000000000000000600052603260045260246000fd5b6000612356826117ff565b91507fffffffffffffffffffffffffffffffffffffffffffffffffffffffffffffffff820361238857612387612232565b5b600182019050919050565b7f546869732075736572206469646e277420766f74650000000000000000000000600082015250565b60006123c960158361186d565b91506123d482612393565b602082019050919050565b600060208201905081810360008301526123f8816123bc565b9050919050565b7f4f776e61626c653a206e6577206f776e657220697320746865207a65726f206160008201527f6464726573730000000000000000000000000000000000000000000000000000602082015250565b600061245b60268361186d565b9150612466826123ff565b604082019050919050565b6000602082019050818103600083015261248a8161244e565b9050919050565b7f596f75206861766520616c726561647920766f7465642e204f6e6c79206f6e6560008201527f20766f746520697320616c6c6f77656400000000000000000000000000000000602082015250565b60006124ed60308361186d565b91506124f882612491565b604082019050919050565b6000602082019050818103600083015261251c816124e0565b9050919050565b7f50726f706f73616c20496420646f65736e27742065786973742e20506c65617360008201527f652073656c65637420612076616c69642070726f706f73616c20496400000000602082015250565b600061257f603c8361186d565b915061258a82612523565b604082019050919050565b600060208201905081810360008301526125ae81612572565b9050919050565b60006040820190506125ca6000830185611d46565b6125d760208301846118f2565b9392505050565b7f4f6e6c792077686974656c697374656420766f7465727320617265206175746860008201527f6f72697a656420746f20646f207468697320616374696f6e2e00000000000000602082015250565b600061263a60398361186d565b9150612645826125de565b604082019050919050565b600060208201905081810360008301526126698161262d565b9050919050565b7f50726f706f73616c20726567697374726174696f6e20697320636c6f7365642e600082015250565b60006126a660208361186d565b91506126b182612670565b602082019050919050565b600060208201905081810360008301526126d581612699565b9050919050565b7f4f776e61626c653a2063616c6c6572206973206e6f7420746865206f776e6572600082015250565b600061271260208361186d565b915061271d826126dc565b602082019050919050565b6000602082019050818103600083015261274181612705565b9050919050565b7f526567697374726174696f6e20706572696f6420666f7220766f74657220697360008201527f20636c6f7365642e000000000000000000000000000000000000000000000000602082015250565b60006127a460288361186d565b91506127af82612748565b604082019050919050565b600060208201905081810360008301526127d381612797565b9050919050565b7f566f74696e67206973206e6f7420636c6f736564206f7220766f74657320636f60008201527f756e7420697320616c726561647920646f6e6500000000000000000000000000602082015250565b600061283660338361186d565b9150612841826127da565b604082019050919050565b6000602082019050818103600083015261286581612829565b9050919050565b60006040820190506128816000830185611999565b61288e6020830184611999565b9392505050565b7f566f74657320636f756e74206973206e6f742079657420646f6e650000000000600082015250565b60006128cb601b8361186d565b91506128d682612895565b602082019050919050565b600060208201905081810360008301526128fa816128be565b9050919050565b7f566f74696e672073657373696f6e20697320636c6f7365642e00000000000000600082015250565b600061293760198361186d565b915061294282612901565b602082019050919050565b600060208201905081810360008301526129668161292a565b9050919050565b7f41637475616c20737461747573206973206e6f7420636f6d70617469626c652060008201527f7769746820796f75722063686f696365202863686f6f73652070726576696f7560208201527f73206f6e65206f72206e657874206f6e65290000000000000000000000000000604082015250565b60006129ef60528361186d565b91506129fa8261296d565b606082019050919050565b60006020820190508181036000830152612a1e816129e2565b905091905056fea26469706673582212206e1ddad6c06b0ebd4cefc82096191d9041c61e4ffe56cf53996be745aa5f769564736f6c63430008120033",
					"opcodes": "PUSH1 0x80 PUSH1 0x40 MSTORE CALLVALUE DUP1 ISZERO PUSH3 0x11 JUMPI PUSH1 0x0 DUP1 REVERT JUMPDEST POP PUSH3 0x32 PUSH3 0x26 PUSH3 0x38 PUSH1 0x20 SHL PUSH1 0x20 SHR JUMP JUMPDEST PUSH3 0x40 PUSH1 0x20 SHL PUSH1 0x20 SHR JUMP JUMPDEST PUSH3 0x104 JUMP JUMPDEST PUSH1 0x0 CALLER SWAP1 POP SWAP1 JUMP JUMPDEST PUSH1 0x0 DUP1 PUSH1 0x0 SWAP1 SLOAD SWAP1 PUSH2 0x100 EXP SWAP1 DIV PUSH20 0xFFFFFFFFFFFFFFFFFFFFFFFFFFFFFFFFFFFFFFFF AND SWAP1 POP DUP2 PUSH1 0x0 DUP1 PUSH2 0x100 EXP DUP2 SLOAD DUP2 PUSH20 0xFFFFFFFFFFFFFFFFFFFFFFFFFFFFFFFFFFFFFFFF MUL NOT AND SWAP1 DUP4 PUSH20 0xFFFFFFFFFFFFFFFFFFFFFFFFFFFFFFFFFFFFFFFF AND MUL OR SWAP1 SSTORE POP DUP2 PUSH20 0xFFFFFFFFFFFFFFFFFFFFFFFFFFFFFFFFFFFFFFFF AND DUP2 PUSH20 0xFFFFFFFFFFFFFFFFFFFFFFFFFFFFFFFFFFFFFFFF AND PUSH32 0x8BE0079C531659141344CD1FD0A4F28419497F9722A3DAAFE3B4186F6B6457E0 PUSH1 0x40 MLOAD PUSH1 0x40 MLOAD DUP1 SWAP2 SUB SWAP1 LOG3 POP POP JUMP JUMPDEST PUSH2 0x2A5B DUP1 PUSH3 0x114 PUSH1 0x0 CODECOPY PUSH1 0x0 RETURN INVALID PUSH1 0x80 PUSH1 0x40 MSTORE CALLVALUE DUP1 ISZERO PUSH2 0x10 JUMPI PUSH1 0x0 DUP1 REVERT JUMPDEST POP PUSH1 0x4 CALLDATASIZE LT PUSH2 0xEA JUMPI PUSH1 0x0 CALLDATALOAD PUSH1 0xE0 SHR DUP1 PUSH4 0x8DA5CB5B GT PUSH2 0x8C JUMPI DUP1 PUSH4 0xC88D3851 GT PUSH2 0x66 JUMPI DUP1 PUSH4 0xC88D3851 EQ PUSH2 0x216 JUMPI DUP1 PUSH4 0xD55EC9C1 EQ PUSH2 0x246 JUMPI DUP1 PUSH4 0xF2FDE38B EQ PUSH2 0x262 JUMPI DUP1 PUSH4 0xFD4A77F1 EQ PUSH2 0x27E JUMPI PUSH2 0xEA JUMP JUMPDEST DUP1 PUSH4 0x8DA5CB5B EQ PUSH2 0x1A8 JUMPI DUP1 PUSH4 0x9B19251A EQ PUSH2 0x1C6 JUMPI DUP1 PUSH4 0xB11ACCFF EQ PUSH2 0x1F8 JUMPI PUSH2 0xEA JUMP JUMPDEST DUP1 PUSH4 0x38DB6DD3 GT PUSH2 0xC8 JUMPI DUP1 PUSH4 0x38DB6DD3 EQ PUSH2 0x15A JUMPI DUP1 PUSH4 0x62564C48 EQ PUSH2 0x176 JUMPI DUP1 PUSH4 0x6A00600C EQ PUSH2 0x194 JUMPI DUP1 PUSH4 0x715018A6 EQ PUSH2 0x19E JUMPI PUSH2 0xEA JUMP JUMPDEST DUP1 PUSH4 0x13CF08B EQ PUSH2 0xEF JUMPI DUP1 PUSH4 0x200D2ED2 EQ PUSH2 0x120 JUMPI DUP1 PUSH4 0x2F95355B EQ PUSH2 0x13E JUMPI JUMPDEST PUSH1 0x0 DUP1 REVERT JUMPDEST PUSH2 0x109 PUSH1 0x4 DUP1 CALLDATASIZE SUB DUP2 ADD SWAP1 PUSH2 0x104 SWAP2 SWAP1 PUSH2 0x1835 JUMP JUMPDEST PUSH2 0x29A JUMP JUMPDEST PUSH1 0x40 MLOAD PUSH2 0x117 SWAP3 SWAP2 SWAP1 PUSH2 0x1901 JUMP JUMPDEST PUSH1 0x40 MLOAD DUP1 SWAP2 SUB SWAP1 RETURN JUMPDEST PUSH2 0x128 PUSH2 0x356 JUMP JUMPDEST PUSH1 0x40 MLOAD PUSH2 0x135 SWAP2 SWAP1 PUSH2 0x19A8 JUMP JUMPDEST PUSH1 0x40 MLOAD DUP1 SWAP2 SUB SWAP1 RETURN JUMPDEST PUSH2 0x158 PUSH1 0x4 DUP1 CALLDATASIZE SUB DUP2 ADD SWAP1 PUSH2 0x153 SWAP2 SWAP1 PUSH2 0x1AF8 JUMP JUMPDEST PUSH2 0x369 JUMP JUMPDEST STOP JUMPDEST PUSH2 0x174 PUSH1 0x4 DUP1 CALLDATASIZE SUB DUP2 ADD SWAP1 PUSH2 0x16F SWAP2 SWAP1 PUSH2 0x1B9F JUMP JUMPDEST PUSH2 0x427 JUMP JUMPDEST STOP JUMPDEST PUSH2 0x17E PUSH2 0x561 JUMP JUMPDEST PUSH1 0x40 MLOAD PUSH2 0x18B SWAP2 SWAP1 PUSH2 0x1D24 JUMP JUMPDEST PUSH1 0x40 MLOAD DUP1 SWAP2 SUB SWAP1 RETURN JUMPDEST PUSH2 0x19C PUSH2 0x65C JUMP JUMPDEST STOP JUMPDEST PUSH2 0x1A6 PUSH2 0x704 JUMP JUMPDEST STOP JUMPDEST PUSH2 0x1B0 PUSH2 0x718 JUMP JUMPDEST PUSH1 0x40 MLOAD PUSH2 0x1BD SWAP2 SWAP1 PUSH2 0x1D55 JUMP JUMPDEST PUSH1 0x40 MLOAD DUP1 SWAP2 SUB SWAP1 RETURN JUMPDEST PUSH2 0x1E0 PUSH1 0x4 DUP1 CALLDATASIZE SUB DUP2 ADD SWAP1 PUSH2 0x1DB SWAP2 SWAP1 PUSH2 0x1B9F JUMP JUMPDEST PUSH2 0x741 JUMP JUMPDEST PUSH1 0x40 MLOAD PUSH2 0x1EF SWAP4 SWAP3 SWAP2 SWAP1 PUSH2 0x1D8B JUMP JUMPDEST PUSH1 0x40 MLOAD DUP1 SWAP2 SUB SWAP1 RETURN JUMPDEST PUSH2 0x200 PUSH2 0x785 JUMP JUMPDEST PUSH1 0x40 MLOAD PUSH2 0x20D SWAP2 SWAP1 PUSH2 0x1DFF JUMP JUMPDEST PUSH1 0x40 MLOAD DUP1 SWAP2 SUB SWAP1 RETURN JUMPDEST PUSH2 0x230 PUSH1 0x4 DUP1 CALLDATASIZE SUB DUP2 ADD SWAP1 PUSH2 0x22B SWAP2 SWAP1 PUSH2 0x1B9F JUMP JUMPDEST PUSH2 0x865 JUMP JUMPDEST PUSH1 0x40 MLOAD PUSH2 0x23D SWAP2 SWAP1 PUSH2 0x1E21 JUMP JUMPDEST PUSH1 0x40 MLOAD DUP1 SWAP2 SUB SWAP1 RETURN JUMPDEST PUSH2 0x260 PUSH1 0x4 DUP1 CALLDATASIZE SUB DUP2 ADD SWAP1 PUSH2 0x25B SWAP2 SWAP1 PUSH2 0x1F0B JUMP JUMPDEST PUSH2 0x9F5 JUMP JUMPDEST STOP JUMPDEST PUSH2 0x27C PUSH1 0x4 DUP1 CALLDATASIZE SUB DUP2 ADD SWAP1 PUSH2 0x277 SWAP2 SWAP1 PUSH2 0x1B9F JUMP JUMPDEST PUSH2 0xB66 JUMP JUMPDEST STOP JUMPDEST PUSH2 0x298 PUSH1 0x4 DUP1 CALLDATASIZE SUB DUP2 ADD SWAP1 PUSH2 0x293 SWAP2 SWAP1 PUSH2 0x1835 JUMP JUMPDEST PUSH2 0xBE9 JUMP JUMPDEST STOP JUMPDEST PUSH1 0x2 DUP2 DUP2 SLOAD DUP2 LT PUSH2 0x2AA JUMPI PUSH1 0x0 DUP1 REVERT JUMPDEST SWAP1 PUSH1 0x0 MSTORE PUSH1 0x20 PUSH1 0x0 KECCAK256 SWAP1 PUSH1 0x2 MUL ADD PUSH1 0x0 SWAP2 POP SWAP1 POP DUP1 PUSH1 0x0 ADD DUP1 SLOAD PUSH2 0x2CD SWAP1 PUSH2 0x1F83 JUMP JUMPDEST DUP1 PUSH1 0x1F ADD PUSH1 0x20 DUP1 SWAP2 DIV MUL PUSH1 0x20 ADD PUSH1 0x40 MLOAD SWAP1 DUP2 ADD PUSH1 0x40 MSTORE DUP1 SWAP3 SWAP2 SWAP1 DUP2 DUP2 MSTORE PUSH1 0x20 ADD DUP3 DUP1 SLOAD PUSH2 0x2F9 SWAP1 PUSH2 0x1F83 JUMP JUMPDEST DUP1 ISZERO PUSH2 0x346 JUMPI DUP1 PUSH1 0x1F LT PUSH2 0x31B JUMPI PUSH2 0x100 DUP1 DUP4 SLOAD DIV MUL DUP4 MSTORE SWAP2 PUSH1 0x20 ADD SWAP2 PUSH2 0x346 JUMP JUMPDEST DUP3 ADD SWAP2 SWAP1 PUSH1 0x0 MSTORE PUSH1 0x20 PUSH1 0x0 KECCAK256 SWAP1 JUMPDEST DUP2 SLOAD DUP2 MSTORE SWAP1 PUSH1 0x1 ADD SWAP1 PUSH1 0x20 ADD DUP1 DUP4 GT PUSH2 0x329 JUMPI DUP3 SWAP1 SUB PUSH1 0x1F AND DUP3 ADD SWAP2 JUMPDEST POP POP POP POP POP SWAP1 DUP1 PUSH1 0x1 ADD SLOAD SWAP1 POP DUP3 JUMP JUMPDEST PUSH1 0x3 PUSH1 0x0 SWAP1 SLOAD SWAP1 PUSH2 0x100 EXP SWAP1 DIV PUSH1 0xFF AND DUP2 JUMP JUMPDEST PUSH2 0x371 PUSH2 0xDE8 JUMP JUMPDEST PUSH2 0x379 PUSH2 0xE80 JUMP JUMPDEST PUSH1 0x2 PUSH1 0x40 MLOAD DUP1 PUSH1 0x40 ADD PUSH1 0x40 MSTORE DUP1 DUP4 DUP2 MSTORE PUSH1 0x20 ADD PUSH1 0x0 DUP2 MSTORE POP SWAP1 DUP1 PUSH1 0x1 DUP2 SLOAD ADD DUP1 DUP3 SSTORE DUP1 SWAP2 POP POP PUSH1 0x1 SWAP1 SUB SWAP1 PUSH1 0x0 MSTORE PUSH1 0x20 PUSH1 0x0 KECCAK256 SWAP1 PUSH1 0x2 MUL ADD PUSH1 0x0 SWAP1 SWAP2 SWAP1 SWAP2 SWAP1 SWAP2 POP PUSH1 0x0 DUP3 ADD MLOAD DUP2 PUSH1 0x0 ADD SWAP1 DUP2 PUSH2 0x3CF SWAP2 SWAP1 PUSH2 0x2160 JUMP JUMPDEST POP PUSH1 0x20 DUP3 ADD MLOAD DUP2 PUSH1 0x1 ADD SSTORE POP POP PUSH32 0x92E393E9B54E2F801D3EA4BEB0C5E71A21CC34A5D34B77D0FB8A3AA1650DC18F PUSH1 0x1 PUSH1 0x2 DUP1 SLOAD SWAP1 POP PUSH2 0x40F SWAP2 SWAP1 PUSH2 0x2261 JUMP JUMPDEST PUSH1 0x40 MLOAD PUSH2 0x41C SWAP2 SWAP1 PUSH2 0x2295 JUMP JUMPDEST PUSH1 0x40 MLOAD DUP1 SWAP2 SUB SWAP1 LOG1 POP JUMP JUMPDEST PUSH2 0x42F PUSH2 0xEF8 JUMP JUMPDEST PUSH2 0x437 PUSH2 0xF76 JUMP JUMPDEST PUSH1 0x0 ISZERO ISZERO PUSH1 0x1 PUSH1 0x0 DUP4 PUSH20 0xFFFFFFFFFFFFFFFFFFFFFFFFFFFFFFFFFFFFFFFF AND PUSH20 0xFFFFFFFFFFFFFFFFFFFFFFFFFFFFFFFFFFFFFFFF AND DUP2 MSTORE PUSH1 0x20 ADD SWAP1 DUP2 MSTORE PUSH1 0x20 ADD PUSH1 0x0 KECCAK256 PUSH1 0x0 ADD PUSH1 0x0 SWAP1 SLOAD SWAP1 PUSH2 0x100 EXP SWAP1 DIV PUSH1 0xFF AND ISZERO ISZERO EQ PUSH2 0x4CD JUMPI PUSH1 0x40 MLOAD PUSH32 0x8C379A000000000000000000000000000000000000000000000000000000000 DUP2 MSTORE PUSH1 0x4 ADD PUSH2 0x4C4 SWAP1 PUSH2 0x22FC JUMP JUMPDEST PUSH1 0x40 MLOAD DUP1 SWAP2 SUB SWAP1 REVERT JUMPDEST PUSH1 0x1 DUP1 PUSH1 0x0 DUP4 PUSH20 0xFFFFFFFFFFFFFFFFFFFFFFFFFFFFFFFFFFFFFFFF AND PUSH20 0xFFFFFFFFFFFFFFFFFFFFFFFFFFFFFFFFFFFFFFFF AND DUP2 MSTORE PUSH1 0x20 ADD SWAP1 DUP2 MSTORE PUSH1 0x20 ADD PUSH1 0x0 KECCAK256 PUSH1 0x0 ADD PUSH1 0x0 PUSH2 0x100 EXP DUP2 SLOAD DUP2 PUSH1 0xFF MUL NOT AND SWAP1 DUP4 ISZERO ISZERO MUL OR SWAP1 SSTORE POP PUSH32 0xB6BE2187D059CC2A55FE29E0E503B566E1E0F8C8780096E185429350ACFFD3DD DUP2 PUSH1 0x40 MLOAD PUSH2 0x556 SWAP2 SWAP1 PUSH2 0x1D55 JUMP JUMPDEST PUSH1 0x40 MLOAD DUP1 SWAP2 SUB SWAP1 LOG1 POP JUMP JUMPDEST PUSH1 0x60 PUSH1 0x2 DUP1 SLOAD DUP1 PUSH1 0x20 MUL PUSH1 0x20 ADD PUSH1 0x40 MLOAD SWAP1 DUP2 ADD PUSH1 0x40 MSTORE DUP1 SWAP3 SWAP2 SWAP1 DUP2 DUP2 MSTORE PUSH1 0x20 ADD PUSH1 0x0 SWAP1 JUMPDEST DUP3 DUP3 LT ISZERO PUSH2 0x653 JUMPI DUP4 DUP3 SWAP1 PUSH1 0x0 MSTORE PUSH1 0x20 PUSH1 0x0 KECCAK256 SWAP1 PUSH1 0x2 MUL ADD PUSH1 0x40 MLOAD DUP1 PUSH1 0x40 ADD PUSH1 0x40 MSTORE SWAP1 DUP2 PUSH1 0x0 DUP3 ADD DUP1 SLOAD PUSH2 0x5B8 SWAP1 PUSH2 0x1F83 JUMP JUMPDEST DUP1 PUSH1 0x1F ADD PUSH1 0x20 DUP1 SWAP2 DIV MUL PUSH1 0x20 ADD PUSH1 0x40 MLOAD SWAP1 DUP2 ADD PUSH1 0x40 MSTORE DUP1 SWAP3 SWAP2 SWAP1 DUP2 DUP2 MSTORE PUSH1 0x20 ADD DUP3 DUP1 SLOAD PUSH2 0x5E4 SWAP1 PUSH2 0x1F83 JUMP JUMPDEST DUP1 ISZERO PUSH2 0x631 JUMPI DUP1 PUSH1 0x1F LT PUSH2 0x606 JUMPI PUSH2 0x100 DUP1 DUP4 SLOAD DIV MUL DUP4 MSTORE SWAP2 PUSH1 0x20 ADD SWAP2 PUSH2 0x631 JUMP JUMPDEST DUP3 ADD SWAP2 SWAP1 PUSH1 0x0 MSTORE PUSH1 0x20 PUSH1 0x0 KECCAK256 SWAP1 JUMPDEST DUP2 SLOAD DUP2 MSTORE SWAP1 PUSH1 0x1 ADD SWAP1 PUSH1 0x20 ADD DUP1 DUP4 GT PUSH2 0x614 JUMPI DUP3 SWAP1 SUB PUSH1 0x1F AND DUP3 ADD SWAP2 JUMPDEST POP POP POP POP POP DUP2 MSTORE PUSH1 0x20 ADD PUSH1 0x1 DUP3 ADD SLOAD DUP2 MSTORE POP POP DUP2 MSTORE PUSH1 0x20 ADD SWAP1 PUSH1 0x1 ADD SWAP1 PUSH2 0x585 JUMP JUMPDEST POP POP POP POP SWAP1 POP SWAP1 JUMP JUMPDEST PUSH2 0x664 PUSH2 0xEF8 JUMP JUMPDEST PUSH2 0x66C PUSH2 0xFEE JUMP JUMPDEST PUSH1 0x0 DUP1 DUP1 PUSH1 0x0 SWAP1 POP JUMPDEST PUSH1 0x2 DUP1 SLOAD SWAP1 POP DUP2 LT ISZERO PUSH2 0x6EE JUMPI DUP3 PUSH1 0x2 DUP3 DUP2 SLOAD DUP2 LT PUSH2 0x697 JUMPI PUSH2 0x696 PUSH2 0x231C JUMP JUMPDEST JUMPDEST SWAP1 PUSH1 0x0 MSTORE PUSH1 0x20 PUSH1 0x0 KECCAK256 SWAP1 PUSH1 0x2 MUL ADD PUSH1 0x1 ADD SLOAD GT ISZERO PUSH2 0x6DB JUMPI PUSH1 0x2 DUP2 DUP2 SLOAD DUP2 LT PUSH2 0x6C3 JUMPI PUSH2 0x6C2 PUSH2 0x231C JUMP JUMPDEST JUMPDEST SWAP1 PUSH1 0x0 MSTORE PUSH1 0x20 PUSH1 0x0 KECCAK256 SWAP1 PUSH1 0x2 MUL ADD PUSH1 0x1 ADD SLOAD SWAP3 POP DUP1 SWAP2 POP JUMPDEST DUP1 DUP1 PUSH2 0x6E6 SWAP1 PUSH2 0x234B JUMP JUMPDEST SWAP2 POP POP PUSH2 0x675 JUMP JUMPDEST POP DUP1 PUSH1 0x4 DUP2 SWAP1 SSTORE POP PUSH2 0x700 PUSH1 0x5 PUSH2 0x1066 JUMP JUMPDEST POP POP JUMP JUMPDEST PUSH2 0x70C PUSH2 0xEF8 JUMP JUMPDEST PUSH2 0x716 PUSH1 0x0 PUSH2 0x10F4 JUMP JUMPDEST JUMP JUMPDEST PUSH1 0x0 DUP1 PUSH1 0x0 SWAP1 SLOAD SWAP1 PUSH2 0x100 EXP SWAP1 DIV PUSH20 0xFFFFFFFFFFFFFFFFFFFFFFFFFFFFFFFFFFFFFFFF AND SWAP1 POP SWAP1 JUMP JUMPDEST PUSH1 0x1 PUSH1 0x20 MSTORE DUP1 PUSH1 0x0 MSTORE PUSH1 0x40 PUSH1 0x0 KECCAK256 PUSH1 0x0 SWAP2 POP SWAP1 POP DUP1 PUSH1 0x0 ADD PUSH1 0x0 SWAP1 SLOAD SWAP1 PUSH2 0x100 EXP SWAP1 DIV PUSH1 0xFF AND SWAP1 DUP1 PUSH1 0x0 ADD PUSH1 0x1 SWAP1 SLOAD SWAP1 PUSH2 0x100 EXP SWAP1 DIV PUSH1 0xFF AND SWAP1 DUP1 PUSH1 0x1 ADD SLOAD SWAP1 POP DUP4 JUMP JUMPDEST PUSH2 0x78D PUSH2 0x17D1 JUMP JUMPDEST PUSH2 0x795 PUSH2 0x11B8 JUMP JUMPDEST PUSH1 0x2 PUSH1 0x4 SLOAD DUP2 SLOAD DUP2 LT PUSH2 0x7AB JUMPI PUSH2 0x7AA PUSH2 0x231C JUMP JUMPDEST JUMPDEST SWAP1 PUSH1 0x0 MSTORE PUSH1 0x20 PUSH1 0x0 KECCAK256 SWAP1 PUSH1 0x2 MUL ADD PUSH1 0x40 MLOAD DUP1 PUSH1 0x40 ADD PUSH1 0x40 MSTORE SWAP1 DUP2 PUSH1 0x0 DUP3 ADD DUP1 SLOAD PUSH2 0x7D4 SWAP1 PUSH2 0x1F83 JUMP JUMPDEST DUP1 PUSH1 0x1F ADD PUSH1 0x20 DUP1 SWAP2 DIV MUL PUSH1 0x20 ADD PUSH1 0x40 MLOAD SWAP1 DUP2 ADD PUSH1 0x40 MSTORE DUP1 SWAP3 SWAP2 SWAP1 DUP2 DUP2 MSTORE PUSH1 0x20 ADD DUP3 DUP1 SLOAD PUSH2 0x800 SWAP1 PUSH2 0x1F83 JUMP JUMPDEST DUP1 ISZERO PUSH2 0x84D JUMPI DUP1 PUSH1 0x1F LT PUSH2 0x822 JUMPI PUSH2 0x100 DUP1 DUP4 SLOAD DIV MUL DUP4 MSTORE SWAP2 PUSH1 0x20 ADD SWAP2 PUSH2 0x84D JUMP JUMPDEST DUP3 ADD SWAP2 SWAP1 PUSH1 0x0 MSTORE PUSH1 0x20 PUSH1 0x0 KECCAK256 SWAP1 JUMPDEST DUP2 SLOAD DUP2 MSTORE SWAP1 PUSH1 0x1 ADD SWAP1 PUSH1 0x20 ADD DUP1 DUP4 GT PUSH2 0x830 JUMPI DUP3 SWAP1 SUB PUSH1 0x1F AND DUP3 ADD SWAP2 JUMPDEST POP POP POP POP POP DUP2 MSTORE PUSH1 0x20 ADD PUSH1 0x1 DUP3 ADD SLOAD DUP2 MSTORE POP POP SWAP1 POP SWAP1 JUMP JUMPDEST PUSH1 0x60 PUSH2 0x86F PUSH2 0xFEE JUMP JUMPDEST PUSH1 0x1 PUSH1 0x0 DUP4 PUSH20 0xFFFFFFFFFFFFFFFFFFFFFFFFFFFFFFFFFFFFFFFF AND PUSH20 0xFFFFFFFFFFFFFFFFFFFFFFFFFFFFFFFFFFFFFFFF AND DUP2 MSTORE PUSH1 0x20 ADD SWAP1 DUP2 MSTORE PUSH1 0x20 ADD PUSH1 0x0 KECCAK256 PUSH1 0x0 ADD PUSH1 0x1 SWAP1 SLOAD SWAP1 PUSH2 0x100 EXP SWAP1 DIV PUSH1 0xFF AND PUSH2 0x8FE JUMPI PUSH1 0x40 MLOAD PUSH32 0x8C379A000000000000000000000000000000000000000000000000000000000 DUP2 MSTORE PUSH1 0x4 ADD PUSH2 0x8F5 SWAP1 PUSH2 0x23DF JUMP JUMPDEST PUSH1 0x40 MLOAD DUP1 SWAP2 SUB SWAP1 REVERT JUMPDEST PUSH1 0x2 PUSH1 0x1 PUSH1 0x0 DUP5 PUSH20 0xFFFFFFFFFFFFFFFFFFFFFFFFFFFFFFFFFFFFFFFF AND PUSH20 0xFFFFFFFFFFFFFFFFFFFFFFFFFFFFFFFFFFFFFFFF AND DUP2 MSTORE PUSH1 0x20 ADD SWAP1 DUP2 MSTORE PUSH1 0x20 ADD PUSH1 0x0 KECCAK256 PUSH1 0x1 ADD SLOAD DUP2 SLOAD DUP2 LT PUSH2 0x954 JUMPI PUSH2 0x953 PUSH2 0x231C JUMP JUMPDEST JUMPDEST SWAP1 PUSH1 0x0 MSTORE PUSH1 0x20 PUSH1 0x0 KECCAK256 SWAP1 PUSH1 0x2 MUL ADD PUSH1 0x0 ADD DUP1 SLOAD PUSH2 0x970 SWAP1 PUSH2 0x1F83 JUMP JUMPDEST DUP1 PUSH1 0x1F ADD PUSH1 0x20 DUP1 SWAP2 DIV MUL PUSH1 0x20 ADD PUSH1 0x40 MLOAD SWAP1 DUP2 ADD PUSH1 0x40 MSTORE DUP1 SWAP3 SWAP2 SWAP1 DUP2 DUP2 MSTORE PUSH1 0x20 ADD DUP3 DUP1 SLOAD PUSH2 0x99C SWAP1 PUSH2 0x1F83 JUMP JUMPDEST DUP1 ISZERO PUSH2 0x9E9 JUMPI DUP1 PUSH1 0x1F LT PUSH2 0x9BE JUMPI PUSH2 0x100 DUP1 DUP4 SLOAD DIV MUL DUP4 MSTORE SWAP2 PUSH1 0x20 ADD SWAP2 PUSH2 0x9E9 JUMP JUMPDEST DUP3 ADD SWAP2 SWAP1 PUSH1 0x0 MSTORE PUSH1 0x20 PUSH1 0x0 KECCAK256 SWAP1 JUMPDEST DUP2 SLOAD DUP2 MSTORE SWAP1 PUSH1 0x1 ADD SWAP1 PUSH1 0x20 ADD DUP1 DUP4 GT PUSH2 0x9CC JUMPI DUP3 SWAP1 SUB PUSH1 0x1F AND DUP3 ADD SWAP2 JUMPDEST POP POP POP POP POP SWAP1 POP SWAP2 SWAP1 POP JUMP JUMPDEST PUSH2 0x9FD PUSH2 0xEF8 JUMP JUMPDEST PUSH2 0xA05 PUSH2 0xF76 JUMP JUMPDEST PUSH1 0x0 JUMPDEST DUP2 MLOAD DUP2 LT ISZERO PUSH2 0xB62 JUMPI PUSH1 0x1 DUP1 PUSH1 0x0 DUP5 DUP5 DUP2 MLOAD DUP2 LT PUSH2 0xA29 JUMPI PUSH2 0xA28 PUSH2 0x231C JUMP JUMPDEST JUMPDEST PUSH1 0x20 MUL PUSH1 0x20 ADD ADD MLOAD PUSH20 0xFFFFFFFFFFFFFFFFFFFFFFFFFFFFFFFFFFFFFFFF AND PUSH20 0xFFFFFFFFFFFFFFFFFFFFFFFFFFFFFFFFFFFFFFFF AND DUP2 MSTORE PUSH1 0x20 ADD SWAP1 DUP2 MSTORE PUSH1 0x20 ADD PUSH1 0x0 KECCAK256 PUSH1 0x0 ADD PUSH1 0x0 PUSH2 0x100 EXP DUP2 SLOAD DUP2 PUSH1 0xFF MUL NOT AND SWAP1 DUP4 ISZERO ISZERO MUL OR SWAP1 SSTORE ISZERO PUSH2 0xB4F JUMPI PUSH1 0x1 DUP1 PUSH1 0x0 DUP5 DUP5 DUP2 MLOAD DUP2 LT PUSH2 0xAA1 JUMPI PUSH2 0xAA0 PUSH2 0x231C JUMP JUMPDEST JUMPDEST PUSH1 0x20 MUL PUSH1 0x20 ADD ADD MLOAD PUSH20 0xFFFFFFFFFFFFFFFFFFFFFFFFFFFFFFFFFFFFFFFF AND PUSH20 0xFFFFFFFFFFFFFFFFFFFFFFFFFFFFFFFFFFFFFFFF AND DUP2 MSTORE PUSH1 0x20 ADD SWAP1 DUP2 MSTORE PUSH1 0x20 ADD PUSH1 0x0 KECCAK256 PUSH1 0x0 ADD PUSH1 0x0 PUSH2 0x100 EXP DUP2 SLOAD DUP2 PUSH1 0xFF MUL NOT AND SWAP1 DUP4 ISZERO ISZERO MUL OR SWAP1 SSTORE POP PUSH32 0xB6BE2187D059CC2A55FE29E0E503B566E1E0F8C8780096E185429350ACFFD3DD DUP3 DUP3 DUP2 MLOAD DUP2 LT PUSH2 0xB31 JUMPI PUSH2 0xB30 PUSH2 0x231C JUMP JUMPDEST JUMPDEST PUSH1 0x20 MUL PUSH1 0x20 ADD ADD MLOAD PUSH1 0x40 MLOAD PUSH2 0xB46 SWAP2 SWAP1 PUSH2 0x1D55 JUMP JUMPDEST PUSH1 0x40 MLOAD DUP1 SWAP2 SUB SWAP1 LOG1 JUMPDEST DUP1 DUP1 PUSH2 0xB5A SWAP1 PUSH2 0x234B JUMP JUMPDEST SWAP2 POP POP PUSH2 0xA08 JUMP JUMPDEST POP POP JUMP JUMPDEST PUSH2 0xB6E PUSH2 0xEF8 JUMP JUMPDEST PUSH1 0x0 PUSH20 0xFFFFFFFFFFFFFFFFFFFFFFFFFFFFFFFFFFFFFFFF AND DUP2 PUSH20 0xFFFFFFFFFFFFFFFFFFFFFFFFFFFFFFFFFFFFFFFF AND SUB PUSH2 0xBDD JUMPI PUSH1 0x40 MLOAD PUSH32 0x8C379A000000000000000000000000000000000000000000000000000000000 DUP2 MSTORE PUSH1 0x4 ADD PUSH2 0xBD4 SWAP1 PUSH2 0x2471 JUMP JUMPDEST PUSH1 0x40 MLOAD DUP1 SWAP2 SUB SWAP1 REVERT JUMPDEST PUSH2 0xBE6 DUP2 PUSH2 0x10F4 JUMP JUMPDEST POP JUMP JUMPDEST PUSH2 0xBF1 PUSH2 0x122F JUMP JUMPDEST PUSH2 0xBF9 PUSH2 0xDE8 JUMP JUMPDEST PUSH1 0x1 PUSH1 0x0 CALLER PUSH20 0xFFFFFFFFFFFFFFFFFFFFFFFFFFFFFFFFFFFFFFFF AND PUSH20 0xFFFFFFFFFFFFFFFFFFFFFFFFFFFFFFFFFFFFFFFF AND DUP2 MSTORE PUSH1 0x20 ADD SWAP1 DUP2 MSTORE PUSH1 0x20 ADD PUSH1 0x0 KECCAK256 PUSH1 0x0 ADD PUSH1 0x1 SWAP1 SLOAD SWAP1 PUSH2 0x100 EXP SWAP1 DIV PUSH1 0xFF AND ISZERO PUSH2 0xC89 JUMPI PUSH1 0x40 MLOAD PUSH32 0x8C379A000000000000000000000000000000000000000000000000000000000 DUP2 MSTORE PUSH1 0x4 ADD PUSH2 0xC80 SWAP1 PUSH2 0x2503 JUMP JUMPDEST PUSH1 0x40 MLOAD DUP1 SWAP2 SUB SWAP1 REVERT JUMPDEST PUSH1 0x2 DUP1 SLOAD SWAP1 POP DUP2 LT PUSH2 0xCD0 JUMPI PUSH1 0x40 MLOAD PUSH32 0x8C379A000000000000000000000000000000000000000000000000000000000 DUP2 MSTORE PUSH1 0x4 ADD PUSH2 0xCC7 SWAP1 PUSH2 0x2595 JUMP JUMPDEST PUSH1 0x40 MLOAD DUP1 SWAP2 SUB SWAP1 REVERT JUMPDEST PUSH1 0x2 DUP2 DUP2 SLOAD DUP2 LT PUSH2 0xCE4 JUMPI PUSH2 0xCE3 PUSH2 0x231C JUMP JUMPDEST JUMPDEST SWAP1 PUSH1 0x0 MSTORE PUSH1 0x20 PUSH1 0x0 KECCAK256 SWAP1 PUSH1 0x2 MUL ADD PUSH1 0x1 ADD PUSH1 0x0 DUP2 SLOAD DUP1 SWAP3 SWAP2 SWAP1 PUSH2 0xD06 SWAP1 PUSH2 0x234B JUMP JUMPDEST SWAP2 SWAP1 POP SSTORE POP DUP1 PUSH1 0x1 PUSH1 0x0 CALLER PUSH20 0xFFFFFFFFFFFFFFFFFFFFFFFFFFFFFFFFFFFFFFFF AND PUSH20 0xFFFFFFFFFFFFFFFFFFFFFFFFFFFFFFFFFFFFFFFF AND DUP2 MSTORE PUSH1 0x20 ADD SWAP1 DUP2 MSTORE PUSH1 0x20 ADD PUSH1 0x0 KECCAK256 PUSH1 0x1 ADD DUP2 SWAP1 SSTORE POP PUSH1 0x1 DUP1 PUSH1 0x0 CALLER PUSH20 0xFFFFFFFFFFFFFFFFFFFFFFFFFFFFFFFFFFFFFFFF AND PUSH20 0xFFFFFFFFFFFFFFFFFFFFFFFFFFFFFFFFFFFFFFFF AND DUP2 MSTORE PUSH1 0x20 ADD SWAP1 DUP2 MSTORE PUSH1 0x20 ADD PUSH1 0x0 KECCAK256 PUSH1 0x0 ADD PUSH1 0x1 PUSH2 0x100 EXP DUP2 SLOAD DUP2 PUSH1 0xFF MUL NOT AND SWAP1 DUP4 ISZERO ISZERO MUL OR SWAP1 SSTORE POP PUSH32 0x4D99B957A2BC29A30EBD96A7BE8E68FE50A3C701DB28A91436490B7D53870CA4 CALLER DUP3 PUSH1 0x40 MLOAD PUSH2 0xDDD SWAP3 SWAP2 SWAP1 PUSH2 0x25B5 JUMP JUMPDEST PUSH1 0x40 MLOAD DUP1 SWAP2 SUB SWAP1 LOG1 POP JUMP JUMPDEST PUSH1 0x1 ISZERO ISZERO PUSH1 0x1 PUSH1 0x0 CALLER PUSH20 0xFFFFFFFFFFFFFFFFFFFFFFFFFFFFFFFFFFFFFFFF AND PUSH20 0xFFFFFFFFFFFFFFFFFFFFFFFFFFFFFFFFFFFFFFFF AND DUP2 MSTORE PUSH1 0x20 ADD SWAP1 DUP2 MSTORE PUSH1 0x20 ADD PUSH1 0x0 KECCAK256 PUSH1 0x0 ADD PUSH1 0x0 SWAP1 SLOAD SWAP1 PUSH2 0x100 EXP SWAP1 DIV PUSH1 0xFF AND ISZERO ISZERO EQ PUSH2 0xE7E JUMPI PUSH1 0x40 MLOAD PUSH32 0x8C379A000000000000000000000000000000000000000000000000000000000 DUP2 MSTORE PUSH1 0x4 ADD PUSH2 0xE75 SWAP1 PUSH2 0x2650 JUMP JUMPDEST PUSH1 0x40 MLOAD DUP1 SWAP2 SUB SWAP1 REVERT JUMPDEST JUMP JUMPDEST PUSH1 0x1 PUSH1 0x5 DUP2 GT ISZERO PUSH2 0xE94 JUMPI PUSH2 0xE93 PUSH2 0x1931 JUMP JUMPDEST JUMPDEST PUSH1 0x3 PUSH1 0x0 SWAP1 SLOAD SWAP1 PUSH2 0x100 EXP SWAP1 DIV PUSH1 0xFF AND PUSH1 0x5 DUP2 GT ISZERO PUSH2 0xEB6 JUMPI PUSH2 0xEB5 PUSH2 0x1931 JUMP JUMPDEST JUMPDEST EQ PUSH2 0xEF6 JUMPI PUSH1 0x40 MLOAD PUSH32 0x8C379A000000000000000000000000000000000000000000000000000000000 DUP2 MSTORE PUSH1 0x4 ADD PUSH2 0xEED SWAP1 PUSH2 0x26BC JUMP JUMPDEST PUSH1 0x40 MLOAD DUP1 SWAP2 SUB SWAP1 REVERT JUMPDEST JUMP JUMPDEST PUSH2 0xF00 PUSH2 0x12A7 JUMP JUMPDEST PUSH20 0xFFFFFFFFFFFFFFFFFFFFFFFFFFFFFFFFFFFFFFFF AND PUSH2 0xF1E PUSH2 0x718 JUMP JUMPDEST PUSH20 0xFFFFFFFFFFFFFFFFFFFFFFFFFFFFFFFFFFFFFFFF AND EQ PUSH2 0xF74 JUMPI PUSH1 0x40 MLOAD PUSH32 0x8C379A000000000000000000000000000000000000000000000000000000000 DUP2 MSTORE PUSH1 0x4 ADD PUSH2 0xF6B SWAP1 PUSH2 0x2728 JUMP JUMPDEST PUSH1 0x40 MLOAD DUP1 SWAP2 SUB SWAP1 REVERT JUMPDEST JUMP JUMPDEST PUSH1 0x0 PUSH1 0x5 DUP2 GT ISZERO PUSH2 0xF8A JUMPI PUSH2 0xF89 PUSH2 0x1931 JUMP JUMPDEST JUMPDEST PUSH1 0x3 PUSH1 0x0 SWAP1 SLOAD SWAP1 PUSH2 0x100 EXP SWAP1 DIV PUSH1 0xFF AND PUSH1 0x5 DUP2 GT ISZERO PUSH2 0xFAC JUMPI PUSH2 0xFAB PUSH2 0x1931 JUMP JUMPDEST JUMPDEST EQ PUSH2 0xFEC JUMPI PUSH1 0x40 MLOAD PUSH32 0x8C379A000000000000000000000000000000000000000000000000000000000 DUP2 MSTORE PUSH1 0x4 ADD PUSH2 0xFE3 SWAP1 PUSH2 0x27BA JUMP JUMPDEST PUSH1 0x40 MLOAD DUP1 SWAP2 SUB SWAP1 REVERT JUMPDEST JUMP JUMPDEST PUSH1 0x4 PUSH1 0x5 DUP2 GT ISZERO PUSH2 0x1002 JUMPI PUSH2 0x1001 PUSH2 0x1931 JUMP JUMPDEST JUMPDEST PUSH1 0x3 PUSH1 0x0 SWAP1 SLOAD SWAP1 PUSH2 0x100 EXP SWAP1 DIV PUSH1 0xFF AND PUSH1 0x5 DUP2 GT ISZERO PUSH2 0x1024 JUMPI PUSH2 0x1023 PUSH2 0x1931 JUMP JUMPDEST JUMPDEST EQ PUSH2 0x1064 JUMPI PUSH1 0x40 MLOAD PUSH32 0x8C379A000000000000000000000000000000000000000000000000000000000 DUP2 MSTORE PUSH1 0x4 ADD PUSH2 0x105B SWAP1 PUSH2 0x284C JUMP JUMPDEST PUSH1 0x40 MLOAD DUP1 SWAP2 SUB SWAP1 REVERT JUMPDEST JUMP JUMPDEST PUSH2 0x106E PUSH2 0xEF8 JUMP JUMPDEST DUP1 PUSH2 0x1078 DUP2 PUSH2 0x12AF JUMP JUMPDEST PUSH1 0x0 PUSH1 0x3 PUSH1 0x0 SWAP1 SLOAD SWAP1 PUSH2 0x100 EXP SWAP1 DIV PUSH1 0xFF AND SWAP1 POP DUP3 PUSH1 0x3 PUSH1 0x0 PUSH2 0x100 EXP DUP2 SLOAD DUP2 PUSH1 0xFF MUL NOT AND SWAP1 DUP4 PUSH1 0x5 DUP2 GT ISZERO PUSH2 0x10B1 JUMPI PUSH2 0x10B0 PUSH2 0x1931 JUMP JUMPDEST JUMPDEST MUL OR SWAP1 SSTORE POP PUSH32 0xA97A4EE45751E2ABF3E4FC8946939630B11B371EA8AE39CCDC3056E98F5CC3F DUP2 DUP5 PUSH1 0x40 MLOAD PUSH2 0x10E7 SWAP3 SWAP2 SWAP1 PUSH2 0x286C JUMP JUMPDEST PUSH1 0x40 MLOAD DUP1 SWAP2 SUB SWAP1 LOG1 POP POP POP JUMP JUMPDEST PUSH1 0x0 DUP1 PUSH1 0x0 SWAP1 SLOAD SWAP1 PUSH2 0x100 EXP SWAP1 DIV PUSH20 0xFFFFFFFFFFFFFFFFFFFFFFFFFFFFFFFFFFFFFFFF AND SWAP1 POP DUP2 PUSH1 0x0 DUP1 PUSH2 0x100 EXP DUP2 SLOAD DUP2 PUSH20 0xFFFFFFFFFFFFFFFFFFFFFFFFFFFFFFFFFFFFFFFF MUL NOT AND SWAP1 DUP4 PUSH20 0xFFFFFFFFFFFFFFFFFFFFFFFFFFFFFFFFFFFFFFFF AND MUL OR SWAP1 SSTORE POP DUP2 PUSH20 0xFFFFFFFFFFFFFFFFFFFFFFFFFFFFFFFFFFFFFFFF AND DUP2 PUSH20 0xFFFFFFFFFFFFFFFFFFFFFFFFFFFFFFFFFFFFFFFF AND PUSH32 0x8BE0079C531659141344CD1FD0A4F28419497F9722A3DAAFE3B4186F6B6457E0 PUSH1 0x40 MLOAD PUSH1 0x40 MLOAD DUP1 SWAP2 SUB SWAP1 LOG3 POP POP JUMP JUMPDEST PUSH1 0x5 DUP1 DUP2 GT ISZERO PUSH2 0x11CB JUMPI PUSH2 0x11CA PUSH2 0x1931 JUMP JUMPDEST JUMPDEST PUSH1 0x3 PUSH1 0x0 SWAP1 SLOAD SWAP1 PUSH2 0x100 EXP SWAP1 DIV PUSH1 0xFF AND PUSH1 0x5 DUP2 GT ISZERO PUSH2 0x11ED JUMPI PUSH2 0x11EC PUSH2 0x1931 JUMP JUMPDEST JUMPDEST EQ PUSH2 0x122D JUMPI PUSH1 0x40 MLOAD PUSH32 0x8C379A000000000000000000000000000000000000000000000000000000000 DUP2 MSTORE PUSH1 0x4 ADD PUSH2 0x1224 SWAP1 PUSH2 0x28E1 JUMP JUMPDEST PUSH1 0x40 MLOAD DUP1 SWAP2 SUB SWAP1 REVERT JUMPDEST JUMP JUMPDEST PUSH1 0x3 PUSH1 0x5 DUP2 GT ISZERO PUSH2 0x1243 JUMPI PUSH2 0x1242 PUSH2 0x1931 JUMP JUMPDEST JUMPDEST PUSH1 0x3 PUSH1 0x0 SWAP1 SLOAD SWAP1 PUSH2 0x100 EXP SWAP1 DIV PUSH1 0xFF AND PUSH1 0x5 DUP2 GT ISZERO PUSH2 0x1265 JUMPI PUSH2 0x1264 PUSH2 0x1931 JUMP JUMPDEST JUMPDEST EQ PUSH2 0x12A5 JUMPI PUSH1 0x40 MLOAD PUSH32 0x8C379A000000000000000000000000000000000000000000000000000000000 DUP2 MSTORE PUSH1 0x4 ADD PUSH2 0x129C SWAP1 PUSH2 0x294D JUMP JUMPDEST PUSH1 0x40 MLOAD DUP1 SWAP2 SUB SWAP1 REVERT JUMPDEST JUMP JUMPDEST PUSH1 0x0 CALLER SWAP1 POP SWAP1 JUMP JUMPDEST PUSH1 0x0 PUSH1 0x5 DUP2 GT ISZERO PUSH2 0x12C3 JUMPI PUSH2 0x12C2 PUSH2 0x1931 JUMP JUMPDEST JUMPDEST DUP2 PUSH1 0x5 DUP2 GT ISZERO PUSH2 0x12D6 JUMPI PUSH2 0x12D5 PUSH2 0x1931 JUMP JUMPDEST JUMPDEST SUB PUSH2 0x1394 JUMPI PUSH1 0x0 PUSH1 0x5 DUP2 GT ISZERO PUSH2 0x12EF JUMPI PUSH2 0x12EE PUSH2 0x1931 JUMP JUMPDEST JUMPDEST PUSH1 0x3 PUSH1 0x0 SWAP1 SLOAD SWAP1 PUSH2 0x100 EXP SWAP1 DIV PUSH1 0xFF AND PUSH1 0x5 DUP2 GT ISZERO PUSH2 0x1311 JUMPI PUSH2 0x1310 PUSH2 0x1931 JUMP JUMPDEST JUMPDEST EQ DUP1 PUSH2 0x1350 JUMPI POP PUSH1 0x1 PUSH1 0x5 DUP2 GT ISZERO PUSH2 0x132C JUMPI PUSH2 0x132B PUSH2 0x1931 JUMP JUMPDEST JUMPDEST PUSH1 0x3 PUSH1 0x0 SWAP1 SLOAD SWAP1 PUSH2 0x100 EXP SWAP1 DIV PUSH1 0xFF AND PUSH1 0x5 DUP2 GT ISZERO PUSH2 0x134E JUMPI PUSH2 0x134D PUSH2 0x1931 JUMP JUMPDEST JUMPDEST EQ JUMPDEST PUSH2 0x138F JUMPI PUSH1 0x40 MLOAD PUSH32 0x8C379A000000000000000000000000000000000000000000000000000000000 DUP2 MSTORE PUSH1 0x4 ADD PUSH2 0x1386 SWAP1 PUSH2 0x2A05 JUMP JUMPDEST PUSH1 0x40 MLOAD DUP1 SWAP2 SUB SWAP1 REVERT JUMPDEST PUSH2 0x17CE JUMP JUMPDEST PUSH1 0x1 PUSH1 0x5 DUP2 GT ISZERO PUSH2 0x13A8 JUMPI PUSH2 0x13A7 PUSH2 0x1931 JUMP JUMPDEST JUMPDEST DUP2 PUSH1 0x5 DUP2 GT ISZERO PUSH2 0x13BB JUMPI PUSH2 0x13BA PUSH2 0x1931 JUMP JUMPDEST JUMPDEST SUB PUSH2 0x1479 JUMPI PUSH1 0x0 PUSH1 0x5 DUP2 GT ISZERO PUSH2 0x13D4 JUMPI PUSH2 0x13D3 PUSH2 0x1931 JUMP JUMPDEST JUMPDEST PUSH1 0x3 PUSH1 0x0 SWAP1 SLOAD SWAP1 PUSH2 0x100 EXP SWAP1 DIV PUSH1 0xFF AND PUSH1 0x5 DUP2 GT ISZERO PUSH2 0x13F6 JUMPI PUSH2 0x13F5 PUSH2 0x1931 JUMP JUMPDEST JUMPDEST EQ DUP1 PUSH2 0x1435 JUMPI POP PUSH1 0x2 PUSH1 0x5 DUP2 GT ISZERO PUSH2 0x1411 JUMPI PUSH2 0x1410 PUSH2 0x1931 JUMP JUMPDEST JUMPDEST PUSH1 0x3 PUSH1 0x0 SWAP1 SLOAD SWAP1 PUSH2 0x100 EXP SWAP1 DIV PUSH1 0xFF AND PUSH1 0x5 DUP2 GT ISZERO PUSH2 0x1433 JUMPI PUSH2 0x1432 PUSH2 0x1931 JUMP JUMPDEST JUMPDEST EQ JUMPDEST PUSH2 0x1474 JUMPI PUSH1 0x40 MLOAD PUSH32 0x8C379A000000000000000000000000000000000000000000000000000000000 DUP2 MSTORE PUSH1 0x4 ADD PUSH2 0x146B SWAP1 PUSH2 0x2A05 JUMP JUMPDEST PUSH1 0x40 MLOAD DUP1 SWAP2 SUB SWAP1 REVERT JUMPDEST PUSH2 0x17CD JUMP JUMPDEST PUSH1 0x2 PUSH1 0x5 DUP2 GT ISZERO PUSH2 0x148D JUMPI PUSH2 0x148C PUSH2 0x1931 JUMP JUMPDEST JUMPDEST DUP2 PUSH1 0x5 DUP2 GT ISZERO PUSH2 0x14A0 JUMPI PUSH2 0x149F PUSH2 0x1931 JUMP JUMPDEST JUMPDEST SUB PUSH2 0x155E JUMPI PUSH1 0x1 PUSH1 0x5 DUP2 GT ISZERO PUSH2 0x14B9 JUMPI PUSH2 0x14B8 PUSH2 0x1931 JUMP JUMPDEST JUMPDEST PUSH1 0x3 PUSH1 0x0 SWAP1 SLOAD SWAP1 PUSH2 0x100 EXP SWAP1 DIV PUSH1 0xFF AND PUSH1 0x5 DUP2 GT ISZERO PUSH2 0x14DB JUMPI PUSH2 0x14DA PUSH2 0x1931 JUMP JUMPDEST JUMPDEST EQ DUP1 PUSH2 0x151A JUMPI POP PUSH1 0x3 PUSH1 0x5 DUP2 GT ISZERO PUSH2 0x14F6 JUMPI PUSH2 0x14F5 PUSH2 0x1931 JUMP JUMPDEST JUMPDEST PUSH1 0x3 PUSH1 0x0 SWAP1 SLOAD SWAP1 PUSH2 0x100 EXP SWAP1 DIV PUSH1 0xFF AND PUSH1 0x5 DUP2 GT ISZERO PUSH2 0x1518 JUMPI PUSH2 0x1517 PUSH2 0x1931 JUMP JUMPDEST JUMPDEST EQ JUMPDEST PUSH2 0x1559 JUMPI PUSH1 0x40 MLOAD PUSH32 0x8C379A000000000000000000000000000000000000000000000000000000000 DUP2 MSTORE PUSH1 0x4 ADD PUSH2 0x1550 SWAP1 PUSH2 0x2A05 JUMP JUMPDEST PUSH1 0x40 MLOAD DUP1 SWAP2 SUB SWAP1 REVERT JUMPDEST PUSH2 0x17CC JUMP JUMPDEST PUSH1 0x3 PUSH1 0x5 DUP2 GT ISZERO PUSH2 0x1572 JUMPI PUSH2 0x1571 PUSH2 0x1931 JUMP JUMPDEST JUMPDEST DUP2 PUSH1 0x5 DUP2 GT ISZERO PUSH2 0x1585 JUMPI PUSH2 0x1584 PUSH2 0x1931 JUMP JUMPDEST JUMPDEST SUB PUSH2 0x1643 JUMPI PUSH1 0x2 PUSH1 0x5 DUP2 GT ISZERO PUSH2 0x159E JUMPI PUSH2 0x159D PUSH2 0x1931 JUMP JUMPDEST JUMPDEST PUSH1 0x3 PUSH1 0x0 SWAP1 SLOAD SWAP1 PUSH2 0x100 EXP SWAP1 DIV PUSH1 0xFF AND PUSH1 0x5 DUP2 GT ISZERO PUSH2 0x15C0 JUMPI PUSH2 0x15BF PUSH2 0x1931 JUMP JUMPDEST JUMPDEST EQ DUP1 PUSH2 0x15FF JUMPI POP PUSH1 0x4 PUSH1 0x5 DUP2 GT ISZERO PUSH2 0x15DB JUMPI PUSH2 0x15DA PUSH2 0x1931 JUMP JUMPDEST JUMPDEST PUSH1 0x3 PUSH1 0x0 SWAP1 SLOAD SWAP1 PUSH2 0x100 EXP SWAP1 DIV PUSH1 0xFF AND PUSH1 0x5 DUP2 GT ISZERO PUSH2 0x15FD JUMPI PUSH2 0x15FC PUSH2 0x1931 JUMP JUMPDEST JUMPDEST EQ JUMPDEST PUSH2 0x163E JUMPI PUSH1 0x40 MLOAD PUSH32 0x8C379A000000000000000000000000000000000000000000000000000000000 DUP2 MSTORE PUSH1 0x4 ADD PUSH2 0x1635 SWAP1 PUSH2 0x2A05 JUMP JUMPDEST PUSH1 0x40 MLOAD DUP1 SWAP2 SUB SWAP1 REVERT JUMPDEST PUSH2 0x17CB JUMP JUMPDEST PUSH1 0x4 PUSH1 0x5 DUP2 GT ISZERO PUSH2 0x1657 JUMPI PUSH2 0x1656 PUSH2 0x1931 JUMP JUMPDEST JUMPDEST DUP2 PUSH1 0x5 DUP2 GT ISZERO PUSH2 0x166A JUMPI PUSH2 0x1669 PUSH2 0x1931 JUMP JUMPDEST JUMPDEST SUB PUSH2 0x1727 JUMPI PUSH1 0x3 PUSH1 0x5 DUP2 GT ISZERO PUSH2 0x1683 JUMPI PUSH2 0x1682 PUSH2 0x1931 JUMP JUMPDEST JUMPDEST PUSH1 0x3 PUSH1 0x0 SWAP1 SLOAD SWAP1 PUSH2 0x100 EXP SWAP1 DIV PUSH1 0xFF AND PUSH1 0x5 DUP2 GT ISZERO PUSH2 0x16A5 JUMPI PUSH2 0x16A4 PUSH2 0x1931 JUMP JUMPDEST JUMPDEST EQ DUP1 PUSH2 0x16E3 JUMPI POP PUSH1 0x5 DUP1 DUP2 GT ISZERO PUSH2 0x16BF JUMPI PUSH2 0x16BE PUSH2 0x1931 JUMP JUMPDEST JUMPDEST PUSH1 0x3 PUSH1 0x0 SWAP1 SLOAD SWAP1 PUSH2 0x100 EXP SWAP1 DIV PUSH1 0xFF AND PUSH1 0x5 DUP2 GT ISZERO PUSH2 0x16E1 JUMPI PUSH2 0x16E0 PUSH2 0x1931 JUMP JUMPDEST JUMPDEST EQ JUMPDEST PUSH2 0x1722 JUMPI PUSH1 0x40 MLOAD PUSH32 0x8C379A000000000000000000000000000000000000000000000000000000000 DUP2 MSTORE PUSH1 0x4 ADD PUSH2 0x1719 SWAP1 PUSH2 0x2A05 JUMP JUMPDEST PUSH1 0x40 MLOAD DUP1 SWAP2 SUB SWAP1 REVERT JUMPDEST PUSH2 0x17CA JUMP JUMPDEST PUSH1 0x5 DUP1 DUP2 GT ISZERO PUSH2 0x173A JUMPI PUSH2 0x1739 PUSH2 0x1931 JUMP JUMPDEST JUMPDEST DUP2 PUSH1 0x5 DUP2 GT ISZERO PUSH2 0x174D JUMPI PUSH2 0x174C PUSH2 0x1931 JUMP JUMPDEST JUMPDEST SUB PUSH2 0x17C9 JUMPI PUSH1 0x4 PUSH1 0x5 DUP2 GT ISZERO PUSH2 0x1766 JUMPI PUSH2 0x1765 PUSH2 0x1931 JUMP JUMPDEST JUMPDEST PUSH1 0x3 PUSH1 0x0 SWAP1 SLOAD SWAP1 PUSH2 0x100 EXP SWAP1 DIV PUSH1 0xFF AND PUSH1 0x5 DUP2 GT ISZERO PUSH2 0x1788 JUMPI PUSH2 0x1787 PUSH2 0x1931 JUMP JUMPDEST JUMPDEST EQ PUSH2 0x17C8 JUMPI PUSH1 0x40 MLOAD PUSH32 0x8C379A000000000000000000000000000000000000000000000000000000000 DUP2 MSTORE PUSH1 0x4 ADD PUSH2 0x17BF SWAP1 PUSH2 0x2A05 JUMP JUMPDEST PUSH1 0x40 MLOAD DUP1 SWAP2 SUB SWAP1 REVERT JUMPDEST JUMPDEST JUMPDEST JUMPDEST JUMPDEST JUMPDEST JUMPDEST POP JUMP JUMPDEST PUSH1 0x40 MLOAD DUP1 PUSH1 0x40 ADD PUSH1 0x40 MSTORE DUP1 PUSH1 0x60 DUP2 MSTORE PUSH1 0x20 ADD PUSH1 0x0 DUP2 MSTORE POP SWAP1 JUMP JUMPDEST PUSH1 0x0 PUSH1 0x40 MLOAD SWAP1 POP SWAP1 JUMP JUMPDEST PUSH1 0x0 DUP1 REVERT JUMPDEST PUSH1 0x0 DUP1 REVERT JUMPDEST PUSH1 0x0 DUP2 SWAP1 POP SWAP2 SWAP1 POP JUMP JUMPDEST PUSH2 0x1812 DUP2 PUSH2 0x17FF JUMP JUMPDEST DUP2 EQ PUSH2 0x181D JUMPI PUSH1 0x0 DUP1 REVERT JUMPDEST POP JUMP JUMPDEST PUSH1 0x0 DUP2 CALLDATALOAD SWAP1 POP PUSH2 0x182F DUP2 PUSH2 0x1809 JUMP JUMPDEST SWAP3 SWAP2 POP POP JUMP JUMPDEST PUSH1 0x0 PUSH1 0x20 DUP3 DUP5 SUB SLT ISZERO PUSH2 0x184B JUMPI PUSH2 0x184A PUSH2 0x17F5 JUMP JUMPDEST JUMPDEST PUSH1 0x0 PUSH2 0x1859 DUP5 DUP3 DUP6 ADD PUSH2 0x1820 JUMP JUMPDEST SWAP2 POP POP SWAP3 SWAP2 POP POP JUMP JUMPDEST PUSH1 0x0 DUP2 MLOAD SWAP1 POP SWAP2 SWAP1 POP JUMP JUMPDEST PUSH1 0x0 DUP3 DUP3 MSTORE PUSH1 0x20 DUP3 ADD SWAP1 POP SWAP3 SWAP2 POP POP JUMP JUMPDEST PUSH1 0x0 JUMPDEST DUP4 DUP2 LT ISZERO PUSH2 0x189C JUMPI DUP1 DUP3 ADD MLOAD DUP2 DUP5 ADD MSTORE PUSH1 0x20 DUP2 ADD SWAP1 POP PUSH2 0x1881 JUMP JUMPDEST PUSH1 0x0 DUP5 DUP5 ADD MSTORE POP POP POP POP JUMP JUMPDEST PUSH1 0x0 PUSH1 0x1F NOT PUSH1 0x1F DUP4 ADD AND SWAP1 POP SWAP2 SWAP1 POP JUMP JUMPDEST PUSH1 0x0 PUSH2 0x18C4 DUP3 PUSH2 0x1862 JUMP JUMPDEST PUSH2 0x18CE DUP2 DUP6 PUSH2 0x186D JUMP JUMPDEST SWAP4 POP PUSH2 0x18DE DUP2 DUP6 PUSH1 0x20 DUP7 ADD PUSH2 0x187E JUMP JUMPDEST PUSH2 0x18E7 DUP2 PUSH2 0x18A8 JUMP JUMPDEST DUP5 ADD SWAP2 POP POP SWAP3 SWAP2 POP POP JUMP JUMPDEST PUSH2 0x18FB DUP2 PUSH2 0x17FF JUMP JUMPDEST DUP3 MSTORE POP POP JUMP JUMPDEST PUSH1 0x0 PUSH1 0x40 DUP3 ADD SWAP1 POP DUP2 DUP2 SUB PUSH1 0x0 DUP4 ADD MSTORE PUSH2 0x191B DUP2 DUP6 PUSH2 0x18B9 JUMP JUMPDEST SWAP1 POP PUSH2 0x192A PUSH1 0x20 DUP4 ADD DUP5 PUSH2 0x18F2 JUMP JUMPDEST SWAP4 SWAP3 POP POP POP JUMP JUMPDEST PUSH32 0x4E487B7100000000000000000000000000000000000000000000000000000000 PUSH1 0x0 MSTORE PUSH1 0x21 PUSH1 0x4 MSTORE PUSH1 0x24 PUSH1 0x0 REVERT JUMPDEST PUSH1 0x6 DUP2 LT PUSH2 0x1971 JUMPI PUSH2 0x1970 PUSH2 0x1931 JUMP JUMPDEST JUMPDEST POP JUMP JUMPDEST PUSH1 0x0 DUP2 SWAP1 POP PUSH2 0x1982 DUP3 PUSH2 0x1960 JUMP JUMPDEST SWAP2 SWAP1 POP JUMP JUMPDEST PUSH1 0x0 PUSH2 0x1992 DUP3 PUSH2 0x1974 JUMP JUMPDEST SWAP1 POP SWAP2 SWAP1 POP JUMP JUMPDEST PUSH2 0x19A2 DUP2 PUSH2 0x1987 JUMP JUMPDEST DUP3 MSTORE POP POP JUMP JUMPDEST PUSH1 0x0 PUSH1 0x20 DUP3 ADD SWAP1 POP PUSH2 0x19BD PUSH1 0x0 DUP4 ADD DUP5 PUSH2 0x1999 JUMP JUMPDEST SWAP3 SWAP2 POP POP JUMP JUMPDEST PUSH1 0x0 DUP1 REVERT JUMPDEST PUSH1 0x0 DUP1 REVERT JUMPDEST PUSH32 0x4E487B7100000000000000000000000000000000000000000000000000000000 PUSH1 0x0 MSTORE PUSH1 0x41 PUSH1 0x4 MSTORE PUSH1 0x24 PUSH1 0x0 REVERT JUMPDEST PUSH2 0x1A05 DUP3 PUSH2 0x18A8 JUMP JUMPDEST DUP2 ADD DUP2 DUP2 LT PUSH8 0xFFFFFFFFFFFFFFFF DUP3 GT OR ISZERO PUSH2 0x1A24 JUMPI PUSH2 0x1A23 PUSH2 0x19CD JUMP JUMPDEST JUMPDEST DUP1 PUSH1 0x40 MSTORE POP POP POP JUMP JUMPDEST PUSH1 0x0 PUSH2 0x1A37 PUSH2 0x17EB JUMP JUMPDEST SWAP1 POP PUSH2 0x1A43 DUP3 DUP3 PUSH2 0x19FC JUMP JUMPDEST SWAP2 SWAP1 POP JUMP JUMPDEST PUSH1 0x0 PUSH8 0xFFFFFFFFFFFFFFFF DUP3 GT ISZERO PUSH2 0x1A63 JUMPI PUSH2 0x1A62 PUSH2 0x19CD JUMP JUMPDEST JUMPDEST PUSH2 0x1A6C DUP3 PUSH2 0x18A8 JUMP JUMPDEST SWAP1 POP PUSH1 0x20 DUP2 ADD SWAP1 POP SWAP2 SWAP1 POP JUMP JUMPDEST DUP3 DUP2 DUP4 CALLDATACOPY PUSH1 0x0 DUP4 DUP4 ADD MSTORE POP POP POP JUMP JUMPDEST PUSH1 0x0 PUSH2 0x1A9B PUSH2 0x1A96 DUP5 PUSH2 0x1A48 JUMP JUMPDEST PUSH2 0x1A2D JUMP JUMPDEST SWAP1 POP DUP3 DUP2 MSTORE PUSH1 0x20 DUP2 ADD DUP5 DUP5 DUP5 ADD GT ISZERO PUSH2 0x1AB7 JUMPI PUSH2 0x1AB6 PUSH2 0x19C8 JUMP JUMPDEST JUMPDEST PUSH2 0x1AC2 DUP5 DUP3 DUP6 PUSH2 0x1A79 JUMP JUMPDEST POP SWAP4 SWAP3 POP POP POP JUMP JUMPDEST PUSH1 0x0 DUP3 PUSH1 0x1F DUP4 ADD SLT PUSH2 0x1ADF JUMPI PUSH2 0x1ADE PUSH2 0x19C3 JUMP JUMPDEST JUMPDEST DUP2 CALLDATALOAD PUSH2 0x1AEF DUP5 DUP3 PUSH1 0x20 DUP7 ADD PUSH2 0x1A88 JUMP JUMPDEST SWAP2 POP POP SWAP3 SWAP2 POP POP JUMP JUMPDEST PUSH1 0x0 PUSH1 0x20 DUP3 DUP5 SUB SLT ISZERO PUSH2 0x1B0E JUMPI PUSH2 0x1B0D PUSH2 0x17F5 JUMP JUMPDEST JUMPDEST PUSH1 0x0 DUP3 ADD CALLDATALOAD PUSH8 0xFFFFFFFFFFFFFFFF DUP2 GT ISZERO PUSH2 0x1B2C JUMPI PUSH2 0x1B2B PUSH2 0x17FA JUMP JUMPDEST JUMPDEST PUSH2 0x1B38 DUP5 DUP3 DUP6 ADD PUSH2 0x1ACA JUMP JUMPDEST SWAP2 POP POP SWAP3 SWAP2 POP POP JUMP JUMPDEST PUSH1 0x0 PUSH20 0xFFFFFFFFFFFFFFFFFFFFFFFFFFFFFFFFFFFFFFFF DUP3 AND SWAP1 POP SWAP2 SWAP1 POP JUMP JUMPDEST PUSH1 0x0 PUSH2 0x1B6C DUP3 PUSH2 0x1B41 JUMP JUMPDEST SWAP1 POP SWAP2 SWAP1 POP JUMP JUMPDEST PUSH2 0x1B7C DUP2 PUSH2 0x1B61 JUMP JUMPDEST DUP2 EQ PUSH2 0x1B87 JUMPI PUSH1 0x0 DUP1 REVERT JUMPDEST POP JUMP JUMPDEST PUSH1 0x0 DUP2 CALLDATALOAD SWAP1 POP PUSH2 0x1B99 DUP2 PUSH2 0x1B73 JUMP JUMPDEST SWAP3 SWAP2 POP POP JUMP JUMPDEST PUSH1 0x0 PUSH1 0x20 DUP3 DUP5 SUB SLT ISZERO PUSH2 0x1BB5 JUMPI PUSH2 0x1BB4 PUSH2 0x17F5 JUMP JUMPDEST JUMPDEST PUSH1 0x0 PUSH2 0x1BC3 DUP5 DUP3 DUP6 ADD PUSH2 0x1B8A JUMP JUMPDEST SWAP2 POP POP SWAP3 SWAP2 POP POP JUMP JUMPDEST PUSH1 0x0 DUP2 MLOAD SWAP1 POP SWAP2 SWAP1 POP JUMP JUMPDEST PUSH1 0x0 DUP3 DUP3 MSTORE PUSH1 0x20 DUP3 ADD SWAP1 POP SWAP3 SWAP2 POP POP JUMP JUMPDEST PUSH1 0x0 DUP2 SWAP1 POP PUSH1 0x20 DUP3 ADD SWAP1 POP SWAP2 SWAP1 POP JUMP JUMPDEST PUSH1 0x0 DUP3 DUP3 MSTORE PUSH1 0x20 DUP3 ADD SWAP1 POP SWAP3 SWAP2 POP POP JUMP JUMPDEST PUSH1 0x0 PUSH2 0x1C14 DUP3 PUSH2 0x1862 JUMP JUMPDEST PUSH2 0x1C1E DUP2 DUP6 PUSH2 0x1BF8 JUMP JUMPDEST SWAP4 POP PUSH2 0x1C2E DUP2 DUP6 PUSH1 0x20 DUP7 ADD PUSH2 0x187E JUMP JUMPDEST PUSH2 0x1C37 DUP2 PUSH2 0x18A8 JUMP JUMPDEST DUP5 ADD SWAP2 POP POP SWAP3 SWAP2 POP POP JUMP JUMPDEST PUSH2 0x1C4B DUP2 PUSH2 0x17FF JUMP JUMPDEST DUP3 MSTORE POP POP JUMP JUMPDEST PUSH1 0x0 PUSH1 0x40 DUP4 ADD PUSH1 0x0 DUP4 ADD MLOAD DUP5 DUP3 SUB PUSH1 0x0 DUP7 ADD MSTORE PUSH2 0x1C6E DUP3 DUP3 PUSH2 0x1C09 JUMP JUMPDEST SWAP2 POP POP PUSH1 0x20 DUP4 ADD MLOAD PUSH2 0x1C83 PUSH1 0x20 DUP7 ADD DUP3 PUSH2 0x1C42 JUMP JUMPDEST POP DUP1 SWAP2 POP POP SWAP3 SWAP2 POP POP JUMP JUMPDEST PUSH1 0x0 PUSH2 0x1C9A DUP4 DUP4 PUSH2 0x1C51 JUMP JUMPDEST SWAP1 POP SWAP3 SWAP2 POP POP JUMP JUMPDEST PUSH1 0x0 PUSH1 0x20 DUP3 ADD SWAP1 POP SWAP2 SWAP1 POP JUMP JUMPDEST PUSH1 0x0 PUSH2 0x1CBA DUP3 PUSH2 0x1BCC JUMP JUMPDEST PUSH2 0x1CC4 DUP2 DUP6 PUSH2 0x1BD7 JUMP JUMPDEST SWAP4 POP DUP4 PUSH1 0x20 DUP3 MUL DUP6 ADD PUSH2 0x1CD6 DUP6 PUSH2 0x1BE8 JUMP JUMPDEST DUP1 PUSH1 0x0 JUMPDEST DUP6 DUP2 LT ISZERO PUSH2 0x1D12 JUMPI DUP5 DUP5 SUB DUP10 MSTORE DUP2 MLOAD PUSH2 0x1CF3 DUP6 DUP3 PUSH2 0x1C8E JUMP JUMPDEST SWAP5 POP PUSH2 0x1CFE DUP4 PUSH2 0x1CA2 JUMP JUMPDEST SWAP3 POP PUSH1 0x20 DUP11 ADD SWAP10 POP POP PUSH1 0x1 DUP2 ADD SWAP1 POP PUSH2 0x1CDA JUMP JUMPDEST POP DUP3 SWAP8 POP DUP8 SWAP6 POP POP POP POP POP POP SWAP3 SWAP2 POP POP JUMP JUMPDEST PUSH1 0x0 PUSH1 0x20 DUP3 ADD SWAP1 POP DUP2 DUP2 SUB PUSH1 0x0 DUP4 ADD MSTORE PUSH2 0x1D3E DUP2 DUP5 PUSH2 0x1CAF JUMP JUMPDEST SWAP1 POP SWAP3 SWAP2 POP POP JUMP JUMPDEST PUSH2 0x1D4F DUP2 PUSH2 0x1B61 JUMP JUMPDEST DUP3 MSTORE POP POP JUMP JUMPDEST PUSH1 0x0 PUSH1 0x20 DUP3 ADD SWAP1 POP PUSH2 0x1D6A PUSH1 0x0 DUP4 ADD DUP5 PUSH2 0x1D46 JUMP JUMPDEST SWAP3 SWAP2 POP POP JUMP JUMPDEST PUSH1 0x0 DUP2 ISZERO ISZERO SWAP1 POP SWAP2 SWAP1 POP JUMP JUMPDEST PUSH2 0x1D85 DUP2 PUSH2 0x1D70 JUMP JUMPDEST DUP3 MSTORE POP POP JUMP JUMPDEST PUSH1 0x0 PUSH1 0x60 DUP3 ADD SWAP1 POP PUSH2 0x1DA0 PUSH1 0x0 DUP4 ADD DUP7 PUSH2 0x1D7C JUMP JUMPDEST PUSH2 0x1DAD PUSH1 0x20 DUP4 ADD DUP6 PUSH2 0x1D7C JUMP JUMPDEST PUSH2 0x1DBA PUSH1 0x40 DUP4 ADD DUP5 PUSH2 0x18F2 JUMP JUMPDEST SWAP5 SWAP4 POP POP POP POP JUMP JUMPDEST PUSH1 0x0 PUSH1 0x40 DUP4 ADD PUSH1 0x0 DUP4 ADD MLOAD DUP5 DUP3 SUB PUSH1 0x0 DUP7 ADD MSTORE PUSH2 0x1DDF DUP3 DUP3 PUSH2 0x1C09 JUMP JUMPDEST SWAP2 POP POP PUSH1 0x20 DUP4 ADD MLOAD PUSH2 0x1DF4 PUSH1 0x20 DUP7 ADD DUP3 PUSH2 0x1C42 JUMP JUMPDEST POP DUP1 SWAP2 POP POP SWAP3 SWAP2 POP POP JUMP JUMPDEST PUSH1 0x0 PUSH1 0x20 DUP3 ADD SWAP1 POP DUP2 DUP2 SUB PUSH1 0x0 DUP4 ADD MSTORE PUSH2 0x1E19 DUP2 DUP5 PUSH2 0x1DC2 JUMP JUMPDEST SWAP1 POP SWAP3 SWAP2 POP POP JUMP JUMPDEST PUSH1 0x0 PUSH1 0x20 DUP3 ADD SWAP1 POP DUP2 DUP2 SUB PUSH1 0x0 DUP4 ADD MSTORE PUSH2 0x1E3B DUP2 DUP5 PUSH2 0x18B9 JUMP JUMPDEST SWAP1 POP SWAP3 SWAP2 POP POP JUMP JUMPDEST PUSH1 0x0 PUSH8 0xFFFFFFFFFFFFFFFF DUP3 GT ISZERO PUSH2 0x1E5E JUMPI PUSH2 0x1E5D PUSH2 0x19CD JUMP JUMPDEST JUMPDEST PUSH1 0x20 DUP3 MUL SWAP1 POP PUSH1 0x20 DUP2 ADD SWAP1 POP SWAP2 SWAP1 POP JUMP JUMPDEST PUSH1 0x0 DUP1 REVERT JUMPDEST PUSH1 0x0 PUSH2 0x1E87 PUSH2 0x1E82 DUP5 PUSH2 0x1E43 JUMP JUMPDEST PUSH2 0x1A2D JUMP JUMPDEST SWAP1 POP DUP1 DUP4 DUP3 MSTORE PUSH1 0x20 DUP3 ADD SWAP1 POP PUSH1 0x20 DUP5 MUL DUP4 ADD DUP6 DUP2 GT ISZERO PUSH2 0x1EAA JUMPI PUSH2 0x1EA9 PUSH2 0x1E6F JUMP JUMPDEST JUMPDEST DUP4 JUMPDEST DUP2 DUP2 LT ISZERO PUSH2 0x1ED3 JUMPI DUP1 PUSH2 0x1EBF DUP9 DUP3 PUSH2 0x1B8A JUMP JUMPDEST DUP5 MSTORE PUSH1 0x20 DUP5 ADD SWAP4 POP POP PUSH1 0x20 DUP2 ADD SWAP1 POP PUSH2 0x1EAC JUMP JUMPDEST POP POP POP SWAP4 SWAP3 POP POP POP JUMP JUMPDEST PUSH1 0x0 DUP3 PUSH1 0x1F DUP4 ADD SLT PUSH2 0x1EF2 JUMPI PUSH2 0x1EF1 PUSH2 0x19C3 JUMP JUMPDEST JUMPDEST DUP2 CALLDATALOAD PUSH2 0x1F02 DUP5 DUP3 PUSH1 0x20 DUP7 ADD PUSH2 0x1E74 JUMP JUMPDEST SWAP2 POP POP SWAP3 SWAP2 POP POP JUMP JUMPDEST PUSH1 0x0 PUSH1 0x20 DUP3 DUP5 SUB SLT ISZERO PUSH2 0x1F21 JUMPI PUSH2 0x1F20 PUSH2 0x17F5 JUMP JUMPDEST JUMPDEST PUSH1 0x0 DUP3 ADD CALLDATALOAD PUSH8 0xFFFFFFFFFFFFFFFF DUP2 GT ISZERO PUSH2 0x1F3F JUMPI PUSH2 0x1F3E PUSH2 0x17FA JUMP JUMPDEST JUMPDEST PUSH2 0x1F4B DUP5 DUP3 DUP6 ADD PUSH2 0x1EDD JUMP JUMPDEST SWAP2 POP POP SWAP3 SWAP2 POP POP JUMP JUMPDEST PUSH32 0x4E487B7100000000000000000000000000000000000000000000000000000000 PUSH1 0x0 MSTORE PUSH1 0x22 PUSH1 0x4 MSTORE PUSH1 0x24 PUSH1 0x0 REVERT JUMPDEST PUSH1 0x0 PUSH1 0x2 DUP3 DIV SWAP1 POP PUSH1 0x1 DUP3 AND DUP1 PUSH2 0x1F9B JUMPI PUSH1 0x7F DUP3 AND SWAP2 POP JUMPDEST PUSH1 0x20 DUP3 LT DUP2 SUB PUSH2 0x1FAE JUMPI PUSH2 0x1FAD PUSH2 0x1F54 JUMP JUMPDEST JUMPDEST POP SWAP2 SWAP1 POP JUMP JUMPDEST PUSH1 0x0 DUP2 SWAP1 POP DUP2 PUSH1 0x0 MSTORE PUSH1 0x20 PUSH1 0x0 KECCAK256 SWAP1 POP SWAP2 SWAP1 POP JUMP JUMPDEST PUSH1 0x0 PUSH1 0x20 PUSH1 0x1F DUP4 ADD DIV SWAP1 POP SWAP2 SWAP1 POP JUMP JUMPDEST PUSH1 0x0 DUP3 DUP3 SHL SWAP1 POP SWAP3 SWAP2 POP POP JUMP JUMPDEST PUSH1 0x0 PUSH1 0x8 DUP4 MUL PUSH2 0x2016 PUSH32 0xFFFFFFFFFFFFFFFFFFFFFFFFFFFFFFFFFFFFFFFFFFFFFFFFFFFFFFFFFFFFFFFF DUP3 PUSH2 0x1FD9 JUMP JUMPDEST PUSH2 0x2020 DUP7 DUP4 PUSH2 0x1FD9 JUMP JUMPDEST SWAP6 POP DUP1 NOT DUP5 AND SWAP4 POP DUP1 DUP7 AND DUP5 OR SWAP3 POP POP POP SWAP4 SWAP3 POP POP POP JUMP JUMPDEST PUSH1 0x0 DUP2 SWAP1 POP SWAP2 SWAP1 POP JUMP JUMPDEST PUSH1 0x0 PUSH2 0x205D PUSH2 0x2058 PUSH2 0x2053 DUP5 PUSH2 0x17FF JUMP JUMPDEST PUSH2 0x2038 JUMP JUMPDEST PUSH2 0x17FF JUMP JUMPDEST SWAP1 POP SWAP2 SWAP1 POP JUMP JUMPDEST PUSH1 0x0 DUP2 SWAP1 POP SWAP2 SWAP1 POP JUMP JUMPDEST PUSH2 0x2077 DUP4 PUSH2 0x2042 JUMP JUMPDEST PUSH2 0x208B PUSH2 0x2083 DUP3 PUSH2 0x2064 JUMP JUMPDEST DUP5 DUP5 SLOAD PUSH2 0x1FE6 JUMP JUMPDEST DUP3 SSTORE POP POP POP POP JUMP JUMPDEST PUSH1 0x0 SWAP1 JUMP JUMPDEST PUSH2 0x20A0 PUSH2 0x2093 JUMP JUMPDEST PUSH2 0x20AB DUP2 DUP5 DUP5 PUSH2 0x206E JUMP JUMPDEST POP POP POP JUMP JUMPDEST JUMPDEST DUP2 DUP2 LT ISZERO PUSH2 0x20CF JUMPI PUSH2 0x20C4 PUSH1 0x0 DUP3 PUSH2 0x2098 JUMP JUMPDEST PUSH1 0x1 DUP2 ADD SWAP1 POP PUSH2 0x20B1 JUMP JUMPDEST POP POP JUMP JUMPDEST PUSH1 0x1F DUP3 GT ISZERO PUSH2 0x2114 JUMPI PUSH2 0x20E5 DUP2 PUSH2 0x1FB4 JUMP JUMPDEST PUSH2 0x20EE DUP5 PUSH2 0x1FC9 JUMP JUMPDEST DUP2 ADD PUSH1 0x20 DUP6 LT ISZERO PUSH2 0x20FD JUMPI DUP2 SWAP1 POP JUMPDEST PUSH2 0x2111 PUSH2 0x2109 DUP6 PUSH2 0x1FC9 JUMP JUMPDEST DUP4 ADD DUP3 PUSH2 0x20B0 JUMP JUMPDEST POP POP JUMPDEST POP POP POP JUMP JUMPDEST PUSH1 0x0 DUP3 DUP3 SHR SWAP1 POP SWAP3 SWAP2 POP POP JUMP JUMPDEST PUSH1 0x0 PUSH2 0x2137 PUSH1 0x0 NOT DUP5 PUSH1 0x8 MUL PUSH2 0x2119 JUMP JUMPDEST NOT DUP1 DUP4 AND SWAP2 POP POP SWAP3 SWAP2 POP POP JUMP JUMPDEST PUSH1 0x0 PUSH2 0x2150 DUP4 DUP4 PUSH2 0x2126 JUMP JUMPDEST SWAP2 POP DUP3 PUSH1 0x2 MUL DUP3 OR SWAP1 POP SWAP3 SWAP2 POP POP JUMP JUMPDEST PUSH2 0x2169 DUP3 PUSH2 0x1862 JUMP JUMPDEST PUSH8 0xFFFFFFFFFFFFFFFF DUP2 GT ISZERO PUSH2 0x2182 JUMPI PUSH2 0x2181 PUSH2 0x19CD JUMP JUMPDEST JUMPDEST PUSH2 0x218C DUP3 SLOAD PUSH2 0x1F83 JUMP JUMPDEST PUSH2 0x2197 DUP3 DUP3 DUP6 PUSH2 0x20D3 JUMP JUMPDEST PUSH1 0x0 PUSH1 0x20 SWAP1 POP PUSH1 0x1F DUP4 GT PUSH1 0x1 DUP2 EQ PUSH2 0x21CA JUMPI PUSH1 0x0 DUP5 ISZERO PUSH2 0x21B8 JUMPI DUP3 DUP8 ADD MLOAD SWAP1 POP JUMPDEST PUSH2 0x21C2 DUP6 DUP3 PUSH2 0x2144 JUMP JUMPDEST DUP7 SSTORE POP PUSH2 0x222A JUMP JUMPDEST PUSH1 0x1F NOT DUP5 AND PUSH2 0x21D8 DUP7 PUSH2 0x1FB4 JUMP JUMPDEST PUSH1 0x0 JUMPDEST DUP3 DUP2 LT ISZERO PUSH2 0x2200 JUMPI DUP5 DUP10 ADD MLOAD DUP3 SSTORE PUSH1 0x1 DUP3 ADD SWAP2 POP PUSH1 0x20 DUP6 ADD SWAP5 POP PUSH1 0x20 DUP2 ADD SWAP1 POP PUSH2 0x21DB JUMP JUMPDEST DUP7 DUP4 LT ISZERO PUSH2 0x221D JUMPI DUP5 DUP10 ADD MLOAD PUSH2 0x2219 PUSH1 0x1F DUP10 AND DUP3 PUSH2 0x2126 JUMP JUMPDEST DUP4 SSTORE POP JUMPDEST PUSH1 0x1 PUSH1 0x2 DUP9 MUL ADD DUP9 SSTORE POP POP POP JUMPDEST POP POP POP POP POP POP JUMP JUMPDEST PUSH32 0x4E487B7100000000000000000000000000000000000000000000000000000000 PUSH1 0x0 MSTORE PUSH1 0x11 PUSH1 0x4 MSTORE PUSH1 0x24 PUSH1 0x0 REVERT JUMPDEST PUSH1 0x0 PUSH2 0x226C DUP3 PUSH2 0x17FF JUMP JUMPDEST SWAP2 POP PUSH2 0x2277 DUP4 PUSH2 0x17FF JUMP JUMPDEST SWAP3 POP DUP3 DUP3 SUB SWAP1 POP DUP2 DUP2 GT ISZERO PUSH2 0x228F JUMPI PUSH2 0x228E PUSH2 0x2232 JUMP JUMPDEST JUMPDEST SWAP3 SWAP2 POP POP JUMP JUMPDEST PUSH1 0x0 PUSH1 0x20 DUP3 ADD SWAP1 POP PUSH2 0x22AA PUSH1 0x0 DUP4 ADD DUP5 PUSH2 0x18F2 JUMP JUMPDEST SWAP3 SWAP2 POP POP JUMP JUMPDEST PUSH32 0x566F74657220697320616C72656164792077686974656C697374656400000000 PUSH1 0x0 DUP3 ADD MSTORE POP JUMP JUMPDEST PUSH1 0x0 PUSH2 0x22E6 PUSH1 0x1C DUP4 PUSH2 0x186D JUMP JUMPDEST SWAP2 POP PUSH2 0x22F1 DUP3 PUSH2 0x22B0 JUMP JUMPDEST PUSH1 0x20 DUP3 ADD SWAP1 POP SWAP2 SWAP1 POP JUMP JUMPDEST PUSH1 0x0 PUSH1 0x20 DUP3 ADD SWAP1 POP DUP2 DUP2 SUB PUSH1 0x0 DUP4 ADD MSTORE PUSH2 0x2315 DUP2 PUSH2 0x22D9 JUMP JUMPDEST SWAP1 POP SWAP2 SWAP1 POP JUMP JUMPDEST PUSH32 0x4E487B7100000000000000000000000000000000000000000000000000000000 PUSH1 0x0 MSTORE PUSH1 0x32 PUSH1 0x4 MSTORE PUSH1 0x24 PUSH1 0x0 REVERT JUMPDEST PUSH1 0x0 PUSH2 0x2356 DUP3 PUSH2 0x17FF JUMP JUMPDEST SWAP2 POP PUSH32 0xFFFFFFFFFFFFFFFFFFFFFFFFFFFFFFFFFFFFFFFFFFFFFFFFFFFFFFFFFFFFFFFF DUP3 SUB PUSH2 0x2388 JUMPI PUSH2 0x2387 PUSH2 0x2232 JUMP JUMPDEST JUMPDEST PUSH1 0x1 DUP3 ADD SWAP1 POP SWAP2 SWAP1 POP JUMP JUMPDEST PUSH32 0x546869732075736572206469646E277420766F74650000000000000000000000 PUSH1 0x0 DUP3 ADD MSTORE POP JUMP JUMPDEST PUSH1 0x0 PUSH2 0x23C9 PUSH1 0x15 DUP4 PUSH2 0x186D JUMP JUMPDEST SWAP2 POP PUSH2 0x23D4 DUP3 PUSH2 0x2393 JUMP JUMPDEST PUSH1 0x20 DUP3 ADD SWAP1 POP SWAP2 SWAP1 POP JUMP JUMPDEST PUSH1 0x0 PUSH1 0x20 DUP3 ADD SWAP1 POP DUP2 DUP2 SUB PUSH1 0x0 DUP4 ADD MSTORE PUSH2 0x23F8 DUP2 PUSH2 0x23BC JUMP JUMPDEST SWAP1 POP SWAP2 SWAP1 POP JUMP JUMPDEST PUSH32 0x4F776E61626C653A206E6577206F776E657220697320746865207A65726F2061 PUSH1 0x0 DUP3 ADD MSTORE PUSH32 0x6464726573730000000000000000000000000000000000000000000000000000 PUSH1 0x20 DUP3 ADD MSTORE POP JUMP JUMPDEST PUSH1 0x0 PUSH2 0x245B PUSH1 0x26 DUP4 PUSH2 0x186D JUMP JUMPDEST SWAP2 POP PUSH2 0x2466 DUP3 PUSH2 0x23FF JUMP JUMPDEST PUSH1 0x40 DUP3 ADD SWAP1 POP SWAP2 SWAP1 POP JUMP JUMPDEST PUSH1 0x0 PUSH1 0x20 DUP3 ADD SWAP1 POP DUP2 DUP2 SUB PUSH1 0x0 DUP4 ADD MSTORE PUSH2 0x248A DUP2 PUSH2 0x244E JUMP JUMPDEST SWAP1 POP SWAP2 SWAP1 POP JUMP JUMPDEST PUSH32 0x596F75206861766520616C726561647920766F7465642E204F6E6C79206F6E65 PUSH1 0x0 DUP3 ADD MSTORE PUSH32 0x20766F746520697320616C6C6F77656400000000000000000000000000000000 PUSH1 0x20 DUP3 ADD MSTORE POP JUMP JUMPDEST PUSH1 0x0 PUSH2 0x24ED PUSH1 0x30 DUP4 PUSH2 0x186D JUMP JUMPDEST SWAP2 POP PUSH2 0x24F8 DUP3 PUSH2 0x2491 JUMP JUMPDEST PUSH1 0x40 DUP3 ADD SWAP1 POP SWAP2 SWAP1 POP JUMP JUMPDEST PUSH1 0x0 PUSH1 0x20 DUP3 ADD SWAP1 POP DUP2 DUP2 SUB PUSH1 0x0 DUP4 ADD MSTORE PUSH2 0x251C DUP2 PUSH2 0x24E0 JUMP JUMPDEST SWAP1 POP SWAP2 SWAP1 POP JUMP JUMPDEST PUSH32 0x50726F706F73616C20496420646F65736E27742065786973742E20506C656173 PUSH1 0x0 DUP3 ADD MSTORE PUSH32 0x652073656C65637420612076616C69642070726F706F73616C20496400000000 PUSH1 0x20 DUP3 ADD MSTORE POP JUMP JUMPDEST PUSH1 0x0 PUSH2 0x257F PUSH1 0x3C DUP4 PUSH2 0x186D JUMP JUMPDEST SWAP2 POP PUSH2 0x258A DUP3 PUSH2 0x2523 JUMP JUMPDEST PUSH1 0x40 DUP3 ADD SWAP1 POP SWAP2 SWAP1 POP JUMP JUMPDEST PUSH1 0x0 PUSH1 0x20 DUP3 ADD SWAP1 POP DUP2 DUP2 SUB PUSH1 0x0 DUP4 ADD MSTORE PUSH2 0x25AE DUP2 PUSH2 0x2572 JUMP JUMPDEST SWAP1 POP SWAP2 SWAP1 POP JUMP JUMPDEST PUSH1 0x0 PUSH1 0x40 DUP3 ADD SWAP1 POP PUSH2 0x25CA PUSH1 0x0 DUP4 ADD DUP6 PUSH2 0x1D46 JUMP JUMPDEST PUSH2 0x25D7 PUSH1 0x20 DUP4 ADD DUP5 PUSH2 0x18F2 JUMP JUMPDEST SWAP4 SWAP3 POP POP POP JUMP JUMPDEST PUSH32 0x4F6E6C792077686974656C697374656420766F74657273206172652061757468 PUSH1 0x0 DUP3 ADD MSTORE PUSH32 0x6F72697A656420746F20646F207468697320616374696F6E2E00000000000000 PUSH1 0x20 DUP3 ADD MSTORE POP JUMP JUMPDEST PUSH1 0x0 PUSH2 0x263A PUSH1 0x39 DUP4 PUSH2 0x186D JUMP JUMPDEST SWAP2 POP PUSH2 0x2645 DUP3 PUSH2 0x25DE JUMP JUMPDEST PUSH1 0x40 DUP3 ADD SWAP1 POP SWAP2 SWAP1 POP JUMP JUMPDEST PUSH1 0x0 PUSH1 0x20 DUP3 ADD SWAP1 POP DUP2 DUP2 SUB PUSH1 0x0 DUP4 ADD MSTORE PUSH2 0x2669 DUP2 PUSH2 0x262D JUMP JUMPDEST SWAP1 POP SWAP2 SWAP1 POP JUMP JUMPDEST PUSH32 0x50726F706F73616C20726567697374726174696F6E20697320636C6F7365642E PUSH1 0x0 DUP3 ADD MSTORE POP JUMP JUMPDEST PUSH1 0x0 PUSH2 0x26A6 PUSH1 0x20 DUP4 PUSH2 0x186D JUMP JUMPDEST SWAP2 POP PUSH2 0x26B1 DUP3 PUSH2 0x2670 JUMP JUMPDEST PUSH1 0x20 DUP3 ADD SWAP1 POP SWAP2 SWAP1 POP JUMP JUMPDEST PUSH1 0x0 PUSH1 0x20 DUP3 ADD SWAP1 POP DUP2 DUP2 SUB PUSH1 0x0 DUP4 ADD MSTORE PUSH2 0x26D5 DUP2 PUSH2 0x2699 JUMP JUMPDEST SWAP1 POP SWAP2 SWAP1 POP JUMP JUMPDEST PUSH32 0x4F776E61626C653A2063616C6C6572206973206E6F7420746865206F776E6572 PUSH1 0x0 DUP3 ADD MSTORE POP JUMP JUMPDEST PUSH1 0x0 PUSH2 0x2712 PUSH1 0x20 DUP4 PUSH2 0x186D JUMP JUMPDEST SWAP2 POP PUSH2 0x271D DUP3 PUSH2 0x26DC JUMP JUMPDEST PUSH1 0x20 DUP3 ADD SWAP1 POP SWAP2 SWAP1 POP JUMP JUMPDEST PUSH1 0x0 PUSH1 0x20 DUP3 ADD SWAP1 POP DUP2 DUP2 SUB PUSH1 0x0 DUP4 ADD MSTORE PUSH2 0x2741 DUP2 PUSH2 0x2705 JUMP JUMPDEST SWAP1 POP SWAP2 SWAP1 POP JUMP JUMPDEST PUSH32 0x526567697374726174696F6E20706572696F6420666F7220766F746572206973 PUSH1 0x0 DUP3 ADD MSTORE PUSH32 0x20636C6F7365642E000000000000000000000000000000000000000000000000 PUSH1 0x20 DUP3 ADD MSTORE POP JUMP JUMPDEST PUSH1 0x0 PUSH2 0x27A4 PUSH1 0x28 DUP4 PUSH2 0x186D JUMP JUMPDEST SWAP2 POP PUSH2 0x27AF DUP3 PUSH2 0x2748 JUMP JUMPDEST PUSH1 0x40 DUP3 ADD SWAP1 POP SWAP2 SWAP1 POP JUMP JUMPDEST PUSH1 0x0 PUSH1 0x20 DUP3 ADD SWAP1 POP DUP2 DUP2 SUB PUSH1 0x0 DUP4 ADD MSTORE PUSH2 0x27D3 DUP2 PUSH2 0x2797 JUMP JUMPDEST SWAP1 POP SWAP2 SWAP1 POP JUMP JUMPDEST PUSH32 0x566F74696E67206973206E6F7420636C6F736564206F7220766F74657320636F PUSH1 0x0 DUP3 ADD MSTORE PUSH32 0x756E7420697320616C726561647920646F6E6500000000000000000000000000 PUSH1 0x20 DUP3 ADD MSTORE POP JUMP JUMPDEST PUSH1 0x0 PUSH2 0x2836 PUSH1 0x33 DUP4 PUSH2 0x186D JUMP JUMPDEST SWAP2 POP PUSH2 0x2841 DUP3 PUSH2 0x27DA JUMP JUMPDEST PUSH1 0x40 DUP3 ADD SWAP1 POP SWAP2 SWAP1 POP JUMP JUMPDEST PUSH1 0x0 PUSH1 0x20 DUP3 ADD SWAP1 POP DUP2 DUP2 SUB PUSH1 0x0 DUP4 ADD MSTORE PUSH2 0x2865 DUP2 PUSH2 0x2829 JUMP JUMPDEST SWAP1 POP SWAP2 SWAP1 POP JUMP JUMPDEST PUSH1 0x0 PUSH1 0x40 DUP3 ADD SWAP1 POP PUSH2 0x2881 PUSH1 0x0 DUP4 ADD DUP6 PUSH2 0x1999 JUMP JUMPDEST PUSH2 0x288E PUSH1 0x20 DUP4 ADD DUP5 PUSH2 0x1999 JUMP JUMPDEST SWAP4 SWAP3 POP POP POP JUMP JUMPDEST PUSH32 0x566F74657320636F756E74206973206E6F742079657420646F6E650000000000 PUSH1 0x0 DUP3 ADD MSTORE POP JUMP JUMPDEST PUSH1 0x0 PUSH2 0x28CB PUSH1 0x1B DUP4 PUSH2 0x186D JUMP JUMPDEST SWAP2 POP PUSH2 0x28D6 DUP3 PUSH2 0x2895 JUMP JUMPDEST PUSH1 0x20 DUP3 ADD SWAP1 POP SWAP2 SWAP1 POP JUMP JUMPDEST PUSH1 0x0 PUSH1 0x20 DUP3 ADD SWAP1 POP DUP2 DUP2 SUB PUSH1 0x0 DUP4 ADD MSTORE PUSH2 0x28FA DUP2 PUSH2 0x28BE JUMP JUMPDEST SWAP1 POP SWAP2 SWAP1 POP JUMP JUMPDEST PUSH32 0x566F74696E672073657373696F6E20697320636C6F7365642E00000000000000 PUSH1 0x0 DUP3 ADD MSTORE POP JUMP JUMPDEST PUSH1 0x0 PUSH2 0x2937 PUSH1 0x19 DUP4 PUSH2 0x186D JUMP JUMPDEST SWAP2 POP PUSH2 0x2942 DUP3 PUSH2 0x2901 JUMP JUMPDEST PUSH1 0x20 DUP3 ADD SWAP1 POP SWAP2 SWAP1 POP JUMP JUMPDEST PUSH1 0x0 PUSH1 0x20 DUP3 ADD SWAP1 POP DUP2 DUP2 SUB PUSH1 0x0 DUP4 ADD MSTORE PUSH2 0x2966 DUP2 PUSH2 0x292A JUMP JUMPDEST SWAP1 POP SWAP2 SWAP1 POP JUMP JUMPDEST PUSH32 0x41637475616C20737461747573206973206E6F7420636F6D70617469626C6520 PUSH1 0x0 DUP3 ADD MSTORE PUSH32 0x7769746820796F75722063686F696365202863686F6F73652070726576696F75 PUSH1 0x20 DUP3 ADD MSTORE PUSH32 0x73206F6E65206F72206E657874206F6E65290000000000000000000000000000 PUSH1 0x40 DUP3 ADD MSTORE POP JUMP JUMPDEST PUSH1 0x0 PUSH2 0x29EF PUSH1 0x52 DUP4 PUSH2 0x186D JUMP JUMPDEST SWAP2 POP PUSH2 0x29FA DUP3 PUSH2 0x296D JUMP JUMPDEST PUSH1 0x60 DUP3 ADD SWAP1 POP SWAP2 SWAP1 POP JUMP JUMPDEST PUSH1 0x0 PUSH1 0x20 DUP3 ADD SWAP1 POP DUP2 DUP2 SUB PUSH1 0x0 DUP4 ADD MSTORE PUSH2 0x2A1E DUP2 PUSH2 0x29E2 JUMP JUMPDEST SWAP1 POP SWAP2 SWAP1 POP JUMP INVALID LOG2 PUSH5 0x6970667358 0x22 SLT KECCAK256 PUSH15 0x1DDAD6C06B0EBD4CEFC82096191D90 COINBASE 0xC6 0x1E 0x4F INVALID JUMP 0xCF MSTORE8 SWAP10 PUSH12 0xE745AA5F769564736F6C6343 STOP ADDMOD SLT STOP CALLER "
				},
				"gasEstimates": {
					"creation": {
						"codeDepositCost": "2168600",
						"executionCost": "infinite",
						"totalCost": "infinite"
					},
					"external": {
						"computeWinningProposal()": "infinite",
						"getProposaleVotedForUser(address)": "infinite",
						"getProposals()": "infinite",
						"getWinningProposalDetails()": "infinite",
						"owner()": "2545",
						"proposals(uint256)": "infinite",
						"registerProposal(string)": "infinite",
						"registerVoter(address)": "infinite",
						"registerVoters(address[])": "infinite",
						"renounceOwnership()": "30487",
						"status()": "2606",
						"transferOwnership(address)": "30810",
						"voting(uint256)": "infinite",
						"whitelist(address)": "infinite"
					},
					"internal": {
						"_isConsistantStatus(enum Voting.WorkflowStatus)": "infinite",
						"_isProposalsRegistrationStarted()": "infinite",
						"_isRegisteringVotersStatus()": "infinite",
						"_isVotesTallied()": "infinite",
						"_isVotingSessionEnded()": "infinite",
						"_isVotingSessionStarted()": "infinite",
						"_isWhitelisted()": "infinite",
						"setStatus(enum Voting.WorkflowStatus)": "infinite"
					}
				},
				"methodIdentifiers": {
					"computeWinningProposal()": "6a00600c",
					"getProposaleVotedForUser(address)": "c88d3851",
					"getProposals()": "62564c48",
					"getWinningProposalDetails()": "b11accff",
					"owner()": "8da5cb5b",
					"proposals(uint256)": "013cf08b",
					"registerProposal(string)": "2f95355b",
					"registerVoter(address)": "38db6dd3",
					"registerVoters(address[])": "d55ec9c1",
					"renounceOwnership()": "715018a6",
					"status()": "200d2ed2",
					"transferOwnership(address)": "f2fde38b",
					"voting(uint256)": "fd4a77f1",
					"whitelist(address)": "9b19251a"
				}
			},
			"storageLayout": {
				"storage": [
					{
						"astId": 7,
						"contract": "Voting/Voting.sol:Voting",
						"label": "_owner",
						"offset": 0,
						"slot": "0",
						"type": "t_address"
					},
					{
						"astId": 163,
						"contract": "Voting/Voting.sol:Voting",
						"label": "whitelist",
						"offset": 0,
						"slot": "1",
						"type": "t_mapping(t_address,t_struct(Voter)153_storage)"
					},
					{
						"astId": 167,
						"contract": "Voting/Voting.sol:Voting",
						"label": "proposals",
						"offset": 0,
						"slot": "2",
						"type": "t_array(t_struct(Proposal)158_storage)dyn_storage"
					},
					{
						"astId": 170,
						"contract": "Voting/Voting.sol:Voting",
						"label": "status",
						"offset": 0,
						"slot": "3",
						"type": "t_enum(WorkflowStatus)146"
					},
					{
						"astId": 172,
						"contract": "Voting/Voting.sol:Voting",
						"label": "winningProposalId",
						"offset": 0,
						"slot": "4",
						"type": "t_uint256"
					}
				],
				"types": {
					"t_address": {
						"encoding": "inplace",
						"label": "address",
						"numberOfBytes": "20"
					},
					"t_array(t_struct(Proposal)158_storage)dyn_storage": {
						"base": "t_struct(Proposal)158_storage",
						"encoding": "dynamic_array",
						"label": "struct Voting.Proposal[]",
						"numberOfBytes": "32"
					},
					"t_bool": {
						"encoding": "inplace",
						"label": "bool",
						"numberOfBytes": "1"
					},
					"t_enum(WorkflowStatus)146": {
						"encoding": "inplace",
						"label": "enum Voting.WorkflowStatus",
						"numberOfBytes": "1"
					},
					"t_mapping(t_address,t_struct(Voter)153_storage)": {
						"encoding": "mapping",
						"key": "t_address",
						"label": "mapping(address => struct Voting.Voter)",
						"numberOfBytes": "32",
						"value": "t_struct(Voter)153_storage"
					},
					"t_string_storage": {
						"encoding": "bytes",
						"label": "string",
						"numberOfBytes": "32"
					},
					"t_struct(Proposal)158_storage": {
						"encoding": "inplace",
						"label": "struct Voting.Proposal",
						"members": [
							{
								"astId": 155,
								"contract": "Voting/Voting.sol:Voting",
								"label": "description",
								"offset": 0,
								"slot": "0",
								"type": "t_string_storage"
							},
							{
								"astId": 157,
								"contract": "Voting/Voting.sol:Voting",
								"label": "voteCount",
								"offset": 0,
								"slot": "1",
								"type": "t_uint256"
							}
						],
						"numberOfBytes": "64"
					},
					"t_struct(Voter)153_storage": {
						"encoding": "inplace",
						"label": "struct Voting.Voter",
						"members": [
							{
								"astId": 148,
								"contract": "Voting/Voting.sol:Voting",
								"label": "isRegistered",
								"offset": 0,
								"slot": "0",
								"type": "t_bool"
							},
							{
								"astId": 150,
								"contract": "Voting/Voting.sol:Voting",
								"label": "hasVoted",
								"offset": 1,
								"slot": "0",
								"type": "t_bool"
							},
							{
								"astId": 152,
								"contract": "Voting/Voting.sol:Voting",
								"label": "votedProposalId",
								"offset": 0,
								"slot": "1",
								"type": "t_uint256"
							}
						],
						"numberOfBytes": "64"
					},
					"t_uint256": {
						"encoding": "inplace",
						"label": "uint256",
						"numberOfBytes": "32"
					}
				}
			},
			"userdoc": {
				"kind": "user",
				"methods": {},
				"version": 1
			}
		}
	}
}