{
	"Voting/Voting.sol": {
		"Voting": {
			"abi": [
				{
					"anonymous": false,
					"inputs": [
						{
							"indexed": true,
							"internalType": "address",
							"name": "previousOwner",
							"type": "address"
						},
						{
							"indexed": true,
							"internalType": "address",
							"name": "newOwner",
							"type": "address"
						}
					],
					"name": "OwnershipTransferred",
					"type": "event"
				},
				{
					"anonymous": false,
					"inputs": [
						{
							"indexed": false,
							"internalType": "uint256",
							"name": "proposalId",
							"type": "uint256"
						}
					],
					"name": "ProposalRegistered",
					"type": "event"
				},
				{
					"anonymous": false,
					"inputs": [
						{
							"indexed": false,
							"internalType": "address",
							"name": "voter",
							"type": "address"
						},
						{
							"indexed": false,
							"internalType": "uint256",
							"name": "proposalId",
							"type": "uint256"
						}
					],
					"name": "Voted",
					"type": "event"
				},
				{
					"anonymous": false,
					"inputs": [
						{
							"indexed": false,
							"internalType": "address",
							"name": "voterAddress",
							"type": "address"
						}
					],
					"name": "VoterRegistered",
					"type": "event"
				},
				{
					"anonymous": false,
					"inputs": [
						{
							"indexed": false,
							"internalType": "enum Voting.WorkflowStatus",
							"name": "previousStatus",
							"type": "uint8"
						},
						{
							"indexed": false,
							"internalType": "enum Voting.WorkflowStatus",
							"name": "newStatus",
							"type": "uint8"
						}
					],
					"name": "WorkflowStatusChange",
					"type": "event"
				},
				{
					"inputs": [],
					"name": "computeWinningProposal",
					"outputs": [],
					"stateMutability": "nonpayable",
					"type": "function"
				},
				{
					"inputs": [],
					"name": "getProposals",
					"outputs": [
						{
							"components": [
								{
									"internalType": "string",
									"name": "description",
									"type": "string"
								},
								{
									"internalType": "uint256",
									"name": "voteCount",
									"type": "uint256"
								}
							],
							"internalType": "struct Voting.Proposal[]",
							"name": "",
							"type": "tuple[]"
						}
					],
					"stateMutability": "view",
					"type": "function"
				},
				{
					"inputs": [],
					"name": "getWinningProposalDetails",
					"outputs": [
						{
							"components": [
								{
									"internalType": "string",
									"name": "description",
									"type": "string"
								},
								{
									"internalType": "uint256",
									"name": "voteCount",
									"type": "uint256"
								}
							],
							"internalType": "struct Voting.Proposal",
							"name": "",
							"type": "tuple"
						}
					],
					"stateMutability": "view",
					"type": "function"
				},
				{
					"inputs": [],
					"name": "owner",
					"outputs": [
						{
							"internalType": "address",
							"name": "",
							"type": "address"
						}
					],
					"stateMutability": "view",
					"type": "function"
				},
				{
					"inputs": [
						{
							"internalType": "uint256",
							"name": "",
							"type": "uint256"
						}
					],
					"name": "proposals",
					"outputs": [
						{
							"internalType": "string",
							"name": "description",
							"type": "string"
						},
						{
							"internalType": "uint256",
							"name": "voteCount",
							"type": "uint256"
						}
					],
					"stateMutability": "view",
					"type": "function"
				},
				{
					"inputs": [
						{
							"internalType": "string",
							"name": "description",
							"type": "string"
						}
					],
					"name": "registerProposal",
					"outputs": [],
					"stateMutability": "nonpayable",
					"type": "function"
				},
				{
					"inputs": [
						{
							"internalType": "address",
							"name": "_voterAdress",
							"type": "address"
						}
					],
					"name": "registerVoter",
					"outputs": [],
					"stateMutability": "nonpayable",
					"type": "function"
				},
				{
					"inputs": [
						{
							"internalType": "address[]",
							"name": "_votersAdresses",
							"type": "address[]"
						}
					],
					"name": "registerVoters",
					"outputs": [],
					"stateMutability": "nonpayable",
					"type": "function"
				},
				{
					"inputs": [],
					"name": "renounceOwnership",
					"outputs": [],
					"stateMutability": "nonpayable",
					"type": "function"
				},
				{
					"inputs": [],
					"name": "status",
					"outputs": [
						{
							"internalType": "enum Voting.WorkflowStatus",
							"name": "",
							"type": "uint8"
						}
					],
					"stateMutability": "view",
					"type": "function"
				},
				{
					"inputs": [
						{
							"internalType": "address",
							"name": "newOwner",
							"type": "address"
						}
					],
					"name": "transferOwnership",
					"outputs": [],
					"stateMutability": "nonpayable",
					"type": "function"
				},
				{
					"inputs": [
						{
							"internalType": "uint256",
							"name": "proposalId",
							"type": "uint256"
						}
					],
					"name": "voting",
					"outputs": [],
					"stateMutability": "nonpayable",
					"type": "function"
				},
				{
					"inputs": [
						{
							"internalType": "address",
							"name": "",
							"type": "address"
						}
					],
					"name": "whitelist",
					"outputs": [
						{
							"internalType": "bool",
							"name": "isRegistered",
							"type": "bool"
						},
						{
							"internalType": "bool",
							"name": "hasVoted",
							"type": "bool"
						},
						{
							"internalType": "uint256",
							"name": "votedProposalId",
							"type": "uint256"
						}
					],
					"stateMutability": "view",
					"type": "function"
				}
			],
			"devdoc": {
				"kind": "dev",
				"methods": {
					"owner()": {
						"details": "Returns the address of the current owner."
					},
					"renounceOwnership()": {
						"details": "Leaves the contract without owner. It will not be possible to call `onlyOwner` functions anymore. Can only be called by the current owner. NOTE: Renouncing ownership will leave the contract without an owner, thereby removing any functionality that is only available to the owner."
					},
					"transferOwnership(address)": {
						"details": "Transfers ownership of the contract to a new account (`newOwner`). Can only be called by the current owner."
					}
				},
				"version": 1
			},
			"evm": {
				"assembly": "    /* \"Voting/Voting.sol\":115:8077  contract Voting is Ownable {... */\n  mstore(0x40, 0x80)\n  callvalue\n  dup1\n  iszero\n  tag_1\n  jumpi\n  0x00\n  dup1\n  revert\ntag_1:\n  pop\n    /* \"@openzeppelin/contracts/access/Ownable.sol\":936:968  _transferOwnership(_msgSender()) */\n  tag_4\n    /* \"@openzeppelin/contracts/access/Ownable.sol\":955:967  _msgSender() */\n  tag_5\n    /* \"@openzeppelin/contracts/access/Ownable.sol\":955:965  _msgSender */\n  shl(0x20, tag_6)\n    /* \"@openzeppelin/contracts/access/Ownable.sol\":955:967  _msgSender() */\n  0x20\n  shr\n  jump\t// in\ntag_5:\n    /* \"@openzeppelin/contracts/access/Ownable.sol\":936:954  _transferOwnership */\n  shl(0x20, tag_7)\n    /* \"@openzeppelin/contracts/access/Ownable.sol\":936:968  _transferOwnership(_msgSender()) */\n  0x20\n  shr\n  jump\t// in\ntag_4:\n    /* \"Voting/Voting.sol\":115:8077  contract Voting is Ownable {... */\n  jump(tag_8)\n    /* \"@openzeppelin/contracts/utils/Context.sol\":640:736  function _msgSender() internal view virtual returns (address) {... */\ntag_6:\n    /* \"@openzeppelin/contracts/utils/Context.sol\":693:700  address */\n  0x00\n    /* \"@openzeppelin/contracts/utils/Context.sol\":719:729  msg.sender */\n  caller\n    /* \"@openzeppelin/contracts/utils/Context.sol\":712:729  return msg.sender */\n  swap1\n  pop\n    /* \"@openzeppelin/contracts/utils/Context.sol\":640:736  function _msgSender() internal view virtual returns (address) {... */\n  swap1\n  jump\t// out\n    /* \"@openzeppelin/contracts/access/Ownable.sol\":2433:2620  function _transferOwnership(address newOwner) internal virtual {... */\ntag_7:\n    /* \"@openzeppelin/contracts/access/Ownable.sol\":2506:2522  address oldOwner */\n  0x00\n    /* \"@openzeppelin/contracts/access/Ownable.sol\":2525:2531  _owner */\n  dup1\n  0x00\n  swap1\n  sload\n  swap1\n  0x0100\n  exp\n  swap1\n  div\n  0xffffffffffffffffffffffffffffffffffffffff\n  and\n    /* \"@openzeppelin/contracts/access/Ownable.sol\":2506:2531  address oldOwner = _owner */\n  swap1\n  pop\n    /* \"@openzeppelin/contracts/access/Ownable.sol\":2550:2558  newOwner */\n  dup2\n    /* \"@openzeppelin/contracts/access/Ownable.sol\":2541:2547  _owner */\n  0x00\n  dup1\n    /* \"@openzeppelin/contracts/access/Ownable.sol\":2541:2558  _owner = newOwner */\n  0x0100\n  exp\n  dup2\n  sload\n  dup2\n  0xffffffffffffffffffffffffffffffffffffffff\n  mul\n  not\n  and\n  swap1\n  dup4\n  0xffffffffffffffffffffffffffffffffffffffff\n  and\n  mul\n  or\n  swap1\n  sstore\n  pop\n    /* \"@openzeppelin/contracts/access/Ownable.sol\":2604:2612  newOwner */\n  dup2\n    /* \"@openzeppelin/contracts/access/Ownable.sol\":2573:2613  OwnershipTransferred(oldOwner, newOwner) */\n  0xffffffffffffffffffffffffffffffffffffffff\n  and\n    /* \"@openzeppelin/contracts/access/Ownable.sol\":2594:2602  oldOwner */\n  dup2\n    /* \"@openzeppelin/contracts/access/Ownable.sol\":2573:2613  OwnershipTransferred(oldOwner, newOwner) */\n  0xffffffffffffffffffffffffffffffffffffffff\n  and\n  0x8be0079c531659141344cd1fd0a4f28419497f9722a3daafe3b4186f6b6457e0\n  mload(0x40)\n  mload(0x40)\n  dup1\n  swap2\n  sub\n  swap1\n  log3\n    /* \"@openzeppelin/contracts/access/Ownable.sol\":2496:2620  {... */\n  pop\n    /* \"@openzeppelin/contracts/access/Ownable.sol\":2433:2620  function _transferOwnership(address newOwner) internal virtual {... */\n  pop\n  jump\t// out\n    /* \"Voting/Voting.sol\":115:8077  contract Voting is Ownable {... */\ntag_8:\n  dataSize(sub_0)\n  dup1\n  dataOffset(sub_0)\n  0x00\n  codecopy\n  0x00\n  return\nstop\n\nsub_0: assembly {\n        /* \"Voting/Voting.sol\":115:8077  contract Voting is Ownable {... */\n      mstore(0x40, 0x80)\n      callvalue\n      dup1\n      iszero\n      tag_1\n      jumpi\n      0x00\n      dup1\n      revert\n    tag_1:\n      pop\n      jumpi(tag_2, lt(calldatasize, 0x04))\n      shr(0xe0, calldataload(0x00))\n      dup1\n      0x715018a6\n      gt\n      tag_16\n      jumpi\n      dup1\n      0xb11accff\n      gt\n      tag_17\n      jumpi\n      dup1\n      0xb11accff\n      eq\n      tag_12\n      jumpi\n      dup1\n      0xd55ec9c1\n      eq\n      tag_13\n      jumpi\n      dup1\n      0xf2fde38b\n      eq\n      tag_14\n      jumpi\n      dup1\n      0xfd4a77f1\n      eq\n      tag_15\n      jumpi\n      jump(tag_2)\n    tag_17:\n      dup1\n      0x715018a6\n      eq\n      tag_9\n      jumpi\n      dup1\n      0x8da5cb5b\n      eq\n      tag_10\n      jumpi\n      dup1\n      0x9b19251a\n      eq\n      tag_11\n      jumpi\n      jump(tag_2)\n    tag_16:\n      dup1\n      0x013cf08b\n      eq\n      tag_3\n      jumpi\n      dup1\n      0x200d2ed2\n      eq\n      tag_4\n      jumpi\n      dup1\n      0x2f95355b\n      eq\n      tag_5\n      jumpi\n      dup1\n      0x38db6dd3\n      eq\n      tag_6\n      jumpi\n      dup1\n      0x62564c48\n      eq\n      tag_7\n      jumpi\n      dup1\n      0x6a00600c\n      eq\n      tag_8\n      jumpi\n    tag_2:\n      0x00\n      dup1\n      revert\n        /* \"Voting/Voting.sol\":724:751  Proposal[] public proposals */\n    tag_3:\n      tag_18\n      0x04\n      dup1\n      calldatasize\n      sub\n      dup2\n      add\n      swap1\n      tag_19\n      swap2\n      swap1\n      tag_20\n      jump\t// in\n    tag_19:\n      tag_21\n      jump\t// in\n    tag_18:\n      mload(0x40)\n      tag_22\n      swap3\n      swap2\n      swap1\n      tag_23\n      jump\t// in\n    tag_22:\n      mload(0x40)\n      dup1\n      swap2\n      sub\n      swap1\n      return\n        /* \"Voting/Voting.sol\":783:811  WorkflowStatus public status */\n    tag_4:\n      tag_24\n      tag_25\n      jump\t// in\n    tag_24:\n      mload(0x40)\n      tag_26\n      swap2\n      swap1\n      tag_27\n      jump\t// in\n    tag_26:\n      mload(0x40)\n      dup1\n      swap2\n      sub\n      swap1\n      return\n        /* \"Voting/Voting.sol\":6125:6372  function registerProposal(string memory description)... */\n    tag_5:\n      tag_28\n      0x04\n      dup1\n      calldatasize\n      sub\n      dup2\n      add\n      swap1\n      tag_29\n      swap2\n      swap1\n      tag_30\n      jump\t// in\n    tag_29:\n      tag_31\n      jump\t// in\n    tag_28:\n      stop\n        /* \"Voting/Voting.sol\":5292:5610  function registerVoter(address _voterAdress)... */\n    tag_6:\n      tag_32\n      0x04\n      dup1\n      calldatasize\n      sub\n      dup2\n      add\n      swap1\n      tag_33\n      swap2\n      swap1\n      tag_34\n      jump\t// in\n    tag_33:\n      tag_35\n      jump\t// in\n    tag_32:\n      stop\n        /* \"Voting/Voting.sol\":6673:6770  function getProposals() public view returns (Proposal[] memory) {... */\n    tag_7:\n      tag_36\n      tag_37\n      jump\t// in\n    tag_36:\n      mload(0x40)\n      tag_38\n      swap2\n      swap1\n      tag_39\n      jump\t// in\n    tag_38:\n      mload(0x40)\n      dup1\n      swap2\n      sub\n      swap1\n      return\n        /* \"Voting/Voting.sol\":7375:7883  function computeWinningProposal() ... */\n    tag_8:\n      tag_40\n      tag_41\n      jump\t// in\n    tag_40:\n      stop\n        /* \"@openzeppelin/contracts/access/Ownable.sol\":1831:1932  function renounceOwnership() public virtual onlyOwner {... */\n    tag_9:\n      tag_42\n      tag_43\n      jump\t// in\n    tag_42:\n      stop\n        /* \"@openzeppelin/contracts/access/Ownable.sol\":1201:1286  function owner() public view virtual returns (address) {... */\n    tag_10:\n      tag_44\n      tag_45\n      jump\t// in\n    tag_44:\n      mload(0x40)\n      tag_46\n      swap2\n      swap1\n      tag_47\n      jump\t// in\n    tag_46:\n      mload(0x40)\n      dup1\n      swap2\n      sub\n      swap1\n      return\n        /* \"Voting/Voting.sol\":675:717  mapping(address => Voter) public whitelist */\n    tag_11:\n      tag_48\n      0x04\n      dup1\n      calldatasize\n      sub\n      dup2\n      add\n      swap1\n      tag_49\n      swap2\n      swap1\n      tag_34\n      jump\t// in\n    tag_49:\n      tag_50\n      jump\t// in\n    tag_48:\n      mload(0x40)\n      tag_51\n      swap4\n      swap3\n      swap2\n      swap1\n      tag_52\n      jump\t// in\n    tag_51:\n      mload(0x40)\n      dup1\n      swap2\n      sub\n      swap1\n      return\n        /* \"Voting/Voting.sol\":7889:8070  function getWinningProposalDetails() ... */\n    tag_12:\n      tag_53\n      tag_54\n      jump\t// in\n    tag_53:\n      mload(0x40)\n      tag_55\n      swap2\n      swap1\n      tag_56\n      jump\t// in\n    tag_55:\n      mload(0x40)\n      dup1\n      swap2\n      sub\n      swap1\n      return\n        /* \"Voting/Voting.sol\":5661:6080  function registerVoters(address[] memory _votersAdresses)... */\n    tag_13:\n      tag_57\n      0x04\n      dup1\n      calldatasize\n      sub\n      dup2\n      add\n      swap1\n      tag_58\n      swap2\n      swap1\n      tag_59\n      jump\t// in\n    tag_58:\n      tag_60\n      jump\t// in\n    tag_57:\n      stop\n        /* \"@openzeppelin/contracts/access/Ownable.sol\":2081:2279  function transferOwnership(address newOwner) public virtual onlyOwner {... */\n    tag_14:\n      tag_61\n      0x04\n      dup1\n      calldatasize\n      sub\n      dup2\n      add\n      swap1\n      tag_62\n      swap2\n      swap1\n      tag_34\n      jump\t// in\n    tag_62:\n      tag_63\n      jump\t// in\n    tag_61:\n      stop\n        /* \"Voting/Voting.sol\":6776:7369  function voting(uint256 proposalId)... */\n    tag_15:\n      tag_64\n      0x04\n      dup1\n      calldatasize\n      sub\n      dup2\n      add\n      swap1\n      tag_65\n      swap2\n      swap1\n      tag_20\n      jump\t// in\n    tag_65:\n      tag_66\n      jump\t// in\n    tag_64:\n      stop\n        /* \"Voting/Voting.sol\":724:751  Proposal[] public proposals */\n    tag_21:\n      0x02\n      dup2\n      dup2\n      sload\n      dup2\n      lt\n      tag_67\n      jumpi\n      0x00\n      dup1\n      revert\n    tag_67:\n      swap1\n      0x00\n      mstore\n      keccak256(0x00, 0x20)\n      swap1\n      0x02\n      mul\n      add\n      0x00\n      swap2\n      pop\n      swap1\n      pop\n      dup1\n      0x00\n      add\n      dup1\n      sload\n      tag_69\n      swap1\n      tag_70\n      jump\t// in\n    tag_69:\n      dup1\n      0x1f\n      add\n      0x20\n      dup1\n      swap2\n      div\n      mul\n      0x20\n      add\n      mload(0x40)\n      swap1\n      dup2\n      add\n      0x40\n      mstore\n      dup1\n      swap3\n      swap2\n      swap1\n      dup2\n      dup2\n      mstore\n      0x20\n      add\n      dup3\n      dup1\n      sload\n      tag_71\n      swap1\n      tag_70\n      jump\t// in\n    tag_71:\n      dup1\n      iszero\n      tag_72\n      jumpi\n      dup1\n      0x1f\n      lt\n      tag_73\n      jumpi\n      0x0100\n      dup1\n      dup4\n      sload\n      div\n      mul\n      dup4\n      mstore\n      swap2\n      0x20\n      add\n      swap2\n      jump(tag_72)\n    tag_73:\n      dup3\n      add\n      swap2\n      swap1\n      0x00\n      mstore\n      keccak256(0x00, 0x20)\n      swap1\n    tag_74:\n      dup2\n      sload\n      dup2\n      mstore\n      swap1\n      0x01\n      add\n      swap1\n      0x20\n      add\n      dup1\n      dup4\n      gt\n      tag_74\n      jumpi\n      dup3\n      swap1\n      sub\n      0x1f\n      and\n      dup3\n      add\n      swap2\n    tag_72:\n      pop\n      pop\n      pop\n      pop\n      pop\n      swap1\n      dup1\n      0x01\n      add\n      sload\n      swap1\n      pop\n      dup3\n      jump\t// out\n        /* \"Voting/Voting.sol\":783:811  WorkflowStatus public status */\n    tag_25:\n      0x03\n      0x00\n      swap1\n      sload\n      swap1\n      0x0100\n      exp\n      swap1\n      div\n      0xff\n      and\n      dup2\n      jump\t// out\n        /* \"Voting/Voting.sol\":6125:6372  function registerProposal(string memory description)... */\n    tag_31:\n        /* \"Voting/Voting.sol\":1563:1579  _isWhitelisted() */\n      tag_76\n        /* \"Voting/Voting.sol\":1563:1577  _isWhitelisted */\n      tag_77\n        /* \"Voting/Voting.sol\":1563:1579  _isWhitelisted() */\n      jump\t// in\n    tag_76:\n        /* \"Voting/Voting.sol\":1264:1297  _isProposalsRegistrationStarted() */\n      tag_79\n        /* \"Voting/Voting.sol\":1264:1295  _isProposalsRegistrationStarted */\n      tag_80\n        /* \"Voting/Voting.sol\":1264:1297  _isProposalsRegistrationStarted() */\n      jump\t// in\n    tag_79:\n        /* \"Voting/Voting.sol\":6270:6279  proposals */\n      0x02\n        /* \"Voting/Voting.sol\":6285:6309  Proposal(description, 0) */\n      mload(0x40)\n      dup1\n      0x40\n      add\n      0x40\n      mstore\n      dup1\n        /* \"Voting/Voting.sol\":6294:6305  description */\n      dup4\n        /* \"Voting/Voting.sol\":6285:6309  Proposal(description, 0) */\n      dup2\n      mstore\n      0x20\n      add\n        /* \"Voting/Voting.sol\":6307:6308  0 */\n      0x00\n        /* \"Voting/Voting.sol\":6285:6309  Proposal(description, 0) */\n      dup2\n      mstore\n      pop\n        /* \"Voting/Voting.sol\":6270:6310  proposals.push(Proposal(description, 0)) */\n      swap1\n      dup1\n      0x01\n      dup2\n      sload\n      add\n      dup1\n      dup3\n      sstore\n      dup1\n      swap2\n      pop\n      pop\n      0x01\n      swap1\n      sub\n      swap1\n      0x00\n      mstore\n      keccak256(0x00, 0x20)\n      swap1\n      0x02\n      mul\n      add\n      0x00\n      swap1\n      swap2\n      swap1\n      swap2\n      swap1\n      swap2\n      pop\n      0x00\n      dup3\n      add\n      mload\n      dup2\n      0x00\n      add\n      swap1\n      dup2\n      tag_83\n      swap2\n      swap1\n      tag_84\n      jump\t// in\n    tag_83:\n      pop\n      0x20\n      dup3\n      add\n      mload\n      dup2\n      0x01\n      add\n      sstore\n      pop\n      pop\n        /* \"Voting/Voting.sol\":6325:6365  ProposalRegistered(proposals.length - 1) */\n      0x92e393e9b54e2f801d3ea4beb0c5e71a21cc34a5d34b77d0fb8a3aa1650dc18f\n        /* \"Voting/Voting.sol\":6363:6364  1 */\n      0x01\n        /* \"Voting/Voting.sol\":6344:6353  proposals */\n      0x02\n        /* \"Voting/Voting.sol\":6344:6360  proposals.length */\n      dup1\n      sload\n      swap1\n      pop\n        /* \"Voting/Voting.sol\":6344:6364  proposals.length - 1 */\n      tag_85\n      swap2\n      swap1\n      tag_86\n      jump\t// in\n    tag_85:\n        /* \"Voting/Voting.sol\":6325:6365  ProposalRegistered(proposals.length - 1) */\n      mload(0x40)\n      tag_87\n      swap2\n      swap1\n      tag_88\n      jump\t// in\n    tag_87:\n      mload(0x40)\n      dup1\n      swap2\n      sub\n      swap1\n      log1\n        /* \"Voting/Voting.sol\":6125:6372  function registerProposal(string memory description)... */\n      pop\n      jump\t// out\n        /* \"Voting/Voting.sol\":5292:5610  function registerVoter(address _voterAdress)... */\n    tag_35:\n        /* \"@openzeppelin/contracts/access/Ownable.sol\":1094:1107  _checkOwner() */\n      tag_90\n        /* \"@openzeppelin/contracts/access/Ownable.sol\":1094:1105  _checkOwner */\n      tag_91\n        /* \"@openzeppelin/contracts/access/Ownable.sol\":1094:1107  _checkOwner() */\n      jump\t// in\n    tag_90:\n        /* \"Voting/Voting.sol\":1160:1188  _isRegisteringVotersStatus() */\n      tag_93\n        /* \"Voting/Voting.sol\":1160:1186  _isRegisteringVotersStatus */\n      tag_94\n        /* \"Voting/Voting.sol\":1160:1188  _isRegisteringVotersStatus() */\n      jump\t// in\n    tag_93:\n        /* \"Voting/Voting.sol\":5468:5473  false */\n      0x00\n        /* \"Voting/Voting.sol\":5428:5473  whitelist[_voterAdress].isRegistered == false */\n      iszero\n      iszero\n        /* \"Voting/Voting.sol\":5428:5437  whitelist */\n      0x01\n        /* \"Voting/Voting.sol\":5428:5451  whitelist[_voterAdress] */\n      0x00\n        /* \"Voting/Voting.sol\":5438:5450  _voterAdress */\n      dup4\n        /* \"Voting/Voting.sol\":5428:5451  whitelist[_voterAdress] */\n      0xffffffffffffffffffffffffffffffffffffffff\n      and\n      0xffffffffffffffffffffffffffffffffffffffff\n      and\n      dup2\n      mstore\n      0x20\n      add\n      swap1\n      dup2\n      mstore\n      0x20\n      add\n      0x00\n      keccak256\n        /* \"Voting/Voting.sol\":5428:5464  whitelist[_voterAdress].isRegistered */\n      0x00\n      add\n      0x00\n      swap1\n      sload\n      swap1\n      0x0100\n      exp\n      swap1\n      div\n      0xff\n      and\n        /* \"Voting/Voting.sol\":5428:5473  whitelist[_voterAdress].isRegistered == false */\n      iszero\n      iszero\n      eq\n        /* \"Voting/Voting.sol\":5420:5506  require(whitelist[_voterAdress].isRegistered == false, \"Voter is already whitelisted\") */\n      tag_96\n      jumpi\n      mload(0x40)\n      0x08c379a000000000000000000000000000000000000000000000000000000000\n      dup2\n      mstore\n      0x04\n      add\n      tag_97\n      swap1\n      tag_98\n      jump\t// in\n    tag_97:\n      mload(0x40)\n      dup1\n      swap2\n      sub\n      swap1\n      revert\n    tag_96:\n        /* \"Voting/Voting.sol\":5555:5559  true */\n      0x01\n        /* \"Voting/Voting.sol\":5516:5525  whitelist */\n      dup1\n        /* \"Voting/Voting.sol\":5516:5539  whitelist[_voterAdress] */\n      0x00\n        /* \"Voting/Voting.sol\":5526:5538  _voterAdress */\n      dup4\n        /* \"Voting/Voting.sol\":5516:5539  whitelist[_voterAdress] */\n      0xffffffffffffffffffffffffffffffffffffffff\n      and\n      0xffffffffffffffffffffffffffffffffffffffff\n      and\n      dup2\n      mstore\n      0x20\n      add\n      swap1\n      dup2\n      mstore\n      0x20\n      add\n      0x00\n      keccak256\n        /* \"Voting/Voting.sol\":5516:5552  whitelist[_voterAdress].isRegistered */\n      0x00\n      add\n      0x00\n        /* \"Voting/Voting.sol\":5516:5559  whitelist[_voterAdress].isRegistered = true */\n      0x0100\n      exp\n      dup2\n      sload\n      dup2\n      0xff\n      mul\n      not\n      and\n      swap1\n      dup4\n      iszero\n      iszero\n      mul\n      or\n      swap1\n      sstore\n      pop\n        /* \"Voting/Voting.sol\":5574:5603  VoterRegistered(_voterAdress) */\n      0xb6be2187d059cc2a55fe29e0e503b566e1e0f8c8780096e185429350acffd3dd\n        /* \"Voting/Voting.sol\":5590:5602  _voterAdress */\n      dup2\n        /* \"Voting/Voting.sol\":5574:5603  VoterRegistered(_voterAdress) */\n      mload(0x40)\n      tag_99\n      swap2\n      swap1\n      tag_47\n      jump\t// in\n    tag_99:\n      mload(0x40)\n      dup1\n      swap2\n      sub\n      swap1\n      log1\n        /* \"Voting/Voting.sol\":5292:5610  function registerVoter(address _voterAdress)... */\n      pop\n      jump\t// out\n        /* \"Voting/Voting.sol\":6673:6770  function getProposals() public view returns (Proposal[] memory) {... */\n    tag_37:\n        /* \"Voting/Voting.sol\":6718:6735  Proposal[] memory */\n      0x60\n        /* \"Voting/Voting.sol\":6754:6763  proposals */\n      0x02\n        /* \"Voting/Voting.sol\":6747:6763  return proposals */\n      dup1\n      sload\n      dup1\n      0x20\n      mul\n      0x20\n      add\n      mload(0x40)\n      swap1\n      dup2\n      add\n      0x40\n      mstore\n      dup1\n      swap3\n      swap2\n      swap1\n      dup2\n      dup2\n      mstore\n      0x20\n      add\n      0x00\n      swap1\n    tag_101:\n      dup3\n      dup3\n      lt\n      iszero\n      tag_102\n      jumpi\n      dup4\n      dup3\n      swap1\n      0x00\n      mstore\n      keccak256(0x00, 0x20)\n      swap1\n      0x02\n      mul\n      add\n      mload(0x40)\n      dup1\n      0x40\n      add\n      0x40\n      mstore\n      swap1\n      dup2\n      0x00\n      dup3\n      add\n      dup1\n      sload\n      tag_104\n      swap1\n      tag_70\n      jump\t// in\n    tag_104:\n      dup1\n      0x1f\n      add\n      0x20\n      dup1\n      swap2\n      div\n      mul\n      0x20\n      add\n      mload(0x40)\n      swap1\n      dup2\n      add\n      0x40\n      mstore\n      dup1\n      swap3\n      swap2\n      swap1\n      dup2\n      dup2\n      mstore\n      0x20\n      add\n      dup3\n      dup1\n      sload\n      tag_105\n      swap1\n      tag_70\n      jump\t// in\n    tag_105:\n      dup1\n      iszero\n      tag_106\n      jumpi\n      dup1\n      0x1f\n      lt\n      tag_107\n      jumpi\n      0x0100\n      dup1\n      dup4\n      sload\n      div\n      mul\n      dup4\n      mstore\n      swap2\n      0x20\n      add\n      swap2\n      jump(tag_106)\n    tag_107:\n      dup3\n      add\n      swap2\n      swap1\n      0x00\n      mstore\n      keccak256(0x00, 0x20)\n      swap1\n    tag_108:\n      dup2\n      sload\n      dup2\n      mstore\n      swap1\n      0x01\n      add\n      swap1\n      0x20\n      add\n      dup1\n      dup4\n      gt\n      tag_108\n      jumpi\n      dup3\n      swap1\n      sub\n      0x1f\n      and\n      dup3\n      add\n      swap2\n    tag_106:\n      pop\n      pop\n      pop\n      pop\n      pop\n      dup2\n      mstore\n      0x20\n      add\n      0x01\n      dup3\n      add\n      sload\n      dup2\n      mstore\n      pop\n      pop\n      dup2\n      mstore\n      0x20\n      add\n      swap1\n      0x01\n      add\n      swap1\n      jump(tag_101)\n    tag_102:\n      pop\n      pop\n      pop\n      pop\n      swap1\n      pop\n        /* \"Voting/Voting.sol\":6673:6770  function getProposals() public view returns (Proposal[] memory) {... */\n      swap1\n      jump\t// out\n        /* \"Voting/Voting.sol\":7375:7883  function computeWinningProposal() ... */\n    tag_41:\n        /* \"@openzeppelin/contracts/access/Ownable.sol\":1094:1107  _checkOwner() */\n      tag_110\n        /* \"@openzeppelin/contracts/access/Ownable.sol\":1094:1105  _checkOwner */\n      tag_91\n        /* \"@openzeppelin/contracts/access/Ownable.sol\":1094:1107  _checkOwner() */\n      jump\t// in\n    tag_110:\n        /* \"Voting/Voting.sol\":1644:1667  _isVotingSessionEnded() */\n      tag_112\n        /* \"Voting/Voting.sol\":1644:1665  _isVotingSessionEnded */\n      tag_113\n        /* \"Voting/Voting.sol\":1644:1667  _isVotingSessionEnded() */\n      jump\t// in\n    tag_112:\n        /* \"Voting/Voting.sol\":7490:7506  uint256 maxVotes */\n      0x00\n        /* \"Voting/Voting.sol\":7520:7549  uint256 tempWinningProposalId */\n      dup1\n        /* \"Voting/Voting.sol\":7564:7573  uint256 i */\n      dup1\n        /* \"Voting/Voting.sol\":7576:7577  0 */\n      0x00\n        /* \"Voting/Voting.sol\":7564:7577  uint256 i = 0 */\n      swap1\n      pop\n        /* \"Voting/Voting.sol\":7559:7778  for (uint256 i = 0; i < proposals.length; i++) {... */\n    tag_115:\n        /* \"Voting/Voting.sol\":7583:7592  proposals */\n      0x02\n        /* \"Voting/Voting.sol\":7583:7599  proposals.length */\n      dup1\n      sload\n      swap1\n      pop\n        /* \"Voting/Voting.sol\":7579:7580  i */\n      dup2\n        /* \"Voting/Voting.sol\":7579:7599  i < proposals.length */\n      lt\n        /* \"Voting/Voting.sol\":7559:7778  for (uint256 i = 0; i < proposals.length; i++) {... */\n      iszero\n      tag_116\n      jumpi\n        /* \"Voting/Voting.sol\":7649:7657  maxVotes */\n      dup3\n        /* \"Voting/Voting.sol\":7624:7633  proposals */\n      0x02\n        /* \"Voting/Voting.sol\":7634:7635  i */\n      dup3\n        /* \"Voting/Voting.sol\":7624:7636  proposals[i] */\n      dup2\n      sload\n      dup2\n      lt\n      tag_118\n      jumpi\n      tag_119\n      tag_120\n      jump\t// in\n    tag_119:\n    tag_118:\n      swap1\n      0x00\n      mstore\n      keccak256(0x00, 0x20)\n      swap1\n      0x02\n      mul\n      add\n        /* \"Voting/Voting.sol\":7624:7646  proposals[i].voteCount */\n      0x01\n      add\n      sload\n        /* \"Voting/Voting.sol\":7624:7657  proposals[i].voteCount > maxVotes */\n      gt\n        /* \"Voting/Voting.sol\":7620:7768  if (proposals[i].voteCount > maxVotes) {... */\n      iszero\n      tag_122\n      jumpi\n        /* \"Voting/Voting.sol\":7688:7697  proposals */\n      0x02\n        /* \"Voting/Voting.sol\":7698:7699  i */\n      dup2\n        /* \"Voting/Voting.sol\":7688:7700  proposals[i] */\n      dup2\n      sload\n      dup2\n      lt\n      tag_123\n      jumpi\n      tag_124\n      tag_120\n      jump\t// in\n    tag_124:\n    tag_123:\n      swap1\n      0x00\n      mstore\n      keccak256(0x00, 0x20)\n      swap1\n      0x02\n      mul\n      add\n        /* \"Voting/Voting.sol\":7688:7710  proposals[i].voteCount */\n      0x01\n      add\n      sload\n        /* \"Voting/Voting.sol\":7677:7710  maxVotes = proposals[i].voteCount */\n      swap3\n      pop\n        /* \"Voting/Voting.sol\":7752:7753  i */\n      dup1\n        /* \"Voting/Voting.sol\":7728:7753  tempWinningProposalId = i */\n      swap2\n      pop\n        /* \"Voting/Voting.sol\":7620:7768  if (proposals[i].voteCount > maxVotes) {... */\n    tag_122:\n        /* \"Voting/Voting.sol\":7601:7604  i++ */\n      dup1\n      dup1\n      tag_126\n      swap1\n      tag_127\n      jump\t// in\n    tag_126:\n      swap2\n      pop\n      pop\n        /* \"Voting/Voting.sol\":7559:7778  for (uint256 i = 0; i < proposals.length; i++) {... */\n      jump(tag_115)\n    tag_116:\n      pop\n        /* \"Voting/Voting.sol\":7807:7828  tempWinningProposalId */\n      dup1\n        /* \"Voting/Voting.sol\":7787:7804  winningProposalId */\n      0x04\n        /* \"Voting/Voting.sol\":7787:7828  winningProposalId = tempWinningProposalId */\n      dup2\n      swap1\n      sstore\n      pop\n        /* \"Voting/Voting.sol\":7838:7876  setStatus(WorkflowStatus.VotesTallied) */\n      tag_128\n        /* \"Voting/Voting.sol\":7848:7875  WorkflowStatus.VotesTallied */\n      0x05\n        /* \"Voting/Voting.sol\":7838:7847  setStatus */\n      tag_129\n        /* \"Voting/Voting.sol\":7838:7876  setStatus(WorkflowStatus.VotesTallied) */\n      jump\t// in\n    tag_128:\n        /* \"Voting/Voting.sol\":7480:7883  {... */\n      pop\n      pop\n        /* \"Voting/Voting.sol\":7375:7883  function computeWinningProposal() ... */\n      jump\t// out\n        /* \"@openzeppelin/contracts/access/Ownable.sol\":1831:1932  function renounceOwnership() public virtual onlyOwner {... */\n    tag_43:\n        /* \"@openzeppelin/contracts/access/Ownable.sol\":1094:1107  _checkOwner() */\n      tag_131\n        /* \"@openzeppelin/contracts/access/Ownable.sol\":1094:1105  _checkOwner */\n      tag_91\n        /* \"@openzeppelin/contracts/access/Ownable.sol\":1094:1107  _checkOwner() */\n      jump\t// in\n    tag_131:\n        /* \"@openzeppelin/contracts/access/Ownable.sol\":1895:1925  _transferOwnership(address(0)) */\n      tag_133\n        /* \"@openzeppelin/contracts/access/Ownable.sol\":1922:1923  0 */\n      0x00\n        /* \"@openzeppelin/contracts/access/Ownable.sol\":1895:1913  _transferOwnership */\n      tag_134\n        /* \"@openzeppelin/contracts/access/Ownable.sol\":1895:1925  _transferOwnership(address(0)) */\n      jump\t// in\n    tag_133:\n        /* \"@openzeppelin/contracts/access/Ownable.sol\":1831:1932  function renounceOwnership() public virtual onlyOwner {... */\n      jump\t// out\n        /* \"@openzeppelin/contracts/access/Ownable.sol\":1201:1286  function owner() public view virtual returns (address) {... */\n    tag_45:\n        /* \"@openzeppelin/contracts/access/Ownable.sol\":1247:1254  address */\n      0x00\n        /* \"@openzeppelin/contracts/access/Ownable.sol\":1273:1279  _owner */\n      dup1\n      0x00\n      swap1\n      sload\n      swap1\n      0x0100\n      exp\n      swap1\n      div\n      0xffffffffffffffffffffffffffffffffffffffff\n      and\n        /* \"@openzeppelin/contracts/access/Ownable.sol\":1266:1279  return _owner */\n      swap1\n      pop\n        /* \"@openzeppelin/contracts/access/Ownable.sol\":1201:1286  function owner() public view virtual returns (address) {... */\n      swap1\n      jump\t// out\n        /* \"Voting/Voting.sol\":675:717  mapping(address => Voter) public whitelist */\n    tag_50:\n      mstore(0x20, 0x01)\n      dup1\n      0x00\n      mstore\n      keccak256(0x00, 0x40)\n      0x00\n      swap2\n      pop\n      swap1\n      pop\n      dup1\n      0x00\n      add\n      0x00\n      swap1\n      sload\n      swap1\n      0x0100\n      exp\n      swap1\n      div\n      0xff\n      and\n      swap1\n      dup1\n      0x00\n      add\n      0x01\n      swap1\n      sload\n      swap1\n      0x0100\n      exp\n      swap1\n      div\n      0xff\n      and\n      swap1\n      dup1\n      0x01\n      add\n      sload\n      swap1\n      pop\n      dup4\n      jump\t// out\n        /* \"Voting/Voting.sol\":7889:8070  function getWinningProposalDetails() ... */\n    tag_54:\n        /* \"Voting/Voting.sol\":7998:8013  Proposal memory */\n      tag_136\n      tag_137\n      jump\t// in\n    tag_136:\n        /* \"Voting/Voting.sol\":1726:1743  _isVotesTallied() */\n      tag_139\n        /* \"Voting/Voting.sol\":1726:1741  _isVotesTallied */\n      tag_140\n        /* \"Voting/Voting.sol\":1726:1743  _isVotesTallied() */\n      jump\t// in\n    tag_139:\n        /* \"Voting/Voting.sol\":8035:8044  proposals */\n      0x02\n        /* \"Voting/Voting.sol\":8045:8062  winningProposalId */\n      sload(0x04)\n        /* \"Voting/Voting.sol\":8035:8063  proposals[winningProposalId] */\n      dup2\n      sload\n      dup2\n      lt\n      tag_142\n      jumpi\n      tag_143\n      tag_120\n      jump\t// in\n    tag_143:\n    tag_142:\n      swap1\n      0x00\n      mstore\n      keccak256(0x00, 0x20)\n      swap1\n      0x02\n      mul\n      add\n        /* \"Voting/Voting.sol\":8028:8063  return proposals[winningProposalId] */\n      mload(0x40)\n      dup1\n      0x40\n      add\n      0x40\n      mstore\n      swap1\n      dup2\n      0x00\n      dup3\n      add\n      dup1\n      sload\n      tag_145\n      swap1\n      tag_70\n      jump\t// in\n    tag_145:\n      dup1\n      0x1f\n      add\n      0x20\n      dup1\n      swap2\n      div\n      mul\n      0x20\n      add\n      mload(0x40)\n      swap1\n      dup2\n      add\n      0x40\n      mstore\n      dup1\n      swap3\n      swap2\n      swap1\n      dup2\n      dup2\n      mstore\n      0x20\n      add\n      dup3\n      dup1\n      sload\n      tag_146\n      swap1\n      tag_70\n      jump\t// in\n    tag_146:\n      dup1\n      iszero\n      tag_147\n      jumpi\n      dup1\n      0x1f\n      lt\n      tag_148\n      jumpi\n      0x0100\n      dup1\n      dup4\n      sload\n      div\n      mul\n      dup4\n      mstore\n      swap2\n      0x20\n      add\n      swap2\n      jump(tag_147)\n    tag_148:\n      dup3\n      add\n      swap2\n      swap1\n      0x00\n      mstore\n      keccak256(0x00, 0x20)\n      swap1\n    tag_149:\n      dup2\n      sload\n      dup2\n      mstore\n      swap1\n      0x01\n      add\n      swap1\n      0x20\n      add\n      dup1\n      dup4\n      gt\n      tag_149\n      jumpi\n      dup3\n      swap1\n      sub\n      0x1f\n      and\n      dup3\n      add\n      swap2\n    tag_147:\n      pop\n      pop\n      pop\n      pop\n      pop\n      dup2\n      mstore\n      0x20\n      add\n      0x01\n      dup3\n      add\n      sload\n      dup2\n      mstore\n      pop\n      pop\n      swap1\n      pop\n        /* \"Voting/Voting.sol\":7889:8070  function getWinningProposalDetails() ... */\n      swap1\n      jump\t// out\n        /* \"Voting/Voting.sol\":5661:6080  function registerVoters(address[] memory _votersAdresses)... */\n    tag_60:\n        /* \"@openzeppelin/contracts/access/Ownable.sol\":1094:1107  _checkOwner() */\n      tag_151\n        /* \"@openzeppelin/contracts/access/Ownable.sol\":1094:1105  _checkOwner */\n      tag_91\n        /* \"@openzeppelin/contracts/access/Ownable.sol\":1094:1107  _checkOwner() */\n      jump\t// in\n    tag_151:\n        /* \"Voting/Voting.sol\":1160:1188  _isRegisteringVotersStatus() */\n      tag_153\n        /* \"Voting/Voting.sol\":1160:1186  _isRegisteringVotersStatus */\n      tag_94\n        /* \"Voting/Voting.sol\":1160:1188  _isRegisteringVotersStatus() */\n      jump\t// in\n    tag_153:\n        /* \"Voting/Voting.sol\":5807:5816  uint256 i */\n      0x00\n        /* \"Voting/Voting.sol\":5802:6074  for (uint256 i = 0; i < _votersAdresses.length; i++) {... */\n    tag_155:\n        /* \"Voting/Voting.sol\":5826:5841  _votersAdresses */\n      dup2\n        /* \"Voting/Voting.sol\":5826:5848  _votersAdresses.length */\n      mload\n        /* \"Voting/Voting.sol\":5822:5823  i */\n      dup2\n        /* \"Voting/Voting.sol\":5822:5848  i < _votersAdresses.length */\n      lt\n        /* \"Voting/Voting.sol\":5802:6074  for (uint256 i = 0; i < _votersAdresses.length; i++) {... */\n      iszero\n      tag_156\n      jumpi\n        /* \"Voting/Voting.sol\":5919:5923  true */\n      0x01\n        /* \"Voting/Voting.sol\":5874:5883  whitelist */\n      dup1\n        /* \"Voting/Voting.sol\":5874:5903  whitelist[_votersAdresses[i]] */\n      0x00\n        /* \"Voting/Voting.sol\":5884:5899  _votersAdresses */\n      dup5\n        /* \"Voting/Voting.sol\":5900:5901  i */\n      dup5\n        /* \"Voting/Voting.sol\":5884:5902  _votersAdresses[i] */\n      dup2\n      mload\n      dup2\n      lt\n      tag_158\n      jumpi\n      tag_159\n      tag_120\n      jump\t// in\n    tag_159:\n    tag_158:\n      0x20\n      mul\n      0x20\n      add\n      add\n      mload\n        /* \"Voting/Voting.sol\":5874:5903  whitelist[_votersAdresses[i]] */\n      0xffffffffffffffffffffffffffffffffffffffff\n      and\n      0xffffffffffffffffffffffffffffffffffffffff\n      and\n      dup2\n      mstore\n      0x20\n      add\n      swap1\n      dup2\n      mstore\n      0x20\n      add\n      0x00\n      keccak256\n        /* \"Voting/Voting.sol\":5874:5916  whitelist[_votersAdresses[i]].isRegistered */\n      0x00\n      add\n      0x00\n        /* \"Voting/Voting.sol\":5874:5923  whitelist[_votersAdresses[i]].isRegistered = true */\n      0x0100\n      exp\n      dup2\n      sload\n      dup2\n      0xff\n      mul\n      not\n      and\n      swap1\n      dup4\n      iszero\n      iszero\n      mul\n      or\n      swap1\n      sstore\n        /* \"Voting/Voting.sol\":5869:6064  if ( whitelist[_votersAdresses[i]].isRegistered = true){... */\n      iszero\n      tag_160\n      jumpi\n        /* \"Voting/Voting.sol\":5987:5991  true */\n      0x01\n        /* \"Voting/Voting.sol\":5942:5951  whitelist */\n      dup1\n        /* \"Voting/Voting.sol\":5942:5971  whitelist[_votersAdresses[i]] */\n      0x00\n        /* \"Voting/Voting.sol\":5952:5967  _votersAdresses */\n      dup5\n        /* \"Voting/Voting.sol\":5968:5969  i */\n      dup5\n        /* \"Voting/Voting.sol\":5952:5970  _votersAdresses[i] */\n      dup2\n      mload\n      dup2\n      lt\n      tag_161\n      jumpi\n      tag_162\n      tag_120\n      jump\t// in\n    tag_162:\n    tag_161:\n      0x20\n      mul\n      0x20\n      add\n      add\n      mload\n        /* \"Voting/Voting.sol\":5942:5971  whitelist[_votersAdresses[i]] */\n      0xffffffffffffffffffffffffffffffffffffffff\n      and\n      0xffffffffffffffffffffffffffffffffffffffff\n      and\n      dup2\n      mstore\n      0x20\n      add\n      swap1\n      dup2\n      mstore\n      0x20\n      add\n      0x00\n      keccak256\n        /* \"Voting/Voting.sol\":5942:5984  whitelist[_votersAdresses[i]].isRegistered */\n      0x00\n      add\n      0x00\n        /* \"Voting/Voting.sol\":5942:5991  whitelist[_votersAdresses[i]].isRegistered = true */\n      0x0100\n      exp\n      dup2\n      sload\n      dup2\n      0xff\n      mul\n      not\n      and\n      swap1\n      dup4\n      iszero\n      iszero\n      mul\n      or\n      swap1\n      sstore\n      pop\n        /* \"Voting/Voting.sol\":6014:6049  VoterRegistered(_votersAdresses[i]) */\n      0xb6be2187d059cc2a55fe29e0e503b566e1e0f8c8780096e185429350acffd3dd\n        /* \"Voting/Voting.sol\":6030:6045  _votersAdresses */\n      dup3\n        /* \"Voting/Voting.sol\":6046:6047  i */\n      dup3\n        /* \"Voting/Voting.sol\":6030:6048  _votersAdresses[i] */\n      dup2\n      mload\n      dup2\n      lt\n      tag_163\n      jumpi\n      tag_164\n      tag_120\n      jump\t// in\n    tag_164:\n    tag_163:\n      0x20\n      mul\n      0x20\n      add\n      add\n      mload\n        /* \"Voting/Voting.sol\":6014:6049  VoterRegistered(_votersAdresses[i]) */\n      mload(0x40)\n      tag_165\n      swap2\n      swap1\n      tag_47\n      jump\t// in\n    tag_165:\n      mload(0x40)\n      dup1\n      swap2\n      sub\n      swap1\n      log1\n        /* \"Voting/Voting.sol\":5869:6064  if ( whitelist[_votersAdresses[i]].isRegistered = true){... */\n    tag_160:\n        /* \"Voting/Voting.sol\":5850:5853  i++ */\n      dup1\n      dup1\n      tag_166\n      swap1\n      tag_127\n      jump\t// in\n    tag_166:\n      swap2\n      pop\n      pop\n        /* \"Voting/Voting.sol\":5802:6074  for (uint256 i = 0; i < _votersAdresses.length; i++) {... */\n      jump(tag_155)\n    tag_156:\n      pop\n        /* \"Voting/Voting.sol\":5661:6080  function registerVoters(address[] memory _votersAdresses)... */\n      pop\n      jump\t// out\n        /* \"@openzeppelin/contracts/access/Ownable.sol\":2081:2279  function transferOwnership(address newOwner) public virtual onlyOwner {... */\n    tag_63:\n        /* \"@openzeppelin/contracts/access/Ownable.sol\":1094:1107  _checkOwner() */\n      tag_168\n        /* \"@openzeppelin/contracts/access/Ownable.sol\":1094:1105  _checkOwner */\n      tag_91\n        /* \"@openzeppelin/contracts/access/Ownable.sol\":1094:1107  _checkOwner() */\n      jump\t// in\n    tag_168:\n        /* \"@openzeppelin/contracts/access/Ownable.sol\":2189:2190  0 */\n      0x00\n        /* \"@openzeppelin/contracts/access/Ownable.sol\":2169:2191  newOwner != address(0) */\n      0xffffffffffffffffffffffffffffffffffffffff\n      and\n        /* \"@openzeppelin/contracts/access/Ownable.sol\":2169:2177  newOwner */\n      dup2\n        /* \"@openzeppelin/contracts/access/Ownable.sol\":2169:2191  newOwner != address(0) */\n      0xffffffffffffffffffffffffffffffffffffffff\n      and\n      sub\n        /* \"@openzeppelin/contracts/access/Ownable.sol\":2161:2234  require(newOwner != address(0), \"Ownable: new owner is the zero address\") */\n      tag_170\n      jumpi\n      mload(0x40)\n      0x08c379a000000000000000000000000000000000000000000000000000000000\n      dup2\n      mstore\n      0x04\n      add\n      tag_171\n      swap1\n      tag_172\n      jump\t// in\n    tag_171:\n      mload(0x40)\n      dup1\n      swap2\n      sub\n      swap1\n      revert\n    tag_170:\n        /* \"@openzeppelin/contracts/access/Ownable.sol\":2244:2272  _transferOwnership(newOwner) */\n      tag_173\n        /* \"@openzeppelin/contracts/access/Ownable.sol\":2263:2271  newOwner */\n      dup2\n        /* \"@openzeppelin/contracts/access/Ownable.sol\":2244:2262  _transferOwnership */\n      tag_134\n        /* \"@openzeppelin/contracts/access/Ownable.sol\":2244:2272  _transferOwnership(newOwner) */\n      jump\t// in\n    tag_173:\n        /* \"@openzeppelin/contracts/access/Ownable.sol\":2081:2279  function transferOwnership(address newOwner) public virtual onlyOwner {... */\n      pop\n      jump\t// out\n        /* \"Voting/Voting.sol\":6776:7369  function voting(uint256 proposalId)... */\n    tag_66:\n        /* \"Voting/Voting.sol\":1365:1390  _isVotingSessionStarted() */\n      tag_175\n        /* \"Voting/Voting.sol\":1365:1388  _isVotingSessionStarted */\n      tag_176\n        /* \"Voting/Voting.sol\":1365:1390  _isVotingSessionStarted() */\n      jump\t// in\n    tag_175:\n        /* \"Voting/Voting.sol\":1563:1579  _isWhitelisted() */\n      tag_178\n        /* \"Voting/Voting.sol\":1563:1577  _isWhitelisted */\n      tag_77\n        /* \"Voting/Voting.sol\":1563:1579  _isWhitelisted() */\n      jump\t// in\n    tag_178:\n        /* \"Voting/Voting.sol\":6918:6927  whitelist */\n      0x01\n        /* \"Voting/Voting.sol\":6918:6939  whitelist[msg.sender] */\n      0x00\n        /* \"Voting/Voting.sol\":6928:6938  msg.sender */\n      caller\n        /* \"Voting/Voting.sol\":6918:6939  whitelist[msg.sender] */\n      0xffffffffffffffffffffffffffffffffffffffff\n      and\n      0xffffffffffffffffffffffffffffffffffffffff\n      and\n      dup2\n      mstore\n      0x20\n      add\n      swap1\n      dup2\n      mstore\n      0x20\n      add\n      0x00\n      keccak256\n        /* \"Voting/Voting.sol\":6918:6948  whitelist[msg.sender].hasVoted */\n      0x00\n      add\n      0x01\n      swap1\n      sload\n      swap1\n      0x0100\n      exp\n      swap1\n      div\n      0xff\n      and\n        /* \"Voting/Voting.sol\":6917:6948  !whitelist[msg.sender].hasVoted */\n      iszero\n        /* \"Voting/Voting.sol\":6896:7022  require(... */\n      tag_180\n      jumpi\n      mload(0x40)\n      0x08c379a000000000000000000000000000000000000000000000000000000000\n      dup2\n      mstore\n      0x04\n      add\n      tag_181\n      swap1\n      tag_182\n      jump\t// in\n    tag_181:\n      mload(0x40)\n      dup1\n      swap2\n      sub\n      swap1\n      revert\n    tag_180:\n        /* \"Voting/Voting.sol\":7066:7075  proposals */\n      0x02\n        /* \"Voting/Voting.sol\":7066:7082  proposals.length */\n      dup1\n      sload\n      swap1\n      pop\n        /* \"Voting/Voting.sol\":7053:7063  proposalId */\n      dup2\n        /* \"Voting/Voting.sol\":7053:7082  proposalId < proposals.length */\n      lt\n        /* \"Voting/Voting.sol\":7032:7168  require(... */\n      tag_183\n      jumpi\n      mload(0x40)\n      0x08c379a000000000000000000000000000000000000000000000000000000000\n      dup2\n      mstore\n      0x04\n      add\n      tag_184\n      swap1\n      tag_185\n      jump\t// in\n    tag_184:\n      mload(0x40)\n      dup1\n      swap2\n      sub\n      swap1\n      revert\n    tag_183:\n        /* \"Voting/Voting.sol\":7178:7187  proposals */\n      0x02\n        /* \"Voting/Voting.sol\":7188:7198  proposalId */\n      dup2\n        /* \"Voting/Voting.sol\":7178:7199  proposals[proposalId] */\n      dup2\n      sload\n      dup2\n      lt\n      tag_186\n      jumpi\n      tag_187\n      tag_120\n      jump\t// in\n    tag_187:\n    tag_186:\n      swap1\n      0x00\n      mstore\n      keccak256(0x00, 0x20)\n      swap1\n      0x02\n      mul\n      add\n        /* \"Voting/Voting.sol\":7178:7209  proposals[proposalId].voteCount */\n      0x01\n      add\n      0x00\n        /* \"Voting/Voting.sol\":7178:7211  proposals[proposalId].voteCount++ */\n      dup2\n      sload\n      dup1\n      swap3\n      swap2\n      swap1\n      tag_189\n      swap1\n      tag_127\n      jump\t// in\n    tag_189:\n      swap2\n      swap1\n      pop\n      sstore\n      pop\n        /* \"Voting/Voting.sol\":7261:7271  proposalId */\n      dup1\n        /* \"Voting/Voting.sol\":7221:7230  whitelist */\n      0x01\n        /* \"Voting/Voting.sol\":7221:7242  whitelist[msg.sender] */\n      0x00\n        /* \"Voting/Voting.sol\":7231:7241  msg.sender */\n      caller\n        /* \"Voting/Voting.sol\":7221:7242  whitelist[msg.sender] */\n      0xffffffffffffffffffffffffffffffffffffffff\n      and\n      0xffffffffffffffffffffffffffffffffffffffff\n      and\n      dup2\n      mstore\n      0x20\n      add\n      swap1\n      dup2\n      mstore\n      0x20\n      add\n      0x00\n      keccak256\n        /* \"Voting/Voting.sol\":7221:7258  whitelist[msg.sender].votedProposalId */\n      0x01\n      add\n        /* \"Voting/Voting.sol\":7221:7271  whitelist[msg.sender].votedProposalId = proposalId */\n      dup2\n      swap1\n      sstore\n      pop\n        /* \"Voting/Voting.sol\":7314:7318  true */\n      0x01\n        /* \"Voting/Voting.sol\":7281:7290  whitelist */\n      dup1\n        /* \"Voting/Voting.sol\":7281:7302  whitelist[msg.sender] */\n      0x00\n        /* \"Voting/Voting.sol\":7291:7301  msg.sender */\n      caller\n        /* \"Voting/Voting.sol\":7281:7302  whitelist[msg.sender] */\n      0xffffffffffffffffffffffffffffffffffffffff\n      and\n      0xffffffffffffffffffffffffffffffffffffffff\n      and\n      dup2\n      mstore\n      0x20\n      add\n      swap1\n      dup2\n      mstore\n      0x20\n      add\n      0x00\n      keccak256\n        /* \"Voting/Voting.sol\":7281:7311  whitelist[msg.sender].hasVoted */\n      0x00\n      add\n      0x01\n        /* \"Voting/Voting.sol\":7281:7318  whitelist[msg.sender].hasVoted = true */\n      0x0100\n      exp\n      dup2\n      sload\n      dup2\n      0xff\n      mul\n      not\n      and\n      swap1\n      dup4\n      iszero\n      iszero\n      mul\n      or\n      swap1\n      sstore\n      pop\n        /* \"Voting/Voting.sol\":7333:7362  Voted(msg.sender, proposalId) */\n      0x4d99b957a2bc29a30ebd96a7be8e68fe50a3c701db28a91436490b7d53870ca4\n        /* \"Voting/Voting.sol\":7339:7349  msg.sender */\n      caller\n        /* \"Voting/Voting.sol\":7351:7361  proposalId */\n      dup3\n        /* \"Voting/Voting.sol\":7333:7362  Voted(msg.sender, proposalId) */\n      mload(0x40)\n      tag_190\n      swap3\n      swap2\n      swap1\n      tag_191\n      jump\t// in\n    tag_190:\n      mload(0x40)\n      dup1\n      swap2\n      sub\n      swap1\n      log1\n        /* \"Voting/Voting.sol\":6776:7369  function voting(uint256 proposalId)... */\n      pop\n      jump\t// out\n        /* \"Voting/Voting.sol\":2069:2272  function _isWhitelisted() internal view {... */\n    tag_77:\n        /* \"Voting/Voting.sol\":2178:2182  true */\n      0x01\n        /* \"Voting/Voting.sol\":2140:2182  whitelist[msg.sender].isRegistered == true */\n      iszero\n      iszero\n        /* \"Voting/Voting.sol\":2140:2149  whitelist */\n      0x01\n        /* \"Voting/Voting.sol\":2140:2161  whitelist[msg.sender] */\n      0x00\n        /* \"Voting/Voting.sol\":2150:2160  msg.sender */\n      caller\n        /* \"Voting/Voting.sol\":2140:2161  whitelist[msg.sender] */\n      0xffffffffffffffffffffffffffffffffffffffff\n      and\n      0xffffffffffffffffffffffffffffffffffffffff\n      and\n      dup2\n      mstore\n      0x20\n      add\n      swap1\n      dup2\n      mstore\n      0x20\n      add\n      0x00\n      keccak256\n        /* \"Voting/Voting.sol\":2140:2174  whitelist[msg.sender].isRegistered */\n      0x00\n      add\n      0x00\n      swap1\n      sload\n      swap1\n      0x0100\n      exp\n      swap1\n      div\n      0xff\n      and\n        /* \"Voting/Voting.sol\":2140:2182  whitelist[msg.sender].isRegistered == true */\n      iszero\n      iszero\n      eq\n        /* \"Voting/Voting.sol\":2119:2265  require(... */\n      tag_193\n      jumpi\n      mload(0x40)\n      0x08c379a000000000000000000000000000000000000000000000000000000000\n      dup2\n      mstore\n      0x04\n      add\n      tag_194\n      swap1\n      tag_195\n      jump\t// in\n    tag_194:\n      mload(0x40)\n      dup1\n      swap2\n      sub\n      swap1\n      revert\n    tag_193:\n        /* \"Voting/Voting.sol\":2069:2272  function _isWhitelisted() internal view {... */\n      jump\t// out\n        /* \"Voting/Voting.sol\":2334:2540  function _isProposalsRegistrationStarted() internal view {... */\n    tag_80:\n        /* \"Voting/Voting.sol\":2432:2475  WorkflowStatus.ProposalsRegistrationStarted */\n      0x01\n        /* \"Voting/Voting.sol\":2422:2475  status == WorkflowStatus.ProposalsRegistrationStarted */\n      0x05\n      dup2\n      gt\n      iszero\n      tag_197\n      jumpi\n      tag_198\n      tag_199\n      jump\t// in\n    tag_198:\n    tag_197:\n        /* \"Voting/Voting.sol\":2422:2428  status */\n      0x03\n      0x00\n      swap1\n      sload\n      swap1\n      0x0100\n      exp\n      swap1\n      div\n      0xff\n      and\n        /* \"Voting/Voting.sol\":2422:2475  status == WorkflowStatus.ProposalsRegistrationStarted */\n      0x05\n      dup2\n      gt\n      iszero\n      tag_200\n      jumpi\n      tag_201\n      tag_199\n      jump\t// in\n    tag_201:\n    tag_200:\n      eq\n        /* \"Voting/Voting.sol\":2401:2533  require(... */\n      tag_202\n      jumpi\n      mload(0x40)\n      0x08c379a000000000000000000000000000000000000000000000000000000000\n      dup2\n      mstore\n      0x04\n      add\n      tag_203\n      swap1\n      tag_204\n      jump\t// in\n    tag_203:\n      mload(0x40)\n      dup1\n      swap2\n      sub\n      swap1\n      revert\n    tag_202:\n        /* \"Voting/Voting.sol\":2334:2540  function _isProposalsRegistrationStarted() internal view {... */\n      jump\t// out\n        /* \"@openzeppelin/contracts/access/Ownable.sol\":1359:1489  function _checkOwner() internal view virtual {... */\n    tag_91:\n        /* \"@openzeppelin/contracts/access/Ownable.sol\":1433:1445  _msgSender() */\n      tag_206\n        /* \"@openzeppelin/contracts/access/Ownable.sol\":1433:1443  _msgSender */\n      tag_207\n        /* \"@openzeppelin/contracts/access/Ownable.sol\":1433:1445  _msgSender() */\n      jump\t// in\n    tag_206:\n        /* \"@openzeppelin/contracts/access/Ownable.sol\":1422:1445  owner() == _msgSender() */\n      0xffffffffffffffffffffffffffffffffffffffff\n      and\n        /* \"@openzeppelin/contracts/access/Ownable.sol\":1422:1429  owner() */\n      tag_208\n        /* \"@openzeppelin/contracts/access/Ownable.sol\":1422:1427  owner */\n      tag_45\n        /* \"@openzeppelin/contracts/access/Ownable.sol\":1422:1429  owner() */\n      jump\t// in\n    tag_208:\n        /* \"@openzeppelin/contracts/access/Ownable.sol\":1422:1445  owner() == _msgSender() */\n      0xffffffffffffffffffffffffffffffffffffffff\n      and\n      eq\n        /* \"@openzeppelin/contracts/access/Ownable.sol\":1414:1482  require(owner() == _msgSender(), \"Ownable: caller is not the owner\") */\n      tag_209\n      jumpi\n      mload(0x40)\n      0x08c379a000000000000000000000000000000000000000000000000000000000\n      dup2\n      mstore\n      0x04\n      add\n      tag_210\n      swap1\n      tag_211\n      jump\t// in\n    tag_210:\n      mload(0x40)\n      dup1\n      swap2\n      sub\n      swap1\n      revert\n    tag_209:\n        /* \"@openzeppelin/contracts/access/Ownable.sol\":1359:1489  function _checkOwner() internal view virtual {... */\n      jump\t// out\n        /* \"Voting/Voting.sol\":1823:2021  function _isRegisteringVotersStatus() internal view {... */\n    tag_94:\n        /* \"Voting/Voting.sol\":1916:1948  WorkflowStatus.RegisteringVoters */\n      0x00\n        /* \"Voting/Voting.sol\":1906:1948  status == WorkflowStatus.RegisteringVoters */\n      0x05\n      dup2\n      gt\n      iszero\n      tag_213\n      jumpi\n      tag_214\n      tag_199\n      jump\t// in\n    tag_214:\n    tag_213:\n        /* \"Voting/Voting.sol\":1906:1912  status */\n      0x03\n      0x00\n      swap1\n      sload\n      swap1\n      0x0100\n      exp\n      swap1\n      div\n      0xff\n      and\n        /* \"Voting/Voting.sol\":1906:1948  status == WorkflowStatus.RegisteringVoters */\n      0x05\n      dup2\n      gt\n      iszero\n      tag_215\n      jumpi\n      tag_216\n      tag_199\n      jump\t// in\n    tag_216:\n    tag_215:\n      eq\n        /* \"Voting/Voting.sol\":1885:2014  require(... */\n      tag_217\n      jumpi\n      mload(0x40)\n      0x08c379a000000000000000000000000000000000000000000000000000000000\n      dup2\n      mstore\n      0x04\n      add\n      tag_218\n      swap1\n      tag_219\n      jump\t// in\n    tag_218:\n      mload(0x40)\n      dup1\n      swap2\n      sub\n      swap1\n      revert\n    tag_217:\n        /* \"Voting/Voting.sol\":1823:2021  function _isRegisteringVotersStatus() internal view {... */\n      jump\t// out\n        /* \"Voting/Voting.sol\":2791:2966  function _isVotingSessionEnded() internal view {... */\n    tag_113:\n        /* \"Voting/Voting.sol\":2879:2912  WorkflowStatus.VotingSessionEnded */\n      0x04\n        /* \"Voting/Voting.sol\":2869:2912  status == WorkflowStatus.VotingSessionEnded */\n      0x05\n      dup2\n      gt\n      iszero\n      tag_221\n      jumpi\n      tag_222\n      tag_199\n      jump\t// in\n    tag_222:\n    tag_221:\n        /* \"Voting/Voting.sol\":2869:2875  status */\n      0x03\n      0x00\n      swap1\n      sload\n      swap1\n      0x0100\n      exp\n      swap1\n      div\n      0xff\n      and\n        /* \"Voting/Voting.sol\":2869:2912  status == WorkflowStatus.VotingSessionEnded */\n      0x05\n      dup2\n      gt\n      iszero\n      tag_223\n      jumpi\n      tag_224\n      tag_199\n      jump\t// in\n    tag_224:\n    tag_223:\n      eq\n        /* \"Voting/Voting.sol\":2848:2959  require(... */\n      tag_225\n      jumpi\n      mload(0x40)\n      0x08c379a000000000000000000000000000000000000000000000000000000000\n      dup2\n      mstore\n      0x04\n      add\n      tag_226\n      swap1\n      tag_227\n      jump\t// in\n    tag_226:\n      mload(0x40)\n      dup1\n      swap2\n      sub\n      swap1\n      revert\n    tag_225:\n        /* \"Voting/Voting.sol\":2791:2966  function _isVotingSessionEnded() internal view {... */\n      jump\t// out\n        /* \"Voting/Voting.sol\":6418:6667  function setStatus(WorkflowStatus _status)... */\n    tag_129:\n        /* \"@openzeppelin/contracts/access/Ownable.sol\":1094:1107  _checkOwner() */\n      tag_229\n        /* \"@openzeppelin/contracts/access/Ownable.sol\":1094:1105  _checkOwner */\n      tag_91\n        /* \"@openzeppelin/contracts/access/Ownable.sol\":1094:1107  _checkOwner() */\n      jump\t// in\n    tag_229:\n        /* \"Voting/Voting.sol\":6523:6530  _status */\n      dup1\n        /* \"Voting/Voting.sol\":1476:1504  _isConsistantStatus(_status) */\n      tag_231\n        /* \"Voting/Voting.sol\":1496:1503  _status */\n      dup2\n        /* \"Voting/Voting.sol\":1476:1495  _isConsistantStatus */\n      tag_232\n        /* \"Voting/Voting.sol\":1476:1504  _isConsistantStatus(_status) */\n      jump\t// in\n    tag_231:\n        /* \"Voting/Voting.sol\":6546:6570  WorkflowStatus oldStatus */\n      0x00\n        /* \"Voting/Voting.sol\":6573:6579  status */\n      0x03\n      0x00\n      swap1\n      sload\n      swap1\n      0x0100\n      exp\n      swap1\n      div\n      0xff\n      and\n        /* \"Voting/Voting.sol\":6546:6579  WorkflowStatus oldStatus = status */\n      swap1\n      pop\n        /* \"Voting/Voting.sol\":6598:6605  _status */\n      dup3\n        /* \"Voting/Voting.sol\":6589:6595  status */\n      0x03\n      0x00\n        /* \"Voting/Voting.sol\":6589:6605  status = _status */\n      0x0100\n      exp\n      dup2\n      sload\n      dup2\n      0xff\n      mul\n      not\n      and\n      swap1\n      dup4\n      0x05\n      dup2\n      gt\n      iszero\n      tag_234\n      jumpi\n      tag_235\n      tag_199\n      jump\t// in\n    tag_235:\n    tag_234:\n      mul\n      or\n      swap1\n      sstore\n      pop\n        /* \"Voting/Voting.sol\":6620:6660  WorkflowStatusChange(oldStatus, _status) */\n      0x0a97a4ee45751e2abf3e4fc8946939630b11b371ea8ae39ccdc3056e98f5cc3f\n        /* \"Voting/Voting.sol\":6641:6650  oldStatus */\n      dup2\n        /* \"Voting/Voting.sol\":6652:6659  _status */\n      dup5\n        /* \"Voting/Voting.sol\":6620:6660  WorkflowStatusChange(oldStatus, _status) */\n      mload(0x40)\n      tag_236\n      swap3\n      swap2\n      swap1\n      tag_237\n      jump\t// in\n    tag_236:\n      mload(0x40)\n      dup1\n      swap2\n      sub\n      swap1\n      log1\n        /* \"Voting/Voting.sol\":6536:6667  {... */\n      pop\n        /* \"@openzeppelin/contracts/access/Ownable.sol\":1117:1118  _ */\n      pop\n        /* \"Voting/Voting.sol\":6418:6667  function setStatus(WorkflowStatus _status)... */\n      pop\n      jump\t// out\n        /* \"@openzeppelin/contracts/access/Ownable.sol\":2433:2620  function _transferOwnership(address newOwner) internal virtual {... */\n    tag_134:\n        /* \"@openzeppelin/contracts/access/Ownable.sol\":2506:2522  address oldOwner */\n      0x00\n        /* \"@openzeppelin/contracts/access/Ownable.sol\":2525:2531  _owner */\n      dup1\n      0x00\n      swap1\n      sload\n      swap1\n      0x0100\n      exp\n      swap1\n      div\n      0xffffffffffffffffffffffffffffffffffffffff\n      and\n        /* \"@openzeppelin/contracts/access/Ownable.sol\":2506:2531  address oldOwner = _owner */\n      swap1\n      pop\n        /* \"@openzeppelin/contracts/access/Ownable.sol\":2550:2558  newOwner */\n      dup2\n        /* \"@openzeppelin/contracts/access/Ownable.sol\":2541:2547  _owner */\n      0x00\n      dup1\n        /* \"@openzeppelin/contracts/access/Ownable.sol\":2541:2558  _owner = newOwner */\n      0x0100\n      exp\n      dup2\n      sload\n      dup2\n      0xffffffffffffffffffffffffffffffffffffffff\n      mul\n      not\n      and\n      swap1\n      dup4\n      0xffffffffffffffffffffffffffffffffffffffff\n      and\n      mul\n      or\n      swap1\n      sstore\n      pop\n        /* \"@openzeppelin/contracts/access/Ownable.sol\":2604:2612  newOwner */\n      dup2\n        /* \"@openzeppelin/contracts/access/Ownable.sol\":2573:2613  OwnershipTransferred(oldOwner, newOwner) */\n      0xffffffffffffffffffffffffffffffffffffffff\n      and\n        /* \"@openzeppelin/contracts/access/Ownable.sol\":2594:2602  oldOwner */\n      dup2\n        /* \"@openzeppelin/contracts/access/Ownable.sol\":2573:2613  OwnershipTransferred(oldOwner, newOwner) */\n      0xffffffffffffffffffffffffffffffffffffffff\n      and\n      0x8be0079c531659141344cd1fd0a4f28419497f9722a3daafe3b4186f6b6457e0\n      mload(0x40)\n      mload(0x40)\n      dup1\n      swap2\n      sub\n      swap1\n      log3\n        /* \"@openzeppelin/contracts/access/Ownable.sol\":2496:2620  {... */\n      pop\n        /* \"@openzeppelin/contracts/access/Ownable.sol\":2433:2620  function _transferOwnership(address newOwner) internal virtual {... */\n      pop\n      jump\t// out\n        /* \"Voting/Voting.sol\":2972:3141  function _isVotesTallied() internal view {... */\n    tag_140:\n        /* \"Voting/Voting.sol\":3054:3081  WorkflowStatus.VotesTallied */\n      0x05\n        /* \"Voting/Voting.sol\":3044:3081  status == WorkflowStatus.VotesTallied */\n      dup1\n      dup2\n      gt\n      iszero\n      tag_240\n      jumpi\n      tag_241\n      tag_199\n      jump\t// in\n    tag_241:\n    tag_240:\n        /* \"Voting/Voting.sol\":3044:3050  status */\n      0x03\n      0x00\n      swap1\n      sload\n      swap1\n      0x0100\n      exp\n      swap1\n      div\n      0xff\n      and\n        /* \"Voting/Voting.sol\":3044:3081  status == WorkflowStatus.VotesTallied */\n      0x05\n      dup2\n      gt\n      iszero\n      tag_242\n      jumpi\n      tag_243\n      tag_199\n      jump\t// in\n    tag_243:\n    tag_242:\n      eq\n        /* \"Voting/Voting.sol\":3023:3134  require(... */\n      tag_244\n      jumpi\n      mload(0x40)\n      0x08c379a000000000000000000000000000000000000000000000000000000000\n      dup2\n      mstore\n      0x04\n      add\n      tag_245\n      swap1\n      tag_246\n      jump\t// in\n    tag_245:\n      mload(0x40)\n      dup1\n      swap2\n      sub\n      swap1\n      revert\n    tag_244:\n        /* \"Voting/Voting.sol\":2972:3141  function _isVotesTallied() internal view {... */\n      jump\t// out\n        /* \"Voting/Voting.sol\":2602:2785  function _isVotingSessionStarted() internal view {... */\n    tag_176:\n        /* \"Voting/Voting.sol\":2692:2727  WorkflowStatus.VotingSessionStarted */\n      0x03\n        /* \"Voting/Voting.sol\":2682:2727  status == WorkflowStatus.VotingSessionStarted */\n      0x05\n      dup2\n      gt\n      iszero\n      tag_248\n      jumpi\n      tag_249\n      tag_199\n      jump\t// in\n    tag_249:\n    tag_248:\n        /* \"Voting/Voting.sol\":2682:2688  status */\n      0x03\n      0x00\n      swap1\n      sload\n      swap1\n      0x0100\n      exp\n      swap1\n      div\n      0xff\n      and\n        /* \"Voting/Voting.sol\":2682:2727  status == WorkflowStatus.VotingSessionStarted */\n      0x05\n      dup2\n      gt\n      iszero\n      tag_250\n      jumpi\n      tag_251\n      tag_199\n      jump\t// in\n    tag_251:\n    tag_250:\n      eq\n        /* \"Voting/Voting.sol\":2661:2778  require(... */\n      tag_252\n      jumpi\n      mload(0x40)\n      0x08c379a000000000000000000000000000000000000000000000000000000000\n      dup2\n      mstore\n      0x04\n      add\n      tag_253\n      swap1\n      tag_254\n      jump\t// in\n    tag_253:\n      mload(0x40)\n      dup1\n      swap2\n      sub\n      swap1\n      revert\n    tag_252:\n        /* \"Voting/Voting.sol\":2602:2785  function _isVotingSessionStarted() internal view {... */\n      jump\t// out\n        /* \"@openzeppelin/contracts/utils/Context.sol\":640:736  function _msgSender() internal view virtual returns (address) {... */\n    tag_207:\n        /* \"@openzeppelin/contracts/utils/Context.sol\":693:700  address */\n      0x00\n        /* \"@openzeppelin/contracts/utils/Context.sol\":719:729  msg.sender */\n      caller\n        /* \"@openzeppelin/contracts/utils/Context.sol\":712:729  return msg.sender */\n      swap1\n      pop\n        /* \"@openzeppelin/contracts/utils/Context.sol\":640:736  function _msgSender() internal view virtual returns (address) {... */\n      swap1\n      jump\t// out\n        /* \"Voting/Voting.sol\":3203:5250  function _isConsistantStatus(WorkflowStatus _status) internal view {... */\n    tag_232:\n        /* \"Voting/Voting.sol\":3295:3327  WorkflowStatus.RegisteringVoters */\n      0x00\n        /* \"Voting/Voting.sol\":3284:3327  _status == WorkflowStatus.RegisteringVoters */\n      0x05\n      dup2\n      gt\n      iszero\n      tag_257\n      jumpi\n      tag_258\n      tag_199\n      jump\t// in\n    tag_258:\n    tag_257:\n        /* \"Voting/Voting.sol\":3284:3291  _status */\n      dup2\n        /* \"Voting/Voting.sol\":3284:3327  _status == WorkflowStatus.RegisteringVoters */\n      0x05\n      dup2\n      gt\n      iszero\n      tag_259\n      jumpi\n      tag_260\n      tag_199\n      jump\t// in\n    tag_260:\n    tag_259:\n      sub\n        /* \"Voting/Voting.sol\":3280:5244  if (_status == WorkflowStatus.RegisteringVoters) {... */\n      tag_261\n      jumpi\n        /* \"Voting/Voting.sol\":3378:3410  WorkflowStatus.RegisteringVoters */\n      0x00\n        /* \"Voting/Voting.sol\":3368:3410  status == WorkflowStatus.RegisteringVoters */\n      0x05\n      dup2\n      gt\n      iszero\n      tag_262\n      jumpi\n      tag_263\n      tag_199\n      jump\t// in\n    tag_263:\n    tag_262:\n        /* \"Voting/Voting.sol\":3368:3374  status */\n      0x03\n      0x00\n      swap1\n      sload\n      swap1\n      0x0100\n      exp\n      swap1\n      div\n      0xff\n      and\n        /* \"Voting/Voting.sol\":3368:3410  status == WorkflowStatus.RegisteringVoters */\n      0x05\n      dup2\n      gt\n      iszero\n      tag_264\n      jumpi\n      tag_265\n      tag_199\n      jump\t// in\n    tag_265:\n    tag_264:\n      eq\n        /* \"Voting/Voting.sol\":3368:3487  status == WorkflowStatus.RegisteringVoters ||... */\n      dup1\n      tag_266\n      jumpi\n      pop\n        /* \"Voting/Voting.sol\":3444:3487  WorkflowStatus.ProposalsRegistrationStarted */\n      0x01\n        /* \"Voting/Voting.sol\":3434:3487  status == WorkflowStatus.ProposalsRegistrationStarted */\n      0x05\n      dup2\n      gt\n      iszero\n      tag_267\n      jumpi\n      tag_268\n      tag_199\n      jump\t// in\n    tag_268:\n    tag_267:\n        /* \"Voting/Voting.sol\":3434:3440  status */\n      0x03\n      0x00\n      swap1\n      sload\n      swap1\n      0x0100\n      exp\n      swap1\n      div\n      0xff\n      and\n        /* \"Voting/Voting.sol\":3434:3487  status == WorkflowStatus.ProposalsRegistrationStarted */\n      0x05\n      dup2\n      gt\n      iszero\n      tag_269\n      jumpi\n      tag_270\n      tag_199\n      jump\t// in\n    tag_270:\n    tag_269:\n      eq\n        /* \"Voting/Voting.sol\":3368:3487  status == WorkflowStatus.RegisteringVoters ||... */\n    tag_266:\n        /* \"Voting/Voting.sol\":3343:3603  require(... */\n      tag_271\n      jumpi\n      mload(0x40)\n      0x08c379a000000000000000000000000000000000000000000000000000000000\n      dup2\n      mstore\n      0x04\n      add\n      tag_272\n      swap1\n      tag_273\n      jump\t// in\n    tag_272:\n      mload(0x40)\n      dup1\n      swap2\n      sub\n      swap1\n      revert\n    tag_271:\n        /* \"Voting/Voting.sol\":3280:5244  if (_status == WorkflowStatus.RegisteringVoters) {... */\n      jump(tag_274)\n    tag_261:\n        /* \"Voting/Voting.sol\":3635:3678  WorkflowStatus.ProposalsRegistrationStarted */\n      0x01\n        /* \"Voting/Voting.sol\":3624:3678  _status == WorkflowStatus.ProposalsRegistrationStarted */\n      0x05\n      dup2\n      gt\n      iszero\n      tag_275\n      jumpi\n      tag_276\n      tag_199\n      jump\t// in\n    tag_276:\n    tag_275:\n        /* \"Voting/Voting.sol\":3624:3631  _status */\n      dup2\n        /* \"Voting/Voting.sol\":3624:3678  _status == WorkflowStatus.ProposalsRegistrationStarted */\n      0x05\n      dup2\n      gt\n      iszero\n      tag_277\n      jumpi\n      tag_278\n      tag_199\n      jump\t// in\n    tag_278:\n    tag_277:\n      sub\n        /* \"Voting/Voting.sol\":3620:5244  if (_status == WorkflowStatus.ProposalsRegistrationStarted) {... */\n      tag_279\n      jumpi\n        /* \"Voting/Voting.sol\":3729:3761  WorkflowStatus.RegisteringVoters */\n      0x00\n        /* \"Voting/Voting.sol\":3719:3761  status == WorkflowStatus.RegisteringVoters */\n      0x05\n      dup2\n      gt\n      iszero\n      tag_280\n      jumpi\n      tag_281\n      tag_199\n      jump\t// in\n    tag_281:\n    tag_280:\n        /* \"Voting/Voting.sol\":3719:3725  status */\n      0x03\n      0x00\n      swap1\n      sload\n      swap1\n      0x0100\n      exp\n      swap1\n      div\n      0xff\n      and\n        /* \"Voting/Voting.sol\":3719:3761  status == WorkflowStatus.RegisteringVoters */\n      0x05\n      dup2\n      gt\n      iszero\n      tag_282\n      jumpi\n      tag_283\n      tag_199\n      jump\t// in\n    tag_283:\n    tag_282:\n      eq\n        /* \"Voting/Voting.sol\":3719:3836  status == WorkflowStatus.RegisteringVoters ||... */\n      dup1\n      tag_284\n      jumpi\n      pop\n        /* \"Voting/Voting.sol\":3795:3836  WorkflowStatus.ProposalsRegistrationEnded */\n      0x02\n        /* \"Voting/Voting.sol\":3785:3836  status == WorkflowStatus.ProposalsRegistrationEnded */\n      0x05\n      dup2\n      gt\n      iszero\n      tag_285\n      jumpi\n      tag_286\n      tag_199\n      jump\t// in\n    tag_286:\n    tag_285:\n        /* \"Voting/Voting.sol\":3785:3791  status */\n      0x03\n      0x00\n      swap1\n      sload\n      swap1\n      0x0100\n      exp\n      swap1\n      div\n      0xff\n      and\n        /* \"Voting/Voting.sol\":3785:3836  status == WorkflowStatus.ProposalsRegistrationEnded */\n      0x05\n      dup2\n      gt\n      iszero\n      tag_287\n      jumpi\n      tag_288\n      tag_199\n      jump\t// in\n    tag_288:\n    tag_287:\n      eq\n        /* \"Voting/Voting.sol\":3719:3836  status == WorkflowStatus.RegisteringVoters ||... */\n    tag_284:\n        /* \"Voting/Voting.sol\":3694:3952  require(... */\n      tag_289\n      jumpi\n      mload(0x40)\n      0x08c379a000000000000000000000000000000000000000000000000000000000\n      dup2\n      mstore\n      0x04\n      add\n      tag_290\n      swap1\n      tag_273\n      jump\t// in\n    tag_290:\n      mload(0x40)\n      dup1\n      swap2\n      sub\n      swap1\n      revert\n    tag_289:\n        /* \"Voting/Voting.sol\":3620:5244  if (_status == WorkflowStatus.ProposalsRegistrationStarted) {... */\n      jump(tag_291)\n    tag_279:\n        /* \"Voting/Voting.sol\":3984:4025  WorkflowStatus.ProposalsRegistrationEnded */\n      0x02\n        /* \"Voting/Voting.sol\":3973:4025  _status == WorkflowStatus.ProposalsRegistrationEnded */\n      0x05\n      dup2\n      gt\n      iszero\n      tag_292\n      jumpi\n      tag_293\n      tag_199\n      jump\t// in\n    tag_293:\n    tag_292:\n        /* \"Voting/Voting.sol\":3973:3980  _status */\n      dup2\n        /* \"Voting/Voting.sol\":3973:4025  _status == WorkflowStatus.ProposalsRegistrationEnded */\n      0x05\n      dup2\n      gt\n      iszero\n      tag_294\n      jumpi\n      tag_295\n      tag_199\n      jump\t// in\n    tag_295:\n    tag_294:\n      sub\n        /* \"Voting/Voting.sol\":3969:5244  if (_status == WorkflowStatus.ProposalsRegistrationEnded) {... */\n      tag_296\n      jumpi\n        /* \"Voting/Voting.sol\":4076:4119  WorkflowStatus.ProposalsRegistrationStarted */\n      0x01\n        /* \"Voting/Voting.sol\":4066:4119  status == WorkflowStatus.ProposalsRegistrationStarted */\n      0x05\n      dup2\n      gt\n      iszero\n      tag_297\n      jumpi\n      tag_298\n      tag_199\n      jump\t// in\n    tag_298:\n    tag_297:\n        /* \"Voting/Voting.sol\":4066:4072  status */\n      0x03\n      0x00\n      swap1\n      sload\n      swap1\n      0x0100\n      exp\n      swap1\n      div\n      0xff\n      and\n        /* \"Voting/Voting.sol\":4066:4119  status == WorkflowStatus.ProposalsRegistrationStarted */\n      0x05\n      dup2\n      gt\n      iszero\n      tag_299\n      jumpi\n      tag_300\n      tag_199\n      jump\t// in\n    tag_300:\n    tag_299:\n      eq\n        /* \"Voting/Voting.sol\":4066:4188  status == WorkflowStatus.ProposalsRegistrationStarted ||... */\n      dup1\n      tag_301\n      jumpi\n      pop\n        /* \"Voting/Voting.sol\":4153:4188  WorkflowStatus.VotingSessionStarted */\n      0x03\n        /* \"Voting/Voting.sol\":4143:4188  status == WorkflowStatus.VotingSessionStarted */\n      0x05\n      dup2\n      gt\n      iszero\n      tag_302\n      jumpi\n      tag_303\n      tag_199\n      jump\t// in\n    tag_303:\n    tag_302:\n        /* \"Voting/Voting.sol\":4143:4149  status */\n      0x03\n      0x00\n      swap1\n      sload\n      swap1\n      0x0100\n      exp\n      swap1\n      div\n      0xff\n      and\n        /* \"Voting/Voting.sol\":4143:4188  status == WorkflowStatus.VotingSessionStarted */\n      0x05\n      dup2\n      gt\n      iszero\n      tag_304\n      jumpi\n      tag_305\n      tag_199\n      jump\t// in\n    tag_305:\n    tag_304:\n      eq\n        /* \"Voting/Voting.sol\":4066:4188  status == WorkflowStatus.ProposalsRegistrationStarted ||... */\n    tag_301:\n        /* \"Voting/Voting.sol\":4041:4304  require(... */\n      tag_306\n      jumpi\n      mload(0x40)\n      0x08c379a000000000000000000000000000000000000000000000000000000000\n      dup2\n      mstore\n      0x04\n      add\n      tag_307\n      swap1\n      tag_273\n      jump\t// in\n    tag_307:\n      mload(0x40)\n      dup1\n      swap2\n      sub\n      swap1\n      revert\n    tag_306:\n        /* \"Voting/Voting.sol\":3969:5244  if (_status == WorkflowStatus.ProposalsRegistrationEnded) {... */\n      jump(tag_308)\n    tag_296:\n        /* \"Voting/Voting.sol\":4336:4371  WorkflowStatus.VotingSessionStarted */\n      0x03\n        /* \"Voting/Voting.sol\":4325:4371  _status == WorkflowStatus.VotingSessionStarted */\n      0x05\n      dup2\n      gt\n      iszero\n      tag_309\n      jumpi\n      tag_310\n      tag_199\n      jump\t// in\n    tag_310:\n    tag_309:\n        /* \"Voting/Voting.sol\":4325:4332  _status */\n      dup2\n        /* \"Voting/Voting.sol\":4325:4371  _status == WorkflowStatus.VotingSessionStarted */\n      0x05\n      dup2\n      gt\n      iszero\n      tag_311\n      jumpi\n      tag_312\n      tag_199\n      jump\t// in\n    tag_312:\n    tag_311:\n      sub\n        /* \"Voting/Voting.sol\":4321:5244  if (_status == WorkflowStatus.VotingSessionStarted) {... */\n      tag_313\n      jumpi\n        /* \"Voting/Voting.sol\":4422:4463  WorkflowStatus.ProposalsRegistrationEnded */\n      0x02\n        /* \"Voting/Voting.sol\":4412:4463  status == WorkflowStatus.ProposalsRegistrationEnded */\n      0x05\n      dup2\n      gt\n      iszero\n      tag_314\n      jumpi\n      tag_315\n      tag_199\n      jump\t// in\n    tag_315:\n    tag_314:\n        /* \"Voting/Voting.sol\":4412:4418  status */\n      0x03\n      0x00\n      swap1\n      sload\n      swap1\n      0x0100\n      exp\n      swap1\n      div\n      0xff\n      and\n        /* \"Voting/Voting.sol\":4412:4463  status == WorkflowStatus.ProposalsRegistrationEnded */\n      0x05\n      dup2\n      gt\n      iszero\n      tag_316\n      jumpi\n      tag_317\n      tag_199\n      jump\t// in\n    tag_317:\n    tag_316:\n      eq\n        /* \"Voting/Voting.sol\":4412:4530  status == WorkflowStatus.ProposalsRegistrationEnded ||... */\n      dup1\n      tag_318\n      jumpi\n      pop\n        /* \"Voting/Voting.sol\":4497:4530  WorkflowStatus.VotingSessionEnded */\n      0x04\n        /* \"Voting/Voting.sol\":4487:4530  status == WorkflowStatus.VotingSessionEnded */\n      0x05\n      dup2\n      gt\n      iszero\n      tag_319\n      jumpi\n      tag_320\n      tag_199\n      jump\t// in\n    tag_320:\n    tag_319:\n        /* \"Voting/Voting.sol\":4487:4493  status */\n      0x03\n      0x00\n      swap1\n      sload\n      swap1\n      0x0100\n      exp\n      swap1\n      div\n      0xff\n      and\n        /* \"Voting/Voting.sol\":4487:4530  status == WorkflowStatus.VotingSessionEnded */\n      0x05\n      dup2\n      gt\n      iszero\n      tag_321\n      jumpi\n      tag_322\n      tag_199\n      jump\t// in\n    tag_322:\n    tag_321:\n      eq\n        /* \"Voting/Voting.sol\":4412:4530  status == WorkflowStatus.ProposalsRegistrationEnded ||... */\n    tag_318:\n        /* \"Voting/Voting.sol\":4387:4646  require(... */\n      tag_323\n      jumpi\n      mload(0x40)\n      0x08c379a000000000000000000000000000000000000000000000000000000000\n      dup2\n      mstore\n      0x04\n      add\n      tag_324\n      swap1\n      tag_273\n      jump\t// in\n    tag_324:\n      mload(0x40)\n      dup1\n      swap2\n      sub\n      swap1\n      revert\n    tag_323:\n        /* \"Voting/Voting.sol\":4321:5244  if (_status == WorkflowStatus.VotingSessionStarted) {... */\n      jump(tag_325)\n    tag_313:\n        /* \"Voting/Voting.sol\":4678:4711  WorkflowStatus.VotingSessionEnded */\n      0x04\n        /* \"Voting/Voting.sol\":4667:4711  _status == WorkflowStatus.VotingSessionEnded */\n      0x05\n      dup2\n      gt\n      iszero\n      tag_326\n      jumpi\n      tag_327\n      tag_199\n      jump\t// in\n    tag_327:\n    tag_326:\n        /* \"Voting/Voting.sol\":4667:4674  _status */\n      dup2\n        /* \"Voting/Voting.sol\":4667:4711  _status == WorkflowStatus.VotingSessionEnded */\n      0x05\n      dup2\n      gt\n      iszero\n      tag_328\n      jumpi\n      tag_329\n      tag_199\n      jump\t// in\n    tag_329:\n    tag_328:\n      sub\n        /* \"Voting/Voting.sol\":4663:5244  if (_status == WorkflowStatus.VotingSessionEnded) {... */\n      tag_330\n      jumpi\n        /* \"Voting/Voting.sol\":4762:4797  WorkflowStatus.VotingSessionStarted */\n      0x03\n        /* \"Voting/Voting.sol\":4752:4797  status == WorkflowStatus.VotingSessionStarted */\n      0x05\n      dup2\n      gt\n      iszero\n      tag_331\n      jumpi\n      tag_332\n      tag_199\n      jump\t// in\n    tag_332:\n    tag_331:\n        /* \"Voting/Voting.sol\":4752:4758  status */\n      0x03\n      0x00\n      swap1\n      sload\n      swap1\n      0x0100\n      exp\n      swap1\n      div\n      0xff\n      and\n        /* \"Voting/Voting.sol\":4752:4797  status == WorkflowStatus.VotingSessionStarted */\n      0x05\n      dup2\n      gt\n      iszero\n      tag_333\n      jumpi\n      tag_334\n      tag_199\n      jump\t// in\n    tag_334:\n    tag_333:\n      eq\n        /* \"Voting/Voting.sol\":4752:4858  status == WorkflowStatus.VotingSessionStarted ||... */\n      dup1\n      tag_335\n      jumpi\n      pop\n        /* \"Voting/Voting.sol\":4831:4858  WorkflowStatus.VotesTallied */\n      0x05\n        /* \"Voting/Voting.sol\":4821:4858  status == WorkflowStatus.VotesTallied */\n      dup1\n      dup2\n      gt\n      iszero\n      tag_336\n      jumpi\n      tag_337\n      tag_199\n      jump\t// in\n    tag_337:\n    tag_336:\n        /* \"Voting/Voting.sol\":4821:4827  status */\n      0x03\n      0x00\n      swap1\n      sload\n      swap1\n      0x0100\n      exp\n      swap1\n      div\n      0xff\n      and\n        /* \"Voting/Voting.sol\":4821:4858  status == WorkflowStatus.VotesTallied */\n      0x05\n      dup2\n      gt\n      iszero\n      tag_338\n      jumpi\n      tag_339\n      tag_199\n      jump\t// in\n    tag_339:\n    tag_338:\n      eq\n        /* \"Voting/Voting.sol\":4752:4858  status == WorkflowStatus.VotingSessionStarted ||... */\n    tag_335:\n        /* \"Voting/Voting.sol\":4727:4974  require(... */\n      tag_340\n      jumpi\n      mload(0x40)\n      0x08c379a000000000000000000000000000000000000000000000000000000000\n      dup2\n      mstore\n      0x04\n      add\n      tag_341\n      swap1\n      tag_273\n      jump\t// in\n    tag_341:\n      mload(0x40)\n      dup1\n      swap2\n      sub\n      swap1\n      revert\n    tag_340:\n        /* \"Voting/Voting.sol\":4663:5244  if (_status == WorkflowStatus.VotingSessionEnded) {... */\n      jump(tag_342)\n    tag_330:\n        /* \"Voting/Voting.sol\":5006:5033  WorkflowStatus.VotesTallied */\n      0x05\n        /* \"Voting/Voting.sol\":4995:5033  _status == WorkflowStatus.VotesTallied */\n      dup1\n      dup2\n      gt\n      iszero\n      tag_343\n      jumpi\n      tag_344\n      tag_199\n      jump\t// in\n    tag_344:\n    tag_343:\n        /* \"Voting/Voting.sol\":4995:5002  _status */\n      dup2\n        /* \"Voting/Voting.sol\":4995:5033  _status == WorkflowStatus.VotesTallied */\n      0x05\n      dup2\n      gt\n      iszero\n      tag_345\n      jumpi\n      tag_346\n      tag_199\n      jump\t// in\n    tag_346:\n    tag_345:\n      sub\n        /* \"Voting/Voting.sol\":4991:5244  if (_status == WorkflowStatus.VotesTallied) {... */\n      tag_347\n      jumpi\n        /* \"Voting/Voting.sol\":5084:5117  WorkflowStatus.VotingSessionEnded */\n      0x04\n        /* \"Voting/Voting.sol\":5074:5117  status == WorkflowStatus.VotingSessionEnded */\n      0x05\n      dup2\n      gt\n      iszero\n      tag_348\n      jumpi\n      tag_349\n      tag_199\n      jump\t// in\n    tag_349:\n    tag_348:\n        /* \"Voting/Voting.sol\":5074:5080  status */\n      0x03\n      0x00\n      swap1\n      sload\n      swap1\n      0x0100\n      exp\n      swap1\n      div\n      0xff\n      and\n        /* \"Voting/Voting.sol\":5074:5117  status == WorkflowStatus.VotingSessionEnded */\n      0x05\n      dup2\n      gt\n      iszero\n      tag_350\n      jumpi\n      tag_351\n      tag_199\n      jump\t// in\n    tag_351:\n    tag_350:\n      eq\n        /* \"Voting/Voting.sol\":5049:5233  require(... */\n      tag_352\n      jumpi\n      mload(0x40)\n      0x08c379a000000000000000000000000000000000000000000000000000000000\n      dup2\n      mstore\n      0x04\n      add\n      tag_353\n      swap1\n      tag_273\n      jump\t// in\n    tag_353:\n      mload(0x40)\n      dup1\n      swap2\n      sub\n      swap1\n      revert\n    tag_352:\n        /* \"Voting/Voting.sol\":4991:5244  if (_status == WorkflowStatus.VotesTallied) {... */\n    tag_347:\n        /* \"Voting/Voting.sol\":4663:5244  if (_status == WorkflowStatus.VotingSessionEnded) {... */\n    tag_342:\n        /* \"Voting/Voting.sol\":4321:5244  if (_status == WorkflowStatus.VotingSessionStarted) {... */\n    tag_325:\n        /* \"Voting/Voting.sol\":3969:5244  if (_status == WorkflowStatus.ProposalsRegistrationEnded) {... */\n    tag_308:\n        /* \"Voting/Voting.sol\":3620:5244  if (_status == WorkflowStatus.ProposalsRegistrationStarted) {... */\n    tag_291:\n        /* \"Voting/Voting.sol\":3280:5244  if (_status == WorkflowStatus.RegisteringVoters) {... */\n    tag_274:\n        /* \"Voting/Voting.sol\":3203:5250  function _isConsistantStatus(WorkflowStatus _status) internal view {... */\n      pop\n      jump\t// out\n    tag_137:\n      mload(0x40)\n      dup1\n      0x40\n      add\n      0x40\n      mstore\n      dup1\n      0x60\n      dup2\n      mstore\n      0x20\n      add\n      0x00\n      dup2\n      mstore\n      pop\n      swap1\n      jump\t// out\n        /* \"#utility.yul\":7:82   */\n    tag_354:\n        /* \"#utility.yul\":40:46   */\n      0x00\n        /* \"#utility.yul\":73:75   */\n      0x40\n        /* \"#utility.yul\":67:76   */\n      mload\n        /* \"#utility.yul\":57:76   */\n      swap1\n      pop\n        /* \"#utility.yul\":7:82   */\n      swap1\n      jump\t// out\n        /* \"#utility.yul\":88:205   */\n    tag_355:\n        /* \"#utility.yul\":197:198   */\n      0x00\n        /* \"#utility.yul\":194:195   */\n      dup1\n        /* \"#utility.yul\":187:199   */\n      revert\n        /* \"#utility.yul\":211:328   */\n    tag_356:\n        /* \"#utility.yul\":320:321   */\n      0x00\n        /* \"#utility.yul\":317:318   */\n      dup1\n        /* \"#utility.yul\":310:322   */\n      revert\n        /* \"#utility.yul\":334:411   */\n    tag_357:\n        /* \"#utility.yul\":371:378   */\n      0x00\n        /* \"#utility.yul\":400:405   */\n      dup2\n        /* \"#utility.yul\":389:405   */\n      swap1\n      pop\n        /* \"#utility.yul\":334:411   */\n      swap2\n      swap1\n      pop\n      jump\t// out\n        /* \"#utility.yul\":417:539   */\n    tag_358:\n        /* \"#utility.yul\":490:514   */\n      tag_448\n        /* \"#utility.yul\":508:513   */\n      dup2\n        /* \"#utility.yul\":490:514   */\n      tag_357\n      jump\t// in\n    tag_448:\n        /* \"#utility.yul\":483:488   */\n      dup2\n        /* \"#utility.yul\":480:515   */\n      eq\n        /* \"#utility.yul\":470:533   */\n      tag_449\n      jumpi\n        /* \"#utility.yul\":529:530   */\n      0x00\n        /* \"#utility.yul\":526:527   */\n      dup1\n        /* \"#utility.yul\":519:531   */\n      revert\n        /* \"#utility.yul\":470:533   */\n    tag_449:\n        /* \"#utility.yul\":417:539   */\n      pop\n      jump\t// out\n        /* \"#utility.yul\":545:684   */\n    tag_359:\n        /* \"#utility.yul\":591:596   */\n      0x00\n        /* \"#utility.yul\":629:635   */\n      dup2\n        /* \"#utility.yul\":616:636   */\n      calldataload\n        /* \"#utility.yul\":607:636   */\n      swap1\n      pop\n        /* \"#utility.yul\":645:678   */\n      tag_451\n        /* \"#utility.yul\":672:677   */\n      dup2\n        /* \"#utility.yul\":645:678   */\n      tag_358\n      jump\t// in\n    tag_451:\n        /* \"#utility.yul\":545:684   */\n      swap3\n      swap2\n      pop\n      pop\n      jump\t// out\n        /* \"#utility.yul\":690:1019   */\n    tag_20:\n        /* \"#utility.yul\":749:755   */\n      0x00\n        /* \"#utility.yul\":798:800   */\n      0x20\n        /* \"#utility.yul\":786:795   */\n      dup3\n        /* \"#utility.yul\":777:784   */\n      dup5\n        /* \"#utility.yul\":773:796   */\n      sub\n        /* \"#utility.yul\":769:801   */\n      slt\n        /* \"#utility.yul\":766:885   */\n      iszero\n      tag_453\n      jumpi\n        /* \"#utility.yul\":804:883   */\n      tag_454\n      tag_355\n      jump\t// in\n    tag_454:\n        /* \"#utility.yul\":766:885   */\n    tag_453:\n        /* \"#utility.yul\":924:925   */\n      0x00\n        /* \"#utility.yul\":949:1002   */\n      tag_455\n        /* \"#utility.yul\":994:1001   */\n      dup5\n        /* \"#utility.yul\":985:991   */\n      dup3\n        /* \"#utility.yul\":974:983   */\n      dup6\n        /* \"#utility.yul\":970:992   */\n      add\n        /* \"#utility.yul\":949:1002   */\n      tag_359\n      jump\t// in\n    tag_455:\n        /* \"#utility.yul\":939:1002   */\n      swap2\n      pop\n        /* \"#utility.yul\":895:1012   */\n      pop\n        /* \"#utility.yul\":690:1019   */\n      swap3\n      swap2\n      pop\n      pop\n      jump\t// out\n        /* \"#utility.yul\":1025:1124   */\n    tag_360:\n        /* \"#utility.yul\":1077:1083   */\n      0x00\n        /* \"#utility.yul\":1111:1116   */\n      dup2\n        /* \"#utility.yul\":1105:1117   */\n      mload\n        /* \"#utility.yul\":1095:1117   */\n      swap1\n      pop\n        /* \"#utility.yul\":1025:1124   */\n      swap2\n      swap1\n      pop\n      jump\t// out\n        /* \"#utility.yul\":1130:1299   */\n    tag_361:\n        /* \"#utility.yul\":1214:1225   */\n      0x00\n        /* \"#utility.yul\":1248:1254   */\n      dup3\n        /* \"#utility.yul\":1243:1246   */\n      dup3\n        /* \"#utility.yul\":1236:1255   */\n      mstore\n        /* \"#utility.yul\":1288:1292   */\n      0x20\n        /* \"#utility.yul\":1283:1286   */\n      dup3\n        /* \"#utility.yul\":1279:1293   */\n      add\n        /* \"#utility.yul\":1264:1293   */\n      swap1\n      pop\n        /* \"#utility.yul\":1130:1299   */\n      swap3\n      swap2\n      pop\n      pop\n      jump\t// out\n        /* \"#utility.yul\":1305:1551   */\n    tag_362:\n        /* \"#utility.yul\":1386:1387   */\n      0x00\n        /* \"#utility.yul\":1396:1509   */\n    tag_459:\n        /* \"#utility.yul\":1410:1416   */\n      dup4\n        /* \"#utility.yul\":1407:1408   */\n      dup2\n        /* \"#utility.yul\":1404:1417   */\n      lt\n        /* \"#utility.yul\":1396:1509   */\n      iszero\n      tag_461\n      jumpi\n        /* \"#utility.yul\":1495:1496   */\n      dup1\n        /* \"#utility.yul\":1490:1493   */\n      dup3\n        /* \"#utility.yul\":1486:1497   */\n      add\n        /* \"#utility.yul\":1480:1498   */\n      mload\n        /* \"#utility.yul\":1476:1477   */\n      dup2\n        /* \"#utility.yul\":1471:1474   */\n      dup5\n        /* \"#utility.yul\":1467:1478   */\n      add\n        /* \"#utility.yul\":1460:1499   */\n      mstore\n        /* \"#utility.yul\":1432:1434   */\n      0x20\n        /* \"#utility.yul\":1429:1430   */\n      dup2\n        /* \"#utility.yul\":1425:1435   */\n      add\n        /* \"#utility.yul\":1420:1435   */\n      swap1\n      pop\n        /* \"#utility.yul\":1396:1509   */\n      jump(tag_459)\n    tag_461:\n        /* \"#utility.yul\":1543:1544   */\n      0x00\n        /* \"#utility.yul\":1534:1540   */\n      dup5\n        /* \"#utility.yul\":1529:1532   */\n      dup5\n        /* \"#utility.yul\":1525:1541   */\n      add\n        /* \"#utility.yul\":1518:1545   */\n      mstore\n        /* \"#utility.yul\":1367:1551   */\n      pop\n        /* \"#utility.yul\":1305:1551   */\n      pop\n      pop\n      pop\n      jump\t// out\n        /* \"#utility.yul\":1557:1659   */\n    tag_363:\n        /* \"#utility.yul\":1598:1604   */\n      0x00\n        /* \"#utility.yul\":1649:1651   */\n      0x1f\n        /* \"#utility.yul\":1645:1652   */\n      not\n        /* \"#utility.yul\":1640:1642   */\n      0x1f\n        /* \"#utility.yul\":1633:1638   */\n      dup4\n        /* \"#utility.yul\":1629:1643   */\n      add\n        /* \"#utility.yul\":1625:1653   */\n      and\n        /* \"#utility.yul\":1615:1653   */\n      swap1\n      pop\n        /* \"#utility.yul\":1557:1659   */\n      swap2\n      swap1\n      pop\n      jump\t// out\n        /* \"#utility.yul\":1665:2042   */\n    tag_364:\n        /* \"#utility.yul\":1753:1756   */\n      0x00\n        /* \"#utility.yul\":1781:1820   */\n      tag_464\n        /* \"#utility.yul\":1814:1819   */\n      dup3\n        /* \"#utility.yul\":1781:1820   */\n      tag_360\n      jump\t// in\n    tag_464:\n        /* \"#utility.yul\":1836:1907   */\n      tag_465\n        /* \"#utility.yul\":1900:1906   */\n      dup2\n        /* \"#utility.yul\":1895:1898   */\n      dup6\n        /* \"#utility.yul\":1836:1907   */\n      tag_361\n      jump\t// in\n    tag_465:\n        /* \"#utility.yul\":1829:1907   */\n      swap4\n      pop\n        /* \"#utility.yul\":1916:1981   */\n      tag_466\n        /* \"#utility.yul\":1974:1980   */\n      dup2\n        /* \"#utility.yul\":1969:1972   */\n      dup6\n        /* \"#utility.yul\":1962:1966   */\n      0x20\n        /* \"#utility.yul\":1955:1960   */\n      dup7\n        /* \"#utility.yul\":1951:1967   */\n      add\n        /* \"#utility.yul\":1916:1981   */\n      tag_362\n      jump\t// in\n    tag_466:\n        /* \"#utility.yul\":2006:2035   */\n      tag_467\n        /* \"#utility.yul\":2028:2034   */\n      dup2\n        /* \"#utility.yul\":2006:2035   */\n      tag_363\n      jump\t// in\n    tag_467:\n        /* \"#utility.yul\":2001:2004   */\n      dup5\n        /* \"#utility.yul\":1997:2036   */\n      add\n        /* \"#utility.yul\":1990:2036   */\n      swap2\n      pop\n        /* \"#utility.yul\":1757:2042   */\n      pop\n        /* \"#utility.yul\":1665:2042   */\n      swap3\n      swap2\n      pop\n      pop\n      jump\t// out\n        /* \"#utility.yul\":2048:2166   */\n    tag_365:\n        /* \"#utility.yul\":2135:2159   */\n      tag_469\n        /* \"#utility.yul\":2153:2158   */\n      dup2\n        /* \"#utility.yul\":2135:2159   */\n      tag_357\n      jump\t// in\n    tag_469:\n        /* \"#utility.yul\":2130:2133   */\n      dup3\n        /* \"#utility.yul\":2123:2160   */\n      mstore\n        /* \"#utility.yul\":2048:2166   */\n      pop\n      pop\n      jump\t// out\n        /* \"#utility.yul\":2172:2595   */\n    tag_23:\n        /* \"#utility.yul\":2313:2317   */\n      0x00\n        /* \"#utility.yul\":2351:2353   */\n      0x40\n        /* \"#utility.yul\":2340:2349   */\n      dup3\n        /* \"#utility.yul\":2336:2354   */\n      add\n        /* \"#utility.yul\":2328:2354   */\n      swap1\n      pop\n        /* \"#utility.yul\":2400:2409   */\n      dup2\n        /* \"#utility.yul\":2394:2398   */\n      dup2\n        /* \"#utility.yul\":2390:2410   */\n      sub\n        /* \"#utility.yul\":2386:2387   */\n      0x00\n        /* \"#utility.yul\":2375:2384   */\n      dup4\n        /* \"#utility.yul\":2371:2388   */\n      add\n        /* \"#utility.yul\":2364:2411   */\n      mstore\n        /* \"#utility.yul\":2428:2506   */\n      tag_471\n        /* \"#utility.yul\":2501:2505   */\n      dup2\n        /* \"#utility.yul\":2492:2498   */\n      dup6\n        /* \"#utility.yul\":2428:2506   */\n      tag_364\n      jump\t// in\n    tag_471:\n        /* \"#utility.yul\":2420:2506   */\n      swap1\n      pop\n        /* \"#utility.yul\":2516:2588   */\n      tag_472\n        /* \"#utility.yul\":2584:2586   */\n      0x20\n        /* \"#utility.yul\":2573:2582   */\n      dup4\n        /* \"#utility.yul\":2569:2587   */\n      add\n        /* \"#utility.yul\":2560:2566   */\n      dup5\n        /* \"#utility.yul\":2516:2588   */\n      tag_365\n      jump\t// in\n    tag_472:\n        /* \"#utility.yul\":2172:2595   */\n      swap4\n      swap3\n      pop\n      pop\n      pop\n      jump\t// out\n        /* \"#utility.yul\":2601:2781   */\n    tag_199:\n        /* \"#utility.yul\":2649:2726   */\n      0x4e487b7100000000000000000000000000000000000000000000000000000000\n        /* \"#utility.yul\":2646:2647   */\n      0x00\n        /* \"#utility.yul\":2639:2727   */\n      mstore\n        /* \"#utility.yul\":2746:2750   */\n      0x21\n        /* \"#utility.yul\":2743:2744   */\n      0x04\n        /* \"#utility.yul\":2736:2751   */\n      mstore\n        /* \"#utility.yul\":2770:2774   */\n      0x24\n        /* \"#utility.yul\":2767:2768   */\n      0x00\n        /* \"#utility.yul\":2760:2775   */\n      revert\n        /* \"#utility.yul\":2787:2910   */\n    tag_366:\n        /* \"#utility.yul\":2878:2879   */\n      0x06\n        /* \"#utility.yul\":2871:2876   */\n      dup2\n        /* \"#utility.yul\":2868:2880   */\n      lt\n        /* \"#utility.yul\":2858:2904   */\n      tag_475\n      jumpi\n        /* \"#utility.yul\":2884:2902   */\n      tag_476\n      tag_199\n      jump\t// in\n    tag_476:\n        /* \"#utility.yul\":2858:2904   */\n    tag_475:\n        /* \"#utility.yul\":2787:2910   */\n      pop\n      jump\t// out\n        /* \"#utility.yul\":2916:3063   */\n    tag_367:\n        /* \"#utility.yul\":2971:2978   */\n      0x00\n        /* \"#utility.yul\":3000:3005   */\n      dup2\n        /* \"#utility.yul\":2989:3005   */\n      swap1\n      pop\n        /* \"#utility.yul\":3006:3057   */\n      tag_478\n        /* \"#utility.yul\":3051:3056   */\n      dup3\n        /* \"#utility.yul\":3006:3057   */\n      tag_366\n      jump\t// in\n    tag_478:\n        /* \"#utility.yul\":2916:3063   */\n      swap2\n      swap1\n      pop\n      jump\t// out\n        /* \"#utility.yul\":3069:3216   */\n    tag_368:\n        /* \"#utility.yul\":3135:3144   */\n      0x00\n        /* \"#utility.yul\":3168:3210   */\n      tag_480\n        /* \"#utility.yul\":3204:3209   */\n      dup3\n        /* \"#utility.yul\":3168:3210   */\n      tag_367\n      jump\t// in\n    tag_480:\n        /* \"#utility.yul\":3155:3210   */\n      swap1\n      pop\n        /* \"#utility.yul\":3069:3216   */\n      swap2\n      swap1\n      pop\n      jump\t// out\n        /* \"#utility.yul\":3222:3385   */\n    tag_369:\n        /* \"#utility.yul\":3325:3378   */\n      tag_482\n        /* \"#utility.yul\":3372:3377   */\n      dup2\n        /* \"#utility.yul\":3325:3378   */\n      tag_368\n      jump\t// in\n    tag_482:\n        /* \"#utility.yul\":3320:3323   */\n      dup3\n        /* \"#utility.yul\":3313:3379   */\n      mstore\n        /* \"#utility.yul\":3222:3385   */\n      pop\n      pop\n      jump\t// out\n        /* \"#utility.yul\":3391:3645   */\n    tag_27:\n        /* \"#utility.yul\":3500:3504   */\n      0x00\n        /* \"#utility.yul\":3538:3540   */\n      0x20\n        /* \"#utility.yul\":3527:3536   */\n      dup3\n        /* \"#utility.yul\":3523:3541   */\n      add\n        /* \"#utility.yul\":3515:3541   */\n      swap1\n      pop\n        /* \"#utility.yul\":3551:3638   */\n      tag_484\n        /* \"#utility.yul\":3635:3636   */\n      0x00\n        /* \"#utility.yul\":3624:3633   */\n      dup4\n        /* \"#utility.yul\":3620:3637   */\n      add\n        /* \"#utility.yul\":3611:3617   */\n      dup5\n        /* \"#utility.yul\":3551:3638   */\n      tag_369\n      jump\t// in\n    tag_484:\n        /* \"#utility.yul\":3391:3645   */\n      swap3\n      swap2\n      pop\n      pop\n      jump\t// out\n        /* \"#utility.yul\":3651:3768   */\n    tag_370:\n        /* \"#utility.yul\":3760:3761   */\n      0x00\n        /* \"#utility.yul\":3757:3758   */\n      dup1\n        /* \"#utility.yul\":3750:3762   */\n      revert\n        /* \"#utility.yul\":3774:3891   */\n    tag_371:\n        /* \"#utility.yul\":3883:3884   */\n      0x00\n        /* \"#utility.yul\":3880:3881   */\n      dup1\n        /* \"#utility.yul\":3873:3885   */\n      revert\n        /* \"#utility.yul\":3897:4077   */\n    tag_372:\n        /* \"#utility.yul\":3945:4022   */\n      0x4e487b7100000000000000000000000000000000000000000000000000000000\n        /* \"#utility.yul\":3942:3943   */\n      0x00\n        /* \"#utility.yul\":3935:4023   */\n      mstore\n        /* \"#utility.yul\":4042:4046   */\n      0x41\n        /* \"#utility.yul\":4039:4040   */\n      0x04\n        /* \"#utility.yul\":4032:4047   */\n      mstore\n        /* \"#utility.yul\":4066:4070   */\n      0x24\n        /* \"#utility.yul\":4063:4064   */\n      0x00\n        /* \"#utility.yul\":4056:4071   */\n      revert\n        /* \"#utility.yul\":4083:4364   */\n    tag_373:\n        /* \"#utility.yul\":4166:4193   */\n      tag_489\n        /* \"#utility.yul\":4188:4192   */\n      dup3\n        /* \"#utility.yul\":4166:4193   */\n      tag_363\n      jump\t// in\n    tag_489:\n        /* \"#utility.yul\":4158:4164   */\n      dup2\n        /* \"#utility.yul\":4154:4194   */\n      add\n        /* \"#utility.yul\":4296:4302   */\n      dup2\n        /* \"#utility.yul\":4284:4294   */\n      dup2\n        /* \"#utility.yul\":4281:4303   */\n      lt\n        /* \"#utility.yul\":4260:4278   */\n      0xffffffffffffffff\n        /* \"#utility.yul\":4248:4258   */\n      dup3\n        /* \"#utility.yul\":4245:4279   */\n      gt\n        /* \"#utility.yul\":4242:4304   */\n      or\n        /* \"#utility.yul\":4239:4327   */\n      iszero\n      tag_490\n      jumpi\n        /* \"#utility.yul\":4307:4325   */\n      tag_491\n      tag_372\n      jump\t// in\n    tag_491:\n        /* \"#utility.yul\":4239:4327   */\n    tag_490:\n        /* \"#utility.yul\":4347:4357   */\n      dup1\n        /* \"#utility.yul\":4343:4345   */\n      0x40\n        /* \"#utility.yul\":4336:4358   */\n      mstore\n        /* \"#utility.yul\":4126:4364   */\n      pop\n        /* \"#utility.yul\":4083:4364   */\n      pop\n      pop\n      jump\t// out\n        /* \"#utility.yul\":4370:4499   */\n    tag_374:\n        /* \"#utility.yul\":4404:4410   */\n      0x00\n        /* \"#utility.yul\":4431:4451   */\n      tag_493\n      tag_354\n      jump\t// in\n    tag_493:\n        /* \"#utility.yul\":4421:4451   */\n      swap1\n      pop\n        /* \"#utility.yul\":4460:4493   */\n      tag_494\n        /* \"#utility.yul\":4488:4492   */\n      dup3\n        /* \"#utility.yul\":4480:4486   */\n      dup3\n        /* \"#utility.yul\":4460:4493   */\n      tag_373\n      jump\t// in\n    tag_494:\n        /* \"#utility.yul\":4370:4499   */\n      swap2\n      swap1\n      pop\n      jump\t// out\n        /* \"#utility.yul\":4505:4813   */\n    tag_375:\n        /* \"#utility.yul\":4567:4571   */\n      0x00\n        /* \"#utility.yul\":4657:4675   */\n      0xffffffffffffffff\n        /* \"#utility.yul\":4649:4655   */\n      dup3\n        /* \"#utility.yul\":4646:4676   */\n      gt\n        /* \"#utility.yul\":4643:4699   */\n      iszero\n      tag_496\n      jumpi\n        /* \"#utility.yul\":4679:4697   */\n      tag_497\n      tag_372\n      jump\t// in\n    tag_497:\n        /* \"#utility.yul\":4643:4699   */\n    tag_496:\n        /* \"#utility.yul\":4717:4746   */\n      tag_498\n        /* \"#utility.yul\":4739:4745   */\n      dup3\n        /* \"#utility.yul\":4717:4746   */\n      tag_363\n      jump\t// in\n    tag_498:\n        /* \"#utility.yul\":4709:4746   */\n      swap1\n      pop\n        /* \"#utility.yul\":4801:4805   */\n      0x20\n        /* \"#utility.yul\":4795:4799   */\n      dup2\n        /* \"#utility.yul\":4791:4806   */\n      add\n        /* \"#utility.yul\":4783:4806   */\n      swap1\n      pop\n        /* \"#utility.yul\":4505:4813   */\n      swap2\n      swap1\n      pop\n      jump\t// out\n        /* \"#utility.yul\":4819:4965   */\n    tag_376:\n        /* \"#utility.yul\":4916:4922   */\n      dup3\n        /* \"#utility.yul\":4911:4914   */\n      dup2\n        /* \"#utility.yul\":4906:4909   */\n      dup4\n        /* \"#utility.yul\":4893:4923   */\n      calldatacopy\n        /* \"#utility.yul\":4957:4958   */\n      0x00\n        /* \"#utility.yul\":4948:4954   */\n      dup4\n        /* \"#utility.yul\":4943:4946   */\n      dup4\n        /* \"#utility.yul\":4939:4955   */\n      add\n        /* \"#utility.yul\":4932:4959   */\n      mstore\n        /* \"#utility.yul\":4819:4965   */\n      pop\n      pop\n      pop\n      jump\t// out\n        /* \"#utility.yul\":4971:5396   */\n    tag_377:\n        /* \"#utility.yul\":5049:5054   */\n      0x00\n        /* \"#utility.yul\":5074:5140   */\n      tag_501\n        /* \"#utility.yul\":5090:5139   */\n      tag_502\n        /* \"#utility.yul\":5132:5138   */\n      dup5\n        /* \"#utility.yul\":5090:5139   */\n      tag_375\n      jump\t// in\n    tag_502:\n        /* \"#utility.yul\":5074:5140   */\n      tag_374\n      jump\t// in\n    tag_501:\n        /* \"#utility.yul\":5065:5140   */\n      swap1\n      pop\n        /* \"#utility.yul\":5163:5169   */\n      dup3\n        /* \"#utility.yul\":5156:5161   */\n      dup2\n        /* \"#utility.yul\":5149:5170   */\n      mstore\n        /* \"#utility.yul\":5201:5205   */\n      0x20\n        /* \"#utility.yul\":5194:5199   */\n      dup2\n        /* \"#utility.yul\":5190:5206   */\n      add\n        /* \"#utility.yul\":5239:5242   */\n      dup5\n        /* \"#utility.yul\":5230:5236   */\n      dup5\n        /* \"#utility.yul\":5225:5228   */\n      dup5\n        /* \"#utility.yul\":5221:5237   */\n      add\n        /* \"#utility.yul\":5218:5243   */\n      gt\n        /* \"#utility.yul\":5215:5327   */\n      iszero\n      tag_503\n      jumpi\n        /* \"#utility.yul\":5246:5325   */\n      tag_504\n      tag_371\n      jump\t// in\n    tag_504:\n        /* \"#utility.yul\":5215:5327   */\n    tag_503:\n        /* \"#utility.yul\":5336:5390   */\n      tag_505\n        /* \"#utility.yul\":5383:5389   */\n      dup5\n        /* \"#utility.yul\":5378:5381   */\n      dup3\n        /* \"#utility.yul\":5373:5376   */\n      dup6\n        /* \"#utility.yul\":5336:5390   */\n      tag_376\n      jump\t// in\n    tag_505:\n        /* \"#utility.yul\":5055:5396   */\n      pop\n        /* \"#utility.yul\":4971:5396   */\n      swap4\n      swap3\n      pop\n      pop\n      pop\n      jump\t// out\n        /* \"#utility.yul\":5416:5756   */\n    tag_378:\n        /* \"#utility.yul\":5472:5477   */\n      0x00\n        /* \"#utility.yul\":5521:5524   */\n      dup3\n        /* \"#utility.yul\":5514:5518   */\n      0x1f\n        /* \"#utility.yul\":5506:5512   */\n      dup4\n        /* \"#utility.yul\":5502:5519   */\n      add\n        /* \"#utility.yul\":5498:5525   */\n      slt\n        /* \"#utility.yul\":5488:5610   */\n      tag_507\n      jumpi\n        /* \"#utility.yul\":5529:5608   */\n      tag_508\n      tag_370\n      jump\t// in\n    tag_508:\n        /* \"#utility.yul\":5488:5610   */\n    tag_507:\n        /* \"#utility.yul\":5646:5652   */\n      dup2\n        /* \"#utility.yul\":5633:5653   */\n      calldataload\n        /* \"#utility.yul\":5671:5750   */\n      tag_509\n        /* \"#utility.yul\":5746:5749   */\n      dup5\n        /* \"#utility.yul\":5738:5744   */\n      dup3\n        /* \"#utility.yul\":5731:5735   */\n      0x20\n        /* \"#utility.yul\":5723:5729   */\n      dup7\n        /* \"#utility.yul\":5719:5736   */\n      add\n        /* \"#utility.yul\":5671:5750   */\n      tag_377\n      jump\t// in\n    tag_509:\n        /* \"#utility.yul\":5662:5750   */\n      swap2\n      pop\n        /* \"#utility.yul\":5478:5756   */\n      pop\n        /* \"#utility.yul\":5416:5756   */\n      swap3\n      swap2\n      pop\n      pop\n      jump\t// out\n        /* \"#utility.yul\":5762:6271   */\n    tag_30:\n        /* \"#utility.yul\":5831:5837   */\n      0x00\n        /* \"#utility.yul\":5880:5882   */\n      0x20\n        /* \"#utility.yul\":5868:5877   */\n      dup3\n        /* \"#utility.yul\":5859:5866   */\n      dup5\n        /* \"#utility.yul\":5855:5878   */\n      sub\n        /* \"#utility.yul\":5851:5883   */\n      slt\n        /* \"#utility.yul\":5848:5967   */\n      iszero\n      tag_511\n      jumpi\n        /* \"#utility.yul\":5886:5965   */\n      tag_512\n      tag_355\n      jump\t// in\n    tag_512:\n        /* \"#utility.yul\":5848:5967   */\n    tag_511:\n        /* \"#utility.yul\":6034:6035   */\n      0x00\n        /* \"#utility.yul\":6023:6032   */\n      dup3\n        /* \"#utility.yul\":6019:6036   */\n      add\n        /* \"#utility.yul\":6006:6037   */\n      calldataload\n        /* \"#utility.yul\":6064:6082   */\n      0xffffffffffffffff\n        /* \"#utility.yul\":6056:6062   */\n      dup2\n        /* \"#utility.yul\":6053:6083   */\n      gt\n        /* \"#utility.yul\":6050:6167   */\n      iszero\n      tag_513\n      jumpi\n        /* \"#utility.yul\":6086:6165   */\n      tag_514\n      tag_356\n      jump\t// in\n    tag_514:\n        /* \"#utility.yul\":6050:6167   */\n    tag_513:\n        /* \"#utility.yul\":6191:6254   */\n      tag_515\n        /* \"#utility.yul\":6246:6253   */\n      dup5\n        /* \"#utility.yul\":6237:6243   */\n      dup3\n        /* \"#utility.yul\":6226:6235   */\n      dup6\n        /* \"#utility.yul\":6222:6244   */\n      add\n        /* \"#utility.yul\":6191:6254   */\n      tag_378\n      jump\t// in\n    tag_515:\n        /* \"#utility.yul\":6181:6254   */\n      swap2\n      pop\n        /* \"#utility.yul\":5977:6264   */\n      pop\n        /* \"#utility.yul\":5762:6271   */\n      swap3\n      swap2\n      pop\n      pop\n      jump\t// out\n        /* \"#utility.yul\":6277:6403   */\n    tag_379:\n        /* \"#utility.yul\":6314:6321   */\n      0x00\n        /* \"#utility.yul\":6354:6396   */\n      0xffffffffffffffffffffffffffffffffffffffff\n        /* \"#utility.yul\":6347:6352   */\n      dup3\n        /* \"#utility.yul\":6343:6397   */\n      and\n        /* \"#utility.yul\":6332:6397   */\n      swap1\n      pop\n        /* \"#utility.yul\":6277:6403   */\n      swap2\n      swap1\n      pop\n      jump\t// out\n        /* \"#utility.yul\":6409:6505   */\n    tag_380:\n        /* \"#utility.yul\":6446:6453   */\n      0x00\n        /* \"#utility.yul\":6475:6499   */\n      tag_518\n        /* \"#utility.yul\":6493:6498   */\n      dup3\n        /* \"#utility.yul\":6475:6499   */\n      tag_379\n      jump\t// in\n    tag_518:\n        /* \"#utility.yul\":6464:6499   */\n      swap1\n      pop\n        /* \"#utility.yul\":6409:6505   */\n      swap2\n      swap1\n      pop\n      jump\t// out\n        /* \"#utility.yul\":6511:6633   */\n    tag_381:\n        /* \"#utility.yul\":6584:6608   */\n      tag_520\n        /* \"#utility.yul\":6602:6607   */\n      dup2\n        /* \"#utility.yul\":6584:6608   */\n      tag_380\n      jump\t// in\n    tag_520:\n        /* \"#utility.yul\":6577:6582   */\n      dup2\n        /* \"#utility.yul\":6574:6609   */\n      eq\n        /* \"#utility.yul\":6564:6627   */\n      tag_521\n      jumpi\n        /* \"#utility.yul\":6623:6624   */\n      0x00\n        /* \"#utility.yul\":6620:6621   */\n      dup1\n        /* \"#utility.yul\":6613:6625   */\n      revert\n        /* \"#utility.yul\":6564:6627   */\n    tag_521:\n        /* \"#utility.yul\":6511:6633   */\n      pop\n      jump\t// out\n        /* \"#utility.yul\":6639:6778   */\n    tag_382:\n        /* \"#utility.yul\":6685:6690   */\n      0x00\n        /* \"#utility.yul\":6723:6729   */\n      dup2\n        /* \"#utility.yul\":6710:6730   */\n      calldataload\n        /* \"#utility.yul\":6701:6730   */\n      swap1\n      pop\n        /* \"#utility.yul\":6739:6772   */\n      tag_523\n        /* \"#utility.yul\":6766:6771   */\n      dup2\n        /* \"#utility.yul\":6739:6772   */\n      tag_381\n      jump\t// in\n    tag_523:\n        /* \"#utility.yul\":6639:6778   */\n      swap3\n      swap2\n      pop\n      pop\n      jump\t// out\n        /* \"#utility.yul\":6784:7113   */\n    tag_34:\n        /* \"#utility.yul\":6843:6849   */\n      0x00\n        /* \"#utility.yul\":6892:6894   */\n      0x20\n        /* \"#utility.yul\":6880:6889   */\n      dup3\n        /* \"#utility.yul\":6871:6878   */\n      dup5\n        /* \"#utility.yul\":6867:6890   */\n      sub\n        /* \"#utility.yul\":6863:6895   */\n      slt\n        /* \"#utility.yul\":6860:6979   */\n      iszero\n      tag_525\n      jumpi\n        /* \"#utility.yul\":6898:6977   */\n      tag_526\n      tag_355\n      jump\t// in\n    tag_526:\n        /* \"#utility.yul\":6860:6979   */\n    tag_525:\n        /* \"#utility.yul\":7018:7019   */\n      0x00\n        /* \"#utility.yul\":7043:7096   */\n      tag_527\n        /* \"#utility.yul\":7088:7095   */\n      dup5\n        /* \"#utility.yul\":7079:7085   */\n      dup3\n        /* \"#utility.yul\":7068:7077   */\n      dup6\n        /* \"#utility.yul\":7064:7086   */\n      add\n        /* \"#utility.yul\":7043:7096   */\n      tag_382\n      jump\t// in\n    tag_527:\n        /* \"#utility.yul\":7033:7096   */\n      swap2\n      pop\n        /* \"#utility.yul\":6989:7106   */\n      pop\n        /* \"#utility.yul\":6784:7113   */\n      swap3\n      swap2\n      pop\n      pop\n      jump\t// out\n        /* \"#utility.yul\":7119:7258   */\n    tag_383:\n        /* \"#utility.yul\":7211:7217   */\n      0x00\n        /* \"#utility.yul\":7245:7250   */\n      dup2\n        /* \"#utility.yul\":7239:7251   */\n      mload\n        /* \"#utility.yul\":7229:7251   */\n      swap1\n      pop\n        /* \"#utility.yul\":7119:7258   */\n      swap2\n      swap1\n      pop\n      jump\t// out\n        /* \"#utility.yul\":7264:7473   */\n    tag_384:\n        /* \"#utility.yul\":7388:7399   */\n      0x00\n        /* \"#utility.yul\":7422:7428   */\n      dup3\n        /* \"#utility.yul\":7417:7420   */\n      dup3\n        /* \"#utility.yul\":7410:7429   */\n      mstore\n        /* \"#utility.yul\":7462:7466   */\n      0x20\n        /* \"#utility.yul\":7457:7460   */\n      dup3\n        /* \"#utility.yul\":7453:7467   */\n      add\n        /* \"#utility.yul\":7438:7467   */\n      swap1\n      pop\n        /* \"#utility.yul\":7264:7473   */\n      swap3\n      swap2\n      pop\n      pop\n      jump\t// out\n        /* \"#utility.yul\":7479:7636   */\n    tag_385:\n        /* \"#utility.yul\":7571:7575   */\n      0x00\n        /* \"#utility.yul\":7594:7597   */\n      dup2\n        /* \"#utility.yul\":7586:7597   */\n      swap1\n      pop\n        /* \"#utility.yul\":7624:7628   */\n      0x20\n        /* \"#utility.yul\":7619:7622   */\n      dup3\n        /* \"#utility.yul\":7615:7629   */\n      add\n        /* \"#utility.yul\":7607:7629   */\n      swap1\n      pop\n        /* \"#utility.yul\":7479:7636   */\n      swap2\n      swap1\n      pop\n      jump\t// out\n        /* \"#utility.yul\":7642:7801   */\n    tag_386:\n        /* \"#utility.yul\":7716:7727   */\n      0x00\n        /* \"#utility.yul\":7750:7756   */\n      dup3\n        /* \"#utility.yul\":7745:7748   */\n      dup3\n        /* \"#utility.yul\":7738:7757   */\n      mstore\n        /* \"#utility.yul\":7790:7794   */\n      0x20\n        /* \"#utility.yul\":7785:7788   */\n      dup3\n        /* \"#utility.yul\":7781:7795   */\n      add\n        /* \"#utility.yul\":7766:7795   */\n      swap1\n      pop\n        /* \"#utility.yul\":7642:7801   */\n      swap3\n      swap2\n      pop\n      pop\n      jump\t// out\n        /* \"#utility.yul\":7807:8164   */\n    tag_387:\n        /* \"#utility.yul\":7885:7888   */\n      0x00\n        /* \"#utility.yul\":7913:7952   */\n      tag_533\n        /* \"#utility.yul\":7946:7951   */\n      dup3\n        /* \"#utility.yul\":7913:7952   */\n      tag_360\n      jump\t// in\n    tag_533:\n        /* \"#utility.yul\":7968:8029   */\n      tag_534\n        /* \"#utility.yul\":8022:8028   */\n      dup2\n        /* \"#utility.yul\":8017:8020   */\n      dup6\n        /* \"#utility.yul\":7968:8029   */\n      tag_386\n      jump\t// in\n    tag_534:\n        /* \"#utility.yul\":7961:8029   */\n      swap4\n      pop\n        /* \"#utility.yul\":8038:8103   */\n      tag_535\n        /* \"#utility.yul\":8096:8102   */\n      dup2\n        /* \"#utility.yul\":8091:8094   */\n      dup6\n        /* \"#utility.yul\":8084:8088   */\n      0x20\n        /* \"#utility.yul\":8077:8082   */\n      dup7\n        /* \"#utility.yul\":8073:8089   */\n      add\n        /* \"#utility.yul\":8038:8103   */\n      tag_362\n      jump\t// in\n    tag_535:\n        /* \"#utility.yul\":8128:8157   */\n      tag_536\n        /* \"#utility.yul\":8150:8156   */\n      dup2\n        /* \"#utility.yul\":8128:8157   */\n      tag_363\n      jump\t// in\n    tag_536:\n        /* \"#utility.yul\":8123:8126   */\n      dup5\n        /* \"#utility.yul\":8119:8158   */\n      add\n        /* \"#utility.yul\":8112:8158   */\n      swap2\n      pop\n        /* \"#utility.yul\":7889:8164   */\n      pop\n        /* \"#utility.yul\":7807:8164   */\n      swap3\n      swap2\n      pop\n      pop\n      jump\t// out\n        /* \"#utility.yul\":8170:8278   */\n    tag_388:\n        /* \"#utility.yul\":8247:8271   */\n      tag_538\n        /* \"#utility.yul\":8265:8270   */\n      dup2\n        /* \"#utility.yul\":8247:8271   */\n      tag_357\n      jump\t// in\n    tag_538:\n        /* \"#utility.yul\":8242:8245   */\n      dup3\n        /* \"#utility.yul\":8235:8272   */\n      mstore\n        /* \"#utility.yul\":8170:8278   */\n      pop\n      pop\n      jump\t// out\n        /* \"#utility.yul\":8340:8948   */\n    tag_389:\n        /* \"#utility.yul\":8449:8452   */\n      0x00\n        /* \"#utility.yul\":8485:8489   */\n      0x40\n        /* \"#utility.yul\":8480:8483   */\n      dup4\n        /* \"#utility.yul\":8476:8490   */\n      add\n        /* \"#utility.yul\":8579:8583   */\n      0x00\n        /* \"#utility.yul\":8572:8577   */\n      dup4\n        /* \"#utility.yul\":8568:8584   */\n      add\n        /* \"#utility.yul\":8562:8585   */\n      mload\n        /* \"#utility.yul\":8632:8635   */\n      dup5\n        /* \"#utility.yul\":8626:8630   */\n      dup3\n        /* \"#utility.yul\":8622:8636   */\n      sub\n        /* \"#utility.yul\":8615:8619   */\n      0x00\n        /* \"#utility.yul\":8610:8613   */\n      dup7\n        /* \"#utility.yul\":8606:8620   */\n      add\n        /* \"#utility.yul\":8599:8637   */\n      mstore\n        /* \"#utility.yul\":8658:8731   */\n      tag_540\n        /* \"#utility.yul\":8726:8730   */\n      dup3\n        /* \"#utility.yul\":8712:8724   */\n      dup3\n        /* \"#utility.yul\":8658:8731   */\n      tag_387\n      jump\t// in\n    tag_540:\n        /* \"#utility.yul\":8650:8731   */\n      swap2\n      pop\n        /* \"#utility.yul\":8500:8742   */\n      pop\n        /* \"#utility.yul\":8829:8833   */\n      0x20\n        /* \"#utility.yul\":8822:8827   */\n      dup4\n        /* \"#utility.yul\":8818:8834   */\n      add\n        /* \"#utility.yul\":8812:8835   */\n      mload\n        /* \"#utility.yul\":8848:8911   */\n      tag_541\n        /* \"#utility.yul\":8905:8909   */\n      0x20\n        /* \"#utility.yul\":8900:8903   */\n      dup7\n        /* \"#utility.yul\":8896:8910   */\n      add\n        /* \"#utility.yul\":8882:8894   */\n      dup3\n        /* \"#utility.yul\":8848:8911   */\n      tag_388\n      jump\t// in\n    tag_541:\n        /* \"#utility.yul\":8752:8921   */\n      pop\n        /* \"#utility.yul\":8938:8942   */\n      dup1\n        /* \"#utility.yul\":8931:8942   */\n      swap2\n      pop\n        /* \"#utility.yul\":8454:8948   */\n      pop\n        /* \"#utility.yul\":8340:8948   */\n      swap3\n      swap2\n      pop\n      pop\n      jump\t// out\n        /* \"#utility.yul\":8954:9210   */\n    tag_390:\n        /* \"#utility.yul\":9073:9083   */\n      0x00\n        /* \"#utility.yul\":9108:9204   */\n      tag_543\n        /* \"#utility.yul\":9200:9203   */\n      dup4\n        /* \"#utility.yul\":9192:9198   */\n      dup4\n        /* \"#utility.yul\":9108:9204   */\n      tag_389\n      jump\t// in\n    tag_543:\n        /* \"#utility.yul\":9094:9204   */\n      swap1\n      pop\n        /* \"#utility.yul\":8954:9210   */\n      swap3\n      swap2\n      pop\n      pop\n      jump\t// out\n        /* \"#utility.yul\":9216:9354   */\n    tag_391:\n        /* \"#utility.yul\":9311:9315   */\n      0x00\n        /* \"#utility.yul\":9343:9347   */\n      0x20\n        /* \"#utility.yul\":9338:9341   */\n      dup3\n        /* \"#utility.yul\":9334:9348   */\n      add\n        /* \"#utility.yul\":9326:9348   */\n      swap1\n      pop\n        /* \"#utility.yul\":9216:9354   */\n      swap2\n      swap1\n      pop\n      jump\t// out\n        /* \"#utility.yul\":9420:10531   */\n    tag_392:\n        /* \"#utility.yul\":9589:9592   */\n      0x00\n        /* \"#utility.yul\":9618:9697   */\n      tag_546\n        /* \"#utility.yul\":9691:9696   */\n      dup3\n        /* \"#utility.yul\":9618:9697   */\n      tag_383\n      jump\t// in\n    tag_546:\n        /* \"#utility.yul\":9713:9824   */\n      tag_547\n        /* \"#utility.yul\":9817:9823   */\n      dup2\n        /* \"#utility.yul\":9812:9815   */\n      dup6\n        /* \"#utility.yul\":9713:9824   */\n      tag_384\n      jump\t// in\n    tag_547:\n        /* \"#utility.yul\":9706:9824   */\n      swap4\n      pop\n        /* \"#utility.yul\":9850:9853   */\n      dup4\n        /* \"#utility.yul\":9895:9899   */\n      0x20\n        /* \"#utility.yul\":9887:9893   */\n      dup3\n        /* \"#utility.yul\":9883:9900   */\n      mul\n        /* \"#utility.yul\":9878:9881   */\n      dup6\n        /* \"#utility.yul\":9874:9901   */\n      add\n        /* \"#utility.yul\":9925:10006   */\n      tag_548\n        /* \"#utility.yul\":10000:10005   */\n      dup6\n        /* \"#utility.yul\":9925:10006   */\n      tag_385\n      jump\t// in\n    tag_548:\n        /* \"#utility.yul\":10029:10036   */\n      dup1\n        /* \"#utility.yul\":10060:10061   */\n      0x00\n        /* \"#utility.yul\":10045:10486   */\n    tag_549:\n        /* \"#utility.yul\":10070:10076   */\n      dup6\n        /* \"#utility.yul\":10067:10068   */\n      dup2\n        /* \"#utility.yul\":10064:10077   */\n      lt\n        /* \"#utility.yul\":10045:10486   */\n      iszero\n      tag_551\n      jumpi\n        /* \"#utility.yul\":10141:10150   */\n      dup5\n        /* \"#utility.yul\":10135:10139   */\n      dup5\n        /* \"#utility.yul\":10131:10151   */\n      sub\n        /* \"#utility.yul\":10126:10129   */\n      dup10\n        /* \"#utility.yul\":10119:10152   */\n      mstore\n        /* \"#utility.yul\":10192:10198   */\n      dup2\n        /* \"#utility.yul\":10186:10199   */\n      mload\n        /* \"#utility.yul\":10220:10334   */\n      tag_552\n        /* \"#utility.yul\":10329:10333   */\n      dup6\n        /* \"#utility.yul\":10314:10327   */\n      dup3\n        /* \"#utility.yul\":10220:10334   */\n      tag_390\n      jump\t// in\n    tag_552:\n        /* \"#utility.yul\":10212:10334   */\n      swap5\n      pop\n        /* \"#utility.yul\":10357:10442   */\n      tag_553\n        /* \"#utility.yul\":10435:10441   */\n      dup4\n        /* \"#utility.yul\":10357:10442   */\n      tag_391\n      jump\t// in\n    tag_553:\n        /* \"#utility.yul\":10347:10442   */\n      swap3\n      pop\n        /* \"#utility.yul\":10471:10475   */\n      0x20\n        /* \"#utility.yul\":10466:10469   */\n      dup11\n        /* \"#utility.yul\":10462:10476   */\n      add\n        /* \"#utility.yul\":10455:10476   */\n      swap10\n      pop\n        /* \"#utility.yul\":10105:10486   */\n      pop\n        /* \"#utility.yul\":10092:10093   */\n      0x01\n        /* \"#utility.yul\":10089:10090   */\n      dup2\n        /* \"#utility.yul\":10085:10094   */\n      add\n        /* \"#utility.yul\":10080:10094   */\n      swap1\n      pop\n        /* \"#utility.yul\":10045:10486   */\n      jump(tag_549)\n    tag_551:\n        /* \"#utility.yul\":10049:10063   */\n      pop\n        /* \"#utility.yul\":10502:10506   */\n      dup3\n        /* \"#utility.yul\":10495:10506   */\n      swap8\n      pop\n        /* \"#utility.yul\":10522:10525   */\n      dup8\n        /* \"#utility.yul\":10515:10525   */\n      swap6\n      pop\n        /* \"#utility.yul\":9594:10531   */\n      pop\n      pop\n      pop\n      pop\n      pop\n        /* \"#utility.yul\":9420:10531   */\n      swap3\n      swap2\n      pop\n      pop\n      jump\t// out\n        /* \"#utility.yul\":10537:11010   */\n    tag_39:\n        /* \"#utility.yul\":10730:10734   */\n      0x00\n        /* \"#utility.yul\":10768:10770   */\n      0x20\n        /* \"#utility.yul\":10757:10766   */\n      dup3\n        /* \"#utility.yul\":10753:10771   */\n      add\n        /* \"#utility.yul\":10745:10771   */\n      swap1\n      pop\n        /* \"#utility.yul\":10817:10826   */\n      dup2\n        /* \"#utility.yul\":10811:10815   */\n      dup2\n        /* \"#utility.yul\":10807:10827   */\n      sub\n        /* \"#utility.yul\":10803:10804   */\n      0x00\n        /* \"#utility.yul\":10792:10801   */\n      dup4\n        /* \"#utility.yul\":10788:10805   */\n      add\n        /* \"#utility.yul\":10781:10828   */\n      mstore\n        /* \"#utility.yul\":10845:11003   */\n      tag_555\n        /* \"#utility.yul\":10998:11002   */\n      dup2\n        /* \"#utility.yul\":10989:10995   */\n      dup5\n        /* \"#utility.yul\":10845:11003   */\n      tag_392\n      jump\t// in\n    tag_555:\n        /* \"#utility.yul\":10837:11003   */\n      swap1\n      pop\n        /* \"#utility.yul\":10537:11010   */\n      swap3\n      swap2\n      pop\n      pop\n      jump\t// out\n        /* \"#utility.yul\":11016:11134   */\n    tag_393:\n        /* \"#utility.yul\":11103:11127   */\n      tag_557\n        /* \"#utility.yul\":11121:11126   */\n      dup2\n        /* \"#utility.yul\":11103:11127   */\n      tag_380\n      jump\t// in\n    tag_557:\n        /* \"#utility.yul\":11098:11101   */\n      dup3\n        /* \"#utility.yul\":11091:11128   */\n      mstore\n        /* \"#utility.yul\":11016:11134   */\n      pop\n      pop\n      jump\t// out\n        /* \"#utility.yul\":11140:11362   */\n    tag_47:\n        /* \"#utility.yul\":11233:11237   */\n      0x00\n        /* \"#utility.yul\":11271:11273   */\n      0x20\n        /* \"#utility.yul\":11260:11269   */\n      dup3\n        /* \"#utility.yul\":11256:11274   */\n      add\n        /* \"#utility.yul\":11248:11274   */\n      swap1\n      pop\n        /* \"#utility.yul\":11284:11355   */\n      tag_559\n        /* \"#utility.yul\":11352:11353   */\n      0x00\n        /* \"#utility.yul\":11341:11350   */\n      dup4\n        /* \"#utility.yul\":11337:11354   */\n      add\n        /* \"#utility.yul\":11328:11334   */\n      dup5\n        /* \"#utility.yul\":11284:11355   */\n      tag_393\n      jump\t// in\n    tag_559:\n        /* \"#utility.yul\":11140:11362   */\n      swap3\n      swap2\n      pop\n      pop\n      jump\t// out\n        /* \"#utility.yul\":11368:11458   */\n    tag_394:\n        /* \"#utility.yul\":11402:11409   */\n      0x00\n        /* \"#utility.yul\":11445:11450   */\n      dup2\n        /* \"#utility.yul\":11438:11451   */\n      iszero\n        /* \"#utility.yul\":11431:11452   */\n      iszero\n        /* \"#utility.yul\":11420:11452   */\n      swap1\n      pop\n        /* \"#utility.yul\":11368:11458   */\n      swap2\n      swap1\n      pop\n      jump\t// out\n        /* \"#utility.yul\":11464:11573   */\n    tag_395:\n        /* \"#utility.yul\":11545:11566   */\n      tag_562\n        /* \"#utility.yul\":11560:11565   */\n      dup2\n        /* \"#utility.yul\":11545:11566   */\n      tag_394\n      jump\t// in\n    tag_562:\n        /* \"#utility.yul\":11540:11543   */\n      dup3\n        /* \"#utility.yul\":11533:11567   */\n      mstore\n        /* \"#utility.yul\":11464:11573   */\n      pop\n      pop\n      jump\t// out\n        /* \"#utility.yul\":11579:11997   */\n    tag_52:\n        /* \"#utility.yul\":11716:11720   */\n      0x00\n        /* \"#utility.yul\":11754:11756   */\n      0x60\n        /* \"#utility.yul\":11743:11752   */\n      dup3\n        /* \"#utility.yul\":11739:11757   */\n      add\n        /* \"#utility.yul\":11731:11757   */\n      swap1\n      pop\n        /* \"#utility.yul\":11767:11832   */\n      tag_564\n        /* \"#utility.yul\":11829:11830   */\n      0x00\n        /* \"#utility.yul\":11818:11827   */\n      dup4\n        /* \"#utility.yul\":11814:11831   */\n      add\n        /* \"#utility.yul\":11805:11811   */\n      dup7\n        /* \"#utility.yul\":11767:11832   */\n      tag_395\n      jump\t// in\n    tag_564:\n        /* \"#utility.yul\":11842:11908   */\n      tag_565\n        /* \"#utility.yul\":11904:11906   */\n      0x20\n        /* \"#utility.yul\":11893:11902   */\n      dup4\n        /* \"#utility.yul\":11889:11907   */\n      add\n        /* \"#utility.yul\":11880:11886   */\n      dup6\n        /* \"#utility.yul\":11842:11908   */\n      tag_395\n      jump\t// in\n    tag_565:\n        /* \"#utility.yul\":11918:11990   */\n      tag_566\n        /* \"#utility.yul\":11986:11988   */\n      0x40\n        /* \"#utility.yul\":11975:11984   */\n      dup4\n        /* \"#utility.yul\":11971:11989   */\n      add\n        /* \"#utility.yul\":11962:11968   */\n      dup5\n        /* \"#utility.yul\":11918:11990   */\n      tag_365\n      jump\t// in\n    tag_566:\n        /* \"#utility.yul\":11579:11997   */\n      swap5\n      swap4\n      pop\n      pop\n      pop\n      pop\n      jump\t// out\n        /* \"#utility.yul\":12059:12677   */\n    tag_396:\n        /* \"#utility.yul\":12178:12181   */\n      0x00\n        /* \"#utility.yul\":12214:12218   */\n      0x40\n        /* \"#utility.yul\":12209:12212   */\n      dup4\n        /* \"#utility.yul\":12205:12219   */\n      add\n        /* \"#utility.yul\":12308:12312   */\n      0x00\n        /* \"#utility.yul\":12301:12306   */\n      dup4\n        /* \"#utility.yul\":12297:12313   */\n      add\n        /* \"#utility.yul\":12291:12314   */\n      mload\n        /* \"#utility.yul\":12361:12364   */\n      dup5\n        /* \"#utility.yul\":12355:12359   */\n      dup3\n        /* \"#utility.yul\":12351:12365   */\n      sub\n        /* \"#utility.yul\":12344:12348   */\n      0x00\n        /* \"#utility.yul\":12339:12342   */\n      dup7\n        /* \"#utility.yul\":12335:12349   */\n      add\n        /* \"#utility.yul\":12328:12366   */\n      mstore\n        /* \"#utility.yul\":12387:12460   */\n      tag_568\n        /* \"#utility.yul\":12455:12459   */\n      dup3\n        /* \"#utility.yul\":12441:12453   */\n      dup3\n        /* \"#utility.yul\":12387:12460   */\n      tag_387\n      jump\t// in\n    tag_568:\n        /* \"#utility.yul\":12379:12460   */\n      swap2\n      pop\n        /* \"#utility.yul\":12229:12471   */\n      pop\n        /* \"#utility.yul\":12558:12562   */\n      0x20\n        /* \"#utility.yul\":12551:12556   */\n      dup4\n        /* \"#utility.yul\":12547:12563   */\n      add\n        /* \"#utility.yul\":12541:12564   */\n      mload\n        /* \"#utility.yul\":12577:12640   */\n      tag_569\n        /* \"#utility.yul\":12634:12638   */\n      0x20\n        /* \"#utility.yul\":12629:12632   */\n      dup7\n        /* \"#utility.yul\":12625:12639   */\n      add\n        /* \"#utility.yul\":12611:12623   */\n      dup3\n        /* \"#utility.yul\":12577:12640   */\n      tag_388\n      jump\t// in\n    tag_569:\n        /* \"#utility.yul\":12481:12650   */\n      pop\n        /* \"#utility.yul\":12667:12671   */\n      dup1\n        /* \"#utility.yul\":12660:12671   */\n      swap2\n      pop\n        /* \"#utility.yul\":12183:12677   */\n      pop\n        /* \"#utility.yul\":12059:12677   */\n      swap3\n      swap2\n      pop\n      pop\n      jump\t// out\n        /* \"#utility.yul\":12683:13056   */\n    tag_56:\n        /* \"#utility.yul\":12826:12830   */\n      0x00\n        /* \"#utility.yul\":12864:12866   */\n      0x20\n        /* \"#utility.yul\":12853:12862   */\n      dup3\n        /* \"#utility.yul\":12849:12867   */\n      add\n        /* \"#utility.yul\":12841:12867   */\n      swap1\n      pop\n        /* \"#utility.yul\":12913:12922   */\n      dup2\n        /* \"#utility.yul\":12907:12911   */\n      dup2\n        /* \"#utility.yul\":12903:12923   */\n      sub\n        /* \"#utility.yul\":12899:12900   */\n      0x00\n        /* \"#utility.yul\":12888:12897   */\n      dup4\n        /* \"#utility.yul\":12884:12901   */\n      add\n        /* \"#utility.yul\":12877:12924   */\n      mstore\n        /* \"#utility.yul\":12941:13049   */\n      tag_571\n        /* \"#utility.yul\":13044:13048   */\n      dup2\n        /* \"#utility.yul\":13035:13041   */\n      dup5\n        /* \"#utility.yul\":12941:13049   */\n      tag_396\n      jump\t// in\n    tag_571:\n        /* \"#utility.yul\":12933:13049   */\n      swap1\n      pop\n        /* \"#utility.yul\":12683:13056   */\n      swap3\n      swap2\n      pop\n      pop\n      jump\t// out\n        /* \"#utility.yul\":13062:13373   */\n    tag_397:\n        /* \"#utility.yul\":13139:13143   */\n      0x00\n        /* \"#utility.yul\":13229:13247   */\n      0xffffffffffffffff\n        /* \"#utility.yul\":13221:13227   */\n      dup3\n        /* \"#utility.yul\":13218:13248   */\n      gt\n        /* \"#utility.yul\":13215:13271   */\n      iszero\n      tag_573\n      jumpi\n        /* \"#utility.yul\":13251:13269   */\n      tag_574\n      tag_372\n      jump\t// in\n    tag_574:\n        /* \"#utility.yul\":13215:13271   */\n    tag_573:\n        /* \"#utility.yul\":13301:13305   */\n      0x20\n        /* \"#utility.yul\":13293:13299   */\n      dup3\n        /* \"#utility.yul\":13289:13306   */\n      mul\n        /* \"#utility.yul\":13281:13306   */\n      swap1\n      pop\n        /* \"#utility.yul\":13361:13365   */\n      0x20\n        /* \"#utility.yul\":13355:13359   */\n      dup2\n        /* \"#utility.yul\":13351:13366   */\n      add\n        /* \"#utility.yul\":13343:13366   */\n      swap1\n      pop\n        /* \"#utility.yul\":13062:13373   */\n      swap2\n      swap1\n      pop\n      jump\t// out\n        /* \"#utility.yul\":13379:13496   */\n    tag_398:\n        /* \"#utility.yul\":13488:13489   */\n      0x00\n        /* \"#utility.yul\":13485:13486   */\n      dup1\n        /* \"#utility.yul\":13478:13490   */\n      revert\n        /* \"#utility.yul\":13519:14229   */\n    tag_399:\n        /* \"#utility.yul\":13615:13620   */\n      0x00\n        /* \"#utility.yul\":13640:13721   */\n      tag_577\n        /* \"#utility.yul\":13656:13720   */\n      tag_578\n        /* \"#utility.yul\":13713:13719   */\n      dup5\n        /* \"#utility.yul\":13656:13720   */\n      tag_397\n      jump\t// in\n    tag_578:\n        /* \"#utility.yul\":13640:13721   */\n      tag_374\n      jump\t// in\n    tag_577:\n        /* \"#utility.yul\":13631:13721   */\n      swap1\n      pop\n        /* \"#utility.yul\":13741:13746   */\n      dup1\n        /* \"#utility.yul\":13770:13776   */\n      dup4\n        /* \"#utility.yul\":13763:13768   */\n      dup3\n        /* \"#utility.yul\":13756:13777   */\n      mstore\n        /* \"#utility.yul\":13804:13808   */\n      0x20\n        /* \"#utility.yul\":13797:13802   */\n      dup3\n        /* \"#utility.yul\":13793:13809   */\n      add\n        /* \"#utility.yul\":13786:13809   */\n      swap1\n      pop\n        /* \"#utility.yul\":13857:13861   */\n      0x20\n        /* \"#utility.yul\":13849:13855   */\n      dup5\n        /* \"#utility.yul\":13845:13862   */\n      mul\n        /* \"#utility.yul\":13837:13843   */\n      dup4\n        /* \"#utility.yul\":13833:13863   */\n      add\n        /* \"#utility.yul\":13886:13889   */\n      dup6\n        /* \"#utility.yul\":13878:13884   */\n      dup2\n        /* \"#utility.yul\":13875:13890   */\n      gt\n        /* \"#utility.yul\":13872:13994   */\n      iszero\n      tag_579\n      jumpi\n        /* \"#utility.yul\":13905:13984   */\n      tag_580\n      tag_398\n      jump\t// in\n    tag_580:\n        /* \"#utility.yul\":13872:13994   */\n    tag_579:\n        /* \"#utility.yul\":14020:14026   */\n      dup4\n        /* \"#utility.yul\":14003:14223   */\n    tag_581:\n        /* \"#utility.yul\":14037:14043   */\n      dup2\n        /* \"#utility.yul\":14032:14035   */\n      dup2\n        /* \"#utility.yul\":14029:14044   */\n      lt\n        /* \"#utility.yul\":14003:14223   */\n      iszero\n      tag_583\n      jumpi\n        /* \"#utility.yul\":14112:14115   */\n      dup1\n        /* \"#utility.yul\":14141:14178   */\n      tag_584\n        /* \"#utility.yul\":14174:14177   */\n      dup9\n        /* \"#utility.yul\":14162:14172   */\n      dup3\n        /* \"#utility.yul\":14141:14178   */\n      tag_382\n      jump\t// in\n    tag_584:\n        /* \"#utility.yul\":14136:14139   */\n      dup5\n        /* \"#utility.yul\":14129:14179   */\n      mstore\n        /* \"#utility.yul\":14208:14212   */\n      0x20\n        /* \"#utility.yul\":14203:14206   */\n      dup5\n        /* \"#utility.yul\":14199:14213   */\n      add\n        /* \"#utility.yul\":14192:14213   */\n      swap4\n      pop\n        /* \"#utility.yul\":14079:14223   */\n      pop\n        /* \"#utility.yul\":14063:14067   */\n      0x20\n        /* \"#utility.yul\":14058:14061   */\n      dup2\n        /* \"#utility.yul\":14054:14068   */\n      add\n        /* \"#utility.yul\":14047:14068   */\n      swap1\n      pop\n        /* \"#utility.yul\":14003:14223   */\n      jump(tag_581)\n    tag_583:\n        /* \"#utility.yul\":14007:14028   */\n      pop\n        /* \"#utility.yul\":13621:14229   */\n      pop\n      pop\n        /* \"#utility.yul\":13519:14229   */\n      swap4\n      swap3\n      pop\n      pop\n      pop\n      jump\t// out\n        /* \"#utility.yul\":14252:14622   */\n    tag_400:\n        /* \"#utility.yul\":14323:14328   */\n      0x00\n        /* \"#utility.yul\":14372:14375   */\n      dup3\n        /* \"#utility.yul\":14365:14369   */\n      0x1f\n        /* \"#utility.yul\":14357:14363   */\n      dup4\n        /* \"#utility.yul\":14353:14370   */\n      add\n        /* \"#utility.yul\":14349:14376   */\n      slt\n        /* \"#utility.yul\":14339:14461   */\n      tag_586\n      jumpi\n        /* \"#utility.yul\":14380:14459   */\n      tag_587\n      tag_370\n      jump\t// in\n    tag_587:\n        /* \"#utility.yul\":14339:14461   */\n    tag_586:\n        /* \"#utility.yul\":14497:14503   */\n      dup2\n        /* \"#utility.yul\":14484:14504   */\n      calldataload\n        /* \"#utility.yul\":14522:14616   */\n      tag_588\n        /* \"#utility.yul\":14612:14615   */\n      dup5\n        /* \"#utility.yul\":14604:14610   */\n      dup3\n        /* \"#utility.yul\":14597:14601   */\n      0x20\n        /* \"#utility.yul\":14589:14595   */\n      dup7\n        /* \"#utility.yul\":14585:14602   */\n      add\n        /* \"#utility.yul\":14522:14616   */\n      tag_399\n      jump\t// in\n    tag_588:\n        /* \"#utility.yul\":14513:14616   */\n      swap2\n      pop\n        /* \"#utility.yul\":14329:14622   */\n      pop\n        /* \"#utility.yul\":14252:14622   */\n      swap3\n      swap2\n      pop\n      pop\n      jump\t// out\n        /* \"#utility.yul\":14628:15167   */\n    tag_59:\n        /* \"#utility.yul\":14712:14718   */\n      0x00\n        /* \"#utility.yul\":14761:14763   */\n      0x20\n        /* \"#utility.yul\":14749:14758   */\n      dup3\n        /* \"#utility.yul\":14740:14747   */\n      dup5\n        /* \"#utility.yul\":14736:14759   */\n      sub\n        /* \"#utility.yul\":14732:14764   */\n      slt\n        /* \"#utility.yul\":14729:14848   */\n      iszero\n      tag_590\n      jumpi\n        /* \"#utility.yul\":14767:14846   */\n      tag_591\n      tag_355\n      jump\t// in\n    tag_591:\n        /* \"#utility.yul\":14729:14848   */\n    tag_590:\n        /* \"#utility.yul\":14915:14916   */\n      0x00\n        /* \"#utility.yul\":14904:14913   */\n      dup3\n        /* \"#utility.yul\":14900:14917   */\n      add\n        /* \"#utility.yul\":14887:14918   */\n      calldataload\n        /* \"#utility.yul\":14945:14963   */\n      0xffffffffffffffff\n        /* \"#utility.yul\":14937:14943   */\n      dup2\n        /* \"#utility.yul\":14934:14964   */\n      gt\n        /* \"#utility.yul\":14931:15048   */\n      iszero\n      tag_592\n      jumpi\n        /* \"#utility.yul\":14967:15046   */\n      tag_593\n      tag_356\n      jump\t// in\n    tag_593:\n        /* \"#utility.yul\":14931:15048   */\n    tag_592:\n        /* \"#utility.yul\":15072:15150   */\n      tag_594\n        /* \"#utility.yul\":15142:15149   */\n      dup5\n        /* \"#utility.yul\":15133:15139   */\n      dup3\n        /* \"#utility.yul\":15122:15131   */\n      dup6\n        /* \"#utility.yul\":15118:15140   */\n      add\n        /* \"#utility.yul\":15072:15150   */\n      tag_400\n      jump\t// in\n    tag_594:\n        /* \"#utility.yul\":15062:15150   */\n      swap2\n      pop\n        /* \"#utility.yul\":14858:15160   */\n      pop\n        /* \"#utility.yul\":14628:15167   */\n      swap3\n      swap2\n      pop\n      pop\n      jump\t// out\n        /* \"#utility.yul\":15173:15353   */\n    tag_401:\n        /* \"#utility.yul\":15221:15298   */\n      0x4e487b7100000000000000000000000000000000000000000000000000000000\n        /* \"#utility.yul\":15218:15219   */\n      0x00\n        /* \"#utility.yul\":15211:15299   */\n      mstore\n        /* \"#utility.yul\":15318:15322   */\n      0x22\n        /* \"#utility.yul\":15315:15316   */\n      0x04\n        /* \"#utility.yul\":15308:15323   */\n      mstore\n        /* \"#utility.yul\":15342:15346   */\n      0x24\n        /* \"#utility.yul\":15339:15340   */\n      0x00\n        /* \"#utility.yul\":15332:15347   */\n      revert\n        /* \"#utility.yul\":15359:15679   */\n    tag_70:\n        /* \"#utility.yul\":15403:15409   */\n      0x00\n        /* \"#utility.yul\":15440:15441   */\n      0x02\n        /* \"#utility.yul\":15434:15438   */\n      dup3\n        /* \"#utility.yul\":15430:15442   */\n      div\n        /* \"#utility.yul\":15420:15442   */\n      swap1\n      pop\n        /* \"#utility.yul\":15487:15488   */\n      0x01\n        /* \"#utility.yul\":15481:15485   */\n      dup3\n        /* \"#utility.yul\":15477:15489   */\n      and\n        /* \"#utility.yul\":15508:15526   */\n      dup1\n        /* \"#utility.yul\":15498:15579   */\n      tag_597\n      jumpi\n        /* \"#utility.yul\":15564:15568   */\n      0x7f\n        /* \"#utility.yul\":15556:15562   */\n      dup3\n        /* \"#utility.yul\":15552:15569   */\n      and\n        /* \"#utility.yul\":15542:15569   */\n      swap2\n      pop\n        /* \"#utility.yul\":15498:15579   */\n    tag_597:\n        /* \"#utility.yul\":15626:15628   */\n      0x20\n        /* \"#utility.yul\":15618:15624   */\n      dup3\n        /* \"#utility.yul\":15615:15629   */\n      lt\n        /* \"#utility.yul\":15595:15613   */\n      dup2\n        /* \"#utility.yul\":15592:15630   */\n      sub\n        /* \"#utility.yul\":15589:15673   */\n      tag_598\n      jumpi\n        /* \"#utility.yul\":15645:15663   */\n      tag_599\n      tag_401\n      jump\t// in\n    tag_599:\n        /* \"#utility.yul\":15589:15673   */\n    tag_598:\n        /* \"#utility.yul\":15410:15679   */\n      pop\n        /* \"#utility.yul\":15359:15679   */\n      swap2\n      swap1\n      pop\n      jump\t// out\n        /* \"#utility.yul\":15685:15826   */\n    tag_402:\n        /* \"#utility.yul\":15734:15738   */\n      0x00\n        /* \"#utility.yul\":15757:15760   */\n      dup2\n        /* \"#utility.yul\":15749:15760   */\n      swap1\n      pop\n        /* \"#utility.yul\":15780:15783   */\n      dup2\n        /* \"#utility.yul\":15777:15778   */\n      0x00\n        /* \"#utility.yul\":15770:15784   */\n      mstore\n        /* \"#utility.yul\":15814:15818   */\n      0x20\n        /* \"#utility.yul\":15811:15812   */\n      0x00\n        /* \"#utility.yul\":15801:15819   */\n      keccak256\n        /* \"#utility.yul\":15793:15819   */\n      swap1\n      pop\n        /* \"#utility.yul\":15685:15826   */\n      swap2\n      swap1\n      pop\n      jump\t// out\n        /* \"#utility.yul\":15832:15925   */\n    tag_403:\n        /* \"#utility.yul\":15869:15875   */\n      0x00\n        /* \"#utility.yul\":15916:15918   */\n      0x20\n        /* \"#utility.yul\":15911:15913   */\n      0x1f\n        /* \"#utility.yul\":15904:15909   */\n      dup4\n        /* \"#utility.yul\":15900:15914   */\n      add\n        /* \"#utility.yul\":15896:15919   */\n      div\n        /* \"#utility.yul\":15886:15919   */\n      swap1\n      pop\n        /* \"#utility.yul\":15832:15925   */\n      swap2\n      swap1\n      pop\n      jump\t// out\n        /* \"#utility.yul\":15931:16038   */\n    tag_404:\n        /* \"#utility.yul\":15975:15983   */\n      0x00\n        /* \"#utility.yul\":16025:16030   */\n      dup3\n        /* \"#utility.yul\":16019:16023   */\n      dup3\n        /* \"#utility.yul\":16015:16031   */\n      shl\n        /* \"#utility.yul\":15994:16031   */\n      swap1\n      pop\n        /* \"#utility.yul\":15931:16038   */\n      swap3\n      swap2\n      pop\n      pop\n      jump\t// out\n        /* \"#utility.yul\":16044:16437   */\n    tag_405:\n        /* \"#utility.yul\":16113:16119   */\n      0x00\n        /* \"#utility.yul\":16163:16164   */\n      0x08\n        /* \"#utility.yul\":16151:16161   */\n      dup4\n        /* \"#utility.yul\":16147:16165   */\n      mul\n        /* \"#utility.yul\":16186:16283   */\n      tag_604\n        /* \"#utility.yul\":16216:16282   */\n      0xffffffffffffffffffffffffffffffffffffffffffffffffffffffffffffffff\n        /* \"#utility.yul\":16205:16214   */\n      dup3\n        /* \"#utility.yul\":16186:16283   */\n      tag_404\n      jump\t// in\n    tag_604:\n        /* \"#utility.yul\":16304:16343   */\n      tag_605\n        /* \"#utility.yul\":16334:16342   */\n      dup7\n        /* \"#utility.yul\":16323:16332   */\n      dup4\n        /* \"#utility.yul\":16304:16343   */\n      tag_404\n      jump\t// in\n    tag_605:\n        /* \"#utility.yul\":16292:16343   */\n      swap6\n      pop\n        /* \"#utility.yul\":16376:16380   */\n      dup1\n        /* \"#utility.yul\":16372:16381   */\n      not\n        /* \"#utility.yul\":16365:16370   */\n      dup5\n        /* \"#utility.yul\":16361:16382   */\n      and\n        /* \"#utility.yul\":16352:16382   */\n      swap4\n      pop\n        /* \"#utility.yul\":16425:16429   */\n      dup1\n        /* \"#utility.yul\":16415:16423   */\n      dup7\n        /* \"#utility.yul\":16411:16430   */\n      and\n        /* \"#utility.yul\":16404:16409   */\n      dup5\n        /* \"#utility.yul\":16401:16431   */\n      or\n        /* \"#utility.yul\":16391:16431   */\n      swap3\n      pop\n        /* \"#utility.yul\":16120:16437   */\n      pop\n      pop\n        /* \"#utility.yul\":16044:16437   */\n      swap4\n      swap3\n      pop\n      pop\n      pop\n      jump\t// out\n        /* \"#utility.yul\":16443:16503   */\n    tag_406:\n        /* \"#utility.yul\":16471:16474   */\n      0x00\n        /* \"#utility.yul\":16492:16497   */\n      dup2\n        /* \"#utility.yul\":16485:16497   */\n      swap1\n      pop\n        /* \"#utility.yul\":16443:16503   */\n      swap2\n      swap1\n      pop\n      jump\t// out\n        /* \"#utility.yul\":16509:16651   */\n    tag_407:\n        /* \"#utility.yul\":16559:16568   */\n      0x00\n        /* \"#utility.yul\":16592:16645   */\n      tag_608\n        /* \"#utility.yul\":16610:16644   */\n      tag_609\n        /* \"#utility.yul\":16619:16643   */\n      tag_610\n        /* \"#utility.yul\":16637:16642   */\n      dup5\n        /* \"#utility.yul\":16619:16643   */\n      tag_357\n      jump\t// in\n    tag_610:\n        /* \"#utility.yul\":16610:16644   */\n      tag_406\n      jump\t// in\n    tag_609:\n        /* \"#utility.yul\":16592:16645   */\n      tag_357\n      jump\t// in\n    tag_608:\n        /* \"#utility.yul\":16579:16645   */\n      swap1\n      pop\n        /* \"#utility.yul\":16509:16651   */\n      swap2\n      swap1\n      pop\n      jump\t// out\n        /* \"#utility.yul\":16657:16732   */\n    tag_408:\n        /* \"#utility.yul\":16700:16703   */\n      0x00\n        /* \"#utility.yul\":16721:16726   */\n      dup2\n        /* \"#utility.yul\":16714:16726   */\n      swap1\n      pop\n        /* \"#utility.yul\":16657:16732   */\n      swap2\n      swap1\n      pop\n      jump\t// out\n        /* \"#utility.yul\":16738:17007   */\n    tag_409:\n        /* \"#utility.yul\":16848:16887   */\n      tag_613\n        /* \"#utility.yul\":16879:16886   */\n      dup4\n        /* \"#utility.yul\":16848:16887   */\n      tag_407\n      jump\t// in\n    tag_613:\n        /* \"#utility.yul\":16909:17000   */\n      tag_614\n        /* \"#utility.yul\":16958:16999   */\n      tag_615\n        /* \"#utility.yul\":16982:16998   */\n      dup3\n        /* \"#utility.yul\":16958:16999   */\n      tag_408\n      jump\t// in\n    tag_615:\n        /* \"#utility.yul\":16950:16956   */\n      dup5\n        /* \"#utility.yul\":16943:16947   */\n      dup5\n        /* \"#utility.yul\":16937:16948   */\n      sload\n        /* \"#utility.yul\":16909:17000   */\n      tag_405\n      jump\t// in\n    tag_614:\n        /* \"#utility.yul\":16903:16907   */\n      dup3\n        /* \"#utility.yul\":16896:17001   */\n      sstore\n        /* \"#utility.yul\":16814:17007   */\n      pop\n        /* \"#utility.yul\":16738:17007   */\n      pop\n      pop\n      pop\n      jump\t// out\n        /* \"#utility.yul\":17013:17086   */\n    tag_410:\n        /* \"#utility.yul\":17058:17061   */\n      0x00\n        /* \"#utility.yul\":17013:17086   */\n      swap1\n      jump\t// out\n        /* \"#utility.yul\":17092:17281   */\n    tag_411:\n        /* \"#utility.yul\":17169:17201   */\n      tag_618\n      tag_410\n      jump\t// in\n    tag_618:\n        /* \"#utility.yul\":17210:17275   */\n      tag_619\n        /* \"#utility.yul\":17268:17274   */\n      dup2\n        /* \"#utility.yul\":17260:17266   */\n      dup5\n        /* \"#utility.yul\":17254:17258   */\n      dup5\n        /* \"#utility.yul\":17210:17275   */\n      tag_409\n      jump\t// in\n    tag_619:\n        /* \"#utility.yul\":17145:17281   */\n      pop\n        /* \"#utility.yul\":17092:17281   */\n      pop\n      pop\n      jump\t// out\n        /* \"#utility.yul\":17287:17473   */\n    tag_412:\n        /* \"#utility.yul\":17347:17467   */\n    tag_621:\n        /* \"#utility.yul\":17364:17367   */\n      dup2\n        /* \"#utility.yul\":17357:17362   */\n      dup2\n        /* \"#utility.yul\":17354:17368   */\n      lt\n        /* \"#utility.yul\":17347:17467   */\n      iszero\n      tag_623\n      jumpi\n        /* \"#utility.yul\":17418:17457   */\n      tag_624\n        /* \"#utility.yul\":17455:17456   */\n      0x00\n        /* \"#utility.yul\":17448:17453   */\n      dup3\n        /* \"#utility.yul\":17418:17457   */\n      tag_411\n      jump\t// in\n    tag_624:\n        /* \"#utility.yul\":17391:17392   */\n      0x01\n        /* \"#utility.yul\":17384:17389   */\n      dup2\n        /* \"#utility.yul\":17380:17393   */\n      add\n        /* \"#utility.yul\":17371:17393   */\n      swap1\n      pop\n        /* \"#utility.yul\":17347:17467   */\n      jump(tag_621)\n    tag_623:\n        /* \"#utility.yul\":17287:17473   */\n      pop\n      pop\n      jump\t// out\n        /* \"#utility.yul\":17479:18022   */\n    tag_413:\n        /* \"#utility.yul\":17580:17582   */\n      0x1f\n        /* \"#utility.yul\":17575:17578   */\n      dup3\n        /* \"#utility.yul\":17572:17583   */\n      gt\n        /* \"#utility.yul\":17569:18015   */\n      iszero\n      tag_626\n      jumpi\n        /* \"#utility.yul\":17614:17652   */\n      tag_627\n        /* \"#utility.yul\":17646:17651   */\n      dup2\n        /* \"#utility.yul\":17614:17652   */\n      tag_402\n      jump\t// in\n    tag_627:\n        /* \"#utility.yul\":17698:17727   */\n      tag_628\n        /* \"#utility.yul\":17716:17726   */\n      dup5\n        /* \"#utility.yul\":17698:17727   */\n      tag_403\n      jump\t// in\n    tag_628:\n        /* \"#utility.yul\":17688:17696   */\n      dup2\n        /* \"#utility.yul\":17684:17728   */\n      add\n        /* \"#utility.yul\":17881:17883   */\n      0x20\n        /* \"#utility.yul\":17869:17879   */\n      dup6\n        /* \"#utility.yul\":17866:17884   */\n      lt\n        /* \"#utility.yul\":17863:17912   */\n      iszero\n      tag_629\n      jumpi\n        /* \"#utility.yul\":17902:17910   */\n      dup2\n        /* \"#utility.yul\":17887:17910   */\n      swap1\n      pop\n        /* \"#utility.yul\":17863:17912   */\n    tag_629:\n        /* \"#utility.yul\":17925:18005   */\n      tag_630\n        /* \"#utility.yul\":17981:18003   */\n      tag_631\n        /* \"#utility.yul\":17999:18002   */\n      dup6\n        /* \"#utility.yul\":17981:18003   */\n      tag_403\n      jump\t// in\n    tag_631:\n        /* \"#utility.yul\":17971:17979   */\n      dup4\n        /* \"#utility.yul\":17967:18004   */\n      add\n        /* \"#utility.yul\":17954:17965   */\n      dup3\n        /* \"#utility.yul\":17925:18005   */\n      tag_412\n      jump\t// in\n    tag_630:\n        /* \"#utility.yul\":17584:18015   */\n      pop\n      pop\n        /* \"#utility.yul\":17569:18015   */\n    tag_626:\n        /* \"#utility.yul\":17479:18022   */\n      pop\n      pop\n      pop\n      jump\t// out\n        /* \"#utility.yul\":18028:18145   */\n    tag_414:\n        /* \"#utility.yul\":18082:18090   */\n      0x00\n        /* \"#utility.yul\":18132:18137   */\n      dup3\n        /* \"#utility.yul\":18126:18130   */\n      dup3\n        /* \"#utility.yul\":18122:18138   */\n      shr\n        /* \"#utility.yul\":18101:18138   */\n      swap1\n      pop\n        /* \"#utility.yul\":18028:18145   */\n      swap3\n      swap2\n      pop\n      pop\n      jump\t// out\n        /* \"#utility.yul\":18151:18320   */\n    tag_415:\n        /* \"#utility.yul\":18195:18201   */\n      0x00\n        /* \"#utility.yul\":18228:18279   */\n      tag_634\n        /* \"#utility.yul\":18276:18277   */\n      0x00\n        /* \"#utility.yul\":18272:18278   */\n      not\n        /* \"#utility.yul\":18264:18269   */\n      dup5\n        /* \"#utility.yul\":18261:18262   */\n      0x08\n        /* \"#utility.yul\":18257:18270   */\n      mul\n        /* \"#utility.yul\":18228:18279   */\n      tag_414\n      jump\t// in\n    tag_634:\n        /* \"#utility.yul\":18224:18280   */\n      not\n        /* \"#utility.yul\":18309:18313   */\n      dup1\n        /* \"#utility.yul\":18303:18307   */\n      dup4\n        /* \"#utility.yul\":18299:18314   */\n      and\n        /* \"#utility.yul\":18289:18314   */\n      swap2\n      pop\n        /* \"#utility.yul\":18202:18320   */\n      pop\n        /* \"#utility.yul\":18151:18320   */\n      swap3\n      swap2\n      pop\n      pop\n      jump\t// out\n        /* \"#utility.yul\":18325:18620   */\n    tag_416:\n        /* \"#utility.yul\":18401:18405   */\n      0x00\n        /* \"#utility.yul\":18547:18576   */\n      tag_636\n        /* \"#utility.yul\":18572:18575   */\n      dup4\n        /* \"#utility.yul\":18566:18570   */\n      dup4\n        /* \"#utility.yul\":18547:18576   */\n      tag_415\n      jump\t// in\n    tag_636:\n        /* \"#utility.yul\":18539:18576   */\n      swap2\n      pop\n        /* \"#utility.yul\":18609:18612   */\n      dup3\n        /* \"#utility.yul\":18606:18607   */\n      0x02\n        /* \"#utility.yul\":18602:18613   */\n      mul\n        /* \"#utility.yul\":18596:18600   */\n      dup3\n        /* \"#utility.yul\":18593:18614   */\n      or\n        /* \"#utility.yul\":18585:18614   */\n      swap1\n      pop\n        /* \"#utility.yul\":18325:18620   */\n      swap3\n      swap2\n      pop\n      pop\n      jump\t// out\n        /* \"#utility.yul\":18625:20020   */\n    tag_84:\n        /* \"#utility.yul\":18742:18779   */\n      tag_638\n        /* \"#utility.yul\":18775:18778   */\n      dup3\n        /* \"#utility.yul\":18742:18779   */\n      tag_360\n      jump\t// in\n    tag_638:\n        /* \"#utility.yul\":18844:18862   */\n      0xffffffffffffffff\n        /* \"#utility.yul\":18836:18842   */\n      dup2\n        /* \"#utility.yul\":18833:18863   */\n      gt\n        /* \"#utility.yul\":18830:18886   */\n      iszero\n      tag_639\n      jumpi\n        /* \"#utility.yul\":18866:18884   */\n      tag_640\n      tag_372\n      jump\t// in\n    tag_640:\n        /* \"#utility.yul\":18830:18886   */\n    tag_639:\n        /* \"#utility.yul\":18910:18948   */\n      tag_641\n        /* \"#utility.yul\":18942:18946   */\n      dup3\n        /* \"#utility.yul\":18936:18947   */\n      sload\n        /* \"#utility.yul\":18910:18948   */\n      tag_70\n      jump\t// in\n    tag_641:\n        /* \"#utility.yul\":18995:19062   */\n      tag_642\n        /* \"#utility.yul\":19055:19061   */\n      dup3\n        /* \"#utility.yul\":19047:19053   */\n      dup3\n        /* \"#utility.yul\":19041:19045   */\n      dup6\n        /* \"#utility.yul\":18995:19062   */\n      tag_413\n      jump\t// in\n    tag_642:\n        /* \"#utility.yul\":19089:19090   */\n      0x00\n        /* \"#utility.yul\":19113:19117   */\n      0x20\n        /* \"#utility.yul\":19100:19117   */\n      swap1\n      pop\n        /* \"#utility.yul\":19145:19147   */\n      0x1f\n        /* \"#utility.yul\":19137:19143   */\n      dup4\n        /* \"#utility.yul\":19134:19148   */\n      gt\n        /* \"#utility.yul\":19162:19163   */\n      0x01\n        /* \"#utility.yul\":19157:19775   */\n      dup2\n      eq\n      tag_644\n      jumpi\n        /* \"#utility.yul\":19819:19820   */\n      0x00\n        /* \"#utility.yul\":19836:19842   */\n      dup5\n        /* \"#utility.yul\":19833:19910   */\n      iszero\n      tag_645\n      jumpi\n        /* \"#utility.yul\":19885:19894   */\n      dup3\n        /* \"#utility.yul\":19880:19883   */\n      dup8\n        /* \"#utility.yul\":19876:19895   */\n      add\n        /* \"#utility.yul\":19870:19896   */\n      mload\n        /* \"#utility.yul\":19861:19896   */\n      swap1\n      pop\n        /* \"#utility.yul\":19833:19910   */\n    tag_645:\n        /* \"#utility.yul\":19936:20003   */\n      tag_646\n        /* \"#utility.yul\":19996:20002   */\n      dup6\n        /* \"#utility.yul\":19989:19994   */\n      dup3\n        /* \"#utility.yul\":19936:20003   */\n      tag_416\n      jump\t// in\n    tag_646:\n        /* \"#utility.yul\":19930:19934   */\n      dup7\n        /* \"#utility.yul\":19923:20004   */\n      sstore\n        /* \"#utility.yul\":19792:20014   */\n      pop\n        /* \"#utility.yul\":19127:20014   */\n      jump(tag_643)\n        /* \"#utility.yul\":19157:19775   */\n    tag_644:\n        /* \"#utility.yul\":19209:19213   */\n      0x1f\n        /* \"#utility.yul\":19205:19214   */\n      not\n        /* \"#utility.yul\":19197:19203   */\n      dup5\n        /* \"#utility.yul\":19193:19215   */\n      and\n        /* \"#utility.yul\":19243:19280   */\n      tag_647\n        /* \"#utility.yul\":19275:19279   */\n      dup7\n        /* \"#utility.yul\":19243:19280   */\n      tag_402\n      jump\t// in\n    tag_647:\n        /* \"#utility.yul\":19302:19303   */\n      0x00\n        /* \"#utility.yul\":19316:19524   */\n    tag_648:\n        /* \"#utility.yul\":19330:19337   */\n      dup3\n        /* \"#utility.yul\":19327:19328   */\n      dup2\n        /* \"#utility.yul\":19324:19338   */\n      lt\n        /* \"#utility.yul\":19316:19524   */\n      iszero\n      tag_650\n      jumpi\n        /* \"#utility.yul\":19409:19418   */\n      dup5\n        /* \"#utility.yul\":19404:19407   */\n      dup10\n        /* \"#utility.yul\":19400:19419   */\n      add\n        /* \"#utility.yul\":19394:19420   */\n      mload\n        /* \"#utility.yul\":19386:19392   */\n      dup3\n        /* \"#utility.yul\":19379:19421   */\n      sstore\n        /* \"#utility.yul\":19460:19461   */\n      0x01\n        /* \"#utility.yul\":19452:19458   */\n      dup3\n        /* \"#utility.yul\":19448:19462   */\n      add\n        /* \"#utility.yul\":19438:19462   */\n      swap2\n      pop\n        /* \"#utility.yul\":19507:19509   */\n      0x20\n        /* \"#utility.yul\":19496:19505   */\n      dup6\n        /* \"#utility.yul\":19492:19510   */\n      add\n        /* \"#utility.yul\":19479:19510   */\n      swap5\n      pop\n        /* \"#utility.yul\":19353:19357   */\n      0x20\n        /* \"#utility.yul\":19350:19351   */\n      dup2\n        /* \"#utility.yul\":19346:19358   */\n      add\n        /* \"#utility.yul\":19341:19358   */\n      swap1\n      pop\n        /* \"#utility.yul\":19316:19524   */\n      jump(tag_648)\n    tag_650:\n        /* \"#utility.yul\":19552:19558   */\n      dup7\n        /* \"#utility.yul\":19543:19550   */\n      dup4\n        /* \"#utility.yul\":19540:19559   */\n      lt\n        /* \"#utility.yul\":19537:19716   */\n      iszero\n      tag_651\n      jumpi\n        /* \"#utility.yul\":19610:19619   */\n      dup5\n        /* \"#utility.yul\":19605:19608   */\n      dup10\n        /* \"#utility.yul\":19601:19620   */\n      add\n        /* \"#utility.yul\":19595:19621   */\n      mload\n        /* \"#utility.yul\":19653:19701   */\n      tag_652\n        /* \"#utility.yul\":19695:19699   */\n      0x1f\n        /* \"#utility.yul\":19687:19693   */\n      dup10\n        /* \"#utility.yul\":19683:19700   */\n      and\n        /* \"#utility.yul\":19672:19681   */\n      dup3\n        /* \"#utility.yul\":19653:19701   */\n      tag_415\n      jump\t// in\n    tag_652:\n        /* \"#utility.yul\":19645:19651   */\n      dup4\n        /* \"#utility.yul\":19638:19702   */\n      sstore\n        /* \"#utility.yul\":19560:19716   */\n      pop\n        /* \"#utility.yul\":19537:19716   */\n    tag_651:\n        /* \"#utility.yul\":19762:19763   */\n      0x01\n        /* \"#utility.yul\":19758:19759   */\n      0x02\n        /* \"#utility.yul\":19750:19756   */\n      dup9\n        /* \"#utility.yul\":19746:19760   */\n      mul\n        /* \"#utility.yul\":19742:19764   */\n      add\n        /* \"#utility.yul\":19736:19740   */\n      dup9\n        /* \"#utility.yul\":19729:19765   */\n      sstore\n        /* \"#utility.yul\":19164:19775   */\n      pop\n      pop\n      pop\n        /* \"#utility.yul\":19127:20014   */\n    tag_643:\n      pop\n        /* \"#utility.yul\":18717:20020   */\n      pop\n      pop\n      pop\n        /* \"#utility.yul\":18625:20020   */\n      pop\n      pop\n      jump\t// out\n        /* \"#utility.yul\":20026:20206   */\n    tag_417:\n        /* \"#utility.yul\":20074:20151   */\n      0x4e487b7100000000000000000000000000000000000000000000000000000000\n        /* \"#utility.yul\":20071:20072   */\n      0x00\n        /* \"#utility.yul\":20064:20152   */\n      mstore\n        /* \"#utility.yul\":20171:20175   */\n      0x11\n        /* \"#utility.yul\":20168:20169   */\n      0x04\n        /* \"#utility.yul\":20161:20176   */\n      mstore\n        /* \"#utility.yul\":20195:20199   */\n      0x24\n        /* \"#utility.yul\":20192:20193   */\n      0x00\n        /* \"#utility.yul\":20185:20200   */\n      revert\n        /* \"#utility.yul\":20212:20406   */\n    tag_86:\n        /* \"#utility.yul\":20252:20256   */\n      0x00\n        /* \"#utility.yul\":20272:20292   */\n      tag_655\n        /* \"#utility.yul\":20290:20291   */\n      dup3\n        /* \"#utility.yul\":20272:20292   */\n      tag_357\n      jump\t// in\n    tag_655:\n        /* \"#utility.yul\":20267:20292   */\n      swap2\n      pop\n        /* \"#utility.yul\":20306:20326   */\n      tag_656\n        /* \"#utility.yul\":20324:20325   */\n      dup4\n        /* \"#utility.yul\":20306:20326   */\n      tag_357\n      jump\t// in\n    tag_656:\n        /* \"#utility.yul\":20301:20326   */\n      swap3\n      pop\n        /* \"#utility.yul\":20350:20351   */\n      dup3\n        /* \"#utility.yul\":20347:20348   */\n      dup3\n        /* \"#utility.yul\":20343:20352   */\n      sub\n        /* \"#utility.yul\":20335:20352   */\n      swap1\n      pop\n        /* \"#utility.yul\":20374:20375   */\n      dup2\n        /* \"#utility.yul\":20368:20372   */\n      dup2\n        /* \"#utility.yul\":20365:20376   */\n      gt\n        /* \"#utility.yul\":20362:20399   */\n      iszero\n      tag_657\n      jumpi\n        /* \"#utility.yul\":20379:20397   */\n      tag_658\n      tag_417\n      jump\t// in\n    tag_658:\n        /* \"#utility.yul\":20362:20399   */\n    tag_657:\n        /* \"#utility.yul\":20212:20406   */\n      swap3\n      swap2\n      pop\n      pop\n      jump\t// out\n        /* \"#utility.yul\":20412:20634   */\n    tag_88:\n        /* \"#utility.yul\":20505:20509   */\n      0x00\n        /* \"#utility.yul\":20543:20545   */\n      0x20\n        /* \"#utility.yul\":20532:20541   */\n      dup3\n        /* \"#utility.yul\":20528:20546   */\n      add\n        /* \"#utility.yul\":20520:20546   */\n      swap1\n      pop\n        /* \"#utility.yul\":20556:20627   */\n      tag_660\n        /* \"#utility.yul\":20624:20625   */\n      0x00\n        /* \"#utility.yul\":20613:20622   */\n      dup4\n        /* \"#utility.yul\":20609:20626   */\n      add\n        /* \"#utility.yul\":20600:20606   */\n      dup5\n        /* \"#utility.yul\":20556:20627   */\n      tag_365\n      jump\t// in\n    tag_660:\n        /* \"#utility.yul\":20412:20634   */\n      swap3\n      swap2\n      pop\n      pop\n      jump\t// out\n        /* \"#utility.yul\":20640:20818   */\n    tag_418:\n        /* \"#utility.yul\":20780:20810   */\n      0x566f74657220697320616c72656164792077686974656c697374656400000000\n        /* \"#utility.yul\":20776:20777   */\n      0x00\n        /* \"#utility.yul\":20768:20774   */\n      dup3\n        /* \"#utility.yul\":20764:20778   */\n      add\n        /* \"#utility.yul\":20757:20811   */\n      mstore\n        /* \"#utility.yul\":20640:20818   */\n      pop\n      jump\t// out\n        /* \"#utility.yul\":20824:21190   */\n    tag_419:\n        /* \"#utility.yul\":20966:20969   */\n      0x00\n        /* \"#utility.yul\":20987:21054   */\n      tag_663\n        /* \"#utility.yul\":21051:21053   */\n      0x1c\n        /* \"#utility.yul\":21046:21049   */\n      dup4\n        /* \"#utility.yul\":20987:21054   */\n      tag_361\n      jump\t// in\n    tag_663:\n        /* \"#utility.yul\":20980:21054   */\n      swap2\n      pop\n        /* \"#utility.yul\":21063:21156   */\n      tag_664\n        /* \"#utility.yul\":21152:21155   */\n      dup3\n        /* \"#utility.yul\":21063:21156   */\n      tag_418\n      jump\t// in\n    tag_664:\n        /* \"#utility.yul\":21181:21183   */\n      0x20\n        /* \"#utility.yul\":21176:21179   */\n      dup3\n        /* \"#utility.yul\":21172:21184   */\n      add\n        /* \"#utility.yul\":21165:21184   */\n      swap1\n      pop\n        /* \"#utility.yul\":20824:21190   */\n      swap2\n      swap1\n      pop\n      jump\t// out\n        /* \"#utility.yul\":21196:21615   */\n    tag_98:\n        /* \"#utility.yul\":21362:21366   */\n      0x00\n        /* \"#utility.yul\":21400:21402   */\n      0x20\n        /* \"#utility.yul\":21389:21398   */\n      dup3\n        /* \"#utility.yul\":21385:21403   */\n      add\n        /* \"#utility.yul\":21377:21403   */\n      swap1\n      pop\n        /* \"#utility.yul\":21449:21458   */\n      dup2\n        /* \"#utility.yul\":21443:21447   */\n      dup2\n        /* \"#utility.yul\":21439:21459   */\n      sub\n        /* \"#utility.yul\":21435:21436   */\n      0x00\n        /* \"#utility.yul\":21424:21433   */\n      dup4\n        /* \"#utility.yul\":21420:21437   */\n      add\n        /* \"#utility.yul\":21413:21460   */\n      mstore\n        /* \"#utility.yul\":21477:21608   */\n      tag_666\n        /* \"#utility.yul\":21603:21607   */\n      dup2\n        /* \"#utility.yul\":21477:21608   */\n      tag_419\n      jump\t// in\n    tag_666:\n        /* \"#utility.yul\":21469:21608   */\n      swap1\n      pop\n        /* \"#utility.yul\":21196:21615   */\n      swap2\n      swap1\n      pop\n      jump\t// out\n        /* \"#utility.yul\":21621:21801   */\n    tag_120:\n        /* \"#utility.yul\":21669:21746   */\n      0x4e487b7100000000000000000000000000000000000000000000000000000000\n        /* \"#utility.yul\":21666:21667   */\n      0x00\n        /* \"#utility.yul\":21659:21747   */\n      mstore\n        /* \"#utility.yul\":21766:21770   */\n      0x32\n        /* \"#utility.yul\":21763:21764   */\n      0x04\n        /* \"#utility.yul\":21756:21771   */\n      mstore\n        /* \"#utility.yul\":21790:21794   */\n      0x24\n        /* \"#utility.yul\":21787:21788   */\n      0x00\n        /* \"#utility.yul\":21780:21795   */\n      revert\n        /* \"#utility.yul\":21807:22040   */\n    tag_127:\n        /* \"#utility.yul\":21846:21849   */\n      0x00\n        /* \"#utility.yul\":21869:21893   */\n      tag_669\n        /* \"#utility.yul\":21887:21892   */\n      dup3\n        /* \"#utility.yul\":21869:21893   */\n      tag_357\n      jump\t// in\n    tag_669:\n        /* \"#utility.yul\":21860:21893   */\n      swap2\n      pop\n        /* \"#utility.yul\":21915:21981   */\n      0xffffffffffffffffffffffffffffffffffffffffffffffffffffffffffffffff\n        /* \"#utility.yul\":21908:21913   */\n      dup3\n        /* \"#utility.yul\":21905:21982   */\n      sub\n        /* \"#utility.yul\":21902:22005   */\n      tag_670\n      jumpi\n        /* \"#utility.yul\":21985:22003   */\n      tag_671\n      tag_417\n      jump\t// in\n    tag_671:\n        /* \"#utility.yul\":21902:22005   */\n    tag_670:\n        /* \"#utility.yul\":22032:22033   */\n      0x01\n        /* \"#utility.yul\":22025:22030   */\n      dup3\n        /* \"#utility.yul\":22021:22034   */\n      add\n        /* \"#utility.yul\":22014:22034   */\n      swap1\n      pop\n        /* \"#utility.yul\":21807:22040   */\n      swap2\n      swap1\n      pop\n      jump\t// out\n        /* \"#utility.yul\":22046:22271   */\n    tag_420:\n        /* \"#utility.yul\":22186:22220   */\n      0x4f776e61626c653a206e6577206f776e657220697320746865207a65726f2061\n        /* \"#utility.yul\":22182:22183   */\n      0x00\n        /* \"#utility.yul\":22174:22180   */\n      dup3\n        /* \"#utility.yul\":22170:22184   */\n      add\n        /* \"#utility.yul\":22163:22221   */\n      mstore\n        /* \"#utility.yul\":22255:22263   */\n      0x6464726573730000000000000000000000000000000000000000000000000000\n        /* \"#utility.yul\":22250:22252   */\n      0x20\n        /* \"#utility.yul\":22242:22248   */\n      dup3\n        /* \"#utility.yul\":22238:22253   */\n      add\n        /* \"#utility.yul\":22231:22264   */\n      mstore\n        /* \"#utility.yul\":22046:22271   */\n      pop\n      jump\t// out\n        /* \"#utility.yul\":22277:22643   */\n    tag_421:\n        /* \"#utility.yul\":22419:22422   */\n      0x00\n        /* \"#utility.yul\":22440:22507   */\n      tag_674\n        /* \"#utility.yul\":22504:22506   */\n      0x26\n        /* \"#utility.yul\":22499:22502   */\n      dup4\n        /* \"#utility.yul\":22440:22507   */\n      tag_361\n      jump\t// in\n    tag_674:\n        /* \"#utility.yul\":22433:22507   */\n      swap2\n      pop\n        /* \"#utility.yul\":22516:22609   */\n      tag_675\n        /* \"#utility.yul\":22605:22608   */\n      dup3\n        /* \"#utility.yul\":22516:22609   */\n      tag_420\n      jump\t// in\n    tag_675:\n        /* \"#utility.yul\":22634:22636   */\n      0x40\n        /* \"#utility.yul\":22629:22632   */\n      dup3\n        /* \"#utility.yul\":22625:22637   */\n      add\n        /* \"#utility.yul\":22618:22637   */\n      swap1\n      pop\n        /* \"#utility.yul\":22277:22643   */\n      swap2\n      swap1\n      pop\n      jump\t// out\n        /* \"#utility.yul\":22649:23068   */\n    tag_172:\n        /* \"#utility.yul\":22815:22819   */\n      0x00\n        /* \"#utility.yul\":22853:22855   */\n      0x20\n        /* \"#utility.yul\":22842:22851   */\n      dup3\n        /* \"#utility.yul\":22838:22856   */\n      add\n        /* \"#utility.yul\":22830:22856   */\n      swap1\n      pop\n        /* \"#utility.yul\":22902:22911   */\n      dup2\n        /* \"#utility.yul\":22896:22900   */\n      dup2\n        /* \"#utility.yul\":22892:22912   */\n      sub\n        /* \"#utility.yul\":22888:22889   */\n      0x00\n        /* \"#utility.yul\":22877:22886   */\n      dup4\n        /* \"#utility.yul\":22873:22890   */\n      add\n        /* \"#utility.yul\":22866:22913   */\n      mstore\n        /* \"#utility.yul\":22930:23061   */\n      tag_677\n        /* \"#utility.yul\":23056:23060   */\n      dup2\n        /* \"#utility.yul\":22930:23061   */\n      tag_421\n      jump\t// in\n    tag_677:\n        /* \"#utility.yul\":22922:23061   */\n      swap1\n      pop\n        /* \"#utility.yul\":22649:23068   */\n      swap2\n      swap1\n      pop\n      jump\t// out\n        /* \"#utility.yul\":23074:23309   */\n    tag_422:\n        /* \"#utility.yul\":23214:23248   */\n      0x596f75206861766520616c726561647920766f7465642e204f6e6c79206f6e65\n        /* \"#utility.yul\":23210:23211   */\n      0x00\n        /* \"#utility.yul\":23202:23208   */\n      dup3\n        /* \"#utility.yul\":23198:23212   */\n      add\n        /* \"#utility.yul\":23191:23249   */\n      mstore\n        /* \"#utility.yul\":23283:23301   */\n      0x20766f746520697320616c6c6f77656400000000000000000000000000000000\n        /* \"#utility.yul\":23278:23280   */\n      0x20\n        /* \"#utility.yul\":23270:23276   */\n      dup3\n        /* \"#utility.yul\":23266:23281   */\n      add\n        /* \"#utility.yul\":23259:23302   */\n      mstore\n        /* \"#utility.yul\":23074:23309   */\n      pop\n      jump\t// out\n        /* \"#utility.yul\":23315:23681   */\n    tag_423:\n        /* \"#utility.yul\":23457:23460   */\n      0x00\n        /* \"#utility.yul\":23478:23545   */\n      tag_680\n        /* \"#utility.yul\":23542:23544   */\n      0x30\n        /* \"#utility.yul\":23537:23540   */\n      dup4\n        /* \"#utility.yul\":23478:23545   */\n      tag_361\n      jump\t// in\n    tag_680:\n        /* \"#utility.yul\":23471:23545   */\n      swap2\n      pop\n        /* \"#utility.yul\":23554:23647   */\n      tag_681\n        /* \"#utility.yul\":23643:23646   */\n      dup3\n        /* \"#utility.yul\":23554:23647   */\n      tag_422\n      jump\t// in\n    tag_681:\n        /* \"#utility.yul\":23672:23674   */\n      0x40\n        /* \"#utility.yul\":23667:23670   */\n      dup3\n        /* \"#utility.yul\":23663:23675   */\n      add\n        /* \"#utility.yul\":23656:23675   */\n      swap1\n      pop\n        /* \"#utility.yul\":23315:23681   */\n      swap2\n      swap1\n      pop\n      jump\t// out\n        /* \"#utility.yul\":23687:24106   */\n    tag_182:\n        /* \"#utility.yul\":23853:23857   */\n      0x00\n        /* \"#utility.yul\":23891:23893   */\n      0x20\n        /* \"#utility.yul\":23880:23889   */\n      dup3\n        /* \"#utility.yul\":23876:23894   */\n      add\n        /* \"#utility.yul\":23868:23894   */\n      swap1\n      pop\n        /* \"#utility.yul\":23940:23949   */\n      dup2\n        /* \"#utility.yul\":23934:23938   */\n      dup2\n        /* \"#utility.yul\":23930:23950   */\n      sub\n        /* \"#utility.yul\":23926:23927   */\n      0x00\n        /* \"#utility.yul\":23915:23924   */\n      dup4\n        /* \"#utility.yul\":23911:23928   */\n      add\n        /* \"#utility.yul\":23904:23951   */\n      mstore\n        /* \"#utility.yul\":23968:24099   */\n      tag_683\n        /* \"#utility.yul\":24094:24098   */\n      dup2\n        /* \"#utility.yul\":23968:24099   */\n      tag_423\n      jump\t// in\n    tag_683:\n        /* \"#utility.yul\":23960:24099   */\n      swap1\n      pop\n        /* \"#utility.yul\":23687:24106   */\n      swap2\n      swap1\n      pop\n      jump\t// out\n        /* \"#utility.yul\":24112:24359   */\n    tag_424:\n        /* \"#utility.yul\":24252:24286   */\n      0x50726f706f73616c20496420646f65736e27742065786973742e20506c656173\n        /* \"#utility.yul\":24248:24249   */\n      0x00\n        /* \"#utility.yul\":24240:24246   */\n      dup3\n        /* \"#utility.yul\":24236:24250   */\n      add\n        /* \"#utility.yul\":24229:24287   */\n      mstore\n        /* \"#utility.yul\":24321:24351   */\n      0x652073656c65637420612076616c69642070726f706f73616c20496400000000\n        /* \"#utility.yul\":24316:24318   */\n      0x20\n        /* \"#utility.yul\":24308:24314   */\n      dup3\n        /* \"#utility.yul\":24304:24319   */\n      add\n        /* \"#utility.yul\":24297:24352   */\n      mstore\n        /* \"#utility.yul\":24112:24359   */\n      pop\n      jump\t// out\n        /* \"#utility.yul\":24365:24731   */\n    tag_425:\n        /* \"#utility.yul\":24507:24510   */\n      0x00\n        /* \"#utility.yul\":24528:24595   */\n      tag_686\n        /* \"#utility.yul\":24592:24594   */\n      0x3c\n        /* \"#utility.yul\":24587:24590   */\n      dup4\n        /* \"#utility.yul\":24528:24595   */\n      tag_361\n      jump\t// in\n    tag_686:\n        /* \"#utility.yul\":24521:24595   */\n      swap2\n      pop\n        /* \"#utility.yul\":24604:24697   */\n      tag_687\n        /* \"#utility.yul\":24693:24696   */\n      dup3\n        /* \"#utility.yul\":24604:24697   */\n      tag_424\n      jump\t// in\n    tag_687:\n        /* \"#utility.yul\":24722:24724   */\n      0x40\n        /* \"#utility.yul\":24717:24720   */\n      dup3\n        /* \"#utility.yul\":24713:24725   */\n      add\n        /* \"#utility.yul\":24706:24725   */\n      swap1\n      pop\n        /* \"#utility.yul\":24365:24731   */\n      swap2\n      swap1\n      pop\n      jump\t// out\n        /* \"#utility.yul\":24737:25156   */\n    tag_185:\n        /* \"#utility.yul\":24903:24907   */\n      0x00\n        /* \"#utility.yul\":24941:24943   */\n      0x20\n        /* \"#utility.yul\":24930:24939   */\n      dup3\n        /* \"#utility.yul\":24926:24944   */\n      add\n        /* \"#utility.yul\":24918:24944   */\n      swap1\n      pop\n        /* \"#utility.yul\":24990:24999   */\n      dup2\n        /* \"#utility.yul\":24984:24988   */\n      dup2\n        /* \"#utility.yul\":24980:25000   */\n      sub\n        /* \"#utility.yul\":24976:24977   */\n      0x00\n        /* \"#utility.yul\":24965:24974   */\n      dup4\n        /* \"#utility.yul\":24961:24978   */\n      add\n        /* \"#utility.yul\":24954:25001   */\n      mstore\n        /* \"#utility.yul\":25018:25149   */\n      tag_689\n        /* \"#utility.yul\":25144:25148   */\n      dup2\n        /* \"#utility.yul\":25018:25149   */\n      tag_425\n      jump\t// in\n    tag_689:\n        /* \"#utility.yul\":25010:25149   */\n      swap1\n      pop\n        /* \"#utility.yul\":24737:25156   */\n      swap2\n      swap1\n      pop\n      jump\t// out\n        /* \"#utility.yul\":25162:25494   */\n    tag_191:\n        /* \"#utility.yul\":25283:25287   */\n      0x00\n        /* \"#utility.yul\":25321:25323   */\n      0x40\n        /* \"#utility.yul\":25310:25319   */\n      dup3\n        /* \"#utility.yul\":25306:25324   */\n      add\n        /* \"#utility.yul\":25298:25324   */\n      swap1\n      pop\n        /* \"#utility.yul\":25334:25405   */\n      tag_691\n        /* \"#utility.yul\":25402:25403   */\n      0x00\n        /* \"#utility.yul\":25391:25400   */\n      dup4\n        /* \"#utility.yul\":25387:25404   */\n      add\n        /* \"#utility.yul\":25378:25384   */\n      dup6\n        /* \"#utility.yul\":25334:25405   */\n      tag_393\n      jump\t// in\n    tag_691:\n        /* \"#utility.yul\":25415:25487   */\n      tag_692\n        /* \"#utility.yul\":25483:25485   */\n      0x20\n        /* \"#utility.yul\":25472:25481   */\n      dup4\n        /* \"#utility.yul\":25468:25486   */\n      add\n        /* \"#utility.yul\":25459:25465   */\n      dup5\n        /* \"#utility.yul\":25415:25487   */\n      tag_365\n      jump\t// in\n    tag_692:\n        /* \"#utility.yul\":25162:25494   */\n      swap4\n      swap3\n      pop\n      pop\n      pop\n      jump\t// out\n        /* \"#utility.yul\":25500:25744   */\n    tag_426:\n        /* \"#utility.yul\":25640:25674   */\n      0x4f6e6c792077686974656c697374656420766f74657273206172652061757468\n        /* \"#utility.yul\":25636:25637   */\n      0x00\n        /* \"#utility.yul\":25628:25634   */\n      dup3\n        /* \"#utility.yul\":25624:25638   */\n      add\n        /* \"#utility.yul\":25617:25675   */\n      mstore\n        /* \"#utility.yul\":25709:25736   */\n      0x6f72697a656420746f20646f207468697320616374696f6e2e00000000000000\n        /* \"#utility.yul\":25704:25706   */\n      0x20\n        /* \"#utility.yul\":25696:25702   */\n      dup3\n        /* \"#utility.yul\":25692:25707   */\n      add\n        /* \"#utility.yul\":25685:25737   */\n      mstore\n        /* \"#utility.yul\":25500:25744   */\n      pop\n      jump\t// out\n        /* \"#utility.yul\":25750:26116   */\n    tag_427:\n        /* \"#utility.yul\":25892:25895   */\n      0x00\n        /* \"#utility.yul\":25913:25980   */\n      tag_695\n        /* \"#utility.yul\":25977:25979   */\n      0x39\n        /* \"#utility.yul\":25972:25975   */\n      dup4\n        /* \"#utility.yul\":25913:25980   */\n      tag_361\n      jump\t// in\n    tag_695:\n        /* \"#utility.yul\":25906:25980   */\n      swap2\n      pop\n        /* \"#utility.yul\":25989:26082   */\n      tag_696\n        /* \"#utility.yul\":26078:26081   */\n      dup3\n        /* \"#utility.yul\":25989:26082   */\n      tag_426\n      jump\t// in\n    tag_696:\n        /* \"#utility.yul\":26107:26109   */\n      0x40\n        /* \"#utility.yul\":26102:26105   */\n      dup3\n        /* \"#utility.yul\":26098:26110   */\n      add\n        /* \"#utility.yul\":26091:26110   */\n      swap1\n      pop\n        /* \"#utility.yul\":25750:26116   */\n      swap2\n      swap1\n      pop\n      jump\t// out\n        /* \"#utility.yul\":26122:26541   */\n    tag_195:\n        /* \"#utility.yul\":26288:26292   */\n      0x00\n        /* \"#utility.yul\":26326:26328   */\n      0x20\n        /* \"#utility.yul\":26315:26324   */\n      dup3\n        /* \"#utility.yul\":26311:26329   */\n      add\n        /* \"#utility.yul\":26303:26329   */\n      swap1\n      pop\n        /* \"#utility.yul\":26375:26384   */\n      dup2\n        /* \"#utility.yul\":26369:26373   */\n      dup2\n        /* \"#utility.yul\":26365:26385   */\n      sub\n        /* \"#utility.yul\":26361:26362   */\n      0x00\n        /* \"#utility.yul\":26350:26359   */\n      dup4\n        /* \"#utility.yul\":26346:26363   */\n      add\n        /* \"#utility.yul\":26339:26386   */\n      mstore\n        /* \"#utility.yul\":26403:26534   */\n      tag_698\n        /* \"#utility.yul\":26529:26533   */\n      dup2\n        /* \"#utility.yul\":26403:26534   */\n      tag_427\n      jump\t// in\n    tag_698:\n        /* \"#utility.yul\":26395:26534   */\n      swap1\n      pop\n        /* \"#utility.yul\":26122:26541   */\n      swap2\n      swap1\n      pop\n      jump\t// out\n        /* \"#utility.yul\":26547:26729   */\n    tag_428:\n        /* \"#utility.yul\":26687:26721   */\n      0x50726f706f73616c20726567697374726174696f6e20697320636c6f7365642e\n        /* \"#utility.yul\":26683:26684   */\n      0x00\n        /* \"#utility.yul\":26675:26681   */\n      dup3\n        /* \"#utility.yul\":26671:26685   */\n      add\n        /* \"#utility.yul\":26664:26722   */\n      mstore\n        /* \"#utility.yul\":26547:26729   */\n      pop\n      jump\t// out\n        /* \"#utility.yul\":26735:27101   */\n    tag_429:\n        /* \"#utility.yul\":26877:26880   */\n      0x00\n        /* \"#utility.yul\":26898:26965   */\n      tag_701\n        /* \"#utility.yul\":26962:26964   */\n      0x20\n        /* \"#utility.yul\":26957:26960   */\n      dup4\n        /* \"#utility.yul\":26898:26965   */\n      tag_361\n      jump\t// in\n    tag_701:\n        /* \"#utility.yul\":26891:26965   */\n      swap2\n      pop\n        /* \"#utility.yul\":26974:27067   */\n      tag_702\n        /* \"#utility.yul\":27063:27066   */\n      dup3\n        /* \"#utility.yul\":26974:27067   */\n      tag_428\n      jump\t// in\n    tag_702:\n        /* \"#utility.yul\":27092:27094   */\n      0x20\n        /* \"#utility.yul\":27087:27090   */\n      dup3\n        /* \"#utility.yul\":27083:27095   */\n      add\n        /* \"#utility.yul\":27076:27095   */\n      swap1\n      pop\n        /* \"#utility.yul\":26735:27101   */\n      swap2\n      swap1\n      pop\n      jump\t// out\n        /* \"#utility.yul\":27107:27526   */\n    tag_204:\n        /* \"#utility.yul\":27273:27277   */\n      0x00\n        /* \"#utility.yul\":27311:27313   */\n      0x20\n        /* \"#utility.yul\":27300:27309   */\n      dup3\n        /* \"#utility.yul\":27296:27314   */\n      add\n        /* \"#utility.yul\":27288:27314   */\n      swap1\n      pop\n        /* \"#utility.yul\":27360:27369   */\n      dup2\n        /* \"#utility.yul\":27354:27358   */\n      dup2\n        /* \"#utility.yul\":27350:27370   */\n      sub\n        /* \"#utility.yul\":27346:27347   */\n      0x00\n        /* \"#utility.yul\":27335:27344   */\n      dup4\n        /* \"#utility.yul\":27331:27348   */\n      add\n        /* \"#utility.yul\":27324:27371   */\n      mstore\n        /* \"#utility.yul\":27388:27519   */\n      tag_704\n        /* \"#utility.yul\":27514:27518   */\n      dup2\n        /* \"#utility.yul\":27388:27519   */\n      tag_429\n      jump\t// in\n    tag_704:\n        /* \"#utility.yul\":27380:27519   */\n      swap1\n      pop\n        /* \"#utility.yul\":27107:27526   */\n      swap2\n      swap1\n      pop\n      jump\t// out\n        /* \"#utility.yul\":27532:27714   */\n    tag_430:\n        /* \"#utility.yul\":27672:27706   */\n      0x4f776e61626c653a2063616c6c6572206973206e6f7420746865206f776e6572\n        /* \"#utility.yul\":27668:27669   */\n      0x00\n        /* \"#utility.yul\":27660:27666   */\n      dup3\n        /* \"#utility.yul\":27656:27670   */\n      add\n        /* \"#utility.yul\":27649:27707   */\n      mstore\n        /* \"#utility.yul\":27532:27714   */\n      pop\n      jump\t// out\n        /* \"#utility.yul\":27720:28086   */\n    tag_431:\n        /* \"#utility.yul\":27862:27865   */\n      0x00\n        /* \"#utility.yul\":27883:27950   */\n      tag_707\n        /* \"#utility.yul\":27947:27949   */\n      0x20\n        /* \"#utility.yul\":27942:27945   */\n      dup4\n        /* \"#utility.yul\":27883:27950   */\n      tag_361\n      jump\t// in\n    tag_707:\n        /* \"#utility.yul\":27876:27950   */\n      swap2\n      pop\n        /* \"#utility.yul\":27959:28052   */\n      tag_708\n        /* \"#utility.yul\":28048:28051   */\n      dup3\n        /* \"#utility.yul\":27959:28052   */\n      tag_430\n      jump\t// in\n    tag_708:\n        /* \"#utility.yul\":28077:28079   */\n      0x20\n        /* \"#utility.yul\":28072:28075   */\n      dup3\n        /* \"#utility.yul\":28068:28080   */\n      add\n        /* \"#utility.yul\":28061:28080   */\n      swap1\n      pop\n        /* \"#utility.yul\":27720:28086   */\n      swap2\n      swap1\n      pop\n      jump\t// out\n        /* \"#utility.yul\":28092:28511   */\n    tag_211:\n        /* \"#utility.yul\":28258:28262   */\n      0x00\n        /* \"#utility.yul\":28296:28298   */\n      0x20\n        /* \"#utility.yul\":28285:28294   */\n      dup3\n        /* \"#utility.yul\":28281:28299   */\n      add\n        /* \"#utility.yul\":28273:28299   */\n      swap1\n      pop\n        /* \"#utility.yul\":28345:28354   */\n      dup2\n        /* \"#utility.yul\":28339:28343   */\n      dup2\n        /* \"#utility.yul\":28335:28355   */\n      sub\n        /* \"#utility.yul\":28331:28332   */\n      0x00\n        /* \"#utility.yul\":28320:28329   */\n      dup4\n        /* \"#utility.yul\":28316:28333   */\n      add\n        /* \"#utility.yul\":28309:28356   */\n      mstore\n        /* \"#utility.yul\":28373:28504   */\n      tag_710\n        /* \"#utility.yul\":28499:28503   */\n      dup2\n        /* \"#utility.yul\":28373:28504   */\n      tag_431\n      jump\t// in\n    tag_710:\n        /* \"#utility.yul\":28365:28504   */\n      swap1\n      pop\n        /* \"#utility.yul\":28092:28511   */\n      swap2\n      swap1\n      pop\n      jump\t// out\n        /* \"#utility.yul\":28517:28744   */\n    tag_432:\n        /* \"#utility.yul\":28657:28691   */\n      0x526567697374726174696f6e20706572696f6420666f7220766f746572206973\n        /* \"#utility.yul\":28653:28654   */\n      0x00\n        /* \"#utility.yul\":28645:28651   */\n      dup3\n        /* \"#utility.yul\":28641:28655   */\n      add\n        /* \"#utility.yul\":28634:28692   */\n      mstore\n        /* \"#utility.yul\":28726:28736   */\n      0x20636c6f7365642e000000000000000000000000000000000000000000000000\n        /* \"#utility.yul\":28721:28723   */\n      0x20\n        /* \"#utility.yul\":28713:28719   */\n      dup3\n        /* \"#utility.yul\":28709:28724   */\n      add\n        /* \"#utility.yul\":28702:28737   */\n      mstore\n        /* \"#utility.yul\":28517:28744   */\n      pop\n      jump\t// out\n        /* \"#utility.yul\":28750:29116   */\n    tag_433:\n        /* \"#utility.yul\":28892:28895   */\n      0x00\n        /* \"#utility.yul\":28913:28980   */\n      tag_713\n        /* \"#utility.yul\":28977:28979   */\n      0x28\n        /* \"#utility.yul\":28972:28975   */\n      dup4\n        /* \"#utility.yul\":28913:28980   */\n      tag_361\n      jump\t// in\n    tag_713:\n        /* \"#utility.yul\":28906:28980   */\n      swap2\n      pop\n        /* \"#utility.yul\":28989:29082   */\n      tag_714\n        /* \"#utility.yul\":29078:29081   */\n      dup3\n        /* \"#utility.yul\":28989:29082   */\n      tag_432\n      jump\t// in\n    tag_714:\n        /* \"#utility.yul\":29107:29109   */\n      0x40\n        /* \"#utility.yul\":29102:29105   */\n      dup3\n        /* \"#utility.yul\":29098:29110   */\n      add\n        /* \"#utility.yul\":29091:29110   */\n      swap1\n      pop\n        /* \"#utility.yul\":28750:29116   */\n      swap2\n      swap1\n      pop\n      jump\t// out\n        /* \"#utility.yul\":29122:29541   */\n    tag_219:\n        /* \"#utility.yul\":29288:29292   */\n      0x00\n        /* \"#utility.yul\":29326:29328   */\n      0x20\n        /* \"#utility.yul\":29315:29324   */\n      dup3\n        /* \"#utility.yul\":29311:29329   */\n      add\n        /* \"#utility.yul\":29303:29329   */\n      swap1\n      pop\n        /* \"#utility.yul\":29375:29384   */\n      dup2\n        /* \"#utility.yul\":29369:29373   */\n      dup2\n        /* \"#utility.yul\":29365:29385   */\n      sub\n        /* \"#utility.yul\":29361:29362   */\n      0x00\n        /* \"#utility.yul\":29350:29359   */\n      dup4\n        /* \"#utility.yul\":29346:29363   */\n      add\n        /* \"#utility.yul\":29339:29386   */\n      mstore\n        /* \"#utility.yul\":29403:29534   */\n      tag_716\n        /* \"#utility.yul\":29529:29533   */\n      dup2\n        /* \"#utility.yul\":29403:29534   */\n      tag_433\n      jump\t// in\n    tag_716:\n        /* \"#utility.yul\":29395:29534   */\n      swap1\n      pop\n        /* \"#utility.yul\":29122:29541   */\n      swap2\n      swap1\n      pop\n      jump\t// out\n        /* \"#utility.yul\":29547:29718   */\n    tag_434:\n        /* \"#utility.yul\":29687:29710   */\n      0x566f74696e67206973206e6f7420636c6f7365642e0000000000000000000000\n        /* \"#utility.yul\":29683:29684   */\n      0x00\n        /* \"#utility.yul\":29675:29681   */\n      dup3\n        /* \"#utility.yul\":29671:29685   */\n      add\n        /* \"#utility.yul\":29664:29711   */\n      mstore\n        /* \"#utility.yul\":29547:29718   */\n      pop\n      jump\t// out\n        /* \"#utility.yul\":29724:30090   */\n    tag_435:\n        /* \"#utility.yul\":29866:29869   */\n      0x00\n        /* \"#utility.yul\":29887:29954   */\n      tag_719\n        /* \"#utility.yul\":29951:29953   */\n      0x15\n        /* \"#utility.yul\":29946:29949   */\n      dup4\n        /* \"#utility.yul\":29887:29954   */\n      tag_361\n      jump\t// in\n    tag_719:\n        /* \"#utility.yul\":29880:29954   */\n      swap2\n      pop\n        /* \"#utility.yul\":29963:30056   */\n      tag_720\n        /* \"#utility.yul\":30052:30055   */\n      dup3\n        /* \"#utility.yul\":29963:30056   */\n      tag_434\n      jump\t// in\n    tag_720:\n        /* \"#utility.yul\":30081:30083   */\n      0x20\n        /* \"#utility.yul\":30076:30079   */\n      dup3\n        /* \"#utility.yul\":30072:30084   */\n      add\n        /* \"#utility.yul\":30065:30084   */\n      swap1\n      pop\n        /* \"#utility.yul\":29724:30090   */\n      swap2\n      swap1\n      pop\n      jump\t// out\n        /* \"#utility.yul\":30096:30515   */\n    tag_227:\n        /* \"#utility.yul\":30262:30266   */\n      0x00\n        /* \"#utility.yul\":30300:30302   */\n      0x20\n        /* \"#utility.yul\":30289:30298   */\n      dup3\n        /* \"#utility.yul\":30285:30303   */\n      add\n        /* \"#utility.yul\":30277:30303   */\n      swap1\n      pop\n        /* \"#utility.yul\":30349:30358   */\n      dup2\n        /* \"#utility.yul\":30343:30347   */\n      dup2\n        /* \"#utility.yul\":30339:30359   */\n      sub\n        /* \"#utility.yul\":30335:30336   */\n      0x00\n        /* \"#utility.yul\":30324:30333   */\n      dup4\n        /* \"#utility.yul\":30320:30337   */\n      add\n        /* \"#utility.yul\":30313:30360   */\n      mstore\n        /* \"#utility.yul\":30377:30508   */\n      tag_722\n        /* \"#utility.yul\":30503:30507   */\n      dup2\n        /* \"#utility.yul\":30377:30508   */\n      tag_435\n      jump\t// in\n    tag_722:\n        /* \"#utility.yul\":30369:30508   */\n      swap1\n      pop\n        /* \"#utility.yul\":30096:30515   */\n      swap2\n      swap1\n      pop\n      jump\t// out\n        /* \"#utility.yul\":30521:30917   */\n    tag_237:\n        /* \"#utility.yul\":30674:30678   */\n      0x00\n        /* \"#utility.yul\":30712:30714   */\n      0x40\n        /* \"#utility.yul\":30701:30710   */\n      dup3\n        /* \"#utility.yul\":30697:30715   */\n      add\n        /* \"#utility.yul\":30689:30715   */\n      swap1\n      pop\n        /* \"#utility.yul\":30725:30812   */\n      tag_724\n        /* \"#utility.yul\":30809:30810   */\n      0x00\n        /* \"#utility.yul\":30798:30807   */\n      dup4\n        /* \"#utility.yul\":30794:30811   */\n      add\n        /* \"#utility.yul\":30785:30791   */\n      dup6\n        /* \"#utility.yul\":30725:30812   */\n      tag_369\n      jump\t// in\n    tag_724:\n        /* \"#utility.yul\":30822:30910   */\n      tag_725\n        /* \"#utility.yul\":30906:30908   */\n      0x20\n        /* \"#utility.yul\":30895:30904   */\n      dup4\n        /* \"#utility.yul\":30891:30909   */\n      add\n        /* \"#utility.yul\":30882:30888   */\n      dup5\n        /* \"#utility.yul\":30822:30910   */\n      tag_369\n      jump\t// in\n    tag_725:\n        /* \"#utility.yul\":30521:30917   */\n      swap4\n      swap3\n      pop\n      pop\n      pop\n      jump\t// out\n        /* \"#utility.yul\":30923:31100   */\n    tag_436:\n        /* \"#utility.yul\":31063:31092   */\n      0x566f74657320636f756e74206973206e6f742079657420646f6e650000000000\n        /* \"#utility.yul\":31059:31060   */\n      0x00\n        /* \"#utility.yul\":31051:31057   */\n      dup3\n        /* \"#utility.yul\":31047:31061   */\n      add\n        /* \"#utility.yul\":31040:31093   */\n      mstore\n        /* \"#utility.yul\":30923:31100   */\n      pop\n      jump\t// out\n        /* \"#utility.yul\":31106:31472   */\n    tag_437:\n        /* \"#utility.yul\":31248:31251   */\n      0x00\n        /* \"#utility.yul\":31269:31336   */\n      tag_728\n        /* \"#utility.yul\":31333:31335   */\n      0x1b\n        /* \"#utility.yul\":31328:31331   */\n      dup4\n        /* \"#utility.yul\":31269:31336   */\n      tag_361\n      jump\t// in\n    tag_728:\n        /* \"#utility.yul\":31262:31336   */\n      swap2\n      pop\n        /* \"#utility.yul\":31345:31438   */\n      tag_729\n        /* \"#utility.yul\":31434:31437   */\n      dup3\n        /* \"#utility.yul\":31345:31438   */\n      tag_436\n      jump\t// in\n    tag_729:\n        /* \"#utility.yul\":31463:31465   */\n      0x20\n        /* \"#utility.yul\":31458:31461   */\n      dup3\n        /* \"#utility.yul\":31454:31466   */\n      add\n        /* \"#utility.yul\":31447:31466   */\n      swap1\n      pop\n        /* \"#utility.yul\":31106:31472   */\n      swap2\n      swap1\n      pop\n      jump\t// out\n        /* \"#utility.yul\":31478:31897   */\n    tag_246:\n        /* \"#utility.yul\":31644:31648   */\n      0x00\n        /* \"#utility.yul\":31682:31684   */\n      0x20\n        /* \"#utility.yul\":31671:31680   */\n      dup3\n        /* \"#utility.yul\":31667:31685   */\n      add\n        /* \"#utility.yul\":31659:31685   */\n      swap1\n      pop\n        /* \"#utility.yul\":31731:31740   */\n      dup2\n        /* \"#utility.yul\":31725:31729   */\n      dup2\n        /* \"#utility.yul\":31721:31741   */\n      sub\n        /* \"#utility.yul\":31717:31718   */\n      0x00\n        /* \"#utility.yul\":31706:31715   */\n      dup4\n        /* \"#utility.yul\":31702:31719   */\n      add\n        /* \"#utility.yul\":31695:31742   */\n      mstore\n        /* \"#utility.yul\":31759:31890   */\n      tag_731\n        /* \"#utility.yul\":31885:31889   */\n      dup2\n        /* \"#utility.yul\":31759:31890   */\n      tag_437\n      jump\t// in\n    tag_731:\n        /* \"#utility.yul\":31751:31890   */\n      swap1\n      pop\n        /* \"#utility.yul\":31478:31897   */\n      swap2\n      swap1\n      pop\n      jump\t// out\n        /* \"#utility.yul\":31903:32078   */\n    tag_438:\n        /* \"#utility.yul\":32043:32070   */\n      0x566f74696e672073657373696f6e20697320636c6f7365642e00000000000000\n        /* \"#utility.yul\":32039:32040   */\n      0x00\n        /* \"#utility.yul\":32031:32037   */\n      dup3\n        /* \"#utility.yul\":32027:32041   */\n      add\n        /* \"#utility.yul\":32020:32071   */\n      mstore\n        /* \"#utility.yul\":31903:32078   */\n      pop\n      jump\t// out\n        /* \"#utility.yul\":32084:32450   */\n    tag_439:\n        /* \"#utility.yul\":32226:32229   */\n      0x00\n        /* \"#utility.yul\":32247:32314   */\n      tag_734\n        /* \"#utility.yul\":32311:32313   */\n      0x19\n        /* \"#utility.yul\":32306:32309   */\n      dup4\n        /* \"#utility.yul\":32247:32314   */\n      tag_361\n      jump\t// in\n    tag_734:\n        /* \"#utility.yul\":32240:32314   */\n      swap2\n      pop\n        /* \"#utility.yul\":32323:32416   */\n      tag_735\n        /* \"#utility.yul\":32412:32415   */\n      dup3\n        /* \"#utility.yul\":32323:32416   */\n      tag_438\n      jump\t// in\n    tag_735:\n        /* \"#utility.yul\":32441:32443   */\n      0x20\n        /* \"#utility.yul\":32436:32439   */\n      dup3\n        /* \"#utility.yul\":32432:32444   */\n      add\n        /* \"#utility.yul\":32425:32444   */\n      swap1\n      pop\n        /* \"#utility.yul\":32084:32450   */\n      swap2\n      swap1\n      pop\n      jump\t// out\n        /* \"#utility.yul\":32456:32875   */\n    tag_254:\n        /* \"#utility.yul\":32622:32626   */\n      0x00\n        /* \"#utility.yul\":32660:32662   */\n      0x20\n        /* \"#utility.yul\":32649:32658   */\n      dup3\n        /* \"#utility.yul\":32645:32663   */\n      add\n        /* \"#utility.yul\":32637:32663   */\n      swap1\n      pop\n        /* \"#utility.yul\":32709:32718   */\n      dup2\n        /* \"#utility.yul\":32703:32707   */\n      dup2\n        /* \"#utility.yul\":32699:32719   */\n      sub\n        /* \"#utility.yul\":32695:32696   */\n      0x00\n        /* \"#utility.yul\":32684:32693   */\n      dup4\n        /* \"#utility.yul\":32680:32697   */\n      add\n        /* \"#utility.yul\":32673:32720   */\n      mstore\n        /* \"#utility.yul\":32737:32868   */\n      tag_737\n        /* \"#utility.yul\":32863:32867   */\n      dup2\n        /* \"#utility.yul\":32737:32868   */\n      tag_439\n      jump\t// in\n    tag_737:\n        /* \"#utility.yul\":32729:32868   */\n      swap1\n      pop\n        /* \"#utility.yul\":32456:32875   */\n      swap2\n      swap1\n      pop\n      jump\t// out\n        /* \"#utility.yul\":32881:33187   */\n    tag_440:\n        /* \"#utility.yul\":33021:33055   */\n      0x41637475616c20737461747573206973206e6f7420636f6d70617469626c6520\n        /* \"#utility.yul\":33017:33018   */\n      0x00\n        /* \"#utility.yul\":33009:33015   */\n      dup3\n        /* \"#utility.yul\":33005:33019   */\n      add\n        /* \"#utility.yul\":32998:33056   */\n      mstore\n        /* \"#utility.yul\":33090:33124   */\n      0x7769746820796f75722063686f696365202863686f6f73652070726576696f75\n        /* \"#utility.yul\":33085:33087   */\n      0x20\n        /* \"#utility.yul\":33077:33083   */\n      dup3\n        /* \"#utility.yul\":33073:33088   */\n      add\n        /* \"#utility.yul\":33066:33125   */\n      mstore\n        /* \"#utility.yul\":33159:33179   */\n      0x73206f6e65206f72206e657874206f6e65290000000000000000000000000000\n        /* \"#utility.yul\":33154:33156   */\n      0x40\n        /* \"#utility.yul\":33146:33152   */\n      dup3\n        /* \"#utility.yul\":33142:33157   */\n      add\n        /* \"#utility.yul\":33135:33180   */\n      mstore\n        /* \"#utility.yul\":32881:33187   */\n      pop\n      jump\t// out\n        /* \"#utility.yul\":33193:33559   */\n    tag_441:\n        /* \"#utility.yul\":33335:33338   */\n      0x00\n        /* \"#utility.yul\":33356:33423   */\n      tag_740\n        /* \"#utility.yul\":33420:33422   */\n      0x52\n        /* \"#utility.yul\":33415:33418   */\n      dup4\n        /* \"#utility.yul\":33356:33423   */\n      tag_361\n      jump\t// in\n    tag_740:\n        /* \"#utility.yul\":33349:33423   */\n      swap2\n      pop\n        /* \"#utility.yul\":33432:33525   */\n      tag_741\n        /* \"#utility.yul\":33521:33524   */\n      dup3\n        /* \"#utility.yul\":33432:33525   */\n      tag_440\n      jump\t// in\n    tag_741:\n        /* \"#utility.yul\":33550:33552   */\n      0x60\n        /* \"#utility.yul\":33545:33548   */\n      dup3\n        /* \"#utility.yul\":33541:33553   */\n      add\n        /* \"#utility.yul\":33534:33553   */\n      swap1\n      pop\n        /* \"#utility.yul\":33193:33559   */\n      swap2\n      swap1\n      pop\n      jump\t// out\n        /* \"#utility.yul\":33565:33984   */\n    tag_273:\n        /* \"#utility.yul\":33731:33735   */\n      0x00\n        /* \"#utility.yul\":33769:33771   */\n      0x20\n        /* \"#utility.yul\":33758:33767   */\n      dup3\n        /* \"#utility.yul\":33754:33772   */\n      add\n        /* \"#utility.yul\":33746:33772   */\n      swap1\n      pop\n        /* \"#utility.yul\":33818:33827   */\n      dup2\n        /* \"#utility.yul\":33812:33816   */\n      dup2\n        /* \"#utility.yul\":33808:33828   */\n      sub\n        /* \"#utility.yul\":33804:33805   */\n      0x00\n        /* \"#utility.yul\":33793:33802   */\n      dup4\n        /* \"#utility.yul\":33789:33806   */\n      add\n        /* \"#utility.yul\":33782:33829   */\n      mstore\n        /* \"#utility.yul\":33846:33977   */\n      tag_743\n        /* \"#utility.yul\":33972:33976   */\n      dup2\n        /* \"#utility.yul\":33846:33977   */\n      tag_441\n      jump\t// in\n    tag_743:\n        /* \"#utility.yul\":33838:33977   */\n      swap1\n      pop\n        /* \"#utility.yul\":33565:33984   */\n      swap2\n      swap1\n      pop\n      jump\t// out\n\n    auxdata: 0xa26469706673582212200ac3c5240acba93deee331d4ba36c4c58077886b698f5200707ca43c2e9a89a864736f6c63430008120033\n}\n",
				"bytecode": {
					"linkReferences": {},
					"object": "60806040523480156200001157600080fd5b5062000032620000266200003860201b60201c565b6200004060201b60201c565b62000104565b600033905090565b60008060009054906101000a900473ffffffffffffffffffffffffffffffffffffffff169050816000806101000a81548173ffffffffffffffffffffffffffffffffffffffff021916908373ffffffffffffffffffffffffffffffffffffffff1602179055508173ffffffffffffffffffffffffffffffffffffffff168173ffffffffffffffffffffffffffffffffffffffff167f8be0079c531659141344cd1fd0a4f28419497f9722a3daafe3b4186f6b6457e060405160405180910390a35050565b6127cc80620001146000396000f3fe608060405234801561001057600080fd5b50600436106100cf5760003560e01c8063715018a61161008c578063b11accff11610066578063b11accff146101dd578063d55ec9c1146101fb578063f2fde38b14610217578063fd4a77f114610233576100cf565b8063715018a6146101835780638da5cb5b1461018d5780639b19251a146101ab576100cf565b8063013cf08b146100d4578063200d2ed2146101055780632f95355b1461012357806338db6dd31461013f57806362564c481461015b5780636a00600c14610179575b600080fd5b6100ee60048036038101906100e9919061165a565b61024f565b6040516100fc929190611726565b60405180910390f35b61010d61030b565b60405161011a91906117cd565b60405180910390f35b61013d6004803603810190610138919061191d565b61031e565b005b610159600480360381019061015491906119c4565b6103dc565b005b610163610516565b6040516101709190611b49565b60405180910390f35b610181610611565b005b61018b6106b9565b005b6101956106cd565b6040516101a29190611b7a565b60405180910390f35b6101c560048036038101906101c091906119c4565b6106f6565b6040516101d493929190611bb0565b60405180910390f35b6101e561073a565b6040516101f29190611c24565b60405180910390f35b61021560048036038101906102109190611d0e565b61081a565b005b610231600480360381019061022c91906119c4565b61098b565b005b61024d6004803603810190610248919061165a565b610a0e565b005b6002818154811061025f57600080fd5b906000526020600020906002020160009150905080600001805461028290611d86565b80601f01602080910402602001604051908101604052809291908181526020018280546102ae90611d86565b80156102fb5780601f106102d0576101008083540402835291602001916102fb565b820191906000526020600020905b8154815290600101906020018083116102de57829003601f168201915b5050505050908060010154905082565b600360009054906101000a900460ff1681565b610326610c0d565b61032e610ca5565b600260405180604001604052808381526020016000815250908060018154018082558091505060019003906000526020600020906002020160009091909190915060008201518160000190816103849190611f63565b506020820151816001015550507f92e393e9b54e2f801d3ea4beb0c5e71a21cc34a5d34b77d0fb8a3aa1650dc18f60016002805490506103c49190612064565b6040516103d19190612098565b60405180910390a150565b6103e4610d1d565b6103ec610d9b565b60001515600160008373ffffffffffffffffffffffffffffffffffffffff1673ffffffffffffffffffffffffffffffffffffffff16815260200190815260200160002060000160009054906101000a900460ff16151514610482576040517f08c379a0000000000000000000000000000000000000000000000000000000008152600401610479906120ff565b60405180910390fd5b60018060008373ffffffffffffffffffffffffffffffffffffffff1673ffffffffffffffffffffffffffffffffffffffff16815260200190815260200160002060000160006101000a81548160ff0219169083151502179055507fb6be2187d059cc2a55fe29e0e503b566e1e0f8c8780096e185429350acffd3dd8160405161050b9190611b7a565b60405180910390a150565b60606002805480602002602001604051908101604052809291908181526020016000905b82821015610608578382906000526020600020906002020160405180604001604052908160008201805461056d90611d86565b80601f016020809104026020016040519081016040528092919081815260200182805461059990611d86565b80156105e65780601f106105bb576101008083540402835291602001916105e6565b820191906000526020600020905b8154815290600101906020018083116105c957829003601f168201915b505050505081526020016001820154815250508152602001906001019061053a565b50505050905090565b610619610d1d565b610621610e13565b60008080600090505b6002805490508110156106a357826002828154811061064c5761064b61211f565b5b906000526020600020906002020160010154111561069057600281815481106106785761067761211f565b5b90600052602060002090600202016001015492508091505b808061069b9061214e565b91505061062a565b50806004819055506106b56005610e8b565b5050565b6106c1610d1d565b6106cb6000610f19565b565b60008060009054906101000a900473ffffffffffffffffffffffffffffffffffffffff16905090565b60016020528060005260406000206000915090508060000160009054906101000a900460ff16908060000160019054906101000a900460ff16908060010154905083565b6107426115f6565b61074a610fdd565b6002600454815481106107605761075f61211f565b5b906000526020600020906002020160405180604001604052908160008201805461078990611d86565b80601f01602080910402602001604051908101604052809291908181526020018280546107b590611d86565b80156108025780601f106107d757610100808354040283529160200191610802565b820191906000526020600020905b8154815290600101906020018083116107e557829003601f168201915b50505050508152602001600182015481525050905090565b610822610d1d565b61082a610d9b565b60005b815181101561098757600180600084848151811061084e5761084d61211f565b5b602002602001015173ffffffffffffffffffffffffffffffffffffffff1673ffffffffffffffffffffffffffffffffffffffff16815260200190815260200160002060000160006101000a81548160ff0219169083151502179055156109745760018060008484815181106108c6576108c561211f565b5b602002602001015173ffffffffffffffffffffffffffffffffffffffff1673ffffffffffffffffffffffffffffffffffffffff16815260200190815260200160002060000160006101000a81548160ff0219169083151502179055507fb6be2187d059cc2a55fe29e0e503b566e1e0f8c8780096e185429350acffd3dd8282815181106109565761095561211f565b5b602002602001015160405161096b9190611b7a565b60405180910390a15b808061097f9061214e565b91505061082d565b5050565b610993610d1d565b600073ffffffffffffffffffffffffffffffffffffffff168173ffffffffffffffffffffffffffffffffffffffff1603610a02576040517f08c379a00000000000000000000000000000000000000000000000000000000081526004016109f990612208565b60405180910390fd5b610a0b81610f19565b50565b610a16611054565b610a1e610c0d565b600160003373ffffffffffffffffffffffffffffffffffffffff1673ffffffffffffffffffffffffffffffffffffffff16815260200190815260200160002060000160019054906101000a900460ff1615610aae576040517f08c379a0000000000000000000000000000000000000000000000000000000008152600401610aa59061229a565b60405180910390fd5b6002805490508110610af5576040517f08c379a0000000000000000000000000000000000000000000000000000000008152600401610aec9061232c565b60405180910390fd5b60028181548110610b0957610b0861211f565b5b90600052602060002090600202016001016000815480929190610b2b9061214e565b919050555080600160003373ffffffffffffffffffffffffffffffffffffffff1673ffffffffffffffffffffffffffffffffffffffff1681526020019081526020016000206001018190555060018060003373ffffffffffffffffffffffffffffffffffffffff1673ffffffffffffffffffffffffffffffffffffffff16815260200190815260200160002060000160016101000a81548160ff0219169083151502179055507f4d99b957a2bc29a30ebd96a7be8e68fe50a3c701db28a91436490b7d53870ca43382604051610c0292919061234c565b60405180910390a150565b60011515600160003373ffffffffffffffffffffffffffffffffffffffff1673ffffffffffffffffffffffffffffffffffffffff16815260200190815260200160002060000160009054906101000a900460ff16151514610ca3576040517f08c379a0000000000000000000000000000000000000000000000000000000008152600401610c9a906123e7565b60405180910390fd5b565b60016005811115610cb957610cb8611756565b5b600360009054906101000a900460ff166005811115610cdb57610cda611756565b5b14610d1b576040517f08c379a0000000000000000000000000000000000000000000000000000000008152600401610d1290612453565b60405180910390fd5b565b610d256110cc565b73ffffffffffffffffffffffffffffffffffffffff16610d436106cd565b73ffffffffffffffffffffffffffffffffffffffff1614610d99576040517f08c379a0000000000000000000000000000000000000000000000000000000008152600401610d90906124bf565b60405180910390fd5b565b60006005811115610daf57610dae611756565b5b600360009054906101000a900460ff166005811115610dd157610dd0611756565b5b14610e11576040517f08c379a0000000000000000000000000000000000000000000000000000000008152600401610e0890612551565b60405180910390fd5b565b60046005811115610e2757610e26611756565b5b600360009054906101000a900460ff166005811115610e4957610e48611756565b5b14610e89576040517f08c379a0000000000000000000000000000000000000000000000000000000008152600401610e80906125bd565b60405180910390fd5b565b610e93610d1d565b80610e9d816110d4565b6000600360009054906101000a900460ff16905082600360006101000a81548160ff02191690836005811115610ed657610ed5611756565b5b02179055507f0a97a4ee45751e2abf3e4fc8946939630b11b371ea8ae39ccdc3056e98f5cc3f8184604051610f0c9291906125dd565b60405180910390a1505050565b60008060009054906101000a900473ffffffffffffffffffffffffffffffffffffffff169050816000806101000a81548173ffffffffffffffffffffffffffffffffffffffff021916908373ffffffffffffffffffffffffffffffffffffffff1602179055508173ffffffffffffffffffffffffffffffffffffffff168173ffffffffffffffffffffffffffffffffffffffff167f8be0079c531659141344cd1fd0a4f28419497f9722a3daafe3b4186f6b6457e060405160405180910390a35050565b600580811115610ff057610fef611756565b5b600360009054906101000a900460ff16600581111561101257611011611756565b5b14611052576040517f08c379a000000000000000000000000000000000000000000000000000000000815260040161104990612652565b60405180910390fd5b565b6003600581111561106857611067611756565b5b600360009054906101000a900460ff16600581111561108a57611089611756565b5b146110ca576040517f08c379a00000000000000000000000000000000000000000000000000000000081526004016110c1906126be565b60405180910390fd5b565b600033905090565b600060058111156110e8576110e7611756565b5b8160058111156110fb576110fa611756565b5b036111b9576000600581111561111457611113611756565b5b600360009054906101000a900460ff16600581111561113657611135611756565b5b148061117557506001600581111561115157611150611756565b5b600360009054906101000a900460ff16600581111561117357611172611756565b5b145b6111b4576040517f08c379a00000000000000000000000000000000000000000000000000000000081526004016111ab90612776565b60405180910390fd5b6115f3565b600160058111156111cd576111cc611756565b5b8160058111156111e0576111df611756565b5b0361129e57600060058111156111f9576111f8611756565b5b600360009054906101000a900460ff16600581111561121b5761121a611756565b5b148061125a57506002600581111561123657611235611756565b5b600360009054906101000a900460ff16600581111561125857611257611756565b5b145b611299576040517f08c379a000000000000000000000000000000000000000000000000000000000815260040161129090612776565b60405180910390fd5b6115f2565b600260058111156112b2576112b1611756565b5b8160058111156112c5576112c4611756565b5b0361138357600160058111156112de576112dd611756565b5b600360009054906101000a900460ff166005811115611300576112ff611756565b5b148061133f57506003600581111561131b5761131a611756565b5b600360009054906101000a900460ff16600581111561133d5761133c611756565b5b145b61137e576040517f08c379a000000000000000000000000000000000000000000000000000000000815260040161137590612776565b60405180910390fd5b6115f1565b6003600581111561139757611396611756565b5b8160058111156113aa576113a9611756565b5b0361146857600260058111156113c3576113c2611756565b5b600360009054906101000a900460ff1660058111156113e5576113e4611756565b5b1480611424575060046005811115611400576113ff611756565b5b600360009054906101000a900460ff16600581111561142257611421611756565b5b145b611463576040517f08c379a000000000000000000000000000000000000000000000000000000000815260040161145a90612776565b60405180910390fd5b6115f0565b6004600581111561147c5761147b611756565b5b81600581111561148f5761148e611756565b5b0361154c57600360058111156114a8576114a7611756565b5b600360009054906101000a900460ff1660058111156114ca576114c9611756565b5b148061150857506005808111156114e4576114e3611756565b5b600360009054906101000a900460ff16600581111561150657611505611756565b5b145b611547576040517f08c379a000000000000000000000000000000000000000000000000000000000815260040161153e90612776565b60405180910390fd5b6115ef565b60058081111561155f5761155e611756565b5b81600581111561157257611571611756565b5b036115ee576004600581111561158b5761158a611756565b5b600360009054906101000a900460ff1660058111156115ad576115ac611756565b5b146115ed576040517f08c379a00000000000000000000000000000000000000000000000000000000081526004016115e490612776565b60405180910390fd5b5b5b5b5b5b5b50565b604051806040016040528060608152602001600081525090565b6000604051905090565b600080fd5b600080fd5b6000819050919050565b61163781611624565b811461164257600080fd5b50565b6000813590506116548161162e565b92915050565b6000602082840312156116705761166f61161a565b5b600061167e84828501611645565b91505092915050565b600081519050919050565b600082825260208201905092915050565b60005b838110156116c15780820151818401526020810190506116a6565b60008484015250505050565b6000601f19601f8301169050919050565b60006116e982611687565b6116f38185611692565b93506117038185602086016116a3565b61170c816116cd565b840191505092915050565b61172081611624565b82525050565b6000604082019050818103600083015261174081856116de565b905061174f6020830184611717565b9392505050565b7f4e487b7100000000000000000000000000000000000000000000000000000000600052602160045260246000fd5b6006811061179657611795611756565b5b50565b60008190506117a782611785565b919050565b60006117b782611799565b9050919050565b6117c7816117ac565b82525050565b60006020820190506117e260008301846117be565b92915050565b600080fd5b600080fd5b7f4e487b7100000000000000000000000000000000000000000000000000000000600052604160045260246000fd5b61182a826116cd565b810181811067ffffffffffffffff82111715611849576118486117f2565b5b80604052505050565b600061185c611610565b90506118688282611821565b919050565b600067ffffffffffffffff821115611888576118876117f2565b5b611891826116cd565b9050602081019050919050565b82818337600083830152505050565b60006118c06118bb8461186d565b611852565b9050828152602081018484840111156118dc576118db6117ed565b5b6118e784828561189e565b509392505050565b600082601f830112611904576119036117e8565b5b81356119148482602086016118ad565b91505092915050565b6000602082840312156119335761193261161a565b5b600082013567ffffffffffffffff8111156119515761195061161f565b5b61195d848285016118ef565b91505092915050565b600073ffffffffffffffffffffffffffffffffffffffff82169050919050565b600061199182611966565b9050919050565b6119a181611986565b81146119ac57600080fd5b50565b6000813590506119be81611998565b92915050565b6000602082840312156119da576119d961161a565b5b60006119e8848285016119af565b91505092915050565b600081519050919050565b600082825260208201905092915050565b6000819050602082019050919050565b600082825260208201905092915050565b6000611a3982611687565b611a438185611a1d565b9350611a538185602086016116a3565b611a5c816116cd565b840191505092915050565b611a7081611624565b82525050565b60006040830160008301518482036000860152611a938282611a2e565b9150506020830151611aa86020860182611a67565b508091505092915050565b6000611abf8383611a76565b905092915050565b6000602082019050919050565b6000611adf826119f1565b611ae981856119fc565b935083602082028501611afb85611a0d565b8060005b85811015611b375784840389528151611b188582611ab3565b9450611b2383611ac7565b925060208a01995050600181019050611aff565b50829750879550505050505092915050565b60006020820190508181036000830152611b638184611ad4565b905092915050565b611b7481611986565b82525050565b6000602082019050611b8f6000830184611b6b565b92915050565b60008115159050919050565b611baa81611b95565b82525050565b6000606082019050611bc56000830186611ba1565b611bd26020830185611ba1565b611bdf6040830184611717565b949350505050565b60006040830160008301518482036000860152611c048282611a2e565b9150506020830151611c196020860182611a67565b508091505092915050565b60006020820190508181036000830152611c3e8184611be7565b905092915050565b600067ffffffffffffffff821115611c6157611c606117f2565b5b602082029050602081019050919050565b600080fd5b6000611c8a611c8584611c46565b611852565b90508083825260208201905060208402830185811115611cad57611cac611c72565b5b835b81811015611cd65780611cc288826119af565b845260208401935050602081019050611caf565b5050509392505050565b600082601f830112611cf557611cf46117e8565b5b8135611d05848260208601611c77565b91505092915050565b600060208284031215611d2457611d2361161a565b5b600082013567ffffffffffffffff811115611d4257611d4161161f565b5b611d4e84828501611ce0565b91505092915050565b7f4e487b7100000000000000000000000000000000000000000000000000000000600052602260045260246000fd5b60006002820490506001821680611d9e57607f821691505b602082108103611db157611db0611d57565b5b50919050565b60008190508160005260206000209050919050565b60006020601f8301049050919050565b600082821b905092915050565b600060088302611e197fffffffffffffffffffffffffffffffffffffffffffffffffffffffffffffffff82611ddc565b611e238683611ddc565b95508019841693508086168417925050509392505050565b6000819050919050565b6000611e60611e5b611e5684611624565b611e3b565b611624565b9050919050565b6000819050919050565b611e7a83611e45565b611e8e611e8682611e67565b848454611de9565b825550505050565b600090565b611ea3611e96565b611eae818484611e71565b505050565b5b81811015611ed257611ec7600082611e9b565b600181019050611eb4565b5050565b601f821115611f1757611ee881611db7565b611ef184611dcc565b81016020851015611f00578190505b611f14611f0c85611dcc565b830182611eb3565b50505b505050565b600082821c905092915050565b6000611f3a60001984600802611f1c565b1980831691505092915050565b6000611f538383611f29565b9150826002028217905092915050565b611f6c82611687565b67ffffffffffffffff811115611f8557611f846117f2565b5b611f8f8254611d86565b611f9a828285611ed6565b600060209050601f831160018114611fcd5760008415611fbb578287015190505b611fc58582611f47565b86555061202d565b601f198416611fdb86611db7565b60005b8281101561200357848901518255600182019150602085019450602081019050611fde565b86831015612020578489015161201c601f891682611f29565b8355505b6001600288020188555050505b505050505050565b7f4e487b7100000000000000000000000000000000000000000000000000000000600052601160045260246000fd5b600061206f82611624565b915061207a83611624565b925082820390508181111561209257612091612035565b5b92915050565b60006020820190506120ad6000830184611717565b92915050565b7f566f74657220697320616c72656164792077686974656c697374656400000000600082015250565b60006120e9601c83611692565b91506120f4826120b3565b602082019050919050565b60006020820190508181036000830152612118816120dc565b9050919050565b7f4e487b7100000000000000000000000000000000000000000000000000000000600052603260045260246000fd5b600061215982611624565b91507fffffffffffffffffffffffffffffffffffffffffffffffffffffffffffffffff820361218b5761218a612035565b5b600182019050919050565b7f4f776e61626c653a206e6577206f776e657220697320746865207a65726f206160008201527f6464726573730000000000000000000000000000000000000000000000000000602082015250565b60006121f2602683611692565b91506121fd82612196565b604082019050919050565b60006020820190508181036000830152612221816121e5565b9050919050565b7f596f75206861766520616c726561647920766f7465642e204f6e6c79206f6e6560008201527f20766f746520697320616c6c6f77656400000000000000000000000000000000602082015250565b6000612284603083611692565b915061228f82612228565b604082019050919050565b600060208201905081810360008301526122b381612277565b9050919050565b7f50726f706f73616c20496420646f65736e27742065786973742e20506c65617360008201527f652073656c65637420612076616c69642070726f706f73616c20496400000000602082015250565b6000612316603c83611692565b9150612321826122ba565b604082019050919050565b6000602082019050818103600083015261234581612309565b9050919050565b60006040820190506123616000830185611b6b565b61236e6020830184611717565b9392505050565b7f4f6e6c792077686974656c697374656420766f7465727320617265206175746860008201527f6f72697a656420746f20646f207468697320616374696f6e2e00000000000000602082015250565b60006123d1603983611692565b91506123dc82612375565b604082019050919050565b60006020820190508181036000830152612400816123c4565b9050919050565b7f50726f706f73616c20726567697374726174696f6e20697320636c6f7365642e600082015250565b600061243d602083611692565b915061244882612407565b602082019050919050565b6000602082019050818103600083015261246c81612430565b9050919050565b7f4f776e61626c653a2063616c6c6572206973206e6f7420746865206f776e6572600082015250565b60006124a9602083611692565b91506124b482612473565b602082019050919050565b600060208201905081810360008301526124d88161249c565b9050919050565b7f526567697374726174696f6e20706572696f6420666f7220766f74657220697360008201527f20636c6f7365642e000000000000000000000000000000000000000000000000602082015250565b600061253b602883611692565b9150612546826124df565b604082019050919050565b6000602082019050818103600083015261256a8161252e565b9050919050565b7f566f74696e67206973206e6f7420636c6f7365642e0000000000000000000000600082015250565b60006125a7601583611692565b91506125b282612571565b602082019050919050565b600060208201905081810360008301526125d68161259a565b9050919050565b60006040820190506125f260008301856117be565b6125ff60208301846117be565b9392505050565b7f566f74657320636f756e74206973206e6f742079657420646f6e650000000000600082015250565b600061263c601b83611692565b915061264782612606565b602082019050919050565b6000602082019050818103600083015261266b8161262f565b9050919050565b7f566f74696e672073657373696f6e20697320636c6f7365642e00000000000000600082015250565b60006126a8601983611692565b91506126b382612672565b602082019050919050565b600060208201905081810360008301526126d78161269b565b9050919050565b7f41637475616c20737461747573206973206e6f7420636f6d70617469626c652060008201527f7769746820796f75722063686f696365202863686f6f73652070726576696f7560208201527f73206f6e65206f72206e657874206f6e65290000000000000000000000000000604082015250565b6000612760605283611692565b915061276b826126de565b606082019050919050565b6000602082019050818103600083015261278f81612753565b905091905056fea26469706673582212200ac3c5240acba93deee331d4ba36c4c58077886b698f5200707ca43c2e9a89a864736f6c63430008120033",
					"opcodes": "PUSH1 0x80 PUSH1 0x40 MSTORE CALLVALUE DUP1 ISZERO PUSH3 0x11 JUMPI PUSH1 0x0 DUP1 REVERT JUMPDEST POP PUSH3 0x32 PUSH3 0x26 PUSH3 0x38 PUSH1 0x20 SHL PUSH1 0x20 SHR JUMP JUMPDEST PUSH3 0x40 PUSH1 0x20 SHL PUSH1 0x20 SHR JUMP JUMPDEST PUSH3 0x104 JUMP JUMPDEST PUSH1 0x0 CALLER SWAP1 POP SWAP1 JUMP JUMPDEST PUSH1 0x0 DUP1 PUSH1 0x0 SWAP1 SLOAD SWAP1 PUSH2 0x100 EXP SWAP1 DIV PUSH20 0xFFFFFFFFFFFFFFFFFFFFFFFFFFFFFFFFFFFFFFFF AND SWAP1 POP DUP2 PUSH1 0x0 DUP1 PUSH2 0x100 EXP DUP2 SLOAD DUP2 PUSH20 0xFFFFFFFFFFFFFFFFFFFFFFFFFFFFFFFFFFFFFFFF MUL NOT AND SWAP1 DUP4 PUSH20 0xFFFFFFFFFFFFFFFFFFFFFFFFFFFFFFFFFFFFFFFF AND MUL OR SWAP1 SSTORE POP DUP2 PUSH20 0xFFFFFFFFFFFFFFFFFFFFFFFFFFFFFFFFFFFFFFFF AND DUP2 PUSH20 0xFFFFFFFFFFFFFFFFFFFFFFFFFFFFFFFFFFFFFFFF AND PUSH32 0x8BE0079C531659141344CD1FD0A4F28419497F9722A3DAAFE3B4186F6B6457E0 PUSH1 0x40 MLOAD PUSH1 0x40 MLOAD DUP1 SWAP2 SUB SWAP1 LOG3 POP POP JUMP JUMPDEST PUSH2 0x27CC DUP1 PUSH3 0x114 PUSH1 0x0 CODECOPY PUSH1 0x0 RETURN INVALID PUSH1 0x80 PUSH1 0x40 MSTORE CALLVALUE DUP1 ISZERO PUSH2 0x10 JUMPI PUSH1 0x0 DUP1 REVERT JUMPDEST POP PUSH1 0x4 CALLDATASIZE LT PUSH2 0xCF JUMPI PUSH1 0x0 CALLDATALOAD PUSH1 0xE0 SHR DUP1 PUSH4 0x715018A6 GT PUSH2 0x8C JUMPI DUP1 PUSH4 0xB11ACCFF GT PUSH2 0x66 JUMPI DUP1 PUSH4 0xB11ACCFF EQ PUSH2 0x1DD JUMPI DUP1 PUSH4 0xD55EC9C1 EQ PUSH2 0x1FB JUMPI DUP1 PUSH4 0xF2FDE38B EQ PUSH2 0x217 JUMPI DUP1 PUSH4 0xFD4A77F1 EQ PUSH2 0x233 JUMPI PUSH2 0xCF JUMP JUMPDEST DUP1 PUSH4 0x715018A6 EQ PUSH2 0x183 JUMPI DUP1 PUSH4 0x8DA5CB5B EQ PUSH2 0x18D JUMPI DUP1 PUSH4 0x9B19251A EQ PUSH2 0x1AB JUMPI PUSH2 0xCF JUMP JUMPDEST DUP1 PUSH4 0x13CF08B EQ PUSH2 0xD4 JUMPI DUP1 PUSH4 0x200D2ED2 EQ PUSH2 0x105 JUMPI DUP1 PUSH4 0x2F95355B EQ PUSH2 0x123 JUMPI DUP1 PUSH4 0x38DB6DD3 EQ PUSH2 0x13F JUMPI DUP1 PUSH4 0x62564C48 EQ PUSH2 0x15B JUMPI DUP1 PUSH4 0x6A00600C EQ PUSH2 0x179 JUMPI JUMPDEST PUSH1 0x0 DUP1 REVERT JUMPDEST PUSH2 0xEE PUSH1 0x4 DUP1 CALLDATASIZE SUB DUP2 ADD SWAP1 PUSH2 0xE9 SWAP2 SWAP1 PUSH2 0x165A JUMP JUMPDEST PUSH2 0x24F JUMP JUMPDEST PUSH1 0x40 MLOAD PUSH2 0xFC SWAP3 SWAP2 SWAP1 PUSH2 0x1726 JUMP JUMPDEST PUSH1 0x40 MLOAD DUP1 SWAP2 SUB SWAP1 RETURN JUMPDEST PUSH2 0x10D PUSH2 0x30B JUMP JUMPDEST PUSH1 0x40 MLOAD PUSH2 0x11A SWAP2 SWAP1 PUSH2 0x17CD JUMP JUMPDEST PUSH1 0x40 MLOAD DUP1 SWAP2 SUB SWAP1 RETURN JUMPDEST PUSH2 0x13D PUSH1 0x4 DUP1 CALLDATASIZE SUB DUP2 ADD SWAP1 PUSH2 0x138 SWAP2 SWAP1 PUSH2 0x191D JUMP JUMPDEST PUSH2 0x31E JUMP JUMPDEST STOP JUMPDEST PUSH2 0x159 PUSH1 0x4 DUP1 CALLDATASIZE SUB DUP2 ADD SWAP1 PUSH2 0x154 SWAP2 SWAP1 PUSH2 0x19C4 JUMP JUMPDEST PUSH2 0x3DC JUMP JUMPDEST STOP JUMPDEST PUSH2 0x163 PUSH2 0x516 JUMP JUMPDEST PUSH1 0x40 MLOAD PUSH2 0x170 SWAP2 SWAP1 PUSH2 0x1B49 JUMP JUMPDEST PUSH1 0x40 MLOAD DUP1 SWAP2 SUB SWAP1 RETURN JUMPDEST PUSH2 0x181 PUSH2 0x611 JUMP JUMPDEST STOP JUMPDEST PUSH2 0x18B PUSH2 0x6B9 JUMP JUMPDEST STOP JUMPDEST PUSH2 0x195 PUSH2 0x6CD JUMP JUMPDEST PUSH1 0x40 MLOAD PUSH2 0x1A2 SWAP2 SWAP1 PUSH2 0x1B7A JUMP JUMPDEST PUSH1 0x40 MLOAD DUP1 SWAP2 SUB SWAP1 RETURN JUMPDEST PUSH2 0x1C5 PUSH1 0x4 DUP1 CALLDATASIZE SUB DUP2 ADD SWAP1 PUSH2 0x1C0 SWAP2 SWAP1 PUSH2 0x19C4 JUMP JUMPDEST PUSH2 0x6F6 JUMP JUMPDEST PUSH1 0x40 MLOAD PUSH2 0x1D4 SWAP4 SWAP3 SWAP2 SWAP1 PUSH2 0x1BB0 JUMP JUMPDEST PUSH1 0x40 MLOAD DUP1 SWAP2 SUB SWAP1 RETURN JUMPDEST PUSH2 0x1E5 PUSH2 0x73A JUMP JUMPDEST PUSH1 0x40 MLOAD PUSH2 0x1F2 SWAP2 SWAP1 PUSH2 0x1C24 JUMP JUMPDEST PUSH1 0x40 MLOAD DUP1 SWAP2 SUB SWAP1 RETURN JUMPDEST PUSH2 0x215 PUSH1 0x4 DUP1 CALLDATASIZE SUB DUP2 ADD SWAP1 PUSH2 0x210 SWAP2 SWAP1 PUSH2 0x1D0E JUMP JUMPDEST PUSH2 0x81A JUMP JUMPDEST STOP JUMPDEST PUSH2 0x231 PUSH1 0x4 DUP1 CALLDATASIZE SUB DUP2 ADD SWAP1 PUSH2 0x22C SWAP2 SWAP1 PUSH2 0x19C4 JUMP JUMPDEST PUSH2 0x98B JUMP JUMPDEST STOP JUMPDEST PUSH2 0x24D PUSH1 0x4 DUP1 CALLDATASIZE SUB DUP2 ADD SWAP1 PUSH2 0x248 SWAP2 SWAP1 PUSH2 0x165A JUMP JUMPDEST PUSH2 0xA0E JUMP JUMPDEST STOP JUMPDEST PUSH1 0x2 DUP2 DUP2 SLOAD DUP2 LT PUSH2 0x25F JUMPI PUSH1 0x0 DUP1 REVERT JUMPDEST SWAP1 PUSH1 0x0 MSTORE PUSH1 0x20 PUSH1 0x0 KECCAK256 SWAP1 PUSH1 0x2 MUL ADD PUSH1 0x0 SWAP2 POP SWAP1 POP DUP1 PUSH1 0x0 ADD DUP1 SLOAD PUSH2 0x282 SWAP1 PUSH2 0x1D86 JUMP JUMPDEST DUP1 PUSH1 0x1F ADD PUSH1 0x20 DUP1 SWAP2 DIV MUL PUSH1 0x20 ADD PUSH1 0x40 MLOAD SWAP1 DUP2 ADD PUSH1 0x40 MSTORE DUP1 SWAP3 SWAP2 SWAP1 DUP2 DUP2 MSTORE PUSH1 0x20 ADD DUP3 DUP1 SLOAD PUSH2 0x2AE SWAP1 PUSH2 0x1D86 JUMP JUMPDEST DUP1 ISZERO PUSH2 0x2FB JUMPI DUP1 PUSH1 0x1F LT PUSH2 0x2D0 JUMPI PUSH2 0x100 DUP1 DUP4 SLOAD DIV MUL DUP4 MSTORE SWAP2 PUSH1 0x20 ADD SWAP2 PUSH2 0x2FB JUMP JUMPDEST DUP3 ADD SWAP2 SWAP1 PUSH1 0x0 MSTORE PUSH1 0x20 PUSH1 0x0 KECCAK256 SWAP1 JUMPDEST DUP2 SLOAD DUP2 MSTORE SWAP1 PUSH1 0x1 ADD SWAP1 PUSH1 0x20 ADD DUP1 DUP4 GT PUSH2 0x2DE JUMPI DUP3 SWAP1 SUB PUSH1 0x1F AND DUP3 ADD SWAP2 JUMPDEST POP POP POP POP POP SWAP1 DUP1 PUSH1 0x1 ADD SLOAD SWAP1 POP DUP3 JUMP JUMPDEST PUSH1 0x3 PUSH1 0x0 SWAP1 SLOAD SWAP1 PUSH2 0x100 EXP SWAP1 DIV PUSH1 0xFF AND DUP2 JUMP JUMPDEST PUSH2 0x326 PUSH2 0xC0D JUMP JUMPDEST PUSH2 0x32E PUSH2 0xCA5 JUMP JUMPDEST PUSH1 0x2 PUSH1 0x40 MLOAD DUP1 PUSH1 0x40 ADD PUSH1 0x40 MSTORE DUP1 DUP4 DUP2 MSTORE PUSH1 0x20 ADD PUSH1 0x0 DUP2 MSTORE POP SWAP1 DUP1 PUSH1 0x1 DUP2 SLOAD ADD DUP1 DUP3 SSTORE DUP1 SWAP2 POP POP PUSH1 0x1 SWAP1 SUB SWAP1 PUSH1 0x0 MSTORE PUSH1 0x20 PUSH1 0x0 KECCAK256 SWAP1 PUSH1 0x2 MUL ADD PUSH1 0x0 SWAP1 SWAP2 SWAP1 SWAP2 SWAP1 SWAP2 POP PUSH1 0x0 DUP3 ADD MLOAD DUP2 PUSH1 0x0 ADD SWAP1 DUP2 PUSH2 0x384 SWAP2 SWAP1 PUSH2 0x1F63 JUMP JUMPDEST POP PUSH1 0x20 DUP3 ADD MLOAD DUP2 PUSH1 0x1 ADD SSTORE POP POP PUSH32 0x92E393E9B54E2F801D3EA4BEB0C5E71A21CC34A5D34B77D0FB8A3AA1650DC18F PUSH1 0x1 PUSH1 0x2 DUP1 SLOAD SWAP1 POP PUSH2 0x3C4 SWAP2 SWAP1 PUSH2 0x2064 JUMP JUMPDEST PUSH1 0x40 MLOAD PUSH2 0x3D1 SWAP2 SWAP1 PUSH2 0x2098 JUMP JUMPDEST PUSH1 0x40 MLOAD DUP1 SWAP2 SUB SWAP1 LOG1 POP JUMP JUMPDEST PUSH2 0x3E4 PUSH2 0xD1D JUMP JUMPDEST PUSH2 0x3EC PUSH2 0xD9B JUMP JUMPDEST PUSH1 0x0 ISZERO ISZERO PUSH1 0x1 PUSH1 0x0 DUP4 PUSH20 0xFFFFFFFFFFFFFFFFFFFFFFFFFFFFFFFFFFFFFFFF AND PUSH20 0xFFFFFFFFFFFFFFFFFFFFFFFFFFFFFFFFFFFFFFFF AND DUP2 MSTORE PUSH1 0x20 ADD SWAP1 DUP2 MSTORE PUSH1 0x20 ADD PUSH1 0x0 KECCAK256 PUSH1 0x0 ADD PUSH1 0x0 SWAP1 SLOAD SWAP1 PUSH2 0x100 EXP SWAP1 DIV PUSH1 0xFF AND ISZERO ISZERO EQ PUSH2 0x482 JUMPI PUSH1 0x40 MLOAD PUSH32 0x8C379A000000000000000000000000000000000000000000000000000000000 DUP2 MSTORE PUSH1 0x4 ADD PUSH2 0x479 SWAP1 PUSH2 0x20FF JUMP JUMPDEST PUSH1 0x40 MLOAD DUP1 SWAP2 SUB SWAP1 REVERT JUMPDEST PUSH1 0x1 DUP1 PUSH1 0x0 DUP4 PUSH20 0xFFFFFFFFFFFFFFFFFFFFFFFFFFFFFFFFFFFFFFFF AND PUSH20 0xFFFFFFFFFFFFFFFFFFFFFFFFFFFFFFFFFFFFFFFF AND DUP2 MSTORE PUSH1 0x20 ADD SWAP1 DUP2 MSTORE PUSH1 0x20 ADD PUSH1 0x0 KECCAK256 PUSH1 0x0 ADD PUSH1 0x0 PUSH2 0x100 EXP DUP2 SLOAD DUP2 PUSH1 0xFF MUL NOT AND SWAP1 DUP4 ISZERO ISZERO MUL OR SWAP1 SSTORE POP PUSH32 0xB6BE2187D059CC2A55FE29E0E503B566E1E0F8C8780096E185429350ACFFD3DD DUP2 PUSH1 0x40 MLOAD PUSH2 0x50B SWAP2 SWAP1 PUSH2 0x1B7A JUMP JUMPDEST PUSH1 0x40 MLOAD DUP1 SWAP2 SUB SWAP1 LOG1 POP JUMP JUMPDEST PUSH1 0x60 PUSH1 0x2 DUP1 SLOAD DUP1 PUSH1 0x20 MUL PUSH1 0x20 ADD PUSH1 0x40 MLOAD SWAP1 DUP2 ADD PUSH1 0x40 MSTORE DUP1 SWAP3 SWAP2 SWAP1 DUP2 DUP2 MSTORE PUSH1 0x20 ADD PUSH1 0x0 SWAP1 JUMPDEST DUP3 DUP3 LT ISZERO PUSH2 0x608 JUMPI DUP4 DUP3 SWAP1 PUSH1 0x0 MSTORE PUSH1 0x20 PUSH1 0x0 KECCAK256 SWAP1 PUSH1 0x2 MUL ADD PUSH1 0x40 MLOAD DUP1 PUSH1 0x40 ADD PUSH1 0x40 MSTORE SWAP1 DUP2 PUSH1 0x0 DUP3 ADD DUP1 SLOAD PUSH2 0x56D SWAP1 PUSH2 0x1D86 JUMP JUMPDEST DUP1 PUSH1 0x1F ADD PUSH1 0x20 DUP1 SWAP2 DIV MUL PUSH1 0x20 ADD PUSH1 0x40 MLOAD SWAP1 DUP2 ADD PUSH1 0x40 MSTORE DUP1 SWAP3 SWAP2 SWAP1 DUP2 DUP2 MSTORE PUSH1 0x20 ADD DUP3 DUP1 SLOAD PUSH2 0x599 SWAP1 PUSH2 0x1D86 JUMP JUMPDEST DUP1 ISZERO PUSH2 0x5E6 JUMPI DUP1 PUSH1 0x1F LT PUSH2 0x5BB JUMPI PUSH2 0x100 DUP1 DUP4 SLOAD DIV MUL DUP4 MSTORE SWAP2 PUSH1 0x20 ADD SWAP2 PUSH2 0x5E6 JUMP JUMPDEST DUP3 ADD SWAP2 SWAP1 PUSH1 0x0 MSTORE PUSH1 0x20 PUSH1 0x0 KECCAK256 SWAP1 JUMPDEST DUP2 SLOAD DUP2 MSTORE SWAP1 PUSH1 0x1 ADD SWAP1 PUSH1 0x20 ADD DUP1 DUP4 GT PUSH2 0x5C9 JUMPI DUP3 SWAP1 SUB PUSH1 0x1F AND DUP3 ADD SWAP2 JUMPDEST POP POP POP POP POP DUP2 MSTORE PUSH1 0x20 ADD PUSH1 0x1 DUP3 ADD SLOAD DUP2 MSTORE POP POP DUP2 MSTORE PUSH1 0x20 ADD SWAP1 PUSH1 0x1 ADD SWAP1 PUSH2 0x53A JUMP JUMPDEST POP POP POP POP SWAP1 POP SWAP1 JUMP JUMPDEST PUSH2 0x619 PUSH2 0xD1D JUMP JUMPDEST PUSH2 0x621 PUSH2 0xE13 JUMP JUMPDEST PUSH1 0x0 DUP1 DUP1 PUSH1 0x0 SWAP1 POP JUMPDEST PUSH1 0x2 DUP1 SLOAD SWAP1 POP DUP2 LT ISZERO PUSH2 0x6A3 JUMPI DUP3 PUSH1 0x2 DUP3 DUP2 SLOAD DUP2 LT PUSH2 0x64C JUMPI PUSH2 0x64B PUSH2 0x211F JUMP JUMPDEST JUMPDEST SWAP1 PUSH1 0x0 MSTORE PUSH1 0x20 PUSH1 0x0 KECCAK256 SWAP1 PUSH1 0x2 MUL ADD PUSH1 0x1 ADD SLOAD GT ISZERO PUSH2 0x690 JUMPI PUSH1 0x2 DUP2 DUP2 SLOAD DUP2 LT PUSH2 0x678 JUMPI PUSH2 0x677 PUSH2 0x211F JUMP JUMPDEST JUMPDEST SWAP1 PUSH1 0x0 MSTORE PUSH1 0x20 PUSH1 0x0 KECCAK256 SWAP1 PUSH1 0x2 MUL ADD PUSH1 0x1 ADD SLOAD SWAP3 POP DUP1 SWAP2 POP JUMPDEST DUP1 DUP1 PUSH2 0x69B SWAP1 PUSH2 0x214E JUMP JUMPDEST SWAP2 POP POP PUSH2 0x62A JUMP JUMPDEST POP DUP1 PUSH1 0x4 DUP2 SWAP1 SSTORE POP PUSH2 0x6B5 PUSH1 0x5 PUSH2 0xE8B JUMP JUMPDEST POP POP JUMP JUMPDEST PUSH2 0x6C1 PUSH2 0xD1D JUMP JUMPDEST PUSH2 0x6CB PUSH1 0x0 PUSH2 0xF19 JUMP JUMPDEST JUMP JUMPDEST PUSH1 0x0 DUP1 PUSH1 0x0 SWAP1 SLOAD SWAP1 PUSH2 0x100 EXP SWAP1 DIV PUSH20 0xFFFFFFFFFFFFFFFFFFFFFFFFFFFFFFFFFFFFFFFF AND SWAP1 POP SWAP1 JUMP JUMPDEST PUSH1 0x1 PUSH1 0x20 MSTORE DUP1 PUSH1 0x0 MSTORE PUSH1 0x40 PUSH1 0x0 KECCAK256 PUSH1 0x0 SWAP2 POP SWAP1 POP DUP1 PUSH1 0x0 ADD PUSH1 0x0 SWAP1 SLOAD SWAP1 PUSH2 0x100 EXP SWAP1 DIV PUSH1 0xFF AND SWAP1 DUP1 PUSH1 0x0 ADD PUSH1 0x1 SWAP1 SLOAD SWAP1 PUSH2 0x100 EXP SWAP1 DIV PUSH1 0xFF AND SWAP1 DUP1 PUSH1 0x1 ADD SLOAD SWAP1 POP DUP4 JUMP JUMPDEST PUSH2 0x742 PUSH2 0x15F6 JUMP JUMPDEST PUSH2 0x74A PUSH2 0xFDD JUMP JUMPDEST PUSH1 0x2 PUSH1 0x4 SLOAD DUP2 SLOAD DUP2 LT PUSH2 0x760 JUMPI PUSH2 0x75F PUSH2 0x211F JUMP JUMPDEST JUMPDEST SWAP1 PUSH1 0x0 MSTORE PUSH1 0x20 PUSH1 0x0 KECCAK256 SWAP1 PUSH1 0x2 MUL ADD PUSH1 0x40 MLOAD DUP1 PUSH1 0x40 ADD PUSH1 0x40 MSTORE SWAP1 DUP2 PUSH1 0x0 DUP3 ADD DUP1 SLOAD PUSH2 0x789 SWAP1 PUSH2 0x1D86 JUMP JUMPDEST DUP1 PUSH1 0x1F ADD PUSH1 0x20 DUP1 SWAP2 DIV MUL PUSH1 0x20 ADD PUSH1 0x40 MLOAD SWAP1 DUP2 ADD PUSH1 0x40 MSTORE DUP1 SWAP3 SWAP2 SWAP1 DUP2 DUP2 MSTORE PUSH1 0x20 ADD DUP3 DUP1 SLOAD PUSH2 0x7B5 SWAP1 PUSH2 0x1D86 JUMP JUMPDEST DUP1 ISZERO PUSH2 0x802 JUMPI DUP1 PUSH1 0x1F LT PUSH2 0x7D7 JUMPI PUSH2 0x100 DUP1 DUP4 SLOAD DIV MUL DUP4 MSTORE SWAP2 PUSH1 0x20 ADD SWAP2 PUSH2 0x802 JUMP JUMPDEST DUP3 ADD SWAP2 SWAP1 PUSH1 0x0 MSTORE PUSH1 0x20 PUSH1 0x0 KECCAK256 SWAP1 JUMPDEST DUP2 SLOAD DUP2 MSTORE SWAP1 PUSH1 0x1 ADD SWAP1 PUSH1 0x20 ADD DUP1 DUP4 GT PUSH2 0x7E5 JUMPI DUP3 SWAP1 SUB PUSH1 0x1F AND DUP3 ADD SWAP2 JUMPDEST POP POP POP POP POP DUP2 MSTORE PUSH1 0x20 ADD PUSH1 0x1 DUP3 ADD SLOAD DUP2 MSTORE POP POP SWAP1 POP SWAP1 JUMP JUMPDEST PUSH2 0x822 PUSH2 0xD1D JUMP JUMPDEST PUSH2 0x82A PUSH2 0xD9B JUMP JUMPDEST PUSH1 0x0 JUMPDEST DUP2 MLOAD DUP2 LT ISZERO PUSH2 0x987 JUMPI PUSH1 0x1 DUP1 PUSH1 0x0 DUP5 DUP5 DUP2 MLOAD DUP2 LT PUSH2 0x84E JUMPI PUSH2 0x84D PUSH2 0x211F JUMP JUMPDEST JUMPDEST PUSH1 0x20 MUL PUSH1 0x20 ADD ADD MLOAD PUSH20 0xFFFFFFFFFFFFFFFFFFFFFFFFFFFFFFFFFFFFFFFF AND PUSH20 0xFFFFFFFFFFFFFFFFFFFFFFFFFFFFFFFFFFFFFFFF AND DUP2 MSTORE PUSH1 0x20 ADD SWAP1 DUP2 MSTORE PUSH1 0x20 ADD PUSH1 0x0 KECCAK256 PUSH1 0x0 ADD PUSH1 0x0 PUSH2 0x100 EXP DUP2 SLOAD DUP2 PUSH1 0xFF MUL NOT AND SWAP1 DUP4 ISZERO ISZERO MUL OR SWAP1 SSTORE ISZERO PUSH2 0x974 JUMPI PUSH1 0x1 DUP1 PUSH1 0x0 DUP5 DUP5 DUP2 MLOAD DUP2 LT PUSH2 0x8C6 JUMPI PUSH2 0x8C5 PUSH2 0x211F JUMP JUMPDEST JUMPDEST PUSH1 0x20 MUL PUSH1 0x20 ADD ADD MLOAD PUSH20 0xFFFFFFFFFFFFFFFFFFFFFFFFFFFFFFFFFFFFFFFF AND PUSH20 0xFFFFFFFFFFFFFFFFFFFFFFFFFFFFFFFFFFFFFFFF AND DUP2 MSTORE PUSH1 0x20 ADD SWAP1 DUP2 MSTORE PUSH1 0x20 ADD PUSH1 0x0 KECCAK256 PUSH1 0x0 ADD PUSH1 0x0 PUSH2 0x100 EXP DUP2 SLOAD DUP2 PUSH1 0xFF MUL NOT AND SWAP1 DUP4 ISZERO ISZERO MUL OR SWAP1 SSTORE POP PUSH32 0xB6BE2187D059CC2A55FE29E0E503B566E1E0F8C8780096E185429350ACFFD3DD DUP3 DUP3 DUP2 MLOAD DUP2 LT PUSH2 0x956 JUMPI PUSH2 0x955 PUSH2 0x211F JUMP JUMPDEST JUMPDEST PUSH1 0x20 MUL PUSH1 0x20 ADD ADD MLOAD PUSH1 0x40 MLOAD PUSH2 0x96B SWAP2 SWAP1 PUSH2 0x1B7A JUMP JUMPDEST PUSH1 0x40 MLOAD DUP1 SWAP2 SUB SWAP1 LOG1 JUMPDEST DUP1 DUP1 PUSH2 0x97F SWAP1 PUSH2 0x214E JUMP JUMPDEST SWAP2 POP POP PUSH2 0x82D JUMP JUMPDEST POP POP JUMP JUMPDEST PUSH2 0x993 PUSH2 0xD1D JUMP JUMPDEST PUSH1 0x0 PUSH20 0xFFFFFFFFFFFFFFFFFFFFFFFFFFFFFFFFFFFFFFFF AND DUP2 PUSH20 0xFFFFFFFFFFFFFFFFFFFFFFFFFFFFFFFFFFFFFFFF AND SUB PUSH2 0xA02 JUMPI PUSH1 0x40 MLOAD PUSH32 0x8C379A000000000000000000000000000000000000000000000000000000000 DUP2 MSTORE PUSH1 0x4 ADD PUSH2 0x9F9 SWAP1 PUSH2 0x2208 JUMP JUMPDEST PUSH1 0x40 MLOAD DUP1 SWAP2 SUB SWAP1 REVERT JUMPDEST PUSH2 0xA0B DUP2 PUSH2 0xF19 JUMP JUMPDEST POP JUMP JUMPDEST PUSH2 0xA16 PUSH2 0x1054 JUMP JUMPDEST PUSH2 0xA1E PUSH2 0xC0D JUMP JUMPDEST PUSH1 0x1 PUSH1 0x0 CALLER PUSH20 0xFFFFFFFFFFFFFFFFFFFFFFFFFFFFFFFFFFFFFFFF AND PUSH20 0xFFFFFFFFFFFFFFFFFFFFFFFFFFFFFFFFFFFFFFFF AND DUP2 MSTORE PUSH1 0x20 ADD SWAP1 DUP2 MSTORE PUSH1 0x20 ADD PUSH1 0x0 KECCAK256 PUSH1 0x0 ADD PUSH1 0x1 SWAP1 SLOAD SWAP1 PUSH2 0x100 EXP SWAP1 DIV PUSH1 0xFF AND ISZERO PUSH2 0xAAE JUMPI PUSH1 0x40 MLOAD PUSH32 0x8C379A000000000000000000000000000000000000000000000000000000000 DUP2 MSTORE PUSH1 0x4 ADD PUSH2 0xAA5 SWAP1 PUSH2 0x229A JUMP JUMPDEST PUSH1 0x40 MLOAD DUP1 SWAP2 SUB SWAP1 REVERT JUMPDEST PUSH1 0x2 DUP1 SLOAD SWAP1 POP DUP2 LT PUSH2 0xAF5 JUMPI PUSH1 0x40 MLOAD PUSH32 0x8C379A000000000000000000000000000000000000000000000000000000000 DUP2 MSTORE PUSH1 0x4 ADD PUSH2 0xAEC SWAP1 PUSH2 0x232C JUMP JUMPDEST PUSH1 0x40 MLOAD DUP1 SWAP2 SUB SWAP1 REVERT JUMPDEST PUSH1 0x2 DUP2 DUP2 SLOAD DUP2 LT PUSH2 0xB09 JUMPI PUSH2 0xB08 PUSH2 0x211F JUMP JUMPDEST JUMPDEST SWAP1 PUSH1 0x0 MSTORE PUSH1 0x20 PUSH1 0x0 KECCAK256 SWAP1 PUSH1 0x2 MUL ADD PUSH1 0x1 ADD PUSH1 0x0 DUP2 SLOAD DUP1 SWAP3 SWAP2 SWAP1 PUSH2 0xB2B SWAP1 PUSH2 0x214E JUMP JUMPDEST SWAP2 SWAP1 POP SSTORE POP DUP1 PUSH1 0x1 PUSH1 0x0 CALLER PUSH20 0xFFFFFFFFFFFFFFFFFFFFFFFFFFFFFFFFFFFFFFFF AND PUSH20 0xFFFFFFFFFFFFFFFFFFFFFFFFFFFFFFFFFFFFFFFF AND DUP2 MSTORE PUSH1 0x20 ADD SWAP1 DUP2 MSTORE PUSH1 0x20 ADD PUSH1 0x0 KECCAK256 PUSH1 0x1 ADD DUP2 SWAP1 SSTORE POP PUSH1 0x1 DUP1 PUSH1 0x0 CALLER PUSH20 0xFFFFFFFFFFFFFFFFFFFFFFFFFFFFFFFFFFFFFFFF AND PUSH20 0xFFFFFFFFFFFFFFFFFFFFFFFFFFFFFFFFFFFFFFFF AND DUP2 MSTORE PUSH1 0x20 ADD SWAP1 DUP2 MSTORE PUSH1 0x20 ADD PUSH1 0x0 KECCAK256 PUSH1 0x0 ADD PUSH1 0x1 PUSH2 0x100 EXP DUP2 SLOAD DUP2 PUSH1 0xFF MUL NOT AND SWAP1 DUP4 ISZERO ISZERO MUL OR SWAP1 SSTORE POP PUSH32 0x4D99B957A2BC29A30EBD96A7BE8E68FE50A3C701DB28A91436490B7D53870CA4 CALLER DUP3 PUSH1 0x40 MLOAD PUSH2 0xC02 SWAP3 SWAP2 SWAP1 PUSH2 0x234C JUMP JUMPDEST PUSH1 0x40 MLOAD DUP1 SWAP2 SUB SWAP1 LOG1 POP JUMP JUMPDEST PUSH1 0x1 ISZERO ISZERO PUSH1 0x1 PUSH1 0x0 CALLER PUSH20 0xFFFFFFFFFFFFFFFFFFFFFFFFFFFFFFFFFFFFFFFF AND PUSH20 0xFFFFFFFFFFFFFFFFFFFFFFFFFFFFFFFFFFFFFFFF AND DUP2 MSTORE PUSH1 0x20 ADD SWAP1 DUP2 MSTORE PUSH1 0x20 ADD PUSH1 0x0 KECCAK256 PUSH1 0x0 ADD PUSH1 0x0 SWAP1 SLOAD SWAP1 PUSH2 0x100 EXP SWAP1 DIV PUSH1 0xFF AND ISZERO ISZERO EQ PUSH2 0xCA3 JUMPI PUSH1 0x40 MLOAD PUSH32 0x8C379A000000000000000000000000000000000000000000000000000000000 DUP2 MSTORE PUSH1 0x4 ADD PUSH2 0xC9A SWAP1 PUSH2 0x23E7 JUMP JUMPDEST PUSH1 0x40 MLOAD DUP1 SWAP2 SUB SWAP1 REVERT JUMPDEST JUMP JUMPDEST PUSH1 0x1 PUSH1 0x5 DUP2 GT ISZERO PUSH2 0xCB9 JUMPI PUSH2 0xCB8 PUSH2 0x1756 JUMP JUMPDEST JUMPDEST PUSH1 0x3 PUSH1 0x0 SWAP1 SLOAD SWAP1 PUSH2 0x100 EXP SWAP1 DIV PUSH1 0xFF AND PUSH1 0x5 DUP2 GT ISZERO PUSH2 0xCDB JUMPI PUSH2 0xCDA PUSH2 0x1756 JUMP JUMPDEST JUMPDEST EQ PUSH2 0xD1B JUMPI PUSH1 0x40 MLOAD PUSH32 0x8C379A000000000000000000000000000000000000000000000000000000000 DUP2 MSTORE PUSH1 0x4 ADD PUSH2 0xD12 SWAP1 PUSH2 0x2453 JUMP JUMPDEST PUSH1 0x40 MLOAD DUP1 SWAP2 SUB SWAP1 REVERT JUMPDEST JUMP JUMPDEST PUSH2 0xD25 PUSH2 0x10CC JUMP JUMPDEST PUSH20 0xFFFFFFFFFFFFFFFFFFFFFFFFFFFFFFFFFFFFFFFF AND PUSH2 0xD43 PUSH2 0x6CD JUMP JUMPDEST PUSH20 0xFFFFFFFFFFFFFFFFFFFFFFFFFFFFFFFFFFFFFFFF AND EQ PUSH2 0xD99 JUMPI PUSH1 0x40 MLOAD PUSH32 0x8C379A000000000000000000000000000000000000000000000000000000000 DUP2 MSTORE PUSH1 0x4 ADD PUSH2 0xD90 SWAP1 PUSH2 0x24BF JUMP JUMPDEST PUSH1 0x40 MLOAD DUP1 SWAP2 SUB SWAP1 REVERT JUMPDEST JUMP JUMPDEST PUSH1 0x0 PUSH1 0x5 DUP2 GT ISZERO PUSH2 0xDAF JUMPI PUSH2 0xDAE PUSH2 0x1756 JUMP JUMPDEST JUMPDEST PUSH1 0x3 PUSH1 0x0 SWAP1 SLOAD SWAP1 PUSH2 0x100 EXP SWAP1 DIV PUSH1 0xFF AND PUSH1 0x5 DUP2 GT ISZERO PUSH2 0xDD1 JUMPI PUSH2 0xDD0 PUSH2 0x1756 JUMP JUMPDEST JUMPDEST EQ PUSH2 0xE11 JUMPI PUSH1 0x40 MLOAD PUSH32 0x8C379A000000000000000000000000000000000000000000000000000000000 DUP2 MSTORE PUSH1 0x4 ADD PUSH2 0xE08 SWAP1 PUSH2 0x2551 JUMP JUMPDEST PUSH1 0x40 MLOAD DUP1 SWAP2 SUB SWAP1 REVERT JUMPDEST JUMP JUMPDEST PUSH1 0x4 PUSH1 0x5 DUP2 GT ISZERO PUSH2 0xE27 JUMPI PUSH2 0xE26 PUSH2 0x1756 JUMP JUMPDEST JUMPDEST PUSH1 0x3 PUSH1 0x0 SWAP1 SLOAD SWAP1 PUSH2 0x100 EXP SWAP1 DIV PUSH1 0xFF AND PUSH1 0x5 DUP2 GT ISZERO PUSH2 0xE49 JUMPI PUSH2 0xE48 PUSH2 0x1756 JUMP JUMPDEST JUMPDEST EQ PUSH2 0xE89 JUMPI PUSH1 0x40 MLOAD PUSH32 0x8C379A000000000000000000000000000000000000000000000000000000000 DUP2 MSTORE PUSH1 0x4 ADD PUSH2 0xE80 SWAP1 PUSH2 0x25BD JUMP JUMPDEST PUSH1 0x40 MLOAD DUP1 SWAP2 SUB SWAP1 REVERT JUMPDEST JUMP JUMPDEST PUSH2 0xE93 PUSH2 0xD1D JUMP JUMPDEST DUP1 PUSH2 0xE9D DUP2 PUSH2 0x10D4 JUMP JUMPDEST PUSH1 0x0 PUSH1 0x3 PUSH1 0x0 SWAP1 SLOAD SWAP1 PUSH2 0x100 EXP SWAP1 DIV PUSH1 0xFF AND SWAP1 POP DUP3 PUSH1 0x3 PUSH1 0x0 PUSH2 0x100 EXP DUP2 SLOAD DUP2 PUSH1 0xFF MUL NOT AND SWAP1 DUP4 PUSH1 0x5 DUP2 GT ISZERO PUSH2 0xED6 JUMPI PUSH2 0xED5 PUSH2 0x1756 JUMP JUMPDEST JUMPDEST MUL OR SWAP1 SSTORE POP PUSH32 0xA97A4EE45751E2ABF3E4FC8946939630B11B371EA8AE39CCDC3056E98F5CC3F DUP2 DUP5 PUSH1 0x40 MLOAD PUSH2 0xF0C SWAP3 SWAP2 SWAP1 PUSH2 0x25DD JUMP JUMPDEST PUSH1 0x40 MLOAD DUP1 SWAP2 SUB SWAP1 LOG1 POP POP POP JUMP JUMPDEST PUSH1 0x0 DUP1 PUSH1 0x0 SWAP1 SLOAD SWAP1 PUSH2 0x100 EXP SWAP1 DIV PUSH20 0xFFFFFFFFFFFFFFFFFFFFFFFFFFFFFFFFFFFFFFFF AND SWAP1 POP DUP2 PUSH1 0x0 DUP1 PUSH2 0x100 EXP DUP2 SLOAD DUP2 PUSH20 0xFFFFFFFFFFFFFFFFFFFFFFFFFFFFFFFFFFFFFFFF MUL NOT AND SWAP1 DUP4 PUSH20 0xFFFFFFFFFFFFFFFFFFFFFFFFFFFFFFFFFFFFFFFF AND MUL OR SWAP1 SSTORE POP DUP2 PUSH20 0xFFFFFFFFFFFFFFFFFFFFFFFFFFFFFFFFFFFFFFFF AND DUP2 PUSH20 0xFFFFFFFFFFFFFFFFFFFFFFFFFFFFFFFFFFFFFFFF AND PUSH32 0x8BE0079C531659141344CD1FD0A4F28419497F9722A3DAAFE3B4186F6B6457E0 PUSH1 0x40 MLOAD PUSH1 0x40 MLOAD DUP1 SWAP2 SUB SWAP1 LOG3 POP POP JUMP JUMPDEST PUSH1 0x5 DUP1 DUP2 GT ISZERO PUSH2 0xFF0 JUMPI PUSH2 0xFEF PUSH2 0x1756 JUMP JUMPDEST JUMPDEST PUSH1 0x3 PUSH1 0x0 SWAP1 SLOAD SWAP1 PUSH2 0x100 EXP SWAP1 DIV PUSH1 0xFF AND PUSH1 0x5 DUP2 GT ISZERO PUSH2 0x1012 JUMPI PUSH2 0x1011 PUSH2 0x1756 JUMP JUMPDEST JUMPDEST EQ PUSH2 0x1052 JUMPI PUSH1 0x40 MLOAD PUSH32 0x8C379A000000000000000000000000000000000000000000000000000000000 DUP2 MSTORE PUSH1 0x4 ADD PUSH2 0x1049 SWAP1 PUSH2 0x2652 JUMP JUMPDEST PUSH1 0x40 MLOAD DUP1 SWAP2 SUB SWAP1 REVERT JUMPDEST JUMP JUMPDEST PUSH1 0x3 PUSH1 0x5 DUP2 GT ISZERO PUSH2 0x1068 JUMPI PUSH2 0x1067 PUSH2 0x1756 JUMP JUMPDEST JUMPDEST PUSH1 0x3 PUSH1 0x0 SWAP1 SLOAD SWAP1 PUSH2 0x100 EXP SWAP1 DIV PUSH1 0xFF AND PUSH1 0x5 DUP2 GT ISZERO PUSH2 0x108A JUMPI PUSH2 0x1089 PUSH2 0x1756 JUMP JUMPDEST JUMPDEST EQ PUSH2 0x10CA JUMPI PUSH1 0x40 MLOAD PUSH32 0x8C379A000000000000000000000000000000000000000000000000000000000 DUP2 MSTORE PUSH1 0x4 ADD PUSH2 0x10C1 SWAP1 PUSH2 0x26BE JUMP JUMPDEST PUSH1 0x40 MLOAD DUP1 SWAP2 SUB SWAP1 REVERT JUMPDEST JUMP JUMPDEST PUSH1 0x0 CALLER SWAP1 POP SWAP1 JUMP JUMPDEST PUSH1 0x0 PUSH1 0x5 DUP2 GT ISZERO PUSH2 0x10E8 JUMPI PUSH2 0x10E7 PUSH2 0x1756 JUMP JUMPDEST JUMPDEST DUP2 PUSH1 0x5 DUP2 GT ISZERO PUSH2 0x10FB JUMPI PUSH2 0x10FA PUSH2 0x1756 JUMP JUMPDEST JUMPDEST SUB PUSH2 0x11B9 JUMPI PUSH1 0x0 PUSH1 0x5 DUP2 GT ISZERO PUSH2 0x1114 JUMPI PUSH2 0x1113 PUSH2 0x1756 JUMP JUMPDEST JUMPDEST PUSH1 0x3 PUSH1 0x0 SWAP1 SLOAD SWAP1 PUSH2 0x100 EXP SWAP1 DIV PUSH1 0xFF AND PUSH1 0x5 DUP2 GT ISZERO PUSH2 0x1136 JUMPI PUSH2 0x1135 PUSH2 0x1756 JUMP JUMPDEST JUMPDEST EQ DUP1 PUSH2 0x1175 JUMPI POP PUSH1 0x1 PUSH1 0x5 DUP2 GT ISZERO PUSH2 0x1151 JUMPI PUSH2 0x1150 PUSH2 0x1756 JUMP JUMPDEST JUMPDEST PUSH1 0x3 PUSH1 0x0 SWAP1 SLOAD SWAP1 PUSH2 0x100 EXP SWAP1 DIV PUSH1 0xFF AND PUSH1 0x5 DUP2 GT ISZERO PUSH2 0x1173 JUMPI PUSH2 0x1172 PUSH2 0x1756 JUMP JUMPDEST JUMPDEST EQ JUMPDEST PUSH2 0x11B4 JUMPI PUSH1 0x40 MLOAD PUSH32 0x8C379A000000000000000000000000000000000000000000000000000000000 DUP2 MSTORE PUSH1 0x4 ADD PUSH2 0x11AB SWAP1 PUSH2 0x2776 JUMP JUMPDEST PUSH1 0x40 MLOAD DUP1 SWAP2 SUB SWAP1 REVERT JUMPDEST PUSH2 0x15F3 JUMP JUMPDEST PUSH1 0x1 PUSH1 0x5 DUP2 GT ISZERO PUSH2 0x11CD JUMPI PUSH2 0x11CC PUSH2 0x1756 JUMP JUMPDEST JUMPDEST DUP2 PUSH1 0x5 DUP2 GT ISZERO PUSH2 0x11E0 JUMPI PUSH2 0x11DF PUSH2 0x1756 JUMP JUMPDEST JUMPDEST SUB PUSH2 0x129E JUMPI PUSH1 0x0 PUSH1 0x5 DUP2 GT ISZERO PUSH2 0x11F9 JUMPI PUSH2 0x11F8 PUSH2 0x1756 JUMP JUMPDEST JUMPDEST PUSH1 0x3 PUSH1 0x0 SWAP1 SLOAD SWAP1 PUSH2 0x100 EXP SWAP1 DIV PUSH1 0xFF AND PUSH1 0x5 DUP2 GT ISZERO PUSH2 0x121B JUMPI PUSH2 0x121A PUSH2 0x1756 JUMP JUMPDEST JUMPDEST EQ DUP1 PUSH2 0x125A JUMPI POP PUSH1 0x2 PUSH1 0x5 DUP2 GT ISZERO PUSH2 0x1236 JUMPI PUSH2 0x1235 PUSH2 0x1756 JUMP JUMPDEST JUMPDEST PUSH1 0x3 PUSH1 0x0 SWAP1 SLOAD SWAP1 PUSH2 0x100 EXP SWAP1 DIV PUSH1 0xFF AND PUSH1 0x5 DUP2 GT ISZERO PUSH2 0x1258 JUMPI PUSH2 0x1257 PUSH2 0x1756 JUMP JUMPDEST JUMPDEST EQ JUMPDEST PUSH2 0x1299 JUMPI PUSH1 0x40 MLOAD PUSH32 0x8C379A000000000000000000000000000000000000000000000000000000000 DUP2 MSTORE PUSH1 0x4 ADD PUSH2 0x1290 SWAP1 PUSH2 0x2776 JUMP JUMPDEST PUSH1 0x40 MLOAD DUP1 SWAP2 SUB SWAP1 REVERT JUMPDEST PUSH2 0x15F2 JUMP JUMPDEST PUSH1 0x2 PUSH1 0x5 DUP2 GT ISZERO PUSH2 0x12B2 JUMPI PUSH2 0x12B1 PUSH2 0x1756 JUMP JUMPDEST JUMPDEST DUP2 PUSH1 0x5 DUP2 GT ISZERO PUSH2 0x12C5 JUMPI PUSH2 0x12C4 PUSH2 0x1756 JUMP JUMPDEST JUMPDEST SUB PUSH2 0x1383 JUMPI PUSH1 0x1 PUSH1 0x5 DUP2 GT ISZERO PUSH2 0x12DE JUMPI PUSH2 0x12DD PUSH2 0x1756 JUMP JUMPDEST JUMPDEST PUSH1 0x3 PUSH1 0x0 SWAP1 SLOAD SWAP1 PUSH2 0x100 EXP SWAP1 DIV PUSH1 0xFF AND PUSH1 0x5 DUP2 GT ISZERO PUSH2 0x1300 JUMPI PUSH2 0x12FF PUSH2 0x1756 JUMP JUMPDEST JUMPDEST EQ DUP1 PUSH2 0x133F JUMPI POP PUSH1 0x3 PUSH1 0x5 DUP2 GT ISZERO PUSH2 0x131B JUMPI PUSH2 0x131A PUSH2 0x1756 JUMP JUMPDEST JUMPDEST PUSH1 0x3 PUSH1 0x0 SWAP1 SLOAD SWAP1 PUSH2 0x100 EXP SWAP1 DIV PUSH1 0xFF AND PUSH1 0x5 DUP2 GT ISZERO PUSH2 0x133D JUMPI PUSH2 0x133C PUSH2 0x1756 JUMP JUMPDEST JUMPDEST EQ JUMPDEST PUSH2 0x137E JUMPI PUSH1 0x40 MLOAD PUSH32 0x8C379A000000000000000000000000000000000000000000000000000000000 DUP2 MSTORE PUSH1 0x4 ADD PUSH2 0x1375 SWAP1 PUSH2 0x2776 JUMP JUMPDEST PUSH1 0x40 MLOAD DUP1 SWAP2 SUB SWAP1 REVERT JUMPDEST PUSH2 0x15F1 JUMP JUMPDEST PUSH1 0x3 PUSH1 0x5 DUP2 GT ISZERO PUSH2 0x1397 JUMPI PUSH2 0x1396 PUSH2 0x1756 JUMP JUMPDEST JUMPDEST DUP2 PUSH1 0x5 DUP2 GT ISZERO PUSH2 0x13AA JUMPI PUSH2 0x13A9 PUSH2 0x1756 JUMP JUMPDEST JUMPDEST SUB PUSH2 0x1468 JUMPI PUSH1 0x2 PUSH1 0x5 DUP2 GT ISZERO PUSH2 0x13C3 JUMPI PUSH2 0x13C2 PUSH2 0x1756 JUMP JUMPDEST JUMPDEST PUSH1 0x3 PUSH1 0x0 SWAP1 SLOAD SWAP1 PUSH2 0x100 EXP SWAP1 DIV PUSH1 0xFF AND PUSH1 0x5 DUP2 GT ISZERO PUSH2 0x13E5 JUMPI PUSH2 0x13E4 PUSH2 0x1756 JUMP JUMPDEST JUMPDEST EQ DUP1 PUSH2 0x1424 JUMPI POP PUSH1 0x4 PUSH1 0x5 DUP2 GT ISZERO PUSH2 0x1400 JUMPI PUSH2 0x13FF PUSH2 0x1756 JUMP JUMPDEST JUMPDEST PUSH1 0x3 PUSH1 0x0 SWAP1 SLOAD SWAP1 PUSH2 0x100 EXP SWAP1 DIV PUSH1 0xFF AND PUSH1 0x5 DUP2 GT ISZERO PUSH2 0x1422 JUMPI PUSH2 0x1421 PUSH2 0x1756 JUMP JUMPDEST JUMPDEST EQ JUMPDEST PUSH2 0x1463 JUMPI PUSH1 0x40 MLOAD PUSH32 0x8C379A000000000000000000000000000000000000000000000000000000000 DUP2 MSTORE PUSH1 0x4 ADD PUSH2 0x145A SWAP1 PUSH2 0x2776 JUMP JUMPDEST PUSH1 0x40 MLOAD DUP1 SWAP2 SUB SWAP1 REVERT JUMPDEST PUSH2 0x15F0 JUMP JUMPDEST PUSH1 0x4 PUSH1 0x5 DUP2 GT ISZERO PUSH2 0x147C JUMPI PUSH2 0x147B PUSH2 0x1756 JUMP JUMPDEST JUMPDEST DUP2 PUSH1 0x5 DUP2 GT ISZERO PUSH2 0x148F JUMPI PUSH2 0x148E PUSH2 0x1756 JUMP JUMPDEST JUMPDEST SUB PUSH2 0x154C JUMPI PUSH1 0x3 PUSH1 0x5 DUP2 GT ISZERO PUSH2 0x14A8 JUMPI PUSH2 0x14A7 PUSH2 0x1756 JUMP JUMPDEST JUMPDEST PUSH1 0x3 PUSH1 0x0 SWAP1 SLOAD SWAP1 PUSH2 0x100 EXP SWAP1 DIV PUSH1 0xFF AND PUSH1 0x5 DUP2 GT ISZERO PUSH2 0x14CA JUMPI PUSH2 0x14C9 PUSH2 0x1756 JUMP JUMPDEST JUMPDEST EQ DUP1 PUSH2 0x1508 JUMPI POP PUSH1 0x5 DUP1 DUP2 GT ISZERO PUSH2 0x14E4 JUMPI PUSH2 0x14E3 PUSH2 0x1756 JUMP JUMPDEST JUMPDEST PUSH1 0x3 PUSH1 0x0 SWAP1 SLOAD SWAP1 PUSH2 0x100 EXP SWAP1 DIV PUSH1 0xFF AND PUSH1 0x5 DUP2 GT ISZERO PUSH2 0x1506 JUMPI PUSH2 0x1505 PUSH2 0x1756 JUMP JUMPDEST JUMPDEST EQ JUMPDEST PUSH2 0x1547 JUMPI PUSH1 0x40 MLOAD PUSH32 0x8C379A000000000000000000000000000000000000000000000000000000000 DUP2 MSTORE PUSH1 0x4 ADD PUSH2 0x153E SWAP1 PUSH2 0x2776 JUMP JUMPDEST PUSH1 0x40 MLOAD DUP1 SWAP2 SUB SWAP1 REVERT JUMPDEST PUSH2 0x15EF JUMP JUMPDEST PUSH1 0x5 DUP1 DUP2 GT ISZERO PUSH2 0x155F JUMPI PUSH2 0x155E PUSH2 0x1756 JUMP JUMPDEST JUMPDEST DUP2 PUSH1 0x5 DUP2 GT ISZERO PUSH2 0x1572 JUMPI PUSH2 0x1571 PUSH2 0x1756 JUMP JUMPDEST JUMPDEST SUB PUSH2 0x15EE JUMPI PUSH1 0x4 PUSH1 0x5 DUP2 GT ISZERO PUSH2 0x158B JUMPI PUSH2 0x158A PUSH2 0x1756 JUMP JUMPDEST JUMPDEST PUSH1 0x3 PUSH1 0x0 SWAP1 SLOAD SWAP1 PUSH2 0x100 EXP SWAP1 DIV PUSH1 0xFF AND PUSH1 0x5 DUP2 GT ISZERO PUSH2 0x15AD JUMPI PUSH2 0x15AC PUSH2 0x1756 JUMP JUMPDEST JUMPDEST EQ PUSH2 0x15ED JUMPI PUSH1 0x40 MLOAD PUSH32 0x8C379A000000000000000000000000000000000000000000000000000000000 DUP2 MSTORE PUSH1 0x4 ADD PUSH2 0x15E4 SWAP1 PUSH2 0x2776 JUMP JUMPDEST PUSH1 0x40 MLOAD DUP1 SWAP2 SUB SWAP1 REVERT JUMPDEST JUMPDEST JUMPDEST JUMPDEST JUMPDEST JUMPDEST JUMPDEST POP JUMP JUMPDEST PUSH1 0x40 MLOAD DUP1 PUSH1 0x40 ADD PUSH1 0x40 MSTORE DUP1 PUSH1 0x60 DUP2 MSTORE PUSH1 0x20 ADD PUSH1 0x0 DUP2 MSTORE POP SWAP1 JUMP JUMPDEST PUSH1 0x0 PUSH1 0x40 MLOAD SWAP1 POP SWAP1 JUMP JUMPDEST PUSH1 0x0 DUP1 REVERT JUMPDEST PUSH1 0x0 DUP1 REVERT JUMPDEST PUSH1 0x0 DUP2 SWAP1 POP SWAP2 SWAP1 POP JUMP JUMPDEST PUSH2 0x1637 DUP2 PUSH2 0x1624 JUMP JUMPDEST DUP2 EQ PUSH2 0x1642 JUMPI PUSH1 0x0 DUP1 REVERT JUMPDEST POP JUMP JUMPDEST PUSH1 0x0 DUP2 CALLDATALOAD SWAP1 POP PUSH2 0x1654 DUP2 PUSH2 0x162E JUMP JUMPDEST SWAP3 SWAP2 POP POP JUMP JUMPDEST PUSH1 0x0 PUSH1 0x20 DUP3 DUP5 SUB SLT ISZERO PUSH2 0x1670 JUMPI PUSH2 0x166F PUSH2 0x161A JUMP JUMPDEST JUMPDEST PUSH1 0x0 PUSH2 0x167E DUP5 DUP3 DUP6 ADD PUSH2 0x1645 JUMP JUMPDEST SWAP2 POP POP SWAP3 SWAP2 POP POP JUMP JUMPDEST PUSH1 0x0 DUP2 MLOAD SWAP1 POP SWAP2 SWAP1 POP JUMP JUMPDEST PUSH1 0x0 DUP3 DUP3 MSTORE PUSH1 0x20 DUP3 ADD SWAP1 POP SWAP3 SWAP2 POP POP JUMP JUMPDEST PUSH1 0x0 JUMPDEST DUP4 DUP2 LT ISZERO PUSH2 0x16C1 JUMPI DUP1 DUP3 ADD MLOAD DUP2 DUP5 ADD MSTORE PUSH1 0x20 DUP2 ADD SWAP1 POP PUSH2 0x16A6 JUMP JUMPDEST PUSH1 0x0 DUP5 DUP5 ADD MSTORE POP POP POP POP JUMP JUMPDEST PUSH1 0x0 PUSH1 0x1F NOT PUSH1 0x1F DUP4 ADD AND SWAP1 POP SWAP2 SWAP1 POP JUMP JUMPDEST PUSH1 0x0 PUSH2 0x16E9 DUP3 PUSH2 0x1687 JUMP JUMPDEST PUSH2 0x16F3 DUP2 DUP6 PUSH2 0x1692 JUMP JUMPDEST SWAP4 POP PUSH2 0x1703 DUP2 DUP6 PUSH1 0x20 DUP7 ADD PUSH2 0x16A3 JUMP JUMPDEST PUSH2 0x170C DUP2 PUSH2 0x16CD JUMP JUMPDEST DUP5 ADD SWAP2 POP POP SWAP3 SWAP2 POP POP JUMP JUMPDEST PUSH2 0x1720 DUP2 PUSH2 0x1624 JUMP JUMPDEST DUP3 MSTORE POP POP JUMP JUMPDEST PUSH1 0x0 PUSH1 0x40 DUP3 ADD SWAP1 POP DUP2 DUP2 SUB PUSH1 0x0 DUP4 ADD MSTORE PUSH2 0x1740 DUP2 DUP6 PUSH2 0x16DE JUMP JUMPDEST SWAP1 POP PUSH2 0x174F PUSH1 0x20 DUP4 ADD DUP5 PUSH2 0x1717 JUMP JUMPDEST SWAP4 SWAP3 POP POP POP JUMP JUMPDEST PUSH32 0x4E487B7100000000000000000000000000000000000000000000000000000000 PUSH1 0x0 MSTORE PUSH1 0x21 PUSH1 0x4 MSTORE PUSH1 0x24 PUSH1 0x0 REVERT JUMPDEST PUSH1 0x6 DUP2 LT PUSH2 0x1796 JUMPI PUSH2 0x1795 PUSH2 0x1756 JUMP JUMPDEST JUMPDEST POP JUMP JUMPDEST PUSH1 0x0 DUP2 SWAP1 POP PUSH2 0x17A7 DUP3 PUSH2 0x1785 JUMP JUMPDEST SWAP2 SWAP1 POP JUMP JUMPDEST PUSH1 0x0 PUSH2 0x17B7 DUP3 PUSH2 0x1799 JUMP JUMPDEST SWAP1 POP SWAP2 SWAP1 POP JUMP JUMPDEST PUSH2 0x17C7 DUP2 PUSH2 0x17AC JUMP JUMPDEST DUP3 MSTORE POP POP JUMP JUMPDEST PUSH1 0x0 PUSH1 0x20 DUP3 ADD SWAP1 POP PUSH2 0x17E2 PUSH1 0x0 DUP4 ADD DUP5 PUSH2 0x17BE JUMP JUMPDEST SWAP3 SWAP2 POP POP JUMP JUMPDEST PUSH1 0x0 DUP1 REVERT JUMPDEST PUSH1 0x0 DUP1 REVERT JUMPDEST PUSH32 0x4E487B7100000000000000000000000000000000000000000000000000000000 PUSH1 0x0 MSTORE PUSH1 0x41 PUSH1 0x4 MSTORE PUSH1 0x24 PUSH1 0x0 REVERT JUMPDEST PUSH2 0x182A DUP3 PUSH2 0x16CD JUMP JUMPDEST DUP2 ADD DUP2 DUP2 LT PUSH8 0xFFFFFFFFFFFFFFFF DUP3 GT OR ISZERO PUSH2 0x1849 JUMPI PUSH2 0x1848 PUSH2 0x17F2 JUMP JUMPDEST JUMPDEST DUP1 PUSH1 0x40 MSTORE POP POP POP JUMP JUMPDEST PUSH1 0x0 PUSH2 0x185C PUSH2 0x1610 JUMP JUMPDEST SWAP1 POP PUSH2 0x1868 DUP3 DUP3 PUSH2 0x1821 JUMP JUMPDEST SWAP2 SWAP1 POP JUMP JUMPDEST PUSH1 0x0 PUSH8 0xFFFFFFFFFFFFFFFF DUP3 GT ISZERO PUSH2 0x1888 JUMPI PUSH2 0x1887 PUSH2 0x17F2 JUMP JUMPDEST JUMPDEST PUSH2 0x1891 DUP3 PUSH2 0x16CD JUMP JUMPDEST SWAP1 POP PUSH1 0x20 DUP2 ADD SWAP1 POP SWAP2 SWAP1 POP JUMP JUMPDEST DUP3 DUP2 DUP4 CALLDATACOPY PUSH1 0x0 DUP4 DUP4 ADD MSTORE POP POP POP JUMP JUMPDEST PUSH1 0x0 PUSH2 0x18C0 PUSH2 0x18BB DUP5 PUSH2 0x186D JUMP JUMPDEST PUSH2 0x1852 JUMP JUMPDEST SWAP1 POP DUP3 DUP2 MSTORE PUSH1 0x20 DUP2 ADD DUP5 DUP5 DUP5 ADD GT ISZERO PUSH2 0x18DC JUMPI PUSH2 0x18DB PUSH2 0x17ED JUMP JUMPDEST JUMPDEST PUSH2 0x18E7 DUP5 DUP3 DUP6 PUSH2 0x189E JUMP JUMPDEST POP SWAP4 SWAP3 POP POP POP JUMP JUMPDEST PUSH1 0x0 DUP3 PUSH1 0x1F DUP4 ADD SLT PUSH2 0x1904 JUMPI PUSH2 0x1903 PUSH2 0x17E8 JUMP JUMPDEST JUMPDEST DUP2 CALLDATALOAD PUSH2 0x1914 DUP5 DUP3 PUSH1 0x20 DUP7 ADD PUSH2 0x18AD JUMP JUMPDEST SWAP2 POP POP SWAP3 SWAP2 POP POP JUMP JUMPDEST PUSH1 0x0 PUSH1 0x20 DUP3 DUP5 SUB SLT ISZERO PUSH2 0x1933 JUMPI PUSH2 0x1932 PUSH2 0x161A JUMP JUMPDEST JUMPDEST PUSH1 0x0 DUP3 ADD CALLDATALOAD PUSH8 0xFFFFFFFFFFFFFFFF DUP2 GT ISZERO PUSH2 0x1951 JUMPI PUSH2 0x1950 PUSH2 0x161F JUMP JUMPDEST JUMPDEST PUSH2 0x195D DUP5 DUP3 DUP6 ADD PUSH2 0x18EF JUMP JUMPDEST SWAP2 POP POP SWAP3 SWAP2 POP POP JUMP JUMPDEST PUSH1 0x0 PUSH20 0xFFFFFFFFFFFFFFFFFFFFFFFFFFFFFFFFFFFFFFFF DUP3 AND SWAP1 POP SWAP2 SWAP1 POP JUMP JUMPDEST PUSH1 0x0 PUSH2 0x1991 DUP3 PUSH2 0x1966 JUMP JUMPDEST SWAP1 POP SWAP2 SWAP1 POP JUMP JUMPDEST PUSH2 0x19A1 DUP2 PUSH2 0x1986 JUMP JUMPDEST DUP2 EQ PUSH2 0x19AC JUMPI PUSH1 0x0 DUP1 REVERT JUMPDEST POP JUMP JUMPDEST PUSH1 0x0 DUP2 CALLDATALOAD SWAP1 POP PUSH2 0x19BE DUP2 PUSH2 0x1998 JUMP JUMPDEST SWAP3 SWAP2 POP POP JUMP JUMPDEST PUSH1 0x0 PUSH1 0x20 DUP3 DUP5 SUB SLT ISZERO PUSH2 0x19DA JUMPI PUSH2 0x19D9 PUSH2 0x161A JUMP JUMPDEST JUMPDEST PUSH1 0x0 PUSH2 0x19E8 DUP5 DUP3 DUP6 ADD PUSH2 0x19AF JUMP JUMPDEST SWAP2 POP POP SWAP3 SWAP2 POP POP JUMP JUMPDEST PUSH1 0x0 DUP2 MLOAD SWAP1 POP SWAP2 SWAP1 POP JUMP JUMPDEST PUSH1 0x0 DUP3 DUP3 MSTORE PUSH1 0x20 DUP3 ADD SWAP1 POP SWAP3 SWAP2 POP POP JUMP JUMPDEST PUSH1 0x0 DUP2 SWAP1 POP PUSH1 0x20 DUP3 ADD SWAP1 POP SWAP2 SWAP1 POP JUMP JUMPDEST PUSH1 0x0 DUP3 DUP3 MSTORE PUSH1 0x20 DUP3 ADD SWAP1 POP SWAP3 SWAP2 POP POP JUMP JUMPDEST PUSH1 0x0 PUSH2 0x1A39 DUP3 PUSH2 0x1687 JUMP JUMPDEST PUSH2 0x1A43 DUP2 DUP6 PUSH2 0x1A1D JUMP JUMPDEST SWAP4 POP PUSH2 0x1A53 DUP2 DUP6 PUSH1 0x20 DUP7 ADD PUSH2 0x16A3 JUMP JUMPDEST PUSH2 0x1A5C DUP2 PUSH2 0x16CD JUMP JUMPDEST DUP5 ADD SWAP2 POP POP SWAP3 SWAP2 POP POP JUMP JUMPDEST PUSH2 0x1A70 DUP2 PUSH2 0x1624 JUMP JUMPDEST DUP3 MSTORE POP POP JUMP JUMPDEST PUSH1 0x0 PUSH1 0x40 DUP4 ADD PUSH1 0x0 DUP4 ADD MLOAD DUP5 DUP3 SUB PUSH1 0x0 DUP7 ADD MSTORE PUSH2 0x1A93 DUP3 DUP3 PUSH2 0x1A2E JUMP JUMPDEST SWAP2 POP POP PUSH1 0x20 DUP4 ADD MLOAD PUSH2 0x1AA8 PUSH1 0x20 DUP7 ADD DUP3 PUSH2 0x1A67 JUMP JUMPDEST POP DUP1 SWAP2 POP POP SWAP3 SWAP2 POP POP JUMP JUMPDEST PUSH1 0x0 PUSH2 0x1ABF DUP4 DUP4 PUSH2 0x1A76 JUMP JUMPDEST SWAP1 POP SWAP3 SWAP2 POP POP JUMP JUMPDEST PUSH1 0x0 PUSH1 0x20 DUP3 ADD SWAP1 POP SWAP2 SWAP1 POP JUMP JUMPDEST PUSH1 0x0 PUSH2 0x1ADF DUP3 PUSH2 0x19F1 JUMP JUMPDEST PUSH2 0x1AE9 DUP2 DUP6 PUSH2 0x19FC JUMP JUMPDEST SWAP4 POP DUP4 PUSH1 0x20 DUP3 MUL DUP6 ADD PUSH2 0x1AFB DUP6 PUSH2 0x1A0D JUMP JUMPDEST DUP1 PUSH1 0x0 JUMPDEST DUP6 DUP2 LT ISZERO PUSH2 0x1B37 JUMPI DUP5 DUP5 SUB DUP10 MSTORE DUP2 MLOAD PUSH2 0x1B18 DUP6 DUP3 PUSH2 0x1AB3 JUMP JUMPDEST SWAP5 POP PUSH2 0x1B23 DUP4 PUSH2 0x1AC7 JUMP JUMPDEST SWAP3 POP PUSH1 0x20 DUP11 ADD SWAP10 POP POP PUSH1 0x1 DUP2 ADD SWAP1 POP PUSH2 0x1AFF JUMP JUMPDEST POP DUP3 SWAP8 POP DUP8 SWAP6 POP POP POP POP POP POP SWAP3 SWAP2 POP POP JUMP JUMPDEST PUSH1 0x0 PUSH1 0x20 DUP3 ADD SWAP1 POP DUP2 DUP2 SUB PUSH1 0x0 DUP4 ADD MSTORE PUSH2 0x1B63 DUP2 DUP5 PUSH2 0x1AD4 JUMP JUMPDEST SWAP1 POP SWAP3 SWAP2 POP POP JUMP JUMPDEST PUSH2 0x1B74 DUP2 PUSH2 0x1986 JUMP JUMPDEST DUP3 MSTORE POP POP JUMP JUMPDEST PUSH1 0x0 PUSH1 0x20 DUP3 ADD SWAP1 POP PUSH2 0x1B8F PUSH1 0x0 DUP4 ADD DUP5 PUSH2 0x1B6B JUMP JUMPDEST SWAP3 SWAP2 POP POP JUMP JUMPDEST PUSH1 0x0 DUP2 ISZERO ISZERO SWAP1 POP SWAP2 SWAP1 POP JUMP JUMPDEST PUSH2 0x1BAA DUP2 PUSH2 0x1B95 JUMP JUMPDEST DUP3 MSTORE POP POP JUMP JUMPDEST PUSH1 0x0 PUSH1 0x60 DUP3 ADD SWAP1 POP PUSH2 0x1BC5 PUSH1 0x0 DUP4 ADD DUP7 PUSH2 0x1BA1 JUMP JUMPDEST PUSH2 0x1BD2 PUSH1 0x20 DUP4 ADD DUP6 PUSH2 0x1BA1 JUMP JUMPDEST PUSH2 0x1BDF PUSH1 0x40 DUP4 ADD DUP5 PUSH2 0x1717 JUMP JUMPDEST SWAP5 SWAP4 POP POP POP POP JUMP JUMPDEST PUSH1 0x0 PUSH1 0x40 DUP4 ADD PUSH1 0x0 DUP4 ADD MLOAD DUP5 DUP3 SUB PUSH1 0x0 DUP7 ADD MSTORE PUSH2 0x1C04 DUP3 DUP3 PUSH2 0x1A2E JUMP JUMPDEST SWAP2 POP POP PUSH1 0x20 DUP4 ADD MLOAD PUSH2 0x1C19 PUSH1 0x20 DUP7 ADD DUP3 PUSH2 0x1A67 JUMP JUMPDEST POP DUP1 SWAP2 POP POP SWAP3 SWAP2 POP POP JUMP JUMPDEST PUSH1 0x0 PUSH1 0x20 DUP3 ADD SWAP1 POP DUP2 DUP2 SUB PUSH1 0x0 DUP4 ADD MSTORE PUSH2 0x1C3E DUP2 DUP5 PUSH2 0x1BE7 JUMP JUMPDEST SWAP1 POP SWAP3 SWAP2 POP POP JUMP JUMPDEST PUSH1 0x0 PUSH8 0xFFFFFFFFFFFFFFFF DUP3 GT ISZERO PUSH2 0x1C61 JUMPI PUSH2 0x1C60 PUSH2 0x17F2 JUMP JUMPDEST JUMPDEST PUSH1 0x20 DUP3 MUL SWAP1 POP PUSH1 0x20 DUP2 ADD SWAP1 POP SWAP2 SWAP1 POP JUMP JUMPDEST PUSH1 0x0 DUP1 REVERT JUMPDEST PUSH1 0x0 PUSH2 0x1C8A PUSH2 0x1C85 DUP5 PUSH2 0x1C46 JUMP JUMPDEST PUSH2 0x1852 JUMP JUMPDEST SWAP1 POP DUP1 DUP4 DUP3 MSTORE PUSH1 0x20 DUP3 ADD SWAP1 POP PUSH1 0x20 DUP5 MUL DUP4 ADD DUP6 DUP2 GT ISZERO PUSH2 0x1CAD JUMPI PUSH2 0x1CAC PUSH2 0x1C72 JUMP JUMPDEST JUMPDEST DUP4 JUMPDEST DUP2 DUP2 LT ISZERO PUSH2 0x1CD6 JUMPI DUP1 PUSH2 0x1CC2 DUP9 DUP3 PUSH2 0x19AF JUMP JUMPDEST DUP5 MSTORE PUSH1 0x20 DUP5 ADD SWAP4 POP POP PUSH1 0x20 DUP2 ADD SWAP1 POP PUSH2 0x1CAF JUMP JUMPDEST POP POP POP SWAP4 SWAP3 POP POP POP JUMP JUMPDEST PUSH1 0x0 DUP3 PUSH1 0x1F DUP4 ADD SLT PUSH2 0x1CF5 JUMPI PUSH2 0x1CF4 PUSH2 0x17E8 JUMP JUMPDEST JUMPDEST DUP2 CALLDATALOAD PUSH2 0x1D05 DUP5 DUP3 PUSH1 0x20 DUP7 ADD PUSH2 0x1C77 JUMP JUMPDEST SWAP2 POP POP SWAP3 SWAP2 POP POP JUMP JUMPDEST PUSH1 0x0 PUSH1 0x20 DUP3 DUP5 SUB SLT ISZERO PUSH2 0x1D24 JUMPI PUSH2 0x1D23 PUSH2 0x161A JUMP JUMPDEST JUMPDEST PUSH1 0x0 DUP3 ADD CALLDATALOAD PUSH8 0xFFFFFFFFFFFFFFFF DUP2 GT ISZERO PUSH2 0x1D42 JUMPI PUSH2 0x1D41 PUSH2 0x161F JUMP JUMPDEST JUMPDEST PUSH2 0x1D4E DUP5 DUP3 DUP6 ADD PUSH2 0x1CE0 JUMP JUMPDEST SWAP2 POP POP SWAP3 SWAP2 POP POP JUMP JUMPDEST PUSH32 0x4E487B7100000000000000000000000000000000000000000000000000000000 PUSH1 0x0 MSTORE PUSH1 0x22 PUSH1 0x4 MSTORE PUSH1 0x24 PUSH1 0x0 REVERT JUMPDEST PUSH1 0x0 PUSH1 0x2 DUP3 DIV SWAP1 POP PUSH1 0x1 DUP3 AND DUP1 PUSH2 0x1D9E JUMPI PUSH1 0x7F DUP3 AND SWAP2 POP JUMPDEST PUSH1 0x20 DUP3 LT DUP2 SUB PUSH2 0x1DB1 JUMPI PUSH2 0x1DB0 PUSH2 0x1D57 JUMP JUMPDEST JUMPDEST POP SWAP2 SWAP1 POP JUMP JUMPDEST PUSH1 0x0 DUP2 SWAP1 POP DUP2 PUSH1 0x0 MSTORE PUSH1 0x20 PUSH1 0x0 KECCAK256 SWAP1 POP SWAP2 SWAP1 POP JUMP JUMPDEST PUSH1 0x0 PUSH1 0x20 PUSH1 0x1F DUP4 ADD DIV SWAP1 POP SWAP2 SWAP1 POP JUMP JUMPDEST PUSH1 0x0 DUP3 DUP3 SHL SWAP1 POP SWAP3 SWAP2 POP POP JUMP JUMPDEST PUSH1 0x0 PUSH1 0x8 DUP4 MUL PUSH2 0x1E19 PUSH32 0xFFFFFFFFFFFFFFFFFFFFFFFFFFFFFFFFFFFFFFFFFFFFFFFFFFFFFFFFFFFFFFFF DUP3 PUSH2 0x1DDC JUMP JUMPDEST PUSH2 0x1E23 DUP7 DUP4 PUSH2 0x1DDC JUMP JUMPDEST SWAP6 POP DUP1 NOT DUP5 AND SWAP4 POP DUP1 DUP7 AND DUP5 OR SWAP3 POP POP POP SWAP4 SWAP3 POP POP POP JUMP JUMPDEST PUSH1 0x0 DUP2 SWAP1 POP SWAP2 SWAP1 POP JUMP JUMPDEST PUSH1 0x0 PUSH2 0x1E60 PUSH2 0x1E5B PUSH2 0x1E56 DUP5 PUSH2 0x1624 JUMP JUMPDEST PUSH2 0x1E3B JUMP JUMPDEST PUSH2 0x1624 JUMP JUMPDEST SWAP1 POP SWAP2 SWAP1 POP JUMP JUMPDEST PUSH1 0x0 DUP2 SWAP1 POP SWAP2 SWAP1 POP JUMP JUMPDEST PUSH2 0x1E7A DUP4 PUSH2 0x1E45 JUMP JUMPDEST PUSH2 0x1E8E PUSH2 0x1E86 DUP3 PUSH2 0x1E67 JUMP JUMPDEST DUP5 DUP5 SLOAD PUSH2 0x1DE9 JUMP JUMPDEST DUP3 SSTORE POP POP POP POP JUMP JUMPDEST PUSH1 0x0 SWAP1 JUMP JUMPDEST PUSH2 0x1EA3 PUSH2 0x1E96 JUMP JUMPDEST PUSH2 0x1EAE DUP2 DUP5 DUP5 PUSH2 0x1E71 JUMP JUMPDEST POP POP POP JUMP JUMPDEST JUMPDEST DUP2 DUP2 LT ISZERO PUSH2 0x1ED2 JUMPI PUSH2 0x1EC7 PUSH1 0x0 DUP3 PUSH2 0x1E9B JUMP JUMPDEST PUSH1 0x1 DUP2 ADD SWAP1 POP PUSH2 0x1EB4 JUMP JUMPDEST POP POP JUMP JUMPDEST PUSH1 0x1F DUP3 GT ISZERO PUSH2 0x1F17 JUMPI PUSH2 0x1EE8 DUP2 PUSH2 0x1DB7 JUMP JUMPDEST PUSH2 0x1EF1 DUP5 PUSH2 0x1DCC JUMP JUMPDEST DUP2 ADD PUSH1 0x20 DUP6 LT ISZERO PUSH2 0x1F00 JUMPI DUP2 SWAP1 POP JUMPDEST PUSH2 0x1F14 PUSH2 0x1F0C DUP6 PUSH2 0x1DCC JUMP JUMPDEST DUP4 ADD DUP3 PUSH2 0x1EB3 JUMP JUMPDEST POP POP JUMPDEST POP POP POP JUMP JUMPDEST PUSH1 0x0 DUP3 DUP3 SHR SWAP1 POP SWAP3 SWAP2 POP POP JUMP JUMPDEST PUSH1 0x0 PUSH2 0x1F3A PUSH1 0x0 NOT DUP5 PUSH1 0x8 MUL PUSH2 0x1F1C JUMP JUMPDEST NOT DUP1 DUP4 AND SWAP2 POP POP SWAP3 SWAP2 POP POP JUMP JUMPDEST PUSH1 0x0 PUSH2 0x1F53 DUP4 DUP4 PUSH2 0x1F29 JUMP JUMPDEST SWAP2 POP DUP3 PUSH1 0x2 MUL DUP3 OR SWAP1 POP SWAP3 SWAP2 POP POP JUMP JUMPDEST PUSH2 0x1F6C DUP3 PUSH2 0x1687 JUMP JUMPDEST PUSH8 0xFFFFFFFFFFFFFFFF DUP2 GT ISZERO PUSH2 0x1F85 JUMPI PUSH2 0x1F84 PUSH2 0x17F2 JUMP JUMPDEST JUMPDEST PUSH2 0x1F8F DUP3 SLOAD PUSH2 0x1D86 JUMP JUMPDEST PUSH2 0x1F9A DUP3 DUP3 DUP6 PUSH2 0x1ED6 JUMP JUMPDEST PUSH1 0x0 PUSH1 0x20 SWAP1 POP PUSH1 0x1F DUP4 GT PUSH1 0x1 DUP2 EQ PUSH2 0x1FCD JUMPI PUSH1 0x0 DUP5 ISZERO PUSH2 0x1FBB JUMPI DUP3 DUP8 ADD MLOAD SWAP1 POP JUMPDEST PUSH2 0x1FC5 DUP6 DUP3 PUSH2 0x1F47 JUMP JUMPDEST DUP7 SSTORE POP PUSH2 0x202D JUMP JUMPDEST PUSH1 0x1F NOT DUP5 AND PUSH2 0x1FDB DUP7 PUSH2 0x1DB7 JUMP JUMPDEST PUSH1 0x0 JUMPDEST DUP3 DUP2 LT ISZERO PUSH2 0x2003 JUMPI DUP5 DUP10 ADD MLOAD DUP3 SSTORE PUSH1 0x1 DUP3 ADD SWAP2 POP PUSH1 0x20 DUP6 ADD SWAP5 POP PUSH1 0x20 DUP2 ADD SWAP1 POP PUSH2 0x1FDE JUMP JUMPDEST DUP7 DUP4 LT ISZERO PUSH2 0x2020 JUMPI DUP5 DUP10 ADD MLOAD PUSH2 0x201C PUSH1 0x1F DUP10 AND DUP3 PUSH2 0x1F29 JUMP JUMPDEST DUP4 SSTORE POP JUMPDEST PUSH1 0x1 PUSH1 0x2 DUP9 MUL ADD DUP9 SSTORE POP POP POP JUMPDEST POP POP POP POP POP POP JUMP JUMPDEST PUSH32 0x4E487B7100000000000000000000000000000000000000000000000000000000 PUSH1 0x0 MSTORE PUSH1 0x11 PUSH1 0x4 MSTORE PUSH1 0x24 PUSH1 0x0 REVERT JUMPDEST PUSH1 0x0 PUSH2 0x206F DUP3 PUSH2 0x1624 JUMP JUMPDEST SWAP2 POP PUSH2 0x207A DUP4 PUSH2 0x1624 JUMP JUMPDEST SWAP3 POP DUP3 DUP3 SUB SWAP1 POP DUP2 DUP2 GT ISZERO PUSH2 0x2092 JUMPI PUSH2 0x2091 PUSH2 0x2035 JUMP JUMPDEST JUMPDEST SWAP3 SWAP2 POP POP JUMP JUMPDEST PUSH1 0x0 PUSH1 0x20 DUP3 ADD SWAP1 POP PUSH2 0x20AD PUSH1 0x0 DUP4 ADD DUP5 PUSH2 0x1717 JUMP JUMPDEST SWAP3 SWAP2 POP POP JUMP JUMPDEST PUSH32 0x566F74657220697320616C72656164792077686974656C697374656400000000 PUSH1 0x0 DUP3 ADD MSTORE POP JUMP JUMPDEST PUSH1 0x0 PUSH2 0x20E9 PUSH1 0x1C DUP4 PUSH2 0x1692 JUMP JUMPDEST SWAP2 POP PUSH2 0x20F4 DUP3 PUSH2 0x20B3 JUMP JUMPDEST PUSH1 0x20 DUP3 ADD SWAP1 POP SWAP2 SWAP1 POP JUMP JUMPDEST PUSH1 0x0 PUSH1 0x20 DUP3 ADD SWAP1 POP DUP2 DUP2 SUB PUSH1 0x0 DUP4 ADD MSTORE PUSH2 0x2118 DUP2 PUSH2 0x20DC JUMP JUMPDEST SWAP1 POP SWAP2 SWAP1 POP JUMP JUMPDEST PUSH32 0x4E487B7100000000000000000000000000000000000000000000000000000000 PUSH1 0x0 MSTORE PUSH1 0x32 PUSH1 0x4 MSTORE PUSH1 0x24 PUSH1 0x0 REVERT JUMPDEST PUSH1 0x0 PUSH2 0x2159 DUP3 PUSH2 0x1624 JUMP JUMPDEST SWAP2 POP PUSH32 0xFFFFFFFFFFFFFFFFFFFFFFFFFFFFFFFFFFFFFFFFFFFFFFFFFFFFFFFFFFFFFFFF DUP3 SUB PUSH2 0x218B JUMPI PUSH2 0x218A PUSH2 0x2035 JUMP JUMPDEST JUMPDEST PUSH1 0x1 DUP3 ADD SWAP1 POP SWAP2 SWAP1 POP JUMP JUMPDEST PUSH32 0x4F776E61626C653A206E6577206F776E657220697320746865207A65726F2061 PUSH1 0x0 DUP3 ADD MSTORE PUSH32 0x6464726573730000000000000000000000000000000000000000000000000000 PUSH1 0x20 DUP3 ADD MSTORE POP JUMP JUMPDEST PUSH1 0x0 PUSH2 0x21F2 PUSH1 0x26 DUP4 PUSH2 0x1692 JUMP JUMPDEST SWAP2 POP PUSH2 0x21FD DUP3 PUSH2 0x2196 JUMP JUMPDEST PUSH1 0x40 DUP3 ADD SWAP1 POP SWAP2 SWAP1 POP JUMP JUMPDEST PUSH1 0x0 PUSH1 0x20 DUP3 ADD SWAP1 POP DUP2 DUP2 SUB PUSH1 0x0 DUP4 ADD MSTORE PUSH2 0x2221 DUP2 PUSH2 0x21E5 JUMP JUMPDEST SWAP1 POP SWAP2 SWAP1 POP JUMP JUMPDEST PUSH32 0x596F75206861766520616C726561647920766F7465642E204F6E6C79206F6E65 PUSH1 0x0 DUP3 ADD MSTORE PUSH32 0x20766F746520697320616C6C6F77656400000000000000000000000000000000 PUSH1 0x20 DUP3 ADD MSTORE POP JUMP JUMPDEST PUSH1 0x0 PUSH2 0x2284 PUSH1 0x30 DUP4 PUSH2 0x1692 JUMP JUMPDEST SWAP2 POP PUSH2 0x228F DUP3 PUSH2 0x2228 JUMP JUMPDEST PUSH1 0x40 DUP3 ADD SWAP1 POP SWAP2 SWAP1 POP JUMP JUMPDEST PUSH1 0x0 PUSH1 0x20 DUP3 ADD SWAP1 POP DUP2 DUP2 SUB PUSH1 0x0 DUP4 ADD MSTORE PUSH2 0x22B3 DUP2 PUSH2 0x2277 JUMP JUMPDEST SWAP1 POP SWAP2 SWAP1 POP JUMP JUMPDEST PUSH32 0x50726F706F73616C20496420646F65736E27742065786973742E20506C656173 PUSH1 0x0 DUP3 ADD MSTORE PUSH32 0x652073656C65637420612076616C69642070726F706F73616C20496400000000 PUSH1 0x20 DUP3 ADD MSTORE POP JUMP JUMPDEST PUSH1 0x0 PUSH2 0x2316 PUSH1 0x3C DUP4 PUSH2 0x1692 JUMP JUMPDEST SWAP2 POP PUSH2 0x2321 DUP3 PUSH2 0x22BA JUMP JUMPDEST PUSH1 0x40 DUP3 ADD SWAP1 POP SWAP2 SWAP1 POP JUMP JUMPDEST PUSH1 0x0 PUSH1 0x20 DUP3 ADD SWAP1 POP DUP2 DUP2 SUB PUSH1 0x0 DUP4 ADD MSTORE PUSH2 0x2345 DUP2 PUSH2 0x2309 JUMP JUMPDEST SWAP1 POP SWAP2 SWAP1 POP JUMP JUMPDEST PUSH1 0x0 PUSH1 0x40 DUP3 ADD SWAP1 POP PUSH2 0x2361 PUSH1 0x0 DUP4 ADD DUP6 PUSH2 0x1B6B JUMP JUMPDEST PUSH2 0x236E PUSH1 0x20 DUP4 ADD DUP5 PUSH2 0x1717 JUMP JUMPDEST SWAP4 SWAP3 POP POP POP JUMP JUMPDEST PUSH32 0x4F6E6C792077686974656C697374656420766F74657273206172652061757468 PUSH1 0x0 DUP3 ADD MSTORE PUSH32 0x6F72697A656420746F20646F207468697320616374696F6E2E00000000000000 PUSH1 0x20 DUP3 ADD MSTORE POP JUMP JUMPDEST PUSH1 0x0 PUSH2 0x23D1 PUSH1 0x39 DUP4 PUSH2 0x1692 JUMP JUMPDEST SWAP2 POP PUSH2 0x23DC DUP3 PUSH2 0x2375 JUMP JUMPDEST PUSH1 0x40 DUP3 ADD SWAP1 POP SWAP2 SWAP1 POP JUMP JUMPDEST PUSH1 0x0 PUSH1 0x20 DUP3 ADD SWAP1 POP DUP2 DUP2 SUB PUSH1 0x0 DUP4 ADD MSTORE PUSH2 0x2400 DUP2 PUSH2 0x23C4 JUMP JUMPDEST SWAP1 POP SWAP2 SWAP1 POP JUMP JUMPDEST PUSH32 0x50726F706F73616C20726567697374726174696F6E20697320636C6F7365642E PUSH1 0x0 DUP3 ADD MSTORE POP JUMP JUMPDEST PUSH1 0x0 PUSH2 0x243D PUSH1 0x20 DUP4 PUSH2 0x1692 JUMP JUMPDEST SWAP2 POP PUSH2 0x2448 DUP3 PUSH2 0x2407 JUMP JUMPDEST PUSH1 0x20 DUP3 ADD SWAP1 POP SWAP2 SWAP1 POP JUMP JUMPDEST PUSH1 0x0 PUSH1 0x20 DUP3 ADD SWAP1 POP DUP2 DUP2 SUB PUSH1 0x0 DUP4 ADD MSTORE PUSH2 0x246C DUP2 PUSH2 0x2430 JUMP JUMPDEST SWAP1 POP SWAP2 SWAP1 POP JUMP JUMPDEST PUSH32 0x4F776E61626C653A2063616C6C6572206973206E6F7420746865206F776E6572 PUSH1 0x0 DUP3 ADD MSTORE POP JUMP JUMPDEST PUSH1 0x0 PUSH2 0x24A9 PUSH1 0x20 DUP4 PUSH2 0x1692 JUMP JUMPDEST SWAP2 POP PUSH2 0x24B4 DUP3 PUSH2 0x2473 JUMP JUMPDEST PUSH1 0x20 DUP3 ADD SWAP1 POP SWAP2 SWAP1 POP JUMP JUMPDEST PUSH1 0x0 PUSH1 0x20 DUP3 ADD SWAP1 POP DUP2 DUP2 SUB PUSH1 0x0 DUP4 ADD MSTORE PUSH2 0x24D8 DUP2 PUSH2 0x249C JUMP JUMPDEST SWAP1 POP SWAP2 SWAP1 POP JUMP JUMPDEST PUSH32 0x526567697374726174696F6E20706572696F6420666F7220766F746572206973 PUSH1 0x0 DUP3 ADD MSTORE PUSH32 0x20636C6F7365642E000000000000000000000000000000000000000000000000 PUSH1 0x20 DUP3 ADD MSTORE POP JUMP JUMPDEST PUSH1 0x0 PUSH2 0x253B PUSH1 0x28 DUP4 PUSH2 0x1692 JUMP JUMPDEST SWAP2 POP PUSH2 0x2546 DUP3 PUSH2 0x24DF JUMP JUMPDEST PUSH1 0x40 DUP3 ADD SWAP1 POP SWAP2 SWAP1 POP JUMP JUMPDEST PUSH1 0x0 PUSH1 0x20 DUP3 ADD SWAP1 POP DUP2 DUP2 SUB PUSH1 0x0 DUP4 ADD MSTORE PUSH2 0x256A DUP2 PUSH2 0x252E JUMP JUMPDEST SWAP1 POP SWAP2 SWAP1 POP JUMP JUMPDEST PUSH32 0x566F74696E67206973206E6F7420636C6F7365642E0000000000000000000000 PUSH1 0x0 DUP3 ADD MSTORE POP JUMP JUMPDEST PUSH1 0x0 PUSH2 0x25A7 PUSH1 0x15 DUP4 PUSH2 0x1692 JUMP JUMPDEST SWAP2 POP PUSH2 0x25B2 DUP3 PUSH2 0x2571 JUMP JUMPDEST PUSH1 0x20 DUP3 ADD SWAP1 POP SWAP2 SWAP1 POP JUMP JUMPDEST PUSH1 0x0 PUSH1 0x20 DUP3 ADD SWAP1 POP DUP2 DUP2 SUB PUSH1 0x0 DUP4 ADD MSTORE PUSH2 0x25D6 DUP2 PUSH2 0x259A JUMP JUMPDEST SWAP1 POP SWAP2 SWAP1 POP JUMP JUMPDEST PUSH1 0x0 PUSH1 0x40 DUP3 ADD SWAP1 POP PUSH2 0x25F2 PUSH1 0x0 DUP4 ADD DUP6 PUSH2 0x17BE JUMP JUMPDEST PUSH2 0x25FF PUSH1 0x20 DUP4 ADD DUP5 PUSH2 0x17BE JUMP JUMPDEST SWAP4 SWAP3 POP POP POP JUMP JUMPDEST PUSH32 0x566F74657320636F756E74206973206E6F742079657420646F6E650000000000 PUSH1 0x0 DUP3 ADD MSTORE POP JUMP JUMPDEST PUSH1 0x0 PUSH2 0x263C PUSH1 0x1B DUP4 PUSH2 0x1692 JUMP JUMPDEST SWAP2 POP PUSH2 0x2647 DUP3 PUSH2 0x2606 JUMP JUMPDEST PUSH1 0x20 DUP3 ADD SWAP1 POP SWAP2 SWAP1 POP JUMP JUMPDEST PUSH1 0x0 PUSH1 0x20 DUP3 ADD SWAP1 POP DUP2 DUP2 SUB PUSH1 0x0 DUP4 ADD MSTORE PUSH2 0x266B DUP2 PUSH2 0x262F JUMP JUMPDEST SWAP1 POP SWAP2 SWAP1 POP JUMP JUMPDEST PUSH32 0x566F74696E672073657373696F6E20697320636C6F7365642E00000000000000 PUSH1 0x0 DUP3 ADD MSTORE POP JUMP JUMPDEST PUSH1 0x0 PUSH2 0x26A8 PUSH1 0x19 DUP4 PUSH2 0x1692 JUMP JUMPDEST SWAP2 POP PUSH2 0x26B3 DUP3 PUSH2 0x2672 JUMP JUMPDEST PUSH1 0x20 DUP3 ADD SWAP1 POP SWAP2 SWAP1 POP JUMP JUMPDEST PUSH1 0x0 PUSH1 0x20 DUP3 ADD SWAP1 POP DUP2 DUP2 SUB PUSH1 0x0 DUP4 ADD MSTORE PUSH2 0x26D7 DUP2 PUSH2 0x269B JUMP JUMPDEST SWAP1 POP SWAP2 SWAP1 POP JUMP JUMPDEST PUSH32 0x41637475616C20737461747573206973206E6F7420636F6D70617469626C6520 PUSH1 0x0 DUP3 ADD MSTORE PUSH32 0x7769746820796F75722063686F696365202863686F6F73652070726576696F75 PUSH1 0x20 DUP3 ADD MSTORE PUSH32 0x73206F6E65206F72206E657874206F6E65290000000000000000000000000000 PUSH1 0x40 DUP3 ADD MSTORE POP JUMP JUMPDEST PUSH1 0x0 PUSH2 0x2760 PUSH1 0x52 DUP4 PUSH2 0x1692 JUMP JUMPDEST SWAP2 POP PUSH2 0x276B DUP3 PUSH2 0x26DE JUMP JUMPDEST PUSH1 0x60 DUP3 ADD SWAP1 POP SWAP2 SWAP1 POP JUMP JUMPDEST PUSH1 0x0 PUSH1 0x20 DUP3 ADD SWAP1 POP DUP2 DUP2 SUB PUSH1 0x0 DUP4 ADD MSTORE PUSH2 0x278F DUP2 PUSH2 0x2753 JUMP JUMPDEST SWAP1 POP SWAP2 SWAP1 POP JUMP INVALID LOG2 PUSH5 0x6970667358 0x22 SLT KECCAK256 EXP 0xC3 0xC5 0x24 EXP 0xCB 0xA9 RETURNDATASIZE 0xEE 0xE3 BALANCE 0xD4 0xBA CALLDATASIZE 0xC4 0xC5 DUP1 PUSH24 0x886B698F5200707CA43C2E9A89A864736F6C634300081200 CALLER "
				},
				"gasEstimates": {
					"creation": {
						"codeDepositCost": "2037600",
						"executionCost": "infinite",
						"totalCost": "infinite"
					},
					"external": {
						"computeWinningProposal()": "infinite",
						"getProposals()": "infinite",
						"getWinningProposalDetails()": "infinite",
						"owner()": "2567",
						"proposals(uint256)": "infinite",
						"registerProposal(string)": "infinite",
						"registerVoter(address)": "infinite",
						"registerVoters(address[])": "infinite",
						"renounceOwnership()": "30421",
						"status()": "2583",
						"transferOwnership(address)": "30810",
						"voting(uint256)": "infinite",
						"whitelist(address)": "infinite"
					},
					"internal": {
						"_isConsistantStatus(enum Voting.WorkflowStatus)": "infinite",
						"_isProposalsRegistrationStarted()": "infinite",
						"_isRegisteringVotersStatus()": "infinite",
						"_isVotesTallied()": "infinite",
						"_isVotingSessionEnded()": "infinite",
						"_isVotingSessionStarted()": "infinite",
						"_isWhitelisted()": "infinite",
						"setStatus(enum Voting.WorkflowStatus)": "infinite"
					}
				},
				"methodIdentifiers": {
					"computeWinningProposal()": "6a00600c",
					"getProposals()": "62564c48",
					"getWinningProposalDetails()": "b11accff",
					"owner()": "8da5cb5b",
					"proposals(uint256)": "013cf08b",
					"registerProposal(string)": "2f95355b",
					"registerVoter(address)": "38db6dd3",
					"registerVoters(address[])": "d55ec9c1",
					"renounceOwnership()": "715018a6",
					"status()": "200d2ed2",
					"transferOwnership(address)": "f2fde38b",
					"voting(uint256)": "fd4a77f1",
					"whitelist(address)": "9b19251a"
				}
			},
			"storageLayout": {
				"storage": [
					{
						"astId": 7,
						"contract": "Voting/Voting.sol:Voting",
						"label": "_owner",
						"offset": 0,
						"slot": "0",
						"type": "t_address"
					},
					{
						"astId": 163,
						"contract": "Voting/Voting.sol:Voting",
						"label": "whitelist",
						"offset": 0,
						"slot": "1",
						"type": "t_mapping(t_address,t_struct(Voter)153_storage)"
					},
					{
						"astId": 167,
						"contract": "Voting/Voting.sol:Voting",
						"label": "proposals",
						"offset": 0,
						"slot": "2",
						"type": "t_array(t_struct(Proposal)158_storage)dyn_storage"
					},
					{
						"astId": 170,
						"contract": "Voting/Voting.sol:Voting",
						"label": "status",
						"offset": 0,
						"slot": "3",
						"type": "t_enum(WorkflowStatus)146"
					},
					{
						"astId": 172,
						"contract": "Voting/Voting.sol:Voting",
						"label": "winningProposalId",
						"offset": 0,
						"slot": "4",
						"type": "t_uint256"
					}
				],
				"types": {
					"t_address": {
						"encoding": "inplace",
						"label": "address",
						"numberOfBytes": "20"
					},
					"t_array(t_struct(Proposal)158_storage)dyn_storage": {
						"base": "t_struct(Proposal)158_storage",
						"encoding": "dynamic_array",
						"label": "struct Voting.Proposal[]",
						"numberOfBytes": "32"
					},
					"t_bool": {
						"encoding": "inplace",
						"label": "bool",
						"numberOfBytes": "1"
					},
					"t_enum(WorkflowStatus)146": {
						"encoding": "inplace",
						"label": "enum Voting.WorkflowStatus",
						"numberOfBytes": "1"
					},
					"t_mapping(t_address,t_struct(Voter)153_storage)": {
						"encoding": "mapping",
						"key": "t_address",
						"label": "mapping(address => struct Voting.Voter)",
						"numberOfBytes": "32",
						"value": "t_struct(Voter)153_storage"
					},
					"t_string_storage": {
						"encoding": "bytes",
						"label": "string",
						"numberOfBytes": "32"
					},
					"t_struct(Proposal)158_storage": {
						"encoding": "inplace",
						"label": "struct Voting.Proposal",
						"members": [
							{
								"astId": 155,
								"contract": "Voting/Voting.sol:Voting",
								"label": "description",
								"offset": 0,
								"slot": "0",
								"type": "t_string_storage"
							},
							{
								"astId": 157,
								"contract": "Voting/Voting.sol:Voting",
								"label": "voteCount",
								"offset": 0,
								"slot": "1",
								"type": "t_uint256"
							}
						],
						"numberOfBytes": "64"
					},
					"t_struct(Voter)153_storage": {
						"encoding": "inplace",
						"label": "struct Voting.Voter",
						"members": [
							{
								"astId": 148,
								"contract": "Voting/Voting.sol:Voting",
								"label": "isRegistered",
								"offset": 0,
								"slot": "0",
								"type": "t_bool"
							},
							{
								"astId": 150,
								"contract": "Voting/Voting.sol:Voting",
								"label": "hasVoted",
								"offset": 1,
								"slot": "0",
								"type": "t_bool"
							},
							{
								"astId": 152,
								"contract": "Voting/Voting.sol:Voting",
								"label": "votedProposalId",
								"offset": 0,
								"slot": "1",
								"type": "t_uint256"
							}
						],
						"numberOfBytes": "64"
					},
					"t_uint256": {
						"encoding": "inplace",
						"label": "uint256",
						"numberOfBytes": "32"
					}
				}
			},
			"userdoc": {
				"kind": "user",
				"methods": {},
				"version": 1
			}
		}
	}
}