{
	"Voting/Voting.sol": {
		"Voting": {
			"abi": [
				{
					"anonymous": false,
					"inputs": [
						{
							"indexed": true,
							"internalType": "address",
							"name": "previousOwner",
							"type": "address"
						},
						{
							"indexed": true,
							"internalType": "address",
							"name": "newOwner",
							"type": "address"
						}
					],
					"name": "OwnershipTransferred",
					"type": "event"
				},
				{
					"anonymous": false,
					"inputs": [
						{
							"indexed": false,
							"internalType": "uint256",
							"name": "proposalId",
							"type": "uint256"
						}
					],
					"name": "ProposalRegistered",
					"type": "event"
				},
				{
					"anonymous": false,
					"inputs": [
						{
							"indexed": false,
							"internalType": "address",
							"name": "voter",
							"type": "address"
						},
						{
							"indexed": false,
							"internalType": "uint256",
							"name": "proposalId",
							"type": "uint256"
						}
					],
					"name": "Voted",
					"type": "event"
				},
				{
					"anonymous": false,
					"inputs": [
						{
							"indexed": false,
							"internalType": "address",
							"name": "voterAddress",
							"type": "address"
						}
					],
					"name": "VoterRegistered",
					"type": "event"
				},
				{
					"anonymous": false,
					"inputs": [
						{
							"indexed": false,
							"internalType": "enum Voting.WorkflowStatus",
							"name": "previousStatus",
							"type": "uint8"
						},
						{
							"indexed": false,
							"internalType": "enum Voting.WorkflowStatus",
							"name": "newStatus",
							"type": "uint8"
						}
					],
					"name": "WorkflowStatusChange",
					"type": "event"
				},
				{
					"inputs": [],
					"name": "owner",
					"outputs": [
						{
							"internalType": "address",
							"name": "",
							"type": "address"
						}
					],
					"stateMutability": "view",
					"type": "function"
				},
				{
					"inputs": [
						{
							"internalType": "address",
							"name": "_voter",
							"type": "address"
						}
					],
					"name": "registerVoter",
					"outputs": [],
					"stateMutability": "nonpayable",
					"type": "function"
				},
				{
					"inputs": [
						{
							"internalType": "address[]",
							"name": "_voters",
							"type": "address[]"
						}
					],
					"name": "registerVoters",
					"outputs": [],
					"stateMutability": "nonpayable",
					"type": "function"
				},
				{
					"inputs": [],
					"name": "renounceOwnership",
					"outputs": [],
					"stateMutability": "nonpayable",
					"type": "function"
				},
				{
					"inputs": [
						{
							"internalType": "enum Voting.WorkflowStatus",
							"name": "_status",
							"type": "uint8"
						}
					],
					"name": "setStatus",
					"outputs": [],
					"stateMutability": "nonpayable",
					"type": "function"
				},
				{
					"inputs": [],
					"name": "status",
					"outputs": [
						{
							"internalType": "enum Voting.WorkflowStatus",
							"name": "",
							"type": "uint8"
						}
					],
					"stateMutability": "view",
					"type": "function"
				},
				{
					"inputs": [
						{
							"internalType": "address",
							"name": "newOwner",
							"type": "address"
						}
					],
					"name": "transferOwnership",
					"outputs": [],
					"stateMutability": "nonpayable",
					"type": "function"
				}
			],
			"devdoc": {
				"kind": "dev",
				"methods": {
					"owner()": {
						"details": "Returns the address of the current owner."
					},
					"renounceOwnership()": {
						"details": "Leaves the contract without owner. It will not be possible to call `onlyOwner` functions anymore. Can only be called by the current owner. NOTE: Renouncing ownership will leave the contract without an owner, thereby removing any functionality that is only available to the owner."
					},
					"transferOwnership(address)": {
						"details": "Transfers ownership of the contract to a new account (`newOwner`). Can only be called by the current owner."
					}
				},
				"version": 1
			},
			"evm": {
				"assembly": "    /* \"Voting/Voting.sol\":115:4520  contract Voting is Ownable {... */\n  mstore(0x40, 0x80)\n  callvalue\n  dup1\n  iszero\n  tag_1\n  jumpi\n  0x00\n  dup1\n  revert\ntag_1:\n  pop\n    /* \"@openzeppelin/contracts/access/Ownable.sol\":936:968  _transferOwnership(_msgSender()) */\n  tag_4\n    /* \"@openzeppelin/contracts/access/Ownable.sol\":955:967  _msgSender() */\n  tag_5\n    /* \"@openzeppelin/contracts/access/Ownable.sol\":955:965  _msgSender */\n  shl(0x20, tag_6)\n    /* \"@openzeppelin/contracts/access/Ownable.sol\":955:967  _msgSender() */\n  0x20\n  shr\n  jump\t// in\ntag_5:\n    /* \"@openzeppelin/contracts/access/Ownable.sol\":936:954  _transferOwnership */\n  shl(0x20, tag_7)\n    /* \"@openzeppelin/contracts/access/Ownable.sol\":936:968  _transferOwnership(_msgSender()) */\n  0x20\n  shr\n  jump\t// in\ntag_4:\n    /* \"Voting/Voting.sol\":115:4520  contract Voting is Ownable {... */\n  jump(tag_8)\n    /* \"@openzeppelin/contracts/utils/Context.sol\":640:736  function _msgSender() internal view virtual returns (address) {... */\ntag_6:\n    /* \"@openzeppelin/contracts/utils/Context.sol\":693:700  address */\n  0x00\n    /* \"@openzeppelin/contracts/utils/Context.sol\":719:729  msg.sender */\n  caller\n    /* \"@openzeppelin/contracts/utils/Context.sol\":712:729  return msg.sender */\n  swap1\n  pop\n    /* \"@openzeppelin/contracts/utils/Context.sol\":640:736  function _msgSender() internal view virtual returns (address) {... */\n  swap1\n  jump\t// out\n    /* \"@openzeppelin/contracts/access/Ownable.sol\":2433:2620  function _transferOwnership(address newOwner) internal virtual {... */\ntag_7:\n    /* \"@openzeppelin/contracts/access/Ownable.sol\":2506:2522  address oldOwner */\n  0x00\n    /* \"@openzeppelin/contracts/access/Ownable.sol\":2525:2531  _owner */\n  dup1\n  0x00\n  swap1\n  sload\n  swap1\n  0x0100\n  exp\n  swap1\n  div\n  0xffffffffffffffffffffffffffffffffffffffff\n  and\n    /* \"@openzeppelin/contracts/access/Ownable.sol\":2506:2531  address oldOwner = _owner */\n  swap1\n  pop\n    /* \"@openzeppelin/contracts/access/Ownable.sol\":2550:2558  newOwner */\n  dup2\n    /* \"@openzeppelin/contracts/access/Ownable.sol\":2541:2547  _owner */\n  0x00\n  dup1\n    /* \"@openzeppelin/contracts/access/Ownable.sol\":2541:2558  _owner = newOwner */\n  0x0100\n  exp\n  dup2\n  sload\n  dup2\n  0xffffffffffffffffffffffffffffffffffffffff\n  mul\n  not\n  and\n  swap1\n  dup4\n  0xffffffffffffffffffffffffffffffffffffffff\n  and\n  mul\n  or\n  swap1\n  sstore\n  pop\n    /* \"@openzeppelin/contracts/access/Ownable.sol\":2604:2612  newOwner */\n  dup2\n    /* \"@openzeppelin/contracts/access/Ownable.sol\":2573:2613  OwnershipTransferred(oldOwner, newOwner) */\n  0xffffffffffffffffffffffffffffffffffffffff\n  and\n    /* \"@openzeppelin/contracts/access/Ownable.sol\":2594:2602  oldOwner */\n  dup2\n    /* \"@openzeppelin/contracts/access/Ownable.sol\":2573:2613  OwnershipTransferred(oldOwner, newOwner) */\n  0xffffffffffffffffffffffffffffffffffffffff\n  and\n  0x8be0079c531659141344cd1fd0a4f28419497f9722a3daafe3b4186f6b6457e0\n  mload(0x40)\n  mload(0x40)\n  dup1\n  swap2\n  sub\n  swap1\n  log3\n    /* \"@openzeppelin/contracts/access/Ownable.sol\":2496:2620  {... */\n  pop\n    /* \"@openzeppelin/contracts/access/Ownable.sol\":2433:2620  function _transferOwnership(address newOwner) internal virtual {... */\n  pop\n  jump\t// out\n    /* \"Voting/Voting.sol\":115:4520  contract Voting is Ownable {... */\ntag_8:\n  dataSize(sub_0)\n  dup1\n  dataOffset(sub_0)\n  0x00\n  codecopy\n  0x00\n  return\nstop\n\nsub_0: assembly {\n        /* \"Voting/Voting.sol\":115:4520  contract Voting is Ownable {... */\n      mstore(0x40, 0x80)\n      callvalue\n      dup1\n      iszero\n      tag_1\n      jumpi\n      0x00\n      dup1\n      revert\n    tag_1:\n      pop\n      jumpi(tag_2, lt(calldatasize, 0x04))\n      shr(0xe0, calldataload(0x00))\n      dup1\n      0x715018a6\n      gt\n      tag_10\n      jumpi\n      dup1\n      0x715018a6\n      eq\n      tag_6\n      jumpi\n      dup1\n      0x8da5cb5b\n      eq\n      tag_7\n      jumpi\n      dup1\n      0xd55ec9c1\n      eq\n      tag_8\n      jumpi\n      dup1\n      0xf2fde38b\n      eq\n      tag_9\n      jumpi\n      jump(tag_2)\n    tag_10:\n      dup1\n      0x200d2ed2\n      eq\n      tag_3\n      jumpi\n      dup1\n      0x2e49d78b\n      eq\n      tag_4\n      jumpi\n      dup1\n      0x38db6dd3\n      eq\n      tag_5\n      jumpi\n    tag_2:\n      0x00\n      dup1\n      revert\n        /* \"Voting/Voting.sol\":700:728  WorkflowStatus public status */\n    tag_3:\n      tag_11\n      tag_12\n      jump\t// in\n    tag_11:\n      mload(0x40)\n      tag_13\n      swap2\n      swap1\n      tag_14\n      jump\t// in\n    tag_13:\n      mload(0x40)\n      dup1\n      swap2\n      sub\n      swap1\n      return\n        /* \"Voting/Voting.sol\":4253:4404  function setStatus(WorkflowStatus _status)... */\n    tag_4:\n      tag_15\n      0x04\n      dup1\n      calldatasize\n      sub\n      dup2\n      add\n      swap1\n      tag_16\n      swap2\n      swap1\n      tag_17\n      jump\t// in\n    tag_16:\n      tag_18\n      jump\t// in\n    tag_15:\n      stop\n        /* \"Voting/Voting.sol\":3658:3862  function registerVoter(address _voter)... */\n    tag_5:\n      tag_19\n      0x04\n      dup1\n      calldatasize\n      sub\n      dup2\n      add\n      swap1\n      tag_20\n      swap2\n      swap1\n      tag_21\n      jump\t// in\n    tag_20:\n      tag_22\n      jump\t// in\n    tag_19:\n      stop\n        /* \"@openzeppelin/contracts/access/Ownable.sol\":1831:1932  function renounceOwnership() public virtual onlyOwner {... */\n    tag_6:\n      tag_23\n      tag_24\n      jump\t// in\n    tag_23:\n      stop\n        /* \"@openzeppelin/contracts/access/Ownable.sol\":1201:1286  function owner() public view virtual returns (address) {... */\n    tag_7:\n      tag_25\n      tag_26\n      jump\t// in\n    tag_25:\n      mload(0x40)\n      tag_27\n      swap2\n      swap1\n      tag_28\n      jump\t// in\n    tag_27:\n      mload(0x40)\n      dup1\n      swap2\n      sub\n      swap1\n      return\n        /* \"Voting/Voting.sol\":3908:4204  function registerVoters(address[] memory _voters)... */\n    tag_8:\n      tag_29\n      0x04\n      dup1\n      calldatasize\n      sub\n      dup2\n      add\n      swap1\n      tag_30\n      swap2\n      swap1\n      tag_31\n      jump\t// in\n    tag_30:\n      tag_32\n      jump\t// in\n    tag_29:\n      stop\n        /* \"@openzeppelin/contracts/access/Ownable.sol\":2081:2279  function transferOwnership(address newOwner) public virtual onlyOwner {... */\n    tag_9:\n      tag_33\n      0x04\n      dup1\n      calldatasize\n      sub\n      dup2\n      add\n      swap1\n      tag_34\n      swap2\n      swap1\n      tag_21\n      jump\t// in\n    tag_34:\n      tag_35\n      jump\t// in\n    tag_33:\n      stop\n        /* \"Voting/Voting.sol\":700:728  WorkflowStatus public status */\n    tag_12:\n      0x00\n      0x14\n      swap1\n      sload\n      swap1\n      0x0100\n      exp\n      swap1\n      div\n      0xff\n      and\n      dup2\n      jump\t// out\n        /* \"Voting/Voting.sol\":4253:4404  function setStatus(WorkflowStatus _status)... */\n    tag_18:\n        /* \"@openzeppelin/contracts/access/Ownable.sol\":1094:1107  _checkOwner() */\n      tag_37\n        /* \"@openzeppelin/contracts/access/Ownable.sol\":1094:1105  _checkOwner */\n      tag_38\n        /* \"@openzeppelin/contracts/access/Ownable.sol\":1094:1107  _checkOwner() */\n      jump\t// in\n    tag_37:\n        /* \"Voting/Voting.sol\":4358:4365  _status */\n      dup1\n        /* \"Voting/Voting.sol\":1201:1229  _isConsistantStatus(_status) */\n      tag_40\n        /* \"Voting/Voting.sol\":1221:1228  _status */\n      dup2\n        /* \"Voting/Voting.sol\":1201:1220  _isConsistantStatus */\n      tag_41\n        /* \"Voting/Voting.sol\":1201:1229  _isConsistantStatus(_status) */\n      jump\t// in\n    tag_40:\n        /* \"Voting/Voting.sol\":4390:4397  _status */\n      dup2\n        /* \"Voting/Voting.sol\":4381:4387  status */\n      0x00\n      0x14\n        /* \"Voting/Voting.sol\":4381:4397  status = _status */\n      0x0100\n      exp\n      dup2\n      sload\n      dup2\n      0xff\n      mul\n      not\n      and\n      swap1\n      dup4\n      0x05\n      dup2\n      gt\n      iszero\n      tag_43\n      jumpi\n      tag_44\n      tag_45\n      jump\t// in\n    tag_44:\n    tag_43:\n      mul\n      or\n      swap1\n      sstore\n      pop\n        /* \"@openzeppelin/contracts/access/Ownable.sol\":1117:1118  _ */\n      pop\n        /* \"Voting/Voting.sol\":4253:4404  function setStatus(WorkflowStatus _status)... */\n      pop\n      jump\t// out\n        /* \"Voting/Voting.sol\":3658:3862  function registerVoter(address _voter)... */\n    tag_22:\n        /* \"@openzeppelin/contracts/access/Ownable.sol\":1094:1107  _checkOwner() */\n      tag_47\n        /* \"@openzeppelin/contracts/access/Ownable.sol\":1094:1105  _checkOwner */\n      tag_38\n        /* \"@openzeppelin/contracts/access/Ownable.sol\":1094:1107  _checkOwner() */\n      jump\t// in\n    tag_47:\n        /* \"Voting/Voting.sol\":1087:1115  _isRegisteringVotersStatus() */\n      tag_49\n        /* \"Voting/Voting.sol\":1087:1113  _isRegisteringVotersStatus */\n      tag_50\n        /* \"Voting/Voting.sol\":1087:1115  _isRegisteringVotersStatus() */\n      jump\t// in\n    tag_49:\n        /* \"Voting/Voting.sol\":3813:3817  true */\n      0x01\n        /* \"Voting/Voting.sol\":3780:3789  whitelist */\n      dup1\n        /* \"Voting/Voting.sol\":3780:3797  whitelist[_voter] */\n      0x00\n        /* \"Voting/Voting.sol\":3790:3796  _voter */\n      dup4\n        /* \"Voting/Voting.sol\":3780:3797  whitelist[_voter] */\n      0xffffffffffffffffffffffffffffffffffffffff\n      and\n      0xffffffffffffffffffffffffffffffffffffffff\n      and\n      dup2\n      mstore\n      0x20\n      add\n      swap1\n      dup2\n      mstore\n      0x20\n      add\n      0x00\n      keccak256\n        /* \"Voting/Voting.sol\":3780:3810  whitelist[_voter].isRegistered */\n      0x00\n      add\n      0x00\n        /* \"Voting/Voting.sol\":3780:3817  whitelist[_voter].isRegistered = true */\n      0x0100\n      exp\n      dup2\n      sload\n      dup2\n      0xff\n      mul\n      not\n      and\n      swap1\n      dup4\n      iszero\n      iszero\n      mul\n      or\n      swap1\n      sstore\n      pop\n        /* \"Voting/Voting.sol\":3832:3855  VoterRegistered(_voter) */\n      0xb6be2187d059cc2a55fe29e0e503b566e1e0f8c8780096e185429350acffd3dd\n        /* \"Voting/Voting.sol\":3848:3854  _voter */\n      dup2\n        /* \"Voting/Voting.sol\":3832:3855  VoterRegistered(_voter) */\n      mload(0x40)\n      tag_52\n      swap2\n      swap1\n      tag_28\n      jump\t// in\n    tag_52:\n      mload(0x40)\n      dup1\n      swap2\n      sub\n      swap1\n      log1\n        /* \"Voting/Voting.sol\":3658:3862  function registerVoter(address _voter)... */\n      pop\n      jump\t// out\n        /* \"@openzeppelin/contracts/access/Ownable.sol\":1831:1932  function renounceOwnership() public virtual onlyOwner {... */\n    tag_24:\n        /* \"@openzeppelin/contracts/access/Ownable.sol\":1094:1107  _checkOwner() */\n      tag_54\n        /* \"@openzeppelin/contracts/access/Ownable.sol\":1094:1105  _checkOwner */\n      tag_38\n        /* \"@openzeppelin/contracts/access/Ownable.sol\":1094:1107  _checkOwner() */\n      jump\t// in\n    tag_54:\n        /* \"@openzeppelin/contracts/access/Ownable.sol\":1895:1925  _transferOwnership(address(0)) */\n      tag_56\n        /* \"@openzeppelin/contracts/access/Ownable.sol\":1922:1923  0 */\n      0x00\n        /* \"@openzeppelin/contracts/access/Ownable.sol\":1895:1913  _transferOwnership */\n      tag_57\n        /* \"@openzeppelin/contracts/access/Ownable.sol\":1895:1925  _transferOwnership(address(0)) */\n      jump\t// in\n    tag_56:\n        /* \"@openzeppelin/contracts/access/Ownable.sol\":1831:1932  function renounceOwnership() public virtual onlyOwner {... */\n      jump\t// out\n        /* \"@openzeppelin/contracts/access/Ownable.sol\":1201:1286  function owner() public view virtual returns (address) {... */\n    tag_26:\n        /* \"@openzeppelin/contracts/access/Ownable.sol\":1247:1254  address */\n      0x00\n        /* \"@openzeppelin/contracts/access/Ownable.sol\":1273:1279  _owner */\n      dup1\n      0x00\n      swap1\n      sload\n      swap1\n      0x0100\n      exp\n      swap1\n      div\n      0xffffffffffffffffffffffffffffffffffffffff\n      and\n        /* \"@openzeppelin/contracts/access/Ownable.sol\":1266:1279  return _owner */\n      swap1\n      pop\n        /* \"@openzeppelin/contracts/access/Ownable.sol\":1201:1286  function owner() public view virtual returns (address) {... */\n      swap1\n      jump\t// out\n        /* \"Voting/Voting.sol\":3908:4204  function registerVoters(address[] memory _voters)... */\n    tag_32:\n        /* \"@openzeppelin/contracts/access/Ownable.sol\":1094:1107  _checkOwner() */\n      tag_60\n        /* \"@openzeppelin/contracts/access/Ownable.sol\":1094:1105  _checkOwner */\n      tag_38\n        /* \"@openzeppelin/contracts/access/Ownable.sol\":1094:1107  _checkOwner() */\n      jump\t// in\n    tag_60:\n        /* \"Voting/Voting.sol\":1087:1115  _isRegisteringVotersStatus() */\n      tag_62\n        /* \"Voting/Voting.sol\":1087:1113  _isRegisteringVotersStatus */\n      tag_50\n        /* \"Voting/Voting.sol\":1087:1115  _isRegisteringVotersStatus() */\n      jump\t// in\n    tag_62:\n        /* \"Voting/Voting.sol\":4046:4055  uint256 i */\n      0x00\n        /* \"Voting/Voting.sol\":4041:4198  for (uint256 i = 0; i < _voters.length; i++) {... */\n    tag_64:\n        /* \"Voting/Voting.sol\":4065:4072  _voters */\n      dup2\n        /* \"Voting/Voting.sol\":4065:4079  _voters.length */\n      mload\n        /* \"Voting/Voting.sol\":4061:4062  i */\n      dup2\n        /* \"Voting/Voting.sol\":4061:4079  i < _voters.length */\n      lt\n        /* \"Voting/Voting.sol\":4041:4198  for (uint256 i = 0; i < _voters.length; i++) {... */\n      iszero\n      tag_65\n      jumpi\n        /* \"Voting/Voting.sol\":4137:4141  true */\n      0x01\n        /* \"Voting/Voting.sol\":4100:4109  whitelist */\n      dup1\n        /* \"Voting/Voting.sol\":4100:4121  whitelist[_voters[i]] */\n      0x00\n        /* \"Voting/Voting.sol\":4110:4117  _voters */\n      dup5\n        /* \"Voting/Voting.sol\":4118:4119  i */\n      dup5\n        /* \"Voting/Voting.sol\":4110:4120  _voters[i] */\n      dup2\n      mload\n      dup2\n      lt\n      tag_67\n      jumpi\n      tag_68\n      tag_69\n      jump\t// in\n    tag_68:\n    tag_67:\n      0x20\n      mul\n      0x20\n      add\n      add\n      mload\n        /* \"Voting/Voting.sol\":4100:4121  whitelist[_voters[i]] */\n      0xffffffffffffffffffffffffffffffffffffffff\n      and\n      0xffffffffffffffffffffffffffffffffffffffff\n      and\n      dup2\n      mstore\n      0x20\n      add\n      swap1\n      dup2\n      mstore\n      0x20\n      add\n      0x00\n      keccak256\n        /* \"Voting/Voting.sol\":4100:4134  whitelist[_voters[i]].isRegistered */\n      0x00\n      add\n      0x00\n        /* \"Voting/Voting.sol\":4100:4141  whitelist[_voters[i]].isRegistered = true */\n      0x0100\n      exp\n      dup2\n      sload\n      dup2\n      0xff\n      mul\n      not\n      and\n      swap1\n      dup4\n      iszero\n      iszero\n      mul\n      or\n      swap1\n      sstore\n      pop\n        /* \"Voting/Voting.sol\":4160:4187  VoterRegistered(_voters[i]) */\n      0xb6be2187d059cc2a55fe29e0e503b566e1e0f8c8780096e185429350acffd3dd\n        /* \"Voting/Voting.sol\":4176:4183  _voters */\n      dup3\n        /* \"Voting/Voting.sol\":4184:4185  i */\n      dup3\n        /* \"Voting/Voting.sol\":4176:4186  _voters[i] */\n      dup2\n      mload\n      dup2\n      lt\n      tag_70\n      jumpi\n      tag_71\n      tag_69\n      jump\t// in\n    tag_71:\n    tag_70:\n      0x20\n      mul\n      0x20\n      add\n      add\n      mload\n        /* \"Voting/Voting.sol\":4160:4187  VoterRegistered(_voters[i]) */\n      mload(0x40)\n      tag_72\n      swap2\n      swap1\n      tag_28\n      jump\t// in\n    tag_72:\n      mload(0x40)\n      dup1\n      swap2\n      sub\n      swap1\n      log1\n        /* \"Voting/Voting.sol\":4081:4084  i++ */\n      dup1\n      dup1\n      tag_73\n      swap1\n      tag_74\n      jump\t// in\n    tag_73:\n      swap2\n      pop\n      pop\n        /* \"Voting/Voting.sol\":4041:4198  for (uint256 i = 0; i < _voters.length; i++) {... */\n      jump(tag_64)\n    tag_65:\n      pop\n        /* \"Voting/Voting.sol\":3908:4204  function registerVoters(address[] memory _voters)... */\n      pop\n      jump\t// out\n        /* \"@openzeppelin/contracts/access/Ownable.sol\":2081:2279  function transferOwnership(address newOwner) public virtual onlyOwner {... */\n    tag_35:\n        /* \"@openzeppelin/contracts/access/Ownable.sol\":1094:1107  _checkOwner() */\n      tag_76\n        /* \"@openzeppelin/contracts/access/Ownable.sol\":1094:1105  _checkOwner */\n      tag_38\n        /* \"@openzeppelin/contracts/access/Ownable.sol\":1094:1107  _checkOwner() */\n      jump\t// in\n    tag_76:\n        /* \"@openzeppelin/contracts/access/Ownable.sol\":2189:2190  0 */\n      0x00\n        /* \"@openzeppelin/contracts/access/Ownable.sol\":2169:2191  newOwner != address(0) */\n      0xffffffffffffffffffffffffffffffffffffffff\n      and\n        /* \"@openzeppelin/contracts/access/Ownable.sol\":2169:2177  newOwner */\n      dup2\n        /* \"@openzeppelin/contracts/access/Ownable.sol\":2169:2191  newOwner != address(0) */\n      0xffffffffffffffffffffffffffffffffffffffff\n      and\n      sub\n        /* \"@openzeppelin/contracts/access/Ownable.sol\":2161:2234  require(newOwner != address(0), \"Ownable: new owner is the zero address\") */\n      tag_78\n      jumpi\n      mload(0x40)\n      0x08c379a000000000000000000000000000000000000000000000000000000000\n      dup2\n      mstore\n      0x04\n      add\n      tag_79\n      swap1\n      tag_80\n      jump\t// in\n    tag_79:\n      mload(0x40)\n      dup1\n      swap2\n      sub\n      swap1\n      revert\n    tag_78:\n        /* \"@openzeppelin/contracts/access/Ownable.sol\":2244:2272  _transferOwnership(newOwner) */\n      tag_81\n        /* \"@openzeppelin/contracts/access/Ownable.sol\":2263:2271  newOwner */\n      dup2\n        /* \"@openzeppelin/contracts/access/Ownable.sol\":2244:2262  _transferOwnership */\n      tag_57\n        /* \"@openzeppelin/contracts/access/Ownable.sol\":2244:2272  _transferOwnership(newOwner) */\n      jump\t// in\n    tag_81:\n        /* \"@openzeppelin/contracts/access/Ownable.sol\":2081:2279  function transferOwnership(address newOwner) public virtual onlyOwner {... */\n      pop\n      jump\t// out\n        /* \"@openzeppelin/contracts/access/Ownable.sol\":1359:1489  function _checkOwner() internal view virtual {... */\n    tag_38:\n        /* \"@openzeppelin/contracts/access/Ownable.sol\":1433:1445  _msgSender() */\n      tag_83\n        /* \"@openzeppelin/contracts/access/Ownable.sol\":1433:1443  _msgSender */\n      tag_84\n        /* \"@openzeppelin/contracts/access/Ownable.sol\":1433:1445  _msgSender() */\n      jump\t// in\n    tag_83:\n        /* \"@openzeppelin/contracts/access/Ownable.sol\":1422:1445  owner() == _msgSender() */\n      0xffffffffffffffffffffffffffffffffffffffff\n      and\n        /* \"@openzeppelin/contracts/access/Ownable.sol\":1422:1429  owner() */\n      tag_85\n        /* \"@openzeppelin/contracts/access/Ownable.sol\":1422:1427  owner */\n      tag_26\n        /* \"@openzeppelin/contracts/access/Ownable.sol\":1422:1429  owner() */\n      jump\t// in\n    tag_85:\n        /* \"@openzeppelin/contracts/access/Ownable.sol\":1422:1445  owner() == _msgSender() */\n      0xffffffffffffffffffffffffffffffffffffffff\n      and\n      eq\n        /* \"@openzeppelin/contracts/access/Ownable.sol\":1414:1482  require(owner() == _msgSender(), \"Ownable: caller is not the owner\") */\n      tag_86\n      jumpi\n      mload(0x40)\n      0x08c379a000000000000000000000000000000000000000000000000000000000\n      dup2\n      mstore\n      0x04\n      add\n      tag_87\n      swap1\n      tag_88\n      jump\t// in\n    tag_87:\n      mload(0x40)\n      dup1\n      swap2\n      sub\n      swap1\n      revert\n    tag_86:\n        /* \"@openzeppelin/contracts/access/Ownable.sol\":1359:1489  function _checkOwner() internal view virtual {... */\n      jump\t// out\n        /* \"Voting/Voting.sol\":1569:3616  function _isConsistantStatus(WorkflowStatus _status) internal view {... */\n    tag_41:\n        /* \"Voting/Voting.sol\":1661:1693  WorkflowStatus.RegisteringVoters */\n      0x00\n        /* \"Voting/Voting.sol\":1650:1693  _status == WorkflowStatus.RegisteringVoters */\n      0x05\n      dup2\n      gt\n      iszero\n      tag_90\n      jumpi\n      tag_91\n      tag_45\n      jump\t// in\n    tag_91:\n    tag_90:\n        /* \"Voting/Voting.sol\":1650:1657  _status */\n      dup2\n        /* \"Voting/Voting.sol\":1650:1693  _status == WorkflowStatus.RegisteringVoters */\n      0x05\n      dup2\n      gt\n      iszero\n      tag_92\n      jumpi\n      tag_93\n      tag_45\n      jump\t// in\n    tag_93:\n    tag_92:\n      sub\n        /* \"Voting/Voting.sol\":1646:3610  if (_status == WorkflowStatus.RegisteringVoters) {... */\n      tag_94\n      jumpi\n        /* \"Voting/Voting.sol\":1744:1776  WorkflowStatus.RegisteringVoters */\n      0x00\n        /* \"Voting/Voting.sol\":1734:1776  status == WorkflowStatus.RegisteringVoters */\n      0x05\n      dup2\n      gt\n      iszero\n      tag_95\n      jumpi\n      tag_96\n      tag_45\n      jump\t// in\n    tag_96:\n    tag_95:\n        /* \"Voting/Voting.sol\":1734:1740  status */\n      0x00\n      0x14\n      swap1\n      sload\n      swap1\n      0x0100\n      exp\n      swap1\n      div\n      0xff\n      and\n        /* \"Voting/Voting.sol\":1734:1776  status == WorkflowStatus.RegisteringVoters */\n      0x05\n      dup2\n      gt\n      iszero\n      tag_97\n      jumpi\n      tag_98\n      tag_45\n      jump\t// in\n    tag_98:\n    tag_97:\n      eq\n        /* \"Voting/Voting.sol\":1734:1853  status == WorkflowStatus.RegisteringVoters ||... */\n      dup1\n      tag_99\n      jumpi\n      pop\n        /* \"Voting/Voting.sol\":1810:1853  WorkflowStatus.ProposalsRegistrationStarted */\n      0x01\n        /* \"Voting/Voting.sol\":1800:1853  status == WorkflowStatus.ProposalsRegistrationStarted */\n      0x05\n      dup2\n      gt\n      iszero\n      tag_100\n      jumpi\n      tag_101\n      tag_45\n      jump\t// in\n    tag_101:\n    tag_100:\n        /* \"Voting/Voting.sol\":1800:1806  status */\n      0x00\n      0x14\n      swap1\n      sload\n      swap1\n      0x0100\n      exp\n      swap1\n      div\n      0xff\n      and\n        /* \"Voting/Voting.sol\":1800:1853  status == WorkflowStatus.ProposalsRegistrationStarted */\n      0x05\n      dup2\n      gt\n      iszero\n      tag_102\n      jumpi\n      tag_103\n      tag_45\n      jump\t// in\n    tag_103:\n    tag_102:\n      eq\n        /* \"Voting/Voting.sol\":1734:1853  status == WorkflowStatus.RegisteringVoters ||... */\n    tag_99:\n        /* \"Voting/Voting.sol\":1709:1969  require(... */\n      tag_104\n      jumpi\n      mload(0x40)\n      0x08c379a000000000000000000000000000000000000000000000000000000000\n      dup2\n      mstore\n      0x04\n      add\n      tag_105\n      swap1\n      tag_106\n      jump\t// in\n    tag_105:\n      mload(0x40)\n      dup1\n      swap2\n      sub\n      swap1\n      revert\n    tag_104:\n        /* \"Voting/Voting.sol\":1646:3610  if (_status == WorkflowStatus.RegisteringVoters) {... */\n      jump(tag_107)\n    tag_94:\n        /* \"Voting/Voting.sol\":2001:2044  WorkflowStatus.ProposalsRegistrationStarted */\n      0x01\n        /* \"Voting/Voting.sol\":1990:2044  _status == WorkflowStatus.ProposalsRegistrationStarted */\n      0x05\n      dup2\n      gt\n      iszero\n      tag_108\n      jumpi\n      tag_109\n      tag_45\n      jump\t// in\n    tag_109:\n    tag_108:\n        /* \"Voting/Voting.sol\":1990:1997  _status */\n      dup2\n        /* \"Voting/Voting.sol\":1990:2044  _status == WorkflowStatus.ProposalsRegistrationStarted */\n      0x05\n      dup2\n      gt\n      iszero\n      tag_110\n      jumpi\n      tag_111\n      tag_45\n      jump\t// in\n    tag_111:\n    tag_110:\n      sub\n        /* \"Voting/Voting.sol\":1986:3610  if (_status == WorkflowStatus.ProposalsRegistrationStarted) {... */\n      tag_112\n      jumpi\n        /* \"Voting/Voting.sol\":2095:2127  WorkflowStatus.RegisteringVoters */\n      0x00\n        /* \"Voting/Voting.sol\":2085:2127  status == WorkflowStatus.RegisteringVoters */\n      0x05\n      dup2\n      gt\n      iszero\n      tag_113\n      jumpi\n      tag_114\n      tag_45\n      jump\t// in\n    tag_114:\n    tag_113:\n        /* \"Voting/Voting.sol\":2085:2091  status */\n      0x00\n      0x14\n      swap1\n      sload\n      swap1\n      0x0100\n      exp\n      swap1\n      div\n      0xff\n      and\n        /* \"Voting/Voting.sol\":2085:2127  status == WorkflowStatus.RegisteringVoters */\n      0x05\n      dup2\n      gt\n      iszero\n      tag_115\n      jumpi\n      tag_116\n      tag_45\n      jump\t// in\n    tag_116:\n    tag_115:\n      eq\n        /* \"Voting/Voting.sol\":2085:2202  status == WorkflowStatus.RegisteringVoters ||... */\n      dup1\n      tag_117\n      jumpi\n      pop\n        /* \"Voting/Voting.sol\":2161:2202  WorkflowStatus.ProposalsRegistrationEnded */\n      0x02\n        /* \"Voting/Voting.sol\":2151:2202  status == WorkflowStatus.ProposalsRegistrationEnded */\n      0x05\n      dup2\n      gt\n      iszero\n      tag_118\n      jumpi\n      tag_119\n      tag_45\n      jump\t// in\n    tag_119:\n    tag_118:\n        /* \"Voting/Voting.sol\":2151:2157  status */\n      0x00\n      0x14\n      swap1\n      sload\n      swap1\n      0x0100\n      exp\n      swap1\n      div\n      0xff\n      and\n        /* \"Voting/Voting.sol\":2151:2202  status == WorkflowStatus.ProposalsRegistrationEnded */\n      0x05\n      dup2\n      gt\n      iszero\n      tag_120\n      jumpi\n      tag_121\n      tag_45\n      jump\t// in\n    tag_121:\n    tag_120:\n      eq\n        /* \"Voting/Voting.sol\":2085:2202  status == WorkflowStatus.RegisteringVoters ||... */\n    tag_117:\n        /* \"Voting/Voting.sol\":2060:2318  require(... */\n      tag_122\n      jumpi\n      mload(0x40)\n      0x08c379a000000000000000000000000000000000000000000000000000000000\n      dup2\n      mstore\n      0x04\n      add\n      tag_123\n      swap1\n      tag_106\n      jump\t// in\n    tag_123:\n      mload(0x40)\n      dup1\n      swap2\n      sub\n      swap1\n      revert\n    tag_122:\n        /* \"Voting/Voting.sol\":1986:3610  if (_status == WorkflowStatus.ProposalsRegistrationStarted) {... */\n      jump(tag_124)\n    tag_112:\n        /* \"Voting/Voting.sol\":2350:2391  WorkflowStatus.ProposalsRegistrationEnded */\n      0x02\n        /* \"Voting/Voting.sol\":2339:2391  _status == WorkflowStatus.ProposalsRegistrationEnded */\n      0x05\n      dup2\n      gt\n      iszero\n      tag_125\n      jumpi\n      tag_126\n      tag_45\n      jump\t// in\n    tag_126:\n    tag_125:\n        /* \"Voting/Voting.sol\":2339:2346  _status */\n      dup2\n        /* \"Voting/Voting.sol\":2339:2391  _status == WorkflowStatus.ProposalsRegistrationEnded */\n      0x05\n      dup2\n      gt\n      iszero\n      tag_127\n      jumpi\n      tag_128\n      tag_45\n      jump\t// in\n    tag_128:\n    tag_127:\n      sub\n        /* \"Voting/Voting.sol\":2335:3610  if (_status == WorkflowStatus.ProposalsRegistrationEnded) {... */\n      tag_129\n      jumpi\n        /* \"Voting/Voting.sol\":2442:2485  WorkflowStatus.ProposalsRegistrationStarted */\n      0x01\n        /* \"Voting/Voting.sol\":2432:2485  status == WorkflowStatus.ProposalsRegistrationStarted */\n      0x05\n      dup2\n      gt\n      iszero\n      tag_130\n      jumpi\n      tag_131\n      tag_45\n      jump\t// in\n    tag_131:\n    tag_130:\n        /* \"Voting/Voting.sol\":2432:2438  status */\n      0x00\n      0x14\n      swap1\n      sload\n      swap1\n      0x0100\n      exp\n      swap1\n      div\n      0xff\n      and\n        /* \"Voting/Voting.sol\":2432:2485  status == WorkflowStatus.ProposalsRegistrationStarted */\n      0x05\n      dup2\n      gt\n      iszero\n      tag_132\n      jumpi\n      tag_133\n      tag_45\n      jump\t// in\n    tag_133:\n    tag_132:\n      eq\n        /* \"Voting/Voting.sol\":2432:2554  status == WorkflowStatus.ProposalsRegistrationStarted ||... */\n      dup1\n      tag_134\n      jumpi\n      pop\n        /* \"Voting/Voting.sol\":2519:2554  WorkflowStatus.VotingSessionStarted */\n      0x03\n        /* \"Voting/Voting.sol\":2509:2554  status == WorkflowStatus.VotingSessionStarted */\n      0x05\n      dup2\n      gt\n      iszero\n      tag_135\n      jumpi\n      tag_136\n      tag_45\n      jump\t// in\n    tag_136:\n    tag_135:\n        /* \"Voting/Voting.sol\":2509:2515  status */\n      0x00\n      0x14\n      swap1\n      sload\n      swap1\n      0x0100\n      exp\n      swap1\n      div\n      0xff\n      and\n        /* \"Voting/Voting.sol\":2509:2554  status == WorkflowStatus.VotingSessionStarted */\n      0x05\n      dup2\n      gt\n      iszero\n      tag_137\n      jumpi\n      tag_138\n      tag_45\n      jump\t// in\n    tag_138:\n    tag_137:\n      eq\n        /* \"Voting/Voting.sol\":2432:2554  status == WorkflowStatus.ProposalsRegistrationStarted ||... */\n    tag_134:\n        /* \"Voting/Voting.sol\":2407:2670  require(... */\n      tag_139\n      jumpi\n      mload(0x40)\n      0x08c379a000000000000000000000000000000000000000000000000000000000\n      dup2\n      mstore\n      0x04\n      add\n      tag_140\n      swap1\n      tag_106\n      jump\t// in\n    tag_140:\n      mload(0x40)\n      dup1\n      swap2\n      sub\n      swap1\n      revert\n    tag_139:\n        /* \"Voting/Voting.sol\":2335:3610  if (_status == WorkflowStatus.ProposalsRegistrationEnded) {... */\n      jump(tag_141)\n    tag_129:\n        /* \"Voting/Voting.sol\":2702:2737  WorkflowStatus.VotingSessionStarted */\n      0x03\n        /* \"Voting/Voting.sol\":2691:2737  _status == WorkflowStatus.VotingSessionStarted */\n      0x05\n      dup2\n      gt\n      iszero\n      tag_142\n      jumpi\n      tag_143\n      tag_45\n      jump\t// in\n    tag_143:\n    tag_142:\n        /* \"Voting/Voting.sol\":2691:2698  _status */\n      dup2\n        /* \"Voting/Voting.sol\":2691:2737  _status == WorkflowStatus.VotingSessionStarted */\n      0x05\n      dup2\n      gt\n      iszero\n      tag_144\n      jumpi\n      tag_145\n      tag_45\n      jump\t// in\n    tag_145:\n    tag_144:\n      sub\n        /* \"Voting/Voting.sol\":2687:3610  if (_status == WorkflowStatus.VotingSessionStarted) {... */\n      tag_146\n      jumpi\n        /* \"Voting/Voting.sol\":2788:2829  WorkflowStatus.ProposalsRegistrationEnded */\n      0x02\n        /* \"Voting/Voting.sol\":2778:2829  status == WorkflowStatus.ProposalsRegistrationEnded */\n      0x05\n      dup2\n      gt\n      iszero\n      tag_147\n      jumpi\n      tag_148\n      tag_45\n      jump\t// in\n    tag_148:\n    tag_147:\n        /* \"Voting/Voting.sol\":2778:2784  status */\n      0x00\n      0x14\n      swap1\n      sload\n      swap1\n      0x0100\n      exp\n      swap1\n      div\n      0xff\n      and\n        /* \"Voting/Voting.sol\":2778:2829  status == WorkflowStatus.ProposalsRegistrationEnded */\n      0x05\n      dup2\n      gt\n      iszero\n      tag_149\n      jumpi\n      tag_150\n      tag_45\n      jump\t// in\n    tag_150:\n    tag_149:\n      eq\n        /* \"Voting/Voting.sol\":2778:2896  status == WorkflowStatus.ProposalsRegistrationEnded ||... */\n      dup1\n      tag_151\n      jumpi\n      pop\n        /* \"Voting/Voting.sol\":2863:2896  WorkflowStatus.VotingSessionEnded */\n      0x04\n        /* \"Voting/Voting.sol\":2853:2896  status == WorkflowStatus.VotingSessionEnded */\n      0x05\n      dup2\n      gt\n      iszero\n      tag_152\n      jumpi\n      tag_153\n      tag_45\n      jump\t// in\n    tag_153:\n    tag_152:\n        /* \"Voting/Voting.sol\":2853:2859  status */\n      0x00\n      0x14\n      swap1\n      sload\n      swap1\n      0x0100\n      exp\n      swap1\n      div\n      0xff\n      and\n        /* \"Voting/Voting.sol\":2853:2896  status == WorkflowStatus.VotingSessionEnded */\n      0x05\n      dup2\n      gt\n      iszero\n      tag_154\n      jumpi\n      tag_155\n      tag_45\n      jump\t// in\n    tag_155:\n    tag_154:\n      eq\n        /* \"Voting/Voting.sol\":2778:2896  status == WorkflowStatus.ProposalsRegistrationEnded ||... */\n    tag_151:\n        /* \"Voting/Voting.sol\":2753:3012  require(... */\n      tag_156\n      jumpi\n      mload(0x40)\n      0x08c379a000000000000000000000000000000000000000000000000000000000\n      dup2\n      mstore\n      0x04\n      add\n      tag_157\n      swap1\n      tag_106\n      jump\t// in\n    tag_157:\n      mload(0x40)\n      dup1\n      swap2\n      sub\n      swap1\n      revert\n    tag_156:\n        /* \"Voting/Voting.sol\":2687:3610  if (_status == WorkflowStatus.VotingSessionStarted) {... */\n      jump(tag_158)\n    tag_146:\n        /* \"Voting/Voting.sol\":3044:3077  WorkflowStatus.VotingSessionEnded */\n      0x04\n        /* \"Voting/Voting.sol\":3033:3077  _status == WorkflowStatus.VotingSessionEnded */\n      0x05\n      dup2\n      gt\n      iszero\n      tag_159\n      jumpi\n      tag_160\n      tag_45\n      jump\t// in\n    tag_160:\n    tag_159:\n        /* \"Voting/Voting.sol\":3033:3040  _status */\n      dup2\n        /* \"Voting/Voting.sol\":3033:3077  _status == WorkflowStatus.VotingSessionEnded */\n      0x05\n      dup2\n      gt\n      iszero\n      tag_161\n      jumpi\n      tag_162\n      tag_45\n      jump\t// in\n    tag_162:\n    tag_161:\n      sub\n        /* \"Voting/Voting.sol\":3029:3610  if (_status == WorkflowStatus.VotingSessionEnded) {... */\n      tag_163\n      jumpi\n        /* \"Voting/Voting.sol\":3128:3163  WorkflowStatus.VotingSessionStarted */\n      0x03\n        /* \"Voting/Voting.sol\":3118:3163  status == WorkflowStatus.VotingSessionStarted */\n      0x05\n      dup2\n      gt\n      iszero\n      tag_164\n      jumpi\n      tag_165\n      tag_45\n      jump\t// in\n    tag_165:\n    tag_164:\n        /* \"Voting/Voting.sol\":3118:3124  status */\n      0x00\n      0x14\n      swap1\n      sload\n      swap1\n      0x0100\n      exp\n      swap1\n      div\n      0xff\n      and\n        /* \"Voting/Voting.sol\":3118:3163  status == WorkflowStatus.VotingSessionStarted */\n      0x05\n      dup2\n      gt\n      iszero\n      tag_166\n      jumpi\n      tag_167\n      tag_45\n      jump\t// in\n    tag_167:\n    tag_166:\n      eq\n        /* \"Voting/Voting.sol\":3118:3224  status == WorkflowStatus.VotingSessionStarted ||... */\n      dup1\n      tag_168\n      jumpi\n      pop\n        /* \"Voting/Voting.sol\":3197:3224  WorkflowStatus.VotesTallied */\n      0x05\n        /* \"Voting/Voting.sol\":3187:3224  status == WorkflowStatus.VotesTallied */\n      dup1\n      dup2\n      gt\n      iszero\n      tag_169\n      jumpi\n      tag_170\n      tag_45\n      jump\t// in\n    tag_170:\n    tag_169:\n        /* \"Voting/Voting.sol\":3187:3193  status */\n      0x00\n      0x14\n      swap1\n      sload\n      swap1\n      0x0100\n      exp\n      swap1\n      div\n      0xff\n      and\n        /* \"Voting/Voting.sol\":3187:3224  status == WorkflowStatus.VotesTallied */\n      0x05\n      dup2\n      gt\n      iszero\n      tag_171\n      jumpi\n      tag_172\n      tag_45\n      jump\t// in\n    tag_172:\n    tag_171:\n      eq\n        /* \"Voting/Voting.sol\":3118:3224  status == WorkflowStatus.VotingSessionStarted ||... */\n    tag_168:\n        /* \"Voting/Voting.sol\":3093:3340  require(... */\n      tag_173\n      jumpi\n      mload(0x40)\n      0x08c379a000000000000000000000000000000000000000000000000000000000\n      dup2\n      mstore\n      0x04\n      add\n      tag_174\n      swap1\n      tag_106\n      jump\t// in\n    tag_174:\n      mload(0x40)\n      dup1\n      swap2\n      sub\n      swap1\n      revert\n    tag_173:\n        /* \"Voting/Voting.sol\":3029:3610  if (_status == WorkflowStatus.VotingSessionEnded) {... */\n      jump(tag_175)\n    tag_163:\n        /* \"Voting/Voting.sol\":3372:3399  WorkflowStatus.VotesTallied */\n      0x05\n        /* \"Voting/Voting.sol\":3361:3399  _status == WorkflowStatus.VotesTallied */\n      dup1\n      dup2\n      gt\n      iszero\n      tag_176\n      jumpi\n      tag_177\n      tag_45\n      jump\t// in\n    tag_177:\n    tag_176:\n        /* \"Voting/Voting.sol\":3361:3368  _status */\n      dup2\n        /* \"Voting/Voting.sol\":3361:3399  _status == WorkflowStatus.VotesTallied */\n      0x05\n      dup2\n      gt\n      iszero\n      tag_178\n      jumpi\n      tag_179\n      tag_45\n      jump\t// in\n    tag_179:\n    tag_178:\n      sub\n        /* \"Voting/Voting.sol\":3357:3610  if (_status == WorkflowStatus.VotesTallied) {... */\n      tag_180\n      jumpi\n        /* \"Voting/Voting.sol\":3450:3483  WorkflowStatus.VotingSessionEnded */\n      0x04\n        /* \"Voting/Voting.sol\":3440:3483  status == WorkflowStatus.VotingSessionEnded */\n      0x05\n      dup2\n      gt\n      iszero\n      tag_181\n      jumpi\n      tag_182\n      tag_45\n      jump\t// in\n    tag_182:\n    tag_181:\n        /* \"Voting/Voting.sol\":3440:3446  status */\n      0x00\n      0x14\n      swap1\n      sload\n      swap1\n      0x0100\n      exp\n      swap1\n      div\n      0xff\n      and\n        /* \"Voting/Voting.sol\":3440:3483  status == WorkflowStatus.VotingSessionEnded */\n      0x05\n      dup2\n      gt\n      iszero\n      tag_183\n      jumpi\n      tag_184\n      tag_45\n      jump\t// in\n    tag_184:\n    tag_183:\n      eq\n        /* \"Voting/Voting.sol\":3415:3599  require(... */\n      tag_185\n      jumpi\n      mload(0x40)\n      0x08c379a000000000000000000000000000000000000000000000000000000000\n      dup2\n      mstore\n      0x04\n      add\n      tag_186\n      swap1\n      tag_106\n      jump\t// in\n    tag_186:\n      mload(0x40)\n      dup1\n      swap2\n      sub\n      swap1\n      revert\n    tag_185:\n        /* \"Voting/Voting.sol\":3357:3610  if (_status == WorkflowStatus.VotesTallied) {... */\n    tag_180:\n        /* \"Voting/Voting.sol\":3029:3610  if (_status == WorkflowStatus.VotingSessionEnded) {... */\n    tag_175:\n        /* \"Voting/Voting.sol\":2687:3610  if (_status == WorkflowStatus.VotingSessionStarted) {... */\n    tag_158:\n        /* \"Voting/Voting.sol\":2335:3610  if (_status == WorkflowStatus.ProposalsRegistrationEnded) {... */\n    tag_141:\n        /* \"Voting/Voting.sol\":1986:3610  if (_status == WorkflowStatus.ProposalsRegistrationStarted) {... */\n    tag_124:\n        /* \"Voting/Voting.sol\":1646:3610  if (_status == WorkflowStatus.RegisteringVoters) {... */\n    tag_107:\n        /* \"Voting/Voting.sol\":1569:3616  function _isConsistantStatus(WorkflowStatus _status) internal view {... */\n      pop\n      jump\t// out\n        /* \"Voting/Voting.sol\":1310:1508  function _isRegisteringVotersStatus() internal view {... */\n    tag_50:\n        /* \"Voting/Voting.sol\":1403:1435  WorkflowStatus.RegisteringVoters */\n      0x00\n        /* \"Voting/Voting.sol\":1393:1435  status == WorkflowStatus.RegisteringVoters */\n      0x05\n      dup2\n      gt\n      iszero\n      tag_188\n      jumpi\n      tag_189\n      tag_45\n      jump\t// in\n    tag_189:\n    tag_188:\n        /* \"Voting/Voting.sol\":1393:1399  status */\n      0x00\n      0x14\n      swap1\n      sload\n      swap1\n      0x0100\n      exp\n      swap1\n      div\n      0xff\n      and\n        /* \"Voting/Voting.sol\":1393:1435  status == WorkflowStatus.RegisteringVoters */\n      0x05\n      dup2\n      gt\n      iszero\n      tag_190\n      jumpi\n      tag_191\n      tag_45\n      jump\t// in\n    tag_191:\n    tag_190:\n      eq\n        /* \"Voting/Voting.sol\":1372:1501  require(... */\n      tag_192\n      jumpi\n      mload(0x40)\n      0x08c379a000000000000000000000000000000000000000000000000000000000\n      dup2\n      mstore\n      0x04\n      add\n      tag_193\n      swap1\n      tag_194\n      jump\t// in\n    tag_193:\n      mload(0x40)\n      dup1\n      swap2\n      sub\n      swap1\n      revert\n    tag_192:\n        /* \"Voting/Voting.sol\":1310:1508  function _isRegisteringVotersStatus() internal view {... */\n      jump\t// out\n        /* \"@openzeppelin/contracts/access/Ownable.sol\":2433:2620  function _transferOwnership(address newOwner) internal virtual {... */\n    tag_57:\n        /* \"@openzeppelin/contracts/access/Ownable.sol\":2506:2522  address oldOwner */\n      0x00\n        /* \"@openzeppelin/contracts/access/Ownable.sol\":2525:2531  _owner */\n      dup1\n      0x00\n      swap1\n      sload\n      swap1\n      0x0100\n      exp\n      swap1\n      div\n      0xffffffffffffffffffffffffffffffffffffffff\n      and\n        /* \"@openzeppelin/contracts/access/Ownable.sol\":2506:2531  address oldOwner = _owner */\n      swap1\n      pop\n        /* \"@openzeppelin/contracts/access/Ownable.sol\":2550:2558  newOwner */\n      dup2\n        /* \"@openzeppelin/contracts/access/Ownable.sol\":2541:2547  _owner */\n      0x00\n      dup1\n        /* \"@openzeppelin/contracts/access/Ownable.sol\":2541:2558  _owner = newOwner */\n      0x0100\n      exp\n      dup2\n      sload\n      dup2\n      0xffffffffffffffffffffffffffffffffffffffff\n      mul\n      not\n      and\n      swap1\n      dup4\n      0xffffffffffffffffffffffffffffffffffffffff\n      and\n      mul\n      or\n      swap1\n      sstore\n      pop\n        /* \"@openzeppelin/contracts/access/Ownable.sol\":2604:2612  newOwner */\n      dup2\n        /* \"@openzeppelin/contracts/access/Ownable.sol\":2573:2613  OwnershipTransferred(oldOwner, newOwner) */\n      0xffffffffffffffffffffffffffffffffffffffff\n      and\n        /* \"@openzeppelin/contracts/access/Ownable.sol\":2594:2602  oldOwner */\n      dup2\n        /* \"@openzeppelin/contracts/access/Ownable.sol\":2573:2613  OwnershipTransferred(oldOwner, newOwner) */\n      0xffffffffffffffffffffffffffffffffffffffff\n      and\n      0x8be0079c531659141344cd1fd0a4f28419497f9722a3daafe3b4186f6b6457e0\n      mload(0x40)\n      mload(0x40)\n      dup1\n      swap2\n      sub\n      swap1\n      log3\n        /* \"@openzeppelin/contracts/access/Ownable.sol\":2496:2620  {... */\n      pop\n        /* \"@openzeppelin/contracts/access/Ownable.sol\":2433:2620  function _transferOwnership(address newOwner) internal virtual {... */\n      pop\n      jump\t// out\n        /* \"@openzeppelin/contracts/utils/Context.sol\":640:736  function _msgSender() internal view virtual returns (address) {... */\n    tag_84:\n        /* \"@openzeppelin/contracts/utils/Context.sol\":693:700  address */\n      0x00\n        /* \"@openzeppelin/contracts/utils/Context.sol\":719:729  msg.sender */\n      caller\n        /* \"@openzeppelin/contracts/utils/Context.sol\":712:729  return msg.sender */\n      swap1\n      pop\n        /* \"@openzeppelin/contracts/utils/Context.sol\":640:736  function _msgSender() internal view virtual returns (address) {... */\n      swap1\n      jump\t// out\n        /* \"#utility.yul\":7:187   */\n    tag_45:\n        /* \"#utility.yul\":55:132   */\n      0x4e487b7100000000000000000000000000000000000000000000000000000000\n        /* \"#utility.yul\":52:53   */\n      0x00\n        /* \"#utility.yul\":45:133   */\n      mstore\n        /* \"#utility.yul\":152:156   */\n      0x21\n        /* \"#utility.yul\":149:150   */\n      0x04\n        /* \"#utility.yul\":142:157   */\n      mstore\n        /* \"#utility.yul\":176:180   */\n      0x24\n        /* \"#utility.yul\":173:174   */\n      0x00\n        /* \"#utility.yul\":166:181   */\n      revert\n        /* \"#utility.yul\":193:316   */\n    tag_197:\n        /* \"#utility.yul\":284:285   */\n      0x06\n        /* \"#utility.yul\":277:282   */\n      dup2\n        /* \"#utility.yul\":274:286   */\n      lt\n        /* \"#utility.yul\":264:310   */\n      tag_234\n      jumpi\n        /* \"#utility.yul\":290:308   */\n      tag_235\n      tag_45\n      jump\t// in\n    tag_235:\n        /* \"#utility.yul\":264:310   */\n    tag_234:\n        /* \"#utility.yul\":193:316   */\n      pop\n      jump\t// out\n        /* \"#utility.yul\":322:469   */\n    tag_198:\n        /* \"#utility.yul\":377:384   */\n      0x00\n        /* \"#utility.yul\":406:411   */\n      dup2\n        /* \"#utility.yul\":395:411   */\n      swap1\n      pop\n        /* \"#utility.yul\":412:463   */\n      tag_237\n        /* \"#utility.yul\":457:462   */\n      dup3\n        /* \"#utility.yul\":412:463   */\n      tag_197\n      jump\t// in\n    tag_237:\n        /* \"#utility.yul\":322:469   */\n      swap2\n      swap1\n      pop\n      jump\t// out\n        /* \"#utility.yul\":475:622   */\n    tag_199:\n        /* \"#utility.yul\":541:550   */\n      0x00\n        /* \"#utility.yul\":574:616   */\n      tag_239\n        /* \"#utility.yul\":610:615   */\n      dup3\n        /* \"#utility.yul\":574:616   */\n      tag_198\n      jump\t// in\n    tag_239:\n        /* \"#utility.yul\":561:616   */\n      swap1\n      pop\n        /* \"#utility.yul\":475:622   */\n      swap2\n      swap1\n      pop\n      jump\t// out\n        /* \"#utility.yul\":628:791   */\n    tag_200:\n        /* \"#utility.yul\":731:784   */\n      tag_241\n        /* \"#utility.yul\":778:783   */\n      dup2\n        /* \"#utility.yul\":731:784   */\n      tag_199\n      jump\t// in\n    tag_241:\n        /* \"#utility.yul\":726:729   */\n      dup3\n        /* \"#utility.yul\":719:785   */\n      mstore\n        /* \"#utility.yul\":628:791   */\n      pop\n      pop\n      jump\t// out\n        /* \"#utility.yul\":797:1051   */\n    tag_14:\n        /* \"#utility.yul\":906:910   */\n      0x00\n        /* \"#utility.yul\":944:946   */\n      0x20\n        /* \"#utility.yul\":933:942   */\n      dup3\n        /* \"#utility.yul\":929:947   */\n      add\n        /* \"#utility.yul\":921:947   */\n      swap1\n      pop\n        /* \"#utility.yul\":957:1044   */\n      tag_243\n        /* \"#utility.yul\":1041:1042   */\n      0x00\n        /* \"#utility.yul\":1030:1039   */\n      dup4\n        /* \"#utility.yul\":1026:1043   */\n      add\n        /* \"#utility.yul\":1017:1023   */\n      dup5\n        /* \"#utility.yul\":957:1044   */\n      tag_200\n      jump\t// in\n    tag_243:\n        /* \"#utility.yul\":797:1051   */\n      swap3\n      swap2\n      pop\n      pop\n      jump\t// out\n        /* \"#utility.yul\":1057:1132   */\n    tag_201:\n        /* \"#utility.yul\":1090:1096   */\n      0x00\n        /* \"#utility.yul\":1123:1125   */\n      0x40\n        /* \"#utility.yul\":1117:1126   */\n      mload\n        /* \"#utility.yul\":1107:1126   */\n      swap1\n      pop\n        /* \"#utility.yul\":1057:1132   */\n      swap1\n      jump\t// out\n        /* \"#utility.yul\":1138:1255   */\n    tag_202:\n        /* \"#utility.yul\":1247:1248   */\n      0x00\n        /* \"#utility.yul\":1244:1245   */\n      dup1\n        /* \"#utility.yul\":1237:1249   */\n      revert\n        /* \"#utility.yul\":1261:1378   */\n    tag_203:\n        /* \"#utility.yul\":1370:1371   */\n      0x00\n        /* \"#utility.yul\":1367:1368   */\n      dup1\n        /* \"#utility.yul\":1360:1372   */\n      revert\n        /* \"#utility.yul\":1384:1501   */\n    tag_204:\n        /* \"#utility.yul\":1475:1476   */\n      0x06\n        /* \"#utility.yul\":1468:1473   */\n      dup2\n        /* \"#utility.yul\":1465:1477   */\n      lt\n        /* \"#utility.yul\":1455:1495   */\n      tag_248\n      jumpi\n        /* \"#utility.yul\":1491:1492   */\n      0x00\n        /* \"#utility.yul\":1488:1489   */\n      dup1\n        /* \"#utility.yul\":1481:1493   */\n      revert\n        /* \"#utility.yul\":1455:1495   */\n    tag_248:\n        /* \"#utility.yul\":1384:1501   */\n      pop\n      jump\t// out\n        /* \"#utility.yul\":1507:1682   */\n    tag_205:\n        /* \"#utility.yul\":1571:1576   */\n      0x00\n        /* \"#utility.yul\":1609:1615   */\n      dup2\n        /* \"#utility.yul\":1596:1616   */\n      calldataload\n        /* \"#utility.yul\":1587:1616   */\n      swap1\n      pop\n        /* \"#utility.yul\":1625:1676   */\n      tag_250\n        /* \"#utility.yul\":1670:1675   */\n      dup2\n        /* \"#utility.yul\":1625:1676   */\n      tag_204\n      jump\t// in\n    tag_250:\n        /* \"#utility.yul\":1507:1682   */\n      swap3\n      swap2\n      pop\n      pop\n      jump\t// out\n        /* \"#utility.yul\":1688:2053   */\n    tag_17:\n        /* \"#utility.yul\":1765:1771   */\n      0x00\n        /* \"#utility.yul\":1814:1816   */\n      0x20\n        /* \"#utility.yul\":1802:1811   */\n      dup3\n        /* \"#utility.yul\":1793:1800   */\n      dup5\n        /* \"#utility.yul\":1789:1812   */\n      sub\n        /* \"#utility.yul\":1785:1817   */\n      slt\n        /* \"#utility.yul\":1782:1901   */\n      iszero\n      tag_252\n      jumpi\n        /* \"#utility.yul\":1820:1899   */\n      tag_253\n      tag_202\n      jump\t// in\n    tag_253:\n        /* \"#utility.yul\":1782:1901   */\n    tag_252:\n        /* \"#utility.yul\":1940:1941   */\n      0x00\n        /* \"#utility.yul\":1965:2036   */\n      tag_254\n        /* \"#utility.yul\":2028:2035   */\n      dup5\n        /* \"#utility.yul\":2019:2025   */\n      dup3\n        /* \"#utility.yul\":2008:2017   */\n      dup6\n        /* \"#utility.yul\":2004:2026   */\n      add\n        /* \"#utility.yul\":1965:2036   */\n      tag_205\n      jump\t// in\n    tag_254:\n        /* \"#utility.yul\":1955:2036   */\n      swap2\n      pop\n        /* \"#utility.yul\":1911:2046   */\n      pop\n        /* \"#utility.yul\":1688:2053   */\n      swap3\n      swap2\n      pop\n      pop\n      jump\t// out\n        /* \"#utility.yul\":2059:2185   */\n    tag_206:\n        /* \"#utility.yul\":2096:2103   */\n      0x00\n        /* \"#utility.yul\":2136:2178   */\n      0xffffffffffffffffffffffffffffffffffffffff\n        /* \"#utility.yul\":2129:2134   */\n      dup3\n        /* \"#utility.yul\":2125:2179   */\n      and\n        /* \"#utility.yul\":2114:2179   */\n      swap1\n      pop\n        /* \"#utility.yul\":2059:2185   */\n      swap2\n      swap1\n      pop\n      jump\t// out\n        /* \"#utility.yul\":2191:2287   */\n    tag_207:\n        /* \"#utility.yul\":2228:2235   */\n      0x00\n        /* \"#utility.yul\":2257:2281   */\n      tag_257\n        /* \"#utility.yul\":2275:2280   */\n      dup3\n        /* \"#utility.yul\":2257:2281   */\n      tag_206\n      jump\t// in\n    tag_257:\n        /* \"#utility.yul\":2246:2281   */\n      swap1\n      pop\n        /* \"#utility.yul\":2191:2287   */\n      swap2\n      swap1\n      pop\n      jump\t// out\n        /* \"#utility.yul\":2293:2415   */\n    tag_208:\n        /* \"#utility.yul\":2366:2390   */\n      tag_259\n        /* \"#utility.yul\":2384:2389   */\n      dup2\n        /* \"#utility.yul\":2366:2390   */\n      tag_207\n      jump\t// in\n    tag_259:\n        /* \"#utility.yul\":2359:2364   */\n      dup2\n        /* \"#utility.yul\":2356:2391   */\n      eq\n        /* \"#utility.yul\":2346:2409   */\n      tag_260\n      jumpi\n        /* \"#utility.yul\":2405:2406   */\n      0x00\n        /* \"#utility.yul\":2402:2403   */\n      dup1\n        /* \"#utility.yul\":2395:2407   */\n      revert\n        /* \"#utility.yul\":2346:2409   */\n    tag_260:\n        /* \"#utility.yul\":2293:2415   */\n      pop\n      jump\t// out\n        /* \"#utility.yul\":2421:2560   */\n    tag_209:\n        /* \"#utility.yul\":2467:2472   */\n      0x00\n        /* \"#utility.yul\":2505:2511   */\n      dup2\n        /* \"#utility.yul\":2492:2512   */\n      calldataload\n        /* \"#utility.yul\":2483:2512   */\n      swap1\n      pop\n        /* \"#utility.yul\":2521:2554   */\n      tag_262\n        /* \"#utility.yul\":2548:2553   */\n      dup2\n        /* \"#utility.yul\":2521:2554   */\n      tag_208\n      jump\t// in\n    tag_262:\n        /* \"#utility.yul\":2421:2560   */\n      swap3\n      swap2\n      pop\n      pop\n      jump\t// out\n        /* \"#utility.yul\":2566:2895   */\n    tag_21:\n        /* \"#utility.yul\":2625:2631   */\n      0x00\n        /* \"#utility.yul\":2674:2676   */\n      0x20\n        /* \"#utility.yul\":2662:2671   */\n      dup3\n        /* \"#utility.yul\":2653:2660   */\n      dup5\n        /* \"#utility.yul\":2649:2672   */\n      sub\n        /* \"#utility.yul\":2645:2677   */\n      slt\n        /* \"#utility.yul\":2642:2761   */\n      iszero\n      tag_264\n      jumpi\n        /* \"#utility.yul\":2680:2759   */\n      tag_265\n      tag_202\n      jump\t// in\n    tag_265:\n        /* \"#utility.yul\":2642:2761   */\n    tag_264:\n        /* \"#utility.yul\":2800:2801   */\n      0x00\n        /* \"#utility.yul\":2825:2878   */\n      tag_266\n        /* \"#utility.yul\":2870:2877   */\n      dup5\n        /* \"#utility.yul\":2861:2867   */\n      dup3\n        /* \"#utility.yul\":2850:2859   */\n      dup6\n        /* \"#utility.yul\":2846:2868   */\n      add\n        /* \"#utility.yul\":2825:2878   */\n      tag_209\n      jump\t// in\n    tag_266:\n        /* \"#utility.yul\":2815:2878   */\n      swap2\n      pop\n        /* \"#utility.yul\":2771:2888   */\n      pop\n        /* \"#utility.yul\":2566:2895   */\n      swap3\n      swap2\n      pop\n      pop\n      jump\t// out\n        /* \"#utility.yul\":2901:3019   */\n    tag_210:\n        /* \"#utility.yul\":2988:3012   */\n      tag_268\n        /* \"#utility.yul\":3006:3011   */\n      dup2\n        /* \"#utility.yul\":2988:3012   */\n      tag_207\n      jump\t// in\n    tag_268:\n        /* \"#utility.yul\":2983:2986   */\n      dup3\n        /* \"#utility.yul\":2976:3013   */\n      mstore\n        /* \"#utility.yul\":2901:3019   */\n      pop\n      pop\n      jump\t// out\n        /* \"#utility.yul\":3025:3247   */\n    tag_28:\n        /* \"#utility.yul\":3118:3122   */\n      0x00\n        /* \"#utility.yul\":3156:3158   */\n      0x20\n        /* \"#utility.yul\":3145:3154   */\n      dup3\n        /* \"#utility.yul\":3141:3159   */\n      add\n        /* \"#utility.yul\":3133:3159   */\n      swap1\n      pop\n        /* \"#utility.yul\":3169:3240   */\n      tag_270\n        /* \"#utility.yul\":3237:3238   */\n      0x00\n        /* \"#utility.yul\":3226:3235   */\n      dup4\n        /* \"#utility.yul\":3222:3239   */\n      add\n        /* \"#utility.yul\":3213:3219   */\n      dup5\n        /* \"#utility.yul\":3169:3240   */\n      tag_210\n      jump\t// in\n    tag_270:\n        /* \"#utility.yul\":3025:3247   */\n      swap3\n      swap2\n      pop\n      pop\n      jump\t// out\n        /* \"#utility.yul\":3253:3370   */\n    tag_211:\n        /* \"#utility.yul\":3362:3363   */\n      0x00\n        /* \"#utility.yul\":3359:3360   */\n      dup1\n        /* \"#utility.yul\":3352:3364   */\n      revert\n        /* \"#utility.yul\":3376:3478   */\n    tag_212:\n        /* \"#utility.yul\":3417:3423   */\n      0x00\n        /* \"#utility.yul\":3468:3470   */\n      0x1f\n        /* \"#utility.yul\":3464:3471   */\n      not\n        /* \"#utility.yul\":3459:3461   */\n      0x1f\n        /* \"#utility.yul\":3452:3457   */\n      dup4\n        /* \"#utility.yul\":3448:3462   */\n      add\n        /* \"#utility.yul\":3444:3472   */\n      and\n        /* \"#utility.yul\":3434:3472   */\n      swap1\n      pop\n        /* \"#utility.yul\":3376:3478   */\n      swap2\n      swap1\n      pop\n      jump\t// out\n        /* \"#utility.yul\":3484:3664   */\n    tag_213:\n        /* \"#utility.yul\":3532:3609   */\n      0x4e487b7100000000000000000000000000000000000000000000000000000000\n        /* \"#utility.yul\":3529:3530   */\n      0x00\n        /* \"#utility.yul\":3522:3610   */\n      mstore\n        /* \"#utility.yul\":3629:3633   */\n      0x41\n        /* \"#utility.yul\":3626:3627   */\n      0x04\n        /* \"#utility.yul\":3619:3634   */\n      mstore\n        /* \"#utility.yul\":3653:3657   */\n      0x24\n        /* \"#utility.yul\":3650:3651   */\n      0x00\n        /* \"#utility.yul\":3643:3658   */\n      revert\n        /* \"#utility.yul\":3670:3951   */\n    tag_214:\n        /* \"#utility.yul\":3753:3780   */\n      tag_275\n        /* \"#utility.yul\":3775:3779   */\n      dup3\n        /* \"#utility.yul\":3753:3780   */\n      tag_212\n      jump\t// in\n    tag_275:\n        /* \"#utility.yul\":3745:3751   */\n      dup2\n        /* \"#utility.yul\":3741:3781   */\n      add\n        /* \"#utility.yul\":3883:3889   */\n      dup2\n        /* \"#utility.yul\":3871:3881   */\n      dup2\n        /* \"#utility.yul\":3868:3890   */\n      lt\n        /* \"#utility.yul\":3847:3865   */\n      0xffffffffffffffff\n        /* \"#utility.yul\":3835:3845   */\n      dup3\n        /* \"#utility.yul\":3832:3866   */\n      gt\n        /* \"#utility.yul\":3829:3891   */\n      or\n        /* \"#utility.yul\":3826:3914   */\n      iszero\n      tag_276\n      jumpi\n        /* \"#utility.yul\":3894:3912   */\n      tag_277\n      tag_213\n      jump\t// in\n    tag_277:\n        /* \"#utility.yul\":3826:3914   */\n    tag_276:\n        /* \"#utility.yul\":3934:3944   */\n      dup1\n        /* \"#utility.yul\":3930:3932   */\n      0x40\n        /* \"#utility.yul\":3923:3945   */\n      mstore\n        /* \"#utility.yul\":3713:3951   */\n      pop\n        /* \"#utility.yul\":3670:3951   */\n      pop\n      pop\n      jump\t// out\n        /* \"#utility.yul\":3957:4086   */\n    tag_215:\n        /* \"#utility.yul\":3991:3997   */\n      0x00\n        /* \"#utility.yul\":4018:4038   */\n      tag_279\n      tag_201\n      jump\t// in\n    tag_279:\n        /* \"#utility.yul\":4008:4038   */\n      swap1\n      pop\n        /* \"#utility.yul\":4047:4080   */\n      tag_280\n        /* \"#utility.yul\":4075:4079   */\n      dup3\n        /* \"#utility.yul\":4067:4073   */\n      dup3\n        /* \"#utility.yul\":4047:4080   */\n      tag_214\n      jump\t// in\n    tag_280:\n        /* \"#utility.yul\":3957:4086   */\n      swap2\n      swap1\n      pop\n      jump\t// out\n        /* \"#utility.yul\":4092:4403   */\n    tag_216:\n        /* \"#utility.yul\":4169:4173   */\n      0x00\n        /* \"#utility.yul\":4259:4277   */\n      0xffffffffffffffff\n        /* \"#utility.yul\":4251:4257   */\n      dup3\n        /* \"#utility.yul\":4248:4278   */\n      gt\n        /* \"#utility.yul\":4245:4301   */\n      iszero\n      tag_282\n      jumpi\n        /* \"#utility.yul\":4281:4299   */\n      tag_283\n      tag_213\n      jump\t// in\n    tag_283:\n        /* \"#utility.yul\":4245:4301   */\n    tag_282:\n        /* \"#utility.yul\":4331:4335   */\n      0x20\n        /* \"#utility.yul\":4323:4329   */\n      dup3\n        /* \"#utility.yul\":4319:4336   */\n      mul\n        /* \"#utility.yul\":4311:4336   */\n      swap1\n      pop\n        /* \"#utility.yul\":4391:4395   */\n      0x20\n        /* \"#utility.yul\":4385:4389   */\n      dup2\n        /* \"#utility.yul\":4381:4396   */\n      add\n        /* \"#utility.yul\":4373:4396   */\n      swap1\n      pop\n        /* \"#utility.yul\":4092:4403   */\n      swap2\n      swap1\n      pop\n      jump\t// out\n        /* \"#utility.yul\":4409:4526   */\n    tag_217:\n        /* \"#utility.yul\":4518:4519   */\n      0x00\n        /* \"#utility.yul\":4515:4516   */\n      dup1\n        /* \"#utility.yul\":4508:4520   */\n      revert\n        /* \"#utility.yul\":4549:5259   */\n    tag_218:\n        /* \"#utility.yul\":4645:4650   */\n      0x00\n        /* \"#utility.yul\":4670:4751   */\n      tag_286\n        /* \"#utility.yul\":4686:4750   */\n      tag_287\n        /* \"#utility.yul\":4743:4749   */\n      dup5\n        /* \"#utility.yul\":4686:4750   */\n      tag_216\n      jump\t// in\n    tag_287:\n        /* \"#utility.yul\":4670:4751   */\n      tag_215\n      jump\t// in\n    tag_286:\n        /* \"#utility.yul\":4661:4751   */\n      swap1\n      pop\n        /* \"#utility.yul\":4771:4776   */\n      dup1\n        /* \"#utility.yul\":4800:4806   */\n      dup4\n        /* \"#utility.yul\":4793:4798   */\n      dup3\n        /* \"#utility.yul\":4786:4807   */\n      mstore\n        /* \"#utility.yul\":4834:4838   */\n      0x20\n        /* \"#utility.yul\":4827:4832   */\n      dup3\n        /* \"#utility.yul\":4823:4839   */\n      add\n        /* \"#utility.yul\":4816:4839   */\n      swap1\n      pop\n        /* \"#utility.yul\":4887:4891   */\n      0x20\n        /* \"#utility.yul\":4879:4885   */\n      dup5\n        /* \"#utility.yul\":4875:4892   */\n      mul\n        /* \"#utility.yul\":4867:4873   */\n      dup4\n        /* \"#utility.yul\":4863:4893   */\n      add\n        /* \"#utility.yul\":4916:4919   */\n      dup6\n        /* \"#utility.yul\":4908:4914   */\n      dup2\n        /* \"#utility.yul\":4905:4920   */\n      gt\n        /* \"#utility.yul\":4902:5024   */\n      iszero\n      tag_288\n      jumpi\n        /* \"#utility.yul\":4935:5014   */\n      tag_289\n      tag_217\n      jump\t// in\n    tag_289:\n        /* \"#utility.yul\":4902:5024   */\n    tag_288:\n        /* \"#utility.yul\":5050:5056   */\n      dup4\n        /* \"#utility.yul\":5033:5253   */\n    tag_290:\n        /* \"#utility.yul\":5067:5073   */\n      dup2\n        /* \"#utility.yul\":5062:5065   */\n      dup2\n        /* \"#utility.yul\":5059:5074   */\n      lt\n        /* \"#utility.yul\":5033:5253   */\n      iszero\n      tag_292\n      jumpi\n        /* \"#utility.yul\":5142:5145   */\n      dup1\n        /* \"#utility.yul\":5171:5208   */\n      tag_293\n        /* \"#utility.yul\":5204:5207   */\n      dup9\n        /* \"#utility.yul\":5192:5202   */\n      dup3\n        /* \"#utility.yul\":5171:5208   */\n      tag_209\n      jump\t// in\n    tag_293:\n        /* \"#utility.yul\":5166:5169   */\n      dup5\n        /* \"#utility.yul\":5159:5209   */\n      mstore\n        /* \"#utility.yul\":5238:5242   */\n      0x20\n        /* \"#utility.yul\":5233:5236   */\n      dup5\n        /* \"#utility.yul\":5229:5243   */\n      add\n        /* \"#utility.yul\":5222:5243   */\n      swap4\n      pop\n        /* \"#utility.yul\":5109:5253   */\n      pop\n        /* \"#utility.yul\":5093:5097   */\n      0x20\n        /* \"#utility.yul\":5088:5091   */\n      dup2\n        /* \"#utility.yul\":5084:5098   */\n      add\n        /* \"#utility.yul\":5077:5098   */\n      swap1\n      pop\n        /* \"#utility.yul\":5033:5253   */\n      jump(tag_290)\n    tag_292:\n        /* \"#utility.yul\":5037:5058   */\n      pop\n        /* \"#utility.yul\":4651:5259   */\n      pop\n      pop\n        /* \"#utility.yul\":4549:5259   */\n      swap4\n      swap3\n      pop\n      pop\n      pop\n      jump\t// out\n        /* \"#utility.yul\":5282:5652   */\n    tag_219:\n        /* \"#utility.yul\":5353:5358   */\n      0x00\n        /* \"#utility.yul\":5402:5405   */\n      dup3\n        /* \"#utility.yul\":5395:5399   */\n      0x1f\n        /* \"#utility.yul\":5387:5393   */\n      dup4\n        /* \"#utility.yul\":5383:5400   */\n      add\n        /* \"#utility.yul\":5379:5406   */\n      slt\n        /* \"#utility.yul\":5369:5491   */\n      tag_295\n      jumpi\n        /* \"#utility.yul\":5410:5489   */\n      tag_296\n      tag_211\n      jump\t// in\n    tag_296:\n        /* \"#utility.yul\":5369:5491   */\n    tag_295:\n        /* \"#utility.yul\":5527:5533   */\n      dup2\n        /* \"#utility.yul\":5514:5534   */\n      calldataload\n        /* \"#utility.yul\":5552:5646   */\n      tag_297\n        /* \"#utility.yul\":5642:5645   */\n      dup5\n        /* \"#utility.yul\":5634:5640   */\n      dup3\n        /* \"#utility.yul\":5627:5631   */\n      0x20\n        /* \"#utility.yul\":5619:5625   */\n      dup7\n        /* \"#utility.yul\":5615:5632   */\n      add\n        /* \"#utility.yul\":5552:5646   */\n      tag_218\n      jump\t// in\n    tag_297:\n        /* \"#utility.yul\":5543:5646   */\n      swap2\n      pop\n        /* \"#utility.yul\":5359:5652   */\n      pop\n        /* \"#utility.yul\":5282:5652   */\n      swap3\n      swap2\n      pop\n      pop\n      jump\t// out\n        /* \"#utility.yul\":5658:6197   */\n    tag_31:\n        /* \"#utility.yul\":5742:5748   */\n      0x00\n        /* \"#utility.yul\":5791:5793   */\n      0x20\n        /* \"#utility.yul\":5779:5788   */\n      dup3\n        /* \"#utility.yul\":5770:5777   */\n      dup5\n        /* \"#utility.yul\":5766:5789   */\n      sub\n        /* \"#utility.yul\":5762:5794   */\n      slt\n        /* \"#utility.yul\":5759:5878   */\n      iszero\n      tag_299\n      jumpi\n        /* \"#utility.yul\":5797:5876   */\n      tag_300\n      tag_202\n      jump\t// in\n    tag_300:\n        /* \"#utility.yul\":5759:5878   */\n    tag_299:\n        /* \"#utility.yul\":5945:5946   */\n      0x00\n        /* \"#utility.yul\":5934:5943   */\n      dup3\n        /* \"#utility.yul\":5930:5947   */\n      add\n        /* \"#utility.yul\":5917:5948   */\n      calldataload\n        /* \"#utility.yul\":5975:5993   */\n      0xffffffffffffffff\n        /* \"#utility.yul\":5967:5973   */\n      dup2\n        /* \"#utility.yul\":5964:5994   */\n      gt\n        /* \"#utility.yul\":5961:6078   */\n      iszero\n      tag_301\n      jumpi\n        /* \"#utility.yul\":5997:6076   */\n      tag_302\n      tag_203\n      jump\t// in\n    tag_302:\n        /* \"#utility.yul\":5961:6078   */\n    tag_301:\n        /* \"#utility.yul\":6102:6180   */\n      tag_303\n        /* \"#utility.yul\":6172:6179   */\n      dup5\n        /* \"#utility.yul\":6163:6169   */\n      dup3\n        /* \"#utility.yul\":6152:6161   */\n      dup6\n        /* \"#utility.yul\":6148:6170   */\n      add\n        /* \"#utility.yul\":6102:6180   */\n      tag_219\n      jump\t// in\n    tag_303:\n        /* \"#utility.yul\":6092:6180   */\n      swap2\n      pop\n        /* \"#utility.yul\":5888:6190   */\n      pop\n        /* \"#utility.yul\":5658:6197   */\n      swap3\n      swap2\n      pop\n      pop\n      jump\t// out\n        /* \"#utility.yul\":6203:6383   */\n    tag_69:\n        /* \"#utility.yul\":6251:6328   */\n      0x4e487b7100000000000000000000000000000000000000000000000000000000\n        /* \"#utility.yul\":6248:6249   */\n      0x00\n        /* \"#utility.yul\":6241:6329   */\n      mstore\n        /* \"#utility.yul\":6348:6352   */\n      0x32\n        /* \"#utility.yul\":6345:6346   */\n      0x04\n        /* \"#utility.yul\":6338:6353   */\n      mstore\n        /* \"#utility.yul\":6372:6376   */\n      0x24\n        /* \"#utility.yul\":6369:6370   */\n      0x00\n        /* \"#utility.yul\":6362:6377   */\n      revert\n        /* \"#utility.yul\":6389:6569   */\n    tag_220:\n        /* \"#utility.yul\":6437:6514   */\n      0x4e487b7100000000000000000000000000000000000000000000000000000000\n        /* \"#utility.yul\":6434:6435   */\n      0x00\n        /* \"#utility.yul\":6427:6515   */\n      mstore\n        /* \"#utility.yul\":6534:6538   */\n      0x11\n        /* \"#utility.yul\":6531:6532   */\n      0x04\n        /* \"#utility.yul\":6524:6539   */\n      mstore\n        /* \"#utility.yul\":6558:6562   */\n      0x24\n        /* \"#utility.yul\":6555:6556   */\n      0x00\n        /* \"#utility.yul\":6548:6563   */\n      revert\n        /* \"#utility.yul\":6575:6652   */\n    tag_221:\n        /* \"#utility.yul\":6612:6619   */\n      0x00\n        /* \"#utility.yul\":6641:6646   */\n      dup2\n        /* \"#utility.yul\":6630:6646   */\n      swap1\n      pop\n        /* \"#utility.yul\":6575:6652   */\n      swap2\n      swap1\n      pop\n      jump\t// out\n        /* \"#utility.yul\":6658:6891   */\n    tag_74:\n        /* \"#utility.yul\":6697:6700   */\n      0x00\n        /* \"#utility.yul\":6720:6744   */\n      tag_308\n        /* \"#utility.yul\":6738:6743   */\n      dup3\n        /* \"#utility.yul\":6720:6744   */\n      tag_221\n      jump\t// in\n    tag_308:\n        /* \"#utility.yul\":6711:6744   */\n      swap2\n      pop\n        /* \"#utility.yul\":6766:6832   */\n      0xffffffffffffffffffffffffffffffffffffffffffffffffffffffffffffffff\n        /* \"#utility.yul\":6759:6764   */\n      dup3\n        /* \"#utility.yul\":6756:6833   */\n      sub\n        /* \"#utility.yul\":6753:6856   */\n      tag_309\n      jumpi\n        /* \"#utility.yul\":6836:6854   */\n      tag_310\n      tag_220\n      jump\t// in\n    tag_310:\n        /* \"#utility.yul\":6753:6856   */\n    tag_309:\n        /* \"#utility.yul\":6883:6884   */\n      0x01\n        /* \"#utility.yul\":6876:6881   */\n      dup3\n        /* \"#utility.yul\":6872:6885   */\n      add\n        /* \"#utility.yul\":6865:6885   */\n      swap1\n      pop\n        /* \"#utility.yul\":6658:6891   */\n      swap2\n      swap1\n      pop\n      jump\t// out\n        /* \"#utility.yul\":6897:7066   */\n    tag_222:\n        /* \"#utility.yul\":6981:6992   */\n      0x00\n        /* \"#utility.yul\":7015:7021   */\n      dup3\n        /* \"#utility.yul\":7010:7013   */\n      dup3\n        /* \"#utility.yul\":7003:7022   */\n      mstore\n        /* \"#utility.yul\":7055:7059   */\n      0x20\n        /* \"#utility.yul\":7050:7053   */\n      dup3\n        /* \"#utility.yul\":7046:7060   */\n      add\n        /* \"#utility.yul\":7031:7060   */\n      swap1\n      pop\n        /* \"#utility.yul\":6897:7066   */\n      swap3\n      swap2\n      pop\n      pop\n      jump\t// out\n        /* \"#utility.yul\":7072:7297   */\n    tag_223:\n        /* \"#utility.yul\":7212:7246   */\n      0x4f776e61626c653a206e6577206f776e657220697320746865207a65726f2061\n        /* \"#utility.yul\":7208:7209   */\n      0x00\n        /* \"#utility.yul\":7200:7206   */\n      dup3\n        /* \"#utility.yul\":7196:7210   */\n      add\n        /* \"#utility.yul\":7189:7247   */\n      mstore\n        /* \"#utility.yul\":7281:7289   */\n      0x6464726573730000000000000000000000000000000000000000000000000000\n        /* \"#utility.yul\":7276:7278   */\n      0x20\n        /* \"#utility.yul\":7268:7274   */\n      dup3\n        /* \"#utility.yul\":7264:7279   */\n      add\n        /* \"#utility.yul\":7257:7290   */\n      mstore\n        /* \"#utility.yul\":7072:7297   */\n      pop\n      jump\t// out\n        /* \"#utility.yul\":7303:7669   */\n    tag_224:\n        /* \"#utility.yul\":7445:7448   */\n      0x00\n        /* \"#utility.yul\":7466:7533   */\n      tag_314\n        /* \"#utility.yul\":7530:7532   */\n      0x26\n        /* \"#utility.yul\":7525:7528   */\n      dup4\n        /* \"#utility.yul\":7466:7533   */\n      tag_222\n      jump\t// in\n    tag_314:\n        /* \"#utility.yul\":7459:7533   */\n      swap2\n      pop\n        /* \"#utility.yul\":7542:7635   */\n      tag_315\n        /* \"#utility.yul\":7631:7634   */\n      dup3\n        /* \"#utility.yul\":7542:7635   */\n      tag_223\n      jump\t// in\n    tag_315:\n        /* \"#utility.yul\":7660:7662   */\n      0x40\n        /* \"#utility.yul\":7655:7658   */\n      dup3\n        /* \"#utility.yul\":7651:7663   */\n      add\n        /* \"#utility.yul\":7644:7663   */\n      swap1\n      pop\n        /* \"#utility.yul\":7303:7669   */\n      swap2\n      swap1\n      pop\n      jump\t// out\n        /* \"#utility.yul\":7675:8094   */\n    tag_80:\n        /* \"#utility.yul\":7841:7845   */\n      0x00\n        /* \"#utility.yul\":7879:7881   */\n      0x20\n        /* \"#utility.yul\":7868:7877   */\n      dup3\n        /* \"#utility.yul\":7864:7882   */\n      add\n        /* \"#utility.yul\":7856:7882   */\n      swap1\n      pop\n        /* \"#utility.yul\":7928:7937   */\n      dup2\n        /* \"#utility.yul\":7922:7926   */\n      dup2\n        /* \"#utility.yul\":7918:7938   */\n      sub\n        /* \"#utility.yul\":7914:7915   */\n      0x00\n        /* \"#utility.yul\":7903:7912   */\n      dup4\n        /* \"#utility.yul\":7899:7916   */\n      add\n        /* \"#utility.yul\":7892:7939   */\n      mstore\n        /* \"#utility.yul\":7956:8087   */\n      tag_317\n        /* \"#utility.yul\":8082:8086   */\n      dup2\n        /* \"#utility.yul\":7956:8087   */\n      tag_224\n      jump\t// in\n    tag_317:\n        /* \"#utility.yul\":7948:8087   */\n      swap1\n      pop\n        /* \"#utility.yul\":7675:8094   */\n      swap2\n      swap1\n      pop\n      jump\t// out\n        /* \"#utility.yul\":8100:8282   */\n    tag_225:\n        /* \"#utility.yul\":8240:8274   */\n      0x4f776e61626c653a2063616c6c6572206973206e6f7420746865206f776e6572\n        /* \"#utility.yul\":8236:8237   */\n      0x00\n        /* \"#utility.yul\":8228:8234   */\n      dup3\n        /* \"#utility.yul\":8224:8238   */\n      add\n        /* \"#utility.yul\":8217:8275   */\n      mstore\n        /* \"#utility.yul\":8100:8282   */\n      pop\n      jump\t// out\n        /* \"#utility.yul\":8288:8654   */\n    tag_226:\n        /* \"#utility.yul\":8430:8433   */\n      0x00\n        /* \"#utility.yul\":8451:8518   */\n      tag_320\n        /* \"#utility.yul\":8515:8517   */\n      0x20\n        /* \"#utility.yul\":8510:8513   */\n      dup4\n        /* \"#utility.yul\":8451:8518   */\n      tag_222\n      jump\t// in\n    tag_320:\n        /* \"#utility.yul\":8444:8518   */\n      swap2\n      pop\n        /* \"#utility.yul\":8527:8620   */\n      tag_321\n        /* \"#utility.yul\":8616:8619   */\n      dup3\n        /* \"#utility.yul\":8527:8620   */\n      tag_225\n      jump\t// in\n    tag_321:\n        /* \"#utility.yul\":8645:8647   */\n      0x20\n        /* \"#utility.yul\":8640:8643   */\n      dup3\n        /* \"#utility.yul\":8636:8648   */\n      add\n        /* \"#utility.yul\":8629:8648   */\n      swap1\n      pop\n        /* \"#utility.yul\":8288:8654   */\n      swap2\n      swap1\n      pop\n      jump\t// out\n        /* \"#utility.yul\":8660:9079   */\n    tag_88:\n        /* \"#utility.yul\":8826:8830   */\n      0x00\n        /* \"#utility.yul\":8864:8866   */\n      0x20\n        /* \"#utility.yul\":8853:8862   */\n      dup3\n        /* \"#utility.yul\":8849:8867   */\n      add\n        /* \"#utility.yul\":8841:8867   */\n      swap1\n      pop\n        /* \"#utility.yul\":8913:8922   */\n      dup2\n        /* \"#utility.yul\":8907:8911   */\n      dup2\n        /* \"#utility.yul\":8903:8923   */\n      sub\n        /* \"#utility.yul\":8899:8900   */\n      0x00\n        /* \"#utility.yul\":8888:8897   */\n      dup4\n        /* \"#utility.yul\":8884:8901   */\n      add\n        /* \"#utility.yul\":8877:8924   */\n      mstore\n        /* \"#utility.yul\":8941:9072   */\n      tag_323\n        /* \"#utility.yul\":9067:9071   */\n      dup2\n        /* \"#utility.yul\":8941:9072   */\n      tag_226\n      jump\t// in\n    tag_323:\n        /* \"#utility.yul\":8933:9072   */\n      swap1\n      pop\n        /* \"#utility.yul\":8660:9079   */\n      swap2\n      swap1\n      pop\n      jump\t// out\n        /* \"#utility.yul\":9085:9391   */\n    tag_227:\n        /* \"#utility.yul\":9225:9259   */\n      0x41637475616c20737461747573206973206e6f7420636f6d70617469626c6520\n        /* \"#utility.yul\":9221:9222   */\n      0x00\n        /* \"#utility.yul\":9213:9219   */\n      dup3\n        /* \"#utility.yul\":9209:9223   */\n      add\n        /* \"#utility.yul\":9202:9260   */\n      mstore\n        /* \"#utility.yul\":9294:9328   */\n      0x7769746820796f75722063686f696365202863686f6f73652070726576696f75\n        /* \"#utility.yul\":9289:9291   */\n      0x20\n        /* \"#utility.yul\":9281:9287   */\n      dup3\n        /* \"#utility.yul\":9277:9292   */\n      add\n        /* \"#utility.yul\":9270:9329   */\n      mstore\n        /* \"#utility.yul\":9363:9383   */\n      0x73206f6e65206f72206e657874206f6e65290000000000000000000000000000\n        /* \"#utility.yul\":9358:9360   */\n      0x40\n        /* \"#utility.yul\":9350:9356   */\n      dup3\n        /* \"#utility.yul\":9346:9361   */\n      add\n        /* \"#utility.yul\":9339:9384   */\n      mstore\n        /* \"#utility.yul\":9085:9391   */\n      pop\n      jump\t// out\n        /* \"#utility.yul\":9397:9763   */\n    tag_228:\n        /* \"#utility.yul\":9539:9542   */\n      0x00\n        /* \"#utility.yul\":9560:9627   */\n      tag_326\n        /* \"#utility.yul\":9624:9626   */\n      0x52\n        /* \"#utility.yul\":9619:9622   */\n      dup4\n        /* \"#utility.yul\":9560:9627   */\n      tag_222\n      jump\t// in\n    tag_326:\n        /* \"#utility.yul\":9553:9627   */\n      swap2\n      pop\n        /* \"#utility.yul\":9636:9729   */\n      tag_327\n        /* \"#utility.yul\":9725:9728   */\n      dup3\n        /* \"#utility.yul\":9636:9729   */\n      tag_227\n      jump\t// in\n    tag_327:\n        /* \"#utility.yul\":9754:9756   */\n      0x60\n        /* \"#utility.yul\":9749:9752   */\n      dup3\n        /* \"#utility.yul\":9745:9757   */\n      add\n        /* \"#utility.yul\":9738:9757   */\n      swap1\n      pop\n        /* \"#utility.yul\":9397:9763   */\n      swap2\n      swap1\n      pop\n      jump\t// out\n        /* \"#utility.yul\":9769:10188   */\n    tag_106:\n        /* \"#utility.yul\":9935:9939   */\n      0x00\n        /* \"#utility.yul\":9973:9975   */\n      0x20\n        /* \"#utility.yul\":9962:9971   */\n      dup3\n        /* \"#utility.yul\":9958:9976   */\n      add\n        /* \"#utility.yul\":9950:9976   */\n      swap1\n      pop\n        /* \"#utility.yul\":10022:10031   */\n      dup2\n        /* \"#utility.yul\":10016:10020   */\n      dup2\n        /* \"#utility.yul\":10012:10032   */\n      sub\n        /* \"#utility.yul\":10008:10009   */\n      0x00\n        /* \"#utility.yul\":9997:10006   */\n      dup4\n        /* \"#utility.yul\":9993:10010   */\n      add\n        /* \"#utility.yul\":9986:10033   */\n      mstore\n        /* \"#utility.yul\":10050:10181   */\n      tag_329\n        /* \"#utility.yul\":10176:10180   */\n      dup2\n        /* \"#utility.yul\":10050:10181   */\n      tag_228\n      jump\t// in\n    tag_329:\n        /* \"#utility.yul\":10042:10181   */\n      swap1\n      pop\n        /* \"#utility.yul\":9769:10188   */\n      swap2\n      swap1\n      pop\n      jump\t// out\n        /* \"#utility.yul\":10194:10421   */\n    tag_229:\n        /* \"#utility.yul\":10334:10368   */\n      0x726567697374726174696f6e20706572696f6420666f7220766f746572206973\n        /* \"#utility.yul\":10330:10331   */\n      0x00\n        /* \"#utility.yul\":10322:10328   */\n      dup3\n        /* \"#utility.yul\":10318:10332   */\n      add\n        /* \"#utility.yul\":10311:10369   */\n      mstore\n        /* \"#utility.yul\":10403:10413   */\n      0x20636c6f7365642e000000000000000000000000000000000000000000000000\n        /* \"#utility.yul\":10398:10400   */\n      0x20\n        /* \"#utility.yul\":10390:10396   */\n      dup3\n        /* \"#utility.yul\":10386:10401   */\n      add\n        /* \"#utility.yul\":10379:10414   */\n      mstore\n        /* \"#utility.yul\":10194:10421   */\n      pop\n      jump\t// out\n        /* \"#utility.yul\":10427:10793   */\n    tag_230:\n        /* \"#utility.yul\":10569:10572   */\n      0x00\n        /* \"#utility.yul\":10590:10657   */\n      tag_332\n        /* \"#utility.yul\":10654:10656   */\n      0x28\n        /* \"#utility.yul\":10649:10652   */\n      dup4\n        /* \"#utility.yul\":10590:10657   */\n      tag_222\n      jump\t// in\n    tag_332:\n        /* \"#utility.yul\":10583:10657   */\n      swap2\n      pop\n        /* \"#utility.yul\":10666:10759   */\n      tag_333\n        /* \"#utility.yul\":10755:10758   */\n      dup3\n        /* \"#utility.yul\":10666:10759   */\n      tag_229\n      jump\t// in\n    tag_333:\n        /* \"#utility.yul\":10784:10786   */\n      0x40\n        /* \"#utility.yul\":10779:10782   */\n      dup3\n        /* \"#utility.yul\":10775:10787   */\n      add\n        /* \"#utility.yul\":10768:10787   */\n      swap1\n      pop\n        /* \"#utility.yul\":10427:10793   */\n      swap2\n      swap1\n      pop\n      jump\t// out\n        /* \"#utility.yul\":10799:11218   */\n    tag_194:\n        /* \"#utility.yul\":10965:10969   */\n      0x00\n        /* \"#utility.yul\":11003:11005   */\n      0x20\n        /* \"#utility.yul\":10992:11001   */\n      dup3\n        /* \"#utility.yul\":10988:11006   */\n      add\n        /* \"#utility.yul\":10980:11006   */\n      swap1\n      pop\n        /* \"#utility.yul\":11052:11061   */\n      dup2\n        /* \"#utility.yul\":11046:11050   */\n      dup2\n        /* \"#utility.yul\":11042:11062   */\n      sub\n        /* \"#utility.yul\":11038:11039   */\n      0x00\n        /* \"#utility.yul\":11027:11036   */\n      dup4\n        /* \"#utility.yul\":11023:11040   */\n      add\n        /* \"#utility.yul\":11016:11063   */\n      mstore\n        /* \"#utility.yul\":11080:11211   */\n      tag_335\n        /* \"#utility.yul\":11206:11210   */\n      dup2\n        /* \"#utility.yul\":11080:11211   */\n      tag_230\n      jump\t// in\n    tag_335:\n        /* \"#utility.yul\":11072:11211   */\n      swap1\n      pop\n        /* \"#utility.yul\":10799:11218   */\n      swap2\n      swap1\n      pop\n      jump\t// out\n\n    auxdata: 0xa264697066735822122014fedd5364cae63a07d0ef30b53ed0e01a1d19ac12ad3f73e0f6e729dfd5d6e764736f6c63430008120033\n}\n",
				"bytecode": {
					"linkReferences": {},
					"object": "608060405234801561001057600080fd5b5061002d61002261003260201b60201c565b61003a60201b60201c565b6100fe565b600033905090565b60008060009054906101000a900473ffffffffffffffffffffffffffffffffffffffff169050816000806101000a81548173ffffffffffffffffffffffffffffffffffffffff021916908373ffffffffffffffffffffffffffffffffffffffff1602179055508173ffffffffffffffffffffffffffffffffffffffff168173ffffffffffffffffffffffffffffffffffffffff167f8be0079c531659141344cd1fd0a4f28419497f9722a3daafe3b4186f6b6457e060405160405180910390a35050565b6111598061010d6000396000f3fe608060405234801561001057600080fd5b506004361061007d5760003560e01c8063715018a61161005b578063715018a6146100d85780638da5cb5b146100e2578063d55ec9c114610100578063f2fde38b1461011c5761007d565b8063200d2ed2146100825780632e49d78b146100a057806338db6dd3146100bc575b600080fd5b61008a610138565b6040516100979190610b42565b60405180910390f35b6100ba60048036038101906100b59190610b96565b61014b565b005b6100d660048036038101906100d19190610c21565b61018b565b005b6100e061022f565b005b6100ea610243565b6040516100f79190610c5d565b60405180910390f35b61011a60048036038101906101159190610dd1565b61026c565b005b61013660048036038101906101319190610c21565b610364565b005b600060149054906101000a900460ff1681565b6101536103e7565b8061015d81610465565b81600060146101000a81548160ff0219169083600581111561018257610181610acb565b5b02179055505050565b6101936103e7565b61019b610987565b60018060008373ffffffffffffffffffffffffffffffffffffffff1673ffffffffffffffffffffffffffffffffffffffff16815260200190815260200160002060000160006101000a81548160ff0219169083151502179055507fb6be2187d059cc2a55fe29e0e503b566e1e0f8c8780096e185429350acffd3dd816040516102249190610c5d565b60405180910390a150565b6102376103e7565b61024160006109ff565b565b60008060009054906101000a900473ffffffffffffffffffffffffffffffffffffffff16905090565b6102746103e7565b61027c610987565b60005b81518110156103605760018060008484815181106102a05761029f610e1a565b5b602002602001015173ffffffffffffffffffffffffffffffffffffffff1673ffffffffffffffffffffffffffffffffffffffff16815260200190815260200160002060000160006101000a81548160ff0219169083151502179055507fb6be2187d059cc2a55fe29e0e503b566e1e0f8c8780096e185429350acffd3dd8282815181106103305761032f610e1a565b5b60200260200101516040516103459190610c5d565b60405180910390a1808061035890610e82565b91505061027f565b5050565b61036c6103e7565b600073ffffffffffffffffffffffffffffffffffffffff168173ffffffffffffffffffffffffffffffffffffffff16036103db576040517f08c379a00000000000000000000000000000000000000000000000000000000081526004016103d290610f4d565b60405180910390fd5b6103e4816109ff565b50565b6103ef610ac3565b73ffffffffffffffffffffffffffffffffffffffff1661040d610243565b73ffffffffffffffffffffffffffffffffffffffff1614610463576040517f08c379a000000000000000000000000000000000000000000000000000000000815260040161045a90610fb9565b60405180910390fd5b565b6000600581111561047957610478610acb565b5b81600581111561048c5761048b610acb565b5b0361054a57600060058111156104a5576104a4610acb565b5b600060149054906101000a900460ff1660058111156104c7576104c6610acb565b5b14806105065750600160058111156104e2576104e1610acb565b5b600060149054906101000a900460ff16600581111561050457610503610acb565b5b145b610545576040517f08c379a000000000000000000000000000000000000000000000000000000000815260040161053c90611071565b60405180910390fd5b610984565b6001600581111561055e5761055d610acb565b5b81600581111561057157610570610acb565b5b0361062f576000600581111561058a57610589610acb565b5b600060149054906101000a900460ff1660058111156105ac576105ab610acb565b5b14806105eb5750600260058111156105c7576105c6610acb565b5b600060149054906101000a900460ff1660058111156105e9576105e8610acb565b5b145b61062a576040517f08c379a000000000000000000000000000000000000000000000000000000000815260040161062190611071565b60405180910390fd5b610983565b6002600581111561064357610642610acb565b5b81600581111561065657610655610acb565b5b03610714576001600581111561066f5761066e610acb565b5b600060149054906101000a900460ff16600581111561069157610690610acb565b5b14806106d05750600360058111156106ac576106ab610acb565b5b600060149054906101000a900460ff1660058111156106ce576106cd610acb565b5b145b61070f576040517f08c379a000000000000000000000000000000000000000000000000000000000815260040161070690611071565b60405180910390fd5b610982565b6003600581111561072857610727610acb565b5b81600581111561073b5761073a610acb565b5b036107f9576002600581111561075457610753610acb565b5b600060149054906101000a900460ff16600581111561077657610775610acb565b5b14806107b557506004600581111561079157610790610acb565b5b600060149054906101000a900460ff1660058111156107b3576107b2610acb565b5b145b6107f4576040517f08c379a00000000000000000000000000000000000000000000000000000000081526004016107eb90611071565b60405180910390fd5b610981565b6004600581111561080d5761080c610acb565b5b8160058111156108205761081f610acb565b5b036108dd576003600581111561083957610838610acb565b5b600060149054906101000a900460ff16600581111561085b5761085a610acb565b5b1480610899575060058081111561087557610874610acb565b5b600060149054906101000a900460ff16600581111561089757610896610acb565b5b145b6108d8576040517f08c379a00000000000000000000000000000000000000000000000000000000081526004016108cf90611071565b60405180910390fd5b610980565b6005808111156108f0576108ef610acb565b5b81600581111561090357610902610acb565b5b0361097f576004600581111561091c5761091b610acb565b5b600060149054906101000a900460ff16600581111561093e5761093d610acb565b5b1461097e576040517f08c379a000000000000000000000000000000000000000000000000000000000815260040161097590611071565b60405180910390fd5b5b5b5b5b5b5b50565b6000600581111561099b5761099a610acb565b5b600060149054906101000a900460ff1660058111156109bd576109bc610acb565b5b146109fd576040517f08c379a00000000000000000000000000000000000000000000000000000000081526004016109f490611103565b60405180910390fd5b565b60008060009054906101000a900473ffffffffffffffffffffffffffffffffffffffff169050816000806101000a81548173ffffffffffffffffffffffffffffffffffffffff021916908373ffffffffffffffffffffffffffffffffffffffff1602179055508173ffffffffffffffffffffffffffffffffffffffff168173ffffffffffffffffffffffffffffffffffffffff167f8be0079c531659141344cd1fd0a4f28419497f9722a3daafe3b4186f6b6457e060405160405180910390a35050565b600033905090565b7f4e487b7100000000000000000000000000000000000000000000000000000000600052602160045260246000fd5b60068110610b0b57610b0a610acb565b5b50565b6000819050610b1c82610afa565b919050565b6000610b2c82610b0e565b9050919050565b610b3c81610b21565b82525050565b6000602082019050610b576000830184610b33565b92915050565b6000604051905090565b600080fd5b600080fd5b60068110610b7e57600080fd5b50565b600081359050610b9081610b71565b92915050565b600060208284031215610bac57610bab610b67565b5b6000610bba84828501610b81565b91505092915050565b600073ffffffffffffffffffffffffffffffffffffffff82169050919050565b6000610bee82610bc3565b9050919050565b610bfe81610be3565b8114610c0957600080fd5b50565b600081359050610c1b81610bf5565b92915050565b600060208284031215610c3757610c36610b67565b5b6000610c4584828501610c0c565b91505092915050565b610c5781610be3565b82525050565b6000602082019050610c726000830184610c4e565b92915050565b600080fd5b6000601f19601f8301169050919050565b7f4e487b7100000000000000000000000000000000000000000000000000000000600052604160045260246000fd5b610cc682610c7d565b810181811067ffffffffffffffff82111715610ce557610ce4610c8e565b5b80604052505050565b6000610cf8610b5d565b9050610d048282610cbd565b919050565b600067ffffffffffffffff821115610d2457610d23610c8e565b5b602082029050602081019050919050565b600080fd5b6000610d4d610d4884610d09565b610cee565b90508083825260208201905060208402830185811115610d7057610d6f610d35565b5b835b81811015610d995780610d858882610c0c565b845260208401935050602081019050610d72565b5050509392505050565b600082601f830112610db857610db7610c78565b5b8135610dc8848260208601610d3a565b91505092915050565b600060208284031215610de757610de6610b67565b5b600082013567ffffffffffffffff811115610e0557610e04610b6c565b5b610e1184828501610da3565b91505092915050565b7f4e487b7100000000000000000000000000000000000000000000000000000000600052603260045260246000fd5b7f4e487b7100000000000000000000000000000000000000000000000000000000600052601160045260246000fd5b6000819050919050565b6000610e8d82610e78565b91507fffffffffffffffffffffffffffffffffffffffffffffffffffffffffffffffff8203610ebf57610ebe610e49565b5b600182019050919050565b600082825260208201905092915050565b7f4f776e61626c653a206e6577206f776e657220697320746865207a65726f206160008201527f6464726573730000000000000000000000000000000000000000000000000000602082015250565b6000610f37602683610eca565b9150610f4282610edb565b604082019050919050565b60006020820190508181036000830152610f6681610f2a565b9050919050565b7f4f776e61626c653a2063616c6c6572206973206e6f7420746865206f776e6572600082015250565b6000610fa3602083610eca565b9150610fae82610f6d565b602082019050919050565b60006020820190508181036000830152610fd281610f96565b9050919050565b7f41637475616c20737461747573206973206e6f7420636f6d70617469626c652060008201527f7769746820796f75722063686f696365202863686f6f73652070726576696f7560208201527f73206f6e65206f72206e657874206f6e65290000000000000000000000000000604082015250565b600061105b605283610eca565b915061106682610fd9565b606082019050919050565b6000602082019050818103600083015261108a8161104e565b9050919050565b7f726567697374726174696f6e20706572696f6420666f7220766f74657220697360008201527f20636c6f7365642e000000000000000000000000000000000000000000000000602082015250565b60006110ed602883610eca565b91506110f882611091565b604082019050919050565b6000602082019050818103600083015261111c816110e0565b905091905056fea264697066735822122014fedd5364cae63a07d0ef30b53ed0e01a1d19ac12ad3f73e0f6e729dfd5d6e764736f6c63430008120033",
					"opcodes": "PUSH1 0x80 PUSH1 0x40 MSTORE CALLVALUE DUP1 ISZERO PUSH2 0x10 JUMPI PUSH1 0x0 DUP1 REVERT JUMPDEST POP PUSH2 0x2D PUSH2 0x22 PUSH2 0x32 PUSH1 0x20 SHL PUSH1 0x20 SHR JUMP JUMPDEST PUSH2 0x3A PUSH1 0x20 SHL PUSH1 0x20 SHR JUMP JUMPDEST PUSH2 0xFE JUMP JUMPDEST PUSH1 0x0 CALLER SWAP1 POP SWAP1 JUMP JUMPDEST PUSH1 0x0 DUP1 PUSH1 0x0 SWAP1 SLOAD SWAP1 PUSH2 0x100 EXP SWAP1 DIV PUSH20 0xFFFFFFFFFFFFFFFFFFFFFFFFFFFFFFFFFFFFFFFF AND SWAP1 POP DUP2 PUSH1 0x0 DUP1 PUSH2 0x100 EXP DUP2 SLOAD DUP2 PUSH20 0xFFFFFFFFFFFFFFFFFFFFFFFFFFFFFFFFFFFFFFFF MUL NOT AND SWAP1 DUP4 PUSH20 0xFFFFFFFFFFFFFFFFFFFFFFFFFFFFFFFFFFFFFFFF AND MUL OR SWAP1 SSTORE POP DUP2 PUSH20 0xFFFFFFFFFFFFFFFFFFFFFFFFFFFFFFFFFFFFFFFF AND DUP2 PUSH20 0xFFFFFFFFFFFFFFFFFFFFFFFFFFFFFFFFFFFFFFFF AND PUSH32 0x8BE0079C531659141344CD1FD0A4F28419497F9722A3DAAFE3B4186F6B6457E0 PUSH1 0x40 MLOAD PUSH1 0x40 MLOAD DUP1 SWAP2 SUB SWAP1 LOG3 POP POP JUMP JUMPDEST PUSH2 0x1159 DUP1 PUSH2 0x10D PUSH1 0x0 CODECOPY PUSH1 0x0 RETURN INVALID PUSH1 0x80 PUSH1 0x40 MSTORE CALLVALUE DUP1 ISZERO PUSH2 0x10 JUMPI PUSH1 0x0 DUP1 REVERT JUMPDEST POP PUSH1 0x4 CALLDATASIZE LT PUSH2 0x7D JUMPI PUSH1 0x0 CALLDATALOAD PUSH1 0xE0 SHR DUP1 PUSH4 0x715018A6 GT PUSH2 0x5B JUMPI DUP1 PUSH4 0x715018A6 EQ PUSH2 0xD8 JUMPI DUP1 PUSH4 0x8DA5CB5B EQ PUSH2 0xE2 JUMPI DUP1 PUSH4 0xD55EC9C1 EQ PUSH2 0x100 JUMPI DUP1 PUSH4 0xF2FDE38B EQ PUSH2 0x11C JUMPI PUSH2 0x7D JUMP JUMPDEST DUP1 PUSH4 0x200D2ED2 EQ PUSH2 0x82 JUMPI DUP1 PUSH4 0x2E49D78B EQ PUSH2 0xA0 JUMPI DUP1 PUSH4 0x38DB6DD3 EQ PUSH2 0xBC JUMPI JUMPDEST PUSH1 0x0 DUP1 REVERT JUMPDEST PUSH2 0x8A PUSH2 0x138 JUMP JUMPDEST PUSH1 0x40 MLOAD PUSH2 0x97 SWAP2 SWAP1 PUSH2 0xB42 JUMP JUMPDEST PUSH1 0x40 MLOAD DUP1 SWAP2 SUB SWAP1 RETURN JUMPDEST PUSH2 0xBA PUSH1 0x4 DUP1 CALLDATASIZE SUB DUP2 ADD SWAP1 PUSH2 0xB5 SWAP2 SWAP1 PUSH2 0xB96 JUMP JUMPDEST PUSH2 0x14B JUMP JUMPDEST STOP JUMPDEST PUSH2 0xD6 PUSH1 0x4 DUP1 CALLDATASIZE SUB DUP2 ADD SWAP1 PUSH2 0xD1 SWAP2 SWAP1 PUSH2 0xC21 JUMP JUMPDEST PUSH2 0x18B JUMP JUMPDEST STOP JUMPDEST PUSH2 0xE0 PUSH2 0x22F JUMP JUMPDEST STOP JUMPDEST PUSH2 0xEA PUSH2 0x243 JUMP JUMPDEST PUSH1 0x40 MLOAD PUSH2 0xF7 SWAP2 SWAP1 PUSH2 0xC5D JUMP JUMPDEST PUSH1 0x40 MLOAD DUP1 SWAP2 SUB SWAP1 RETURN JUMPDEST PUSH2 0x11A PUSH1 0x4 DUP1 CALLDATASIZE SUB DUP2 ADD SWAP1 PUSH2 0x115 SWAP2 SWAP1 PUSH2 0xDD1 JUMP JUMPDEST PUSH2 0x26C JUMP JUMPDEST STOP JUMPDEST PUSH2 0x136 PUSH1 0x4 DUP1 CALLDATASIZE SUB DUP2 ADD SWAP1 PUSH2 0x131 SWAP2 SWAP1 PUSH2 0xC21 JUMP JUMPDEST PUSH2 0x364 JUMP JUMPDEST STOP JUMPDEST PUSH1 0x0 PUSH1 0x14 SWAP1 SLOAD SWAP1 PUSH2 0x100 EXP SWAP1 DIV PUSH1 0xFF AND DUP2 JUMP JUMPDEST PUSH2 0x153 PUSH2 0x3E7 JUMP JUMPDEST DUP1 PUSH2 0x15D DUP2 PUSH2 0x465 JUMP JUMPDEST DUP2 PUSH1 0x0 PUSH1 0x14 PUSH2 0x100 EXP DUP2 SLOAD DUP2 PUSH1 0xFF MUL NOT AND SWAP1 DUP4 PUSH1 0x5 DUP2 GT ISZERO PUSH2 0x182 JUMPI PUSH2 0x181 PUSH2 0xACB JUMP JUMPDEST JUMPDEST MUL OR SWAP1 SSTORE POP POP POP JUMP JUMPDEST PUSH2 0x193 PUSH2 0x3E7 JUMP JUMPDEST PUSH2 0x19B PUSH2 0x987 JUMP JUMPDEST PUSH1 0x1 DUP1 PUSH1 0x0 DUP4 PUSH20 0xFFFFFFFFFFFFFFFFFFFFFFFFFFFFFFFFFFFFFFFF AND PUSH20 0xFFFFFFFFFFFFFFFFFFFFFFFFFFFFFFFFFFFFFFFF AND DUP2 MSTORE PUSH1 0x20 ADD SWAP1 DUP2 MSTORE PUSH1 0x20 ADD PUSH1 0x0 KECCAK256 PUSH1 0x0 ADD PUSH1 0x0 PUSH2 0x100 EXP DUP2 SLOAD DUP2 PUSH1 0xFF MUL NOT AND SWAP1 DUP4 ISZERO ISZERO MUL OR SWAP1 SSTORE POP PUSH32 0xB6BE2187D059CC2A55FE29E0E503B566E1E0F8C8780096E185429350ACFFD3DD DUP2 PUSH1 0x40 MLOAD PUSH2 0x224 SWAP2 SWAP1 PUSH2 0xC5D JUMP JUMPDEST PUSH1 0x40 MLOAD DUP1 SWAP2 SUB SWAP1 LOG1 POP JUMP JUMPDEST PUSH2 0x237 PUSH2 0x3E7 JUMP JUMPDEST PUSH2 0x241 PUSH1 0x0 PUSH2 0x9FF JUMP JUMPDEST JUMP JUMPDEST PUSH1 0x0 DUP1 PUSH1 0x0 SWAP1 SLOAD SWAP1 PUSH2 0x100 EXP SWAP1 DIV PUSH20 0xFFFFFFFFFFFFFFFFFFFFFFFFFFFFFFFFFFFFFFFF AND SWAP1 POP SWAP1 JUMP JUMPDEST PUSH2 0x274 PUSH2 0x3E7 JUMP JUMPDEST PUSH2 0x27C PUSH2 0x987 JUMP JUMPDEST PUSH1 0x0 JUMPDEST DUP2 MLOAD DUP2 LT ISZERO PUSH2 0x360 JUMPI PUSH1 0x1 DUP1 PUSH1 0x0 DUP5 DUP5 DUP2 MLOAD DUP2 LT PUSH2 0x2A0 JUMPI PUSH2 0x29F PUSH2 0xE1A JUMP JUMPDEST JUMPDEST PUSH1 0x20 MUL PUSH1 0x20 ADD ADD MLOAD PUSH20 0xFFFFFFFFFFFFFFFFFFFFFFFFFFFFFFFFFFFFFFFF AND PUSH20 0xFFFFFFFFFFFFFFFFFFFFFFFFFFFFFFFFFFFFFFFF AND DUP2 MSTORE PUSH1 0x20 ADD SWAP1 DUP2 MSTORE PUSH1 0x20 ADD PUSH1 0x0 KECCAK256 PUSH1 0x0 ADD PUSH1 0x0 PUSH2 0x100 EXP DUP2 SLOAD DUP2 PUSH1 0xFF MUL NOT AND SWAP1 DUP4 ISZERO ISZERO MUL OR SWAP1 SSTORE POP PUSH32 0xB6BE2187D059CC2A55FE29E0E503B566E1E0F8C8780096E185429350ACFFD3DD DUP3 DUP3 DUP2 MLOAD DUP2 LT PUSH2 0x330 JUMPI PUSH2 0x32F PUSH2 0xE1A JUMP JUMPDEST JUMPDEST PUSH1 0x20 MUL PUSH1 0x20 ADD ADD MLOAD PUSH1 0x40 MLOAD PUSH2 0x345 SWAP2 SWAP1 PUSH2 0xC5D JUMP JUMPDEST PUSH1 0x40 MLOAD DUP1 SWAP2 SUB SWAP1 LOG1 DUP1 DUP1 PUSH2 0x358 SWAP1 PUSH2 0xE82 JUMP JUMPDEST SWAP2 POP POP PUSH2 0x27F JUMP JUMPDEST POP POP JUMP JUMPDEST PUSH2 0x36C PUSH2 0x3E7 JUMP JUMPDEST PUSH1 0x0 PUSH20 0xFFFFFFFFFFFFFFFFFFFFFFFFFFFFFFFFFFFFFFFF AND DUP2 PUSH20 0xFFFFFFFFFFFFFFFFFFFFFFFFFFFFFFFFFFFFFFFF AND SUB PUSH2 0x3DB JUMPI PUSH1 0x40 MLOAD PUSH32 0x8C379A000000000000000000000000000000000000000000000000000000000 DUP2 MSTORE PUSH1 0x4 ADD PUSH2 0x3D2 SWAP1 PUSH2 0xF4D JUMP JUMPDEST PUSH1 0x40 MLOAD DUP1 SWAP2 SUB SWAP1 REVERT JUMPDEST PUSH2 0x3E4 DUP2 PUSH2 0x9FF JUMP JUMPDEST POP JUMP JUMPDEST PUSH2 0x3EF PUSH2 0xAC3 JUMP JUMPDEST PUSH20 0xFFFFFFFFFFFFFFFFFFFFFFFFFFFFFFFFFFFFFFFF AND PUSH2 0x40D PUSH2 0x243 JUMP JUMPDEST PUSH20 0xFFFFFFFFFFFFFFFFFFFFFFFFFFFFFFFFFFFFFFFF AND EQ PUSH2 0x463 JUMPI PUSH1 0x40 MLOAD PUSH32 0x8C379A000000000000000000000000000000000000000000000000000000000 DUP2 MSTORE PUSH1 0x4 ADD PUSH2 0x45A SWAP1 PUSH2 0xFB9 JUMP JUMPDEST PUSH1 0x40 MLOAD DUP1 SWAP2 SUB SWAP1 REVERT JUMPDEST JUMP JUMPDEST PUSH1 0x0 PUSH1 0x5 DUP2 GT ISZERO PUSH2 0x479 JUMPI PUSH2 0x478 PUSH2 0xACB JUMP JUMPDEST JUMPDEST DUP2 PUSH1 0x5 DUP2 GT ISZERO PUSH2 0x48C JUMPI PUSH2 0x48B PUSH2 0xACB JUMP JUMPDEST JUMPDEST SUB PUSH2 0x54A JUMPI PUSH1 0x0 PUSH1 0x5 DUP2 GT ISZERO PUSH2 0x4A5 JUMPI PUSH2 0x4A4 PUSH2 0xACB JUMP JUMPDEST JUMPDEST PUSH1 0x0 PUSH1 0x14 SWAP1 SLOAD SWAP1 PUSH2 0x100 EXP SWAP1 DIV PUSH1 0xFF AND PUSH1 0x5 DUP2 GT ISZERO PUSH2 0x4C7 JUMPI PUSH2 0x4C6 PUSH2 0xACB JUMP JUMPDEST JUMPDEST EQ DUP1 PUSH2 0x506 JUMPI POP PUSH1 0x1 PUSH1 0x5 DUP2 GT ISZERO PUSH2 0x4E2 JUMPI PUSH2 0x4E1 PUSH2 0xACB JUMP JUMPDEST JUMPDEST PUSH1 0x0 PUSH1 0x14 SWAP1 SLOAD SWAP1 PUSH2 0x100 EXP SWAP1 DIV PUSH1 0xFF AND PUSH1 0x5 DUP2 GT ISZERO PUSH2 0x504 JUMPI PUSH2 0x503 PUSH2 0xACB JUMP JUMPDEST JUMPDEST EQ JUMPDEST PUSH2 0x545 JUMPI PUSH1 0x40 MLOAD PUSH32 0x8C379A000000000000000000000000000000000000000000000000000000000 DUP2 MSTORE PUSH1 0x4 ADD PUSH2 0x53C SWAP1 PUSH2 0x1071 JUMP JUMPDEST PUSH1 0x40 MLOAD DUP1 SWAP2 SUB SWAP1 REVERT JUMPDEST PUSH2 0x984 JUMP JUMPDEST PUSH1 0x1 PUSH1 0x5 DUP2 GT ISZERO PUSH2 0x55E JUMPI PUSH2 0x55D PUSH2 0xACB JUMP JUMPDEST JUMPDEST DUP2 PUSH1 0x5 DUP2 GT ISZERO PUSH2 0x571 JUMPI PUSH2 0x570 PUSH2 0xACB JUMP JUMPDEST JUMPDEST SUB PUSH2 0x62F JUMPI PUSH1 0x0 PUSH1 0x5 DUP2 GT ISZERO PUSH2 0x58A JUMPI PUSH2 0x589 PUSH2 0xACB JUMP JUMPDEST JUMPDEST PUSH1 0x0 PUSH1 0x14 SWAP1 SLOAD SWAP1 PUSH2 0x100 EXP SWAP1 DIV PUSH1 0xFF AND PUSH1 0x5 DUP2 GT ISZERO PUSH2 0x5AC JUMPI PUSH2 0x5AB PUSH2 0xACB JUMP JUMPDEST JUMPDEST EQ DUP1 PUSH2 0x5EB JUMPI POP PUSH1 0x2 PUSH1 0x5 DUP2 GT ISZERO PUSH2 0x5C7 JUMPI PUSH2 0x5C6 PUSH2 0xACB JUMP JUMPDEST JUMPDEST PUSH1 0x0 PUSH1 0x14 SWAP1 SLOAD SWAP1 PUSH2 0x100 EXP SWAP1 DIV PUSH1 0xFF AND PUSH1 0x5 DUP2 GT ISZERO PUSH2 0x5E9 JUMPI PUSH2 0x5E8 PUSH2 0xACB JUMP JUMPDEST JUMPDEST EQ JUMPDEST PUSH2 0x62A JUMPI PUSH1 0x40 MLOAD PUSH32 0x8C379A000000000000000000000000000000000000000000000000000000000 DUP2 MSTORE PUSH1 0x4 ADD PUSH2 0x621 SWAP1 PUSH2 0x1071 JUMP JUMPDEST PUSH1 0x40 MLOAD DUP1 SWAP2 SUB SWAP1 REVERT JUMPDEST PUSH2 0x983 JUMP JUMPDEST PUSH1 0x2 PUSH1 0x5 DUP2 GT ISZERO PUSH2 0x643 JUMPI PUSH2 0x642 PUSH2 0xACB JUMP JUMPDEST JUMPDEST DUP2 PUSH1 0x5 DUP2 GT ISZERO PUSH2 0x656 JUMPI PUSH2 0x655 PUSH2 0xACB JUMP JUMPDEST JUMPDEST SUB PUSH2 0x714 JUMPI PUSH1 0x1 PUSH1 0x5 DUP2 GT ISZERO PUSH2 0x66F JUMPI PUSH2 0x66E PUSH2 0xACB JUMP JUMPDEST JUMPDEST PUSH1 0x0 PUSH1 0x14 SWAP1 SLOAD SWAP1 PUSH2 0x100 EXP SWAP1 DIV PUSH1 0xFF AND PUSH1 0x5 DUP2 GT ISZERO PUSH2 0x691 JUMPI PUSH2 0x690 PUSH2 0xACB JUMP JUMPDEST JUMPDEST EQ DUP1 PUSH2 0x6D0 JUMPI POP PUSH1 0x3 PUSH1 0x5 DUP2 GT ISZERO PUSH2 0x6AC JUMPI PUSH2 0x6AB PUSH2 0xACB JUMP JUMPDEST JUMPDEST PUSH1 0x0 PUSH1 0x14 SWAP1 SLOAD SWAP1 PUSH2 0x100 EXP SWAP1 DIV PUSH1 0xFF AND PUSH1 0x5 DUP2 GT ISZERO PUSH2 0x6CE JUMPI PUSH2 0x6CD PUSH2 0xACB JUMP JUMPDEST JUMPDEST EQ JUMPDEST PUSH2 0x70F JUMPI PUSH1 0x40 MLOAD PUSH32 0x8C379A000000000000000000000000000000000000000000000000000000000 DUP2 MSTORE PUSH1 0x4 ADD PUSH2 0x706 SWAP1 PUSH2 0x1071 JUMP JUMPDEST PUSH1 0x40 MLOAD DUP1 SWAP2 SUB SWAP1 REVERT JUMPDEST PUSH2 0x982 JUMP JUMPDEST PUSH1 0x3 PUSH1 0x5 DUP2 GT ISZERO PUSH2 0x728 JUMPI PUSH2 0x727 PUSH2 0xACB JUMP JUMPDEST JUMPDEST DUP2 PUSH1 0x5 DUP2 GT ISZERO PUSH2 0x73B JUMPI PUSH2 0x73A PUSH2 0xACB JUMP JUMPDEST JUMPDEST SUB PUSH2 0x7F9 JUMPI PUSH1 0x2 PUSH1 0x5 DUP2 GT ISZERO PUSH2 0x754 JUMPI PUSH2 0x753 PUSH2 0xACB JUMP JUMPDEST JUMPDEST PUSH1 0x0 PUSH1 0x14 SWAP1 SLOAD SWAP1 PUSH2 0x100 EXP SWAP1 DIV PUSH1 0xFF AND PUSH1 0x5 DUP2 GT ISZERO PUSH2 0x776 JUMPI PUSH2 0x775 PUSH2 0xACB JUMP JUMPDEST JUMPDEST EQ DUP1 PUSH2 0x7B5 JUMPI POP PUSH1 0x4 PUSH1 0x5 DUP2 GT ISZERO PUSH2 0x791 JUMPI PUSH2 0x790 PUSH2 0xACB JUMP JUMPDEST JUMPDEST PUSH1 0x0 PUSH1 0x14 SWAP1 SLOAD SWAP1 PUSH2 0x100 EXP SWAP1 DIV PUSH1 0xFF AND PUSH1 0x5 DUP2 GT ISZERO PUSH2 0x7B3 JUMPI PUSH2 0x7B2 PUSH2 0xACB JUMP JUMPDEST JUMPDEST EQ JUMPDEST PUSH2 0x7F4 JUMPI PUSH1 0x40 MLOAD PUSH32 0x8C379A000000000000000000000000000000000000000000000000000000000 DUP2 MSTORE PUSH1 0x4 ADD PUSH2 0x7EB SWAP1 PUSH2 0x1071 JUMP JUMPDEST PUSH1 0x40 MLOAD DUP1 SWAP2 SUB SWAP1 REVERT JUMPDEST PUSH2 0x981 JUMP JUMPDEST PUSH1 0x4 PUSH1 0x5 DUP2 GT ISZERO PUSH2 0x80D JUMPI PUSH2 0x80C PUSH2 0xACB JUMP JUMPDEST JUMPDEST DUP2 PUSH1 0x5 DUP2 GT ISZERO PUSH2 0x820 JUMPI PUSH2 0x81F PUSH2 0xACB JUMP JUMPDEST JUMPDEST SUB PUSH2 0x8DD JUMPI PUSH1 0x3 PUSH1 0x5 DUP2 GT ISZERO PUSH2 0x839 JUMPI PUSH2 0x838 PUSH2 0xACB JUMP JUMPDEST JUMPDEST PUSH1 0x0 PUSH1 0x14 SWAP1 SLOAD SWAP1 PUSH2 0x100 EXP SWAP1 DIV PUSH1 0xFF AND PUSH1 0x5 DUP2 GT ISZERO PUSH2 0x85B JUMPI PUSH2 0x85A PUSH2 0xACB JUMP JUMPDEST JUMPDEST EQ DUP1 PUSH2 0x899 JUMPI POP PUSH1 0x5 DUP1 DUP2 GT ISZERO PUSH2 0x875 JUMPI PUSH2 0x874 PUSH2 0xACB JUMP JUMPDEST JUMPDEST PUSH1 0x0 PUSH1 0x14 SWAP1 SLOAD SWAP1 PUSH2 0x100 EXP SWAP1 DIV PUSH1 0xFF AND PUSH1 0x5 DUP2 GT ISZERO PUSH2 0x897 JUMPI PUSH2 0x896 PUSH2 0xACB JUMP JUMPDEST JUMPDEST EQ JUMPDEST PUSH2 0x8D8 JUMPI PUSH1 0x40 MLOAD PUSH32 0x8C379A000000000000000000000000000000000000000000000000000000000 DUP2 MSTORE PUSH1 0x4 ADD PUSH2 0x8CF SWAP1 PUSH2 0x1071 JUMP JUMPDEST PUSH1 0x40 MLOAD DUP1 SWAP2 SUB SWAP1 REVERT JUMPDEST PUSH2 0x980 JUMP JUMPDEST PUSH1 0x5 DUP1 DUP2 GT ISZERO PUSH2 0x8F0 JUMPI PUSH2 0x8EF PUSH2 0xACB JUMP JUMPDEST JUMPDEST DUP2 PUSH1 0x5 DUP2 GT ISZERO PUSH2 0x903 JUMPI PUSH2 0x902 PUSH2 0xACB JUMP JUMPDEST JUMPDEST SUB PUSH2 0x97F JUMPI PUSH1 0x4 PUSH1 0x5 DUP2 GT ISZERO PUSH2 0x91C JUMPI PUSH2 0x91B PUSH2 0xACB JUMP JUMPDEST JUMPDEST PUSH1 0x0 PUSH1 0x14 SWAP1 SLOAD SWAP1 PUSH2 0x100 EXP SWAP1 DIV PUSH1 0xFF AND PUSH1 0x5 DUP2 GT ISZERO PUSH2 0x93E JUMPI PUSH2 0x93D PUSH2 0xACB JUMP JUMPDEST JUMPDEST EQ PUSH2 0x97E JUMPI PUSH1 0x40 MLOAD PUSH32 0x8C379A000000000000000000000000000000000000000000000000000000000 DUP2 MSTORE PUSH1 0x4 ADD PUSH2 0x975 SWAP1 PUSH2 0x1071 JUMP JUMPDEST PUSH1 0x40 MLOAD DUP1 SWAP2 SUB SWAP1 REVERT JUMPDEST JUMPDEST JUMPDEST JUMPDEST JUMPDEST JUMPDEST JUMPDEST POP JUMP JUMPDEST PUSH1 0x0 PUSH1 0x5 DUP2 GT ISZERO PUSH2 0x99B JUMPI PUSH2 0x99A PUSH2 0xACB JUMP JUMPDEST JUMPDEST PUSH1 0x0 PUSH1 0x14 SWAP1 SLOAD SWAP1 PUSH2 0x100 EXP SWAP1 DIV PUSH1 0xFF AND PUSH1 0x5 DUP2 GT ISZERO PUSH2 0x9BD JUMPI PUSH2 0x9BC PUSH2 0xACB JUMP JUMPDEST JUMPDEST EQ PUSH2 0x9FD JUMPI PUSH1 0x40 MLOAD PUSH32 0x8C379A000000000000000000000000000000000000000000000000000000000 DUP2 MSTORE PUSH1 0x4 ADD PUSH2 0x9F4 SWAP1 PUSH2 0x1103 JUMP JUMPDEST PUSH1 0x40 MLOAD DUP1 SWAP2 SUB SWAP1 REVERT JUMPDEST JUMP JUMPDEST PUSH1 0x0 DUP1 PUSH1 0x0 SWAP1 SLOAD SWAP1 PUSH2 0x100 EXP SWAP1 DIV PUSH20 0xFFFFFFFFFFFFFFFFFFFFFFFFFFFFFFFFFFFFFFFF AND SWAP1 POP DUP2 PUSH1 0x0 DUP1 PUSH2 0x100 EXP DUP2 SLOAD DUP2 PUSH20 0xFFFFFFFFFFFFFFFFFFFFFFFFFFFFFFFFFFFFFFFF MUL NOT AND SWAP1 DUP4 PUSH20 0xFFFFFFFFFFFFFFFFFFFFFFFFFFFFFFFFFFFFFFFF AND MUL OR SWAP1 SSTORE POP DUP2 PUSH20 0xFFFFFFFFFFFFFFFFFFFFFFFFFFFFFFFFFFFFFFFF AND DUP2 PUSH20 0xFFFFFFFFFFFFFFFFFFFFFFFFFFFFFFFFFFFFFFFF AND PUSH32 0x8BE0079C531659141344CD1FD0A4F28419497F9722A3DAAFE3B4186F6B6457E0 PUSH1 0x40 MLOAD PUSH1 0x40 MLOAD DUP1 SWAP2 SUB SWAP1 LOG3 POP POP JUMP JUMPDEST PUSH1 0x0 CALLER SWAP1 POP SWAP1 JUMP JUMPDEST PUSH32 0x4E487B7100000000000000000000000000000000000000000000000000000000 PUSH1 0x0 MSTORE PUSH1 0x21 PUSH1 0x4 MSTORE PUSH1 0x24 PUSH1 0x0 REVERT JUMPDEST PUSH1 0x6 DUP2 LT PUSH2 0xB0B JUMPI PUSH2 0xB0A PUSH2 0xACB JUMP JUMPDEST JUMPDEST POP JUMP JUMPDEST PUSH1 0x0 DUP2 SWAP1 POP PUSH2 0xB1C DUP3 PUSH2 0xAFA JUMP JUMPDEST SWAP2 SWAP1 POP JUMP JUMPDEST PUSH1 0x0 PUSH2 0xB2C DUP3 PUSH2 0xB0E JUMP JUMPDEST SWAP1 POP SWAP2 SWAP1 POP JUMP JUMPDEST PUSH2 0xB3C DUP2 PUSH2 0xB21 JUMP JUMPDEST DUP3 MSTORE POP POP JUMP JUMPDEST PUSH1 0x0 PUSH1 0x20 DUP3 ADD SWAP1 POP PUSH2 0xB57 PUSH1 0x0 DUP4 ADD DUP5 PUSH2 0xB33 JUMP JUMPDEST SWAP3 SWAP2 POP POP JUMP JUMPDEST PUSH1 0x0 PUSH1 0x40 MLOAD SWAP1 POP SWAP1 JUMP JUMPDEST PUSH1 0x0 DUP1 REVERT JUMPDEST PUSH1 0x0 DUP1 REVERT JUMPDEST PUSH1 0x6 DUP2 LT PUSH2 0xB7E JUMPI PUSH1 0x0 DUP1 REVERT JUMPDEST POP JUMP JUMPDEST PUSH1 0x0 DUP2 CALLDATALOAD SWAP1 POP PUSH2 0xB90 DUP2 PUSH2 0xB71 JUMP JUMPDEST SWAP3 SWAP2 POP POP JUMP JUMPDEST PUSH1 0x0 PUSH1 0x20 DUP3 DUP5 SUB SLT ISZERO PUSH2 0xBAC JUMPI PUSH2 0xBAB PUSH2 0xB67 JUMP JUMPDEST JUMPDEST PUSH1 0x0 PUSH2 0xBBA DUP5 DUP3 DUP6 ADD PUSH2 0xB81 JUMP JUMPDEST SWAP2 POP POP SWAP3 SWAP2 POP POP JUMP JUMPDEST PUSH1 0x0 PUSH20 0xFFFFFFFFFFFFFFFFFFFFFFFFFFFFFFFFFFFFFFFF DUP3 AND SWAP1 POP SWAP2 SWAP1 POP JUMP JUMPDEST PUSH1 0x0 PUSH2 0xBEE DUP3 PUSH2 0xBC3 JUMP JUMPDEST SWAP1 POP SWAP2 SWAP1 POP JUMP JUMPDEST PUSH2 0xBFE DUP2 PUSH2 0xBE3 JUMP JUMPDEST DUP2 EQ PUSH2 0xC09 JUMPI PUSH1 0x0 DUP1 REVERT JUMPDEST POP JUMP JUMPDEST PUSH1 0x0 DUP2 CALLDATALOAD SWAP1 POP PUSH2 0xC1B DUP2 PUSH2 0xBF5 JUMP JUMPDEST SWAP3 SWAP2 POP POP JUMP JUMPDEST PUSH1 0x0 PUSH1 0x20 DUP3 DUP5 SUB SLT ISZERO PUSH2 0xC37 JUMPI PUSH2 0xC36 PUSH2 0xB67 JUMP JUMPDEST JUMPDEST PUSH1 0x0 PUSH2 0xC45 DUP5 DUP3 DUP6 ADD PUSH2 0xC0C JUMP JUMPDEST SWAP2 POP POP SWAP3 SWAP2 POP POP JUMP JUMPDEST PUSH2 0xC57 DUP2 PUSH2 0xBE3 JUMP JUMPDEST DUP3 MSTORE POP POP JUMP JUMPDEST PUSH1 0x0 PUSH1 0x20 DUP3 ADD SWAP1 POP PUSH2 0xC72 PUSH1 0x0 DUP4 ADD DUP5 PUSH2 0xC4E JUMP JUMPDEST SWAP3 SWAP2 POP POP JUMP JUMPDEST PUSH1 0x0 DUP1 REVERT JUMPDEST PUSH1 0x0 PUSH1 0x1F NOT PUSH1 0x1F DUP4 ADD AND SWAP1 POP SWAP2 SWAP1 POP JUMP JUMPDEST PUSH32 0x4E487B7100000000000000000000000000000000000000000000000000000000 PUSH1 0x0 MSTORE PUSH1 0x41 PUSH1 0x4 MSTORE PUSH1 0x24 PUSH1 0x0 REVERT JUMPDEST PUSH2 0xCC6 DUP3 PUSH2 0xC7D JUMP JUMPDEST DUP2 ADD DUP2 DUP2 LT PUSH8 0xFFFFFFFFFFFFFFFF DUP3 GT OR ISZERO PUSH2 0xCE5 JUMPI PUSH2 0xCE4 PUSH2 0xC8E JUMP JUMPDEST JUMPDEST DUP1 PUSH1 0x40 MSTORE POP POP POP JUMP JUMPDEST PUSH1 0x0 PUSH2 0xCF8 PUSH2 0xB5D JUMP JUMPDEST SWAP1 POP PUSH2 0xD04 DUP3 DUP3 PUSH2 0xCBD JUMP JUMPDEST SWAP2 SWAP1 POP JUMP JUMPDEST PUSH1 0x0 PUSH8 0xFFFFFFFFFFFFFFFF DUP3 GT ISZERO PUSH2 0xD24 JUMPI PUSH2 0xD23 PUSH2 0xC8E JUMP JUMPDEST JUMPDEST PUSH1 0x20 DUP3 MUL SWAP1 POP PUSH1 0x20 DUP2 ADD SWAP1 POP SWAP2 SWAP1 POP JUMP JUMPDEST PUSH1 0x0 DUP1 REVERT JUMPDEST PUSH1 0x0 PUSH2 0xD4D PUSH2 0xD48 DUP5 PUSH2 0xD09 JUMP JUMPDEST PUSH2 0xCEE JUMP JUMPDEST SWAP1 POP DUP1 DUP4 DUP3 MSTORE PUSH1 0x20 DUP3 ADD SWAP1 POP PUSH1 0x20 DUP5 MUL DUP4 ADD DUP6 DUP2 GT ISZERO PUSH2 0xD70 JUMPI PUSH2 0xD6F PUSH2 0xD35 JUMP JUMPDEST JUMPDEST DUP4 JUMPDEST DUP2 DUP2 LT ISZERO PUSH2 0xD99 JUMPI DUP1 PUSH2 0xD85 DUP9 DUP3 PUSH2 0xC0C JUMP JUMPDEST DUP5 MSTORE PUSH1 0x20 DUP5 ADD SWAP4 POP POP PUSH1 0x20 DUP2 ADD SWAP1 POP PUSH2 0xD72 JUMP JUMPDEST POP POP POP SWAP4 SWAP3 POP POP POP JUMP JUMPDEST PUSH1 0x0 DUP3 PUSH1 0x1F DUP4 ADD SLT PUSH2 0xDB8 JUMPI PUSH2 0xDB7 PUSH2 0xC78 JUMP JUMPDEST JUMPDEST DUP2 CALLDATALOAD PUSH2 0xDC8 DUP5 DUP3 PUSH1 0x20 DUP7 ADD PUSH2 0xD3A JUMP JUMPDEST SWAP2 POP POP SWAP3 SWAP2 POP POP JUMP JUMPDEST PUSH1 0x0 PUSH1 0x20 DUP3 DUP5 SUB SLT ISZERO PUSH2 0xDE7 JUMPI PUSH2 0xDE6 PUSH2 0xB67 JUMP JUMPDEST JUMPDEST PUSH1 0x0 DUP3 ADD CALLDATALOAD PUSH8 0xFFFFFFFFFFFFFFFF DUP2 GT ISZERO PUSH2 0xE05 JUMPI PUSH2 0xE04 PUSH2 0xB6C JUMP JUMPDEST JUMPDEST PUSH2 0xE11 DUP5 DUP3 DUP6 ADD PUSH2 0xDA3 JUMP JUMPDEST SWAP2 POP POP SWAP3 SWAP2 POP POP JUMP JUMPDEST PUSH32 0x4E487B7100000000000000000000000000000000000000000000000000000000 PUSH1 0x0 MSTORE PUSH1 0x32 PUSH1 0x4 MSTORE PUSH1 0x24 PUSH1 0x0 REVERT JUMPDEST PUSH32 0x4E487B7100000000000000000000000000000000000000000000000000000000 PUSH1 0x0 MSTORE PUSH1 0x11 PUSH1 0x4 MSTORE PUSH1 0x24 PUSH1 0x0 REVERT JUMPDEST PUSH1 0x0 DUP2 SWAP1 POP SWAP2 SWAP1 POP JUMP JUMPDEST PUSH1 0x0 PUSH2 0xE8D DUP3 PUSH2 0xE78 JUMP JUMPDEST SWAP2 POP PUSH32 0xFFFFFFFFFFFFFFFFFFFFFFFFFFFFFFFFFFFFFFFFFFFFFFFFFFFFFFFFFFFFFFFF DUP3 SUB PUSH2 0xEBF JUMPI PUSH2 0xEBE PUSH2 0xE49 JUMP JUMPDEST JUMPDEST PUSH1 0x1 DUP3 ADD SWAP1 POP SWAP2 SWAP1 POP JUMP JUMPDEST PUSH1 0x0 DUP3 DUP3 MSTORE PUSH1 0x20 DUP3 ADD SWAP1 POP SWAP3 SWAP2 POP POP JUMP JUMPDEST PUSH32 0x4F776E61626C653A206E6577206F776E657220697320746865207A65726F2061 PUSH1 0x0 DUP3 ADD MSTORE PUSH32 0x6464726573730000000000000000000000000000000000000000000000000000 PUSH1 0x20 DUP3 ADD MSTORE POP JUMP JUMPDEST PUSH1 0x0 PUSH2 0xF37 PUSH1 0x26 DUP4 PUSH2 0xECA JUMP JUMPDEST SWAP2 POP PUSH2 0xF42 DUP3 PUSH2 0xEDB JUMP JUMPDEST PUSH1 0x40 DUP3 ADD SWAP1 POP SWAP2 SWAP1 POP JUMP JUMPDEST PUSH1 0x0 PUSH1 0x20 DUP3 ADD SWAP1 POP DUP2 DUP2 SUB PUSH1 0x0 DUP4 ADD MSTORE PUSH2 0xF66 DUP2 PUSH2 0xF2A JUMP JUMPDEST SWAP1 POP SWAP2 SWAP1 POP JUMP JUMPDEST PUSH32 0x4F776E61626C653A2063616C6C6572206973206E6F7420746865206F776E6572 PUSH1 0x0 DUP3 ADD MSTORE POP JUMP JUMPDEST PUSH1 0x0 PUSH2 0xFA3 PUSH1 0x20 DUP4 PUSH2 0xECA JUMP JUMPDEST SWAP2 POP PUSH2 0xFAE DUP3 PUSH2 0xF6D JUMP JUMPDEST PUSH1 0x20 DUP3 ADD SWAP1 POP SWAP2 SWAP1 POP JUMP JUMPDEST PUSH1 0x0 PUSH1 0x20 DUP3 ADD SWAP1 POP DUP2 DUP2 SUB PUSH1 0x0 DUP4 ADD MSTORE PUSH2 0xFD2 DUP2 PUSH2 0xF96 JUMP JUMPDEST SWAP1 POP SWAP2 SWAP1 POP JUMP JUMPDEST PUSH32 0x41637475616C20737461747573206973206E6F7420636F6D70617469626C6520 PUSH1 0x0 DUP3 ADD MSTORE PUSH32 0x7769746820796F75722063686F696365202863686F6F73652070726576696F75 PUSH1 0x20 DUP3 ADD MSTORE PUSH32 0x73206F6E65206F72206E657874206F6E65290000000000000000000000000000 PUSH1 0x40 DUP3 ADD MSTORE POP JUMP JUMPDEST PUSH1 0x0 PUSH2 0x105B PUSH1 0x52 DUP4 PUSH2 0xECA JUMP JUMPDEST SWAP2 POP PUSH2 0x1066 DUP3 PUSH2 0xFD9 JUMP JUMPDEST PUSH1 0x60 DUP3 ADD SWAP1 POP SWAP2 SWAP1 POP JUMP JUMPDEST PUSH1 0x0 PUSH1 0x20 DUP3 ADD SWAP1 POP DUP2 DUP2 SUB PUSH1 0x0 DUP4 ADD MSTORE PUSH2 0x108A DUP2 PUSH2 0x104E JUMP JUMPDEST SWAP1 POP SWAP2 SWAP1 POP JUMP JUMPDEST PUSH32 0x726567697374726174696F6E20706572696F6420666F7220766F746572206973 PUSH1 0x0 DUP3 ADD MSTORE PUSH32 0x20636C6F7365642E000000000000000000000000000000000000000000000000 PUSH1 0x20 DUP3 ADD MSTORE POP JUMP JUMPDEST PUSH1 0x0 PUSH2 0x10ED PUSH1 0x28 DUP4 PUSH2 0xECA JUMP JUMPDEST SWAP2 POP PUSH2 0x10F8 DUP3 PUSH2 0x1091 JUMP JUMPDEST PUSH1 0x40 DUP3 ADD SWAP1 POP SWAP2 SWAP1 POP JUMP JUMPDEST PUSH1 0x0 PUSH1 0x20 DUP3 ADD SWAP1 POP DUP2 DUP2 SUB PUSH1 0x0 DUP4 ADD MSTORE PUSH2 0x111C DUP2 PUSH2 0x10E0 JUMP JUMPDEST SWAP1 POP SWAP2 SWAP1 POP JUMP INVALID LOG2 PUSH5 0x6970667358 0x22 SLT KECCAK256 EQ INVALID 0xDD MSTORE8 PUSH5 0xCAE63A07D0 0xEF ADDRESS 0xB5 RETURNDATACOPY 0xD0 0xE0 BYTE SAR NOT 0xAC SLT 0xAD EXTCODEHASH PUSH20 0xE0F6E729DFD5D6E764736F6C6343000812003300 "
				},
				"gasEstimates": {
					"creation": {
						"codeDepositCost": "888200",
						"executionCost": "infinite",
						"totalCost": "infinite"
					},
					"external": {
						"owner()": "2544",
						"registerVoter(address)": "infinite",
						"registerVoters(address[])": "infinite",
						"renounceOwnership()": "30398",
						"setStatus(uint8)": "31938",
						"status()": "2611",
						"transferOwnership(address)": "30810"
					},
					"internal": {
						"_isConsistantStatus(enum Voting.WorkflowStatus)": "infinite",
						"_isRegisteringVotersStatus()": "infinite"
					}
				},
				"methodIdentifiers": {
					"owner()": "8da5cb5b",
					"registerVoter(address)": "38db6dd3",
					"registerVoters(address[])": "d55ec9c1",
					"renounceOwnership()": "715018a6",
					"setStatus(uint8)": "2e49d78b",
					"status()": "200d2ed2",
					"transferOwnership(address)": "f2fde38b"
				}
			},
			"storageLayout": {
				"storage": [
					{
						"astId": 7,
						"contract": "Voting/Voting.sol:Voting",
						"label": "_owner",
						"offset": 0,
						"slot": "0",
						"type": "t_address"
					},
					{
						"astId": 161,
						"contract": "Voting/Voting.sol:Voting",
						"label": "status",
						"offset": 20,
						"slot": "0",
						"type": "t_enum(WorkflowStatus)146"
					},
					{
						"astId": 188,
						"contract": "Voting/Voting.sol:Voting",
						"label": "whitelist",
						"offset": 0,
						"slot": "1",
						"type": "t_mapping(t_address,t_struct(Voter)153_storage)"
					}
				],
				"types": {
					"t_address": {
						"encoding": "inplace",
						"label": "address",
						"numberOfBytes": "20"
					},
					"t_bool": {
						"encoding": "inplace",
						"label": "bool",
						"numberOfBytes": "1"
					},
					"t_enum(WorkflowStatus)146": {
						"encoding": "inplace",
						"label": "enum Voting.WorkflowStatus",
						"numberOfBytes": "1"
					},
					"t_mapping(t_address,t_struct(Voter)153_storage)": {
						"encoding": "mapping",
						"key": "t_address",
						"label": "mapping(address => struct Voting.Voter)",
						"numberOfBytes": "32",
						"value": "t_struct(Voter)153_storage"
					},
					"t_struct(Voter)153_storage": {
						"encoding": "inplace",
						"label": "struct Voting.Voter",
						"members": [
							{
								"astId": 148,
								"contract": "Voting/Voting.sol:Voting",
								"label": "isRegistered",
								"offset": 0,
								"slot": "0",
								"type": "t_bool"
							},
							{
								"astId": 150,
								"contract": "Voting/Voting.sol:Voting",
								"label": "hasVoted",
								"offset": 1,
								"slot": "0",
								"type": "t_bool"
							},
							{
								"astId": 152,
								"contract": "Voting/Voting.sol:Voting",
								"label": "votedProposalId",
								"offset": 0,
								"slot": "1",
								"type": "t_uint256"
							}
						],
						"numberOfBytes": "64"
					},
					"t_uint256": {
						"encoding": "inplace",
						"label": "uint256",
						"numberOfBytes": "32"
					}
				}
			},
			"userdoc": {
				"kind": "user",
				"methods": {},
				"version": 1
			}
		}
	}
}