{
	"data": {
		"bytecode": {
			"linkReferences": {},
			"object": "608060405234801561001057600080fd5b5061002d61002261003260201b60201c565b61003a60201b60201c565b6100fe565b600033905090565b60008060009054906101000a900473ffffffffffffffffffffffffffffffffffffffff169050816000806101000a81548173ffffffffffffffffffffffffffffffffffffffff021916908373ffffffffffffffffffffffffffffffffffffffff1602179055508173ffffffffffffffffffffffffffffffffffffffff168173ffffffffffffffffffffffffffffffffffffffff167f8be0079c531659141344cd1fd0a4f28419497f9722a3daafe3b4186f6b6457e060405160405180910390a35050565b6111598061010d6000396000f3fe608060405234801561001057600080fd5b506004361061007d5760003560e01c8063715018a61161005b578063715018a6146100d85780638da5cb5b146100e2578063d55ec9c114610100578063f2fde38b1461011c5761007d565b8063200d2ed2146100825780632e49d78b146100a057806338db6dd3146100bc575b600080fd5b61008a610138565b6040516100979190610b42565b60405180910390f35b6100ba60048036038101906100b59190610b96565b61014b565b005b6100d660048036038101906100d19190610c21565b61018b565b005b6100e061022f565b005b6100ea610243565b6040516100f79190610c5d565b60405180910390f35b61011a60048036038101906101159190610dd1565b61026c565b005b61013660048036038101906101319190610c21565b610364565b005b600060149054906101000a900460ff1681565b6101536103e7565b8061015d81610465565b81600060146101000a81548160ff0219169083600581111561018257610181610acb565b5b02179055505050565b6101936103e7565b61019b610987565b60018060008373ffffffffffffffffffffffffffffffffffffffff1673ffffffffffffffffffffffffffffffffffffffff16815260200190815260200160002060000160006101000a81548160ff0219169083151502179055507fb6be2187d059cc2a55fe29e0e503b566e1e0f8c8780096e185429350acffd3dd816040516102249190610c5d565b60405180910390a150565b6102376103e7565b61024160006109ff565b565b60008060009054906101000a900473ffffffffffffffffffffffffffffffffffffffff16905090565b6102746103e7565b61027c610987565b60005b81518110156103605760018060008484815181106102a05761029f610e1a565b5b602002602001015173ffffffffffffffffffffffffffffffffffffffff1673ffffffffffffffffffffffffffffffffffffffff16815260200190815260200160002060000160006101000a81548160ff0219169083151502179055507fb6be2187d059cc2a55fe29e0e503b566e1e0f8c8780096e185429350acffd3dd8282815181106103305761032f610e1a565b5b60200260200101516040516103459190610c5d565b60405180910390a1808061035890610e82565b91505061027f565b5050565b61036c6103e7565b600073ffffffffffffffffffffffffffffffffffffffff168173ffffffffffffffffffffffffffffffffffffffff16036103db576040517f08c379a00000000000000000000000000000000000000000000000000000000081526004016103d290610f4d565b60405180910390fd5b6103e4816109ff565b50565b6103ef610ac3565b73ffffffffffffffffffffffffffffffffffffffff1661040d610243565b73ffffffffffffffffffffffffffffffffffffffff1614610463576040517f08c379a000000000000000000000000000000000000000000000000000000000815260040161045a90610fb9565b60405180910390fd5b565b6000600581111561047957610478610acb565b5b81600581111561048c5761048b610acb565b5b0361054a57600060058111156104a5576104a4610acb565b5b600060149054906101000a900460ff1660058111156104c7576104c6610acb565b5b14806105065750600160058111156104e2576104e1610acb565b5b600060149054906101000a900460ff16600581111561050457610503610acb565b5b145b610545576040517f08c379a000000000000000000000000000000000000000000000000000000000815260040161053c90611071565b60405180910390fd5b610984565b6001600581111561055e5761055d610acb565b5b81600581111561057157610570610acb565b5b0361062f576000600581111561058a57610589610acb565b5b600060149054906101000a900460ff1660058111156105ac576105ab610acb565b5b14806105eb5750600260058111156105c7576105c6610acb565b5b600060149054906101000a900460ff1660058111156105e9576105e8610acb565b5b145b61062a576040517f08c379a000000000000000000000000000000000000000000000000000000000815260040161062190611071565b60405180910390fd5b610983565b6002600581111561064357610642610acb565b5b81600581111561065657610655610acb565b5b03610714576001600581111561066f5761066e610acb565b5b600060149054906101000a900460ff16600581111561069157610690610acb565b5b14806106d05750600360058111156106ac576106ab610acb565b5b600060149054906101000a900460ff1660058111156106ce576106cd610acb565b5b145b61070f576040517f08c379a000000000000000000000000000000000000000000000000000000000815260040161070690611071565b60405180910390fd5b610982565b6003600581111561072857610727610acb565b5b81600581111561073b5761073a610acb565b5b036107f9576002600581111561075457610753610acb565b5b600060149054906101000a900460ff16600581111561077657610775610acb565b5b14806107b557506004600581111561079157610790610acb565b5b600060149054906101000a900460ff1660058111156107b3576107b2610acb565b5b145b6107f4576040517f08c379a00000000000000000000000000000000000000000000000000000000081526004016107eb90611071565b60405180910390fd5b610981565b6004600581111561080d5761080c610acb565b5b8160058111156108205761081f610acb565b5b036108dd576003600581111561083957610838610acb565b5b600060149054906101000a900460ff16600581111561085b5761085a610acb565b5b1480610899575060058081111561087557610874610acb565b5b600060149054906101000a900460ff16600581111561089757610896610acb565b5b145b6108d8576040517f08c379a00000000000000000000000000000000000000000000000000000000081526004016108cf90611071565b60405180910390fd5b610980565b6005808111156108f0576108ef610acb565b5b81600581111561090357610902610acb565b5b0361097f576004600581111561091c5761091b610acb565b5b600060149054906101000a900460ff16600581111561093e5761093d610acb565b5b1461097e576040517f08c379a000000000000000000000000000000000000000000000000000000000815260040161097590611071565b60405180910390fd5b5b5b5b5b5b5b50565b6000600581111561099b5761099a610acb565b5b600060149054906101000a900460ff1660058111156109bd576109bc610acb565b5b146109fd576040517f08c379a00000000000000000000000000000000000000000000000000000000081526004016109f490611103565b60405180910390fd5b565b60008060009054906101000a900473ffffffffffffffffffffffffffffffffffffffff169050816000806101000a81548173ffffffffffffffffffffffffffffffffffffffff021916908373ffffffffffffffffffffffffffffffffffffffff1602179055508173ffffffffffffffffffffffffffffffffffffffff168173ffffffffffffffffffffffffffffffffffffffff167f8be0079c531659141344cd1fd0a4f28419497f9722a3daafe3b4186f6b6457e060405160405180910390a35050565b600033905090565b7f4e487b7100000000000000000000000000000000000000000000000000000000600052602160045260246000fd5b60068110610b0b57610b0a610acb565b5b50565b6000819050610b1c82610afa565b919050565b6000610b2c82610b0e565b9050919050565b610b3c81610b21565b82525050565b6000602082019050610b576000830184610b33565b92915050565b6000604051905090565b600080fd5b600080fd5b60068110610b7e57600080fd5b50565b600081359050610b9081610b71565b92915050565b600060208284031215610bac57610bab610b67565b5b6000610bba84828501610b81565b91505092915050565b600073ffffffffffffffffffffffffffffffffffffffff82169050919050565b6000610bee82610bc3565b9050919050565b610bfe81610be3565b8114610c0957600080fd5b50565b600081359050610c1b81610bf5565b92915050565b600060208284031215610c3757610c36610b67565b5b6000610c4584828501610c0c565b91505092915050565b610c5781610be3565b82525050565b6000602082019050610c726000830184610c4e565b92915050565b600080fd5b6000601f19601f8301169050919050565b7f4e487b7100000000000000000000000000000000000000000000000000000000600052604160045260246000fd5b610cc682610c7d565b810181811067ffffffffffffffff82111715610ce557610ce4610c8e565b5b80604052505050565b6000610cf8610b5d565b9050610d048282610cbd565b919050565b600067ffffffffffffffff821115610d2457610d23610c8e565b5b602082029050602081019050919050565b600080fd5b6000610d4d610d4884610d09565b610cee565b90508083825260208201905060208402830185811115610d7057610d6f610d35565b5b835b81811015610d995780610d858882610c0c565b845260208401935050602081019050610d72565b5050509392505050565b600082601f830112610db857610db7610c78565b5b8135610dc8848260208601610d3a565b91505092915050565b600060208284031215610de757610de6610b67565b5b600082013567ffffffffffffffff811115610e0557610e04610b6c565b5b610e1184828501610da3565b91505092915050565b7f4e487b7100000000000000000000000000000000000000000000000000000000600052603260045260246000fd5b7f4e487b7100000000000000000000000000000000000000000000000000000000600052601160045260246000fd5b6000819050919050565b6000610e8d82610e78565b91507fffffffffffffffffffffffffffffffffffffffffffffffffffffffffffffffff8203610ebf57610ebe610e49565b5b600182019050919050565b600082825260208201905092915050565b7f4f776e61626c653a206e6577206f776e657220697320746865207a65726f206160008201527f6464726573730000000000000000000000000000000000000000000000000000602082015250565b6000610f37602683610eca565b9150610f4282610edb565b604082019050919050565b60006020820190508181036000830152610f6681610f2a565b9050919050565b7f4f776e61626c653a2063616c6c6572206973206e6f7420746865206f776e6572600082015250565b6000610fa3602083610eca565b9150610fae82610f6d565b602082019050919050565b60006020820190508181036000830152610fd281610f96565b9050919050565b7f41637475616c20737461747573206973206e6f7420636f6d70617469626c652060008201527f7769746820796f75722063686f696365202863686f6f73652070726576696f7560208201527f73206f6e65206f72206e657874206f6e65290000000000000000000000000000604082015250565b600061105b605283610eca565b915061106682610fd9565b606082019050919050565b6000602082019050818103600083015261108a8161104e565b9050919050565b7f726567697374726174696f6e20706572696f6420666f7220766f74657220697360008201527f20636c6f7365642e000000000000000000000000000000000000000000000000602082015250565b60006110ed602883610eca565b91506110f882611091565b604082019050919050565b6000602082019050818103600083015261111c816110e0565b905091905056fea264697066735822122014fedd5364cae63a07d0ef30b53ed0e01a1d19ac12ad3f73e0f6e729dfd5d6e764736f6c63430008120033",
			"opcodes": "PUSH1 0x80 PUSH1 0x40 MSTORE CALLVALUE DUP1 ISZERO PUSH2 0x10 JUMPI PUSH1 0x0 DUP1 REVERT JUMPDEST POP PUSH2 0x2D PUSH2 0x22 PUSH2 0x32 PUSH1 0x20 SHL PUSH1 0x20 SHR JUMP JUMPDEST PUSH2 0x3A PUSH1 0x20 SHL PUSH1 0x20 SHR JUMP JUMPDEST PUSH2 0xFE JUMP JUMPDEST PUSH1 0x0 CALLER SWAP1 POP SWAP1 JUMP JUMPDEST PUSH1 0x0 DUP1 PUSH1 0x0 SWAP1 SLOAD SWAP1 PUSH2 0x100 EXP SWAP1 DIV PUSH20 0xFFFFFFFFFFFFFFFFFFFFFFFFFFFFFFFFFFFFFFFF AND SWAP1 POP DUP2 PUSH1 0x0 DUP1 PUSH2 0x100 EXP DUP2 SLOAD DUP2 PUSH20 0xFFFFFFFFFFFFFFFFFFFFFFFFFFFFFFFFFFFFFFFF MUL NOT AND SWAP1 DUP4 PUSH20 0xFFFFFFFFFFFFFFFFFFFFFFFFFFFFFFFFFFFFFFFF AND MUL OR SWAP1 SSTORE POP DUP2 PUSH20 0xFFFFFFFFFFFFFFFFFFFFFFFFFFFFFFFFFFFFFFFF AND DUP2 PUSH20 0xFFFFFFFFFFFFFFFFFFFFFFFFFFFFFFFFFFFFFFFF AND PUSH32 0x8BE0079C531659141344CD1FD0A4F28419497F9722A3DAAFE3B4186F6B6457E0 PUSH1 0x40 MLOAD PUSH1 0x40 MLOAD DUP1 SWAP2 SUB SWAP1 LOG3 POP POP JUMP JUMPDEST PUSH2 0x1159 DUP1 PUSH2 0x10D PUSH1 0x0 CODECOPY PUSH1 0x0 RETURN INVALID PUSH1 0x80 PUSH1 0x40 MSTORE CALLVALUE DUP1 ISZERO PUSH2 0x10 JUMPI PUSH1 0x0 DUP1 REVERT JUMPDEST POP PUSH1 0x4 CALLDATASIZE LT PUSH2 0x7D JUMPI PUSH1 0x0 CALLDATALOAD PUSH1 0xE0 SHR DUP1 PUSH4 0x715018A6 GT PUSH2 0x5B JUMPI DUP1 PUSH4 0x715018A6 EQ PUSH2 0xD8 JUMPI DUP1 PUSH4 0x8DA5CB5B EQ PUSH2 0xE2 JUMPI DUP1 PUSH4 0xD55EC9C1 EQ PUSH2 0x100 JUMPI DUP1 PUSH4 0xF2FDE38B EQ PUSH2 0x11C JUMPI PUSH2 0x7D JUMP JUMPDEST DUP1 PUSH4 0x200D2ED2 EQ PUSH2 0x82 JUMPI DUP1 PUSH4 0x2E49D78B EQ PUSH2 0xA0 JUMPI DUP1 PUSH4 0x38DB6DD3 EQ PUSH2 0xBC JUMPI JUMPDEST PUSH1 0x0 DUP1 REVERT JUMPDEST PUSH2 0x8A PUSH2 0x138 JUMP JUMPDEST PUSH1 0x40 MLOAD PUSH2 0x97 SWAP2 SWAP1 PUSH2 0xB42 JUMP JUMPDEST PUSH1 0x40 MLOAD DUP1 SWAP2 SUB SWAP1 RETURN JUMPDEST PUSH2 0xBA PUSH1 0x4 DUP1 CALLDATASIZE SUB DUP2 ADD SWAP1 PUSH2 0xB5 SWAP2 SWAP1 PUSH2 0xB96 JUMP JUMPDEST PUSH2 0x14B JUMP JUMPDEST STOP JUMPDEST PUSH2 0xD6 PUSH1 0x4 DUP1 CALLDATASIZE SUB DUP2 ADD SWAP1 PUSH2 0xD1 SWAP2 SWAP1 PUSH2 0xC21 JUMP JUMPDEST PUSH2 0x18B JUMP JUMPDEST STOP JUMPDEST PUSH2 0xE0 PUSH2 0x22F JUMP JUMPDEST STOP JUMPDEST PUSH2 0xEA PUSH2 0x243 JUMP JUMPDEST PUSH1 0x40 MLOAD PUSH2 0xF7 SWAP2 SWAP1 PUSH2 0xC5D JUMP JUMPDEST PUSH1 0x40 MLOAD DUP1 SWAP2 SUB SWAP1 RETURN JUMPDEST PUSH2 0x11A PUSH1 0x4 DUP1 CALLDATASIZE SUB DUP2 ADD SWAP1 PUSH2 0x115 SWAP2 SWAP1 PUSH2 0xDD1 JUMP JUMPDEST PUSH2 0x26C JUMP JUMPDEST STOP JUMPDEST PUSH2 0x136 PUSH1 0x4 DUP1 CALLDATASIZE SUB DUP2 ADD SWAP1 PUSH2 0x131 SWAP2 SWAP1 PUSH2 0xC21 JUMP JUMPDEST PUSH2 0x364 JUMP JUMPDEST STOP JUMPDEST PUSH1 0x0 PUSH1 0x14 SWAP1 SLOAD SWAP1 PUSH2 0x100 EXP SWAP1 DIV PUSH1 0xFF AND DUP2 JUMP JUMPDEST PUSH2 0x153 PUSH2 0x3E7 JUMP JUMPDEST DUP1 PUSH2 0x15D DUP2 PUSH2 0x465 JUMP JUMPDEST DUP2 PUSH1 0x0 PUSH1 0x14 PUSH2 0x100 EXP DUP2 SLOAD DUP2 PUSH1 0xFF MUL NOT AND SWAP1 DUP4 PUSH1 0x5 DUP2 GT ISZERO PUSH2 0x182 JUMPI PUSH2 0x181 PUSH2 0xACB JUMP JUMPDEST JUMPDEST MUL OR SWAP1 SSTORE POP POP POP JUMP JUMPDEST PUSH2 0x193 PUSH2 0x3E7 JUMP JUMPDEST PUSH2 0x19B PUSH2 0x987 JUMP JUMPDEST PUSH1 0x1 DUP1 PUSH1 0x0 DUP4 PUSH20 0xFFFFFFFFFFFFFFFFFFFFFFFFFFFFFFFFFFFFFFFF AND PUSH20 0xFFFFFFFFFFFFFFFFFFFFFFFFFFFFFFFFFFFFFFFF AND DUP2 MSTORE PUSH1 0x20 ADD SWAP1 DUP2 MSTORE PUSH1 0x20 ADD PUSH1 0x0 KECCAK256 PUSH1 0x0 ADD PUSH1 0x0 PUSH2 0x100 EXP DUP2 SLOAD DUP2 PUSH1 0xFF MUL NOT AND SWAP1 DUP4 ISZERO ISZERO MUL OR SWAP1 SSTORE POP PUSH32 0xB6BE2187D059CC2A55FE29E0E503B566E1E0F8C8780096E185429350ACFFD3DD DUP2 PUSH1 0x40 MLOAD PUSH2 0x224 SWAP2 SWAP1 PUSH2 0xC5D JUMP JUMPDEST PUSH1 0x40 MLOAD DUP1 SWAP2 SUB SWAP1 LOG1 POP JUMP JUMPDEST PUSH2 0x237 PUSH2 0x3E7 JUMP JUMPDEST PUSH2 0x241 PUSH1 0x0 PUSH2 0x9FF JUMP JUMPDEST JUMP JUMPDEST PUSH1 0x0 DUP1 PUSH1 0x0 SWAP1 SLOAD SWAP1 PUSH2 0x100 EXP SWAP1 DIV PUSH20 0xFFFFFFFFFFFFFFFFFFFFFFFFFFFFFFFFFFFFFFFF AND SWAP1 POP SWAP1 JUMP JUMPDEST PUSH2 0x274 PUSH2 0x3E7 JUMP JUMPDEST PUSH2 0x27C PUSH2 0x987 JUMP JUMPDEST PUSH1 0x0 JUMPDEST DUP2 MLOAD DUP2 LT ISZERO PUSH2 0x360 JUMPI PUSH1 0x1 DUP1 PUSH1 0x0 DUP5 DUP5 DUP2 MLOAD DUP2 LT PUSH2 0x2A0 JUMPI PUSH2 0x29F PUSH2 0xE1A JUMP JUMPDEST JUMPDEST PUSH1 0x20 MUL PUSH1 0x20 ADD ADD MLOAD PUSH20 0xFFFFFFFFFFFFFFFFFFFFFFFFFFFFFFFFFFFFFFFF AND PUSH20 0xFFFFFFFFFFFFFFFFFFFFFFFFFFFFFFFFFFFFFFFF AND DUP2 MSTORE PUSH1 0x20 ADD SWAP1 DUP2 MSTORE PUSH1 0x20 ADD PUSH1 0x0 KECCAK256 PUSH1 0x0 ADD PUSH1 0x0 PUSH2 0x100 EXP DUP2 SLOAD DUP2 PUSH1 0xFF MUL NOT AND SWAP1 DUP4 ISZERO ISZERO MUL OR SWAP1 SSTORE POP PUSH32 0xB6BE2187D059CC2A55FE29E0E503B566E1E0F8C8780096E185429350ACFFD3DD DUP3 DUP3 DUP2 MLOAD DUP2 LT PUSH2 0x330 JUMPI PUSH2 0x32F PUSH2 0xE1A JUMP JUMPDEST JUMPDEST PUSH1 0x20 MUL PUSH1 0x20 ADD ADD MLOAD PUSH1 0x40 MLOAD PUSH2 0x345 SWAP2 SWAP1 PUSH2 0xC5D JUMP JUMPDEST PUSH1 0x40 MLOAD DUP1 SWAP2 SUB SWAP1 LOG1 DUP1 DUP1 PUSH2 0x358 SWAP1 PUSH2 0xE82 JUMP JUMPDEST SWAP2 POP POP PUSH2 0x27F JUMP JUMPDEST POP POP JUMP JUMPDEST PUSH2 0x36C PUSH2 0x3E7 JUMP JUMPDEST PUSH1 0x0 PUSH20 0xFFFFFFFFFFFFFFFFFFFFFFFFFFFFFFFFFFFFFFFF AND DUP2 PUSH20 0xFFFFFFFFFFFFFFFFFFFFFFFFFFFFFFFFFFFFFFFF AND SUB PUSH2 0x3DB JUMPI PUSH1 0x40 MLOAD PUSH32 0x8C379A000000000000000000000000000000000000000000000000000000000 DUP2 MSTORE PUSH1 0x4 ADD PUSH2 0x3D2 SWAP1 PUSH2 0xF4D JUMP JUMPDEST PUSH1 0x40 MLOAD DUP1 SWAP2 SUB SWAP1 REVERT JUMPDEST PUSH2 0x3E4 DUP2 PUSH2 0x9FF JUMP JUMPDEST POP JUMP JUMPDEST PUSH2 0x3EF PUSH2 0xAC3 JUMP JUMPDEST PUSH20 0xFFFFFFFFFFFFFFFFFFFFFFFFFFFFFFFFFFFFFFFF AND PUSH2 0x40D PUSH2 0x243 JUMP JUMPDEST PUSH20 0xFFFFFFFFFFFFFFFFFFFFFFFFFFFFFFFFFFFFFFFF AND EQ PUSH2 0x463 JUMPI PUSH1 0x40 MLOAD PUSH32 0x8C379A000000000000000000000000000000000000000000000000000000000 DUP2 MSTORE PUSH1 0x4 ADD PUSH2 0x45A SWAP1 PUSH2 0xFB9 JUMP JUMPDEST PUSH1 0x40 MLOAD DUP1 SWAP2 SUB SWAP1 REVERT JUMPDEST JUMP JUMPDEST PUSH1 0x0 PUSH1 0x5 DUP2 GT ISZERO PUSH2 0x479 JUMPI PUSH2 0x478 PUSH2 0xACB JUMP JUMPDEST JUMPDEST DUP2 PUSH1 0x5 DUP2 GT ISZERO PUSH2 0x48C JUMPI PUSH2 0x48B PUSH2 0xACB JUMP JUMPDEST JUMPDEST SUB PUSH2 0x54A JUMPI PUSH1 0x0 PUSH1 0x5 DUP2 GT ISZERO PUSH2 0x4A5 JUMPI PUSH2 0x4A4 PUSH2 0xACB JUMP JUMPDEST JUMPDEST PUSH1 0x0 PUSH1 0x14 SWAP1 SLOAD SWAP1 PUSH2 0x100 EXP SWAP1 DIV PUSH1 0xFF AND PUSH1 0x5 DUP2 GT ISZERO PUSH2 0x4C7 JUMPI PUSH2 0x4C6 PUSH2 0xACB JUMP JUMPDEST JUMPDEST EQ DUP1 PUSH2 0x506 JUMPI POP PUSH1 0x1 PUSH1 0x5 DUP2 GT ISZERO PUSH2 0x4E2 JUMPI PUSH2 0x4E1 PUSH2 0xACB JUMP JUMPDEST JUMPDEST PUSH1 0x0 PUSH1 0x14 SWAP1 SLOAD SWAP1 PUSH2 0x100 EXP SWAP1 DIV PUSH1 0xFF AND PUSH1 0x5 DUP2 GT ISZERO PUSH2 0x504 JUMPI PUSH2 0x503 PUSH2 0xACB JUMP JUMPDEST JUMPDEST EQ JUMPDEST PUSH2 0x545 JUMPI PUSH1 0x40 MLOAD PUSH32 0x8C379A000000000000000000000000000000000000000000000000000000000 DUP2 MSTORE PUSH1 0x4 ADD PUSH2 0x53C SWAP1 PUSH2 0x1071 JUMP JUMPDEST PUSH1 0x40 MLOAD DUP1 SWAP2 SUB SWAP1 REVERT JUMPDEST PUSH2 0x984 JUMP JUMPDEST PUSH1 0x1 PUSH1 0x5 DUP2 GT ISZERO PUSH2 0x55E JUMPI PUSH2 0x55D PUSH2 0xACB JUMP JUMPDEST JUMPDEST DUP2 PUSH1 0x5 DUP2 GT ISZERO PUSH2 0x571 JUMPI PUSH2 0x570 PUSH2 0xACB JUMP JUMPDEST JUMPDEST SUB PUSH2 0x62F JUMPI PUSH1 0x0 PUSH1 0x5 DUP2 GT ISZERO PUSH2 0x58A JUMPI PUSH2 0x589 PUSH2 0xACB JUMP JUMPDEST JUMPDEST PUSH1 0x0 PUSH1 0x14 SWAP1 SLOAD SWAP1 PUSH2 0x100 EXP SWAP1 DIV PUSH1 0xFF AND PUSH1 0x5 DUP2 GT ISZERO PUSH2 0x5AC JUMPI PUSH2 0x5AB PUSH2 0xACB JUMP JUMPDEST JUMPDEST EQ DUP1 PUSH2 0x5EB JUMPI POP PUSH1 0x2 PUSH1 0x5 DUP2 GT ISZERO PUSH2 0x5C7 JUMPI PUSH2 0x5C6 PUSH2 0xACB JUMP JUMPDEST JUMPDEST PUSH1 0x0 PUSH1 0x14 SWAP1 SLOAD SWAP1 PUSH2 0x100 EXP SWAP1 DIV PUSH1 0xFF AND PUSH1 0x5 DUP2 GT ISZERO PUSH2 0x5E9 JUMPI PUSH2 0x5E8 PUSH2 0xACB JUMP JUMPDEST JUMPDEST EQ JUMPDEST PUSH2 0x62A JUMPI PUSH1 0x40 MLOAD PUSH32 0x8C379A000000000000000000000000000000000000000000000000000000000 DUP2 MSTORE PUSH1 0x4 ADD PUSH2 0x621 SWAP1 PUSH2 0x1071 JUMP JUMPDEST PUSH1 0x40 MLOAD DUP1 SWAP2 SUB SWAP1 REVERT JUMPDEST PUSH2 0x983 JUMP JUMPDEST PUSH1 0x2 PUSH1 0x5 DUP2 GT ISZERO PUSH2 0x643 JUMPI PUSH2 0x642 PUSH2 0xACB JUMP JUMPDEST JUMPDEST DUP2 PUSH1 0x5 DUP2 GT ISZERO PUSH2 0x656 JUMPI PUSH2 0x655 PUSH2 0xACB JUMP JUMPDEST JUMPDEST SUB PUSH2 0x714 JUMPI PUSH1 0x1 PUSH1 0x5 DUP2 GT ISZERO PUSH2 0x66F JUMPI PUSH2 0x66E PUSH2 0xACB JUMP JUMPDEST JUMPDEST PUSH1 0x0 PUSH1 0x14 SWAP1 SLOAD SWAP1 PUSH2 0x100 EXP SWAP1 DIV PUSH1 0xFF AND PUSH1 0x5 DUP2 GT ISZERO PUSH2 0x691 JUMPI PUSH2 0x690 PUSH2 0xACB JUMP JUMPDEST JUMPDEST EQ DUP1 PUSH2 0x6D0 JUMPI POP PUSH1 0x3 PUSH1 0x5 DUP2 GT ISZERO PUSH2 0x6AC JUMPI PUSH2 0x6AB PUSH2 0xACB JUMP JUMPDEST JUMPDEST PUSH1 0x0 PUSH1 0x14 SWAP1 SLOAD SWAP1 PUSH2 0x100 EXP SWAP1 DIV PUSH1 0xFF AND PUSH1 0x5 DUP2 GT ISZERO PUSH2 0x6CE JUMPI PUSH2 0x6CD PUSH2 0xACB JUMP JUMPDEST JUMPDEST EQ JUMPDEST PUSH2 0x70F JUMPI PUSH1 0x40 MLOAD PUSH32 0x8C379A000000000000000000000000000000000000000000000000000000000 DUP2 MSTORE PUSH1 0x4 ADD PUSH2 0x706 SWAP1 PUSH2 0x1071 JUMP JUMPDEST PUSH1 0x40 MLOAD DUP1 SWAP2 SUB SWAP1 REVERT JUMPDEST PUSH2 0x982 JUMP JUMPDEST PUSH1 0x3 PUSH1 0x5 DUP2 GT ISZERO PUSH2 0x728 JUMPI PUSH2 0x727 PUSH2 0xACB JUMP JUMPDEST JUMPDEST DUP2 PUSH1 0x5 DUP2 GT ISZERO PUSH2 0x73B JUMPI PUSH2 0x73A PUSH2 0xACB JUMP JUMPDEST JUMPDEST SUB PUSH2 0x7F9 JUMPI PUSH1 0x2 PUSH1 0x5 DUP2 GT ISZERO PUSH2 0x754 JUMPI PUSH2 0x753 PUSH2 0xACB JUMP JUMPDEST JUMPDEST PUSH1 0x0 PUSH1 0x14 SWAP1 SLOAD SWAP1 PUSH2 0x100 EXP SWAP1 DIV PUSH1 0xFF AND PUSH1 0x5 DUP2 GT ISZERO PUSH2 0x776 JUMPI PUSH2 0x775 PUSH2 0xACB JUMP JUMPDEST JUMPDEST EQ DUP1 PUSH2 0x7B5 JUMPI POP PUSH1 0x4 PUSH1 0x5 DUP2 GT ISZERO PUSH2 0x791 JUMPI PUSH2 0x790 PUSH2 0xACB JUMP JUMPDEST JUMPDEST PUSH1 0x0 PUSH1 0x14 SWAP1 SLOAD SWAP1 PUSH2 0x100 EXP SWAP1 DIV PUSH1 0xFF AND PUSH1 0x5 DUP2 GT ISZERO PUSH2 0x7B3 JUMPI PUSH2 0x7B2 PUSH2 0xACB JUMP JUMPDEST JUMPDEST EQ JUMPDEST PUSH2 0x7F4 JUMPI PUSH1 0x40 MLOAD PUSH32 0x8C379A000000000000000000000000000000000000000000000000000000000 DUP2 MSTORE PUSH1 0x4 ADD PUSH2 0x7EB SWAP1 PUSH2 0x1071 JUMP JUMPDEST PUSH1 0x40 MLOAD DUP1 SWAP2 SUB SWAP1 REVERT JUMPDEST PUSH2 0x981 JUMP JUMPDEST PUSH1 0x4 PUSH1 0x5 DUP2 GT ISZERO PUSH2 0x80D JUMPI PUSH2 0x80C PUSH2 0xACB JUMP JUMPDEST JUMPDEST DUP2 PUSH1 0x5 DUP2 GT ISZERO PUSH2 0x820 JUMPI PUSH2 0x81F PUSH2 0xACB JUMP JUMPDEST JUMPDEST SUB PUSH2 0x8DD JUMPI PUSH1 0x3 PUSH1 0x5 DUP2 GT ISZERO PUSH2 0x839 JUMPI PUSH2 0x838 PUSH2 0xACB JUMP JUMPDEST JUMPDEST PUSH1 0x0 PUSH1 0x14 SWAP1 SLOAD SWAP1 PUSH2 0x100 EXP SWAP1 DIV PUSH1 0xFF AND PUSH1 0x5 DUP2 GT ISZERO PUSH2 0x85B JUMPI PUSH2 0x85A PUSH2 0xACB JUMP JUMPDEST JUMPDEST EQ DUP1 PUSH2 0x899 JUMPI POP PUSH1 0x5 DUP1 DUP2 GT ISZERO PUSH2 0x875 JUMPI PUSH2 0x874 PUSH2 0xACB JUMP JUMPDEST JUMPDEST PUSH1 0x0 PUSH1 0x14 SWAP1 SLOAD SWAP1 PUSH2 0x100 EXP SWAP1 DIV PUSH1 0xFF AND PUSH1 0x5 DUP2 GT ISZERO PUSH2 0x897 JUMPI PUSH2 0x896 PUSH2 0xACB JUMP JUMPDEST JUMPDEST EQ JUMPDEST PUSH2 0x8D8 JUMPI PUSH1 0x40 MLOAD PUSH32 0x8C379A000000000000000000000000000000000000000000000000000000000 DUP2 MSTORE PUSH1 0x4 ADD PUSH2 0x8CF SWAP1 PUSH2 0x1071 JUMP JUMPDEST PUSH1 0x40 MLOAD DUP1 SWAP2 SUB SWAP1 REVERT JUMPDEST PUSH2 0x980 JUMP JUMPDEST PUSH1 0x5 DUP1 DUP2 GT ISZERO PUSH2 0x8F0 JUMPI PUSH2 0x8EF PUSH2 0xACB JUMP JUMPDEST JUMPDEST DUP2 PUSH1 0x5 DUP2 GT ISZERO PUSH2 0x903 JUMPI PUSH2 0x902 PUSH2 0xACB JUMP JUMPDEST JUMPDEST SUB PUSH2 0x97F JUMPI PUSH1 0x4 PUSH1 0x5 DUP2 GT ISZERO PUSH2 0x91C JUMPI PUSH2 0x91B PUSH2 0xACB JUMP JUMPDEST JUMPDEST PUSH1 0x0 PUSH1 0x14 SWAP1 SLOAD SWAP1 PUSH2 0x100 EXP SWAP1 DIV PUSH1 0xFF AND PUSH1 0x5 DUP2 GT ISZERO PUSH2 0x93E JUMPI PUSH2 0x93D PUSH2 0xACB JUMP JUMPDEST JUMPDEST EQ PUSH2 0x97E JUMPI PUSH1 0x40 MLOAD PUSH32 0x8C379A000000000000000000000000000000000000000000000000000000000 DUP2 MSTORE PUSH1 0x4 ADD PUSH2 0x975 SWAP1 PUSH2 0x1071 JUMP JUMPDEST PUSH1 0x40 MLOAD DUP1 SWAP2 SUB SWAP1 REVERT JUMPDEST JUMPDEST JUMPDEST JUMPDEST JUMPDEST JUMPDEST JUMPDEST POP JUMP JUMPDEST PUSH1 0x0 PUSH1 0x5 DUP2 GT ISZERO PUSH2 0x99B JUMPI PUSH2 0x99A PUSH2 0xACB JUMP JUMPDEST JUMPDEST PUSH1 0x0 PUSH1 0x14 SWAP1 SLOAD SWAP1 PUSH2 0x100 EXP SWAP1 DIV PUSH1 0xFF AND PUSH1 0x5 DUP2 GT ISZERO PUSH2 0x9BD JUMPI PUSH2 0x9BC PUSH2 0xACB JUMP JUMPDEST JUMPDEST EQ PUSH2 0x9FD JUMPI PUSH1 0x40 MLOAD PUSH32 0x8C379A000000000000000000000000000000000000000000000000000000000 DUP2 MSTORE PUSH1 0x4 ADD PUSH2 0x9F4 SWAP1 PUSH2 0x1103 JUMP JUMPDEST PUSH1 0x40 MLOAD DUP1 SWAP2 SUB SWAP1 REVERT JUMPDEST JUMP JUMPDEST PUSH1 0x0 DUP1 PUSH1 0x0 SWAP1 SLOAD SWAP1 PUSH2 0x100 EXP SWAP1 DIV PUSH20 0xFFFFFFFFFFFFFFFFFFFFFFFFFFFFFFFFFFFFFFFF AND SWAP1 POP DUP2 PUSH1 0x0 DUP1 PUSH2 0x100 EXP DUP2 SLOAD DUP2 PUSH20 0xFFFFFFFFFFFFFFFFFFFFFFFFFFFFFFFFFFFFFFFF MUL NOT AND SWAP1 DUP4 PUSH20 0xFFFFFFFFFFFFFFFFFFFFFFFFFFFFFFFFFFFFFFFF AND MUL OR SWAP1 SSTORE POP DUP2 PUSH20 0xFFFFFFFFFFFFFFFFFFFFFFFFFFFFFFFFFFFFFFFF AND DUP2 PUSH20 0xFFFFFFFFFFFFFFFFFFFFFFFFFFFFFFFFFFFFFFFF AND PUSH32 0x8BE0079C531659141344CD1FD0A4F28419497F9722A3DAAFE3B4186F6B6457E0 PUSH1 0x40 MLOAD PUSH1 0x40 MLOAD DUP1 SWAP2 SUB SWAP1 LOG3 POP POP JUMP JUMPDEST PUSH1 0x0 CALLER SWAP1 POP SWAP1 JUMP JUMPDEST PUSH32 0x4E487B7100000000000000000000000000000000000000000000000000000000 PUSH1 0x0 MSTORE PUSH1 0x21 PUSH1 0x4 MSTORE PUSH1 0x24 PUSH1 0x0 REVERT JUMPDEST PUSH1 0x6 DUP2 LT PUSH2 0xB0B JUMPI PUSH2 0xB0A PUSH2 0xACB JUMP JUMPDEST JUMPDEST POP JUMP JUMPDEST PUSH1 0x0 DUP2 SWAP1 POP PUSH2 0xB1C DUP3 PUSH2 0xAFA JUMP JUMPDEST SWAP2 SWAP1 POP JUMP JUMPDEST PUSH1 0x0 PUSH2 0xB2C DUP3 PUSH2 0xB0E JUMP JUMPDEST SWAP1 POP SWAP2 SWAP1 POP JUMP JUMPDEST PUSH2 0xB3C DUP2 PUSH2 0xB21 JUMP JUMPDEST DUP3 MSTORE POP POP JUMP JUMPDEST PUSH1 0x0 PUSH1 0x20 DUP3 ADD SWAP1 POP PUSH2 0xB57 PUSH1 0x0 DUP4 ADD DUP5 PUSH2 0xB33 JUMP JUMPDEST SWAP3 SWAP2 POP POP JUMP JUMPDEST PUSH1 0x0 PUSH1 0x40 MLOAD SWAP1 POP SWAP1 JUMP JUMPDEST PUSH1 0x0 DUP1 REVERT JUMPDEST PUSH1 0x0 DUP1 REVERT JUMPDEST PUSH1 0x6 DUP2 LT PUSH2 0xB7E JUMPI PUSH1 0x0 DUP1 REVERT JUMPDEST POP JUMP JUMPDEST PUSH1 0x0 DUP2 CALLDATALOAD SWAP1 POP PUSH2 0xB90 DUP2 PUSH2 0xB71 JUMP JUMPDEST SWAP3 SWAP2 POP POP JUMP JUMPDEST PUSH1 0x0 PUSH1 0x20 DUP3 DUP5 SUB SLT ISZERO PUSH2 0xBAC JUMPI PUSH2 0xBAB PUSH2 0xB67 JUMP JUMPDEST JUMPDEST PUSH1 0x0 PUSH2 0xBBA DUP5 DUP3 DUP6 ADD PUSH2 0xB81 JUMP JUMPDEST SWAP2 POP POP SWAP3 SWAP2 POP POP JUMP JUMPDEST PUSH1 0x0 PUSH20 0xFFFFFFFFFFFFFFFFFFFFFFFFFFFFFFFFFFFFFFFF DUP3 AND SWAP1 POP SWAP2 SWAP1 POP JUMP JUMPDEST PUSH1 0x0 PUSH2 0xBEE DUP3 PUSH2 0xBC3 JUMP JUMPDEST SWAP1 POP SWAP2 SWAP1 POP JUMP JUMPDEST PUSH2 0xBFE DUP2 PUSH2 0xBE3 JUMP JUMPDEST DUP2 EQ PUSH2 0xC09 JUMPI PUSH1 0x0 DUP1 REVERT JUMPDEST POP JUMP JUMPDEST PUSH1 0x0 DUP2 CALLDATALOAD SWAP1 POP PUSH2 0xC1B DUP2 PUSH2 0xBF5 JUMP JUMPDEST SWAP3 SWAP2 POP POP JUMP JUMPDEST PUSH1 0x0 PUSH1 0x20 DUP3 DUP5 SUB SLT ISZERO PUSH2 0xC37 JUMPI PUSH2 0xC36 PUSH2 0xB67 JUMP JUMPDEST JUMPDEST PUSH1 0x0 PUSH2 0xC45 DUP5 DUP3 DUP6 ADD PUSH2 0xC0C JUMP JUMPDEST SWAP2 POP POP SWAP3 SWAP2 POP POP JUMP JUMPDEST PUSH2 0xC57 DUP2 PUSH2 0xBE3 JUMP JUMPDEST DUP3 MSTORE POP POP JUMP JUMPDEST PUSH1 0x0 PUSH1 0x20 DUP3 ADD SWAP1 POP PUSH2 0xC72 PUSH1 0x0 DUP4 ADD DUP5 PUSH2 0xC4E JUMP JUMPDEST SWAP3 SWAP2 POP POP JUMP JUMPDEST PUSH1 0x0 DUP1 REVERT JUMPDEST PUSH1 0x0 PUSH1 0x1F NOT PUSH1 0x1F DUP4 ADD AND SWAP1 POP SWAP2 SWAP1 POP JUMP JUMPDEST PUSH32 0x4E487B7100000000000000000000000000000000000000000000000000000000 PUSH1 0x0 MSTORE PUSH1 0x41 PUSH1 0x4 MSTORE PUSH1 0x24 PUSH1 0x0 REVERT JUMPDEST PUSH2 0xCC6 DUP3 PUSH2 0xC7D JUMP JUMPDEST DUP2 ADD DUP2 DUP2 LT PUSH8 0xFFFFFFFFFFFFFFFF DUP3 GT OR ISZERO PUSH2 0xCE5 JUMPI PUSH2 0xCE4 PUSH2 0xC8E JUMP JUMPDEST JUMPDEST DUP1 PUSH1 0x40 MSTORE POP POP POP JUMP JUMPDEST PUSH1 0x0 PUSH2 0xCF8 PUSH2 0xB5D JUMP JUMPDEST SWAP1 POP PUSH2 0xD04 DUP3 DUP3 PUSH2 0xCBD JUMP JUMPDEST SWAP2 SWAP1 POP JUMP JUMPDEST PUSH1 0x0 PUSH8 0xFFFFFFFFFFFFFFFF DUP3 GT ISZERO PUSH2 0xD24 JUMPI PUSH2 0xD23 PUSH2 0xC8E JUMP JUMPDEST JUMPDEST PUSH1 0x20 DUP3 MUL SWAP1 POP PUSH1 0x20 DUP2 ADD SWAP1 POP SWAP2 SWAP1 POP JUMP JUMPDEST PUSH1 0x0 DUP1 REVERT JUMPDEST PUSH1 0x0 PUSH2 0xD4D PUSH2 0xD48 DUP5 PUSH2 0xD09 JUMP JUMPDEST PUSH2 0xCEE JUMP JUMPDEST SWAP1 POP DUP1 DUP4 DUP3 MSTORE PUSH1 0x20 DUP3 ADD SWAP1 POP PUSH1 0x20 DUP5 MUL DUP4 ADD DUP6 DUP2 GT ISZERO PUSH2 0xD70 JUMPI PUSH2 0xD6F PUSH2 0xD35 JUMP JUMPDEST JUMPDEST DUP4 JUMPDEST DUP2 DUP2 LT ISZERO PUSH2 0xD99 JUMPI DUP1 PUSH2 0xD85 DUP9 DUP3 PUSH2 0xC0C JUMP JUMPDEST DUP5 MSTORE PUSH1 0x20 DUP5 ADD SWAP4 POP POP PUSH1 0x20 DUP2 ADD SWAP1 POP PUSH2 0xD72 JUMP JUMPDEST POP POP POP SWAP4 SWAP3 POP POP POP JUMP JUMPDEST PUSH1 0x0 DUP3 PUSH1 0x1F DUP4 ADD SLT PUSH2 0xDB8 JUMPI PUSH2 0xDB7 PUSH2 0xC78 JUMP JUMPDEST JUMPDEST DUP2 CALLDATALOAD PUSH2 0xDC8 DUP5 DUP3 PUSH1 0x20 DUP7 ADD PUSH2 0xD3A JUMP JUMPDEST SWAP2 POP POP SWAP3 SWAP2 POP POP JUMP JUMPDEST PUSH1 0x0 PUSH1 0x20 DUP3 DUP5 SUB SLT ISZERO PUSH2 0xDE7 JUMPI PUSH2 0xDE6 PUSH2 0xB67 JUMP JUMPDEST JUMPDEST PUSH1 0x0 DUP3 ADD CALLDATALOAD PUSH8 0xFFFFFFFFFFFFFFFF DUP2 GT ISZERO PUSH2 0xE05 JUMPI PUSH2 0xE04 PUSH2 0xB6C JUMP JUMPDEST JUMPDEST PUSH2 0xE11 DUP5 DUP3 DUP6 ADD PUSH2 0xDA3 JUMP JUMPDEST SWAP2 POP POP SWAP3 SWAP2 POP POP JUMP JUMPDEST PUSH32 0x4E487B7100000000000000000000000000000000000000000000000000000000 PUSH1 0x0 MSTORE PUSH1 0x32 PUSH1 0x4 MSTORE PUSH1 0x24 PUSH1 0x0 REVERT JUMPDEST PUSH32 0x4E487B7100000000000000000000000000000000000000000000000000000000 PUSH1 0x0 MSTORE PUSH1 0x11 PUSH1 0x4 MSTORE PUSH1 0x24 PUSH1 0x0 REVERT JUMPDEST PUSH1 0x0 DUP2 SWAP1 POP SWAP2 SWAP1 POP JUMP JUMPDEST PUSH1 0x0 PUSH2 0xE8D DUP3 PUSH2 0xE78 JUMP JUMPDEST SWAP2 POP PUSH32 0xFFFFFFFFFFFFFFFFFFFFFFFFFFFFFFFFFFFFFFFFFFFFFFFFFFFFFFFFFFFFFFFF DUP3 SUB PUSH2 0xEBF JUMPI PUSH2 0xEBE PUSH2 0xE49 JUMP JUMPDEST JUMPDEST PUSH1 0x1 DUP3 ADD SWAP1 POP SWAP2 SWAP1 POP JUMP JUMPDEST PUSH1 0x0 DUP3 DUP3 MSTORE PUSH1 0x20 DUP3 ADD SWAP1 POP SWAP3 SWAP2 POP POP JUMP JUMPDEST PUSH32 0x4F776E61626C653A206E6577206F776E657220697320746865207A65726F2061 PUSH1 0x0 DUP3 ADD MSTORE PUSH32 0x6464726573730000000000000000000000000000000000000000000000000000 PUSH1 0x20 DUP3 ADD MSTORE POP JUMP JUMPDEST PUSH1 0x0 PUSH2 0xF37 PUSH1 0x26 DUP4 PUSH2 0xECA JUMP JUMPDEST SWAP2 POP PUSH2 0xF42 DUP3 PUSH2 0xEDB JUMP JUMPDEST PUSH1 0x40 DUP3 ADD SWAP1 POP SWAP2 SWAP1 POP JUMP JUMPDEST PUSH1 0x0 PUSH1 0x20 DUP3 ADD SWAP1 POP DUP2 DUP2 SUB PUSH1 0x0 DUP4 ADD MSTORE PUSH2 0xF66 DUP2 PUSH2 0xF2A JUMP JUMPDEST SWAP1 POP SWAP2 SWAP1 POP JUMP JUMPDEST PUSH32 0x4F776E61626C653A2063616C6C6572206973206E6F7420746865206F776E6572 PUSH1 0x0 DUP3 ADD MSTORE POP JUMP JUMPDEST PUSH1 0x0 PUSH2 0xFA3 PUSH1 0x20 DUP4 PUSH2 0xECA JUMP JUMPDEST SWAP2 POP PUSH2 0xFAE DUP3 PUSH2 0xF6D JUMP JUMPDEST PUSH1 0x20 DUP3 ADD SWAP1 POP SWAP2 SWAP1 POP JUMP JUMPDEST PUSH1 0x0 PUSH1 0x20 DUP3 ADD SWAP1 POP DUP2 DUP2 SUB PUSH1 0x0 DUP4 ADD MSTORE PUSH2 0xFD2 DUP2 PUSH2 0xF96 JUMP JUMPDEST SWAP1 POP SWAP2 SWAP1 POP JUMP JUMPDEST PUSH32 0x41637475616C20737461747573206973206E6F7420636F6D70617469626C6520 PUSH1 0x0 DUP3 ADD MSTORE PUSH32 0x7769746820796F75722063686F696365202863686F6F73652070726576696F75 PUSH1 0x20 DUP3 ADD MSTORE PUSH32 0x73206F6E65206F72206E657874206F6E65290000000000000000000000000000 PUSH1 0x40 DUP3 ADD MSTORE POP JUMP JUMPDEST PUSH1 0x0 PUSH2 0x105B PUSH1 0x52 DUP4 PUSH2 0xECA JUMP JUMPDEST SWAP2 POP PUSH2 0x1066 DUP3 PUSH2 0xFD9 JUMP JUMPDEST PUSH1 0x60 DUP3 ADD SWAP1 POP SWAP2 SWAP1 POP JUMP JUMPDEST PUSH1 0x0 PUSH1 0x20 DUP3 ADD SWAP1 POP DUP2 DUP2 SUB PUSH1 0x0 DUP4 ADD MSTORE PUSH2 0x108A DUP2 PUSH2 0x104E JUMP JUMPDEST SWAP1 POP SWAP2 SWAP1 POP JUMP JUMPDEST PUSH32 0x726567697374726174696F6E20706572696F6420666F7220766F746572206973 PUSH1 0x0 DUP3 ADD MSTORE PUSH32 0x20636C6F7365642E000000000000000000000000000000000000000000000000 PUSH1 0x20 DUP3 ADD MSTORE POP JUMP JUMPDEST PUSH1 0x0 PUSH2 0x10ED PUSH1 0x28 DUP4 PUSH2 0xECA JUMP JUMPDEST SWAP2 POP PUSH2 0x10F8 DUP3 PUSH2 0x1091 JUMP JUMPDEST PUSH1 0x40 DUP3 ADD SWAP1 POP SWAP2 SWAP1 POP JUMP JUMPDEST PUSH1 0x0 PUSH1 0x20 DUP3 ADD SWAP1 POP DUP2 DUP2 SUB PUSH1 0x0 DUP4 ADD MSTORE PUSH2 0x111C DUP2 PUSH2 0x10E0 JUMP JUMPDEST SWAP1 POP SWAP2 SWAP1 POP JUMP INVALID LOG2 PUSH5 0x6970667358 0x22 SLT KECCAK256 EQ INVALID 0xDD MSTORE8 PUSH5 0xCAE63A07D0 0xEF ADDRESS 0xB5 RETURNDATACOPY 0xD0 0xE0 BYTE SAR NOT 0xAC SLT 0xAD EXTCODEHASH PUSH20 0xE0F6E729DFD5D6E764736F6C6343000812003300 "
		},
		"gasEstimates": {
			"creation": {
				"codeDepositCost": "888200",
				"executionCost": "infinite",
				"totalCost": "infinite"
			},
			"external": {
				"owner()": "2544",
				"registerVoter(address)": "infinite",
				"registerVoters(address[])": "infinite",
				"renounceOwnership()": "30398",
				"setStatus(uint8)": "31938",
				"status()": "2611",
				"transferOwnership(address)": "30810"
			},
			"internal": {
				"_isConsistantStatus(enum Voting.WorkflowStatus)": "infinite",
				"_isRegisteringVotersStatus()": "infinite"
			}
		},
		"methodIdentifiers": {
			"owner()": "8da5cb5b",
			"registerVoter(address)": "38db6dd3",
			"registerVoters(address[])": "d55ec9c1",
			"renounceOwnership()": "715018a6",
			"setStatus(uint8)": "2e49d78b",
			"status()": "200d2ed2",
			"transferOwnership(address)": "f2fde38b"
		}
	},
	"abi": [
		{
			"anonymous": false,
			"inputs": [
				{
					"indexed": true,
					"internalType": "address",
					"name": "previousOwner",
					"type": "address"
				},
				{
					"indexed": true,
					"internalType": "address",
					"name": "newOwner",
					"type": "address"
				}
			],
			"name": "OwnershipTransferred",
			"type": "event"
		},
		{
			"anonymous": false,
			"inputs": [
				{
					"indexed": false,
					"internalType": "uint256",
					"name": "proposalId",
					"type": "uint256"
				}
			],
			"name": "ProposalRegistered",
			"type": "event"
		},
		{
			"anonymous": false,
			"inputs": [
				{
					"indexed": false,
					"internalType": "address",
					"name": "voter",
					"type": "address"
				},
				{
					"indexed": false,
					"internalType": "uint256",
					"name": "proposalId",
					"type": "uint256"
				}
			],
			"name": "Voted",
			"type": "event"
		},
		{
			"anonymous": false,
			"inputs": [
				{
					"indexed": false,
					"internalType": "address",
					"name": "voterAddress",
					"type": "address"
				}
			],
			"name": "VoterRegistered",
			"type": "event"
		},
		{
			"anonymous": false,
			"inputs": [
				{
					"indexed": false,
					"internalType": "enum Voting.WorkflowStatus",
					"name": "previousStatus",
					"type": "uint8"
				},
				{
					"indexed": false,
					"internalType": "enum Voting.WorkflowStatus",
					"name": "newStatus",
					"type": "uint8"
				}
			],
			"name": "WorkflowStatusChange",
			"type": "event"
		},
		{
			"inputs": [],
			"name": "owner",
			"outputs": [
				{
					"internalType": "address",
					"name": "",
					"type": "address"
				}
			],
			"stateMutability": "view",
			"type": "function"
		},
		{
			"inputs": [
				{
					"internalType": "address",
					"name": "_voter",
					"type": "address"
				}
			],
			"name": "registerVoter",
			"outputs": [],
			"stateMutability": "nonpayable",
			"type": "function"
		},
		{
			"inputs": [
				{
					"internalType": "address[]",
					"name": "_voters",
					"type": "address[]"
				}
			],
			"name": "registerVoters",
			"outputs": [],
			"stateMutability": "nonpayable",
			"type": "function"
		},
		{
			"inputs": [],
			"name": "renounceOwnership",
			"outputs": [],
			"stateMutability": "nonpayable",
			"type": "function"
		},
		{
			"inputs": [
				{
					"internalType": "enum Voting.WorkflowStatus",
					"name": "_status",
					"type": "uint8"
				}
			],
			"name": "setStatus",
			"outputs": [],
			"stateMutability": "nonpayable",
			"type": "function"
		},
		{
			"inputs": [],
			"name": "status",
			"outputs": [
				{
					"internalType": "enum Voting.WorkflowStatus",
					"name": "",
					"type": "uint8"
				}
			],
			"stateMutability": "view",
			"type": "function"
		},
		{
			"inputs": [
				{
					"internalType": "address",
					"name": "newOwner",
					"type": "address"
				}
			],
			"name": "transferOwnership",
			"outputs": [],
			"stateMutability": "nonpayable",
			"type": "function"
		}
	]
}