{
	"data": {
		"bytecode": {
			"linkReferences": {},
			"object": "60806040523480156200001157600080fd5b5062000032620000266200003860201b60201c565b6200004060201b60201c565b62000104565b600033905090565b60008060009054906101000a900473ffffffffffffffffffffffffffffffffffffffff169050816000806101000a81548173ffffffffffffffffffffffffffffffffffffffff021916908373ffffffffffffffffffffffffffffffffffffffff1602179055508173ffffffffffffffffffffffffffffffffffffffff168173ffffffffffffffffffffffffffffffffffffffff167f8be0079c531659141344cd1fd0a4f28419497f9722a3daafe3b4186f6b6457e060405160405180910390a35050565b612a5b80620001146000396000f3fe608060405234801561001057600080fd5b50600436106100ea5760003560e01c80638da5cb5b1161008c578063c88d385111610066578063c88d385114610216578063d55ec9c114610246578063f2fde38b14610262578063fd4a77f11461027e576100ea565b80638da5cb5b146101a85780639b19251a146101c6578063b11accff146101f8576100ea565b806338db6dd3116100c857806338db6dd31461015a57806362564c48146101765780636a00600c14610194578063715018a61461019e576100ea565b8063013cf08b146100ef578063200d2ed2146101205780632f95355b1461013e575b600080fd5b61010960048036038101906101049190611835565b61029a565b604051610117929190611901565b60405180910390f35b610128610356565b60405161013591906119a8565b60405180910390f35b61015860048036038101906101539190611af8565b610369565b005b610174600480360381019061016f9190611b9f565b610427565b005b61017e610561565b60405161018b9190611d24565b60405180910390f35b61019c61065c565b005b6101a6610704565b005b6101b0610718565b6040516101bd9190611d55565b60405180910390f35b6101e060048036038101906101db9190611b9f565b610741565b6040516101ef93929190611d8b565b60405180910390f35b610200610785565b60405161020d9190611dff565b60405180910390f35b610230600480360381019061022b9190611b9f565b610865565b60405161023d9190611e21565b60405180910390f35b610260600480360381019061025b9190611f0b565b6109f5565b005b61027c60048036038101906102779190611b9f565b610b66565b005b61029860048036038101906102939190611835565b610be9565b005b600281815481106102aa57600080fd5b90600052602060002090600202016000915090508060000180546102cd90611f83565b80601f01602080910402602001604051908101604052809291908181526020018280546102f990611f83565b80156103465780601f1061031b57610100808354040283529160200191610346565b820191906000526020600020905b81548152906001019060200180831161032957829003601f168201915b5050505050908060010154905082565b600360009054906101000a900460ff1681565b610371610de8565b610379610e80565b600260405180604001604052808381526020016000815250908060018154018082558091505060019003906000526020600020906002020160009091909190915060008201518160000190816103cf9190612160565b506020820151816001015550507f92e393e9b54e2f801d3ea4beb0c5e71a21cc34a5d34b77d0fb8a3aa1650dc18f600160028054905061040f9190612261565b60405161041c9190612295565b60405180910390a150565b61042f610ef8565b610437610f76565b60001515600160008373ffffffffffffffffffffffffffffffffffffffff1673ffffffffffffffffffffffffffffffffffffffff16815260200190815260200160002060000160009054906101000a900460ff161515146104cd576040517f08c379a00000000000000000000000000000000000000000000000000000000081526004016104c4906122fc565b60405180910390fd5b60018060008373ffffffffffffffffffffffffffffffffffffffff1673ffffffffffffffffffffffffffffffffffffffff16815260200190815260200160002060000160006101000a81548160ff0219169083151502179055507fb6be2187d059cc2a55fe29e0e503b566e1e0f8c8780096e185429350acffd3dd816040516105569190611d55565b60405180910390a150565b60606002805480602002602001604051908101604052809291908181526020016000905b8282101561065357838290600052602060002090600202016040518060400160405290816000820180546105b890611f83565b80601f01602080910402602001604051908101604052809291908181526020018280546105e490611f83565b80156106315780601f1061060657610100808354040283529160200191610631565b820191906000526020600020905b81548152906001019060200180831161061457829003601f168201915b5050505050815260200160018201548152505081526020019060010190610585565b50505050905090565b610664610ef8565b61066c610fee565b60008080600090505b6002805490508110156106ee5782600282815481106106975761069661231c565b5b90600052602060002090600202016001015411156106db57600281815481106106c3576106c261231c565b5b90600052602060002090600202016001015492508091505b80806106e69061234b565b915050610675565b50806004819055506107006005611066565b5050565b61070c610ef8565b61071660006110f4565b565b60008060009054906101000a900473ffffffffffffffffffffffffffffffffffffffff16905090565b60016020528060005260406000206000915090508060000160009054906101000a900460ff16908060000160019054906101000a900460ff16908060010154905083565b61078d6117d1565b6107956111b8565b6002600454815481106107ab576107aa61231c565b5b90600052602060002090600202016040518060400160405290816000820180546107d490611f83565b80601f016020809104026020016040519081016040528092919081815260200182805461080090611f83565b801561084d5780601f106108225761010080835404028352916020019161084d565b820191906000526020600020905b81548152906001019060200180831161083057829003601f168201915b50505050508152602001600182015481525050905090565b606061086f610fee565b600160008373ffffffffffffffffffffffffffffffffffffffff1673ffffffffffffffffffffffffffffffffffffffff16815260200190815260200160002060000160019054906101000a900460ff166108fe576040517f08c379a00000000000000000000000000000000000000000000000000000000081526004016108f5906123df565b60405180910390fd5b6002600160008473ffffffffffffffffffffffffffffffffffffffff1673ffffffffffffffffffffffffffffffffffffffff16815260200190815260200160002060010154815481106109545761095361231c565b5b9060005260206000209060020201600001805461097090611f83565b80601f016020809104026020016040519081016040528092919081815260200182805461099c90611f83565b80156109e95780601f106109be576101008083540402835291602001916109e9565b820191906000526020600020905b8154815290600101906020018083116109cc57829003601f168201915b50505050509050919050565b6109fd610ef8565b610a05610f76565b60005b8151811015610b62576001806000848481518110610a2957610a2861231c565b5b602002602001015173ffffffffffffffffffffffffffffffffffffffff1673ffffffffffffffffffffffffffffffffffffffff16815260200190815260200160002060000160006101000a81548160ff021916908315150217905515610b4f576001806000848481518110610aa157610aa061231c565b5b602002602001015173ffffffffffffffffffffffffffffffffffffffff1673ffffffffffffffffffffffffffffffffffffffff16815260200190815260200160002060000160006101000a81548160ff0219169083151502179055507fb6be2187d059cc2a55fe29e0e503b566e1e0f8c8780096e185429350acffd3dd828281518110610b3157610b3061231c565b5b6020026020010151604051610b469190611d55565b60405180910390a15b8080610b5a9061234b565b915050610a08565b5050565b610b6e610ef8565b600073ffffffffffffffffffffffffffffffffffffffff168173ffffffffffffffffffffffffffffffffffffffff1603610bdd576040517f08c379a0000000000000000000000000000000000000000000000000000000008152600401610bd490612471565b60405180910390fd5b610be6816110f4565b50565b610bf161122f565b610bf9610de8565b600160003373ffffffffffffffffffffffffffffffffffffffff1673ffffffffffffffffffffffffffffffffffffffff16815260200190815260200160002060000160019054906101000a900460ff1615610c89576040517f08c379a0000000000000000000000000000000000000000000000000000000008152600401610c8090612503565b60405180910390fd5b6002805490508110610cd0576040517f08c379a0000000000000000000000000000000000000000000000000000000008152600401610cc790612595565b60405180910390fd5b60028181548110610ce457610ce361231c565b5b90600052602060002090600202016001016000815480929190610d069061234b565b919050555080600160003373ffffffffffffffffffffffffffffffffffffffff1673ffffffffffffffffffffffffffffffffffffffff1681526020019081526020016000206001018190555060018060003373ffffffffffffffffffffffffffffffffffffffff1673ffffffffffffffffffffffffffffffffffffffff16815260200190815260200160002060000160016101000a81548160ff0219169083151502179055507f4d99b957a2bc29a30ebd96a7be8e68fe50a3c701db28a91436490b7d53870ca43382604051610ddd9291906125b5565b60405180910390a150565b60011515600160003373ffffffffffffffffffffffffffffffffffffffff1673ffffffffffffffffffffffffffffffffffffffff16815260200190815260200160002060000160009054906101000a900460ff16151514610e7e576040517f08c379a0000000000000000000000000000000000000000000000000000000008152600401610e7590612650565b60405180910390fd5b565b60016005811115610e9457610e93611931565b5b600360009054906101000a900460ff166005811115610eb657610eb5611931565b5b14610ef6576040517f08c379a0000000000000000000000000000000000000000000000000000000008152600401610eed906126bc565b60405180910390fd5b565b610f006112a7565b73ffffffffffffffffffffffffffffffffffffffff16610f1e610718565b73ffffffffffffffffffffffffffffffffffffffff1614610f74576040517f08c379a0000000000000000000000000000000000000000000000000000000008152600401610f6b90612728565b60405180910390fd5b565b60006005811115610f8a57610f89611931565b5b600360009054906101000a900460ff166005811115610fac57610fab611931565b5b14610fec576040517f08c379a0000000000000000000000000000000000000000000000000000000008152600401610fe3906127ba565b60405180910390fd5b565b6004600581111561100257611001611931565b5b600360009054906101000a900460ff16600581111561102457611023611931565b5b14611064576040517f08c379a000000000000000000000000000000000000000000000000000000000815260040161105b9061284c565b60405180910390fd5b565b61106e610ef8565b80611078816112af565b6000600360009054906101000a900460ff16905082600360006101000a81548160ff021916908360058111156110b1576110b0611931565b5b02179055507f0a97a4ee45751e2abf3e4fc8946939630b11b371ea8ae39ccdc3056e98f5cc3f81846040516110e792919061286c565b60405180910390a1505050565b60008060009054906101000a900473ffffffffffffffffffffffffffffffffffffffff169050816000806101000a81548173ffffffffffffffffffffffffffffffffffffffff021916908373ffffffffffffffffffffffffffffffffffffffff1602179055508173ffffffffffffffffffffffffffffffffffffffff168173ffffffffffffffffffffffffffffffffffffffff167f8be0079c531659141344cd1fd0a4f28419497f9722a3daafe3b4186f6b6457e060405160405180910390a35050565b6005808111156111cb576111ca611931565b5b600360009054906101000a900460ff1660058111156111ed576111ec611931565b5b1461122d576040517f08c379a0000000000000000000000000000000000000000000000000000000008152600401611224906128e1565b60405180910390fd5b565b6003600581111561124357611242611931565b5b600360009054906101000a900460ff16600581111561126557611264611931565b5b146112a5576040517f08c379a000000000000000000000000000000000000000000000000000000000815260040161129c9061294d565b60405180910390fd5b565b600033905090565b600060058111156112c3576112c2611931565b5b8160058111156112d6576112d5611931565b5b0361139457600060058111156112ef576112ee611931565b5b600360009054906101000a900460ff16600581111561131157611310611931565b5b148061135057506001600581111561132c5761132b611931565b5b600360009054906101000a900460ff16600581111561134e5761134d611931565b5b145b61138f576040517f08c379a000000000000000000000000000000000000000000000000000000000815260040161138690612a05565b60405180910390fd5b6117ce565b600160058111156113a8576113a7611931565b5b8160058111156113bb576113ba611931565b5b0361147957600060058111156113d4576113d3611931565b5b600360009054906101000a900460ff1660058111156113f6576113f5611931565b5b148061143557506002600581111561141157611410611931565b5b600360009054906101000a900460ff16600581111561143357611432611931565b5b145b611474576040517f08c379a000000000000000000000000000000000000000000000000000000000815260040161146b90612a05565b60405180910390fd5b6117cd565b6002600581111561148d5761148c611931565b5b8160058111156114a05761149f611931565b5b0361155e57600160058111156114b9576114b8611931565b5b600360009054906101000a900460ff1660058111156114db576114da611931565b5b148061151a5750600360058111156114f6576114f5611931565b5b600360009054906101000a900460ff16600581111561151857611517611931565b5b145b611559576040517f08c379a000000000000000000000000000000000000000000000000000000000815260040161155090612a05565b60405180910390fd5b6117cc565b6003600581111561157257611571611931565b5b81600581111561158557611584611931565b5b03611643576002600581111561159e5761159d611931565b5b600360009054906101000a900460ff1660058111156115c0576115bf611931565b5b14806115ff5750600460058111156115db576115da611931565b5b600360009054906101000a900460ff1660058111156115fd576115fc611931565b5b145b61163e576040517f08c379a000000000000000000000000000000000000000000000000000000000815260040161163590612a05565b60405180910390fd5b6117cb565b6004600581111561165757611656611931565b5b81600581111561166a57611669611931565b5b03611727576003600581111561168357611682611931565b5b600360009054906101000a900460ff1660058111156116a5576116a4611931565b5b14806116e357506005808111156116bf576116be611931565b5b600360009054906101000a900460ff1660058111156116e1576116e0611931565b5b145b611722576040517f08c379a000000000000000000000000000000000000000000000000000000000815260040161171990612a05565b60405180910390fd5b6117ca565b60058081111561173a57611739611931565b5b81600581111561174d5761174c611931565b5b036117c9576004600581111561176657611765611931565b5b600360009054906101000a900460ff16600581111561178857611787611931565b5b146117c8576040517f08c379a00000000000000000000000000000000000000000000000000000000081526004016117bf90612a05565b60405180910390fd5b5b5b5b5b5b5b50565b604051806040016040528060608152602001600081525090565b6000604051905090565b600080fd5b600080fd5b6000819050919050565b611812816117ff565b811461181d57600080fd5b50565b60008135905061182f81611809565b92915050565b60006020828403121561184b5761184a6117f5565b5b600061185984828501611820565b91505092915050565b600081519050919050565b600082825260208201905092915050565b60005b8381101561189c578082015181840152602081019050611881565b60008484015250505050565b6000601f19601f8301169050919050565b60006118c482611862565b6118ce818561186d565b93506118de81856020860161187e565b6118e7816118a8565b840191505092915050565b6118fb816117ff565b82525050565b6000604082019050818103600083015261191b81856118b9565b905061192a60208301846118f2565b9392505050565b7f4e487b7100000000000000000000000000000000000000000000000000000000600052602160045260246000fd5b6006811061197157611970611931565b5b50565b600081905061198282611960565b919050565b600061199282611974565b9050919050565b6119a281611987565b82525050565b60006020820190506119bd6000830184611999565b92915050565b600080fd5b600080fd5b7f4e487b7100000000000000000000000000000000000000000000000000000000600052604160045260246000fd5b611a05826118a8565b810181811067ffffffffffffffff82111715611a2457611a236119cd565b5b80604052505050565b6000611a376117eb565b9050611a4382826119fc565b919050565b600067ffffffffffffffff821115611a6357611a626119cd565b5b611a6c826118a8565b9050602081019050919050565b82818337600083830152505050565b6000611a9b611a9684611a48565b611a2d565b905082815260208101848484011115611ab757611ab66119c8565b5b611ac2848285611a79565b509392505050565b600082601f830112611adf57611ade6119c3565b5b8135611aef848260208601611a88565b91505092915050565b600060208284031215611b0e57611b0d6117f5565b5b600082013567ffffffffffffffff811115611b2c57611b2b6117fa565b5b611b3884828501611aca565b91505092915050565b600073ffffffffffffffffffffffffffffffffffffffff82169050919050565b6000611b6c82611b41565b9050919050565b611b7c81611b61565b8114611b8757600080fd5b50565b600081359050611b9981611b73565b92915050565b600060208284031215611bb557611bb46117f5565b5b6000611bc384828501611b8a565b91505092915050565b600081519050919050565b600082825260208201905092915050565b6000819050602082019050919050565b600082825260208201905092915050565b6000611c1482611862565b611c1e8185611bf8565b9350611c2e81856020860161187e565b611c37816118a8565b840191505092915050565b611c4b816117ff565b82525050565b60006040830160008301518482036000860152611c6e8282611c09565b9150506020830151611c836020860182611c42565b508091505092915050565b6000611c9a8383611c51565b905092915050565b6000602082019050919050565b6000611cba82611bcc565b611cc48185611bd7565b935083602082028501611cd685611be8565b8060005b85811015611d125784840389528151611cf38582611c8e565b9450611cfe83611ca2565b925060208a01995050600181019050611cda565b50829750879550505050505092915050565b60006020820190508181036000830152611d3e8184611caf565b905092915050565b611d4f81611b61565b82525050565b6000602082019050611d6a6000830184611d46565b92915050565b60008115159050919050565b611d8581611d70565b82525050565b6000606082019050611da06000830186611d7c565b611dad6020830185611d7c565b611dba60408301846118f2565b949350505050565b60006040830160008301518482036000860152611ddf8282611c09565b9150506020830151611df46020860182611c42565b508091505092915050565b60006020820190508181036000830152611e198184611dc2565b905092915050565b60006020820190508181036000830152611e3b81846118b9565b905092915050565b600067ffffffffffffffff821115611e5e57611e5d6119cd565b5b602082029050602081019050919050565b600080fd5b6000611e87611e8284611e43565b611a2d565b90508083825260208201905060208402830185811115611eaa57611ea9611e6f565b5b835b81811015611ed35780611ebf8882611b8a565b845260208401935050602081019050611eac565b5050509392505050565b600082601f830112611ef257611ef16119c3565b5b8135611f02848260208601611e74565b91505092915050565b600060208284031215611f2157611f206117f5565b5b600082013567ffffffffffffffff811115611f3f57611f3e6117fa565b5b611f4b84828501611edd565b91505092915050565b7f4e487b7100000000000000000000000000000000000000000000000000000000600052602260045260246000fd5b60006002820490506001821680611f9b57607f821691505b602082108103611fae57611fad611f54565b5b50919050565b60008190508160005260206000209050919050565b60006020601f8301049050919050565b600082821b905092915050565b6000600883026120167fffffffffffffffffffffffffffffffffffffffffffffffffffffffffffffffff82611fd9565b6120208683611fd9565b95508019841693508086168417925050509392505050565b6000819050919050565b600061205d612058612053846117ff565b612038565b6117ff565b9050919050565b6000819050919050565b61207783612042565b61208b61208382612064565b848454611fe6565b825550505050565b600090565b6120a0612093565b6120ab81848461206e565b505050565b5b818110156120cf576120c4600082612098565b6001810190506120b1565b5050565b601f821115612114576120e581611fb4565b6120ee84611fc9565b810160208510156120fd578190505b61211161210985611fc9565b8301826120b0565b50505b505050565b600082821c905092915050565b600061213760001984600802612119565b1980831691505092915050565b60006121508383612126565b9150826002028217905092915050565b61216982611862565b67ffffffffffffffff811115612182576121816119cd565b5b61218c8254611f83565b6121978282856120d3565b600060209050601f8311600181146121ca57600084156121b8578287015190505b6121c28582612144565b86555061222a565b601f1984166121d886611fb4565b60005b82811015612200578489015182556001820191506020850194506020810190506121db565b8683101561221d5784890151612219601f891682612126565b8355505b6001600288020188555050505b505050505050565b7f4e487b7100000000000000000000000000000000000000000000000000000000600052601160045260246000fd5b600061226c826117ff565b9150612277836117ff565b925082820390508181111561228f5761228e612232565b5b92915050565b60006020820190506122aa60008301846118f2565b92915050565b7f566f74657220697320616c72656164792077686974656c697374656400000000600082015250565b60006122e6601c8361186d565b91506122f1826122b0565b602082019050919050565b60006020820190508181036000830152612315816122d9565b9050919050565b7f4e487b7100000000000000000000000000000000000000000000000000000000600052603260045260246000fd5b6000612356826117ff565b91507fffffffffffffffffffffffffffffffffffffffffffffffffffffffffffffffff820361238857612387612232565b5b600182019050919050565b7f546869732075736572206469646e277420766f74650000000000000000000000600082015250565b60006123c960158361186d565b91506123d482612393565b602082019050919050565b600060208201905081810360008301526123f8816123bc565b9050919050565b7f4f776e61626c653a206e6577206f776e657220697320746865207a65726f206160008201527f6464726573730000000000000000000000000000000000000000000000000000602082015250565b600061245b60268361186d565b9150612466826123ff565b604082019050919050565b6000602082019050818103600083015261248a8161244e565b9050919050565b7f596f75206861766520616c726561647920766f7465642e204f6e6c79206f6e6560008201527f20766f746520697320616c6c6f77656400000000000000000000000000000000602082015250565b60006124ed60308361186d565b91506124f882612491565b604082019050919050565b6000602082019050818103600083015261251c816124e0565b9050919050565b7f50726f706f73616c20496420646f65736e27742065786973742e20506c65617360008201527f652073656c65637420612076616c69642070726f706f73616c20496400000000602082015250565b600061257f603c8361186d565b915061258a82612523565b604082019050919050565b600060208201905081810360008301526125ae81612572565b9050919050565b60006040820190506125ca6000830185611d46565b6125d760208301846118f2565b9392505050565b7f4f6e6c792077686974656c697374656420766f7465727320617265206175746860008201527f6f72697a656420746f20646f207468697320616374696f6e2e00000000000000602082015250565b600061263a60398361186d565b9150612645826125de565b604082019050919050565b600060208201905081810360008301526126698161262d565b9050919050565b7f50726f706f73616c20726567697374726174696f6e20697320636c6f7365642e600082015250565b60006126a660208361186d565b91506126b182612670565b602082019050919050565b600060208201905081810360008301526126d581612699565b9050919050565b7f4f776e61626c653a2063616c6c6572206973206e6f7420746865206f776e6572600082015250565b600061271260208361186d565b915061271d826126dc565b602082019050919050565b6000602082019050818103600083015261274181612705565b9050919050565b7f526567697374726174696f6e20706572696f6420666f7220766f74657220697360008201527f20636c6f7365642e000000000000000000000000000000000000000000000000602082015250565b60006127a460288361186d565b91506127af82612748565b604082019050919050565b600060208201905081810360008301526127d381612797565b9050919050565b7f566f74696e67206973206e6f7420636c6f736564206f7220766f74657320636f60008201527f756e7420697320616c726561647920646f6e6500000000000000000000000000602082015250565b600061283660338361186d565b9150612841826127da565b604082019050919050565b6000602082019050818103600083015261286581612829565b9050919050565b60006040820190506128816000830185611999565b61288e6020830184611999565b9392505050565b7f566f74657320636f756e74206973206e6f742079657420646f6e650000000000600082015250565b60006128cb601b8361186d565b91506128d682612895565b602082019050919050565b600060208201905081810360008301526128fa816128be565b9050919050565b7f566f74696e672073657373696f6e20697320636c6f7365642e00000000000000600082015250565b600061293760198361186d565b915061294282612901565b602082019050919050565b600060208201905081810360008301526129668161292a565b9050919050565b7f41637475616c20737461747573206973206e6f7420636f6d70617469626c652060008201527f7769746820796f75722063686f696365202863686f6f73652070726576696f7560208201527f73206f6e65206f72206e657874206f6e65290000000000000000000000000000604082015250565b60006129ef60528361186d565b91506129fa8261296d565b606082019050919050565b60006020820190508181036000830152612a1e816129e2565b905091905056fea26469706673582212206e1ddad6c06b0ebd4cefc82096191d9041c61e4ffe56cf53996be745aa5f769564736f6c63430008120033",
			"opcodes": "PUSH1 0x80 PUSH1 0x40 MSTORE CALLVALUE DUP1 ISZERO PUSH3 0x11 JUMPI PUSH1 0x0 DUP1 REVERT JUMPDEST POP PUSH3 0x32 PUSH3 0x26 PUSH3 0x38 PUSH1 0x20 SHL PUSH1 0x20 SHR JUMP JUMPDEST PUSH3 0x40 PUSH1 0x20 SHL PUSH1 0x20 SHR JUMP JUMPDEST PUSH3 0x104 JUMP JUMPDEST PUSH1 0x0 CALLER SWAP1 POP SWAP1 JUMP JUMPDEST PUSH1 0x0 DUP1 PUSH1 0x0 SWAP1 SLOAD SWAP1 PUSH2 0x100 EXP SWAP1 DIV PUSH20 0xFFFFFFFFFFFFFFFFFFFFFFFFFFFFFFFFFFFFFFFF AND SWAP1 POP DUP2 PUSH1 0x0 DUP1 PUSH2 0x100 EXP DUP2 SLOAD DUP2 PUSH20 0xFFFFFFFFFFFFFFFFFFFFFFFFFFFFFFFFFFFFFFFF MUL NOT AND SWAP1 DUP4 PUSH20 0xFFFFFFFFFFFFFFFFFFFFFFFFFFFFFFFFFFFFFFFF AND MUL OR SWAP1 SSTORE POP DUP2 PUSH20 0xFFFFFFFFFFFFFFFFFFFFFFFFFFFFFFFFFFFFFFFF AND DUP2 PUSH20 0xFFFFFFFFFFFFFFFFFFFFFFFFFFFFFFFFFFFFFFFF AND PUSH32 0x8BE0079C531659141344CD1FD0A4F28419497F9722A3DAAFE3B4186F6B6457E0 PUSH1 0x40 MLOAD PUSH1 0x40 MLOAD DUP1 SWAP2 SUB SWAP1 LOG3 POP POP JUMP JUMPDEST PUSH2 0x2A5B DUP1 PUSH3 0x114 PUSH1 0x0 CODECOPY PUSH1 0x0 RETURN INVALID PUSH1 0x80 PUSH1 0x40 MSTORE CALLVALUE DUP1 ISZERO PUSH2 0x10 JUMPI PUSH1 0x0 DUP1 REVERT JUMPDEST POP PUSH1 0x4 CALLDATASIZE LT PUSH2 0xEA JUMPI PUSH1 0x0 CALLDATALOAD PUSH1 0xE0 SHR DUP1 PUSH4 0x8DA5CB5B GT PUSH2 0x8C JUMPI DUP1 PUSH4 0xC88D3851 GT PUSH2 0x66 JUMPI DUP1 PUSH4 0xC88D3851 EQ PUSH2 0x216 JUMPI DUP1 PUSH4 0xD55EC9C1 EQ PUSH2 0x246 JUMPI DUP1 PUSH4 0xF2FDE38B EQ PUSH2 0x262 JUMPI DUP1 PUSH4 0xFD4A77F1 EQ PUSH2 0x27E JUMPI PUSH2 0xEA JUMP JUMPDEST DUP1 PUSH4 0x8DA5CB5B EQ PUSH2 0x1A8 JUMPI DUP1 PUSH4 0x9B19251A EQ PUSH2 0x1C6 JUMPI DUP1 PUSH4 0xB11ACCFF EQ PUSH2 0x1F8 JUMPI PUSH2 0xEA JUMP JUMPDEST DUP1 PUSH4 0x38DB6DD3 GT PUSH2 0xC8 JUMPI DUP1 PUSH4 0x38DB6DD3 EQ PUSH2 0x15A JUMPI DUP1 PUSH4 0x62564C48 EQ PUSH2 0x176 JUMPI DUP1 PUSH4 0x6A00600C EQ PUSH2 0x194 JUMPI DUP1 PUSH4 0x715018A6 EQ PUSH2 0x19E JUMPI PUSH2 0xEA JUMP JUMPDEST DUP1 PUSH4 0x13CF08B EQ PUSH2 0xEF JUMPI DUP1 PUSH4 0x200D2ED2 EQ PUSH2 0x120 JUMPI DUP1 PUSH4 0x2F95355B EQ PUSH2 0x13E JUMPI JUMPDEST PUSH1 0x0 DUP1 REVERT JUMPDEST PUSH2 0x109 PUSH1 0x4 DUP1 CALLDATASIZE SUB DUP2 ADD SWAP1 PUSH2 0x104 SWAP2 SWAP1 PUSH2 0x1835 JUMP JUMPDEST PUSH2 0x29A JUMP JUMPDEST PUSH1 0x40 MLOAD PUSH2 0x117 SWAP3 SWAP2 SWAP1 PUSH2 0x1901 JUMP JUMPDEST PUSH1 0x40 MLOAD DUP1 SWAP2 SUB SWAP1 RETURN JUMPDEST PUSH2 0x128 PUSH2 0x356 JUMP JUMPDEST PUSH1 0x40 MLOAD PUSH2 0x135 SWAP2 SWAP1 PUSH2 0x19A8 JUMP JUMPDEST PUSH1 0x40 MLOAD DUP1 SWAP2 SUB SWAP1 RETURN JUMPDEST PUSH2 0x158 PUSH1 0x4 DUP1 CALLDATASIZE SUB DUP2 ADD SWAP1 PUSH2 0x153 SWAP2 SWAP1 PUSH2 0x1AF8 JUMP JUMPDEST PUSH2 0x369 JUMP JUMPDEST STOP JUMPDEST PUSH2 0x174 PUSH1 0x4 DUP1 CALLDATASIZE SUB DUP2 ADD SWAP1 PUSH2 0x16F SWAP2 SWAP1 PUSH2 0x1B9F JUMP JUMPDEST PUSH2 0x427 JUMP JUMPDEST STOP JUMPDEST PUSH2 0x17E PUSH2 0x561 JUMP JUMPDEST PUSH1 0x40 MLOAD PUSH2 0x18B SWAP2 SWAP1 PUSH2 0x1D24 JUMP JUMPDEST PUSH1 0x40 MLOAD DUP1 SWAP2 SUB SWAP1 RETURN JUMPDEST PUSH2 0x19C PUSH2 0x65C JUMP JUMPDEST STOP JUMPDEST PUSH2 0x1A6 PUSH2 0x704 JUMP JUMPDEST STOP JUMPDEST PUSH2 0x1B0 PUSH2 0x718 JUMP JUMPDEST PUSH1 0x40 MLOAD PUSH2 0x1BD SWAP2 SWAP1 PUSH2 0x1D55 JUMP JUMPDEST PUSH1 0x40 MLOAD DUP1 SWAP2 SUB SWAP1 RETURN JUMPDEST PUSH2 0x1E0 PUSH1 0x4 DUP1 CALLDATASIZE SUB DUP2 ADD SWAP1 PUSH2 0x1DB SWAP2 SWAP1 PUSH2 0x1B9F JUMP JUMPDEST PUSH2 0x741 JUMP JUMPDEST PUSH1 0x40 MLOAD PUSH2 0x1EF SWAP4 SWAP3 SWAP2 SWAP1 PUSH2 0x1D8B JUMP JUMPDEST PUSH1 0x40 MLOAD DUP1 SWAP2 SUB SWAP1 RETURN JUMPDEST PUSH2 0x200 PUSH2 0x785 JUMP JUMPDEST PUSH1 0x40 MLOAD PUSH2 0x20D SWAP2 SWAP1 PUSH2 0x1DFF JUMP JUMPDEST PUSH1 0x40 MLOAD DUP1 SWAP2 SUB SWAP1 RETURN JUMPDEST PUSH2 0x230 PUSH1 0x4 DUP1 CALLDATASIZE SUB DUP2 ADD SWAP1 PUSH2 0x22B SWAP2 SWAP1 PUSH2 0x1B9F JUMP JUMPDEST PUSH2 0x865 JUMP JUMPDEST PUSH1 0x40 MLOAD PUSH2 0x23D SWAP2 SWAP1 PUSH2 0x1E21 JUMP JUMPDEST PUSH1 0x40 MLOAD DUP1 SWAP2 SUB SWAP1 RETURN JUMPDEST PUSH2 0x260 PUSH1 0x4 DUP1 CALLDATASIZE SUB DUP2 ADD SWAP1 PUSH2 0x25B SWAP2 SWAP1 PUSH2 0x1F0B JUMP JUMPDEST PUSH2 0x9F5 JUMP JUMPDEST STOP JUMPDEST PUSH2 0x27C PUSH1 0x4 DUP1 CALLDATASIZE SUB DUP2 ADD SWAP1 PUSH2 0x277 SWAP2 SWAP1 PUSH2 0x1B9F JUMP JUMPDEST PUSH2 0xB66 JUMP JUMPDEST STOP JUMPDEST PUSH2 0x298 PUSH1 0x4 DUP1 CALLDATASIZE SUB DUP2 ADD SWAP1 PUSH2 0x293 SWAP2 SWAP1 PUSH2 0x1835 JUMP JUMPDEST PUSH2 0xBE9 JUMP JUMPDEST STOP JUMPDEST PUSH1 0x2 DUP2 DUP2 SLOAD DUP2 LT PUSH2 0x2AA JUMPI PUSH1 0x0 DUP1 REVERT JUMPDEST SWAP1 PUSH1 0x0 MSTORE PUSH1 0x20 PUSH1 0x0 KECCAK256 SWAP1 PUSH1 0x2 MUL ADD PUSH1 0x0 SWAP2 POP SWAP1 POP DUP1 PUSH1 0x0 ADD DUP1 SLOAD PUSH2 0x2CD SWAP1 PUSH2 0x1F83 JUMP JUMPDEST DUP1 PUSH1 0x1F ADD PUSH1 0x20 DUP1 SWAP2 DIV MUL PUSH1 0x20 ADD PUSH1 0x40 MLOAD SWAP1 DUP2 ADD PUSH1 0x40 MSTORE DUP1 SWAP3 SWAP2 SWAP1 DUP2 DUP2 MSTORE PUSH1 0x20 ADD DUP3 DUP1 SLOAD PUSH2 0x2F9 SWAP1 PUSH2 0x1F83 JUMP JUMPDEST DUP1 ISZERO PUSH2 0x346 JUMPI DUP1 PUSH1 0x1F LT PUSH2 0x31B JUMPI PUSH2 0x100 DUP1 DUP4 SLOAD DIV MUL DUP4 MSTORE SWAP2 PUSH1 0x20 ADD SWAP2 PUSH2 0x346 JUMP JUMPDEST DUP3 ADD SWAP2 SWAP1 PUSH1 0x0 MSTORE PUSH1 0x20 PUSH1 0x0 KECCAK256 SWAP1 JUMPDEST DUP2 SLOAD DUP2 MSTORE SWAP1 PUSH1 0x1 ADD SWAP1 PUSH1 0x20 ADD DUP1 DUP4 GT PUSH2 0x329 JUMPI DUP3 SWAP1 SUB PUSH1 0x1F AND DUP3 ADD SWAP2 JUMPDEST POP POP POP POP POP SWAP1 DUP1 PUSH1 0x1 ADD SLOAD SWAP1 POP DUP3 JUMP JUMPDEST PUSH1 0x3 PUSH1 0x0 SWAP1 SLOAD SWAP1 PUSH2 0x100 EXP SWAP1 DIV PUSH1 0xFF AND DUP2 JUMP JUMPDEST PUSH2 0x371 PUSH2 0xDE8 JUMP JUMPDEST PUSH2 0x379 PUSH2 0xE80 JUMP JUMPDEST PUSH1 0x2 PUSH1 0x40 MLOAD DUP1 PUSH1 0x40 ADD PUSH1 0x40 MSTORE DUP1 DUP4 DUP2 MSTORE PUSH1 0x20 ADD PUSH1 0x0 DUP2 MSTORE POP SWAP1 DUP1 PUSH1 0x1 DUP2 SLOAD ADD DUP1 DUP3 SSTORE DUP1 SWAP2 POP POP PUSH1 0x1 SWAP1 SUB SWAP1 PUSH1 0x0 MSTORE PUSH1 0x20 PUSH1 0x0 KECCAK256 SWAP1 PUSH1 0x2 MUL ADD PUSH1 0x0 SWAP1 SWAP2 SWAP1 SWAP2 SWAP1 SWAP2 POP PUSH1 0x0 DUP3 ADD MLOAD DUP2 PUSH1 0x0 ADD SWAP1 DUP2 PUSH2 0x3CF SWAP2 SWAP1 PUSH2 0x2160 JUMP JUMPDEST POP PUSH1 0x20 DUP3 ADD MLOAD DUP2 PUSH1 0x1 ADD SSTORE POP POP PUSH32 0x92E393E9B54E2F801D3EA4BEB0C5E71A21CC34A5D34B77D0FB8A3AA1650DC18F PUSH1 0x1 PUSH1 0x2 DUP1 SLOAD SWAP1 POP PUSH2 0x40F SWAP2 SWAP1 PUSH2 0x2261 JUMP JUMPDEST PUSH1 0x40 MLOAD PUSH2 0x41C SWAP2 SWAP1 PUSH2 0x2295 JUMP JUMPDEST PUSH1 0x40 MLOAD DUP1 SWAP2 SUB SWAP1 LOG1 POP JUMP JUMPDEST PUSH2 0x42F PUSH2 0xEF8 JUMP JUMPDEST PUSH2 0x437 PUSH2 0xF76 JUMP JUMPDEST PUSH1 0x0 ISZERO ISZERO PUSH1 0x1 PUSH1 0x0 DUP4 PUSH20 0xFFFFFFFFFFFFFFFFFFFFFFFFFFFFFFFFFFFFFFFF AND PUSH20 0xFFFFFFFFFFFFFFFFFFFFFFFFFFFFFFFFFFFFFFFF AND DUP2 MSTORE PUSH1 0x20 ADD SWAP1 DUP2 MSTORE PUSH1 0x20 ADD PUSH1 0x0 KECCAK256 PUSH1 0x0 ADD PUSH1 0x0 SWAP1 SLOAD SWAP1 PUSH2 0x100 EXP SWAP1 DIV PUSH1 0xFF AND ISZERO ISZERO EQ PUSH2 0x4CD JUMPI PUSH1 0x40 MLOAD PUSH32 0x8C379A000000000000000000000000000000000000000000000000000000000 DUP2 MSTORE PUSH1 0x4 ADD PUSH2 0x4C4 SWAP1 PUSH2 0x22FC JUMP JUMPDEST PUSH1 0x40 MLOAD DUP1 SWAP2 SUB SWAP1 REVERT JUMPDEST PUSH1 0x1 DUP1 PUSH1 0x0 DUP4 PUSH20 0xFFFFFFFFFFFFFFFFFFFFFFFFFFFFFFFFFFFFFFFF AND PUSH20 0xFFFFFFFFFFFFFFFFFFFFFFFFFFFFFFFFFFFFFFFF AND DUP2 MSTORE PUSH1 0x20 ADD SWAP1 DUP2 MSTORE PUSH1 0x20 ADD PUSH1 0x0 KECCAK256 PUSH1 0x0 ADD PUSH1 0x0 PUSH2 0x100 EXP DUP2 SLOAD DUP2 PUSH1 0xFF MUL NOT AND SWAP1 DUP4 ISZERO ISZERO MUL OR SWAP1 SSTORE POP PUSH32 0xB6BE2187D059CC2A55FE29E0E503B566E1E0F8C8780096E185429350ACFFD3DD DUP2 PUSH1 0x40 MLOAD PUSH2 0x556 SWAP2 SWAP1 PUSH2 0x1D55 JUMP JUMPDEST PUSH1 0x40 MLOAD DUP1 SWAP2 SUB SWAP1 LOG1 POP JUMP JUMPDEST PUSH1 0x60 PUSH1 0x2 DUP1 SLOAD DUP1 PUSH1 0x20 MUL PUSH1 0x20 ADD PUSH1 0x40 MLOAD SWAP1 DUP2 ADD PUSH1 0x40 MSTORE DUP1 SWAP3 SWAP2 SWAP1 DUP2 DUP2 MSTORE PUSH1 0x20 ADD PUSH1 0x0 SWAP1 JUMPDEST DUP3 DUP3 LT ISZERO PUSH2 0x653 JUMPI DUP4 DUP3 SWAP1 PUSH1 0x0 MSTORE PUSH1 0x20 PUSH1 0x0 KECCAK256 SWAP1 PUSH1 0x2 MUL ADD PUSH1 0x40 MLOAD DUP1 PUSH1 0x40 ADD PUSH1 0x40 MSTORE SWAP1 DUP2 PUSH1 0x0 DUP3 ADD DUP1 SLOAD PUSH2 0x5B8 SWAP1 PUSH2 0x1F83 JUMP JUMPDEST DUP1 PUSH1 0x1F ADD PUSH1 0x20 DUP1 SWAP2 DIV MUL PUSH1 0x20 ADD PUSH1 0x40 MLOAD SWAP1 DUP2 ADD PUSH1 0x40 MSTORE DUP1 SWAP3 SWAP2 SWAP1 DUP2 DUP2 MSTORE PUSH1 0x20 ADD DUP3 DUP1 SLOAD PUSH2 0x5E4 SWAP1 PUSH2 0x1F83 JUMP JUMPDEST DUP1 ISZERO PUSH2 0x631 JUMPI DUP1 PUSH1 0x1F LT PUSH2 0x606 JUMPI PUSH2 0x100 DUP1 DUP4 SLOAD DIV MUL DUP4 MSTORE SWAP2 PUSH1 0x20 ADD SWAP2 PUSH2 0x631 JUMP JUMPDEST DUP3 ADD SWAP2 SWAP1 PUSH1 0x0 MSTORE PUSH1 0x20 PUSH1 0x0 KECCAK256 SWAP1 JUMPDEST DUP2 SLOAD DUP2 MSTORE SWAP1 PUSH1 0x1 ADD SWAP1 PUSH1 0x20 ADD DUP1 DUP4 GT PUSH2 0x614 JUMPI DUP3 SWAP1 SUB PUSH1 0x1F AND DUP3 ADD SWAP2 JUMPDEST POP POP POP POP POP DUP2 MSTORE PUSH1 0x20 ADD PUSH1 0x1 DUP3 ADD SLOAD DUP2 MSTORE POP POP DUP2 MSTORE PUSH1 0x20 ADD SWAP1 PUSH1 0x1 ADD SWAP1 PUSH2 0x585 JUMP JUMPDEST POP POP POP POP SWAP1 POP SWAP1 JUMP JUMPDEST PUSH2 0x664 PUSH2 0xEF8 JUMP JUMPDEST PUSH2 0x66C PUSH2 0xFEE JUMP JUMPDEST PUSH1 0x0 DUP1 DUP1 PUSH1 0x0 SWAP1 POP JUMPDEST PUSH1 0x2 DUP1 SLOAD SWAP1 POP DUP2 LT ISZERO PUSH2 0x6EE JUMPI DUP3 PUSH1 0x2 DUP3 DUP2 SLOAD DUP2 LT PUSH2 0x697 JUMPI PUSH2 0x696 PUSH2 0x231C JUMP JUMPDEST JUMPDEST SWAP1 PUSH1 0x0 MSTORE PUSH1 0x20 PUSH1 0x0 KECCAK256 SWAP1 PUSH1 0x2 MUL ADD PUSH1 0x1 ADD SLOAD GT ISZERO PUSH2 0x6DB JUMPI PUSH1 0x2 DUP2 DUP2 SLOAD DUP2 LT PUSH2 0x6C3 JUMPI PUSH2 0x6C2 PUSH2 0x231C JUMP JUMPDEST JUMPDEST SWAP1 PUSH1 0x0 MSTORE PUSH1 0x20 PUSH1 0x0 KECCAK256 SWAP1 PUSH1 0x2 MUL ADD PUSH1 0x1 ADD SLOAD SWAP3 POP DUP1 SWAP2 POP JUMPDEST DUP1 DUP1 PUSH2 0x6E6 SWAP1 PUSH2 0x234B JUMP JUMPDEST SWAP2 POP POP PUSH2 0x675 JUMP JUMPDEST POP DUP1 PUSH1 0x4 DUP2 SWAP1 SSTORE POP PUSH2 0x700 PUSH1 0x5 PUSH2 0x1066 JUMP JUMPDEST POP POP JUMP JUMPDEST PUSH2 0x70C PUSH2 0xEF8 JUMP JUMPDEST PUSH2 0x716 PUSH1 0x0 PUSH2 0x10F4 JUMP JUMPDEST JUMP JUMPDEST PUSH1 0x0 DUP1 PUSH1 0x0 SWAP1 SLOAD SWAP1 PUSH2 0x100 EXP SWAP1 DIV PUSH20 0xFFFFFFFFFFFFFFFFFFFFFFFFFFFFFFFFFFFFFFFF AND SWAP1 POP SWAP1 JUMP JUMPDEST PUSH1 0x1 PUSH1 0x20 MSTORE DUP1 PUSH1 0x0 MSTORE PUSH1 0x40 PUSH1 0x0 KECCAK256 PUSH1 0x0 SWAP2 POP SWAP1 POP DUP1 PUSH1 0x0 ADD PUSH1 0x0 SWAP1 SLOAD SWAP1 PUSH2 0x100 EXP SWAP1 DIV PUSH1 0xFF AND SWAP1 DUP1 PUSH1 0x0 ADD PUSH1 0x1 SWAP1 SLOAD SWAP1 PUSH2 0x100 EXP SWAP1 DIV PUSH1 0xFF AND SWAP1 DUP1 PUSH1 0x1 ADD SLOAD SWAP1 POP DUP4 JUMP JUMPDEST PUSH2 0x78D PUSH2 0x17D1 JUMP JUMPDEST PUSH2 0x795 PUSH2 0x11B8 JUMP JUMPDEST PUSH1 0x2 PUSH1 0x4 SLOAD DUP2 SLOAD DUP2 LT PUSH2 0x7AB JUMPI PUSH2 0x7AA PUSH2 0x231C JUMP JUMPDEST JUMPDEST SWAP1 PUSH1 0x0 MSTORE PUSH1 0x20 PUSH1 0x0 KECCAK256 SWAP1 PUSH1 0x2 MUL ADD PUSH1 0x40 MLOAD DUP1 PUSH1 0x40 ADD PUSH1 0x40 MSTORE SWAP1 DUP2 PUSH1 0x0 DUP3 ADD DUP1 SLOAD PUSH2 0x7D4 SWAP1 PUSH2 0x1F83 JUMP JUMPDEST DUP1 PUSH1 0x1F ADD PUSH1 0x20 DUP1 SWAP2 DIV MUL PUSH1 0x20 ADD PUSH1 0x40 MLOAD SWAP1 DUP2 ADD PUSH1 0x40 MSTORE DUP1 SWAP3 SWAP2 SWAP1 DUP2 DUP2 MSTORE PUSH1 0x20 ADD DUP3 DUP1 SLOAD PUSH2 0x800 SWAP1 PUSH2 0x1F83 JUMP JUMPDEST DUP1 ISZERO PUSH2 0x84D JUMPI DUP1 PUSH1 0x1F LT PUSH2 0x822 JUMPI PUSH2 0x100 DUP1 DUP4 SLOAD DIV MUL DUP4 MSTORE SWAP2 PUSH1 0x20 ADD SWAP2 PUSH2 0x84D JUMP JUMPDEST DUP3 ADD SWAP2 SWAP1 PUSH1 0x0 MSTORE PUSH1 0x20 PUSH1 0x0 KECCAK256 SWAP1 JUMPDEST DUP2 SLOAD DUP2 MSTORE SWAP1 PUSH1 0x1 ADD SWAP1 PUSH1 0x20 ADD DUP1 DUP4 GT PUSH2 0x830 JUMPI DUP3 SWAP1 SUB PUSH1 0x1F AND DUP3 ADD SWAP2 JUMPDEST POP POP POP POP POP DUP2 MSTORE PUSH1 0x20 ADD PUSH1 0x1 DUP3 ADD SLOAD DUP2 MSTORE POP POP SWAP1 POP SWAP1 JUMP JUMPDEST PUSH1 0x60 PUSH2 0x86F PUSH2 0xFEE JUMP JUMPDEST PUSH1 0x1 PUSH1 0x0 DUP4 PUSH20 0xFFFFFFFFFFFFFFFFFFFFFFFFFFFFFFFFFFFFFFFF AND PUSH20 0xFFFFFFFFFFFFFFFFFFFFFFFFFFFFFFFFFFFFFFFF AND DUP2 MSTORE PUSH1 0x20 ADD SWAP1 DUP2 MSTORE PUSH1 0x20 ADD PUSH1 0x0 KECCAK256 PUSH1 0x0 ADD PUSH1 0x1 SWAP1 SLOAD SWAP1 PUSH2 0x100 EXP SWAP1 DIV PUSH1 0xFF AND PUSH2 0x8FE JUMPI PUSH1 0x40 MLOAD PUSH32 0x8C379A000000000000000000000000000000000000000000000000000000000 DUP2 MSTORE PUSH1 0x4 ADD PUSH2 0x8F5 SWAP1 PUSH2 0x23DF JUMP JUMPDEST PUSH1 0x40 MLOAD DUP1 SWAP2 SUB SWAP1 REVERT JUMPDEST PUSH1 0x2 PUSH1 0x1 PUSH1 0x0 DUP5 PUSH20 0xFFFFFFFFFFFFFFFFFFFFFFFFFFFFFFFFFFFFFFFF AND PUSH20 0xFFFFFFFFFFFFFFFFFFFFFFFFFFFFFFFFFFFFFFFF AND DUP2 MSTORE PUSH1 0x20 ADD SWAP1 DUP2 MSTORE PUSH1 0x20 ADD PUSH1 0x0 KECCAK256 PUSH1 0x1 ADD SLOAD DUP2 SLOAD DUP2 LT PUSH2 0x954 JUMPI PUSH2 0x953 PUSH2 0x231C JUMP JUMPDEST JUMPDEST SWAP1 PUSH1 0x0 MSTORE PUSH1 0x20 PUSH1 0x0 KECCAK256 SWAP1 PUSH1 0x2 MUL ADD PUSH1 0x0 ADD DUP1 SLOAD PUSH2 0x970 SWAP1 PUSH2 0x1F83 JUMP JUMPDEST DUP1 PUSH1 0x1F ADD PUSH1 0x20 DUP1 SWAP2 DIV MUL PUSH1 0x20 ADD PUSH1 0x40 MLOAD SWAP1 DUP2 ADD PUSH1 0x40 MSTORE DUP1 SWAP3 SWAP2 SWAP1 DUP2 DUP2 MSTORE PUSH1 0x20 ADD DUP3 DUP1 SLOAD PUSH2 0x99C SWAP1 PUSH2 0x1F83 JUMP JUMPDEST DUP1 ISZERO PUSH2 0x9E9 JUMPI DUP1 PUSH1 0x1F LT PUSH2 0x9BE JUMPI PUSH2 0x100 DUP1 DUP4 SLOAD DIV MUL DUP4 MSTORE SWAP2 PUSH1 0x20 ADD SWAP2 PUSH2 0x9E9 JUMP JUMPDEST DUP3 ADD SWAP2 SWAP1 PUSH1 0x0 MSTORE PUSH1 0x20 PUSH1 0x0 KECCAK256 SWAP1 JUMPDEST DUP2 SLOAD DUP2 MSTORE SWAP1 PUSH1 0x1 ADD SWAP1 PUSH1 0x20 ADD DUP1 DUP4 GT PUSH2 0x9CC JUMPI DUP3 SWAP1 SUB PUSH1 0x1F AND DUP3 ADD SWAP2 JUMPDEST POP POP POP POP POP SWAP1 POP SWAP2 SWAP1 POP JUMP JUMPDEST PUSH2 0x9FD PUSH2 0xEF8 JUMP JUMPDEST PUSH2 0xA05 PUSH2 0xF76 JUMP JUMPDEST PUSH1 0x0 JUMPDEST DUP2 MLOAD DUP2 LT ISZERO PUSH2 0xB62 JUMPI PUSH1 0x1 DUP1 PUSH1 0x0 DUP5 DUP5 DUP2 MLOAD DUP2 LT PUSH2 0xA29 JUMPI PUSH2 0xA28 PUSH2 0x231C JUMP JUMPDEST JUMPDEST PUSH1 0x20 MUL PUSH1 0x20 ADD ADD MLOAD PUSH20 0xFFFFFFFFFFFFFFFFFFFFFFFFFFFFFFFFFFFFFFFF AND PUSH20 0xFFFFFFFFFFFFFFFFFFFFFFFFFFFFFFFFFFFFFFFF AND DUP2 MSTORE PUSH1 0x20 ADD SWAP1 DUP2 MSTORE PUSH1 0x20 ADD PUSH1 0x0 KECCAK256 PUSH1 0x0 ADD PUSH1 0x0 PUSH2 0x100 EXP DUP2 SLOAD DUP2 PUSH1 0xFF MUL NOT AND SWAP1 DUP4 ISZERO ISZERO MUL OR SWAP1 SSTORE ISZERO PUSH2 0xB4F JUMPI PUSH1 0x1 DUP1 PUSH1 0x0 DUP5 DUP5 DUP2 MLOAD DUP2 LT PUSH2 0xAA1 JUMPI PUSH2 0xAA0 PUSH2 0x231C JUMP JUMPDEST JUMPDEST PUSH1 0x20 MUL PUSH1 0x20 ADD ADD MLOAD PUSH20 0xFFFFFFFFFFFFFFFFFFFFFFFFFFFFFFFFFFFFFFFF AND PUSH20 0xFFFFFFFFFFFFFFFFFFFFFFFFFFFFFFFFFFFFFFFF AND DUP2 MSTORE PUSH1 0x20 ADD SWAP1 DUP2 MSTORE PUSH1 0x20 ADD PUSH1 0x0 KECCAK256 PUSH1 0x0 ADD PUSH1 0x0 PUSH2 0x100 EXP DUP2 SLOAD DUP2 PUSH1 0xFF MUL NOT AND SWAP1 DUP4 ISZERO ISZERO MUL OR SWAP1 SSTORE POP PUSH32 0xB6BE2187D059CC2A55FE29E0E503B566E1E0F8C8780096E185429350ACFFD3DD DUP3 DUP3 DUP2 MLOAD DUP2 LT PUSH2 0xB31 JUMPI PUSH2 0xB30 PUSH2 0x231C JUMP JUMPDEST JUMPDEST PUSH1 0x20 MUL PUSH1 0x20 ADD ADD MLOAD PUSH1 0x40 MLOAD PUSH2 0xB46 SWAP2 SWAP1 PUSH2 0x1D55 JUMP JUMPDEST PUSH1 0x40 MLOAD DUP1 SWAP2 SUB SWAP1 LOG1 JUMPDEST DUP1 DUP1 PUSH2 0xB5A SWAP1 PUSH2 0x234B JUMP JUMPDEST SWAP2 POP POP PUSH2 0xA08 JUMP JUMPDEST POP POP JUMP JUMPDEST PUSH2 0xB6E PUSH2 0xEF8 JUMP JUMPDEST PUSH1 0x0 PUSH20 0xFFFFFFFFFFFFFFFFFFFFFFFFFFFFFFFFFFFFFFFF AND DUP2 PUSH20 0xFFFFFFFFFFFFFFFFFFFFFFFFFFFFFFFFFFFFFFFF AND SUB PUSH2 0xBDD JUMPI PUSH1 0x40 MLOAD PUSH32 0x8C379A000000000000000000000000000000000000000000000000000000000 DUP2 MSTORE PUSH1 0x4 ADD PUSH2 0xBD4 SWAP1 PUSH2 0x2471 JUMP JUMPDEST PUSH1 0x40 MLOAD DUP1 SWAP2 SUB SWAP1 REVERT JUMPDEST PUSH2 0xBE6 DUP2 PUSH2 0x10F4 JUMP JUMPDEST POP JUMP JUMPDEST PUSH2 0xBF1 PUSH2 0x122F JUMP JUMPDEST PUSH2 0xBF9 PUSH2 0xDE8 JUMP JUMPDEST PUSH1 0x1 PUSH1 0x0 CALLER PUSH20 0xFFFFFFFFFFFFFFFFFFFFFFFFFFFFFFFFFFFFFFFF AND PUSH20 0xFFFFFFFFFFFFFFFFFFFFFFFFFFFFFFFFFFFFFFFF AND DUP2 MSTORE PUSH1 0x20 ADD SWAP1 DUP2 MSTORE PUSH1 0x20 ADD PUSH1 0x0 KECCAK256 PUSH1 0x0 ADD PUSH1 0x1 SWAP1 SLOAD SWAP1 PUSH2 0x100 EXP SWAP1 DIV PUSH1 0xFF AND ISZERO PUSH2 0xC89 JUMPI PUSH1 0x40 MLOAD PUSH32 0x8C379A000000000000000000000000000000000000000000000000000000000 DUP2 MSTORE PUSH1 0x4 ADD PUSH2 0xC80 SWAP1 PUSH2 0x2503 JUMP JUMPDEST PUSH1 0x40 MLOAD DUP1 SWAP2 SUB SWAP1 REVERT JUMPDEST PUSH1 0x2 DUP1 SLOAD SWAP1 POP DUP2 LT PUSH2 0xCD0 JUMPI PUSH1 0x40 MLOAD PUSH32 0x8C379A000000000000000000000000000000000000000000000000000000000 DUP2 MSTORE PUSH1 0x4 ADD PUSH2 0xCC7 SWAP1 PUSH2 0x2595 JUMP JUMPDEST PUSH1 0x40 MLOAD DUP1 SWAP2 SUB SWAP1 REVERT JUMPDEST PUSH1 0x2 DUP2 DUP2 SLOAD DUP2 LT PUSH2 0xCE4 JUMPI PUSH2 0xCE3 PUSH2 0x231C JUMP JUMPDEST JUMPDEST SWAP1 PUSH1 0x0 MSTORE PUSH1 0x20 PUSH1 0x0 KECCAK256 SWAP1 PUSH1 0x2 MUL ADD PUSH1 0x1 ADD PUSH1 0x0 DUP2 SLOAD DUP1 SWAP3 SWAP2 SWAP1 PUSH2 0xD06 SWAP1 PUSH2 0x234B JUMP JUMPDEST SWAP2 SWAP1 POP SSTORE POP DUP1 PUSH1 0x1 PUSH1 0x0 CALLER PUSH20 0xFFFFFFFFFFFFFFFFFFFFFFFFFFFFFFFFFFFFFFFF AND PUSH20 0xFFFFFFFFFFFFFFFFFFFFFFFFFFFFFFFFFFFFFFFF AND DUP2 MSTORE PUSH1 0x20 ADD SWAP1 DUP2 MSTORE PUSH1 0x20 ADD PUSH1 0x0 KECCAK256 PUSH1 0x1 ADD DUP2 SWAP1 SSTORE POP PUSH1 0x1 DUP1 PUSH1 0x0 CALLER PUSH20 0xFFFFFFFFFFFFFFFFFFFFFFFFFFFFFFFFFFFFFFFF AND PUSH20 0xFFFFFFFFFFFFFFFFFFFFFFFFFFFFFFFFFFFFFFFF AND DUP2 MSTORE PUSH1 0x20 ADD SWAP1 DUP2 MSTORE PUSH1 0x20 ADD PUSH1 0x0 KECCAK256 PUSH1 0x0 ADD PUSH1 0x1 PUSH2 0x100 EXP DUP2 SLOAD DUP2 PUSH1 0xFF MUL NOT AND SWAP1 DUP4 ISZERO ISZERO MUL OR SWAP1 SSTORE POP PUSH32 0x4D99B957A2BC29A30EBD96A7BE8E68FE50A3C701DB28A91436490B7D53870CA4 CALLER DUP3 PUSH1 0x40 MLOAD PUSH2 0xDDD SWAP3 SWAP2 SWAP1 PUSH2 0x25B5 JUMP JUMPDEST PUSH1 0x40 MLOAD DUP1 SWAP2 SUB SWAP1 LOG1 POP JUMP JUMPDEST PUSH1 0x1 ISZERO ISZERO PUSH1 0x1 PUSH1 0x0 CALLER PUSH20 0xFFFFFFFFFFFFFFFFFFFFFFFFFFFFFFFFFFFFFFFF AND PUSH20 0xFFFFFFFFFFFFFFFFFFFFFFFFFFFFFFFFFFFFFFFF AND DUP2 MSTORE PUSH1 0x20 ADD SWAP1 DUP2 MSTORE PUSH1 0x20 ADD PUSH1 0x0 KECCAK256 PUSH1 0x0 ADD PUSH1 0x0 SWAP1 SLOAD SWAP1 PUSH2 0x100 EXP SWAP1 DIV PUSH1 0xFF AND ISZERO ISZERO EQ PUSH2 0xE7E JUMPI PUSH1 0x40 MLOAD PUSH32 0x8C379A000000000000000000000000000000000000000000000000000000000 DUP2 MSTORE PUSH1 0x4 ADD PUSH2 0xE75 SWAP1 PUSH2 0x2650 JUMP JUMPDEST PUSH1 0x40 MLOAD DUP1 SWAP2 SUB SWAP1 REVERT JUMPDEST JUMP JUMPDEST PUSH1 0x1 PUSH1 0x5 DUP2 GT ISZERO PUSH2 0xE94 JUMPI PUSH2 0xE93 PUSH2 0x1931 JUMP JUMPDEST JUMPDEST PUSH1 0x3 PUSH1 0x0 SWAP1 SLOAD SWAP1 PUSH2 0x100 EXP SWAP1 DIV PUSH1 0xFF AND PUSH1 0x5 DUP2 GT ISZERO PUSH2 0xEB6 JUMPI PUSH2 0xEB5 PUSH2 0x1931 JUMP JUMPDEST JUMPDEST EQ PUSH2 0xEF6 JUMPI PUSH1 0x40 MLOAD PUSH32 0x8C379A000000000000000000000000000000000000000000000000000000000 DUP2 MSTORE PUSH1 0x4 ADD PUSH2 0xEED SWAP1 PUSH2 0x26BC JUMP JUMPDEST PUSH1 0x40 MLOAD DUP1 SWAP2 SUB SWAP1 REVERT JUMPDEST JUMP JUMPDEST PUSH2 0xF00 PUSH2 0x12A7 JUMP JUMPDEST PUSH20 0xFFFFFFFFFFFFFFFFFFFFFFFFFFFFFFFFFFFFFFFF AND PUSH2 0xF1E PUSH2 0x718 JUMP JUMPDEST PUSH20 0xFFFFFFFFFFFFFFFFFFFFFFFFFFFFFFFFFFFFFFFF AND EQ PUSH2 0xF74 JUMPI PUSH1 0x40 MLOAD PUSH32 0x8C379A000000000000000000000000000000000000000000000000000000000 DUP2 MSTORE PUSH1 0x4 ADD PUSH2 0xF6B SWAP1 PUSH2 0x2728 JUMP JUMPDEST PUSH1 0x40 MLOAD DUP1 SWAP2 SUB SWAP1 REVERT JUMPDEST JUMP JUMPDEST PUSH1 0x0 PUSH1 0x5 DUP2 GT ISZERO PUSH2 0xF8A JUMPI PUSH2 0xF89 PUSH2 0x1931 JUMP JUMPDEST JUMPDEST PUSH1 0x3 PUSH1 0x0 SWAP1 SLOAD SWAP1 PUSH2 0x100 EXP SWAP1 DIV PUSH1 0xFF AND PUSH1 0x5 DUP2 GT ISZERO PUSH2 0xFAC JUMPI PUSH2 0xFAB PUSH2 0x1931 JUMP JUMPDEST JUMPDEST EQ PUSH2 0xFEC JUMPI PUSH1 0x40 MLOAD PUSH32 0x8C379A000000000000000000000000000000000000000000000000000000000 DUP2 MSTORE PUSH1 0x4 ADD PUSH2 0xFE3 SWAP1 PUSH2 0x27BA JUMP JUMPDEST PUSH1 0x40 MLOAD DUP1 SWAP2 SUB SWAP1 REVERT JUMPDEST JUMP JUMPDEST PUSH1 0x4 PUSH1 0x5 DUP2 GT ISZERO PUSH2 0x1002 JUMPI PUSH2 0x1001 PUSH2 0x1931 JUMP JUMPDEST JUMPDEST PUSH1 0x3 PUSH1 0x0 SWAP1 SLOAD SWAP1 PUSH2 0x100 EXP SWAP1 DIV PUSH1 0xFF AND PUSH1 0x5 DUP2 GT ISZERO PUSH2 0x1024 JUMPI PUSH2 0x1023 PUSH2 0x1931 JUMP JUMPDEST JUMPDEST EQ PUSH2 0x1064 JUMPI PUSH1 0x40 MLOAD PUSH32 0x8C379A000000000000000000000000000000000000000000000000000000000 DUP2 MSTORE PUSH1 0x4 ADD PUSH2 0x105B SWAP1 PUSH2 0x284C JUMP JUMPDEST PUSH1 0x40 MLOAD DUP1 SWAP2 SUB SWAP1 REVERT JUMPDEST JUMP JUMPDEST PUSH2 0x106E PUSH2 0xEF8 JUMP JUMPDEST DUP1 PUSH2 0x1078 DUP2 PUSH2 0x12AF JUMP JUMPDEST PUSH1 0x0 PUSH1 0x3 PUSH1 0x0 SWAP1 SLOAD SWAP1 PUSH2 0x100 EXP SWAP1 DIV PUSH1 0xFF AND SWAP1 POP DUP3 PUSH1 0x3 PUSH1 0x0 PUSH2 0x100 EXP DUP2 SLOAD DUP2 PUSH1 0xFF MUL NOT AND SWAP1 DUP4 PUSH1 0x5 DUP2 GT ISZERO PUSH2 0x10B1 JUMPI PUSH2 0x10B0 PUSH2 0x1931 JUMP JUMPDEST JUMPDEST MUL OR SWAP1 SSTORE POP PUSH32 0xA97A4EE45751E2ABF3E4FC8946939630B11B371EA8AE39CCDC3056E98F5CC3F DUP2 DUP5 PUSH1 0x40 MLOAD PUSH2 0x10E7 SWAP3 SWAP2 SWAP1 PUSH2 0x286C JUMP JUMPDEST PUSH1 0x40 MLOAD DUP1 SWAP2 SUB SWAP1 LOG1 POP POP POP JUMP JUMPDEST PUSH1 0x0 DUP1 PUSH1 0x0 SWAP1 SLOAD SWAP1 PUSH2 0x100 EXP SWAP1 DIV PUSH20 0xFFFFFFFFFFFFFFFFFFFFFFFFFFFFFFFFFFFFFFFF AND SWAP1 POP DUP2 PUSH1 0x0 DUP1 PUSH2 0x100 EXP DUP2 SLOAD DUP2 PUSH20 0xFFFFFFFFFFFFFFFFFFFFFFFFFFFFFFFFFFFFFFFF MUL NOT AND SWAP1 DUP4 PUSH20 0xFFFFFFFFFFFFFFFFFFFFFFFFFFFFFFFFFFFFFFFF AND MUL OR SWAP1 SSTORE POP DUP2 PUSH20 0xFFFFFFFFFFFFFFFFFFFFFFFFFFFFFFFFFFFFFFFF AND DUP2 PUSH20 0xFFFFFFFFFFFFFFFFFFFFFFFFFFFFFFFFFFFFFFFF AND PUSH32 0x8BE0079C531659141344CD1FD0A4F28419497F9722A3DAAFE3B4186F6B6457E0 PUSH1 0x40 MLOAD PUSH1 0x40 MLOAD DUP1 SWAP2 SUB SWAP1 LOG3 POP POP JUMP JUMPDEST PUSH1 0x5 DUP1 DUP2 GT ISZERO PUSH2 0x11CB JUMPI PUSH2 0x11CA PUSH2 0x1931 JUMP JUMPDEST JUMPDEST PUSH1 0x3 PUSH1 0x0 SWAP1 SLOAD SWAP1 PUSH2 0x100 EXP SWAP1 DIV PUSH1 0xFF AND PUSH1 0x5 DUP2 GT ISZERO PUSH2 0x11ED JUMPI PUSH2 0x11EC PUSH2 0x1931 JUMP JUMPDEST JUMPDEST EQ PUSH2 0x122D JUMPI PUSH1 0x40 MLOAD PUSH32 0x8C379A000000000000000000000000000000000000000000000000000000000 DUP2 MSTORE PUSH1 0x4 ADD PUSH2 0x1224 SWAP1 PUSH2 0x28E1 JUMP JUMPDEST PUSH1 0x40 MLOAD DUP1 SWAP2 SUB SWAP1 REVERT JUMPDEST JUMP JUMPDEST PUSH1 0x3 PUSH1 0x5 DUP2 GT ISZERO PUSH2 0x1243 JUMPI PUSH2 0x1242 PUSH2 0x1931 JUMP JUMPDEST JUMPDEST PUSH1 0x3 PUSH1 0x0 SWAP1 SLOAD SWAP1 PUSH2 0x100 EXP SWAP1 DIV PUSH1 0xFF AND PUSH1 0x5 DUP2 GT ISZERO PUSH2 0x1265 JUMPI PUSH2 0x1264 PUSH2 0x1931 JUMP JUMPDEST JUMPDEST EQ PUSH2 0x12A5 JUMPI PUSH1 0x40 MLOAD PUSH32 0x8C379A000000000000000000000000000000000000000000000000000000000 DUP2 MSTORE PUSH1 0x4 ADD PUSH2 0x129C SWAP1 PUSH2 0x294D JUMP JUMPDEST PUSH1 0x40 MLOAD DUP1 SWAP2 SUB SWAP1 REVERT JUMPDEST JUMP JUMPDEST PUSH1 0x0 CALLER SWAP1 POP SWAP1 JUMP JUMPDEST PUSH1 0x0 PUSH1 0x5 DUP2 GT ISZERO PUSH2 0x12C3 JUMPI PUSH2 0x12C2 PUSH2 0x1931 JUMP JUMPDEST JUMPDEST DUP2 PUSH1 0x5 DUP2 GT ISZERO PUSH2 0x12D6 JUMPI PUSH2 0x12D5 PUSH2 0x1931 JUMP JUMPDEST JUMPDEST SUB PUSH2 0x1394 JUMPI PUSH1 0x0 PUSH1 0x5 DUP2 GT ISZERO PUSH2 0x12EF JUMPI PUSH2 0x12EE PUSH2 0x1931 JUMP JUMPDEST JUMPDEST PUSH1 0x3 PUSH1 0x0 SWAP1 SLOAD SWAP1 PUSH2 0x100 EXP SWAP1 DIV PUSH1 0xFF AND PUSH1 0x5 DUP2 GT ISZERO PUSH2 0x1311 JUMPI PUSH2 0x1310 PUSH2 0x1931 JUMP JUMPDEST JUMPDEST EQ DUP1 PUSH2 0x1350 JUMPI POP PUSH1 0x1 PUSH1 0x5 DUP2 GT ISZERO PUSH2 0x132C JUMPI PUSH2 0x132B PUSH2 0x1931 JUMP JUMPDEST JUMPDEST PUSH1 0x3 PUSH1 0x0 SWAP1 SLOAD SWAP1 PUSH2 0x100 EXP SWAP1 DIV PUSH1 0xFF AND PUSH1 0x5 DUP2 GT ISZERO PUSH2 0x134E JUMPI PUSH2 0x134D PUSH2 0x1931 JUMP JUMPDEST JUMPDEST EQ JUMPDEST PUSH2 0x138F JUMPI PUSH1 0x40 MLOAD PUSH32 0x8C379A000000000000000000000000000000000000000000000000000000000 DUP2 MSTORE PUSH1 0x4 ADD PUSH2 0x1386 SWAP1 PUSH2 0x2A05 JUMP JUMPDEST PUSH1 0x40 MLOAD DUP1 SWAP2 SUB SWAP1 REVERT JUMPDEST PUSH2 0x17CE JUMP JUMPDEST PUSH1 0x1 PUSH1 0x5 DUP2 GT ISZERO PUSH2 0x13A8 JUMPI PUSH2 0x13A7 PUSH2 0x1931 JUMP JUMPDEST JUMPDEST DUP2 PUSH1 0x5 DUP2 GT ISZERO PUSH2 0x13BB JUMPI PUSH2 0x13BA PUSH2 0x1931 JUMP JUMPDEST JUMPDEST SUB PUSH2 0x1479 JUMPI PUSH1 0x0 PUSH1 0x5 DUP2 GT ISZERO PUSH2 0x13D4 JUMPI PUSH2 0x13D3 PUSH2 0x1931 JUMP JUMPDEST JUMPDEST PUSH1 0x3 PUSH1 0x0 SWAP1 SLOAD SWAP1 PUSH2 0x100 EXP SWAP1 DIV PUSH1 0xFF AND PUSH1 0x5 DUP2 GT ISZERO PUSH2 0x13F6 JUMPI PUSH2 0x13F5 PUSH2 0x1931 JUMP JUMPDEST JUMPDEST EQ DUP1 PUSH2 0x1435 JUMPI POP PUSH1 0x2 PUSH1 0x5 DUP2 GT ISZERO PUSH2 0x1411 JUMPI PUSH2 0x1410 PUSH2 0x1931 JUMP JUMPDEST JUMPDEST PUSH1 0x3 PUSH1 0x0 SWAP1 SLOAD SWAP1 PUSH2 0x100 EXP SWAP1 DIV PUSH1 0xFF AND PUSH1 0x5 DUP2 GT ISZERO PUSH2 0x1433 JUMPI PUSH2 0x1432 PUSH2 0x1931 JUMP JUMPDEST JUMPDEST EQ JUMPDEST PUSH2 0x1474 JUMPI PUSH1 0x40 MLOAD PUSH32 0x8C379A000000000000000000000000000000000000000000000000000000000 DUP2 MSTORE PUSH1 0x4 ADD PUSH2 0x146B SWAP1 PUSH2 0x2A05 JUMP JUMPDEST PUSH1 0x40 MLOAD DUP1 SWAP2 SUB SWAP1 REVERT JUMPDEST PUSH2 0x17CD JUMP JUMPDEST PUSH1 0x2 PUSH1 0x5 DUP2 GT ISZERO PUSH2 0x148D JUMPI PUSH2 0x148C PUSH2 0x1931 JUMP JUMPDEST JUMPDEST DUP2 PUSH1 0x5 DUP2 GT ISZERO PUSH2 0x14A0 JUMPI PUSH2 0x149F PUSH2 0x1931 JUMP JUMPDEST JUMPDEST SUB PUSH2 0x155E JUMPI PUSH1 0x1 PUSH1 0x5 DUP2 GT ISZERO PUSH2 0x14B9 JUMPI PUSH2 0x14B8 PUSH2 0x1931 JUMP JUMPDEST JUMPDEST PUSH1 0x3 PUSH1 0x0 SWAP1 SLOAD SWAP1 PUSH2 0x100 EXP SWAP1 DIV PUSH1 0xFF AND PUSH1 0x5 DUP2 GT ISZERO PUSH2 0x14DB JUMPI PUSH2 0x14DA PUSH2 0x1931 JUMP JUMPDEST JUMPDEST EQ DUP1 PUSH2 0x151A JUMPI POP PUSH1 0x3 PUSH1 0x5 DUP2 GT ISZERO PUSH2 0x14F6 JUMPI PUSH2 0x14F5 PUSH2 0x1931 JUMP JUMPDEST JUMPDEST PUSH1 0x3 PUSH1 0x0 SWAP1 SLOAD SWAP1 PUSH2 0x100 EXP SWAP1 DIV PUSH1 0xFF AND PUSH1 0x5 DUP2 GT ISZERO PUSH2 0x1518 JUMPI PUSH2 0x1517 PUSH2 0x1931 JUMP JUMPDEST JUMPDEST EQ JUMPDEST PUSH2 0x1559 JUMPI PUSH1 0x40 MLOAD PUSH32 0x8C379A000000000000000000000000000000000000000000000000000000000 DUP2 MSTORE PUSH1 0x4 ADD PUSH2 0x1550 SWAP1 PUSH2 0x2A05 JUMP JUMPDEST PUSH1 0x40 MLOAD DUP1 SWAP2 SUB SWAP1 REVERT JUMPDEST PUSH2 0x17CC JUMP JUMPDEST PUSH1 0x3 PUSH1 0x5 DUP2 GT ISZERO PUSH2 0x1572 JUMPI PUSH2 0x1571 PUSH2 0x1931 JUMP JUMPDEST JUMPDEST DUP2 PUSH1 0x5 DUP2 GT ISZERO PUSH2 0x1585 JUMPI PUSH2 0x1584 PUSH2 0x1931 JUMP JUMPDEST JUMPDEST SUB PUSH2 0x1643 JUMPI PUSH1 0x2 PUSH1 0x5 DUP2 GT ISZERO PUSH2 0x159E JUMPI PUSH2 0x159D PUSH2 0x1931 JUMP JUMPDEST JUMPDEST PUSH1 0x3 PUSH1 0x0 SWAP1 SLOAD SWAP1 PUSH2 0x100 EXP SWAP1 DIV PUSH1 0xFF AND PUSH1 0x5 DUP2 GT ISZERO PUSH2 0x15C0 JUMPI PUSH2 0x15BF PUSH2 0x1931 JUMP JUMPDEST JUMPDEST EQ DUP1 PUSH2 0x15FF JUMPI POP PUSH1 0x4 PUSH1 0x5 DUP2 GT ISZERO PUSH2 0x15DB JUMPI PUSH2 0x15DA PUSH2 0x1931 JUMP JUMPDEST JUMPDEST PUSH1 0x3 PUSH1 0x0 SWAP1 SLOAD SWAP1 PUSH2 0x100 EXP SWAP1 DIV PUSH1 0xFF AND PUSH1 0x5 DUP2 GT ISZERO PUSH2 0x15FD JUMPI PUSH2 0x15FC PUSH2 0x1931 JUMP JUMPDEST JUMPDEST EQ JUMPDEST PUSH2 0x163E JUMPI PUSH1 0x40 MLOAD PUSH32 0x8C379A000000000000000000000000000000000000000000000000000000000 DUP2 MSTORE PUSH1 0x4 ADD PUSH2 0x1635 SWAP1 PUSH2 0x2A05 JUMP JUMPDEST PUSH1 0x40 MLOAD DUP1 SWAP2 SUB SWAP1 REVERT JUMPDEST PUSH2 0x17CB JUMP JUMPDEST PUSH1 0x4 PUSH1 0x5 DUP2 GT ISZERO PUSH2 0x1657 JUMPI PUSH2 0x1656 PUSH2 0x1931 JUMP JUMPDEST JUMPDEST DUP2 PUSH1 0x5 DUP2 GT ISZERO PUSH2 0x166A JUMPI PUSH2 0x1669 PUSH2 0x1931 JUMP JUMPDEST JUMPDEST SUB PUSH2 0x1727 JUMPI PUSH1 0x3 PUSH1 0x5 DUP2 GT ISZERO PUSH2 0x1683 JUMPI PUSH2 0x1682 PUSH2 0x1931 JUMP JUMPDEST JUMPDEST PUSH1 0x3 PUSH1 0x0 SWAP1 SLOAD SWAP1 PUSH2 0x100 EXP SWAP1 DIV PUSH1 0xFF AND PUSH1 0x5 DUP2 GT ISZERO PUSH2 0x16A5 JUMPI PUSH2 0x16A4 PUSH2 0x1931 JUMP JUMPDEST JUMPDEST EQ DUP1 PUSH2 0x16E3 JUMPI POP PUSH1 0x5 DUP1 DUP2 GT ISZERO PUSH2 0x16BF JUMPI PUSH2 0x16BE PUSH2 0x1931 JUMP JUMPDEST JUMPDEST PUSH1 0x3 PUSH1 0x0 SWAP1 SLOAD SWAP1 PUSH2 0x100 EXP SWAP1 DIV PUSH1 0xFF AND PUSH1 0x5 DUP2 GT ISZERO PUSH2 0x16E1 JUMPI PUSH2 0x16E0 PUSH2 0x1931 JUMP JUMPDEST JUMPDEST EQ JUMPDEST PUSH2 0x1722 JUMPI PUSH1 0x40 MLOAD PUSH32 0x8C379A000000000000000000000000000000000000000000000000000000000 DUP2 MSTORE PUSH1 0x4 ADD PUSH2 0x1719 SWAP1 PUSH2 0x2A05 JUMP JUMPDEST PUSH1 0x40 MLOAD DUP1 SWAP2 SUB SWAP1 REVERT JUMPDEST PUSH2 0x17CA JUMP JUMPDEST PUSH1 0x5 DUP1 DUP2 GT ISZERO PUSH2 0x173A JUMPI PUSH2 0x1739 PUSH2 0x1931 JUMP JUMPDEST JUMPDEST DUP2 PUSH1 0x5 DUP2 GT ISZERO PUSH2 0x174D JUMPI PUSH2 0x174C PUSH2 0x1931 JUMP JUMPDEST JUMPDEST SUB PUSH2 0x17C9 JUMPI PUSH1 0x4 PUSH1 0x5 DUP2 GT ISZERO PUSH2 0x1766 JUMPI PUSH2 0x1765 PUSH2 0x1931 JUMP JUMPDEST JUMPDEST PUSH1 0x3 PUSH1 0x0 SWAP1 SLOAD SWAP1 PUSH2 0x100 EXP SWAP1 DIV PUSH1 0xFF AND PUSH1 0x5 DUP2 GT ISZERO PUSH2 0x1788 JUMPI PUSH2 0x1787 PUSH2 0x1931 JUMP JUMPDEST JUMPDEST EQ PUSH2 0x17C8 JUMPI PUSH1 0x40 MLOAD PUSH32 0x8C379A000000000000000000000000000000000000000000000000000000000 DUP2 MSTORE PUSH1 0x4 ADD PUSH2 0x17BF SWAP1 PUSH2 0x2A05 JUMP JUMPDEST PUSH1 0x40 MLOAD DUP1 SWAP2 SUB SWAP1 REVERT JUMPDEST JUMPDEST JUMPDEST JUMPDEST JUMPDEST JUMPDEST JUMPDEST POP JUMP JUMPDEST PUSH1 0x40 MLOAD DUP1 PUSH1 0x40 ADD PUSH1 0x40 MSTORE DUP1 PUSH1 0x60 DUP2 MSTORE PUSH1 0x20 ADD PUSH1 0x0 DUP2 MSTORE POP SWAP1 JUMP JUMPDEST PUSH1 0x0 PUSH1 0x40 MLOAD SWAP1 POP SWAP1 JUMP JUMPDEST PUSH1 0x0 DUP1 REVERT JUMPDEST PUSH1 0x0 DUP1 REVERT JUMPDEST PUSH1 0x0 DUP2 SWAP1 POP SWAP2 SWAP1 POP JUMP JUMPDEST PUSH2 0x1812 DUP2 PUSH2 0x17FF JUMP JUMPDEST DUP2 EQ PUSH2 0x181D JUMPI PUSH1 0x0 DUP1 REVERT JUMPDEST POP JUMP JUMPDEST PUSH1 0x0 DUP2 CALLDATALOAD SWAP1 POP PUSH2 0x182F DUP2 PUSH2 0x1809 JUMP JUMPDEST SWAP3 SWAP2 POP POP JUMP JUMPDEST PUSH1 0x0 PUSH1 0x20 DUP3 DUP5 SUB SLT ISZERO PUSH2 0x184B JUMPI PUSH2 0x184A PUSH2 0x17F5 JUMP JUMPDEST JUMPDEST PUSH1 0x0 PUSH2 0x1859 DUP5 DUP3 DUP6 ADD PUSH2 0x1820 JUMP JUMPDEST SWAP2 POP POP SWAP3 SWAP2 POP POP JUMP JUMPDEST PUSH1 0x0 DUP2 MLOAD SWAP1 POP SWAP2 SWAP1 POP JUMP JUMPDEST PUSH1 0x0 DUP3 DUP3 MSTORE PUSH1 0x20 DUP3 ADD SWAP1 POP SWAP3 SWAP2 POP POP JUMP JUMPDEST PUSH1 0x0 JUMPDEST DUP4 DUP2 LT ISZERO PUSH2 0x189C JUMPI DUP1 DUP3 ADD MLOAD DUP2 DUP5 ADD MSTORE PUSH1 0x20 DUP2 ADD SWAP1 POP PUSH2 0x1881 JUMP JUMPDEST PUSH1 0x0 DUP5 DUP5 ADD MSTORE POP POP POP POP JUMP JUMPDEST PUSH1 0x0 PUSH1 0x1F NOT PUSH1 0x1F DUP4 ADD AND SWAP1 POP SWAP2 SWAP1 POP JUMP JUMPDEST PUSH1 0x0 PUSH2 0x18C4 DUP3 PUSH2 0x1862 JUMP JUMPDEST PUSH2 0x18CE DUP2 DUP6 PUSH2 0x186D JUMP JUMPDEST SWAP4 POP PUSH2 0x18DE DUP2 DUP6 PUSH1 0x20 DUP7 ADD PUSH2 0x187E JUMP JUMPDEST PUSH2 0x18E7 DUP2 PUSH2 0x18A8 JUMP JUMPDEST DUP5 ADD SWAP2 POP POP SWAP3 SWAP2 POP POP JUMP JUMPDEST PUSH2 0x18FB DUP2 PUSH2 0x17FF JUMP JUMPDEST DUP3 MSTORE POP POP JUMP JUMPDEST PUSH1 0x0 PUSH1 0x40 DUP3 ADD SWAP1 POP DUP2 DUP2 SUB PUSH1 0x0 DUP4 ADD MSTORE PUSH2 0x191B DUP2 DUP6 PUSH2 0x18B9 JUMP JUMPDEST SWAP1 POP PUSH2 0x192A PUSH1 0x20 DUP4 ADD DUP5 PUSH2 0x18F2 JUMP JUMPDEST SWAP4 SWAP3 POP POP POP JUMP JUMPDEST PUSH32 0x4E487B7100000000000000000000000000000000000000000000000000000000 PUSH1 0x0 MSTORE PUSH1 0x21 PUSH1 0x4 MSTORE PUSH1 0x24 PUSH1 0x0 REVERT JUMPDEST PUSH1 0x6 DUP2 LT PUSH2 0x1971 JUMPI PUSH2 0x1970 PUSH2 0x1931 JUMP JUMPDEST JUMPDEST POP JUMP JUMPDEST PUSH1 0x0 DUP2 SWAP1 POP PUSH2 0x1982 DUP3 PUSH2 0x1960 JUMP JUMPDEST SWAP2 SWAP1 POP JUMP JUMPDEST PUSH1 0x0 PUSH2 0x1992 DUP3 PUSH2 0x1974 JUMP JUMPDEST SWAP1 POP SWAP2 SWAP1 POP JUMP JUMPDEST PUSH2 0x19A2 DUP2 PUSH2 0x1987 JUMP JUMPDEST DUP3 MSTORE POP POP JUMP JUMPDEST PUSH1 0x0 PUSH1 0x20 DUP3 ADD SWAP1 POP PUSH2 0x19BD PUSH1 0x0 DUP4 ADD DUP5 PUSH2 0x1999 JUMP JUMPDEST SWAP3 SWAP2 POP POP JUMP JUMPDEST PUSH1 0x0 DUP1 REVERT JUMPDEST PUSH1 0x0 DUP1 REVERT JUMPDEST PUSH32 0x4E487B7100000000000000000000000000000000000000000000000000000000 PUSH1 0x0 MSTORE PUSH1 0x41 PUSH1 0x4 MSTORE PUSH1 0x24 PUSH1 0x0 REVERT JUMPDEST PUSH2 0x1A05 DUP3 PUSH2 0x18A8 JUMP JUMPDEST DUP2 ADD DUP2 DUP2 LT PUSH8 0xFFFFFFFFFFFFFFFF DUP3 GT OR ISZERO PUSH2 0x1A24 JUMPI PUSH2 0x1A23 PUSH2 0x19CD JUMP JUMPDEST JUMPDEST DUP1 PUSH1 0x40 MSTORE POP POP POP JUMP JUMPDEST PUSH1 0x0 PUSH2 0x1A37 PUSH2 0x17EB JUMP JUMPDEST SWAP1 POP PUSH2 0x1A43 DUP3 DUP3 PUSH2 0x19FC JUMP JUMPDEST SWAP2 SWAP1 POP JUMP JUMPDEST PUSH1 0x0 PUSH8 0xFFFFFFFFFFFFFFFF DUP3 GT ISZERO PUSH2 0x1A63 JUMPI PUSH2 0x1A62 PUSH2 0x19CD JUMP JUMPDEST JUMPDEST PUSH2 0x1A6C DUP3 PUSH2 0x18A8 JUMP JUMPDEST SWAP1 POP PUSH1 0x20 DUP2 ADD SWAP1 POP SWAP2 SWAP1 POP JUMP JUMPDEST DUP3 DUP2 DUP4 CALLDATACOPY PUSH1 0x0 DUP4 DUP4 ADD MSTORE POP POP POP JUMP JUMPDEST PUSH1 0x0 PUSH2 0x1A9B PUSH2 0x1A96 DUP5 PUSH2 0x1A48 JUMP JUMPDEST PUSH2 0x1A2D JUMP JUMPDEST SWAP1 POP DUP3 DUP2 MSTORE PUSH1 0x20 DUP2 ADD DUP5 DUP5 DUP5 ADD GT ISZERO PUSH2 0x1AB7 JUMPI PUSH2 0x1AB6 PUSH2 0x19C8 JUMP JUMPDEST JUMPDEST PUSH2 0x1AC2 DUP5 DUP3 DUP6 PUSH2 0x1A79 JUMP JUMPDEST POP SWAP4 SWAP3 POP POP POP JUMP JUMPDEST PUSH1 0x0 DUP3 PUSH1 0x1F DUP4 ADD SLT PUSH2 0x1ADF JUMPI PUSH2 0x1ADE PUSH2 0x19C3 JUMP JUMPDEST JUMPDEST DUP2 CALLDATALOAD PUSH2 0x1AEF DUP5 DUP3 PUSH1 0x20 DUP7 ADD PUSH2 0x1A88 JUMP JUMPDEST SWAP2 POP POP SWAP3 SWAP2 POP POP JUMP JUMPDEST PUSH1 0x0 PUSH1 0x20 DUP3 DUP5 SUB SLT ISZERO PUSH2 0x1B0E JUMPI PUSH2 0x1B0D PUSH2 0x17F5 JUMP JUMPDEST JUMPDEST PUSH1 0x0 DUP3 ADD CALLDATALOAD PUSH8 0xFFFFFFFFFFFFFFFF DUP2 GT ISZERO PUSH2 0x1B2C JUMPI PUSH2 0x1B2B PUSH2 0x17FA JUMP JUMPDEST JUMPDEST PUSH2 0x1B38 DUP5 DUP3 DUP6 ADD PUSH2 0x1ACA JUMP JUMPDEST SWAP2 POP POP SWAP3 SWAP2 POP POP JUMP JUMPDEST PUSH1 0x0 PUSH20 0xFFFFFFFFFFFFFFFFFFFFFFFFFFFFFFFFFFFFFFFF DUP3 AND SWAP1 POP SWAP2 SWAP1 POP JUMP JUMPDEST PUSH1 0x0 PUSH2 0x1B6C DUP3 PUSH2 0x1B41 JUMP JUMPDEST SWAP1 POP SWAP2 SWAP1 POP JUMP JUMPDEST PUSH2 0x1B7C DUP2 PUSH2 0x1B61 JUMP JUMPDEST DUP2 EQ PUSH2 0x1B87 JUMPI PUSH1 0x0 DUP1 REVERT JUMPDEST POP JUMP JUMPDEST PUSH1 0x0 DUP2 CALLDATALOAD SWAP1 POP PUSH2 0x1B99 DUP2 PUSH2 0x1B73 JUMP JUMPDEST SWAP3 SWAP2 POP POP JUMP JUMPDEST PUSH1 0x0 PUSH1 0x20 DUP3 DUP5 SUB SLT ISZERO PUSH2 0x1BB5 JUMPI PUSH2 0x1BB4 PUSH2 0x17F5 JUMP JUMPDEST JUMPDEST PUSH1 0x0 PUSH2 0x1BC3 DUP5 DUP3 DUP6 ADD PUSH2 0x1B8A JUMP JUMPDEST SWAP2 POP POP SWAP3 SWAP2 POP POP JUMP JUMPDEST PUSH1 0x0 DUP2 MLOAD SWAP1 POP SWAP2 SWAP1 POP JUMP JUMPDEST PUSH1 0x0 DUP3 DUP3 MSTORE PUSH1 0x20 DUP3 ADD SWAP1 POP SWAP3 SWAP2 POP POP JUMP JUMPDEST PUSH1 0x0 DUP2 SWAP1 POP PUSH1 0x20 DUP3 ADD SWAP1 POP SWAP2 SWAP1 POP JUMP JUMPDEST PUSH1 0x0 DUP3 DUP3 MSTORE PUSH1 0x20 DUP3 ADD SWAP1 POP SWAP3 SWAP2 POP POP JUMP JUMPDEST PUSH1 0x0 PUSH2 0x1C14 DUP3 PUSH2 0x1862 JUMP JUMPDEST PUSH2 0x1C1E DUP2 DUP6 PUSH2 0x1BF8 JUMP JUMPDEST SWAP4 POP PUSH2 0x1C2E DUP2 DUP6 PUSH1 0x20 DUP7 ADD PUSH2 0x187E JUMP JUMPDEST PUSH2 0x1C37 DUP2 PUSH2 0x18A8 JUMP JUMPDEST DUP5 ADD SWAP2 POP POP SWAP3 SWAP2 POP POP JUMP JUMPDEST PUSH2 0x1C4B DUP2 PUSH2 0x17FF JUMP JUMPDEST DUP3 MSTORE POP POP JUMP JUMPDEST PUSH1 0x0 PUSH1 0x40 DUP4 ADD PUSH1 0x0 DUP4 ADD MLOAD DUP5 DUP3 SUB PUSH1 0x0 DUP7 ADD MSTORE PUSH2 0x1C6E DUP3 DUP3 PUSH2 0x1C09 JUMP JUMPDEST SWAP2 POP POP PUSH1 0x20 DUP4 ADD MLOAD PUSH2 0x1C83 PUSH1 0x20 DUP7 ADD DUP3 PUSH2 0x1C42 JUMP JUMPDEST POP DUP1 SWAP2 POP POP SWAP3 SWAP2 POP POP JUMP JUMPDEST PUSH1 0x0 PUSH2 0x1C9A DUP4 DUP4 PUSH2 0x1C51 JUMP JUMPDEST SWAP1 POP SWAP3 SWAP2 POP POP JUMP JUMPDEST PUSH1 0x0 PUSH1 0x20 DUP3 ADD SWAP1 POP SWAP2 SWAP1 POP JUMP JUMPDEST PUSH1 0x0 PUSH2 0x1CBA DUP3 PUSH2 0x1BCC JUMP JUMPDEST PUSH2 0x1CC4 DUP2 DUP6 PUSH2 0x1BD7 JUMP JUMPDEST SWAP4 POP DUP4 PUSH1 0x20 DUP3 MUL DUP6 ADD PUSH2 0x1CD6 DUP6 PUSH2 0x1BE8 JUMP JUMPDEST DUP1 PUSH1 0x0 JUMPDEST DUP6 DUP2 LT ISZERO PUSH2 0x1D12 JUMPI DUP5 DUP5 SUB DUP10 MSTORE DUP2 MLOAD PUSH2 0x1CF3 DUP6 DUP3 PUSH2 0x1C8E JUMP JUMPDEST SWAP5 POP PUSH2 0x1CFE DUP4 PUSH2 0x1CA2 JUMP JUMPDEST SWAP3 POP PUSH1 0x20 DUP11 ADD SWAP10 POP POP PUSH1 0x1 DUP2 ADD SWAP1 POP PUSH2 0x1CDA JUMP JUMPDEST POP DUP3 SWAP8 POP DUP8 SWAP6 POP POP POP POP POP POP SWAP3 SWAP2 POP POP JUMP JUMPDEST PUSH1 0x0 PUSH1 0x20 DUP3 ADD SWAP1 POP DUP2 DUP2 SUB PUSH1 0x0 DUP4 ADD MSTORE PUSH2 0x1D3E DUP2 DUP5 PUSH2 0x1CAF JUMP JUMPDEST SWAP1 POP SWAP3 SWAP2 POP POP JUMP JUMPDEST PUSH2 0x1D4F DUP2 PUSH2 0x1B61 JUMP JUMPDEST DUP3 MSTORE POP POP JUMP JUMPDEST PUSH1 0x0 PUSH1 0x20 DUP3 ADD SWAP1 POP PUSH2 0x1D6A PUSH1 0x0 DUP4 ADD DUP5 PUSH2 0x1D46 JUMP JUMPDEST SWAP3 SWAP2 POP POP JUMP JUMPDEST PUSH1 0x0 DUP2 ISZERO ISZERO SWAP1 POP SWAP2 SWAP1 POP JUMP JUMPDEST PUSH2 0x1D85 DUP2 PUSH2 0x1D70 JUMP JUMPDEST DUP3 MSTORE POP POP JUMP JUMPDEST PUSH1 0x0 PUSH1 0x60 DUP3 ADD SWAP1 POP PUSH2 0x1DA0 PUSH1 0x0 DUP4 ADD DUP7 PUSH2 0x1D7C JUMP JUMPDEST PUSH2 0x1DAD PUSH1 0x20 DUP4 ADD DUP6 PUSH2 0x1D7C JUMP JUMPDEST PUSH2 0x1DBA PUSH1 0x40 DUP4 ADD DUP5 PUSH2 0x18F2 JUMP JUMPDEST SWAP5 SWAP4 POP POP POP POP JUMP JUMPDEST PUSH1 0x0 PUSH1 0x40 DUP4 ADD PUSH1 0x0 DUP4 ADD MLOAD DUP5 DUP3 SUB PUSH1 0x0 DUP7 ADD MSTORE PUSH2 0x1DDF DUP3 DUP3 PUSH2 0x1C09 JUMP JUMPDEST SWAP2 POP POP PUSH1 0x20 DUP4 ADD MLOAD PUSH2 0x1DF4 PUSH1 0x20 DUP7 ADD DUP3 PUSH2 0x1C42 JUMP JUMPDEST POP DUP1 SWAP2 POP POP SWAP3 SWAP2 POP POP JUMP JUMPDEST PUSH1 0x0 PUSH1 0x20 DUP3 ADD SWAP1 POP DUP2 DUP2 SUB PUSH1 0x0 DUP4 ADD MSTORE PUSH2 0x1E19 DUP2 DUP5 PUSH2 0x1DC2 JUMP JUMPDEST SWAP1 POP SWAP3 SWAP2 POP POP JUMP JUMPDEST PUSH1 0x0 PUSH1 0x20 DUP3 ADD SWAP1 POP DUP2 DUP2 SUB PUSH1 0x0 DUP4 ADD MSTORE PUSH2 0x1E3B DUP2 DUP5 PUSH2 0x18B9 JUMP JUMPDEST SWAP1 POP SWAP3 SWAP2 POP POP JUMP JUMPDEST PUSH1 0x0 PUSH8 0xFFFFFFFFFFFFFFFF DUP3 GT ISZERO PUSH2 0x1E5E JUMPI PUSH2 0x1E5D PUSH2 0x19CD JUMP JUMPDEST JUMPDEST PUSH1 0x20 DUP3 MUL SWAP1 POP PUSH1 0x20 DUP2 ADD SWAP1 POP SWAP2 SWAP1 POP JUMP JUMPDEST PUSH1 0x0 DUP1 REVERT JUMPDEST PUSH1 0x0 PUSH2 0x1E87 PUSH2 0x1E82 DUP5 PUSH2 0x1E43 JUMP JUMPDEST PUSH2 0x1A2D JUMP JUMPDEST SWAP1 POP DUP1 DUP4 DUP3 MSTORE PUSH1 0x20 DUP3 ADD SWAP1 POP PUSH1 0x20 DUP5 MUL DUP4 ADD DUP6 DUP2 GT ISZERO PUSH2 0x1EAA JUMPI PUSH2 0x1EA9 PUSH2 0x1E6F JUMP JUMPDEST JUMPDEST DUP4 JUMPDEST DUP2 DUP2 LT ISZERO PUSH2 0x1ED3 JUMPI DUP1 PUSH2 0x1EBF DUP9 DUP3 PUSH2 0x1B8A JUMP JUMPDEST DUP5 MSTORE PUSH1 0x20 DUP5 ADD SWAP4 POP POP PUSH1 0x20 DUP2 ADD SWAP1 POP PUSH2 0x1EAC JUMP JUMPDEST POP POP POP SWAP4 SWAP3 POP POP POP JUMP JUMPDEST PUSH1 0x0 DUP3 PUSH1 0x1F DUP4 ADD SLT PUSH2 0x1EF2 JUMPI PUSH2 0x1EF1 PUSH2 0x19C3 JUMP JUMPDEST JUMPDEST DUP2 CALLDATALOAD PUSH2 0x1F02 DUP5 DUP3 PUSH1 0x20 DUP7 ADD PUSH2 0x1E74 JUMP JUMPDEST SWAP2 POP POP SWAP3 SWAP2 POP POP JUMP JUMPDEST PUSH1 0x0 PUSH1 0x20 DUP3 DUP5 SUB SLT ISZERO PUSH2 0x1F21 JUMPI PUSH2 0x1F20 PUSH2 0x17F5 JUMP JUMPDEST JUMPDEST PUSH1 0x0 DUP3 ADD CALLDATALOAD PUSH8 0xFFFFFFFFFFFFFFFF DUP2 GT ISZERO PUSH2 0x1F3F JUMPI PUSH2 0x1F3E PUSH2 0x17FA JUMP JUMPDEST JUMPDEST PUSH2 0x1F4B DUP5 DUP3 DUP6 ADD PUSH2 0x1EDD JUMP JUMPDEST SWAP2 POP POP SWAP3 SWAP2 POP POP JUMP JUMPDEST PUSH32 0x4E487B7100000000000000000000000000000000000000000000000000000000 PUSH1 0x0 MSTORE PUSH1 0x22 PUSH1 0x4 MSTORE PUSH1 0x24 PUSH1 0x0 REVERT JUMPDEST PUSH1 0x0 PUSH1 0x2 DUP3 DIV SWAP1 POP PUSH1 0x1 DUP3 AND DUP1 PUSH2 0x1F9B JUMPI PUSH1 0x7F DUP3 AND SWAP2 POP JUMPDEST PUSH1 0x20 DUP3 LT DUP2 SUB PUSH2 0x1FAE JUMPI PUSH2 0x1FAD PUSH2 0x1F54 JUMP JUMPDEST JUMPDEST POP SWAP2 SWAP1 POP JUMP JUMPDEST PUSH1 0x0 DUP2 SWAP1 POP DUP2 PUSH1 0x0 MSTORE PUSH1 0x20 PUSH1 0x0 KECCAK256 SWAP1 POP SWAP2 SWAP1 POP JUMP JUMPDEST PUSH1 0x0 PUSH1 0x20 PUSH1 0x1F DUP4 ADD DIV SWAP1 POP SWAP2 SWAP1 POP JUMP JUMPDEST PUSH1 0x0 DUP3 DUP3 SHL SWAP1 POP SWAP3 SWAP2 POP POP JUMP JUMPDEST PUSH1 0x0 PUSH1 0x8 DUP4 MUL PUSH2 0x2016 PUSH32 0xFFFFFFFFFFFFFFFFFFFFFFFFFFFFFFFFFFFFFFFFFFFFFFFFFFFFFFFFFFFFFFFF DUP3 PUSH2 0x1FD9 JUMP JUMPDEST PUSH2 0x2020 DUP7 DUP4 PUSH2 0x1FD9 JUMP JUMPDEST SWAP6 POP DUP1 NOT DUP5 AND SWAP4 POP DUP1 DUP7 AND DUP5 OR SWAP3 POP POP POP SWAP4 SWAP3 POP POP POP JUMP JUMPDEST PUSH1 0x0 DUP2 SWAP1 POP SWAP2 SWAP1 POP JUMP JUMPDEST PUSH1 0x0 PUSH2 0x205D PUSH2 0x2058 PUSH2 0x2053 DUP5 PUSH2 0x17FF JUMP JUMPDEST PUSH2 0x2038 JUMP JUMPDEST PUSH2 0x17FF JUMP JUMPDEST SWAP1 POP SWAP2 SWAP1 POP JUMP JUMPDEST PUSH1 0x0 DUP2 SWAP1 POP SWAP2 SWAP1 POP JUMP JUMPDEST PUSH2 0x2077 DUP4 PUSH2 0x2042 JUMP JUMPDEST PUSH2 0x208B PUSH2 0x2083 DUP3 PUSH2 0x2064 JUMP JUMPDEST DUP5 DUP5 SLOAD PUSH2 0x1FE6 JUMP JUMPDEST DUP3 SSTORE POP POP POP POP JUMP JUMPDEST PUSH1 0x0 SWAP1 JUMP JUMPDEST PUSH2 0x20A0 PUSH2 0x2093 JUMP JUMPDEST PUSH2 0x20AB DUP2 DUP5 DUP5 PUSH2 0x206E JUMP JUMPDEST POP POP POP JUMP JUMPDEST JUMPDEST DUP2 DUP2 LT ISZERO PUSH2 0x20CF JUMPI PUSH2 0x20C4 PUSH1 0x0 DUP3 PUSH2 0x2098 JUMP JUMPDEST PUSH1 0x1 DUP2 ADD SWAP1 POP PUSH2 0x20B1 JUMP JUMPDEST POP POP JUMP JUMPDEST PUSH1 0x1F DUP3 GT ISZERO PUSH2 0x2114 JUMPI PUSH2 0x20E5 DUP2 PUSH2 0x1FB4 JUMP JUMPDEST PUSH2 0x20EE DUP5 PUSH2 0x1FC9 JUMP JUMPDEST DUP2 ADD PUSH1 0x20 DUP6 LT ISZERO PUSH2 0x20FD JUMPI DUP2 SWAP1 POP JUMPDEST PUSH2 0x2111 PUSH2 0x2109 DUP6 PUSH2 0x1FC9 JUMP JUMPDEST DUP4 ADD DUP3 PUSH2 0x20B0 JUMP JUMPDEST POP POP JUMPDEST POP POP POP JUMP JUMPDEST PUSH1 0x0 DUP3 DUP3 SHR SWAP1 POP SWAP3 SWAP2 POP POP JUMP JUMPDEST PUSH1 0x0 PUSH2 0x2137 PUSH1 0x0 NOT DUP5 PUSH1 0x8 MUL PUSH2 0x2119 JUMP JUMPDEST NOT DUP1 DUP4 AND SWAP2 POP POP SWAP3 SWAP2 POP POP JUMP JUMPDEST PUSH1 0x0 PUSH2 0x2150 DUP4 DUP4 PUSH2 0x2126 JUMP JUMPDEST SWAP2 POP DUP3 PUSH1 0x2 MUL DUP3 OR SWAP1 POP SWAP3 SWAP2 POP POP JUMP JUMPDEST PUSH2 0x2169 DUP3 PUSH2 0x1862 JUMP JUMPDEST PUSH8 0xFFFFFFFFFFFFFFFF DUP2 GT ISZERO PUSH2 0x2182 JUMPI PUSH2 0x2181 PUSH2 0x19CD JUMP JUMPDEST JUMPDEST PUSH2 0x218C DUP3 SLOAD PUSH2 0x1F83 JUMP JUMPDEST PUSH2 0x2197 DUP3 DUP3 DUP6 PUSH2 0x20D3 JUMP JUMPDEST PUSH1 0x0 PUSH1 0x20 SWAP1 POP PUSH1 0x1F DUP4 GT PUSH1 0x1 DUP2 EQ PUSH2 0x21CA JUMPI PUSH1 0x0 DUP5 ISZERO PUSH2 0x21B8 JUMPI DUP3 DUP8 ADD MLOAD SWAP1 POP JUMPDEST PUSH2 0x21C2 DUP6 DUP3 PUSH2 0x2144 JUMP JUMPDEST DUP7 SSTORE POP PUSH2 0x222A JUMP JUMPDEST PUSH1 0x1F NOT DUP5 AND PUSH2 0x21D8 DUP7 PUSH2 0x1FB4 JUMP JUMPDEST PUSH1 0x0 JUMPDEST DUP3 DUP2 LT ISZERO PUSH2 0x2200 JUMPI DUP5 DUP10 ADD MLOAD DUP3 SSTORE PUSH1 0x1 DUP3 ADD SWAP2 POP PUSH1 0x20 DUP6 ADD SWAP5 POP PUSH1 0x20 DUP2 ADD SWAP1 POP PUSH2 0x21DB JUMP JUMPDEST DUP7 DUP4 LT ISZERO PUSH2 0x221D JUMPI DUP5 DUP10 ADD MLOAD PUSH2 0x2219 PUSH1 0x1F DUP10 AND DUP3 PUSH2 0x2126 JUMP JUMPDEST DUP4 SSTORE POP JUMPDEST PUSH1 0x1 PUSH1 0x2 DUP9 MUL ADD DUP9 SSTORE POP POP POP JUMPDEST POP POP POP POP POP POP JUMP JUMPDEST PUSH32 0x4E487B7100000000000000000000000000000000000000000000000000000000 PUSH1 0x0 MSTORE PUSH1 0x11 PUSH1 0x4 MSTORE PUSH1 0x24 PUSH1 0x0 REVERT JUMPDEST PUSH1 0x0 PUSH2 0x226C DUP3 PUSH2 0x17FF JUMP JUMPDEST SWAP2 POP PUSH2 0x2277 DUP4 PUSH2 0x17FF JUMP JUMPDEST SWAP3 POP DUP3 DUP3 SUB SWAP1 POP DUP2 DUP2 GT ISZERO PUSH2 0x228F JUMPI PUSH2 0x228E PUSH2 0x2232 JUMP JUMPDEST JUMPDEST SWAP3 SWAP2 POP POP JUMP JUMPDEST PUSH1 0x0 PUSH1 0x20 DUP3 ADD SWAP1 POP PUSH2 0x22AA PUSH1 0x0 DUP4 ADD DUP5 PUSH2 0x18F2 JUMP JUMPDEST SWAP3 SWAP2 POP POP JUMP JUMPDEST PUSH32 0x566F74657220697320616C72656164792077686974656C697374656400000000 PUSH1 0x0 DUP3 ADD MSTORE POP JUMP JUMPDEST PUSH1 0x0 PUSH2 0x22E6 PUSH1 0x1C DUP4 PUSH2 0x186D JUMP JUMPDEST SWAP2 POP PUSH2 0x22F1 DUP3 PUSH2 0x22B0 JUMP JUMPDEST PUSH1 0x20 DUP3 ADD SWAP1 POP SWAP2 SWAP1 POP JUMP JUMPDEST PUSH1 0x0 PUSH1 0x20 DUP3 ADD SWAP1 POP DUP2 DUP2 SUB PUSH1 0x0 DUP4 ADD MSTORE PUSH2 0x2315 DUP2 PUSH2 0x22D9 JUMP JUMPDEST SWAP1 POP SWAP2 SWAP1 POP JUMP JUMPDEST PUSH32 0x4E487B7100000000000000000000000000000000000000000000000000000000 PUSH1 0x0 MSTORE PUSH1 0x32 PUSH1 0x4 MSTORE PUSH1 0x24 PUSH1 0x0 REVERT JUMPDEST PUSH1 0x0 PUSH2 0x2356 DUP3 PUSH2 0x17FF JUMP JUMPDEST SWAP2 POP PUSH32 0xFFFFFFFFFFFFFFFFFFFFFFFFFFFFFFFFFFFFFFFFFFFFFFFFFFFFFFFFFFFFFFFF DUP3 SUB PUSH2 0x2388 JUMPI PUSH2 0x2387 PUSH2 0x2232 JUMP JUMPDEST JUMPDEST PUSH1 0x1 DUP3 ADD SWAP1 POP SWAP2 SWAP1 POP JUMP JUMPDEST PUSH32 0x546869732075736572206469646E277420766F74650000000000000000000000 PUSH1 0x0 DUP3 ADD MSTORE POP JUMP JUMPDEST PUSH1 0x0 PUSH2 0x23C9 PUSH1 0x15 DUP4 PUSH2 0x186D JUMP JUMPDEST SWAP2 POP PUSH2 0x23D4 DUP3 PUSH2 0x2393 JUMP JUMPDEST PUSH1 0x20 DUP3 ADD SWAP1 POP SWAP2 SWAP1 POP JUMP JUMPDEST PUSH1 0x0 PUSH1 0x20 DUP3 ADD SWAP1 POP DUP2 DUP2 SUB PUSH1 0x0 DUP4 ADD MSTORE PUSH2 0x23F8 DUP2 PUSH2 0x23BC JUMP JUMPDEST SWAP1 POP SWAP2 SWAP1 POP JUMP JUMPDEST PUSH32 0x4F776E61626C653A206E6577206F776E657220697320746865207A65726F2061 PUSH1 0x0 DUP3 ADD MSTORE PUSH32 0x6464726573730000000000000000000000000000000000000000000000000000 PUSH1 0x20 DUP3 ADD MSTORE POP JUMP JUMPDEST PUSH1 0x0 PUSH2 0x245B PUSH1 0x26 DUP4 PUSH2 0x186D JUMP JUMPDEST SWAP2 POP PUSH2 0x2466 DUP3 PUSH2 0x23FF JUMP JUMPDEST PUSH1 0x40 DUP3 ADD SWAP1 POP SWAP2 SWAP1 POP JUMP JUMPDEST PUSH1 0x0 PUSH1 0x20 DUP3 ADD SWAP1 POP DUP2 DUP2 SUB PUSH1 0x0 DUP4 ADD MSTORE PUSH2 0x248A DUP2 PUSH2 0x244E JUMP JUMPDEST SWAP1 POP SWAP2 SWAP1 POP JUMP JUMPDEST PUSH32 0x596F75206861766520616C726561647920766F7465642E204F6E6C79206F6E65 PUSH1 0x0 DUP3 ADD MSTORE PUSH32 0x20766F746520697320616C6C6F77656400000000000000000000000000000000 PUSH1 0x20 DUP3 ADD MSTORE POP JUMP JUMPDEST PUSH1 0x0 PUSH2 0x24ED PUSH1 0x30 DUP4 PUSH2 0x186D JUMP JUMPDEST SWAP2 POP PUSH2 0x24F8 DUP3 PUSH2 0x2491 JUMP JUMPDEST PUSH1 0x40 DUP3 ADD SWAP1 POP SWAP2 SWAP1 POP JUMP JUMPDEST PUSH1 0x0 PUSH1 0x20 DUP3 ADD SWAP1 POP DUP2 DUP2 SUB PUSH1 0x0 DUP4 ADD MSTORE PUSH2 0x251C DUP2 PUSH2 0x24E0 JUMP JUMPDEST SWAP1 POP SWAP2 SWAP1 POP JUMP JUMPDEST PUSH32 0x50726F706F73616C20496420646F65736E27742065786973742E20506C656173 PUSH1 0x0 DUP3 ADD MSTORE PUSH32 0x652073656C65637420612076616C69642070726F706F73616C20496400000000 PUSH1 0x20 DUP3 ADD MSTORE POP JUMP JUMPDEST PUSH1 0x0 PUSH2 0x257F PUSH1 0x3C DUP4 PUSH2 0x186D JUMP JUMPDEST SWAP2 POP PUSH2 0x258A DUP3 PUSH2 0x2523 JUMP JUMPDEST PUSH1 0x40 DUP3 ADD SWAP1 POP SWAP2 SWAP1 POP JUMP JUMPDEST PUSH1 0x0 PUSH1 0x20 DUP3 ADD SWAP1 POP DUP2 DUP2 SUB PUSH1 0x0 DUP4 ADD MSTORE PUSH2 0x25AE DUP2 PUSH2 0x2572 JUMP JUMPDEST SWAP1 POP SWAP2 SWAP1 POP JUMP JUMPDEST PUSH1 0x0 PUSH1 0x40 DUP3 ADD SWAP1 POP PUSH2 0x25CA PUSH1 0x0 DUP4 ADD DUP6 PUSH2 0x1D46 JUMP JUMPDEST PUSH2 0x25D7 PUSH1 0x20 DUP4 ADD DUP5 PUSH2 0x18F2 JUMP JUMPDEST SWAP4 SWAP3 POP POP POP JUMP JUMPDEST PUSH32 0x4F6E6C792077686974656C697374656420766F74657273206172652061757468 PUSH1 0x0 DUP3 ADD MSTORE PUSH32 0x6F72697A656420746F20646F207468697320616374696F6E2E00000000000000 PUSH1 0x20 DUP3 ADD MSTORE POP JUMP JUMPDEST PUSH1 0x0 PUSH2 0x263A PUSH1 0x39 DUP4 PUSH2 0x186D JUMP JUMPDEST SWAP2 POP PUSH2 0x2645 DUP3 PUSH2 0x25DE JUMP JUMPDEST PUSH1 0x40 DUP3 ADD SWAP1 POP SWAP2 SWAP1 POP JUMP JUMPDEST PUSH1 0x0 PUSH1 0x20 DUP3 ADD SWAP1 POP DUP2 DUP2 SUB PUSH1 0x0 DUP4 ADD MSTORE PUSH2 0x2669 DUP2 PUSH2 0x262D JUMP JUMPDEST SWAP1 POP SWAP2 SWAP1 POP JUMP JUMPDEST PUSH32 0x50726F706F73616C20726567697374726174696F6E20697320636C6F7365642E PUSH1 0x0 DUP3 ADD MSTORE POP JUMP JUMPDEST PUSH1 0x0 PUSH2 0x26A6 PUSH1 0x20 DUP4 PUSH2 0x186D JUMP JUMPDEST SWAP2 POP PUSH2 0x26B1 DUP3 PUSH2 0x2670 JUMP JUMPDEST PUSH1 0x20 DUP3 ADD SWAP1 POP SWAP2 SWAP1 POP JUMP JUMPDEST PUSH1 0x0 PUSH1 0x20 DUP3 ADD SWAP1 POP DUP2 DUP2 SUB PUSH1 0x0 DUP4 ADD MSTORE PUSH2 0x26D5 DUP2 PUSH2 0x2699 JUMP JUMPDEST SWAP1 POP SWAP2 SWAP1 POP JUMP JUMPDEST PUSH32 0x4F776E61626C653A2063616C6C6572206973206E6F7420746865206F776E6572 PUSH1 0x0 DUP3 ADD MSTORE POP JUMP JUMPDEST PUSH1 0x0 PUSH2 0x2712 PUSH1 0x20 DUP4 PUSH2 0x186D JUMP JUMPDEST SWAP2 POP PUSH2 0x271D DUP3 PUSH2 0x26DC JUMP JUMPDEST PUSH1 0x20 DUP3 ADD SWAP1 POP SWAP2 SWAP1 POP JUMP JUMPDEST PUSH1 0x0 PUSH1 0x20 DUP3 ADD SWAP1 POP DUP2 DUP2 SUB PUSH1 0x0 DUP4 ADD MSTORE PUSH2 0x2741 DUP2 PUSH2 0x2705 JUMP JUMPDEST SWAP1 POP SWAP2 SWAP1 POP JUMP JUMPDEST PUSH32 0x526567697374726174696F6E20706572696F6420666F7220766F746572206973 PUSH1 0x0 DUP3 ADD MSTORE PUSH32 0x20636C6F7365642E000000000000000000000000000000000000000000000000 PUSH1 0x20 DUP3 ADD MSTORE POP JUMP JUMPDEST PUSH1 0x0 PUSH2 0x27A4 PUSH1 0x28 DUP4 PUSH2 0x186D JUMP JUMPDEST SWAP2 POP PUSH2 0x27AF DUP3 PUSH2 0x2748 JUMP JUMPDEST PUSH1 0x40 DUP3 ADD SWAP1 POP SWAP2 SWAP1 POP JUMP JUMPDEST PUSH1 0x0 PUSH1 0x20 DUP3 ADD SWAP1 POP DUP2 DUP2 SUB PUSH1 0x0 DUP4 ADD MSTORE PUSH2 0x27D3 DUP2 PUSH2 0x2797 JUMP JUMPDEST SWAP1 POP SWAP2 SWAP1 POP JUMP JUMPDEST PUSH32 0x566F74696E67206973206E6F7420636C6F736564206F7220766F74657320636F PUSH1 0x0 DUP3 ADD MSTORE PUSH32 0x756E7420697320616C726561647920646F6E6500000000000000000000000000 PUSH1 0x20 DUP3 ADD MSTORE POP JUMP JUMPDEST PUSH1 0x0 PUSH2 0x2836 PUSH1 0x33 DUP4 PUSH2 0x186D JUMP JUMPDEST SWAP2 POP PUSH2 0x2841 DUP3 PUSH2 0x27DA JUMP JUMPDEST PUSH1 0x40 DUP3 ADD SWAP1 POP SWAP2 SWAP1 POP JUMP JUMPDEST PUSH1 0x0 PUSH1 0x20 DUP3 ADD SWAP1 POP DUP2 DUP2 SUB PUSH1 0x0 DUP4 ADD MSTORE PUSH2 0x2865 DUP2 PUSH2 0x2829 JUMP JUMPDEST SWAP1 POP SWAP2 SWAP1 POP JUMP JUMPDEST PUSH1 0x0 PUSH1 0x40 DUP3 ADD SWAP1 POP PUSH2 0x2881 PUSH1 0x0 DUP4 ADD DUP6 PUSH2 0x1999 JUMP JUMPDEST PUSH2 0x288E PUSH1 0x20 DUP4 ADD DUP5 PUSH2 0x1999 JUMP JUMPDEST SWAP4 SWAP3 POP POP POP JUMP JUMPDEST PUSH32 0x566F74657320636F756E74206973206E6F742079657420646F6E650000000000 PUSH1 0x0 DUP3 ADD MSTORE POP JUMP JUMPDEST PUSH1 0x0 PUSH2 0x28CB PUSH1 0x1B DUP4 PUSH2 0x186D JUMP JUMPDEST SWAP2 POP PUSH2 0x28D6 DUP3 PUSH2 0x2895 JUMP JUMPDEST PUSH1 0x20 DUP3 ADD SWAP1 POP SWAP2 SWAP1 POP JUMP JUMPDEST PUSH1 0x0 PUSH1 0x20 DUP3 ADD SWAP1 POP DUP2 DUP2 SUB PUSH1 0x0 DUP4 ADD MSTORE PUSH2 0x28FA DUP2 PUSH2 0x28BE JUMP JUMPDEST SWAP1 POP SWAP2 SWAP1 POP JUMP JUMPDEST PUSH32 0x566F74696E672073657373696F6E20697320636C6F7365642E00000000000000 PUSH1 0x0 DUP3 ADD MSTORE POP JUMP JUMPDEST PUSH1 0x0 PUSH2 0x2937 PUSH1 0x19 DUP4 PUSH2 0x186D JUMP JUMPDEST SWAP2 POP PUSH2 0x2942 DUP3 PUSH2 0x2901 JUMP JUMPDEST PUSH1 0x20 DUP3 ADD SWAP1 POP SWAP2 SWAP1 POP JUMP JUMPDEST PUSH1 0x0 PUSH1 0x20 DUP3 ADD SWAP1 POP DUP2 DUP2 SUB PUSH1 0x0 DUP4 ADD MSTORE PUSH2 0x2966 DUP2 PUSH2 0x292A JUMP JUMPDEST SWAP1 POP SWAP2 SWAP1 POP JUMP JUMPDEST PUSH32 0x41637475616C20737461747573206973206E6F7420636F6D70617469626C6520 PUSH1 0x0 DUP3 ADD MSTORE PUSH32 0x7769746820796F75722063686F696365202863686F6F73652070726576696F75 PUSH1 0x20 DUP3 ADD MSTORE PUSH32 0x73206F6E65206F72206E657874206F6E65290000000000000000000000000000 PUSH1 0x40 DUP3 ADD MSTORE POP JUMP JUMPDEST PUSH1 0x0 PUSH2 0x29EF PUSH1 0x52 DUP4 PUSH2 0x186D JUMP JUMPDEST SWAP2 POP PUSH2 0x29FA DUP3 PUSH2 0x296D JUMP JUMPDEST PUSH1 0x60 DUP3 ADD SWAP1 POP SWAP2 SWAP1 POP JUMP JUMPDEST PUSH1 0x0 PUSH1 0x20 DUP3 ADD SWAP1 POP DUP2 DUP2 SUB PUSH1 0x0 DUP4 ADD MSTORE PUSH2 0x2A1E DUP2 PUSH2 0x29E2 JUMP JUMPDEST SWAP1 POP SWAP2 SWAP1 POP JUMP INVALID LOG2 PUSH5 0x6970667358 0x22 SLT KECCAK256 PUSH15 0x1DDAD6C06B0EBD4CEFC82096191D90 COINBASE 0xC6 0x1E 0x4F INVALID JUMP 0xCF MSTORE8 SWAP10 PUSH12 0xE745AA5F769564736F6C6343 STOP ADDMOD SLT STOP CALLER "
		},
		"gasEstimates": {
			"creation": {
				"codeDepositCost": "2168600",
				"executionCost": "infinite",
				"totalCost": "infinite"
			},
			"external": {
				"computeWinningProposal()": "infinite",
				"getProposaleVotedForUser(address)": "infinite",
				"getProposals()": "infinite",
				"getWinningProposalDetails()": "infinite",
				"owner()": "2545",
				"proposals(uint256)": "infinite",
				"registerProposal(string)": "infinite",
				"registerVoter(address)": "infinite",
				"registerVoters(address[])": "infinite",
				"renounceOwnership()": "30487",
				"status()": "2606",
				"transferOwnership(address)": "30810",
				"voting(uint256)": "infinite",
				"whitelist(address)": "infinite"
			},
			"internal": {
				"_isConsistantStatus(enum Voting.WorkflowStatus)": "infinite",
				"_isProposalsRegistrationStarted()": "infinite",
				"_isRegisteringVotersStatus()": "infinite",
				"_isVotesTallied()": "infinite",
				"_isVotingSessionEnded()": "infinite",
				"_isVotingSessionStarted()": "infinite",
				"_isWhitelisted()": "infinite",
				"setStatus(enum Voting.WorkflowStatus)": "infinite"
			}
		},
		"methodIdentifiers": {
			"computeWinningProposal()": "6a00600c",
			"getProposaleVotedForUser(address)": "c88d3851",
			"getProposals()": "62564c48",
			"getWinningProposalDetails()": "b11accff",
			"owner()": "8da5cb5b",
			"proposals(uint256)": "013cf08b",
			"registerProposal(string)": "2f95355b",
			"registerVoter(address)": "38db6dd3",
			"registerVoters(address[])": "d55ec9c1",
			"renounceOwnership()": "715018a6",
			"status()": "200d2ed2",
			"transferOwnership(address)": "f2fde38b",
			"voting(uint256)": "fd4a77f1",
			"whitelist(address)": "9b19251a"
		}
	},
	"abi": [
		{
			"anonymous": false,
			"inputs": [
				{
					"indexed": true,
					"internalType": "address",
					"name": "previousOwner",
					"type": "address"
				},
				{
					"indexed": true,
					"internalType": "address",
					"name": "newOwner",
					"type": "address"
				}
			],
			"name": "OwnershipTransferred",
			"type": "event"
		},
		{
			"anonymous": false,
			"inputs": [
				{
					"indexed": false,
					"internalType": "uint256",
					"name": "proposalId",
					"type": "uint256"
				}
			],
			"name": "ProposalRegistered",
			"type": "event"
		},
		{
			"anonymous": false,
			"inputs": [
				{
					"indexed": false,
					"internalType": "address",
					"name": "voter",
					"type": "address"
				},
				{
					"indexed": false,
					"internalType": "uint256",
					"name": "proposalId",
					"type": "uint256"
				}
			],
			"name": "Voted",
			"type": "event"
		},
		{
			"anonymous": false,
			"inputs": [
				{
					"indexed": false,
					"internalType": "address",
					"name": "voterAddress",
					"type": "address"
				}
			],
			"name": "VoterRegistered",
			"type": "event"
		},
		{
			"anonymous": false,
			"inputs": [
				{
					"indexed": false,
					"internalType": "enum Voting.WorkflowStatus",
					"name": "previousStatus",
					"type": "uint8"
				},
				{
					"indexed": false,
					"internalType": "enum Voting.WorkflowStatus",
					"name": "newStatus",
					"type": "uint8"
				}
			],
			"name": "WorkflowStatusChange",
			"type": "event"
		},
		{
			"inputs": [],
			"name": "computeWinningProposal",
			"outputs": [],
			"stateMutability": "nonpayable",
			"type": "function"
		},
		{
			"inputs": [
				{
					"internalType": "address",
					"name": "_address",
					"type": "address"
				}
			],
			"name": "getProposaleVotedForUser",
			"outputs": [
				{
					"internalType": "string",
					"name": "",
					"type": "string"
				}
			],
			"stateMutability": "view",
			"type": "function"
		},
		{
			"inputs": [],
			"name": "getProposals",
			"outputs": [
				{
					"components": [
						{
							"internalType": "string",
							"name": "description",
							"type": "string"
						},
						{
							"internalType": "uint256",
							"name": "voteCount",
							"type": "uint256"
						}
					],
					"internalType": "struct Voting.Proposal[]",
					"name": "",
					"type": "tuple[]"
				}
			],
			"stateMutability": "view",
			"type": "function"
		},
		{
			"inputs": [],
			"name": "getWinningProposalDetails",
			"outputs": [
				{
					"components": [
						{
							"internalType": "string",
							"name": "description",
							"type": "string"
						},
						{
							"internalType": "uint256",
							"name": "voteCount",
							"type": "uint256"
						}
					],
					"internalType": "struct Voting.Proposal",
					"name": "",
					"type": "tuple"
				}
			],
			"stateMutability": "view",
			"type": "function"
		},
		{
			"inputs": [],
			"name": "owner",
			"outputs": [
				{
					"internalType": "address",
					"name": "",
					"type": "address"
				}
			],
			"stateMutability": "view",
			"type": "function"
		},
		{
			"inputs": [
				{
					"internalType": "uint256",
					"name": "",
					"type": "uint256"
				}
			],
			"name": "proposals",
			"outputs": [
				{
					"internalType": "string",
					"name": "description",
					"type": "string"
				},
				{
					"internalType": "uint256",
					"name": "voteCount",
					"type": "uint256"
				}
			],
			"stateMutability": "view",
			"type": "function"
		},
		{
			"inputs": [
				{
					"internalType": "string",
					"name": "_description",
					"type": "string"
				}
			],
			"name": "registerProposal",
			"outputs": [],
			"stateMutability": "nonpayable",
			"type": "function"
		},
		{
			"inputs": [
				{
					"internalType": "address",
					"name": "_voterAdress",
					"type": "address"
				}
			],
			"name": "registerVoter",
			"outputs": [],
			"stateMutability": "nonpayable",
			"type": "function"
		},
		{
			"inputs": [
				{
					"internalType": "address[]",
					"name": "_votersAdresses",
					"type": "address[]"
				}
			],
			"name": "registerVoters",
			"outputs": [],
			"stateMutability": "nonpayable",
			"type": "function"
		},
		{
			"inputs": [],
			"name": "renounceOwnership",
			"outputs": [],
			"stateMutability": "nonpayable",
			"type": "function"
		},
		{
			"inputs": [],
			"name": "status",
			"outputs": [
				{
					"internalType": "enum Voting.WorkflowStatus",
					"name": "",
					"type": "uint8"
				}
			],
			"stateMutability": "view",
			"type": "function"
		},
		{
			"inputs": [
				{
					"internalType": "address",
					"name": "newOwner",
					"type": "address"
				}
			],
			"name": "transferOwnership",
			"outputs": [],
			"stateMutability": "nonpayable",
			"type": "function"
		},
		{
			"inputs": [
				{
					"internalType": "uint256",
					"name": "_proposalId",
					"type": "uint256"
				}
			],
			"name": "voting",
			"outputs": [],
			"stateMutability": "nonpayable",
			"type": "function"
		},
		{
			"inputs": [
				{
					"internalType": "address",
					"name": "",
					"type": "address"
				}
			],
			"name": "whitelist",
			"outputs": [
				{
					"internalType": "bool",
					"name": "isRegistered",
					"type": "bool"
				},
				{
					"internalType": "bool",
					"name": "hasVoted",
					"type": "bool"
				},
				{
					"internalType": "uint256",
					"name": "votedProposalId",
					"type": "uint256"
				}
			],
			"stateMutability": "view",
			"type": "function"
		}
	]
}